:100000000C94E7010C9408020C9408020C9408026A
:100010000C9408020C9408020C9408020C94080238
:100020000C9408020C9408020C9408020C94080228
:100030000C9408020C9408020C9408020C94080218
:100040000C9408020C9408020C9408020C94080208
:100050000C9408020C9408020C9408020C940802F8
:100060000C9408020C9434400C9408020C94F13F58
:100070000C9408020C9408020C9408020C940802D8
:100080000C9408020C9408020C9408020C940802C8
:100090000C949C440C9408020C94CB440C940802DD
:1000A0000C9408020C9408020C9408020C940802A8
:1000B0000C9408020C9408020C9408020C94080298
:1000C0000C9408020C9408020C94080220032E03DE
:1000D00035035203650375037E0387039003990379
:1000E000A20304050605030508050305030503052A
:1000F0000A050305030503050305030503050305B9
:100100000C050305030503050305030503050305A6
:10011000030503050305030503050305030503059F
:100120000E05030503050305030503050305030584
:10013000030503050305030503050305030503057F
:10014000030503050305030503050305030503056F
:10015000030503050305030503050305030503055F
:1001600002051C051E051B0520051B051B051B059F
:1001700022051B051B051B051B051B051B051B0578
:1001800024051B051B051B051B051B051B051B0566
:100190001B051B051B051B051B051B051B051B055F
:1001A00026051B051B051B051B051B051B051B0544
:1001B0001B051B051B051B051B051B051B051B053F
:1001C0001B051B051B051B051B051B051B051B052F
:1001D0001B051B051B051B051B051B051B051B051F
:1001E0001A0537053C053605410536053605360541
:1001F0004605360536053605360536053605360517
:100200004B05360536053605360536053605360501
:100210003605360536053605360536053605360506
:1002200050053605360536053605360536053605DC
:1002300036053605360536053605360536053605E6
:1002400036053605360536053605360536053605D6
:1002500036053605360536053605360536053605C6
:100260003205610561055B0561055B055B055B05A5
:100270006A055B055B055B055B055B055B055B056F
:100280006F055B055B055B055B055B055B055B055A
:100290005B055B055B055B055B055B055B055B055E
:1002A00064055B055B055B055B055B055B055B0545
:1002B0005B055B055B055B055B055B055B055B053E
:1002C0005B055B055B055B055B055B055B055B052E
:1002D0005B055B055B055B055B055B055B055B051E
:1002E00077056A2B752B7E2B882B912B9A2B562BFF
:1002F000602B6364696E6F70737578585B000C9443
:1003000075030C9424050C9452030C949A2B0C94B2
:1003100050050C940E050C9441050C94752B0C940F
:10032000A2030C941C050C9426050C94882B0C94A9
:1003300031440C941A050C9490030C94912B0C945A
:100340005B050C9437050C9499030C943C050C94B4
:1003500022050C947E030C946F050C9404050C94F8
:100360005E490C946A050C9408050C9464050C9481
:1003700006050C9446050C944B050C9436050C941C
:1003800077050C9420050C9453440C9435030C947D
:10039000602B0C9487030C9432050C942E030C9460
:1003A00002050C941E050C941B050C9403050C947B
:1003B000562B0C9461050C9420030C946A2B0C941E
:1003C0000C050C9465030C947E2B0C940A051124E7
:1003D0001FBECFEFD1E2DEBFCDBF00E00CBF12E009
:1003E000A0E0B2E0E2EAF9EA00E00BBF02C0079049
:1003F0000D92A63CB107D9F712E1A6ECB2E001C01C
:100400001D92A933B107E1F70E94B3480C94CF5471
:100410000C940000681B790B683F88EF78071CF488
:10042000605F714F06C0693087E0780714F0605153
:100430007E40CB01089581312FEF920714F0805F49
:1004400091090895680F791F77FF03C0605F714FAE
:1004500006C061318EE0780714F060517E40CB0118
:100460000895CF93DF93EC018091CA02823009F4A2
:1004700082C028F4882369F0813029F197C0833045
:1004800009F45EC0843009F091C01092CA0281E084
:100490008EC00E94AE3C81312FEF920714F0805F36
:1004A00091099093C9028093C8022AE02C9FB00161
:1004B0002D9F700D11240E9422029093C7028093F9
:1004C000C60281E071C0C091C602D091C7020E94ED
:1004D000AE3C81312FEF920714F0805F9109BE018D
:1004E0000E940A0297FF03C0919581959109853674
:1004F00091050CF444C0C091C602D091C7020E947D
:10050000AE3C81312FEF920714F0805F9109BE015C
:100510000E940A028536910564F5C091C602D09109
:10052000C7020E94AE3C81312FEF920714F0805F2A
:100530009109BE010E940A028C399F4FBCF533C05D
:100540000E94332181111BC0C091C602D091C70205
:100550000E94AE3C81312FEF920714F0805F910929
:10056000BE010E940A02843691051CF40E94781F85
:100570001DC083E019C00E94AD20882311F084E0E3
:1005800013C0C091C602D091C7020E94AE3C813117
:100590002FEF920714F0805F9109BE010E940A02BA
:1005A0008D399F4F1CF782E08093CA0280E0DF9173
:1005B000CF91089560E071EE80E090E00E940C45DC
:1005C0000E94A91A0E94C71A0E94851D84E690E025
:1005D0000E94B20D0E946D1F0E9429380E94343C77
:1005E00080E10E94830581110E949A3C0E947A3C1E
:1005F000813051F02FEF81EE94E021508040904007
:10060000E1F700C00000F2CF8AEB92E09F938F9356
:100610000E9433450F900F900895CF93DF931F9260
:100620001F92CDB7DEB7E0910002F0910102329641
:10063000EB30F10508F092C0EA59FF4F0C94884A5C
:1006400081E00E94B805882331F08FE10E94B81044
:100650000E94C41007C08EEF9FEF34C00E94161195
:10066000882359F18FEF9FEF2DC08FEB92E09F937E
:100670008F930E9433450F900F9061E0CE01019659
:100680000E9457458093E5022FEF81EE94E02150C0
:1006900080409040E1F700C000008091E50288238F
:1006A00061F35CC061E0CE0101960E94774583ED65
:1006B0009FEF0E943102813019F41A8219824EC0D4
:1006C00081E090E09A83898349C08DE290E00E94A6
:1006D00031028130E9F182E090E09A83898361E020
:1006E000CE0101960E94774539C086EA9FEF0E94AD
:1006F0003102813069F183E090E0EFCF8AE590E04C
:100700000E943102813021F184E090E0E6CF89E758
:100710009FEF0E9431028130D9F085E090E0DDCF7B
:1007200087E890E00E943102813091F086E090E00D
:10073000D4CF8CE49FEF0E943102813049F087E0F2
:1007400090E0CBCF84EB90E00E943102813019F42D
:100750001A821982C4CF88E090E0BFCF89819A8144
:1007600090930102809300020F900F90DF91CF9140
:1007700008950E94C1040E947A050E948A080E947E
:10078000560C0C94800D649974C081E08093FA0239
:100790009091FD02992309F4B5C01092FE0265996B
:1007A00052C081E08093F5029091F802992309F4F8
:1007B00098C01092F902669932C081E08093EB02F2
:1007C0009091EE02992309F47BC01092EF02679991
:1007D000AAC081E08093E6029091E902992309F48E
:1007E0005EC01092EA02489912C091E09093F00224
:1007F0008091F302811110C08091F4028F5F809389
:10080000F4028091F402843109F4B4C00895809117
:10081000F302813009F49DC01092F4020895809192
:10082000EE02813091F69091EF029F5F9093EF027C
:100830009091EF02943159F68093ED021092EE02FE
:100840001092EF02C4CF8091F802813009F0B1CF4D
:100850009091F9029F5F9093F9029091F90294317F
:1008600009F0A9CF8093F7021092F8021092F902D2
:10087000A2CF8091FD02813009F08FCF9091FE02CE
:100880009F5F9093FE029091FE02943109F087CF12
:100890008093FC021092FD021092FE0280CF909194
:1008A000EA029F5F9093EA029091EA02943109F084
:1008B0009ACF8093E7028093E9021092EA0293CFE5
:1008C0009091EF029F5F9093EF029091EF0294312D
:1008D00009F07DCF8093EC028093EE021092EF023C
:1008E00076CF9091F9029F5F9093F9029091F9026F
:1008F000943109F060CF8093F6028093F802109251
:10090000F90259CF9091FE029F5F9093FE02909161
:10091000FE02943109F043CF8093FB028093FD02E5
:100920001092FE023CCF8091E902813009F059CF4C
:100930009091EA029F5F9093EA029091EA029431CB
:1009400009F051CF8093E8021092E9021092EA0276
:100950004ACF9091F4029F5F9093F4029091F40239
:10096000943109F053CF8093F2021092F302109267
:10097000F40208959093F1029093F3021092F4021E
:1009800008958FE787B98EE788B91092FA0210921E
:10099000FB021092FC021092FD021092FE021092D5
:1009A000F5021092F6021092F7021092F8021092DD
:1009B000F9021092EB021092EC021092ED021092EA
:1009C000EE021092EF021092E6021092E7021092ED
:1009D000E8021092E9021092EA021092F0021092DC
:1009E000F1021092F2021092F3021092F4020895B2
:1009F00090E0FC013197E034F10528F4EF58FF4F07
:100A00000C94884A4698089540980895419808950E
:100A100042980895439808954498089545980895F4
:100A200090E0FC013197E034F10528F4EF54FF4FDA
:100A30000C94884A469A0895409A0895419A0895D8
:100A4000429A0895439A0895449A0895459A0895BC
:100A500090E0FC013197E034F10540F4EF50FF4F96
:100A60000C94884A88B190E4892788B9089588B1A0
:100A700091E0892788B9089588B192E0892788B9DB
:100A8000089588B194E0892788B9089588B198E0DD
:100A9000892788B9089588B190E1892788B9089590
:100AA00088B190E2892788B9089590E0FC013197D8
:100AB000E034F10510F080E00895EF5CFE4F0C94F7
:100AC000884A86B180E0089586B1807290E095955D
:100AD0008795089586B183FB882780F9089586B1AC
:100AE000807190E09595879595958795089586B145
:100AF000807408955098589A8DB18F708DB98EB1C9
:100B0000806F8EB90895803259F160F4813001F11F
:100B10008031A1F48091FA02882381F01092FA02C8
:100B200081E00895803461F0803841F48091E602DC
:100B3000882321F01092E60281E0089580E0089574
:100B40008091EB028823D1F31092EB0281E00895AB
:100B50008091F002882391F31092F00281E00895D1
:100B60008091F502882351F31092F50281E00895F7
:100B7000803259F160F4813001F18031A1F480912B
:100B8000FB02882381F01092FB0281E008958034FB
:100B900061F0803841F48091E702882321F01092BF
:100BA000E70281E0089580E008958091EC028823B7
:100BB000D1F31092EC0281E008958091F102882334
:100BC00091F31092F10281E008958091F60288235A
:100BD00051F31092F60281E00895803259F160F4E9
:100BE000813001F18031A1F48091FC02882381F0F1
:100BF0001092FC0281E00895803461F0803841F465
:100C00008091E802882321F01092E80281E00895A3
:100C100080E008958091ED028823D1F31092ED02D7
:100C200081E008958091F202882391F31092F202FC
:100C300081E008958091F702882351F31092F70222
:100C400081E0089590917C00987F90937C002091A2
:100C50007C00982F9770922B90937C00882359F0FA
:100C6000815020E830E002C0359527958A95E2F75B
:100C7000209522B9089582B18C6F82B90895CF92E0
:100C8000DF92EF92FF92CF93DF93CDB7DEB72E972F
:100C90000FB6F894DEBF0FBECDBF8EE0ECEAF2E0F7
:100CA000DE01119601900D928A95E1F789819A8172
:100CB0009C01220F331F220F331F220F331F281BCB
:100CC000390B40E050E0C12CB4ECDB2EB9E0EB2E48
:100CD000F12CC701B6010E941749215031092F3F5D
:100CE000310509F008F49BC08B819C819C01220F87
:100CF000331F220F331F220F331F281B390B40E0F5
:100D000050E0C701B6010E941749215031092F3F19
:100D1000310509F008F48AC08D819E819C01220F63
:100D2000331F220F331F220F331F281B390B40E0C4
:100D300050E0C701B6010E941749215031092F3FE9
:100D4000310509F008F474C08F8198859C01220F49
:100D5000331F220F331F220F331F281B390B40E094
:100D600050E0C701B6010E941749215031092F3FB9
:100D7000310509F008F45EC089859A859C01220F2F
:100D8000331F220F331F220F331F281B390B40E064
:100D900050E0C701B6010E941749215031092F3F89
:100DA000310509F008F448C08B859C859C01220F11
:100DB000331F220F331F220F331F281B390B40E034
:100DC00050E0C701B6010E941749215031092F3F59
:100DD0003105A1F198F18D859E859C01220F331F6D
:100DE000220F331F220F331F281B390B40E050E026
:100DF000C701B6010E941749215031092F3F310523
:100E0000F9F0F0F02E960FB6F894DEBF0FBECDBF0E
:100E1000DF91CF91FF90EF90DF90CF90089580E029
:100E20002093B3008F5F8093B100ECCF81E0F8CFC7
:100E300082E0F6CF83E0F4CF84E0F2CF85E0F0CF1C
:100E400086E0EECFEAE7F0E0808180648083089559
:100E500080917A0082958170089587B3869581701C
:100E60000895B99B089587B3876087BB1092B2003D
:100E70009091EF0380917C00887F80937C0020918B
:100E80007C00892F8770822B80937C00992309F442
:100E900020C12FEF290F80E890E002C0959587953B
:100EA0002A95E2F7809582B920E42A95F1F780919E
:100EB0007A00806480937A0080917A0084FFFCCF6E
:100EC00080917A00806180937A008091780090917F
:100ED0007900E091EF03F0E0EE0FFF1FE051FC4FCF
:100EE00091838083E091EF032091000330E1E39F41
:100EF000F0011124E20FF11DEE0FFF1FE15FFC4F27
:100F000091838083E091EF0380E2E89FF001112458
:100F1000E15FFC4F80819181E091EF0320E2E29F4D
:100F2000F0011124E15FFC4F22813381820F931F76
:100F3000E091EF0330E2E39FF0011124E15FFC4F09
:100F400024813581820F931FE091EF0320E2E29F1D
:100F5000F0011124E15FFC4F26813781820F931F3E
:100F6000E091EF0330E2E39FF0011124E15FFC4FD9
:100F700020853185820F931FE091EF0320E2E29FED
:100F8000F0011124E15FFC4F22853385820F931F0E
:100F9000E091EF0330E2E39FF0011124E15FFC4FA9
:100FA00024853585820F931FE091EF0320E2E29FB5
:100FB000F0011124E15FFC4F26853785820F931FD6
:100FC000E091EF0330E2E39FF0011124E15FFC4F79
:100FD00020893189820F931FE091EF0320E2E29F85
:100FE000F0011124E15FFC4F22893389820F931FA6
:100FF000E091EF0330E2E39FF0011124E15FFC4F49
:1010000024893589820F931FE091EF0320E2E29F4C
:10101000F0011124E15FFC4F26893789820F931F6D
:10102000E091EF0330E2E39FF0011124E15FFC4F18
:10103000208D318D820F931FE091EF0320E2E29F1C
:10104000F0011124E15FFC4F228D338D820F931F3D
:10105000E091EF0330E2E39FF0011124E15FFC4FE8
:10106000248D358D820F931FE091EF0320E2E29FE4
:10107000F0011124E15FFC4F268D378D820F931F05
:10108000929582958F7089279F708927E091EF0351
:10109000F0E0EE0FFF1FEF5FFC4F91838083209104
:1010A000EF032630D1F02091EF03211107C02091EA
:1010B000FF022130E1F08E3A914008F18091EF0378
:1010C00090E0019667E070E00E9403498093EF038F
:1010D000089582B18C6F82B9E7CE2091000330E091
:1010E0002F5F3F4F2F70332720930003DCCF863DC7
:1010F000914020F30E94060C1092FF02DFCF4EE1D8
:1011000050E06EE170E085E00E94130C81E0809376
:10111000FF02D4CFCF92DF92EF92FF92CF93DF9373
:10112000CDB7DEB72E970FB6F894DEBF0FBECDBF9A
:1011300087E880937A0010927B0010927C001092D6
:101140007E0010927D008CEF81B982B986E692E034
:101150009093F1038093F003909302038093010333
:101160009093100380930F039093120380931103C5
:1011700090931403809313039093160380931503A5
:10118000909318038093170390931A038093190385
:1011900090931C0380931B0390931E0380931D0365
:1011A0009093200380931F03909322038093210345
:1011B0009093240380932303909326038093250325
:1011C000909328038093270390932A038093290305
:1011D00090932C0380932B0390932E0380932D03E5
:1011E0009093F3038093F20390930403809303039B
:1011F0009093300380932F039093320380933103B5
:101200009093340380933303909336038093350394
:10121000909338038093370390933A038093390374
:1012200090933C0380933B0390933E0380933D0354
:101230009093400380933F03909342038093410334
:101240009093440380934303909346038093450314
:10125000909348038093470390934A0380934903F4
:1012600090934C0380934B0390934E0380934D03D4
:101270009093F5038093F403909306038093050302
:101280009093500380934F039093520380935103A4
:101290009093540380935303909356038093550384
:1012A000909358038093570390935A038093590364
:1012B00090935C0380935B0390935E0380935D0344
:1012C0009093600380935F03909362038093610324
:1012D0009093640380936303909366038093650304
:1012E000909368038093670390936A0380936903E4
:1012F00090936C0380936B0390936E0380936D03C4
:101300009093F7038093F603909308038093070369
:101310009093700380936F03909372038093710393
:101320009093740380937303909376038093750373
:10133000909378038093770390937A038093790353
:1013400090937C0380937B0390937E0380937D0333
:101350009093800380937F03909382038093810313
:1013600090938403809383039093860380938503F3
:10137000909388038093870390938A0380938903D3
:1013800090938C0380938B0390938E0380938D03B3
:101390009093F9038093F80390930A0380930903D1
:1013A0009093900380938F03909392038093910383
:1013B0009093940380939303909396038093950363
:1013C000909398038093970390939A038093990343
:1013D00090939C0380939B0390939E0380939D0323
:1013E0009093A00380939F039093A2038093A10303
:1013F0009093A4038093A3039093A6038093A503E3
:101400009093A8038093A7039093AA038093A903C2
:101410009093AC038093AB039093AE038093AD03A2
:101420009093FB038093FA0390930C0380930B0338
:101430009093B0038093AF039093B2038093B10372
:101440009093B4038093B3039093B6038093B50352
:101450009093B8038093B7039093BA038093B90332
:101460009093BC038093BB039093BE038093BD0312
:101470009093C0038093BF039093C2038093C103F2
:101480009093C4038093C3039093C6038093C503D2
:101490009093C8038093C7039093CA038093C903B2
:1014A0009093CC038093CB039093CE038093CD0392
:1014B0009093FD038093FC0390930E0380930D03A0
:1014C0009093D0038093CF039093D2038093D10362
:1014D0009093D4038093D3039093D6038093D50342
:1014E0009093D8038093D7039093DA038093D90322
:1014F0009093DC038093DB039093DE038093DD0302
:101500009093E0038093DF039093E2038093E103E1
:101510009093E4038093E3039093E6038093E503C1
:101520009093E8038093E7039093EA038093E903A1
:101530009093EC038093EB039093EE038093ED0381
:101540001092EF03109200031092FF0282E080934A
:10155000B0001092B2001092700087E087BB8EE05E
:10156000ECEAF2E0DE01119601900D928A95E1F726
:1015700089819A819C01220F331F220F331F220F72
:10158000331F281B390B40E050E0C12C64ECD62EF1
:1015900069E0E62EF12CC701B6010E9417492150DF
:1015A00031092F3F310509F008F49BC08B819C81E4
:1015B0009C01220F331F220F331F220F331F281BC2
:1015C000390B40E050E0C701B6010E941749215095
:1015D00031092F3F310509F008F48AC08D819E81C1
:1015E0009C01220F331F220F331F220F331F281B92
:1015F000390B40E050E0C701B6010E941749215065
:1016000031092F3F310509F008F474C08F819885A6
:101610009C01220F331F220F331F220F331F281B61
:10162000390B40E050E0C701B6010E941749215034
:1016300031092F3F310509F008F464C089859A8586
:101640009C01220F331F220F331F220F331F281B31
:10165000390B40E050E0C701B6010E941749215004
:1016600031092F3F310509F008F44AC08B859C856C
:101670009C01220F331F220F331F220F331F281B01
:10168000390B40E050E0C701B6010E9417492150D4
:1016900031092F3F310591F188F18D859E859C019F
:1016A000220F331F220F331F220F331F281B390B2A
:1016B00040E050E0C701B6010E94174921503109AE
:1016C0002F3F3105C9F0C0F02E960FB6F894DEBF5B
:1016D0000FBECDBFDF91CF91FF90EF90DF90CF9005
:1016E000089580E02093B3008F5F8093B100ECCF2A
:1016F00081E0F8CF82E0F6CF86E0F4CF85E0F2CF4C
:1017000084E0F0CF83E0EECFE82FF0E0EE0FFF1F94
:10171000E051FC4F808191810895E82FF0E0EE0FB9
:10172000FF1FEF5FFC4F808191810895C19B11C025
:10173000C19A10929500109294008091CF0281116D
:1017400009C080910504813081F08091FE038130D1
:1017500061F0089580910504813019F18091FE03B4
:101760008130F9F01092CF02089581E08093CF028A
:101770008091FF039091000401979093CE02809393
:10178000CD0220910104309102043093CC022093C9
:10179000CB02892BF1F6809180008F7380938000BB
:1017A00008958091CD029091CE02009741F001976B
:1017B0009093CE028093CD02892B59F6ECCF809185
:1017C000CB029091CC02009731F001979093CC021C
:1017D0008093CB020895809180008F7B809380005E
:1017E000809180008068809380008091FF039091B9
:1017F00000049093CE028093CD02809101049091D9
:1018000002049093CC028093CB0208958091FE0352
:10181000813009F00895809180008F73809380005B
:101820001092FE0308959091FE03992359F191308F
:10183000A9F11092870090E0FC01EA5FFB4F208144
:10184000209386001092890020812695209388009D
:10185000709300046093FF035093020440930104CB
:101860009093040480930304809180008F7B809385
:1018700080008091800080688093800081E0809368
:10188000FE03089590910504913099F6909180009F
:101890009F739093800010920504CBCF90918000AD
:1018A0009F73909380001092FE03C3CF259A2D98CA
:1018B00010926F009FE296BB1092850010928400F8
:1018C000E0E8F0E0108280818E7F808380818260FA
:1018D0008083E1E8F0E010828081886080838081ED
:1018E0008061808310928900109288008081887FB7
:1018F00080838081856080831092710098BB1092F4
:10190000950010929400E0E9F0E0108280818E7FD3
:10191000808380818D7F8083E1E9F0E01082808187
:101920008860808380818F7E808398E19093990086
:101930008AE6809398008081887F8083808184609C
:1019400080838DE1809306048AE18093070490935D
:10195000080486E18093090484E180930A0482E10B
:1019600080930B0480E180930C0410920504109284
:10197000FE0381E090E0909300048093FF03909336
:101980000204809301041092040410920304089549
:101990009091FE0391112CC090910504911128C0E3
:1019A0001092870090E0FC01EA5FFB4F20812093BA
:1019B00086001092890020812695209388009093BC
:1019C000040480930304709300046093FF03509316
:1019D000020440930104809180008F7B80938000FB
:1019E0008091800080688093800081E0809305046E
:1019F00008959091FE03911104C0909105049130D7
:101A000009F008951092870090E0FC01EA5FFB4F17
:101A100020812093860010928900208126952093B2
:101A20008800909304048093030408952091FE039A
:101A3000211104C020910504213009F008959093EC
:101A400000048093FF0308952091FE03211104C038
:101A500020910504213009F00895909302048093A9
:101A6000010408958091FE03811104C08091050452
:101A7000813009F00895809180008F7380938000F9
:101A80001092050408958091050408958091FE0345
:101A90000895D19B19C0D19A10922501109224016A
:101AA000409113048091D0029091D102413069F0AD
:101AB00020910D0430910E0482179307C9F001960E
:101AC0009093D1028093D002089520911004309118
:101AD00011048217930799F71092D1021092D00245
:101AE00040930F0480912101887F80932101089504
:101AF0001092D1021092D00281E0809312040895D6
:101B0000109273008FE28ABB10922501109224017B
:101B1000E0E2F1E0108280818E7F808380818D7F82
:101B20008083E1E2F1E0108280818860808380819F
:101B30008F7E808388E1809329018AE68093280143
:101B40008081887F80831092130410921104109278
:101B5000100410920E0410920D0410920F041092B3
:101B600012040895109213049C013695279536951A
:101B70002795ABE7B4E10E94E2489695879590934C
:101B80000E0480930D0410921204109225011092FD
:101B900024018FE28ABBE1E2F1E08081887F8083CB
:101BA000808184608083089521E0209313049C0148
:101BB0003695279536952795ABE7B4E10E94E24824
:101BC00096958795909311048093100410920F04BA
:101BD00010922501109224018FE28ABBE1E2F1E02C
:101BE0008081887F80838081846080830895809154
:101BF0001204813011F080E00895109212040895CB
:101C000080910F04813011F080E0089510920F044C
:101C10000895E1E2F1E08081887F8083D19A10927B
:101C20002501109224011092120410920F040895BD
:101C3000109272008FE289BB1092A5001092A4004E
:101C4000E0EAF0E0108280818E7F808380818D7F4A
:101C50008083E1EAF0E01082808188608083808167
:101C60008F7E80838DE38093A90088E08093A80015
:101C70008081887F80838081826080830895C99B72
:101C800007C0C99A1092A5001092A40081E008959F
:101C900080E00895AF92BF92CF92DF92EF92FF92D1
:101CA0000F931F93CF93DF931F921F92CDB7DEB791
:101CB000CE0101960E94A31AE8E0F5E049815A811D
:101CC000B1E4AB2EB1E1BB2ED12C01E010E085E0F8
:101CD000C82E1FC0C9018B5E9B4FDC01CC92C9018D
:101CE0008A5E9B4FDC01CC92CB01880F991F8B56EB
:101CF0009B4F2B5E3B4FDC012D933C93D39470960E
:101D00004E5F5F4FBFEFAB1ABB0A87E0E830F807C2
:101D1000D9F18081882399F3DA018D919C919F01FB
:101D200027503109D9012D913C91820F931FD50184
:101D30002C91820F911D27FD9A956D2D70E09B01CE
:101D4000220F331F220F331FD901A95EBB4F8C9383
:101D5000D901A85EBB4F9C93CF010197DC018C9108
:101D6000882309F4B7CF8F70D80102C0AA0FBB1F18
:101D70008A95E2F7CD01D901AB5EBB4F8C93D901B7
:101D8000AA5EBB4F8C93B0CFDD2061F005E914E073
:101D900024E030E04CE150E069ED74E080911404FF
:101DA0000E9443430F900F90DF91CF911F910F91AD
:101DB000FF90EF90DF90CF90BF90AF90089590E1AB
:101DC000899FF0011124E750FB4F6687089590E149
:101DD000899FF0011124E750FB4F8685089590E11B
:101DE000899FF0011124E750FB4F718760870895A8
:101DF00090E1899FF0011124E750FB4F8085918588
:101E0000089590E1899FF0011124E750FB4F8785E9
:101E1000089590E1899FF0011124E750FB4F8285DE
:101E2000089590E1899FF0011124E750FB4F8485CC
:101E30000895C99B15C0C99A1092A5001092A400DC
:101E40000E94263881110DC00E9419110E94E519C7
:101E50000E9462320E942638811106C00C944A0EFC
:101E600008950E949737F0CF0E94A137F7CF2F92A5
:101E70003F924F925F926F927F928F929F92AF921A
:101E8000BF92CF92DF92EF92FF920F931F93CF9367
:101E9000DF9300D0CDB7DEB7482E19820E941041E3
:101EA000882309F452C12FEF89E698E12150804040
:101EB0009040E1F700C00000E9EFF4E048E055E0B1
:101EC00025E01182108213821282158214821782F9
:101ED000168211861086DA011C92CA010197DC0174
:101EE0002C9313861286158614867096405F5F4F7A
:101EF000B6E0E93FFB0729F71092D5041092D6040B
:101F00001092D7041092D80469ED74E0CE010196C6
:101F10000E946541109214048981882309F418C134
:101F2000312C9CE2892E99249394AA24AA9423E02C
:101F3000B22EC12C32E0D32E5524539445E0642EAA
:101F4000EE24E394F12C62E0262E09C081159C401A
:101F500009F4C4C033948981381608F069C0E32DB0
:101F6000F0E0E752FB4F7080872D0E946C3F8C3071
:101F7000910521F08C32E1E09E0741F7872D0E9408
:101F80004E35F0E17F9EB00111248B0107501B4FAD
:101F9000D80111969C928E921396BC92AE92129793
:101FA00015961C921E9214971796DC92CE92169755
:101FB000872D6A837B830E94AB36F80191878087E7
:101FC0006A817B81AB014B5F5A4F6D5F7A4F872DE2
:101FD0000E94D233D8011F965C921F971E966C9276
:101FE000809114048F5F80931404A70102C0440FF2
:101FF000551F7A94E2F7662757FD6095762F8091FA
:10200000D5049091D604A091D704B091D804842B24
:10201000952BA62BB72B8093D5049093D604A09331
:10202000D704B093D80433948981381608F497CF35
:1020300080911404481609F485C044E650E06AE033
:1020400070E084E00E94130C109272008FE289BB52
:102050001092A5001092A4001092A0008091A00000
:102060008E7F8093A0008091A0008D7F8093A00040
:102070001092A1008091A10088608093A1008091BE
:10208000A1008F7E8093A1008DE38093A90088E05A
:102090008093A8008091A100887F8093A100809107
:1020A000A10082608093A1000E94AA108091140474
:1020B0000F900F900F90DF91CF911F910F91FF9094
:1020C000EF90DF90CF90BF90AF909F908F907F90D8
:1020D0006F905F904F903F902F900895872D0E94B2
:1020E0004E35E0E17E9EB00111248B0107501B4F5D
:1020F000E4EBF0E0D8011196FC93EE931396BC92BA
:10210000AE92129715961C921E9214971796DC9217
:10211000CE921697872D6A837B830E94AB36D801B7
:1021200019969C938E9318976A817B81AB014B5FC4
:102130005A4F6D5F7A4F872D0E94D233F801278660
:1021400066864ECF0E94060C7FCF0E94DA40ABCE4F
:1021500080E070CF1092750C1092B70B8FEF8093C8
:10216000B70C8093B6098093740C1092B60C089546
:10217000CF93C82F67EB79E00E949F19811102C0AD
:10218000C093B609CF9108951092750C1092F70B79
:102190001092F60B1092B5091092B4091092B50C7A
:1021A0001092B40C83E08093570D1092740C8091C0
:1021B000C6098093B3091092B70CE8E0F5E080E01F
:1021C00090E006C07096029627E0E830F20709F129
:1021D00020812130B9F7DF0117972D913C91DC0167
:1021E000AA58B34F2D933C93DC01A75EB24F1D92CA
:1021F0001C92DC01AA5CB34F1D921C92DC01A7501B
:10220000B94F1D921C927096029627E0E830F207B3
:10221000F9F681E08093B60C80917711806180930C
:102220007711089581E08093B70B08958091B60CE3
:1022300008952F923F924F925F926F927F928F926A
:102240009F92AF92BF92CF92DF92EF92FF920F9345
:102250001F93CF93DF93CDB7DEB7A3970FB6F89454
:10226000DEBF0FBECDBF8091B60C882309F49AC0A3
:102270008091F60B9091F70B4091B4095091B509FC
:102280008417950708F0A7C08C010F5F1F4F1A87AE
:1022900009871093F70B0093F60B1091570D1D87CC
:1022A000133009F47FC08091B4099091B5098C0175
:1022B00020E030E0098B1A8B2B8B3C8B8C0101507A
:1022C00011091E8B0D8B09ED1CE071E0A72E75E046
:1022D000B72EE7E3CE2EE7E0DE2EF9E1EF2EFDE0AC
:1022E000FF2EA9EF4A2EA6E05A2EB8EB6B2EBBE0CC
:1022F0007B2E812C912C80E090E0212C312C9BA313
:102300008AA3C201230194014801A60167017A0151
:1023100089013C0121C0BFEF2B1A3B0AEAA1FBA1B6
:102320007096FBA3EAA3F2E08F0E911C0E5F1F4F85
:1023300020E1A20EB11C32E0E30EF11C42E0C40E1B
:10234000D11C52E0650E711C62E0460E511C8AA140
:102350009BA18115924031F12AA13BA127503B4F0F
:102360003A832983D9011F968C918130A1F6F80117
:10237000EA5CF34F80819181892B09F06FC0F401F1
:1023800080819181D5018D939C93F101E954F64FA1
:1023900080A1A981BA811E968C93BDCF1092B60CF4
:1023A0001092B70BA3960FB6F894DEBF0FBECDBF49
:1023B000DF91CF911F910F91FF90EF90DF90CF9021
:1023C000BF90AF909F908F907F906F905F904F9055
:1023D0003F902F9008951092F70B1092F60BE8E0C3
:1023E000F5E080E090E006C07096029607E0E830E5
:1023F000F007E1F020812130B9F7DF0117972D9127
:102400003C91DC01A752B34F2D933C93DC01A750C4
:10241000B94F2D913C91DC01A75EB24F2D933C93B7
:102420007096029607E0E830F00721F78091570D8B
:10243000882309F4C7C0813009F492C1823009F4BD
:102440005BC1833009F42CC25E874D8780E090E049
:10245000DA018A179B0708F0A5CF16CFBD85B11109
:102460004AC0F6010190F081E02DF88BEF87F7016B
:10247000A081B1812F853889A21BB30B29853A85AC
:102480000E94F14829893A894B895C890E9439491F
:102490008F859889820F931FD3018D939C93D901C7
:1024A000B595A795EF85F889AE0FBF1F29853A85A9
:1024B0000E94F1489B01AC01A0E9B0E00E94F848FD
:1024C0002FE030E040E050E00E94394969E0559546
:1024D0004795379527956A95D1F7F801EB58F64F50
:1024E00031832083D4018D919C91820F931FF5013C
:1024F000918380834ACFB13009F448C029853A8559
:102500004D895E892417350709F421C1F101E8548A
:10251000F34F808181113AC0F6010190F081E02DE6
:10252000F88BEF87DF01B195A195B10929853A852F
:102530000E94F14829893A894B895C890E9439496E
:102540008F859889820F931FD3018D939C93D90116
:10255000B595A795EF85F889AE0FBF1F29853A85F8
:102560000E94F1489B01AC01A0E9B0E00E94F8484C
:102570002FE030E040E050E00E94394999E0559565
:102580004795379527959A95D1F7ACCFF201A08161
:10259000B18129853A850E94F14829893A894B8978
:1025A0005C890E943949D4018D919C91820F931FBF
:1025B000F50191838083D7018D919C91F3019183E3
:1025C0008083E3CE81E08093570D2091170D3091E9
:1025D000180D0091D70C1091D80C1A830983C801EB
:1025E000880F991F8901081B190B1E870D871093EF
:1025F000B5090093B40909811A812017310709F43C
:10260000E5C0A801B6E32B2EBCE03B2E15E7612EFA
:1026100019E0712E07E3802E07E0902E88EB482EFC
:102620008BE0582E08EB1CE068E075E0C901841BC4
:10263000950B9C0140E050E029873A874B875C87E7
:1026400095E0C92ED12CE12CF12C788B6F8719C025
:10265000EF85F8897096F88BEF87F2E02F0E311C2A
:1026600022E0620E711C32E0830E911C42E0440EA7
:10267000511C0F5F1F4F6F8578896850774009F4B0
:102680004BC0AF85B8898C91813011F7F8018081FA
:10269000813009F446C0F401A081B181F101A0802C
:1026A000B180F30180819181A81AB90A29813A8108
:1026B0000E94F1489B01AC01660F771F881F991F8C
:1026C000620F731F841F951F660F771F881F991F46
:1026D000660F771F881F991FA70196010E9439492D
:1026E000BB2757FDBA95A52F942F832FA81AB90A97
:1026F000D201AD92BC92ACCF8091B40C9091B50C4C
:10270000009709F4E1C023E02093570D9093B50999
:102710008093B4099E878D8780E090E0AD85BE856B
:1027200098CEF101A081B181F30180819181A81B34
:10273000B90B2D853E850E94F14829853A854B8548
:102740005C850E943949D2012D933C9381CFF801D9
:10275000EA58F34F80819181D5018D939C9315CEDA
:1027600082E08093570D7091D70C6091D80C7093D4
:10277000B4096093B509A8EBBBE0E8E0F5E080E0C0
:1027800090E08D0109C0709602960E5F1F4FB7E072
:10279000E830FB0709F47DC020812130A1F79C01BE
:1027A0002A5C334FD9012D913C91D8014D915C9118
:1027B000241B350BAC014B58564FDA014D915C91FF
:1027C000241B350BD8012D933C93DDCFB8EBCB2EDA
:1027D000BBE0DB2E18EBE12E1CE0F12E88E095E04B
:1027E00000E010E045E0442E512C612C712C490191
:1027F0001C0111C0F0E12F0E311C22E0C20ED11CD1
:102800000E5F1F4F3FEFE31AF30A48E0241647E03C
:10281000340609F481CFD1018C91813059F7F70149
:1028200080818130C9F1F801E95CF84FA081B18164
:10283000F801EA5CF34FA080B180F801EB58F64F45
:1028400080819181A81AB90A94010E94F1489B01E4
:10285000AC01660F771F881F991F620F731F841FBB
:10286000951F660F771F881F991F660F771F881F98
:10287000991FA30192010E943949BB2757FDBA95C0
:10288000A52F942F832FA81AB90AF601B182A0822E
:10289000B1CF7D876E8740CFD6011D921C92AACF03
:1028A0001092570DA9E1BDE0E8E0F5E006C0709692
:1028B000129607E0E830F00749F080818130B9F7DF
:1028C00011961C921E92F3CF1092570D8091750CA9
:1028D000813009F463CD8091740C8F5F8093740C08
:1028E000A091CB09A81708F0C8C080E092E0E5E706
:1028F000F7E0A7EBB9E001900D920197E1F7809125
:10290000B70C9091B609981721F09091C609909351
:10291000B30991E09093740C8093B609A091CB0910
:10292000B1E0AB1709F484C26B2F70E08B0101504A
:102930001109002416950795079416950795079495
:10294000102F002DA8014954564FFA01E258FF4FAD
:1029500080812091CD09289FC001112496958795EB
:10296000929582958F7089279F7089279093B50CD7
:102970008093B40CFA01E158FF4F3081329F9001EF
:10298000112436952795329522952F7023273F7075
:1029900023272115310511F421E030E04091750C19
:1029A000413009F45EC2892B09F4C4C1AB1709F4A4
:1029B00056C3E8EB4E2EECE05E2EA6E7BCE07B01B2
:1029C0000024F694E7940794F694E7940794FE2C79
:1029D000E02CA7014950564F7A0180EC582F56033E
:1029E0004001579F900C1124E8E0F5E080E090E072
:1029F00059013D01A70168010EC07096BFEF4B1A47
:102A00005B0A029602E0600E711C4E5F5F4F17E09A
:102A1000E830F107A1F12081213079F79C012B5892
:102A2000364FD9011D921C929A01280D391D2C0D8B
:102A30003D1DD9012D913C9136FF18C0D3012D9138
:102A40003C91B901E12CF12C8C010752134FD801B4
:102A50006D937C93D3012D933C939C012A5C334F5F
:102A6000D901ED92FC92D2011C92C7CFD3016D9196
:102A70007C917901E61AF70AE7CFB82F52CF95017A
:102A80003093180D2093170D8091CF0990E0AC0181
:102A9000440F551F4217530708F4E0C0C9010197BE
:102AA000969587959093D80C8093D70C009709F052
:102AB000D9C01092180D1092170D1E861D8619820E
:102AC0001A821B821C821D821E821F82188661E070
:102AD0006F87412C512C198A1D8A1F8A188E198ED6
:102AE00071E07A8F1B8E1C8E1D8E1E8E1F8E18A27B
:102AF00019A277E3872E77E0972EE8EB6E2EECE0B5
:102B00007E2E08E015E0212C312C1BA30AA315C052
:102B10000AA11BA1005F1F4F1BA30AA312E0810E95
:102B2000911C22E0220E311C3FEF631A730A4AA166
:102B30005BA14850574009F484C0AAA1BBA18C9165
:102B4000813031F7F101E75EF24F31812081932F1F
:102B5000990F990BA980BA80CB80DC80ED80FE8034
:102B60000F811885492F592F692F792F892F0E949E
:102B70008F4959016A017B018C01F101EA5CF34F35
:102B8000A081B18120E03AE00E94F1482CE030E0E1
:102B900040E050E00E943949DA01C901550F220B8B
:102BA000322FA90129873A874B875C87F30120815F
:102BB000211122C09C01AD016985762F862F962FA9
:102BC0000E94B04AAA8CBB8CCC8CDD8CEE8CFF8C26
:102BD00008A119A10E945249D4012C9311963C934B
:102BE000822F932F8115F4E09F070CF1EFEFF3E0B4
:102BF000D401ED93FC938CCF9C01AD016985762FB8
:102C0000862F962F0E94B04AAF84B42CC52CD98849
:102C1000ED88FF88088D198D0E945249F4012083A8
:102C20003183822F932F8115F4E09F07FCF68130CA
:102C30009C4F0CF06DCFE1E0FCEFD401ED93FC93E1
:102C400067CF8D859E859093B5098093B409809157
:102C5000F60B9091F70BAD85BE85FBCB9093D80C0E
:102C60008093D70C4901A12CB12C880C991CAA1C6B
:102C7000BB1CC12CD12C76019E878D87A0E0B0E0D3
:102C8000880F991FAA1FBB1F8C019D0140E050E0D7
:102C9000BA0189831A832B833C834D835E836F83C0
:102CA00078879401A501B601C7015801CB80DC806B
:102CB000E12CF12C00E010E00E94B04A01E00E94FB
:102CC0008E4A722E832E942EB52F662E372EF82F15
:102CD000E92F00E00E94A74A2F87432E542E598BDC
:102CE0006D8B7F8B888F998F7A8E8B8E9C8EBD8F0C
:102CF0006E8E3F8EF8A3E9A3452DA0E00E94B94A4D
:102D000049F411E01F87412C512C198A1D8A1F8A12
:102D1000188E198E272D382D492D5B2F662D732D7A
:102D20008F2F9E2FA0E00E94B94A09F0E2CE21E049
:102D30002A8FD8CEAB1709F42AC1A8EBEA2EACE053
:102D4000FA2EB6E74B2EBCE05B2EDB010024B695D5
:102D5000A7950794B695A7950794BA2FA02DA950CB
:102D6000B64F80EC482F46034001479F900C11243A
:102D7000E8E0F5E080E090E0772473945901A70142
:102D80001D0168010FC070964F5F5F4F0296B2E061
:102D90004B0E511C02E0200E311C17E0E830F10709
:102DA00009F46DCE2081213071F79C012B58364FEC
:102DB000D9011D921C929101280D391D2C0D3D1D2C
:102DC000D9012D913C9136FF2CC0D2012D913C911F
:102DD000B901E12CF12C8C010752134FD8016D93EE
:102DE0007C93D2012D933C938C010A5C134FD80144
:102DF000ED92FC92D1010D911C9116FD0FC062174E
:102E0000730730F42017310718F4DA017C92BBCF36
:102E10002617370718F402171307B8F3DA011C92C4
:102E2000B2CFD2016D917C917901E61AF70AD3CF26
:102E30008091B70B813009F4A0C08091B309815013
:102E40008093B309882309F493C08091B6098093D5
:102E5000B70C811169C081E08093750CB091740C3E
:102E600063CD892B09F046C1AB1709F4F5C148EBD6
:102E7000442E4CE0542EA6E7BCE07B010024F694DF
:102E8000E7940794F694E7940794FE2CE02CA701AE
:102E90004950564F7A0180EC582F56034001579FF6
:102EA000900C1124E8E0F5E080E090E059013D014C
:102EB000A7010FC07096BFEF4B1A5B0A029622E083
:102EC000620E711C4E5F5F4F37E0E830F30709F484
:102ED000D6CD2081213071F79C012B58364FD90176
:102EE0001D921C929A01280D391D200F311FD90106
:102EF0002D913C91D30136FF35C02D913C91790144
:102F0000C12CD12CBC016752734FDB01ED92FC92B6
:102F1000D3012D933C939C012A5C334FD901CD9270
:102F2000DC92D2011C92C6CF9091B60998132AC0A8
:102F300080E092E0E7EBF9E0A5E7B7E001900D92C1
:102F40000197E1F780918407882321F08091890718
:102F5000811103C081E08093750CB091740CA09135
:102F6000CB09E2CCED90FC906901CE18DF08CACF06
:102F70008091D0098093B70C6CCF8091D109809358
:102F8000B70C67CF65E777E00E949F19DBCF48EB6E
:102F90005CE0A6E7BCE00954164FE8E0F5E080E00D
:102FA00090E0BB24B39469013A014D010DC07096C5
:102FB000BFEF6B1A7B0A029622E0820E911C37E06B
:102FC000E830F30709F449C04081413081F7AC0192
:102FD0004B58564FDA011D921C92A801480F591FF9
:102FE000405C5F4FDA014D915C9156FF2FC0D401D8
:102FF0004D915C91BA01E12CF12C9C012752334F89
:10300000D9016D937C93D4014D935C939C012A5C10
:10301000334FD901ED92FC929C012B54384FD901CA
:10302000ED90FC90F6FC0FC06417750730F44E1558
:103030005F0518F4D301BC92BACF4617570718F4AE
:10304000E416F506B8F3D3011C92B1CFD4016D910B
:103050007C917A01E61AF70AD0CF960111CD48EBA0
:103060005CE0A6E7BCE00954164FE8E0F5E080E03C
:1030700090E04A0169015D010CC07096BFEF8B1AA8
:103080009B0A029622E0A20EB11C37E0E830F3075B
:1030900021F34081413089F7AC014B58564FDA019A
:1030A0001D921C92A801480F591F405C5F4FDA0126
:1030B0004D915C91D50156FF17C04D915C91BA01BD
:1030C000E12CF12C9C012752334FD9016D937C9355
:1030D000D5014D935C93AC014A5C534FDA01ED92FC
:1030E000FC92D4011C92C9CF6D917C917A01E61AB1
:1030F000F70AE8CFAB1709F465C088EB482E8CE0DF
:10310000582EA6E7BCE07B010024F694E7940794D0
:10311000F694E7940794FE2CE02CC7018950964F53
:103120007C0180EC482F46034001479F900C1124FE
:10313000E8E0F5E080E090E059013D01A701780169
:103140000FC07096BFEF4B1A5B0A029602E0600E4A
:10315000711C4E5F5F4F17E0E830F10709F48FCC28
:103160002081213071F79C012B58364FD9011D92D7
:103170001C929A01280D391D2E0D3F1DD9012D914C
:103180003C9136FF18C0D3012D913C91B901C12C5F
:10319000D12C8C010752134FD8016D937C93D3012E
:1031A0002D933C939C012A5C334FD901CD92DC9244
:1031B000D2011C92C6CFD3016D917C916901C61AD0
:1031C000D70AE7CFA6E7BCE048EB5CE00954164F0E
:1031D000E8E0F5E080E090E05D014A010DC0709606
:1031E0000296B2E0AB0EB11C4FEF841A940A57E07E
:1031F000E830F50709F444CC4081413081F7AC0157
:103200004B58564FDA011D921C92A801480F591FC6
:10321000405C5F4FDA014D915C91D50156FF16C0BD
:103220004D915C91BA01E12CF12CDC01A752B34F16
:103230006D937C93D5014D935C93AC014A5C534FE5
:10324000DA01ED92FC92D4011C92C9CF6D917C9170
:103250007A01E61AF70AE9CFA6E7BCE048EB5CE0A2
:103260000954164FE8E0F5E080E090E05D014A0186
:103270000DC070960296B2E0AB0EB11C4FEF841AEF
:10328000940A57E0E830F50709F4FACB4081413061
:1032900081F7AC014B58564FDA011D921C92A801E0
:1032A000480F591F405C5F4FDA014D915C9156FF0A
:1032B00017C0D5014D915C91BA01E12CF12CDC01D4
:1032C000A752B34F6D937C93D5014D935C93AC01A2
:1032D0004A5C534FDA01ED92FC92D4011C92C9CFA3
:1032E000D5016D917C917A01E61AF70AE8CFFC01CD
:1032F00020E030E090E08191980F2F5F3F4F211543
:1033000082E03807C1F781E0911180E0089520E064
:1033100032E0FC01A901119241505040E1F70895BB
:10332000FB0120E030E0DC01A20FB31F4C91419380
:103330002F5F3F4F211542E03407A9F70895EF9220
:10334000FF920F931F93CF93DF93F62EE72E082F54
:1033500010E020E030E000511F4F2F4F3F4F89E039
:10336000000F111F221F331F8A95D1F7C62FD72FA9
:1033700080E090E0DC01AC01BD01400F511F621FF5
:10338000731F6BBFFA01479149930196A11DB11DAF
:10339000811542E09407A105B10569F7EF2DFE2DD7
:1033A00020E080E090E03191230F0196811532E01A
:1033B0009307C9F781E0211180E08195DF91CF91DA
:1033C0001F910F91FF90EF9008954F925F926F922F
:1033D0007F928F929F92AF92BF92CF92DF92EF92A5
:1033E000FF921F93CF93DF9380919A0D813081F0EC
:1033F000DF91CF911F91FF90EF90DF90CF90BF9022
:10340000AF909F908F907F906F905F904F900895B6
:103410001091580D113061F783E00E94840B2091C8
:103420009D0D30919E0D7C01E21AF30A84E00E940A
:10343000840BC0919B0DD0919C0D662777276E1948
:103440007F09C81BD90B68338FEF78070CF46EC067
:10345000693C710514F01093590D882777FD80950C
:10346000982F0E94D84B6B017C0126E234EB47E990
:103470005DE30E94884C2B013C0129E33EE843E6D2
:103480005EE3C701B6010E94884C4B015C01BE019E
:10349000882777FD8095982F0E94D84B6B017C017F
:1034A0002DEC3CEC4CE45EE30E94884C0E94AA4B5D
:1034B00070936B0D60936A0D70936D0D60936C0D3E
:1034C000C301B2010E94AA4B7093730D6093720DF9
:1034D000C301B20190580E94AA4B7093750D60937E
:1034E000740DC501B4010E94AA4B7093770D6093CF
:1034F000760DC501B40190580E94AA4B7093790DC6
:103500006093780D2DEC3CEC4CEC5DE3C701B6010B
:103510000E94884C90580E94AA4B70937B0D609338
:103520007A0D70937D0D60937C0D62CF82E0809365
:10353000590D93CFE82FF0E0EE0FFF1FE65AF24F40
:103540008081918108952AE53DE0FC01318320834B
:10355000089510929E0D10929D0D10929C0D109248
:103560009B0D1092580D10929A0D1092590D80E4F7
:10357000EAE5FDE0DF011D928A95E9F70895809163
:10358000590D1092590D08951092590D08952F92CA
:103590003F924F925F926F927F928F929F92AF92E3
:1035A000BF92CF92DF92EF92FF920F931F93CF9330
:1035B000DF93CDB7DEB7E4970FB6F894DEBF0FBE4A
:1035C000CDBF10929E0D10929D0D10929C0D1092E9
:1035D0009B0D82E390E00E94B20D7E0185E1E80E32
:1035E000F11CFE013196FAA7E9A71E01F9E22F0EA0
:1035F000311C812C912C54012401350104C00E94FE
:10360000490D0E9431070E94F70D8823C1F383E022
:103610000E94840B8C01F701819391937F0184E0D8
:103620000E94840B6C01E9A5FAA581939193FAA7F6
:10363000E9A7B80180E090E00E94D64B9B01AC0165
:10364000C301B2010E94DA4A2B013C01B60180E0BD
:1036500090E00E94D64B9B01AC01C501B4010E94D1
:10366000DA4A4B015C01E214F30469F60E94090E88
:1036700020E030E040E251E4C301B2010E94424B3D
:103680006B017C0120E030E040E251E4C501B4016F
:103690000E94424B69A77AA78BA79CA76D897E8958
:1036A00080E090E00E94D64BA70196010E94D94A83
:1036B0009B01AC010E94884C20E030E0A9010E94EF
:1036C000DA4A2B013C0169817A8180E090E00E9416
:1036D000D64B29A53AA54BA55CA50E94D94A9B01CA
:1036E000AC010E94884C20E030E0A9010E94DA4A37
:1036F0004B015C016F89788D80E090E00E94D64B91
:10370000A70196010E94D94A9B01AC010E94884CF6
:10371000A30192010E94DA4A2B013C016B817C815A
:1037200080E090E00E94D64B29A53AA54BA55CA568
:103730000E94D94A9B01AC010E94884C9B01AC01BC
:10374000C501B4010E94DA4A4B015C01698D7A8D92
:1037500080E090E00E94D64BA70196010E94D94AD2
:103760009B01AC010E94884C9B01AC01C301B201DA
:103770000E94DA4A2B013C016D817E8180E090E05D
:103780000E94D64B29A53AA54BA55CA50E94D94A13
:103790009B01AC010E94884C9B01AC01C501B401A6
:1037A0000E94DA4A4B015C016B8D7C8D80E090E0D9
:1037B0000E94D64BA70196010E94D94A9B01AC01F9
:1037C0000E94884C9B01AC01C301B2010E94DA4AFD
:1037D0002B013C016F81788580E090E00E94D64B00
:1037E00029A53AA54BA55CA50E94D94A9B01AC012D
:1037F0000E94884C9B01AC01C501B4010E94DA4AC9
:103800004B015C016D8D7E8D80E090E00E94D64B77
:10381000A70196010E94D94A9B01AC010E94884CE5
:103820009B01AC01C301B2010E94DA4A2B013C01A9
:1038300069857A8580E090E00E94D64B29A53AA55B
:103840004BA55CA50E94D94A9B01AC010E94884C03
:103850009B01AC01C501B4010E94DA4A4B015C0135
:103860006F8D78A180E090E00E94D64BA701960171
:103870000E94D94A9B01AC010E94884C9B01AC017B
:10388000C301B2010E94DA4A2B013C016B857C85A1
:1038900080E090E00E94D64B29A53AA54BA55CA5F7
:1038A0000E94D94A9B01AC010E94884C9B01AC014B
:1038B000C501B4010E94DA4A4B015C0169A17AA1F9
:1038C00080E090E00E94D64BA70196010E94D94A61
:1038D0009B01AC010E94884C9B01AC01C301B20169
:1038E0000E94DA4A2B013C016D857E8580E090E0E4
:1038F0000E94D64B29A53AA54BA55CA50E94D94AA2
:103900009B01AC010E94884C9B01AC01C501B40134
:103910000E94DA4A4B015C016BA17CA180E090E03F
:103920000E94D64BA70196010E94D94A9B01AC0187
:103930000E94884C9B01AC01C301B2010E94DA4A8B
:103940002B013C016F85788980E090E00E94D64B86
:1039500029A53AA54BA55CA50E94D94A9B01AC01BB
:103960000E94884C9B01AC01C501B4010E94DA4A57
:103970004B015C016DA17EA180E090E00E94D64BDE
:10398000A70196010E94D94A9B01AC010E94884C74
:103990009B01AC01C301B2010E94DA4A6DA77EA768
:1039A0008FA798AB69897A8980E090E00E94D64B16
:1039B00029A53AA54BA55CA50E94D94A9B01AC015B
:1039C0000E94884C9B01AC01C501B4010E94DA4AF7
:1039D00069AB7AAB8BAB9CAB6FA178A580E090E034
:1039E0000E94D64BA70196010E94D94A2B013C01A7
:1039F0006B897C8980E090E00E94D64B29A53AA58E
:103A00004BA55CA50E94D94A4B015C01A301920120
:103A1000C301B2010E94884C2DA53EA54FA558A90F
:103A20000E94DA4A20E030E040E251E40E94424B3A
:103A30000E94EF4C2B013C01A5019401C501B4018A
:103A40000E94884C29A93AA94BA95CA90E94DA4A8C
:103A500020E030E040E251E40E94424B0E94EF4CF3
:103A60004B015C0120E030E040EA51E4C301B201C7
:103A70000E943E4B87FF0AC020E030E040EA51E45C
:103A8000C501B4010E943E4B87FD26C044E650E0CC
:103A90006AE070E084E00E94130C809171118F77CE
:103AA0008093711180E0E4960FB6F894DEBF0FBEEC
:103AB000CDBFDF91CF911F910F91FF90EF90DF90DD
:103AC000CF90BF90AF909F908F907F906F905F90BE
:103AD0004F903F902F90089581E08093580DC7013B
:103AE000B6010E94AA4B70939E0D60939D0D69A52F
:103AF0007AA58BA59CA50E94AA4B70939C0D609300
:103B00009B0D0E94060C81E0CECF81E080939A0D40
:103B1000089510929A0D089580919A0D08950F932B
:103B20001F93CF93DF93EC011091E002113091F1DC
:103B300008F442C0123081F01330C1F50E94161112
:103B400081112CC01092A30D1092E00281E0DF9150
:103B5000CF911F910F9108950E94161181111EC0DF
:103B60001091A30D8091A20D113009F454C0882347
:103B700009F44AC08A810E94B8101092A20D0E94D6
:103B8000C41082E08093E00280E0DF91CF911F912A
:103B90000F9108950E941611882321F11093E002DD
:103BA00080E0DF91CF911F910F91089580E0DF9128
:103BB000CF911F910F9108958091A10D882301F15C
:103BC00089810E94B8100E94C4108091A10D809339
:103BD000A20D81E08093E00280E0DF91CF911F9100
:103BE0000F9108950091A30D8091A20D013009F16C
:103BF0008111C0CF8B810E94B8101093A20DBFCF4E
:103C000088810E94B810DFCF8B810E94B81081E0BC
:103C10008093A20DB4CF811114C08D810E94B81081
:103C20001093A20D0E94C41083E08093E00280E014
:103C3000B8CF811106C08D810E94B8100093A20DEB
:103C4000F1CF8C810E94B8101092A20DEBCF1F9380
:103C5000CF93DF93EC011091DF02113029F1A0F135
:103C6000123079F0133059F50E941611811120C0DD
:103C70001092A30D1092DF0281E0DF91CF911F918E
:103C800008950E941611811113C08091A20D811117
:103C90005FC08091A30D813009F447C08B810E94E1
:103CA000B8101093DF0233C00E941611882309F167
:103CB0001093DF0280E0DF91CF911F91089580E0A3
:103CC000DF91CF911F9108958091A10D882349F133
:103CD00089810E94B8100E94C4108091A10D809328
:103CE000A20D81E08093DF0280E0DF91CF911F91F0
:103CF00008958091A20D81111FC08091A30D813084
:103D0000A1F08B810E94B81082E08093DF0281E0F5
:103D10008093A20D0E94C41080E0DF91CF911F918B
:103D2000089588810E94B810D6CF8D810E94B81066
:103D300083E08093DF02EBCF8A810E94B81010925B
:103D4000A20D0E94C41082E08093DF0280E0B3CF16
:103D50008A810E94B8101092A20D0E94C410109384
:103D6000DF0280E0A8CF1F93CF93DF93EC01109187
:103D7000DE02113031F1A8F1123079F0133061F523
:103D80000E941611811121C01092A30D1092DE0223
:103D900081E0DF91CF911F9108950E94161181114A
:103DA00014C08091A20D813009F057C08091A30DFD
:103DB000813009F45EC08A810E94B8101093DE023F
:103DC00033C00E941611882309F11093DE0280E0AF
:103DD000DF91CF911F91089580E0DF91CF911F91E6
:103DE00008958091A10D882341F189810E94B81026
:103DF0000E94C4108091A10D8093A20D81E0809358
:103E0000DE0280E0DF91CF911F9108958091A20D95
:103E10008130B9F48091A30D813059F18A810E94DB
:103E2000B81082E08093DE021092A20D0E94C410AE
:103E300080E0DF91CF911F91089588810E94B81092
:103E4000D7CF8B810E94B8101093A20D0E94C4108E
:103E500082E08093DE0280E0BBCF8B810E94B810AD
:103E600081E08093A20D0E94C4101093DE0280E0D6
:103E7000AFCF8C810E94B81083E08093DE02D4CF54
:103E80008091A20D882319F01092A20D089581E06F
:103E90008093A20D0895681B790B683F88EF78071F
:103EA00044F0693087E0780714F060517E40CB0120
:103EB0000895605F714FCB010895680F791F77FDFA
:103EC00008C061318EE0780714F060517E40CB016C
:103ED0000895605F714FCB0108951092A30D109269
:103EE000A10D1092A20D1092A00D10929F0D089599
:103EF00081E08093A30D08958093A10D0895109201
:103F0000A00D10929F0D089580919F0D9091A00D8E
:103F10000895CF93DF93C091E002C13071F1D8F1E1
:103F2000C23071F0C33099F50E941611811129C079
:103F30001092A30D1092E00281E0DF91CF910895DD
:103F40000E94161181111DC0C091A30D8091A20D78
:103F5000C13009F451C0882309F446C0809104029D
:103F60000E94B8101092A20D0E94C41082E08093AB
:103F7000E00280E0DF91CF9108950E94161188231E
:103F8000F9F0C093E00280E0DF91CF91089580E0E6
:103F9000DF91CF9108958091A10D882301F1809147
:103FA00003020E94B8100E94C4108091A10D80935A
:103FB000A20D81E08093E00280E0DF91CF9108952F
:103FC000D091A30D8091A20DD13029F18111C6CFDE
:103FD000809105020E94B810C093A20DC5CF8091B8
:103FE00002020E94B810DFCF809105020E94B81033
:103FF00081E08093A20DB8CF811116C08091070295
:104000000E94B810C093A20D0E94C41083E0809358
:10401000E00280E0B9CF811107C0809107020E94C1
:10402000B810D093A20DF0CF809106020E94B81074
:104030001092A20DE9CFCF93DF93C091E002C1307F
:1040400071F1D8F1C23071F0C33099F50E941611A8
:10405000811129C01092A30D1092E00281E0DF913E
:10406000CF9108950E94161181111DC0C091A30D1A
:104070008091A20DC13009F451C0882309F446C0D3
:1040800080910A020E94B8101092A20D0E94C410E2
:1040900082E08093E00280E0DF91CF9108950E945A
:1040A00016118823F9F0C093E00280E0DF91CF91F0
:1040B000089580E0DF91CF9108958091A10D88232C
:1040C00001F1809109020E94B8100E94C4108091F1
:1040D000A10D8093A20D81E08093E00280E0DF914A
:1040E000CF910895D091A30D8091A20DD13029F1E7
:1040F0008111C6CF80910B020E94B810C093A20D0F
:10410000C5CF809108020E94B810DFCF80910B02CA
:104110000E94B81081E08093A20DB8CF811116C023
:1041200080910D020E94B810C093A20D0E94C4108D
:1041300083E08093E00280E0B9CF811107C08091D5
:104140000D020E94B810D093A20DF0CF80910C0206
:104150000E94B8101092A20DE9CFCF93C091DF0258
:10416000C13021F178F1C23069F0C33041F50E94CD
:10417000161181111FC01092A30D1092DF0281E071
:10418000CF9108950E941611811114C08091A20D43
:1041900081115DC08091A30D813009F443C08091ED
:1041A00011020E94B810C093DF022FC00E941611A6
:1041B0008823E1F0C093DF0280E0CF91089580E092
:1041C000CF9108958091A10D882339F180910F023C
:1041D0000E94B8100E94C4108091A10D8093A20D7E
:1041E00081E08093DF0280E0CF9108958091A20D5D
:1041F000811120C08091A30D8130A1F08091110226
:104200000E94B81082E08093DF0281E08093A20DCB
:104210000E94C41080E0CF91089580910E020E9408
:10422000B810D8CF809113020E94B81083E0809319
:10423000DF02EBCF809110020E94B8101092A20D05
:104240000E94C41082E08093DF0280E0B6CF8091AC
:1042500010020E94B8101092A20D0E94C410C093C8
:10426000DF0280E0AACFCF93C091DE02C13029F1F6
:1042700080F1C23069F0C33049F50E9416118111F6
:1042800020C01092A30D1092DE0281E0CF9108951C
:104290000E941611811115C08091A20D813009F084
:1042A00054C08091A30D813009F45CC08091160246
:1042B0000E94B810C093DE022FC00E9416118823FE
:1042C000E1F0C093DE0280E0CF91089580E0CF91CD
:1042D00008958091A10D882331F1809115020E94EB
:1042E000B8100E94C4108091A10D8093A20D81E0AE
:1042F0008093DE0280E0CF9108958091A20D8130FD
:10430000B9F48091A30D813069F1809116020E9469
:10431000B81082E08093DE021092A20D0E94C410B9
:1043200080E0CF910895809114020E94B810D9CFF7
:10433000809117020E94B810C093A20D0E94C41071
:1043400082E08093DE0280E0BFCF809117020E945E
:10435000B81081E08093A20D0E94C410C093DE02C9
:1043600080E0B2CF809118020E94B81083E0809361
:10437000DE02D2CFCF93C091DF02C13021F178F1BC
:10438000C23069F0C33041F50E94161181111FC07F
:104390001092A30D1092DF0281E0CF9108950E9448
:1043A0001611811114C08091A20D81115DC0809100
:1043B000A30D813009F443C080911D020E94B81002
:1043C000C093DF022FC00E9416118823E1F0C09332
:1043D000DF0280E0CF91089580E0CF910895809131
:1043E000A10D882339F180911B020E94B8100E9410
:1043F000C4108091A10D8093A20D81E08093DF0213
:1044000080E0CF9108958091A20D811120C080910C
:10441000A30D8130A1F080911D020E94B81082E0AE
:104420008093DF0281E08093A20D0E94C41080E09F
:10443000CF91089580911A020E94B810D8CF809130
:104440001F020E94B81083E08093DF02EBCF8091BF
:104450001C020E94B8101092A20D0E94C41082E0AB
:104460008093DF0280E0B6CF80911C020E94B810DA
:104470001092A20D0E94C410C093DF0280E0AACF68
:10448000CF93C091DE02C13029F180F1C23069F0D2
:10449000C33049F50E941611811120C01092A30D5E
:1044A0001092DE0281E0CF9108950E9416118111D1
:1044B00015C08091A20D813009F054C08091A30DE8
:1044C000813009F45CC0809122020E94B810C09330
:1044D000DE022FC00E9416118823E1F0C093DE0295
:1044E00080E0CF91089580E0CF9108958091A10D53
:1044F000882331F1809121020E94B8100E94C410DB
:104500008091A10D8093A20D81E08093DE0280E076
:10451000CF9108958091A20D8130B9F48091A30DBF
:10452000813069F1809122020E94B81082E080936C
:10453000DE021092A20D0E94C41080E0CF91089577
:10454000809120020E94B810D9CF809123020E944E
:10455000B810C093A20D0E94C41082E08093DE02C6
:1045600080E0BFCF809123020E94B81081E0809349
:10457000A20D0E94C410C093DE0280E0B2CF8091F1
:1045800024020E94B81083E08093DE02D2CFCF9342
:10459000C091DF02C13021F178F1C23069F0C3303F
:1045A00041F50E94161181111FC01092A30D1092A7
:1045B000DF0281E0CF9108950E941611811114C08D
:1045C0008091A20D81115DC08091A30D813009F40D
:1045D00043C0809129020E94B810C093DF022FC00F
:1045E0000E9416118823E1F0C093DF0280E0CF9192
:1045F000089580E0CF9108958091A10D882339F12D
:10460000809127020E94B8100E94C4108091A10DD1
:104610008093A20D81E08093DF0280E0CF91089526
:104620008091A20D811120C08091A30D8130A1F055
:10463000809129020E94B81082E08093DF0281E01D
:104640008093A20D0E94C41080E0CF9108958091C4
:1046500026020E94B810D8CF80912B020E94B81079
:1046600083E08093DF02EBCF809128020E94B81094
:104670001092A20D0E94C41082E08093DF0280E0BD
:10468000B6CF809128020E94B8101092A20D0E940D
:10469000C410C093DF0280E0AACFCF93C091DE02A6
:1046A000C13029F180F1C23069F0C33049F50E9470
:1046B0001611811120C01092A30D1092DE0281E02C
:1046C000CF9108950E941611811115C08091A20DFD
:1046D000813009F054C08091A30D813009F45CC091
:1046E00080912E020E94B810C093DE022FC00E945B
:1046F00016118823E1F0C093DE0280E0CF91089587
:1047000080E0CF9108958091A10D882331F18091AF
:104710002D020E94B8100E94C4108091A10D8093B8
:10472000A20D81E08093DE0280E0CF910895809118
:10473000A20D8130B9F48091A30D813069F180918F
:104740002E020E94B81082E08093DE021092A20D29
:104750000E94C41080E0CF91089580912C020E94A5
:10476000B810D9CF80912F020E94B810C093A20D2B
:104770000E94C41082E08093DE0280E0BFCF80916F
:104780002F020E94B81081E08093A20D0E94C410F5
:10479000C093DE0280E0B2CF809130020E94B81058
:1047A00083E08093DE02D2CFCF93C091DF02C1308D
:1047B00021F178F1C23069F0C33041F50E94161141
:1047C00081111FC01092A30D1092DF0281E0CF91E2
:1047D00008950E941611811114C08091A20D8111BB
:1047E0005DC08091A30D813009F443C080913502F2
:1047F0000E94B810C093DF022FC00E9416118823B8
:10480000E1F0C093DF0280E0CF91089580E0CF9186
:1048100008958091A10D882339F1809133020E947F
:10482000B8100E94C4108091A10D8093A20D81E068
:104830008093DF0280E0CF9108958091A20D8111D5
:1048400020C08091A30D8130A1F0809135020E949B
:10485000B81082E08093DF0281E08093A20D0E9475
:10486000C41080E0CF910895809132020E94B81068
:10487000D8CF809137020E94B81083E08093DF0286
:10488000EBCF809134020E94B8101092A20D0E94CA
:10489000C41082E08093DF0280E0B6CF80913402C2
:1048A0000E94B8101092A20D0E94C410C093DF02A3
:1048B00080E0AACFCF93C091DE02C13029F180F110
:1048C000C23069F0C33049F50E941611811120C031
:1048D0001092A30D1092DE0281E0CF9108950E9404
:1048E0001611811115C08091A20D813009F054C0BC
:1048F0008091A30D813009F45CC080913A020E943E
:10490000B810C093DE022FC00E9416118823E1F078
:10491000C093DE0280E0CF91089580E0CF910895AA
:104920008091A10D882331F1809139020E94B81045
:104930000E94C4108091A10D8093A20D81E080930C
:10494000DE0280E0CF9108958091A20D8130B9F40C
:104950008091A30D813069F180913A020E94B810D4
:1049600082E08093DE021092A20D0E94C41080E0CB
:10497000CF910895809138020E94B810D9CF8091CC
:104980003B020E94B810C093A20D0E94C41082E0A6
:104990008093DE0280E0BFCF80913B020E94B8107E
:1049A00081E08093A20D0E94C410C093DE0280E0DB
:1049B000B2CF80913C020E94B81083E08093DE0267
:1049C000D2CFCF93C091DF02C13021F178F1C23054
:1049D00069F0C33041F50E94161181111FC0109279
:1049E000A30D1092DF0281E0CF9108950E9416116D
:1049F000811114C08091A20D81115DC08091A30D21
:104A0000813009F443C0809141020E94B810C093E4
:104A1000DF022FC00E9416118823E1F0C093DF024D
:104A200080E0CF91089580E0CF9108958091A10D0D
:104A3000882339F180913F020E94B8100E94C4106F
:104A40008091A10D8093A20D81E08093DF0280E030
:104A5000CF9108958091A20D811120C08091A30D66
:104A60008130A1F0809141020E94B81082E08093D1
:104A7000DF0281E08093A20D0E94C41080E0CF91FC
:104A8000089580913E020E94B810D8CF80914302D1
:104A90000E94B81083E08093DF02EBCF8091400248
:104AA0000E94B8101092A20D0E94C41082E0809360
:104AB000DF0280E0B6CF809140020E94B8101092D1
:104AC000A20D0E94C410C093DF0280E0AACFCF9352
:104AD000C091DE02C13029F180F1C23069F0C330EB
:104AE00049F50E941611811120C01092A30D109259
:104AF000DE0281E0CF9108950E941611811115C048
:104B00008091A20D813009F054C08091A30D8130B5
:104B100009F45CC0809146020E94B810C093DE0286
:104B20002FC00E9416118823E1F0C093DE0280E0BE
:104B3000CF91089580E0CF9108958091A10D8823B1
:104B400031F1809145020E94B8100E94C4108091FA
:104B5000A10D8093A20D81E08093DE0280E0CF91D1
:104B600008958091A20D8130B9F48091A30D813018
:104B700069F1809146020E94B81082E08093DE02C3
:104B80001092A20D0E94C41080E0CF9108958091F0
:104B900044020E94B810D9CF809147020E94B810F9
:104BA000C093A20D0E94C41082E08093DE0280E0D8
:104BB000BFCF809147020E94B81081E08093A20D80
:104BC0000E94C410C093DE0280E0B2CF8091480200
:104BD0000E94B81083E08093DE02D2CFCF93C091C1
:104BE000DF02C13021F178F1C23069F0C33041F504
:104BF0000E94161181111FC01092A30D1092DF02A6
:104C000081E0CF9108950E941611811114C0809106
:104C1000A20D81115DC08091A30D813009F443C0C4
:104C200080914D020E94B810C093DF022FC00E94F5
:104C300016118823E1F0C093DF0280E0CF91089540
:104C400080E0CF9108958091A10D882339F1809162
:104C50004B020E94B8100E94C4108091A10D809355
:104C6000A20D81E08093DF0280E0CF9108958091D2
:104C7000A20D811120C08091A30D8130A1F08091FF
:104C80004D020E94B81082E08093DF0281E08093A1
:104C9000A20D0E94C41080E0CF91089580914A0235
:104CA0000E94B810D8CF80914F020E94B81083E0C4
:104CB0008093DF02EBCF80914C020E94B8101092DB
:104CC000A20D0E94C41082E08093DF0280E0B6CF84
:104CD00080914C020E94B8101092A20D0E94C41044
:104CE000C093DF0280E0AACFCF93C091DE02C13033
:104CF00029F180F1C23069F0C33049F50E941611E4
:104D0000811120C01092A30D1092DE0281E0CF919C
:104D100008950E941611811115C08091A20D813055
:104D200009F054C08091A30D813009F45CC08091DA
:104D300052020E94B810C093DE022FC00E941611CA
:104D40008823E1F0C093DE0280E0CF91089580E0F7
:104D5000CF9108958091A10D882331F18091510266
:104D60000E94B8100E94C4108091A10D8093A20DE2
:104D700081E08093DE0280E0CF9108958091A20DC2
:104D80008130B9F48091A30D813069F18091520294
:104D90000E94B81082E08093DE021092A20D0E9461
:104DA000C41080E0CF910895809150020E94B81005
:104DB000D9CF809153020E94B810C093A20D0E94D7
:104DC000C41082E08093DE0280E0BFCF8091530266
:104DD0000E94B81081E08093A20D0E94C410C0937D
:104DE000DE0280E0B2CF809154020E94B81083E0CE
:104DF0008093DE02D2CFCF93DF93C091E002C13027
:104E000071F1D8F1C23071F0C33099F50E941611DA
:104E1000811129C01092A30D1092E00281E0DF9170
:104E2000CF9108950E94161181111DC0C091A30D4C
:104E30008091A20DC13009F451C0882309F446C005
:104E4000809158020E94B8101092A20D0E94C410C6
:104E500082E08093E00280E0DF91CF9108950E948C
:104E600016118823F9F0C093E00280E0DF91CF9122
:104E7000089580E0DF91CF9108958091A10D88235E
:104E800001F1809157020E94B8100E94C4108091D5
:104E9000A10D8093A20D81E08093E00280E0DF917C
:104EA000CF910895D091A30D8091A20DD13029F119
:104EB0008111C6CF809159020E94B810C093A20DF3
:104EC000C5CF809156020E94B810DFCF8091590261
:104ED0000E94B81081E08093A20DB8CF811116C056
:104EE00080915B020E94B810C093A20D0E94C41072
:104EF00083E08093E00280E0B9CF811107C0809108
:104F00005B020E94B810D093A20DF0CF80915A029C
:104F10000E94B8101092A20DE9CFCF93DF93C091F9
:104F2000E002C13071F1D8F1C23071F0C33099F5AF
:104F30000E941611811129C01092A30D1092E00257
:104F400081E0DF91CF9108950E94161181111DC05B
:104F5000C091A30D8091A20DC13009F451C08823E6
:104F600009F446C080915E020E94B8101092A20D12
:104F70000E94C41082E08093E00280E0DF91CF9134
:104F800008950E9416118823F9F0C093E00280E092
:104F9000DF91CF91089580E0DF91CF9108958091C6
:104FA000A10D882301F180915D020E94B8100E943A
:104FB000C4108091A10D8093A20D81E08093E00246
:104FC00080E0DF91CF910895D091A30D8091A20D43
:104FD000D13029F18111C6CF80915F020E94B810B3
:104FE000C093A20DC5CF80915C020E94B810DFCFA4
:104FF00080915F020E94B81081E08093A20DB8CF2B
:10500000811116C0809161020E94B810C093A20D58
:105010000E94C41083E08093E00280E0B9CF811148
:1050200007C0809161020E94B810D093A20DF0CF0A
:10503000809160020E94B8101092A20DE9CF0895ED
:1050400008950895089508950895089508951F9363
:10505000CF93DF931F921F92CDB7DEB7681B790BFA
:10506000683F88EF78073CF5605F714F1091DD0273
:10507000113059F1113008F4A1C0123009F45EC0AA
:10508000133009F094C00E941611811187C08091DD
:105090009F0D9091A00D01969093A00D80939F0D70
:1050A0001092A30D1092DD0281E00F900F90DF911E
:1050B000CF911F9108956930E7E07E07BCF26051FF
:1050C0007E401091DD021130A9F669837A830E9437
:1050D000161169817A81811161C080919F0D909133
:1050E000A00D01969093A00D80939F0D8091A30D2C
:1050F000813009F4B2C0CB018D599F4F873C910597
:1051000008F47BC08091A20D6C39FFEF7F070CF093
:105110008AC0882309F4C3C0813009F4F9C091E042
:105120009093DD0281118BC081E08093A20D80E01D
:105130000F900F90DF91CF911F91089569837A832B
:105140000E94161169817A81811128C080919F0D7A
:105150009091A00D01969093A00D80939F0D80914A
:10516000A30D813009F488C0CB0177FDA0C085363E
:1051700091050CF46DC08091A20D161617060CF067
:105180004CC0811190C08CE60E94B8100E94C410DF
:1051900082E08093DD028091A20DC4CF1093DD02E6
:1051A00080E00F900F90DF91CF911F91089580E0E4
:1051B0000F900F90DF91CF911F9108958091A10DD5
:1051C0008823B9F082E20E94B8100E94C410809136
:1051D000A10D90E00196817099278093A20D81E046
:1051E0008093DD0280E00F900F90DF91CF911F91AF
:1051F000089580E20E94B810E8CF8091A20D882324
:1052000009F44DC086E20E94B8100E94C41081E0EB
:105210008093DD028091A20D85CF81115AC088E76D
:105220000E94B810B3CF653671050CF468C08130A8
:1052300049F3882309F458C081E08093DD0210927D
:10524000A20D80E00F900F90DF91CF911F910895F4
:1052500081E08093DD0280E0A4CF8091A20D8111D6
:105260002BC088E20E94B8100E94C41083E0809393
:10527000DD028091A20D56CF8091A20D1616170661
:10528000FCF4813051F18CE60E94B8101093DD02DD
:105290000E94C4108091A20D8111D1CF45CF84E22C
:1052A0000E94B810B2CF8EE60E94B8106FCF882748
:1052B0009927861B970B5BCF8AE20E94B810D4CF48
:1052C000811120C08CE70E94B81083E08093DD023A
:1052D000DFCF8AE70E94B81059CF82E70E94B8104A
:1052E00083E08093DD02D4CF82E08093DD028CE600
:1052F0000E94B8100E94C4108091A20D13CF77FFB6
:1053000098CF0ACF8AE70E94B8101093DD02C0CF71
:105310008AE70E94B81082E08093DD020E94C410E8
:105320008091A20DFFCE1F93CF93DF931F921F9208
:10533000CDB7DEB7681B790B683F88EF78073CF57F
:10534000605F714F1091DC02113059F1113008F497
:105350009EC0123009F45DC0133009F091C00E9464
:105360001611811184C080919F0D9091A00D01971D
:105370009093A00D80939F0D1092A30D1092DC02CC
:1053800081E00F900F90DF91CF911F9108956930C8
:10539000E7E07E07BCF260517E401091DC021130E4
:1053A000A9F669837A830E94161169817A81811135
:1053B0005EC080919F0D9091A00D01979093A00DDC
:1053C00080939F0D8091A30D813009F4B0C0CB0173
:1053D0008D599F4F873C910508F478C08091A20DAC
:1053E000653671050CF488C0882309F4C2C0813089
:1053F00009F4E7C091E09093DC0281118AC081E05A
:105400008093A20D80E00F900F90DF91CF911F91BC
:10541000089569837A830E94161169817A818111C6
:1054200026C080919F0D9091A00D01979093A00DA3
:1054300080939F0D8091A30D813009F487C0CB012B
:1054400077FD9FC0853691050CF46CC08091A20D4C
:1054500077FD4CC0811191C080E90E94B8100E9474
:10546000C41082E08093DC028091A20DC6CF10931D
:10547000DC0280E00F900F90DF91CF911F91089593
:1054800080E00F900F90DF91CF911F910895809150
:10549000A10D8823B9F08EE20E94B8100E94C410BA
:1054A0008091A10D90E00196817099278093A20DC3
:1054B00081E08093DC0280E00F900F90DF91CF912C
:1054C0001F9108958CE20E94B810E8CF8091A20D40
:1054D000882309F44EC082E30E94B8100E94C410D1
:1054E00081E08093DC028091A20D87CF811160C0A2
:1054F00084E80E94B810B3CF6C39FFEF7F070CF03F
:105500005BC0813041F3882309F46DC081E0809352
:10551000DC021092A20D80E00F900F90DF91CF91EE
:105520001F91089581E08093DC0280E0A3CF8091F9
:10553000A20D81112BC084E30E94B8100E94C410F8
:1055400083E08093DC028091A20D57CF8091A20D61
:1055500077FD26C081111EC084E90E94B81083E047
:105560008093DC020E94C4108091A20D8111D1CFE2
:1055700046CF80E30E94B810B1CF82E90E94B810F4
:105580006ECF88279927861B970B5CCF86E30E94F6
:10559000B810D4CF82E90E94B8101093DC02E2CF99
:1055A0008130D1F084E80E94B8101093DC02DACF89
:1055B00086E80E94B81053CF161617060CF417CFC2
:1055C000A2CF82E90E94B81082E08093DC020E94A0
:1055D000C4108091A20D11CF8AE80E94B81083E018
:1055E0008093DC02BFCF82E08093DC0284E80E94DB
:1055F000B8100E94C4108091A20DFFCECF93DF930C
:10560000D82FC091DB02C13019F180F0C23021F0F7
:1056100080E0DF91CF9108950E94000E811129C092
:10562000C093DB0280E0DF91CF9108950E941611B4
:1056300081111BC0D13019F18CE10E94B8100E9479
:10564000C41081E08093DB0280E0DF91CF91089568
:105650000E9416118111E4CF82E08093DB0288EE74
:1056600093E00E94D40D80E0D4CF1092DB0280E062
:10567000D0CF0E94C41A1092DB0281E0CACF8BE126
:105680000E94B810DCCFCF93C82F4091DA0250E0CF
:105690004830510530F080E0C1111092DA02CF910C
:1056A0000895FA01EF58FE4F0C94884A0E94161193
:1056B000882309F456C086E08093DA0280E0ECCFBC
:1056C0000E941611882309F448C087E08093DA020B
:1056D00080E0E2CF0E9416118823A9F10E941211E6
:1056E00081E08093DA0280E0D7CF0E9416118823F0
:1056F00051F181E08093DA0280E0CECF0E94161152
:10570000882309F456C082E08093DA0280E0C4CF97
:105710000E94000E811143C083E08093DA0280E092
:10572000BBCF0E941611882381F184E08093DA02B6
:1057300080E0B2CF0E9416118823E9F085E08093C3
:10574000DA0280E0A9CF83EE0E94B8100E94C41054
:1057500082E08093DA0280E09FCF1092DA0281E04B
:105760009BCF8FE10E94B8100E94C41087E0809305
:10577000DA0280E091CF82EE0E94B8100E94C4103D
:1057800086E08093DA0280E087CF81EE0E94B81035
:105790000E94C41085E08093DA0280E07DCF80EE25
:1057A0000E94B8100E94C41084E08093DA0280E066
:1057B00073CF8CED95E00E94D40D83E08093DA02E4
:1057C00080E06ACFCF93C091D902C23009F441C0C2
:1057D00068F0C430C1F098F1C53019F50E94161177
:1057E00081110CC01092D90281E00BC0CC23E1F0F2
:1057F000C130B9F40E9416118823C9F1C093D902AF
:1058000080E0CF9108950E9416118111F7CF8FE1AA
:105810000E94B8100E94C41085E08093D90280E0F5
:10582000F0CF80E0CF9108950E9416118823F9F0FF
:105830000E94121181E08093D90280E0E2CF0E94A1
:1058400016118823F9F083E08093D90280E0CF918C
:1058500008950E9416118111D1CF85EE0E94B810D3
:105860000E94C41083E08093D90280E0CACF84EE06
:105870000E94B8100E94C41082E08093D90280E098
:10588000CF91089586EE0E94B8100E94C41084E063
:105890008093D90280E0B5CF1F93CF93DF93EB01C4
:1058A000C81BD90BC83F88EFD8079CF5C05FD14F04
:1058B0001091D8021230B9F1133008F04DC0112305
:1058C00009F472C0113009F061C00E9416118111F3
:1058D00084C08091A30D813009F49FC0C953DF4F6C
:1058E000CF38D14008F488C08091A20D813009F4EE
:1058F000A2C084E50E94B8100E94C4101093D80280
:105900008091A20D811185C081E08093A20D80E07D
:105910003EC0C93097E0D9075CF2C051DE4010911B
:10592000D802123049F60E941611882309F460C08B
:105930001093D802D7FD21C08EE092E00E94271E6E
:10594000811129C0C436D1050CF591E09093A30DC7
:10595000DF91CF911F910895133061F31430B1F4AA
:105960000E941611811139C01092A30D1092D80215
:1059700081E0DF91CF911F91089584E192E00E9430
:10598000B31E811108C0CD39DF4FFCF680E0DF91F6
:10599000CF911F9108951092D8021092A30D80E02C
:1059A000DF91CF911F9108958091A10D81111CC0AD
:1059B00080E50E94B8100E94C4108091A10D90E073
:1059C0000196817099278093A20D81E08093D8027F
:1059D00080E0DF91CF911F9108951093D80280E06D
:1059E000DF91CF911F91089582E50E94B810E3CF17
:1059F00083E08093D8029ECF8091A20D811117C0C1
:105A000084E50E94B8100E94C41081E08093D802FF
:105A100077CF1092A20D80E0BACF8091A20D813095
:105A200099F084E50E94B8100E94C41069CF86E501
:105A30000E94B810E8CF8AE50E94B8100E94C410F6
:105A400082E08093D8025CCF8AE50E94B81084E09F
:105A50008093D802E9CF1F93CF93DF93EB01C81B4C
:105A6000D90BC83F88EFD8079CF5C05FD14F109184
:105A7000D7021230B9F1133008F04DC0112309F4E8
:105A800072C0113009F061C00E941611811184C0EA
:105A90008091A30D813009F49FC0C953DF4FCF38E7
:105AA000D14008F488C08091A20D8111A2C084E683
:105AB0000E94B8100E94C41082E08093D7028091A7
:105AC000A20D811185C081E08093A20D80E03EC0CF
:105AD000C93097E0D9075CF2C051DE401091D7027F
