:100000000C94C6010C94E7010C94E7010C94E701F1
:100010000C94E7010C94E7010C94E7010C94E701C0
:100020000C94E7010C94E7010C94E7010C94E701B0
:100030000C94E7010C94E7010C94E7010C94E701A0
:100040000C94E7010C94E7010C94E7010C94E70190
:100050000C94E7010C94E7010C94E7010C94E70180
:100060000C94E7010C94B13E0C94E7010C946E3EA5
:100070000C94E7010C94E7010C94E7010C94E70160
:100080000C94E7010C94E7010C94E7010C94E70150
:100090000C9419430C94E7010C9448430C94E70129
:1000A0000C94E7010C94E7010C94E7010C94E70130
:1000B0000C94E7010C94E7010C94E7010C94E70120
:1000C0000C94E7010C94E7010C94E701810383038E
:1000D00080038503800380038003870380038003FC
:1000E00080038003800380038003890380038003EF
:1000F00080038003800380038003800380038003E8
:10010000800380038003800380038B0380038003CC
:1001100080038003800380038003800380038003C7
:1001200080038003800380038003800380038003B7
:1001300080038003800380038003800380038003A7
:10014000800380038003800380037F0399039B0364
:1001500098039D039803980398039F0398039803BB
:1001600098039803980398039803A10398039803AE
:1001700098039803980398039803980398039803A7
:1001800098039803980398039803A303980398038C
:100190009803980398039803980398039803980387
:1001A0009803980398039803980398039803980377
:1001B0009803980398039803980398039803980367
:1001C000980398039803980398039703B403B9031B
:1001D000B303BE03B303B303B303C303B303B30354
:1001E000B303B303B303B303B303C803B303B3034A
:1001F000B303B303B303B303B303B303B303B3034F
:10020000B303B303B303B303B303CD03B303B30324
:10021000B303B303B303B303B303B303B303B3032E
:10022000B303B303B303B303B303B303B303B3031E
:10023000B303B303B303B303B303B303B303B3030E
:10024000B303B303B303B303B303AF03DE03DE03AC
:10025000D803DE03D803D803D803E703D803D803B1
:10026000D803D803D803D803D803EC03D803D803A2
:10027000D803D803D803D803D803D803D803D803A6
:10028000D803D803D803D803D803E103D803D8038D
:10029000D803D803D803D803D803D803D803D80386
:1002A000D803D803D803D803D803D803D803D80376
:1002B000D803D803D803D803D803D803D803D80366
:1002C000D803D803D803D803D803F403E729F229C5
:1002D000FB29052A0E2A172AD329DD296364696EB2
:1002E0006F70737578585B000C94D3290C94D042CE
:1002F0000C94C3030C94A1030C9483030C94052A5F
:100300000C948B030C9485030C94B3030C94DE03C0
:100310000C94C8030C94AF030C94AE420C94DD29EA
:100320000C9481030C94BE030C94CD030C94B9037C
:100330000C94F2290C940E2A0C949B030C949D03AC
:100340000C9489030C947F030C94F4030C94D8034D
:100350000C94A3030C94E7290C9487030C94990341
:100360000C949F030C94172A0C94E1030C94DB4724
:100370000C94E7030C94B4030C94EC030C949703D3
:100380000C9480030C9498030C94FB2911241FBE39
:10039000CFEFD1E2DEBFCDBF00E00CBF12E0A0E0A6
:1003A000B2E0ECE9F6EA00E00BBF02C007900D9264
:1003B000A83BB107D9F712E1A8EBB2E001C01D924A
:1003C000A632B107E1F70E9430470C944C530C94CD
:1003D000000060E071EE80E090E00E9489430E949E
:1003E00026190E9444190E94021C84E690E00E9493
:1003F0002F0C0C94EA1DCF93C091B802C130A1F02C
:1004000028F0C230D9F0C33039F12EC081E00E940B
:100410003504882331F08FE10E94350F0E94410F8F
:1004200020C01092B80220C00E94930F882319F0B8
:10043000C093B80219C00E94061E0CC080E20E9440
:10044000350481110E94F51D0E94061E813011F4B1
:1004500083E008C082E006C080E10E943504882362
:1004600019F081E08093B802CF9108950E943E0375
:100470000E94F7030E9407070E94D30A0C94FD0B09
:10048000649974C081E08093E7029091EA02992315
:1004900009F4B5C01092EB02659952C081E08093D7
:1004A000E2029091E502992309F498C01092E602C5
:1004B000669932C081E08093D8029091DB02992343
:1004C00009F47BC01092DC026799AAC081E0809396
:1004D000D3029091D602992309F45EC01092D702FC
:1004E000489912C091E09093DD028091E002811161
:1004F00010C08091E1028F5F8093E1028091E10260
:10050000843109F4B4C008958091E002813009F487
:100510009DC01092E10208958091DB02813091F636
:100520009091DC029F5F9093DC029091DC02943109
:1005300059F68093DA021092DB021092DC02C4CFEB
:100540008091E502813009F0B1CF9091E6029F5F82
:100550009093E6029091E602943109F0A9CF80933E
:10056000E4021092E5021092E602A2CF8091EA0224
:10057000813009F08FCF9091EB029F5F9093EB0257
:100580009091EB02943109F087CF8093E9021092A9
:10059000EA021092EB0280CF9091D7029F5F909376
:1005A000D7029091D702943109F09ACF8093D40268
:1005B0008093D6021092D70293CF9091DC029F5F76
:1005C0009093DC029091DC02943109F07DCF80930E
:1005D000D9028093DB021092DC0276CF9091E60282
:1005E0009F5F9093E6029091E602943109F060CF0C
:1005F0008093E3028093E5021092E60259CF909136
:10060000EB029F5F9093EB029091EB02943109F023
:1006100043CF8093E8028093EA021092EB023CCF32
:100620008091D602813009F059CF9091D7029F5F17
:100630009093D7029091D702943109F051CF8093D3
:10064000D5021092D6021092D7024ACF9091E102C1
:100650009F5F9093E1029091E102943109F053CFB2
:100660008093DF021092E0021092E10208959093CD
:10067000DE029093E0021092E10208958FE787B9BD
:100680008EE788B91092E7021092E8021092E90210
:100690001092EA021092EB021092E2021092E30230
:1006A0001092E4021092E5021092E6021092D80233
:1006B0001092D9021092DA021092DB021092DC0240
:1006C0001092D3021092D4021092D5021092D60248
:1006D0001092D7021092DD021092DE021092DF0219
:1006E0001092E0021092E102089590E0FC0131972F
:1006F000E034F10528F4EA59FF4F0C940549469877
:10070000089540980895419808954298089543980F
:100710000895449808954598089590E0FC01319714
:10072000E034F10528F4EA55FF4F0C940549469A48
:100730000895409A0895419A0895429A0895439AD7
:100740000895449A0895459A089590E0FC013197E0
:10075000E034F10540F4EA51FF4F0C94054988B1AB
:1007600090E4892788B9089588B191E0892788B9EC
:10077000089588B192E0892788B9089588B194E0F6
:10078000892788B9089588B198E0892788B908959C
:1007900088B190E1892788B9089588B190E28927C6
:1007A00088B9089590E0FC013197E034F10510F02C
:1007B00080E00895EA5DFE4F0C94054986B180E023
:1007C000089586B1807290E095958795089586B1D9
:1007D00083FB882780F9089586B1807190E0959514
:1007E000879595958795089586B18074089550985A
:1007F000589A8DB18F708DB98EB1806F8EB9089572
:10080000803259F160F4813001F18031A1F480919E
:10081000E702882381F01092E70281E00895803496
:1008200061F0803841F48091D302882321F0109246
:10083000D30281E0089580E008958091D802882352
:10084000D1F31092D80281E008958091DD028823CF
:1008500091F31092DD0281E008958091E2028823F5
:1008600051F31092E20281E00895803259F160F470
:10087000813001F18031A1F48091E802882381F078
:100880001092E80281E00895803461F0803841F4EC
:100890008091D402882321F01092D40281E008953F
:1008A00080E008958091D9028823D1F31092D90273
:1008B00081E008958091DE02882391F31092DE0298
:1008C00081E008958091E302882351F31092E302BE
:1008D00081E00895803259F160F4813001F1803176
:1008E000A1F48091E902882381F01092E90281E06D
:1008F0000895803461F0803841F48091D5028823D6
:1009000021F01092D50281E0089580E00895809151
:10091000DA028823D1F31092DA0281E008958091FF
:10092000DF02882391F31092DF0281E00895809125
:10093000E402882351F31092E40281E0089590913B
:100940007C00987F90937C0020917C00982F97707A
:10095000922B90937C00882359F0815020E830E05E
:1009600002C0359527958A95E2F7209522B908951A
:1009700082B18C6F82B90895CF92DF92EF92FF928D
:10098000CF93DF93CDB7DEB72E970FB6F894DEBFC7
:100990000FBECDBF8EE0EAEAF2E0DE0111960190D3
:1009A0000D928A95E1F789819A819C01220F331F6C
:1009B000220F331F220F331F281B390B40E050E05A
:1009C000C12CB4ECDB2EB9E0EB2EF12CC701B60143
:1009D0000E949447215031092F3F310509F008F456
:1009E0009BC08B819C819C01220F331F220F331FE0
:1009F000220F331F281B390B40E050E0C701B6011E
:100A00000E949447215031092F3F310509F008F425
:100A10008AC08D819E819C01220F331F220F331FBC
:100A2000220F331F281B390B40E050E0C701B601ED
:100A30000E949447215031092F3F310509F008F4F5
:100A400074C08F8198859C01220F331F220F331FA2
:100A5000220F331F281B390B40E050E0C701B601BD
:100A60000E949447215031092F3F310509F008F4C5
:100A70005EC089859A859C01220F331F220F331F88
:100A8000220F331F281B390B40E050E0C701B6018D
:100A90000E949447215031092F3F310509F008F495
:100AA00048C08B859C859C01220F331F220F331F6A
:100AB000220F331F281B390B40E050E0C701B6015D
:100AC0000E949447215031092F3F3105A1F198F13F
:100AD0008D859E859C01220F331F220F331F220F0D
:100AE000331F281B390B40E050E0C701B6010E94BC
:100AF0009447215031092F3F3105F9F0F0F02E963F
:100B00000FB6F894DEBF0FBECDBFDF91CF91FF903F
:100B1000EF90DF90CF90089580E02093B3008F5F37
:100B20008093B100ECCF81E0F8CF82E0F6CF83E094
:100B3000F4CF84E0F2CF85E0F0CF86E0EECFEAE7B5
:100B4000F0E0808180648083089580917A008295AE
:100B50008170089587B3869581700895B99B089533
:100B600087B3876087BB1092B2009091DC038091BD
:100B70007C00887F80937C0020917C00892F877087
:100B8000822B80937C00992309F420C12FEF290F39
:100B900080E890E002C0959587952A95E2F78095C8
:100BA00082B920E42A95F1F780917A0080648093DD
:100BB0007A0080917A0084FFFCCF80917A00806176
:100BC00080937A008091780090917900E091DC0325
:100BD000F0E0EE0FFF1FE352FC4F91838083E09122
:100BE000DC032091ED0230E1E39FF0011124E20FDC
:100BF000F11DEE0FFF1FE450FD4F91838083E091C4
:100C0000DC0380E2E89FF0011124E450FD4F808175
:100C10009181E091DC0320E2E29FF0011124E45095
:100C2000FD4F22813381820F931FE091DC0330E27C
:100C3000E39FF0011124E450FD4F24813581820FA0
:100C4000931FE091DC0320E2E29FF0011124E450C5
:100C5000FD4F26813781820F931FE091DC0330E244
:100C6000E39FF0011124E450FD4F20853185820F70
:100C7000931FE091DC0320E2E29FF0011124E45095
:100C8000FD4F22853385820F931FE091DC0330E214
:100C9000E39FF0011124E450FD4F24853585820F38
:100CA000931FE091DC0320E2E29FF0011124E45065
:100CB000FD4F26853785820F931FE091DC0330E2DC
:100CC000E39FF0011124E450FD4F20893189820F08
:100CD000931FE091DC0320E2E29FF0011124E45035
:100CE000FD4F22893389820F931FE091DC0330E2AC
:100CF000E39FF0011124E450FD4F24893589820FD0
:100D0000931FE091DC0320E2E29FF0011124E45004
:100D1000FD4F26893789820F931FE091DC0330E273
:100D2000E39FF0011124E450FD4F208D318D820F9F
:100D3000931FE091DC0320E2E29FF0011124E450D4
:100D4000FD4F228D338D820F931FE091DC0330E243
:100D5000E39FF0011124E450FD4F248D358D820F67
:100D6000931FE091DC0320E2E29FF0011124E450A4
:100D7000FD4F268D378D820F931F929582958F7030
:100D800089279F708927E091DC03F0E0EE0FFF1FB9
:100D9000E251FD4F918380832091DC032630D1F016
:100DA0002091DC03211107C02091EC022130E1F0F9
:100DB0008E3A914008F18091DC0390E0019667E063
:100DC00070E00E9480478093DC03089582B18C6FAD
:100DD00082B9E7CE2091ED0230E02F5F3F4F2F70B8
:100DE00033272093ED02DCCF863D914020F30E9413
:100DF000830A1092EC02DFCF4EE150E06EE170E02A
:100E000085E00E94900A81E08093EC02D4CFCF92DB
:100E1000DF92EF92FF92CF93DF93CDB7DEB72E979D
:100E20000FB6F894DEBF0FBECDBF87E880937A007F
:100E300010927B0010927C0010927E0010927D0038
:100E40008CEF81B982B986E692E09093DE038093BD
:100E5000DD039093EF028093EE029093FD02809366
:100E6000FC029093FF028093FE0290930103809313
:100E700000039093030380930203909305038093F0
:100E800004039093070380930603909309038093D0
:100E9000080390930B0380930A0390930D038093B0
:100EA0000C0390930F0380930E0390931103809390
:100EB0001003909313038093120390931503809370
:100EC0001403909317038093160390931903809350
:100ED000180390931B0380931A039093E00380936D
:100EE000DF039093F1028093F00290931D038093AF
:100EF0001C0390931F0380931E0390932103809300
:100F000020039093230380932203909325038093DF
:100F100024039093270380932603909329038093BF
:100F2000280390932B0380932A0390932D0380939F
:100F30002C0390932F0380932E039093310380937F
:100F4000300390933303809332039093350380935F
:100F5000340390933703809336039093390380933F
:100F6000380390933B0380933A039093E20380937A
:100F7000E1039093F3028093F20290933D038093F8
:100F80003C0390933F0380933E03909341038093EF
:100F900040039093430380934203909345038093CF
:100FA00044039093470380934603909349038093AF
:100FB000480390934B0380934A0390934D0380938F
:100FC0004C0390934F0380934E039093510380936F
:100FD000500390935303809352039093550380934F
:100FE000540390935703809356039093590380932F
:100FF000580390935B0380935A039093E403809388
:10100000E3039093F5028093F40290935D03809341
:101010005C0390935F0380935E03909361038093DE
:1010200060039093630380936203909365038093BE
:10103000640390936703809366039093690380939E
:10104000680390936B0380936A0390936D0380937E
:101050006C0390936F0380936E039093710380935E
:10106000700390937303809372039093750380933E
:10107000740390937703809376039093790380931E
:10108000780390937B0380937A039093E603809395
:10109000E5039093F7028093F60290937D0380938B
:1010A0007C0390937F0380937E03909381038093CE
:1010B00080039093830380938203909385038093AE
:1010C000840390938703809386039093890380938E
:1010D000880390938B0380938A0390938D0380936E
:1010E0008C0390938F0380938E039093910380934E
:1010F000900390939303809392039093950380932E
:10110000940390939703809396039093990380930D
:10111000980390939B0380939A039093E8038093A2
:10112000E7039093F9028093F80290939D038093D4
:101130009C0390939F0380939E039093A1038093BD
:10114000A0039093A3038093A2039093A50380939D
:10115000A4039093A7038093A6039093A90380937D
:10116000A8039093AB038093AA039093AD0380935D
:10117000AC039093AF038093AE039093B10380933D
:10118000B0039093B3038093B2039093B50380931D
:10119000B4039093B7038093B6039093B9038093FD
:1011A000B8039093BB038093BA039093EA038093B0
:1011B000E9039093FB028093FA029093BD0380931E
:1011C000BC039093BF038093BE039093C1038093AD
:1011D000C0039093C3038093C2039093C50380938D
:1011E000C4039093C7038093C6039093C90380936D
:1011F000C8039093CB038093CA039093CD0380934D
:10120000CC039093CF038093CE039093D10380932C
:10121000D0039093D3038093D2039093D50380930C
:10122000D4039093D7038093D6039093D9038093EC
:10123000D8039093DB038093DA031092DC031092BF
:10124000ED021092EC0282E08093B0001092B200A6
:101250001092700087E087BB8EE0EAEAF2E0DE01E0
:10126000119601900D928A95E1F789819A819C01EE
:10127000220F331F220F331F220F331F281B390B5E
:1012800040E050E0C12C64ECD62E69E0E62EF12C53
:10129000C701B6010E949447215031092F3F310503
:1012A00009F008F49BC08B819C819C01220F331FA5
:1012B000220F331F220F331F281B390B40E050E051
:1012C000C701B6010E949447215031092F3F3105D3
:1012D00009F008F48AC08D819E819C01220F331F82
:1012E000220F331F220F331F281B390B40E050E021
:1012F000C701B6010E949447215031092F3F3105A3
:1013000009F008F474C08F8198859C01220F331F67
:10131000220F331F220F331F281B390B40E050E0F0
:10132000C701B6010E949447215031092F3F310572
:1013300009F008F464C089859A859C01220F331F47
:10134000220F331F220F331F281B390B40E050E0C0
:10135000C701B6010E949447215031092F3F310542
:1013600009F008F44AC08B859C859C01220F331F2D
:10137000220F331F220F331F281B390B40E050E090
:10138000C701B6010E949447215031092F3F310512
:1013900091F188F18D859E859C01220F331F220FCC
:1013A000331F220F331F281B390B40E050E0C701C9
:1013B000B6010E949447215031092F3F3105C9F0F1
:1013C000C0F02E960FB6F894DEBF0FBECDBFDF91F2
:1013D000CF91FF90EF90DF90CF90089580E0209321
:1013E000B3008F5F8093B100ECCF81E0F8CF82E053
:1013F000F6CF86E0F4CF85E0F2CF84E0F0CF83E053
:10140000EECFE82FF0E0EE0FFF1FE352FC4F80819C
:1014100091810895E82FF0E0EE0FFF1FE251FD4F9C
:10142000808191810895C19B11C0C19A109295004D
:10143000109294008091BD02811109C08091F20345
:10144000813081F08091EB03813061F008958091CB
:10145000F203813019F18091EB038130F9F01092A1
:10146000BD02089581E08093BD028091EC039091CC
:10147000ED0301979093BC028093BB022091EE0391
:101480003091EF033093BA022093B902892BF1F621
:10149000809180008F738093800008958091BB02BB
:1014A0009091BC02009741F001979093BC02809309
:1014B000BB02892B59F6ECCF8091B9029091BA0208
:1014C000009731F001979093BA028093B902089582
:1014D000809180008F7B8093800080918000806865
:1014E000809380008091EC039091ED039093BC0277
:1014F0008093BB028091EE039091EF039093BA0228
:101500008093B90208958091EB03813009F008952A
:10151000809180008F73809380001092EB03089578
:101520009091EB03992359F19130A9F11092870022
:1015300090E0FC01ED50FC4F20812093860010923A
:10154000890020812695209388007093ED03609395
:10155000EC035093EF034093EE039093F1038093D9
:10156000F003809180008F7B8093800080918000C9
:1015700080688093800081E08093EB0308959091D0
:10158000F203913099F6909180009F7390938000C0
:101590001092F203CBCF909180009F7390938000C4
:1015A0001092EB03C3CF259A2D9810926F009FE203
:1015B00096BB1092850010928400E0E8F0E0108263
:1015C00080818E7F8083808182608083E1E8F0E08B
:1015D0001082808188608083808180618083109206
:1015E0008900109288008081887F80838081856057
:1015F00080831092710098BB109295001092940015
:10160000E0E9F0E0108280818E7F808380818D7F91
:101610008083E1E9F0E010828081886080838081AE
:101620008F7E808398E1909399008AE6809398005A
:101630008081887F80838081846080838DE1809336
:10164000F3038AE18093F4039093F50386E180939A
:10165000F60384E18093F70382E18093F80380E14D
:101660008093F9031092F2031092EB0381E090E073
:101670009093ED038093EC039093EF038093EE033C
:101680001092F1031092F00308959091EB039111E1
:101690002CC09091F203911128C01092870090E025
:1016A000FC01ED50FC4F20812093860010928900B0
:1016B00020812695209388009093F1038093F00376
:1016C0007093ED036093EC035093EF034093EE03AC
:1016D000809180008F7B8093800080918000806863
:1016E0008093800081E08093F20308959091EB0352
:1016F000911104C09091F203913009F00895109275
:10170000870090E0FC01ED50FC4F20812093860083
:101710001092890020812695209388009093F103F0
:101720008093F00308952091EB03211104C02091D0
:10173000F203213009F008959093ED038093EC03B8
:1017400008952091EB03211104C02091F203213070
:1017500009F008959093EF038093EE03089580912C
:10176000EB03811104C08091F203813009F00895E8
:10177000809180008F73809380001092F20308950F
:101780008091F20308958091EB030895D19B19C0D5
:10179000D19A109225011092240140910004809169
:1017A000BE029091BF02413069F02091FA0330915E
:1017B000FB0382179307C9F001969093BF028093B1
:1017C000BE0208952091FD033091FE038217930716
:1017D00099F71092BF021092BE024093FC038091D1
:1017E0002101887F8093210108951092BF021092F9
:1017F000BE0281E08093FF030895109273008FE290
:101800008ABB1092250110922401E0E2F1E01082DF
:1018100080818E7F808380818D7F8083E1E2F1E013
:10182000108280818860808380818F7E808388E1C0
:10183000809329018AE6809328018081887F8083B4
:10184000109200041092FE031092FD031092FB030D
:101850001092FA031092FC031092FF030895109265
:1018600000049C013695279536952795ABE7B4E1A2
:101870000E945F47969587959093FB038093FA03A8
:101880001092FF0310922501109224018FE28ABB6F
:10189000E1E2F1E08081887F8083808184608083C1
:1018A000089521E0209300049C01369527953695F4
:1018B0002795ABE7B4E10E945F4796958795909393
:1018C000FE038093FD031092FC03109225011092F9
:1018D00024018FE28ABBE1E2F1E08081887F80838E
:1018E00080818460808308958091FF03813011F0AE
:1018F00080E008951092FF0308958091FC038130E9
:1019000011F080E008951092FC030895E1E2F1E007
:101910008081887F8083D19A1092250110922401C2
:101920001092FF031092FC030895109272008FE250
:1019300089BB1092A5001092A400E0EAF0E01082AA
:1019400080818E7F808380818D7F8083E1EAF0E0DB
:10195000108280818860808380818F7E80838DE388
:101960008093A90088E08093A8008081887F80838D
:101970008081826080830895C99B07C0C99A1092B4
:10198000A5001092A40081E0089580E00895AF9230
:10199000BF92CF92DF92EF92FF920F931F93CF935C
:1019A000DF931F921F92CDB7DEB7CE0101960E9442
:1019B0002019E5EFF4E049815A81BEE2AB2EB1E196
:1019C000BB2ED12C01E010E085E0C82E1FC0C9015C
:1019D0008E5F9B4FDC01CC92C9018D5F9B4FDC0178
:1019E000CC92CB01880F991F8E579B4F2E5F3B4F98
:1019F000DC012D933C93D39470964E5F5F4FBFEF05
:101A0000AB1ABB0A86E0E53FF807D9F1808188234D
:101A100099F3DA018D919C919F0127503109D901E9
:101A20002D913C91820F931FD5012C91820F911D16
:101A300027FD9A956D2D70E09B01220F331F220F19
:101A4000331FD901AC5FBB4F8C93D901AB5FBB4F48
:101A50009C93CF010197DC018C91882309F4B7CFC7
:101A60008F70D80102C0AA0FBB1F8A95E2F7CD0183
:101A7000D901AE5FBB4F8C93D901AD5FBB4F8C9347
:101A8000B0CFDD2061F002E814E024E030E04CE16A
:101A900050E066EC74E0809101040E94C0410F9018
:101AA0000F90DF91CF911F910F91FF90EF90DF90FA
:101AB000CF90BF90AF90089590E1899FF0011124DD
:101AC000EA51FB4F6687089590E1899FF001112448
:101AD000EA51FB4F8685089590E1899FF00111241A
:101AE000EA51FB4F71876087089590E1899FF0016B
:101AF0001124EA51FB4F80859185089590E1899FDB
:101B0000F0011124EA51FB4F8785089590E1899FE8
:101B1000F0011124EA51FB4F8285089590E1899FDD
:101B2000F0011124EA51FB4F84850895C99B15C02B
:101B3000C99A1092A5001092A4000E94A3368111A8
:101B40000DC00E94960F0E9462180E94DF300E9412
:101B5000A336811106C00C94C70C08950E94143658
:101B6000F0CF0E941E36F7CF2F923F924F925F9296
:101B70006F927F928F929F92AF92BF92CF92DF929D
:101B8000EF92FF920F931F93CF93DF9300D0CDB7C7
:101B9000DEB7482E19820E948D3F882309F452C176
:101BA0002FEF89E698E1215080409040E1F700C096
:101BB0000000E6EEF4E045EF54E025E011821082EB
:101BC0001382128215821482178216821186108661
:101BD000DA011C92CA010197DC012C93138612864C
:101BE000158614867096405F5F4FB6E0E63EFB07B1
:101BF00029F71092C2041092C3041092C4041092E8
:101C0000C50466EC74E0CE0101960E94E23F10929A
:101C100001048981882309F418C1312C9CE2892EA2
:101C200099249394AA24AA9423E0B22EC12C32E0E2
:101C3000D32E5524539445E0642EEE24E394F12CE6
:101C400062E0262E09C081159C4009F4C4C033947B
:101C50008981381608F069C0E32DF0E0EA53FB4FA4
:101C60007080872D0E94E93D8C30910521F08C32E7
:101C7000E1E09E0741F7872D0E94CB33F0E17F9E84
:101C8000B00111248B010A511B4FD80111969C926F
:101C90008E921396BC92AE92129715961C921E923B
:101CA00014971796DC92CE921697872D6A837B83C2
:101CB0000E942835F801918780876A817B81AB017A
:101CC0004E505B4F60517B4F872D0E944F32D801A1
:101CD0001F965C921F971E966C92809101048F5FF5
:101CE00080930104A70102C0440F551F7A94E2F7C4
:101CF000662757FD6095762F8091C2049091C304AA
:101D0000A091C404B091C504842B952BA62BB72BAE
:101D10008093C2049093C304A093C404B093C504F9
:101D200033948981381608F497CF809101044816BE
:101D300009F485C044E650E06AE070E084E00E9467
:101D4000900A109272008FE289BB1092A500109247
:101D5000A4001092A0008091A0008E7F8093A0002C
:101D60008091A0008D7F8093A0001092A1008091AF
:101D7000A10088608093A1008091A1008F7E809354
:101D8000A1008DE38093A90088E08093A800809152
:101D9000A100887F8093A1008091A1008260809340
:101DA000A1000E94270F809101040F900F900F90C7
:101DB000DF91CF911F910F91FF90EF90DF90CF9027
:101DC000BF90AF909F908F907F906F905F904F905B
:101DD0003F902F900895872D0E94CB33E0E17E9EA7
:101DE000B00111248B010A511B4FE4EBF0E0D80144
:101DF0001196FC93EE931396BC92AE9212971596A1
:101E00001C921E9214971796DC92CE921697872DED
:101E10006A837B830E942835D80119969C938E9300
:101E200018976A817B81AB014E505B4F60517B4FAD
:101E3000872D0E944F32F801278666864ECF0E947A
:101E4000830A7FCF0E94573FABCE80E070CF1092C5
:101E5000620C1092A40B8FEF8093A40C8093A309C3
:101E60008093610C1092A30C0895CF93C82F64EA5D
:101E700079E00E941C18811102C0C093A309CF9180
:101E800008951092620C1092E40B1092E30B1092E2
:101E9000A2091092A1091092A20C1092A10C83E049
:101EA0008093440D1092610C8091B3098093A00936
:101EB0001092A40CE5EFF4E080E090E006C070968C
:101EC000029626E0E53FF20709F120812130B9F7BB
:101ED000DF0117972D913C91DC01AD59B34F2D9344
:101EE0003C93DC01AA5FB24F1D921C92DC01AD5DF8
:101EF000B34F1D921C92DC01AA51B94F1D921C9246
:101F00007096029626E0E53FF207F9F681E08093AD
:101F1000A30C80916411806180936411089581E025
:101F20008093A40B08958091A30C08952F923F9263
:101F30004F925F926F927F928F929F92AF92BF92D9
:101F4000CF92DF92EF92FF920F931F93CF93DF9385
:101F5000CDB7DEB7A3970FB6F894DEBF0FBECDBFE7
:101F60008091A30C882309F49AC08091E30B90918F
:101F7000E40B4091A1095091A2098417950708F03C
:101F8000A7C08C010F5F1F4F1A8709871093E40BBE
:101F90000093E30B1091440D1D87133009F47FC0AB
:101FA0008091A1099091A2098C0120E030E0098B79
:101FB0001A8B2B8B3C8B8C01015011091E8B0D8BC6
:101FC00006EC1CE07EEEA72E74E0B72EE4E2CE2EE7
:101FD000E7E0DE2EF6E0EF2EFDE0FF2EA6EE4A2E25
:101FE000A6E05A2EB5EA6B2EBBE07B2E812C912CFD
:101FF00080E090E0212C312C9BA38AA3C201230115
:1020000094014801A60167017A0189013C0121C0C0
:10201000BFEF2B1A3B0AEAA1FBA17096FBA3EAA330
:10202000F2E08F0E911C0E5F1F4F20E1A20EB11C3B
:1020300032E0E30EF11C42E0C40ED11C52E0650E0A
:10204000711C62E0460E511C8AA19BA18115924031
:1020500031F12AA13BA12A513B4F3A832983D9016F
:102060001F968C918130A1F6F801ED5DF34F8081D0
:102070009181892B09F06FC0F40180819181D50194
:102080008D939C93F101EC55F64F80A1A981BA8103
:102090001E968C93BDCF1092A30C1092A40BA39606
:1020A0000FB6F894DEBF0FBECDBFDF91CF911F9169
:1020B0000F91FF90EF90DF90CF90BF90AF909F90E7
:1020C0008F907F906F905F904F903F902F900895EA
:1020D0001092E40B1092E30BE5EFF4E080E090E067
:1020E00006C07096029606E0E53FF007E1F0208119
:1020F0002130B9F7DF0117972D913C91DC01AA53EC
:10210000B34F2D933C93DC01AA51B94F2D913C91D3
:10211000DC01AA5FB24F2D933C937096029606E0C5
:10212000E53FF00721F78091440D882309F4C7C0EB
:10213000813009F492C1823009F45BC1833009F423
:102140002CC25E874D8780E090E0DA018A179B07FA
:1021500008F0A5CF16CFBD85B1114AC0F601019098
:10216000F081E02DF88BEF87F701A081B1812F85F9
:102170003889A21BB30B29853A850E946E472989AD
:102180003A894B895C890E94B6478F859889820F6E
:10219000931FD3018D939C93D901B595A795EF8596
:1021A000F889AE0FBF1F29853A850E946E479B01B3
:1021B000AC01A0E9B0E00E9475472FE030E040E0BC
:1021C00050E00E94B64769E05595479537952795A9
:1021D0006A95D1F7F801EE59F64F31832083D40187
:1021E0008D919C91820F931FF501918380834ACF3B
:1021F000B13009F448C029853A854D895E89241794
:10220000350709F421C1F101EB55F34F80818111AC
:102210003AC0F6010190F081E02DF88BEF87DF01E5
:10222000B195A195B10929853A850E946E47298902
:102230003A894B895C890E94B6478F859889820FBD
:10224000931FD3018D939C93D901B595A795EF85E5
:10225000F889AE0FBF1F29853A850E946E479B0102
:10226000AC01A0E9B0E00E9475472FE030E040E00B
:1022700050E00E94B64799E05595479537952795C8
:102280009A95D1F7ACCFF201A081B18129853A8529
:102290000E946E4729893A894B895C890E94B6471A
:1022A000D4018D919C91820F931FF50191838083BE
:1022B000D7018D919C91F30191838083E3CE81E0DE
:1022C0008093440D2091040D3091050D0091C40CB4
:1022D0001091C50C1A830983C801880F991F8901C1
:1022E000081B190B1E870D871093A2090093A109E3
:1022F00009811A812017310709F4E5C0A801B3E26A
:102300002B2EBCE03B2E12E6612E19E0712E04E26A
:10231000802E07E0902E85EA482E8BE0582E05EAA5
:102320001CE065EF74E0C901841B950B9C0140E043
:1023300050E029873A874B875C8795E0C92ED12CDE
:10234000E12CF12C788B6F8719C0EF85F889709696
:10235000F88BEF87F2E02F0E311C22E0620E711C29
:1023600032E0830E911C42E0440E511C0F5F1F4F60
:102370006F857889655F764009F44BC0AF85B88971
:102380008C91813011F7F8018081813009F446C0C9
:10239000F401A081B181F101A080B180F3018081BD
:1023A0009181A81AB90A29813A810E946E479B013E
:1023B000AC01660F771F881F991F620F731F841F60
:1023C000951F660F771F881F991F660F771F881F3D
:1023D000991FA70196010E94B647BB2757FDBA95E2
:1023E000A52F942F832FA81AB90AD201AD92BC92BF
:1023F000ACCF8091A10C9091A20C009709F4E1C0A0
:1024000023E02093440D9093A2098093A1099E8715
:102410008D8780E090E0AD85BE8598CEF101A081EA
:10242000B181F30180819181A81BB90B2D853E8577
:102430000E946E4729853A854B855C850E94B64788
:10244000D2012D933C9381CFF801ED59F34F808158
:102450009181D5018D939C9315CE82E08093440D9C
:102460007091C40C6091C50C7093A1096093A2098E
:10247000A5EABBE0E5EFF4E080E090E08D0109C063
:10248000709602960E5F1F4FB6E0E53FFB0709F41A
:102490007DC020812130A1F79C012D5D334FD901F2
:1024A0002D913C91D8014D915C91241B350BAC01D1
:1024B0004E59564FDA014D915C91241B350BD801D2
:1024C0002D933C93DDCFB5EACB2EBBE0DB2E15EA96
:1024D000E12E1CE0F12E85EF94E000E010E045E0F5
:1024E000442E512C612C712C49011C0111C0F0E1CA
:1024F0002F0E311C22E0C20ED11C0E5F1F4F3FEF8A
:10250000E31AF30A45EF241646E0340609F481CFB6
:10251000D1018C91813059F7F70180818130C9F167
:10252000F801EC5DF84FA081B181F801ED5DF34F4A
:10253000A080B180F801EE59F64F80819181A81AF0
:10254000B90A94010E946E479B01AC01660F771F88
:10255000881F991F620F731F841F951F660F771FB7
:10256000881F991F660F771F881F991FA30192016B
:102570000E94B647BB2757FDBA95A52F942F832FEE
:10258000A81AB90AF601B182A082B1CF7D876E8701
:1025900040CFD6011D921C92AACF1092440DA6E006
:1025A000BDE0E5EFF4E006C07096129606E0E53F68
:1025B000F00749F080818130B9F711961C921E9284
:1025C000F3CF1092440D8091620C813009F463CDF9
:1025D0008091610C8F5F8093610CA091B809A8175E
:1025E00008F0C8C080E092E0E2E6F7E0A4EAB9E0D3
:1025F00001900D920197E1F78091A40C9091A309AD
:10260000981721F09091B3099093A00991E09093CD
:10261000610C8093A309A091B809B1E0AB1709F44C
:1026200084C26B2F70E08B010150110900241695B4
:1026300007950794169507950794102F002DA8016C
:102640004C55564FFA01E258FF4F80812091BA094C
:10265000289FC001112496958795929582958F7039
:1026600089279F7089279093A20C8093A10CFA016F
:10267000E158FF4F3081329F900111243695279504
:10268000329522952F7023273F702327211531057E
:1026900011F421E030E04091620C413009F45EC257
:1026A000892B09F4C4C1AB1709F456C3E5EA4E2ED1
:1026B000ECE05E2EA3E6BCE07B010024F694E794F8
:1026C0000794F694E7940794FE2CE02CA7014C5154
:1026D000564F7A0180EC582F56034001579F900CBB
:1026E0001124E5EFF4E080E090E059013D01A701FD
:1026F00068010EC07096BFEF4B1A5B0A029602E0AB
:10270000600E711C4E5F5F4F16E0E53FF107A1F1CF
:102710002081213079F79C012E59364FD9011D9225
:102720001C929A01280D391D2C0D3D1DD9012D91AA
:102730003C9136FF18C0D3012D913C91B901E12C99
:10274000F12C8C010A53134FD8016D937C93D30164
:102750002D933C939C012D5D334FD901ED92FC925A
:10276000D2011C92C7CFD3016D917C917901E61AF9
:10277000F70AE7CFB82F52CF95013093050D20937C
:10278000040D8091BC0990E0AC01440F551F421725
:10279000530708F4E0C0C901019796958795909377
:1027A000C50C8093C40C009709F0D9C01092050D98
:1027B0001092040D1E861D8619821A821B821C82AD
:1027C0001D821E821F82188661E06F87412C512C6A
:1027D000198A1D8A1F8A188E198E71E07A8F1B8EB6
:1027E0001C8E1D8E1E8E1F8E18A219A274E2872EBB
:1027F00077E0972EE5EA6E2EECE07E2E05EF14E0F2
:10280000212C312C1BA30AA315C00AA11BA1005F18
:102810001F4F1BA30AA312E0810E911C22E0220E7F
:10282000311C3FEF631A730A4AA15BA1455F564012
:1028300009F484C0AAA1BBA18C91813031F7F101C8
:10284000EA5FF24F31812081932F990F990BA98074
:10285000BA80CB80DC80ED80FE800F811885492F07
:10286000592F692F792F892F0E940C4859016A012D
:102870007B018C01F101ED5DF34FA081B18120E07E
:102880003AE00E946E472CE030E040E050E00E94C9
:10289000B647DA01C901550F220B322FA90129874A
:1028A0003A874B875C87F3012081211122C09C016C
:1028B000AD016985762F862F962F0E942D49AA8C0F
:1028C000BB8CCC8CDD8CEE8CFF8C08A119A10E94F6
:1028D000CF47D4012C9311963C93822F932F8115CF
:1028E000F4E09F070CF1EFEFF3E0D401ED93FC93DC
:1028F0008CCF9C01AD016985762F862F962F0E9483
:102900002D49AF84B42CC52CD988ED88FF88088D5B
:10291000198D0E94CF47F40120833183822F932F9A
:102920008115F4E09F07FCF681309C4F0CF06DCFD1
:10293000E1E0FCEFD401ED93FC9367CF8D859E859C
:102940009093A2098093A1098091E30B9091E40BED
:10295000AD85BE85FBCB9093C50C8093C40C49011B
:10296000A12CB12C880C991CAA1CBB1CC12CD12CED
:1029700076019E878D87A0E0B0E0880F991FAA1F7F
:10298000BB1F8C019D0140E050E0BA0189831A838E
:102990002B833C834D835E836F8378879401A501ED
:1029A000B601C7015801CB80DC80E12CF12C00E09E
:1029B00010E00E942D4901E00E940B49722E832EE7
:1029C000942EB52F662E372EF82FE92F00E00E94A7
:1029D00024492F87432E542E598B6D8B7F8B888FE4
:1029E000998F7A8E8B8E9C8EBD8F6E8E3F8EF8A3C4
:1029F000E9A3452DA0E00E94364949F411E01F8764
:102A0000412C512C198A1D8A1F8A188E198E272D48
:102A1000382D492D5B2F662D732D8F2F9E2FA0E013
:102A20000E94364909F0E2CE21E02A8FD8CEAB17BA
:102A300009F42AC1A5EAEA2EACE0FA2EB3E64B2E41
:102A4000BCE05B2EDB010024B695A7950794B695F4
:102A5000A7950794BA2FA02DAC51B64F80EC482F04
:102A600046034001479F900C1124E5EFF4E080E01D
:102A700090E0772473945901A7011D0168010FC0EC
:102A800070964F5F5F4F0296B2E04B0E511C02E012
:102A9000200E311C16E0E53FF10709F46DCE2081D0
:102AA000213071F79C012E59364FD9011D921C928D
:102AB0009101280D391D2C0D3D1DD9012D913C9101
:102AC00036FF2CC0D2012D913C91B901E12CF12CA3
:102AD0008C010A53134FD8016D937C93D2012D932F
:102AE0003C938C010D5D134FD801ED92FC92D10106
:102AF0000D911C9116FD0FC06217730730F420175B
:102B0000310718F4DA017C92BBCF2617370718F487
:102B100002171307B8F3DA011C92B2CFD2016D91FC
:102B20007C917901E61AF70AD3CF8091A40B81300A
:102B300009F4A0C08091A00981508093A009882346
:102B400009F493C08091A3098093A40C811169C0FA
:102B500081E08093620CB091610C63CD892B09F008
:102B600046C1AB1709F4F5C145EA442E4CE0542E9A
:102B7000A3E6BCE07B010024F694E7940794F69466
:102B8000E7940794FE2CE02CA7014C51564F7A0194
:102B900080EC582F56034001579F900C1124E5EF0D
:102BA000F4E080E090E059013D01A7010FC070966C
:102BB000BFEF4B1A5B0A029622E0620E711C4E5F59
:102BC0005F4F36E0E53FF30709F4D6CD2081213091
:102BD00071F79C012E59364FD9011D921C929A0112
:102BE000280D391D200F311FD9012D913C91D301A2
:102BF00036FF35C02D913C917901C12CD12CBC01FF
:102C00006A53734FDB01ED92FC92D3012D933C93F9
:102C10009C012D5D334FD901CD92DC92D2011C92E3
:102C2000C6CF9091A30998132AC080E092E0E4EA0D
:102C3000F9E0A2E6B7E001900D920197E1F78091EB
:102C40007107882321F080917607811103C081E00C
:102C50008093620CB091610CA091B809E2CCED9028
:102C6000FC906901CE18DF08CACF8091BD0980931E
:102C7000A40C6CCF8091BE098093A40C67CF62E650
:102C800077E00E941C18DBCF45EA5CE0A3E6BCE0DD
:102C90000C55164FE5EFF4E080E090E0BB24B394D0
:102CA00069013A014D010DC07096BFEF6B1A7B0AA6
:102CB000029622E0820E911C36E0E53FF30709F40C
:102CC00049C04081413081F7AC014E59564FDA017D
:102CD0001D921C92A801480F591F405C5F4FDA01FA
:102CE0004D915C9156FF2FC0D4014D915C91BA017A
:102CF000E12CF12C9C012A53334FD9016D937C9325
:102D0000D4014D935C939C012D5D334FD901ED921D
:102D1000FC929C012E55384FD901ED90FC90F6FCA9
:102D20000FC06417750730F44E155F0518F4D30112
:102D3000BC92BACF4617570718F4E416F506B8F355
:102D4000D3011C92B1CFD4016D917C917A01E61A26
:102D5000F70AD0CF960111CD45EA5CE0A3E6BCE0CE
:102D60000C55164FE5EFF4E080E090E04A01690170
:102D70005D010CC07096BFEF8B1A9B0A029622E091
:102D8000A20EB11C36E0E53FF30721F3408141304C
:102D900089F7AC014E59564FDA011D921C92A801D9
:102DA000480F591F405C5F4FDA014D915C91D5018E
:102DB00056FF17C04D915C91BA01E12CF12C9C019A
:102DC0002A53334FD9016D937C93D5014D935C9376
:102DD000AC014D5D534FDA01ED92FC92D4011C928F
:102DE000C9CF6D917C917A01E61AF70AE8CFAB174B
:102DF00009F465C085EA482E8CE0582EA3E6BCE0B5
:102E00007B010024F694E7940794F694E7940794E2
:102E1000FE2CE02CC7018C51964F7C0180EC482F92
:102E200046034001479F900C1124E5EFF4E080E059
:102E300090E059013D01A70178010FC07096BFEFE6
:102E40004B1A5B0A029602E0600E711C4E5F5F4FE8
:102E500016E0E53FF10709F48FCC2081213071F7AE
:102E60009C012E59364FD9011D921C929A01280DB2
:102E7000391D2E0D3F1DD9012D913C9136FF18C0F3
:102E8000D3012D913C91B901C12CD12C8C010A5355
:102E9000134FD8016D937C93D3012D933C939C01E8
:102EA0002D5D334FD901CD92DC92D2011C92C6CF59
:102EB000D3016D917C916901C61AD70AE7CFA3E6C9
:102EC000BCE045EA5CE00C55164FE5EFF4E080E02D
:102ED00090E05D014A010DC070960296B2E0AB0E23
:102EE000B11C4FEF841A940A56E0E53FF50709F448
:102EF00044CC4081413081F7AC014E59564FDA0144
:102F00001D921C92A801480F591F405C5F4FDA01C7
:102F10004D915C91D50156FF16C04D915C91BA015F
:102F2000E12CF12CDC01AA53B34F6D937C93D501B6
:102F30004D935C93AC014D5D534FDA01ED92FC92E1
:102F4000D4011C92C9CF6D917C917A01E61AF70ADF
:102F5000E9CFA3E6BCE045EA5CE00C55164FE5EF8F
:102F6000F4E080E090E05D014A010DC070960296A9
:102F7000B2E0AB0EB11C4FEF841A940A56E0E53F65
:102F8000F50709F4FACB4081413081F7AC014E5985
:102F9000564FDA011D921C92A801480F591F405C40
:102FA0005F4FDA014D915C9156FF17C0D5014D91ED
:102FB0005C91BA01E12CF12CDC01AA53B34F6D9363
:102FC0007C93D5014D935C93AC014D5D534FDA0179
:102FD000ED92FC92D4011C92C9CFD5016D917C91E8
:102FE0007A01E61AF70AE8CFFC0120E030E090E031
:102FF0008191980F2F5F3F4F211582E03807C1F76D
:1030000081E0911180E0089520E032E0FC01A90107
:10301000119241505040E1F70895FB0120E030E06B
:10302000DC01A20FB31F4C9141932F5F3F4F21153D
:1030300042E03407A9F70895EF92FF920F931F9390
:10304000CF93DF93F62EE72E082F10E020E030E03C
:1030500000511F4F2F4F3F4F89E0000F111F221FBC
:10306000331F8A95D1F7C62FD72F80E090E0DC017F
:10307000AC01BD01400F511F621F731F6BBFFA01EE
:10308000479149930196A11DB11D811542E0940716
:10309000A105B10569F7EF2DFE2D20E080E090E05D
:1030A0003191230F0196811532E09307C9F781E032
:1030B000211180E08195DF91CF911F910F91FF90B9
:1030C000EF9008954F925F926F927F928F929F92AE
:1030D000AF92BF92CF92DF92EF92FF921F93CF9366
:1030E000DF938091870D813081F0DF91CF911F9127
:1030F000FF90EF90DF90CF90BF90AF909F908F9018
:103100007F906F905F904F9008951091450D113012
:1031100061F783E00E94010A20918A0D30918B0DA6
:103120007C01E21AF30A84E00E94010AC091880D32
:10313000D091890D662777276E197F09C81BD90B97
:1031400068338FEF78070CF46EC0693C710514F09A
:103150001093460D882777FD8095982F0E94554A39
:103160006B017C0126E234EB47E95DE30E94054BED
:103170002B013C0129E33EE843E65EE3C701B601CB
:103180000E94054B4B015C01BE01882777FD8095AD
:10319000982F0E94554A6B017C012DEC3CEC4CE4CD
:1031A0005EE30E94054B0E94274A7093580D60937E
:1031B000570D70935A0D6093590DC301B2010E94CF
:1031C000274A7093600D60935F0DC301B201905860
:1031D0000E94274A7093620D6093610DC501B4018E
:1031E0000E94274A7093640D6093630DC501B4017A
:1031F00090580E94274A7093660D6093650D2DECE0
:103200003CEC4CEC5DE3C701B6010E94054B9058C5
:103210000E94274A7093680D6093670D70936A0D42
:103220006093690D62CF82E08093460D93CFE82FC3
:10323000F0E0EE0FFF1FE95BF24F8081918108956E
:1032400027E43DE0FC0131832083089510928B0D2B
:1032500010928A0D1092890D1092880D1092450DD2
:103260001092870D1092460D80E4E7E4FDE0DF0147
:103270001D928A95E9F708958091460D1092460DAA
:1032800008951092460D08952F923F924F925F92AB
:103290006F927F928F929F92AF92BF92CF92DF9266
:1032A000EF92FF920F931F93CF93DF93CDB7DEB7CB
:1032B000E4970FB6F894DEBF0FBECDBF10928B0D12
:1032C00010928A0D1092890D1092880D82E390E081
:1032D0000E942F0C7E0185E1E80EF11CFE01319663
:1032E000FAA7E9A71E01F9E22F0E311C812C912CBF
:1032F00054012401350104C00E94C60B0E94AE0592
:103300000E94740C8823C1F383E00E94010A8C019F
:10331000F701819391937F0184E00E94010A6C017F
:10332000E9A5FAA581939193FAA7E9A7B80180E0EE
:1033300090E00E94534A9B01AC01C301B2010E947C
:1033400057492B013C01B60180E090E00E94534AAE
:103350009B01AC01C501B4010E9457494B015C01BE
:10336000E214F30469F60E94860C20E030E040E2AB
:1033700051E4C301B2010E94BF496B017C0120E00E
:1033800030E040E251E4C501B4010E94BF4969A7A1
:103390007AA78BA79CA76D897E8980E090E00E9428
:1033A000534AA70196010E9456499B01AC010E9415
:1033B000054B20E030E0A9010E9457492B013C0158
:1033C00069817A8180E090E00E94534A29A53AA55C
:1033D0004BA55CA50E9456499B01AC010E94054B80
:1033E00020E030E0A9010E9457494B015C016F8940
:1033F000788D80E090E00E94534AA70196010E94D8
:1034000056499B01AC010E94054BA30192010E9409
:1034100057492B013C016B817C8180E090E00E9448
:10342000534A29A53AA54BA55CA50E9456499B0184
:10343000AC010E94054B9B01AC01C501B4010E9487
:1034400057494B015C01698D7A8D80E090E00E94C4
:10345000534AA70196010E9456499B01AC010E9464
:10346000054B9B01AC01C301B2010E9457492B01DE
:103470003C016D817E8180E090E00E94534A29A545
:103480003AA54BA55CA50E9456499B01AC010E9440
:10349000054B9B01AC01C501B4010E9457494B018A
:1034A0005C016B8D7C8D80E090E00E94534AA70107
:1034B00096010E9456499B01AC010E94054B9B015D
:1034C000AC01C301B2010E9457492B013C016F813D
:1034D000788580E090E00E94534A29A53AA54BA543
:1034E0005CA50E9456499B01AC010E94054B9B01C3
:1034F000AC01C501B4010E9457494B015C016D8DBF
:103500007E8D80E090E00E94534AA70196010E94C0
:1035100056499B01AC010E94054B9B01AC01C301C4
:10352000B2010E9457492B013C0169857A8580E0F0
:1035300090E00E94534A29A53AA54BA55CA50E949C
:1035400056499B01AC010E94054B9B01AC01C50192
:10355000B4010E9457494B015C016F8D78A180E056
:1035600090E00E94534AA70196010E9456499B0190
:10357000AC010E94054B9B01AC01C301B2010E944A
:1035800057492B013C016B857C8580E090E00E94CF
:10359000534A29A53AA54BA55CA50E9456499B0113
:1035A000AC010E94054B9B01AC01C501B4010E9416
:1035B00057494B015C0169A17AA180E090E00E942B
:1035C000534AA70196010E9456499B01AC010E94F3
:1035D000054B9B01AC01C301B2010E9457492B016D
:1035E0003C016D857E8580E090E00E94534A29A5CC
:1035F0003AA54BA55CA50E9456499B01AC010E94CF
:10360000054B9B01AC01C501B4010E9457494B0118
:103610005C016BA17CA180E090E00E94534AA7016D
:1036200096010E9456499B01AC010E94054B9B01EB
:10363000AC01C301B2010E9457492B013C016F85C7
:10364000788980E090E00E94534A29A53AA54BA5CD
:103650005CA50E9456499B01AC010E94054B9B0151
:10366000AC01C501B4010E9457494B015C016DA139
:103670007EA180E090E00E94534AA70196010E943B
:1036800056499B01AC010E94054B9B01AC01C30153
:10369000B2010E9457496DA77EA78FA798AB698991
:1036A0007A8980E090E00E94534A29A53AA54BA56B
:1036B0005CA50E9456499B01AC010E94054B9B01F1
:1036C000AC01C501B4010E94574969AB7AAB8BAB21
:1036D0009CAB6FA178A580E090E00E94534AA701BF
:1036E00096010E9456492B013C016B897C8980E040
:1036F00090E00E94534A29A53AA54BA55CA50E94DB
:1037000056494B015C01A3019201C301B2010E9421
:10371000054B2DA53EA54FA558A90E94574920E06D
:1037200030E040E251E40E94BF490E946C4B2B0103
:103730003C01A5019401C501B4010E94054B29A9D2
:103740003AA94BA95CA90E94574920E030E040E229
:1037500051E40E94BF490E946C4B4B015C0120E088
:1037600030E040EA51E4C301B2010E94BB4987FF47
:103770000AC020E030E040EA51E4C501B4010E94F3
:10378000BB4987FD26C044E650E06AE070E084E073
:103790000E94900A80915E118F7780935E1180E085
:1037A000E4960FB6F894DEBF0FBECDBFDF91CF9188
:1037B0001F910F91FF90EF90DF90CF90BF90AF904F
:1037C0009F908F907F906F905F904F903F902F9041
:1037D000089581E08093450DC701B6010E94274AF4
:1037E00070938B0D60938A0D69A57AA58BA59CA516
:1037F0000E94274A7093890D6093880D0E94830A66
:1038000081E0CECF81E08093870D08951092870DDF
:1038100008958091870D08950F931F93CF93DF93A1
:10382000EC011091CE02113091F108F442C0123037
:1038300081F01330C1F50E94930F81112CC01092BA
:10384000900D1092CE0281E0DF91CF911F910F91E8
:1038500008950E94930F81111EC01091900D8091C8
:103860008F0D113009F454C0882309F44AC08A81AD
:103870000E94350F10928F0D0E94410F82E08093BD
:10388000CE0280E0DF91CF911F910F9108950E94A9
:10389000930F882321F11093CE0280E0DF91CF9126
:1038A0001F910F91089580E0DF91CF911F910F91AB
:1038B000089580918E0D882301F189810E94350F32
:1038C0000E94410F80918E0D80938F0D81E0809337
:1038D000CE0280E0DF91CF911F910F91089500916A
:1038E000900D80918F0D013009F18111C0CF8B8136
:1038F0000E94350F10938F0DBFCF88810E94350F26
:10390000DFCF8B810E94350F81E080938F0DB4CF84
:10391000811114C08D810E94350F10938F0D0E946C
:10392000410F83E08093CE0280E0B8CF811106C0C2
:103930008D810E94350F00938F0DF1CF8C810E94F5
:10394000350F10928F0DEBCF1F93CF93DF93EC01C8
:103950001091CD02113029F1A0F1123079F013301D
:1039600059F50E94930F811120C01092900D109272
:10397000CD0281E0DF91CF911F9108950E94930FB6
:10398000811113C080918F0D81115FC08091900DC6
:10399000813009F447C08B810E94350F1093CD020E
:1039A00033C00E94930F882309F11093CD0280E069
:1039B000DF91CF911F91089580E0DF91CF911F910A
:1039C000089580918E0D882349F189810E94350FD9
:1039D0000E94410F80918E0D80938F0D81E0809326
:1039E000CD0280E0DF91CF911F91089580918F0DDE
:1039F00081111FC08091900D8130A1F08B810E94B8
:103A0000350F82E08093CD0281E080938F0D0E947C
:103A1000410F80E0DF91CF911F91089588810E942E
:103A2000350FD6CF8D810E94350F83E08093CD0274
:103A3000EBCF8A810E94350F10928F0D0E94410FAB
:103A400082E08093CD0280E0B3CF8A810E94350F5F
:103A500010928F0D0E94410F1093CD0280E0A8CFED
:103A60001F93CF93DF93EC011091CC02113031F111
:103A7000A8F1123079F0133061F50E94930F811193
:103A800021C01092900D1092CC0281E0DF91CF9175
:103A90001F9108950E94930F811114C080918F0D82
:103AA000813009F057C08091900D813009F45EC0DB
:103AB0008A810E94350F1093CC0233C00E94930F6D
:103AC000882309F11093CC0280E0DF91CF911F9100
:103AD000089580E0DF91CF911F91089580918E0D20
:103AE000882341F189810E94350F0E94410F809106
:103AF0008E0D80938F0D81E08093CC0280E0DF916A
:103B0000CF911F91089580918F0D8130B9F48091EC
:103B1000900D813059F18A810E94350F82E08093A7
:103B2000CC0210928F0D0E94410F80E0DF91CF9167
:103B30001F91089588810E94350FD7CF8B810E94F5
:103B4000350F10938F0D0E94410F82E08093CC02BD
:103B500080E0BBCF8B810E94350F81E080938F0D79
:103B60000E94410F1093CC0280E0AFCF8C810E9465
:103B7000350F83E08093CC02D4CF80918F0D8823C2
:103B800019F010928F0D089581E080938F0D0895A4
:103B9000681B790B683F88EF780744F0693087E04D
:103BA000780714F060517E40CB010895605F714F3B
:103BB000CB010895680F791F77FD08C061318EE051
:103BC000780714F060517E40CB010895605F714F1B
:103BD000CB0108951092900D10928E0D10928F0DC2
:103BE00010928D0D10928C0D089581E08093900DB0
:103BF000089580938E0D089510928D0D10928C0D66
:103C0000089580918C0D90918D0D0895CF93DF9341
:103C1000C091CE02C13071F1D8F1C23071F0C33021
:103C200099F50E94930F811129C01092900D109266
:103C3000CE0281E0DF91CF9108950E94930F811110
:103C40001DC0C091900D80918F0DC13009F451C0FD
:103C5000882309F446C0809102020E94350F109219
:103C60008F0D0E94410F82E08093CE0280E0DF91B1
:103C7000CF9108950E94930F8823F9F0C093CE024C
:103C800080E0DF91CF91089580E0DF91CF9108959A
:103C900080918E0D882301F1809101020E94350FE1
:103CA0000E94410F80918E0D80938F0D81E0809353
:103CB000CE0280E0DF91CF910895D091900D809158
:103CC0008F0DD13029F18111C6CF809103020E945E
:103CD000350FC0938F0DC5CF809100020E94350F24
:103CE000DFCF809103020E94350F81E080938F0D1A
:103CF000B8CF811116C0809105020E94350FC09384
:103D00008F0D0E94410F83E08093CE0280E0B9CFF7
:103D1000811107C0809105020E94350FD0938F0D4D
:103D2000F0CF809104020E94350F10928F0DE9CFE1
:103D3000CF93DF93C091CE02C13071F1D8F1C23080
:103D400071F0C33099F50E94930F811129C0109230
:103D5000900D1092CE0281E0DF91CF9108950E94E4
:103D6000930F81111DC0C091900D80918F0DC130B6
:103D700009F451C0882309F446C0809108020E94CA
:103D8000350F10928F0D0E94410F82E08093CE027A
:103D900080E0DF91CF9108950E94930F8823F9F07E
:103DA000C093CE0280E0DF91CF91089580E0DF9153
:103DB000CF91089580918E0D882301F180910702A3
:103DC0000E94350F0E94410F80918E0D80938F0DC0
:103DD00081E08093CE0280E0DF91CF910895D09171
:103DE000900D80918F0DD13029F18111C6CF809136
:103DF00009020E94350FC0938F0DC5CF8091060236
:103E00000E94350FDFCF809109020E94350F81E0BB
:103E100080938F0DB8CF811116C080910B020E9444
:103E2000350FC0938F0D0E94410F83E08093CE0227
:103E300080E0B9CF811107C080910B020E94350F3D
:103E4000D0938F0DF0CF80910A020E94350F10920F
:103E50008F0DE9CFCF93C091CD02C13021F178F120
:103E6000C23069F0C33041F50E94930F81111FC029
:103E70001092900D1092CD0281E0CF9108950E9492
:103E8000930F811114C080918F0D81115DC08091BD
:103E9000900D813009F443C080910F020E94350FCC
:103EA000C093CD022FC00E94930F8823E1F0C093EE
:103EB000CD0280E0CF91089580E0CF910895809168
:103EC0008E0D882339F180910D020E94350F0E94DA
:103ED000410F80918E0D80938F0D81E08093CD02F4
:103EE00080E0CF91089580918F0D811120C0809145
:103EF000900D8130A1F080910F020E94350F82E079
:103F00008093CD0281E080938F0D0E94410F80E06D
:103F1000CF91089580910C020E94350FD8CF8091E7
:103F200011020E94350F83E08093CD02EBCF809188
:103F30000E020E94350F10928F0D0E94410F82E0F9
:103F40008093CD0280E0B6CF80910E020E94350FA3
:103F500010928F0D0E94410FC093CD0280E0AACF36
:103F6000CF93C091CC02C13029F180F1C23069F009
:103F7000C33049F50E94930F811120C01092900D1B
:103F80001092CC0281E0CF9108950E94930F81118D
:103F900015C080918F0D813009F054C08091900D33
:103FA000813009F45CC0809114020E94350FC093E7
:103FB000CC022FC00E94930F8823E1F0C093CC0263
:103FC00080E0CF91089580E0CF91089580918E0D8B
:103FD000882331F1809113020E94350F0E94410F16
:103FE00080918E0D80938F0D81E08093CC0280E0D4
:103FF000CF91089580918F0D8130B9F48091900D0B
:10400000813069F1809114020E94350F82E0809323
:10401000CC0210928F0D0E94410F80E0CF91089545
:10402000809112020E94350FD9CF809115020E9413
:10403000350FC0938F0D0E94410F82E08093CC0218
:1040400080E0BFCF809115020E94350F81E0809300
:104050008F0D0E94410FC093CC0280E0B2CF8091BF
:1040600016020E94350F83E08093CC02D2CFCF930B
:10407000C091CD02C13021F178F1C23069F0C33076
:1040800041F50E94930F81111FC01092900D109264
:10409000CD0281E0CF9108950E94930F811114C049
:1040A00080918F0D81115DC08091900D813009F458
:1040B00043C080911B020E94350FC093CD022FC0D8
:1040C0000E94930F8823E1F0C093CD0280E0CF914E
:1040D000089580E0CF91089580918E0D882339F165
:1040E000809119020E94350F0E94410F80918E0D20
:1040F00080938F0D81E08093CD0280E0CF91089571
:1041000080918F0D811120C08091900D8130A1F0A0
:1041100080911B020E94350F82E08093CD0281E0E6
:1041200080938F0D0E94410F80E0CF910895809180
:1041300018020E94350FD8CF80911D020E94350FC2
:1041400083E08093CD02EBCF80911A020E94350F5D
:1041500010928F0D0E94410F82E08093CD0280E08B
:10416000B6CF80911A020E94350F10928F0D0E94D7
:10417000410FC093CD0280E0AACFCF93C091CC0273
:10418000C13029F180F1C23069F0C33049F50E9495
:10419000930F811120C01092900D1092CC0281E0FB
:1041A000CF9108950E94930F811115C080918F0DBA
:1041B000813009F054C08091900D813009F45CC0C9
:1041C000809120020E94350FC093CC022FC00E9424
:1041D000930F8823E1F0C093CC0280E0CF91089543
:1041E00080E0CF91089580918E0D882331F18091E8
:1041F0001F020E94350F0E94410F80918E0D809307
:104200008F0D81E08093CC0280E0CF910895809162
:104210008F0D8130B9F48091900D813069F18091DA
:1042200020020E94350F82E08093CC0210928F0D05
:104230000E94410F80E0CF91089580911E020E945C
:10424000350FD9CF809121020E94350FC0938F0D79
:104250000E94410F82E08093CC0280E0BFCF80912A
:1042600021020E94350F81E080938F0D0E94410F43
:10427000C093CC0280E0B2CF809122020E94350F21
:1042800083E08093CC02D2CFCF93C091CD02C130D6
:1042900021F178F1C23069F0C33041F50E94930FEB
:1042A00081111FC01092900D1092CD0281E0CF912C
:1042B00008950E94930F811114C080918F0D811178
:1042C0005DC08091900D813009F443C08091270238
:1042D0000E94350FC093CD022FC00E94930F8823F8
:1042E000E1F0C093CD0280E0CF91089580E0CF91BE
:1042F000089580918E0D882339F1809125020E94C6
:10430000350F0E94410F80918E0D80938F0D81E0BB
:104310008093CD0280E0CF91089580918F0D81111F
:1043200020C08091900D8130A1F0809127020E94E1
:10433000350F82E08093CD0281E080938F0D0E9443
:10434000410F80E0CF910895809124020E94350FA3
:10435000D8CF809129020E94350F83E08093CD024F
:10436000EBCF809126020E94350F10928F0D0E9494
:10437000410F82E08093CD0280E0B6CF809126028B
:104380000E94350F10928F0D0E94410FC093CD02F5
:1043900080E0AACFCF93C091CC02C13029F180F147
:1043A000C23069F0C33049F50E94930F811120C0DB
:1043B0001092900D1092CC0281E0CF9108950E944E
:1043C000930F811115C080918F0D813009F054C079
:1043D0008091900D813009F45CC080912C020E9484
:1043E000350FC093CC022FC00E94930F8823E1F0B9
:1043F000C093CC0280E0CF91089580E0CF910895E2
:1044000080918E0D882331F180912B020E94350F0F
:104410000E94410F80918E0D80938F0D81E08093DB
:10442000CC0280E0CF91089580918F0D8130B9F456
:104430008091900D813069F180912C020E94350F9E
:1044400082E08093CC0210928F0D0E94410F80E099
:10445000CF91089580912A020E94350FD9CF809183
:104460002D020E94350FC0938F0D0E94410F82E0F4
:104470008093CC0280E0BFCF80912D020E94350F47
:1044800081E080938F0D0E94410FC093CC0280E0A9
:10449000B2CF80912E020E94350F83E08093CC0230
:1044A000D2CFCF93C091CD02C13021F178F1C2308B
:1044B00069F0C33041F50E94930F81111FC0109223
:1044C000900D1092CD0281E0CF9108950E94930F3C
:1044D000811114C080918F0D81115DC08091900D6C
:1044E000813009F443C0809133020E94350FC0939C
:1044F000CD022FC00E94930F8823E1F0C093CD021C
:1045000080E0CF91089580E0CF91089580918E0D45
:10451000882339F1809131020E94350F0E94410FAA
:1045200080918E0D80938F0D81E08093CD0280E08D
:10453000CF91089580918F0D811120C08091900DB1
:104540008130A1F0809133020E94350F82E0809388
:10455000CD0281E080938F0D0E94410F80E0CF91CA
:104560000895809130020E94350FD8CF8091350296
:104570000E94350F83E08093CD02EBCF8091320211
:104580000E94350F10928F0D0E94410F82E08093A0
:10459000CD0280E0B6CF809132020E94350F10929A
:1045A0008F0D0E94410FC093CD0280E0AACFCF9320
:1045B000C091CC02C13029F180F1C23069F0C33022
:1045C00049F50E94930F811120C01092900D109216
:1045D000CC0281E0CF9108950E94930F811115C004
:1045E00080918F0D813009F054C08091900D813001
:1045F00009F45CC0809138020E94350FC093CC0250
:104600002FC00E94930F8823E1F0C093CC0280E07A
:10461000CF91089580E0CF91089580918E0D8823E9
:1046200031F1809137020E94350F0E94410F809135
:104630008E0D80938F0D81E08093CC0280E0CF912E
:10464000089580918F0D8130B9F48091900D813063
:1046500069F1809138020E94350F82E08093CC028C
:1046600010928F0D0E94410F80E0CF9108958091AC
:1046700036020E94350FD9CF809139020E94350F42
:10468000C0938F0D0E94410F82E08093CC0280E0A6
:10469000BFCF809139020E94350F81E080938F0D4A
:1046A0000E94410FC093CC0280E0B2CF80913A02C9
:1046B0000E94350F83E08093CC02D2CFCF93C0917C
:1046C000CD02C13021F178F1C23069F0C33041F53B
:1046D0000E94930F81111FC01092900D1092CD0275
:1046E00081E0CF9108950E94930F811114C08091B1
:1046F0008F0D81115DC08091900D813009F443C010
:1047000080913F020E94350FC093CD022FC00E94BE
:10471000930F8823E1F0C093CD0280E0CF910895FC
:1047200080E0CF91089580918E0D882339F180919A
:104730003D020E94350F0E94410F80918E0D8093A3
:104740008F0D81E08093CD0280E0CF91089580911C
:104750008F0D811120C08091900D8130A1F080914A
:104760003F020E94350F82E08093CD0281E080936A
:104770008F0D0E94410F80E0CF91089580913C02FF
:104780000E94350FD8CF809141020E94350F83E0FF
:104790008093CD02EBCF80913E020E94350F1092A4
:1047A0008F0D0E94410F82E08093CD0280E0B6CF52
:1047B00080913E020E94350F10928F0D0E94410F92
:1047C000C093CD0280E0AACFCF93C091CC02C1307C
:1047D00029F180F1C23069F0C33049F50E94930F8E
:1047E000811120C01092900D1092CC0281E0CF91E7
:1047F00008950E94930F811115C080918F0D813013
:1048000009F054C08091900D813009F45CC0809112
:1048100044020E94350FC093CC022FC00E94930F18
:104820008823E1F0C093CC0280E0CF91089580E02E
:10483000CF91089580918E0D882331F180914302AC
:104840000E94350F0E94410F80918E0D80938F0D35
:1048500081E08093CC0280E0CF91089580918F0D0C
:104860008130B9F48091900D813069F180914402DA
:104870000E94350F82E08093CC0210928F0D0E942F
:10488000410F80E0CF910895809142020E94350F40
:10489000D9CF809145020E94350FC0938F0D0E94A1
:1048A000410F82E08093CC0280E0BFCF809145022F
:1048B0000E94350F81E080938F0D0E94410FC093BD
:1048C000CC0280E0B2CF809146020E94350F83E097
:1048D0008093CC02D2CFCF93C091CD02C13021F1D1
:1048E00078F1C23069F0C33041F50E94930F811115
:1048F0001FC01092900D1092CD0281E0CF910895CB
:104900000E94930F811114C080918F0D81115DC0A1
:104910008091900D813009F443C080914B020E9438
:10492000350FC093CD022FC00E94930F8823E1F072
:10493000C093CD0280E0CF91089580E0CF9108959B
:1049400080918E0D882339F1809149020E94350FA4
:104950000E94410F80918E0D80938F0D81E0809396
:10496000CD0280E0CF91089580918F0D811120C0FC
:104970008091900D8130A1F080914B020E94350F03
:1049800082E08093CD0281E080938F0D0E94410FE1
:1049900080E0CF910895809148020E94350FD8CFD2
:1049A00080914D020E94350F83E08093CD02EBCFC2
:1049B00080914A020E94350F10928F0D0E94410F84
:1049C00082E08093CD0280E0B6CF80914A020E94BF
:1049D000350F10928F0D0E94410FC093CD0280E0E1
:1049E000AACFCF93C091CC02C13029F180F1C2305F
:1049F00069F0C33049F50E94930F811120C01092D5
:104A0000900D1092CC0281E0CF9108950E94930FF7
:104A1000811115C080918F0D813009F054C08091B3
:104A2000900D813009F45CC0809150020E94350FD6
:104A3000C093CC022FC00E94930F8823E1F0C09353
:104A4000CC0280E0CF91089580E0CF9108958091CD
:104A50008E0D882331F180914F020E94350F0E9404
:104A6000410F80918E0D80938F0D81E08093CC0259
:104A700080E0CF91089580918F0D8130B9F48091BD
:104A8000900D813069F1809150020E94350F82E0D3
:104A90008093CC0210928F0D0E94410F80E0CF9145
:104AA000089580914E020E94350FD9CF8091510216
:104AB0000E94350FC0938F0D0E94410F82E08093BA
:104AC000CC0280E0BFCF809151020E94350F81E07F
:104AD00080938F0D0E94410FC093CC0280E0B2CF33
:104AE000809152020E94350F83E08093CC02D2CF96
:104AF000CF93DF93C091CE02C13071F1D8F1C230B3
:104B000071F0C33099F50E94930F811129C0109262
:104B1000900D1092CE0281E0DF91CF9108950E9416
:104B2000930F81111DC0C091900D80918F0DC130E8
:104B300009F451C0882309F446C0809156020E94AE
:104B4000350F10928F0D0E94410F82E08093CE02AC
:104B500080E0DF91CF9108950E94930F8823F9F0B0
:104B6000C093CE0280E0DF91CF91089580E0DF9185
:104B7000CF91089580918E0D882301F18091550287
:104B80000E94350F0E94410F80918E0D80938F0DF2
:104B900081E08093CE0280E0DF91CF910895D091A3
:104BA000900D80918F0DD13029F18111C6CF809168
:104BB00057020E94350FC0938F0DC5CF80915402CC
:104BC0000E94350FDFCF809157020E94350F81E0A0
:104BD00080938F0DB8CF811116C0809159020E9429
:104BE000350FC0938F0D0E94410F83E08093CE025A
:104BF00080E0B9CF811107C0809159020E94350F22
:104C0000D0938F0DF0CF809158020E94350F1092F3
:104C10008F0DE9CFCF93DF93C091CE02C13071F1F8
:104C2000D8F1C23071F0C33099F50E94930F811111
:104C300029C01092900D1092CE0281E0DF91CF91A9
:104C400008950E94930F81111DC0C091900D809115
:104C50008F0DC13009F451C0882309F446C08091FA
:104C60005C020E94350F10928F0D0E94410F82E06E
:104C70008093CE0280E0DF91CF9108950E94930F40
:104C80008823F9F0C093CE0280E0DF91CF910895A0
:104C900080E0DF91CF91089580918E0D882301F1FE
:104CA00080915B020E94350F0E94410F80918E0D12
:104CB00080938F0D81E08093CE0280E0DF91CF91D1
:104CC0000895D091900D80918F0DD13029F18111EF
:104CD000C6CF80915D020E94350FC0938F0DC5CF66
:104CE00080915A020E94350FDFCF80915D020E94B1
:104CF000350F81E080938F0DB8CF811116C0809160
:104D00005F020E94350FC0938F0D0E94410F83E018
:104D10008093CE0280E0B9CF811107C080915F02FD
:104D20000E94350FD0938F0DF0CF80915E020E94CC
:104D3000350F10928F0DE9CF0895089508950895C5
:104D400008950895089508951F93CF93DF931F92B8
:104D50001F92CDB7DEB7681B790B683F88EF7807E5
:104D60003CF5605F714F1091CB02113059F1113059
:104D700008F4A1C0123009F45EC0133009F094C0E9
:104D80000E94930F811187C080918C0D90918D0DA1
:104D9000019690938D0D80938C0D1092900D109232
:104DA000CB0281E00F900F90DF91CF911F9108957A
:104DB0006930E7E07E07BCF260517E401091CB0283
:104DC0001130A9F669837A830E94930F69817A81F1
:104DD000811161C080918C0D90918D0D0196909301
:104DE0008D0D80938C0D8091900D813009F4B2C0AF
:104DF000CB018D599F4F873C910508F47BC0809172
:104E00008F0D6C39FFEF7F070CF08AC0882309F4FF
:104E1000C3C0813009F4F9C091E09093CB028111B5
:104E20008BC081E080938F0D80E00F900F90DF9119
:104E3000CF911F91089569837A830E94930F6981AE
:104E40007A81811128C080918C0D90918D0D0196F1
:104E500090938D0D80938C0D8091900D813009F48D
:104E600088C0CB0177FDA0C0853691050CF46DC0DC
:104E700080918F0D161617060CF04CC0811190C052
:104E80008CE60E94350F0E94410F82E08093CB0296
:104E900080918F0DC4CF1093CB0280E00F900F90C4
:104EA000DF91CF911F91089580E00F900F90DF91D7
:104EB000CF911F91089580918E0D8823B9F082E2E1
:104EC0000E94350F0E94410F80918E0D90E0019657
:104ED0008170992780938F0D81E08093CB0280E0D1
:104EE0000F900F90DF91CF911F91089580E20E9463
:104EF000350FE8CF80918F0D882309F44DC086E2ED
:104F00000E94350F0E94410F81E08093CB02809177
:104F10008F0D85CF81115AC088E70E94350FB3CF1E
:104F2000653671050CF468C0813049F3882309F4B3
:104F300058C081E08093CB0210928F0D80E00F90DB
:104F40000F90DF91CF911F91089581E08093CB0264
:104F500080E0A4CF80918F0D81112BC088E20E9448
:104F6000350F0E94410F83E08093CB0280918F0D1B
:104F700056CF80918F0D16161706FCF4813051F133
:104F80008CE60E94350F1093CB020E94410F809156
:104F90008F0D8111D1CF45CF84E20E94350FB2CF62
:104FA0008EE60E94350F6FCF88279927861B970BB7
:104FB0005BCF8AE20E94350FD4CF811120C08CE7ED
:104FC0000E94350F83E08093CB02DFCF8AE70E94F7
:104FD000350F59CF82E70E94350F83E08093CB02D3
:104FE000D4CF82E08093CB028CE60E94350F0E94E2
:104FF000410F80918F0D13CF77FF98CF0ACF8AE7AB
:105000000E94350F1093CB02C0CF8AE70E94350F64
:1050100082E08093CB020E94410F80918F0DFFCEE2
:105020001F93CF93DF931F921F92CDB7DEB7681BFC
:10503000790B683F88EF78073CF5605F714F1091FE
:10504000CA02113059F1113008F49EC0123009F42F
:105050005DC0133009F091C00E94930F811184C08C
:1050600080918C0D90918D0D019790938D0D809373
:105070008C0D1092900D1092CA0281E00F900F904B
:10508000DF91CF911F9108956930E7E07E07BCF270
:1050900060517E401091CA021130A9F669837A836B
:1050A0000E94930F69817A8181115EC080918C0D7D
:1050B00090918D0D019790938D0D80938C0D809123
:1050C000900D813009F4B0C0CB018D599F4F873CC2
:1050D000910508F478C080918F0D653671050CF448
:1050E00088C0882309F4C2C0813009F4E7C091E088
:1050F0009093CA0281118AC081E080938F0D80E075
:105100000F900F90DF91CF911F91089569837A835B
:105110000E94930F69817A81811126C080918C0D44
:1051200090918D0D019790938D0D80938C0D8091B2
:10513000900D813009F487C0CB0177FD9FC0853683
:1051400091050CF46CC080918F0D77FD4CC08111DE
:1051500091C080E90E94350F0E94410F82E0809348
:10516000CA0280918F0DC6CF1093CA0280E00F90C3
:105170000F90DF91CF911F91089580E00F900F90D5
:10518000DF91CF911F91089580918E0D8823B9F002
:105190008EE20E94350F0E94410F80918E0D90E0AB
:1051A00001968170992780938F0D81E08093CA02C8
:1051B00080E00F900F90DF91CF911F9108958CE2C6
:1051C0000E94350FE8CF80918F0D882309F44EC0DF
:1051D00082E30E94350F0E94410F81E08093CA0252
:1051E00080918F0D87CF811160C084E80E94350FB8
:1051F000B3CF6C39FFEF7F070CF05BC0813041F318
:10520000882309F46DC081E08093CA0210928F0D4B
:1052100080E00F900F90DF91CF911F91089581E072
:105220008093CA0280E0A3CF80918F0D81112BC0A3
:1052300084E30E94350F0E94410F83E08093CA02ED
:1052400080918F0D57CF80918F0D77FD26C08111F2
:105250001EC084E90E94350F83E08093CA020E9439
:10526000410F80918F0D8111D1CF46CF80E30E94F5
:10527000350FB1CF82E90E94350F6ECF882799276D
:10528000861B970B5CCF86E30E94350FD4CF82E953
:105290000E94350F1093CA02E2CF8130D1F084E82A
:1052A0000E94350F1093CA02DACF86E80E94350FAC
:1052B00053CF161617060CF417CFA2CF82E90E941F
:1052C000350F82E08093CA020E94410F80918F0DBA
:1052D00011CF8AE80E94350F83E08093CA02BFCFC6
:1052E00082E08093CA0284E80E94350F0E94410F39
:1052F00080918F0DFFCECF93DF93D82FC091C9023D
:10530000C13019F180F0C23021F080E0DF91CF91FF
:1053100008950E947D0C811129C0C093C90280E0CC
:10532000DF91CF9108950E94930F81111BC0D1305E
:1053300019F18CE10E94350F0E94410F81E08093AA
:10534000C90280E0DF91CF9108950E94930F8111EF
:10535000E4CF82E08093C90288EE93E00E94510C72
:1053600080E0D4CF1092C90280E0D0CF0E944119D2
:105370001092C90281E0CACF8BE10E94350FDCCFC9
:10538000CF93C82F4091C80250E04830510530F00B
:1053900080E0C1111092C802CF910895FA01EA5934
:1053A000FE4F0C9405490E94930F882309F456C0C0
:1053B00086E08093C80280E0ECCF0E94930F8823A0
:1053C00009F448C087E08093C80280E0E2CF0E94E1
:1053D000930F8823A9F10E948F0F81E08093C80268
:1053E00080E0D7CF0E94930F882351F181E0809312
:1053F000C80280E0CECF0E94930F882309F456C0E4
:1054000082E08093C80280E0C4CF0E947D0C8111AD
:1054100043C083E08093C80280E0BBCF0E94930F1B
:10542000882381F184E08093C80280E0B2CF0E949B
:10543000930F8823E9F085E08093C80280E0A9CF2C
:1054400083EE0E94350F0E94410F82E08093C802D4
:1054500080E09FCF1092C80281E09BCF8FE10E9435
:10546000350F0E94410F87E08093C80280E091CF02
:1054700082EE0E94350F0E94410F86E08093C802A1
:1054800080E087CF81EE0E94350F0E94410F85E0BA
:105490008093C80280E07DCF80EE0E94350F0E948D
:1054A000410F84E08093C80280E073CF8CED95E0DB
:1054B0000E94510C83E08093C80280E06ACFCF93B2
:1054C000C091C702C23009F441C068F0C430C1F0D5
:1054D00098F1C53019F50E94930F81110CC01092FC
:1054E000C70281E00BC0CC23E1F0C130B9F40E94C7
:1054F000930F8823C9F1C093C70280E0CF9108952C
:105500000E94930F8111F7CF8FE10E94350F0E9407
:10551000410F85E08093C70280E0F0CF80E0CF911B
:1055200008950E94930F8823F9F00E948F0F81E065
:105530008093C70280E0E2CF0E94930F8823F9F0A6
:1055400083E08093C70280E0CF9108950E94930F7B
:105550008111D1CF85EE0E94350F0E94410F83E06B
:105560008093C70280E0CACF84EE0E94350F0E946C
:10557000410F82E08093C70280E0CF91089586EECC
:105580000E94350F0E94410F84E08093C70280E0A3
:10559000B5CF1F93CF93DF93EB01C81BD90BC83F47
:1055A00088EFD8079CF5C05FD14F1091C60212302A
:1055B000B9F1133008F04DC0112309F472C0113055
:1055C00009F061C00E94930F811184C08091900DF9
:1055D000813009F49FC0C953DF4FCF38D14008F460
:1055E00088C080918F0D813009F4A2C084E50E94AB
:1055F000350F0E94410F1093C60280918F0D8111CB
:1056000085C081E080938F0D80E03EC0C93097E077
:10561000D9075CF2C051DE401091C602123049F643
:105620000E94930F882309F460C01093C602D7FD2F
:1056300021C08CE092E00E94A41C811129C0C436D4
:10564000D1050CF591E09093900DDF91CF911F91D2
:105650000895133061F31430B1F40E94930F811157
:1056600039C01092900D1092C60281E0DF91CF9167
:105670001F91089582E192E00E94301D811108C0BF
:10568000CD39DF4FFCF680E0DF91CF911F91089577
:105690001092C6021092900D80E0DF91CF911F9181
:1056A000089580918E0D81111CC080E50E94350FF8
:1056B0000E94410F80918E0D90E001968170992794
:1056C00080938F0D81E08093C60280E0DF91CF91BF
:1056D0001F9108951093C60280E0DF91CF911F9132
:1056E000089582E50E94350FE3CF83E08093C602E0
:1056F0009ECF80918F0D811117C084E50E94350FD8
:105700000E94410F81E08093C60277CF10928F0DE7
:1057100080E0BACF80918F0D813099F084E50E94AE
:10572000350F0E94410F69CF86E50E94350FE8CF03
:105730008AE50E94350F0E94410F82E08093C602E5
:105740005CCF8AE50E94350F84E08093C602E9CFE2
:105750001F93CF93DF93EB01C81BD90BC83F88EF92
:10576000D8079CF5C05FD14F1091C5021230B9F136
:10577000133008F04DC0112309F472C0113009F044
:1057800061C00E94930F811184C08091900D81307F
:1057900009F49FC0C953DF4FCF38D14008F488C007
:1057A00080918F0D8111A2C084E60E94350F0E9466
:1057B000410F82E08093C50280918F0D811185C0D9
:1057C00081E080938F0D80E03EC0C93097E0D9071B
:1057D0005CF2C051DE401091C502123049F60E94C1
:1057E000930F882309F460C01093C502D7FD21C030
:1057F0008CE092E00E94A41C811129C0C436D1051E
:105800000CF591E09093900DDF91CF911F91089549
:10581000133061F31430B1F40E94930F811139C039
:105820001092900D1092C50281E0DF91CF911F91EF
:10583000089582E192E00E94301D811108C0CD39A7
:10584000DF4FFCF680E0DF91CF911F910895109219
:10585000C5021092900D80E0DF91CF911F910895C5
:1058600080918E0D81111CC08CE50E94350F0E9425
:10587000410F80918E0D90E0019681709927809361
:105880008F0D81E08093C50280E0DF91CF911F9161
:1058900008951093C50280E0DF91CF911F91089584
:1058A0008EE50E94350FE3CF83E08093C5029ECF43
:1058B00080918F0D811122C080E60E94350F0E94D9
:1058C000410F81E08093C50277CF10928F0D80E069
:1058D000BACF80918F0D811115C084E60E94350FDB
:1058E00084E08093C5020E94410F66CF82E60E9449
:1058F000350F0E94410F1093C5025ECF82E60E94D1
:10590000350FDDCF82E60E94350FEDCF1F93CF9389
:10591000DF93EC018091C402823009F483C028F542
:10592000882309F457C0813061F5C091C002D0913D
:10593000C1020E946E3A9E01281B390BC901883FA3
:1059400038EF93070CF08FC0805F914F97FDBFC079
:10595000853691050CF08FC084E08093C40210E07E
:10596000812FDF91CF911F910895833081F0843092
:1059700041F41092C40211E0812FDF91CF911F9169
:10598000089510E0812FDF91CF911F91089582E15A
:1059900092E00E94301D182F8111DECFC091C0020D
:1059A000D091C1020E946E3A9E01281B390B283FFC
:1059B00088EF38070CF47EC0293087E0380714F0F0
:1059C00020513E40243631050CF47AC083E08093A8
:1059D000C402C6CF0E946E3A9093C3028093C20263
:1059E0009E01220F331FCC0FDD1FCC0FDD1FCC0F0C
:1059F000DD1F2C0F3D1F280F391F37FD65C02131DA
:105A00008EE0380714F020513E403093C1022093BD
:105A1000C00281E08093C40210E0812FDF91CF911A
:105A20001F9108958CE092E00E94A41C182F811110
:105A300093CFC091C002D091C1020E946E3A9E01E4
:105A4000281B390B283F88EF38078CF1293087E075
:105A5000380714F020513E402D393F4F8CF582E03D
:105A60008093C4027DCF893027E092070CF46ECF7B
:105A700080519E406BCFC091C002D091C1020E9464
:105A80006E3A9E01281B390BC901883F38EF9307F6
:105A9000A4F0893027E0920714F080519E408536AB
:105AA0009105CCF083E08093C40210E059CF205FD1
:105AB000314FD2CF205F314F85CF805F914FEFCFF5
:105AC00081E08093900D4CCF205F314F9ECF919518
:105AD000819591093DCFC091C002D091C1020E9431
