:100000000C94C6010C94E7010C94E7010C94E701F1
:100010000C94E7010C94E7010C94E7010C94E701C0
:100020000C94E7010C94E7010C94E7010C94E701B0
:100030000C94E7010C94E7010C94E7010C94E701A0
:100040000C94E7010C94E7010C94E7010C94E70190
:100050000C94E7010C94E7010C94E7010C94E70180
:100060000C94E7010C94D73D0C94E7010C94943D5B
:100070000C94E7010C94E7010C94E7010C94E70160
:100080000C94E7010C94E7010C94E7010C94E70150
:100090000C943F420C94E7010C946E420C94E701DF
:1000A0000C94E7010C94E7010C94E7010C94E70130
:1000B0000C94E7010C94E7010C94E7010C94E70120
:1000C0000C94E7010C94E7010C94E701D103D303EE
:1000D000D003D503D003D003D003D703D003D0037C
:1000E000D003D003D003D003D003D903D003D0036F
:1000F000D003D003D003D003D003D003D003D00368
:10010000D003D003D003D003D003DB03D003D0034C
:10011000D003D003D003D003D003D003D003D00347
:10012000D003D003D003D003D003D003D003D00337
:10013000D003D003D003D003D003D003D003D00327
:10014000D003D003D003D003D003CF03E903EB03E4
:10015000E803ED03E803E803E803EF03E803E8033B
:10016000E803E803E803E803E803F103E803E8032E
:10017000E803E803E803E803E803E803E803E80327
:10018000E803E803E803E803E803F303E803E8030C
:10019000E803E803E803E803E803E803E803E80307
:1001A000E803E803E803E803E803E803E803E803F7
:1001B000E803E803E803E803E803E803E803E803E7
:1001C000E803E803E803E803E803E7030404090499
:1001D00003040E04030403040304130403040304CC
:1001E00003040304030403040304180403040304C2
:1001F00003040304030403040304030403040304C7
:10020000030403040304030403041D04030403049C
:1002100003040304030403040304030403040304A6
:100220000304030403040304030403040304030496
:100230000304030403040304030403040304030486
:1002400003040304030403040304FF032E042E0425
:1002500028042E0428042804280437042804280429
:10026000280428042804280428043C04280428041A
:10027000280428042804280428042804280428041E
:100280002804280428042804280431042804280405
:1002900028042804280428042804280428042804FE
:1002A00028042804280428042804280428042804EE
:1002B00028042804280428042804280428042804DE
:1002C000280428042804280428044404092A142A99
:1002D0001D2A272A302A392AF529FF296364696EE5
:1002E0006F70737578585B000C9437040C94392A3E
:1002F0000C941D2A0C94D4410C94F3030C94302AD2
:100300000C94DB030C942E040C941D040C94FF033A
:100310000C94142A0C9431040C94EF030C94E8030D
:100320000C94E9030C94D5030C940E040C9418045B
:100330000C94D9030C9449460C94D0030C944404B7
:100340000C94D3030C9413040C94D7030C9428043A
:100350000C94F6410C943C040C94D1030C94F103DE
:100360000C9403040C94CF030C94092A0C94ED0311
:100370000C94E7030C94FF290C94F5290C94272A7C
:100380000C9404040C9409040C94EB0311241FBE78
:10039000CFEFD1E2DEBFCDBF00E00CBF12E0A0E0A6
:1003A000B2E0ECE4F3EA00E00BBF02C007900D926C
:1003B000AA3CB107D9F710E1AAECB2E001C01D9246
:1003C000AB31B107E1F70E94A2450C94A4510C9403
:1003D0000000CF93DF93EC010E94633A8C1B9D0BCE
:1003E000893027E092071CF080519E4006C0883F6C
:1003F00028EF920714F4805F914F6AE070E00E944A
:10040000EE45CB01DF91CF910895FC019A01641B69
:10041000750BCB0160E17EE00E94EE456E9FC0014E
:100420006F9F900D7E9F900D1124820F931F089552
:1004300060E071EE80E090E00E94AF420E944D19B2
:100440000E946B190E94241C84E690E00E947F0C9D
:100450000E940C1E0E94BC360C94E739CF93C091C9
:10046000CA02C130B1F018F0C230D1F04DC081E005
:100470000E948504882351F081E08093CA020E9483
:10048000633A9093E6028093E5023EC01092CA025E
:100490003BC00E94B10F8823A1F1C093CA0234C0AF
:1004A0000E94C40C882369F187E00E9453379F9310
:1004B0008F9384E792E09F938F930E94D64286E0C9
:1004C0000E9453379F938F9381E992E09F938F937C
:1004D0000E94D64284E00E9453379F938F938EEA06
:1004E00092E09F938F930E94D64284EF91E00E9406
:1004F0007F0C8DB79EB70C960FB6F8949EBF0FBEBB
:100500008DBF82E08093CA02CF9108950E948E032E
:100510000E9447040E9457070E94230B0C944D0C25
:10052000649974C081E08093FB029091FE0299234C
:1005300009F4B5C01092FF02659952C081E0809322
:10054000F6029091F902992309F498C01092FA02E8
:10055000669932C081E08093EC029091EF0299237A
:1005600009F47BC01092F0026799AAC081E08093E1
:10057000E7029091EA02992309F45EC01092EB021F
:10058000489912C091E09093F1028091F402811198
:1005900010C08091F5028F5F8093F5028091F50283
:1005A000843109F4B4C008958091F402813009F4D3
:1005B0009DC01092F50208958091EF02813091F66E
:1005C0009091F0029F5F9093F0029091F00294312D
:1005D00059F68093EE021092EF021092F002C4CF0F
:1005E0008091F902813009F0B1CF9091FA029F5FBA
:1005F0009093FA029091FA02943109F0A9CF809376
:10060000F8021092F9021092FA02A2CF8091FE0233
:10061000813009F08FCF9091FF029F5F9093FF028E
:100620009091FF02943109F087CF8093FD021092E0
:10063000FE021092FF0280CF9091EB029F5F909399
:10064000EB029091EB02943109F09ACF8093E8028B
:100650008093EA021092EB0293CF9091F0029F5F99
:100660009093F0029091F002943109F07DCF809345
:10067000ED028093EF021092F00276CF9091FA0291
:100680009F5F9093FA029091FA02943109F060CF43
:100690008093F7028093F9021092FA0259CF909159
:1006A000FF029F5F9093FF029091FF02943109F047
:1006B00043CF8093FC028093FE021092FF023CCF56
:1006C0008091EA02813009F059CF9091EB029F5F4F
:1006D0009093EB029091EB02943109F051CF80930B
:1006E000E9021092EA021092EB024ACF9091F502D1
:1006F0009F5F9093F5029091F502943109F053CFEA
:100700008093F3021092F4021092F50208959093F0
:10071000F2029093F4021092F50208958FE787B9E0
:100720008EE788B91092FB021092FC021092FD0233
:100730001092FE021092FF021092F6021092F7023F
:100740001092F8021092F9021092FA021092EC0242
:100750001092ED021092EE021092EF021092F0024F
:100760001092E7021092E8021092E9021092EA0257
:100770001092EB021092F1021092F2021092F30228
:100780001092F4021092F502089590E0FC01319766
:10079000E034F10528F4EA59FF4F0C94734746986A
:1007A000089540980895419808954298089543986F
:1007B0000895449808954598089590E0FC01319774
:1007C000E034F10528F4EA55FF4F0C947347469A3C
:1007D0000895409A0895419A0895429A0895439A37
:1007E0000895449A0895459A089590E0FC01319740
:1007F000E034F10540F4EA51FF4F0C94734788B19F
:1008000090E4892788B9089588B191E0892788B94B
:10081000089588B192E0892788B9089588B194E055
:10082000892788B9089588B198E0892788B90895FB
:1008300088B190E1892788B9089588B190E2892725
:1008400088B9089590E0FC013197E034F10510F08B
:1008500080E00895EA5DFE4F0C94734786B180E016
:10086000089586B1807290E095958795089586B138
:1008700083FB882780F9089586B1807190E0959573
:10088000879595958795089586B1807408955098B9
:10089000589A8DB18F708DB98EB1806F8EB90895D1
:1008A000803259F160F4813001F18031A1F48091FE
:1008B000FB02882381F01092FB0281E008958034CE
:1008C00061F0803841F48091E702882321F0109292
:1008D000E70281E0089580E008958091EC0288238A
:1008E000D1F31092EC0281E008958091F102882307
:1008F00091F31092F10281E008958091F60288232D
:1009000051F31092F60281E00895803259F160F4BB
:10091000813001F18031A1F48091FC02882381F0C3
:100920001092FC0281E00895803461F0803841F437
:100930008091E802882321F01092E80281E0089576
:1009400080E008958091ED028823D1F31092ED02AA
:1009500081E008958091F202882391F31092F202CF
:1009600081E008958091F702882351F31092F702F5
:1009700081E00895803259F160F4813001F18031D5
:10098000A1F48091FD02882381F01092FD0281E0A4
:100990000895803461F0803841F48091E902882321
:1009A00021F01092E90281E0089580E0089580919D
:1009B000EE028823D1F31092EE0281E00895809137
:1009C000F302882391F31092F30281E0089580915D
:1009D000F802882351F31092F80281E00895909173
:1009E0007C00987F90937C0020917C00982F9770DA
:1009F000922B90937C00882359F0815020E830E0BE
:100A000002C0359527958A95E2F7209522B9089579
:100A100082B18C6F82B90895CF92DF92EF92FF92EC
:100A2000CF93DF93CDB7DEB72E970FB6F894DEBF26
:100A30000FBECDBF8EE0E6E6F2E0DE01119601903A
:100A40000D928A95E1F789819A819C01220F331FCB
:100A5000220F331F220F331F281B390B40E050E0B9
:100A6000C12CB4ECDB2EB9E0EB2EF12CC701B601A2
:100A70000E940246215031092F3F310509F008F448
:100A80009BC08B819C819C01220F331F220F331F3F
:100A9000220F331F281B390B40E050E0C701B6017D
:100AA0000E940246215031092F3F310509F008F418
:100AB0008AC08D819E819C01220F331F220F331F1C
:100AC000220F331F281B390B40E050E0C701B6014D
:100AD0000E940246215031092F3F310509F008F4E8
:100AE00074C08F8198859C01220F331F220F331F02
:100AF000220F331F281B390B40E050E0C701B6011D
:100B00000E940246215031092F3F310509F008F4B7
:100B10005EC089859A859C01220F331F220F331FE7
:100B2000220F331F281B390B40E050E0C701B601EC
:100B30000E940246215031092F3F310509F008F487
:100B400048C08B859C859C01220F331F220F331FC9
:100B5000220F331F281B390B40E050E0C701B601BC
:100B60000E940246215031092F3F3105A1F198F131
:100B70008D859E859C01220F331F220F331F220F6C
:100B8000331F281B390B40E050E0C701B6010E941B
:100B90000246215031092F3F3105F9F0F0F02E9631
:100BA0000FB6F894DEBF0FBECDBFDF91CF91FF909F
:100BB000EF90DF90CF90089580E02093B3008F5F97
:100BC0008093B100ECCF81E0F8CF82E0F6CF83E0F4
:100BD000F4CF84E0F2CF85E0F0CF86E0EECFEAE715
:100BE000F0E0808180648083089580917A0082950E
:100BF0008170089587B3869581700895B99B089593
:100C000087B3876087BB1092B2009091F003809108
:100C10007C00887F80937C0020917C00892F8770E6
:100C2000822B80937C00992309F420C12FEF290F98
:100C300080E890E002C0959587952A95E2F7809527
:100C400082B920E42A95F1F780917A00806480933C
:100C50007A0080917A0084FFFCCF80917A008061D5
:100C600080937A008091780090917900E091F00370
:100C7000F0E0EE0FFF1FEF50FC4F91838083E09177
:100C8000F0032091010330E1E39FF0011124E20F12
:100C9000F11DEE0FFF1FE05FFC4F91838083E09119
:100CA000F00380E2E89FF0011124E05FFC4F8081B7
:100CB0009181E091F00320E2E29FF0011124E05FD6
:100CC000FC4F22813381820F931FE091F00330E2C9
:100CD000E39FF0011124E05FFC4F24813581820FF6
:100CE000931FE091F00320E2E29FF0011124E05F06
:100CF000FC4F26813781820F931FE091F00330E291
:100D0000E39FF0011124E05FFC4F20853185820FC5
:100D1000931FE091F00320E2E29FF0011124E05FD5
:100D2000FC4F22853385820F931FE091F00330E260
:100D3000E39FF0011124E05FFC4F24853585820F8D
:100D4000931FE091F00320E2E29FF0011124E05FA5
:100D5000FC4F26853785820F931FE091F00330E228
:100D6000E39FF0011124E05FFC4F20893189820F5D
:100D7000931FE091F00320E2E29FF0011124E05F75
:100D8000FC4F22893389820F931FE091F00330E2F8
:100D9000E39FF0011124E05FFC4F24893589820F25
:100DA000931FE091F00320E2E29FF0011124E05F45
:100DB000FC4F26893789820F931FE091F00330E2C0
:100DC000E39FF0011124E05FFC4F208D318D820FF5
:100DD000931FE091F00320E2E29FF0011124E05F15
:100DE000FC4F228D338D820F931FE091F00330E290
:100DF000E39FF0011124E05FFC4F248D358D820FBD
:100E0000931FE091F00320E2E29FF0011124E05FE4
:100E1000FC4F268D378D820F931F929582958F7090
:100E200089279F708927E091F003F0E0EE0FFF1F04
:100E3000EE5FFC4F918380832091F0032630D1F048
:100E40002091F003211107C0209100032130E1F02F
:100E50008E3A914008F18091F00390E0019667E0AE
:100E600070E00E94EE458093F003089582B18C6F8C
:100E700082B9E7CE2091010330E02F5F3F4F2F7002
:100E8000332720930103DCCF863D914020F30E945D
:100E9000D30A10920003DFCF4EE150E06EE170E024
:100EA00085E00E94E00A81E080930003D4CFCF92D6
:100EB000DF92EF92FF92CF93DF93CDB7DEB72E97FD
:100EC0000FB6F894DEBF0FBECDBF87E880937A00DF
:100ED00010927B0010927C0010927E0010927D0098
:100EE0008CEF81B982B986E692E09093F203809309
:100EF000F103909303038093020390931103809373
:100F0000100390931303809312039093150380931F
:100F100014039093170380931603909319038093FF
:100F2000180390931B0380931A0390931D038093DF
:100F30001C0390931F0380931E03909321038093BF
:100F4000200390932303809322039093250380939F
:100F5000240390932703809326039093290380937F
:100F6000280390932B0380932A0390932D0380935F
:100F70002C0390932F0380932E039093F40380937C
:100F8000F3039093050380930403909331038093BC
:100F9000300390933303809332039093350380930F
:100FA00034039093370380933603909339038093EF
:100FB000380390933B0380933A0390933D038093CF
:100FC0003C0390933F0380933E03909341038093AF
:100FD000400390934303809342039093450380938F
:100FE000440390934703809346039093490380936F
:100FF000480390934B0380934A0390934D0380934F
:101000004C0390934F0380934E039093F603809389
:10101000F503909307038093060390935103809305
:1010200050039093530380935203909355038093FE
:1010300054039093570380935603909359038093DE
:10104000580390935B0380935A0390935D038093BE
:101050005C0390935F0380935E039093610380939E
:10106000600390936303809362039093650380937E
:10107000640390936703809366039093690380935E
:10108000680390936B0380936A0390936D0380933E
:101090006C0390936F0380936E039093F803809397
:1010A000F70390930903809308039093710380934F
:1010B00070039093730380937203909375038093EE
:1010C00074039093770380937603909379038093CE
:1010D000780390937B0380937A0390937D038093AE
:1010E0007C0390937F0380937E039093810380938E
:1010F000800390938303809382039093850380936E
:10110000840390938703809386039093890380934D
:10111000880390938B0380938A0390938D0380932D
:101120008C0390938F0380938E039093FA038093A4
:10113000F90390930B0380930A0390939103809398
:1011400090039093930380939203909395038093DD
:1011500094039093970380939603909399038093BD
:10116000980390939B0380939A0390939D0380939D
:101170009C0390939F0380939E039093A10380937D
:10118000A0039093A3038093A2039093A50380935D
:10119000A4039093A7038093A6039093A90380933D
:1011A000A8039093AB038093AA039093AD0380931D
:1011B000AC039093AF038093AE039093FC038093B2
:1011C000FB0390930D0380930C039093B1038093E2
:1011D000B0039093B3038093B2039093B5038093CD
:1011E000B4039093B7038093B6039093B9038093AD
:1011F000B8039093BB038093BA039093BD0380938D
:10120000BC039093BF038093BE039093C10380936C
:10121000C0039093C3038093C2039093C50380934C
:10122000C4039093C7038093C6039093C90380932C
:10123000C8039093CB038093CA039093CD0380930C
:10124000CC039093CF038093CE039093FE038093BF
:10125000FD0390930F0380930E039093D10380932B
:10126000D0039093D3038093D2039093D5038093BC
:10127000D4039093D7038093D6039093D90380939C
:10128000D8039093DB038093DA039093DD0380937C
:10129000DC039093DF038093DE039093E10380935C
:1012A000E0039093E3038093E2039093E50380933C
:1012B000E4039093E7038093E6039093E90380931C
:1012C000E8039093EB038093EA039093ED038093FC
:1012D000EC039093EF038093EE031092F0031092CF
:1012E00001031092000382E08093B0001092B200DC
:1012F0001092700087E087BB8EE0E6E6F2E0DE0148
:10130000119601900D928A95E1F789819A819C014D
:10131000220F331F220F331F220F331F281B390BBD
:1013200040E050E0C12C64ECD62E69E0E62EF12CB2
:10133000C701B6010E940246215031092F3F3105F5
:1013400009F008F49BC08B819C819C01220F331F04
:10135000220F331F220F331F281B390B40E050E0B0
:10136000C701B6010E940246215031092F3F3105C5
:1013700009F008F48AC08D819E819C01220F331FE1
:10138000220F331F220F331F281B390B40E050E080
:10139000C701B6010E940246215031092F3F310595
:1013A00009F008F474C08F8198859C01220F331FC7
:1013B000220F331F220F331F281B390B40E050E050
:1013C000C701B6010E940246215031092F3F310565
:1013D00009F008F464C089859A859C01220F331FA7
:1013E000220F331F220F331F281B390B40E050E020
:1013F000C701B6010E940246215031092F3F310535
:1014000009F008F44AC08B859C859C01220F331F8C
:10141000220F331F220F331F281B390B40E050E0EF
:10142000C701B6010E940246215031092F3F310504
:1014300091F188F18D859E859C01220F331F220F2B
:10144000331F220F331F281B390B40E050E0C70128
:10145000B6010E940246215031092F3F3105C9F0E3
:10146000C0F02E960FB6F894DEBF0FBECDBFDF9151
:10147000CF91FF90EF90DF90CF90089580E0209380
:10148000B3008F5F8093B100ECCF81E0F8CF82E0B2
:10149000F6CF86E0F4CF85E0F2CF84E0F0CF83E0B2
:1014A000EECFE82FF0E0EE0FFF1FEF50FC4F8081F2
:1014B00091810895E82FF0E0EE0FFF1FEE5FFC4FE3
:1014C000808191810895C19B11C0C19A10929500AD
:1014D000109294008091CF02811109C0809106047E
:1014E000813081F08091FF03813061F00895809117
:1014F0000604813019F18091FF038130F9F01092D8
:10150000CF02089581E08093CF02809100049091F2
:10151000010401979093CE028093CD0220910204A2
:10152000309103043093CC022093CB02892BF1F647
:10153000809180008F738093800008958091CD0208
:101540009091CE02009741F001979093CE02809344
:10155000CD02892B59F6ECCF8091CB029091CC0231
:10156000009731F001979093CC028093CB020895BD
:10157000809180008F7B80938000809180008068C4
:101580008093800080910004909101049093CE029A
:101590008093CD0280910204909103049093CC0239
:1015A0008093CB0208958091FF03813009F0089564
:1015B000809180008F73809380001092FF030895C4
:1015C0009091FF03992359F19130A9F1109287006E
:1015D00090E0FC01E95FFB4F208120938600109290
:1015E00089002081269520938800709301046093E0
:1015F00000045093030440930204909305048093E5
:101600000404809180008F7B809380008091800013
:1016100080688093800081E08093FF03089590911B
:101620000604913099F6909180009F73909380000A
:1016300010920604CBCF909180009F73909380000E
:101640001092FF03C3CF259A2D9810926F009FE24E
:1016500096BB1092850010928400E0E8F0E01082C2
:1016600080818E7F8083808182608083E1E8F0E0EA
:101670001082808188608083808180618083109265
:101680008900109288008081887F808380818560B6
:1016900080831092710098BB109295001092940074
:1016A000E0E9F0E0108280818E7F808380818D7FF1
:1016B0008083E1E9F0E0108280818860808380810E
:1016C0008F7E808398E1909399008AE680939800BA
:1016D0008081887F80838081846080838DE1809396
:1016E00007048AE1809308049093090486E18093BB
:1016F0000A0484E180930B0482E180930C0480E16E
:1017000080930D04109206041092FF0381E090E094
:101710009093010480930004909303048093020447
:10172000109205041092040408959091FF03911102
:101730002CC090910604911128C01092870090E06F
:10174000FC01E95FFB4F2081209386001092890005
:1017500020812695209388009093050480930404AB
:1017600070930104609300045093030440930204B7
:10177000809180008F7B80938000809180008068C2
:101780008093800081E08093060408959091FF0388
:10179000911104C090910604913009F008951092BF
:1017A000870090E0FC01E95FFB4F208120938600D9
:1017B000109289002081269520938800909305043B
:1017C0008093040408952091FF03211104C0209107
:1017D0000604213009F008959093010480930004D9
:1017E00008952091FF03211104C0209106042130A7
:1017F00009F0089590930304809302040895809162
:10180000FF03811104C080910604813009F008951E
:10181000809180008F738093800010920604089559
:101820008091060408958091FF030895D19B19C00B
:10183000D19A1092250110922401409114048091B4
:10184000D0029091D102413069F020910E04309184
:101850000F0482179307C9F001969093D1028093E9
:10186000D002089520911104309112048217930739
:1018700099F71092D1021092D002409310048091F7
:101880002101887F8093210108951092D102109246
:10189000D00281E0809313040895109273008FE2C8
:1018A0008ABB1092250110922401E0E2F1E010823F
:1018B00080818E7F808380818D7F8083E1E2F1E073
:1018C000108280818860808380818F7E808388E120
:1018D000809329018AE6809328018081887F808314
:1018E00010921404109212041092110410920F041A
:1018F00010920E0410921004109213040895109286
:1019000014049C013695279536952795ABE7B4E1ED
:101910000E94CD459695879590930F0480930E0471
:101920001092130410922501109224018FE28ABBB9
:10193000E1E2F1E08081887F808380818460808320
:10194000089521E0209314049C013695279536953F
:101950002795ABE7B4E10E94CD4596958795909386
:101960001204809311041092100410922501109219
:1019700024018FE28ABBE1E2F1E08081887F8083ED
:10198000808184608083089580911304813011F0F8
:1019900080E008951092130408958091100481301E
:1019A00011F080E00895109210040895E1E2F1E052
:1019B0008081887F8083D19A109225011092240122
:1019C00010921304109210040895109272008FE286
:1019D00089BB1092A5001092A400E0EAF0E010820A
:1019E00080818E7F808380818D7F8083E1EAF0E03B
:1019F000108280818860808380818F7E80838DE3E8
:101A00008093A90088E08093A8008081887F8083EC
:101A10008081826080830895C99B07C0C99A109213
:101A2000A5001092A40081E0089580E00895CF926F
:101A3000DF92EF92FF920F931F93CF93DF931F924A
:101A40001F92CDB7DEB7CE0101960E944719E5E09F
:101A5000F5E0C980DA80F12C61E070E0B5E0EB2EB2
:101A60001DC09C012A5E3B4FD901EC929C01295E6E
:101A70003B4FD901EC929A01220F331F2A563B4F5C
:101A80008A5E9B4FD9018D939C93F3947096B2E03C
:101A9000CB0ED11C87E0E530F807C9F1808188239F
:101AA000A9F3D6012D913C91CF010797DC018D91CF
:101AB0009C91280F391F4F2D50E0CA01880F991FA4
:101AC000880F991F8C01085E1B4FD8012C938C0145
:101AD000075E1B4FD8013C939F0121503109D9016A
:101AE0002C91222309F4BDCF2F70DB0102C0AA0F75
:101AF000BB1F2A95E2F79D018C010A5E1B4FD8019E
:101B00002C938C01095E1B4FD8012C93B4CFFF207E
:101B100061F006E914E024E030E04CE150E066EDCD
:101B200074E0809115040E94E6400F900F90DF91C1
:101B3000CF911F910F91FF90EF90DF90CF9008957C
:101B400090E1899FF0011124EA50FB4F66870895C8
:101B500090E1899FF0011124EA50FB4F868508959A
:101B600090E1899FF0011124EA50FB4F7187608753
:101B7000089590E1899FF0011124EA50FB4F808580
:101B80009185089590E1899FF0011124EA50FB4F5F
:101B90008785089590E1899FF0011124EA50FB4F59
:101BA0008285089590E1899FF0011124EA50FB4F4E
:101BB00084850895C99B15C0C99A1092A5001092FA
:101BC000A4000E94B93681110DC00E94B40F0E947A
:101BD00080180E9401310E94B936811106C00C9410
:101BE000170D08950E943636F0CF0E944036F7CF89
:101BF0002F923F924F925F926F927F928F929F921D
:101C0000AF92BF92CF92DF92EF92FF920F931F930A
:101C1000CF93DF9300D0CDB7DEB7782E19820E9424
:101C2000B33E882309F433C12FEF89E698E12150B0
:101C300080409040E1F700C000002981222331F16B
:101C4000E6EFF4E065E075E02150A0E12A9F900105
:101C500011242A5F3A4F45E01182108213821282CA
:101C6000158214821782168211861086DB011C925F
:101C7000CB010197DC014C931386128615861486DE
:101C80007096605F7F4FE217F30731F766ED74E0FF
:101C9000CE0101960E94083F109215048981882385
:101CA00009F466C0312C1CE2A12EBB24B394CC24D1
:101CB000CA9403E0D02EE12C82E0F82E55245394F0
:101CC00095E0692E22E0422E09C081159C4009F45E
:101CD000A2C033948981381608F048C0E32DF0E0A3
:101CE000EA52FB4F2080822D0E940F3D8C309105DF
:101CF00021F08C32B1E09B0741F7822D0E94ED3339
:101D0000E0E12E9E4001112484010A501B4FD801AE
:101D10001196BC92AE921396DC92CE9212971596C3
:101D20001C921E9214971796FC92EE921697822D93
:101D30000E944A35F80191878087A4014E5F5A4F6F
:101D4000B40160507B4F822D0E947132D8011F96E2
:101D50005C921F971E966C92809115048F5F809302
:101D6000150433948981381608F4B8CF809115048E
:101D7000781609F489C044E650E06AE070E084E037
:101D80000E94E00A109272008FE289BB1092A500B7
:101D90001092A4001092A0008091A0008E7F8093EA
:101DA000A0008091A0008D7F8093A0001092A100E0
:101DB0008091A10088608093A1008091A1008F7E16
:101DC0008093A1008DE38093A90088E08093A80010
:101DD0008091A100887F8093A1008091A100826002
:101DE0008093A1000E944A0F89810F900F900F905D
:101DF000DF91CF911F910F91FF90EF90DF90CF90E7
:101E0000BF90AF909F908F907F906F905F904F901A
:101E10003F902F900895822D0E94ED33E0E12E9E99
:101E2000B00111248B010A501B4FE4EBF0E0D80104
:101E30001196FC93EE931396DC92CE921297159620
:101E40001C921E9214971796FC92EE921697822D72
:101E50006A837B830E944A35D80119969C938E939E
:101E600018976A817B81AB014E5F5A4F60507B4F60
:101E7000822D0E947132F801478666868091150492
:101E80008F5F8093150425CF0E94D30A7BCF0E94D9
:101E90007D3ECACE1092720C1092B40B8FEF8093DD
:101EA000B40C8093B3098093710C1092B30C089515
:101EB000CF93C82F64EB79E00E943A18811102C0D9
:101EC000C093B309CF9108951092720C1092F40B45
:101ED0001092F30B1092B2091092B1091092B20C49
:101EE0001092B10C83E08093540D1092710C80918C
:101EF000C3098093B0091092B40CE5E0F5E080E0EE
:101F000090E006C07096029627E0E530F20709F1EE
:101F100020812130B9F7DF0117972D913C91DC0129
:101F2000AD58B34F2D933C93DC01AA5EB24F1D9286
:101F30001C92DC01AD5CB34F1D921C92DC01AA50D7
:101F4000B94F1D921C927096029627E0E530F20779
:101F5000F9F681E08093B30C089581E08093B40B8F
:101F600008958091B30C08952F923F924F925F9203
:101F70006F927F928F929F92AF92BF92CF92DF9299
:101F8000EF92FF920F931F93CF93DF93CDB7DEB7FE
:101F9000A3970FB6F894DEBF0FBECDBF8091B30CF0
:101FA000882309F49AC08091F30B9091F40B40912F
:101FB000B1095091B2098417950708F0A7C08C01A8
:101FC0000F5F1F4F1A8709871093F40B0093F30BD1
:101FD0001091540D1D87133009F47FC08091B10911
:101FE0009091B2098C0120E030E0098B1A8B2B8B89
:101FF0003C8B8C01015011091E8B0D8B06ED1CE0F2
:102000007EEFA72E74E0B72EE4E3CE2EE7E0DE2EBF
:10201000F6E1EF2EFDE0FF2EA6EF4A2EA6E05A2EA7
:10202000B5EB6B2EBBE07B2E812C912C80E090E0F9
:10203000212C312C9BA38AA3C201230194014801C6
:10204000A60167017A0189013C0121C0BFEF2B1A6B
:102050003B0AEAA1FBA17096FBA3EAA3F2E08F0E74
:10206000911C0E5F1F4F20E1A20EB11C32E0E30E67
:10207000F11C42E0C40ED11C52E0650E711C62E0FE
:10208000460E511C8AA19BA18115924031F12AA1D3
:102090003BA12A503B4F3A832983D9011F968C914B
:1020A0008130A1F6F801ED5CF34F80819181892B9D
:1020B00009F06FC0F40180819181D5018D939C93CB
:1020C000F101EC54F64F80A1A981BA811E968C9340
:1020D000BDCF1092B30C1092B40BA3960FB6F89428
:1020E000DEBF0FBECDBFDF91CF911F910F91FF904B
:1020F000EF90DF90CF90BF90AF909F908F907F90A8
:102100006F905F904F903F902F9008951092F40B36
:102110001092F30BE5E0F5E080E090E006C07096E9
:10212000029607E0E530F007E1F020812130B9F7B1
:10213000DF0117972D913C91DC01AA52B34F2D93EB
:102140003C93DC01AA50B94F2D913C91DC01AA5E71
:10215000B24F2D933C937096029607E0E530F0075E
:1021600021F78091540D882309F4C7C0813009F408
:1021700092C1823009F45BC1833009F42CC25E87BE
:102180004D8780E090E0DA018A179B0708F0A5CF21
:1021900016CFBD85B1114AC0F6010190F081E02D46
:1021A000F88BEF87F701A081B1812F853889A21BB9
:1021B000B30B29853A850E94DC4529893A894B89E8
:1021C0005C890E9424468F859889820F931FD301D2
:1021D0008D939C93D901B595A795EF85F889AE0F9E
:1021E000BF1F29853A850E94DC459B01AC01A0E90F
:1021F000B0E00E94E3452FE030E040E050E00E9474
:10220000244669E055954795379527956A95D1F706
:10221000F801EE58F64F31832083D4018D919C91C3
:10222000820F931FF501918380834ACFB13009F467
:1022300048C029853A854D895E892417350709F4F8
:1022400021C1F101EB54F34F808181113AC0F601B5
:102250000190F081E02DF88BEF87DF01B195A1951A
:10226000B10929853A850E94DC4529893A894B893B
:102270005C890E9424468F859889820F931FD30121
:102280008D939C93D901B595A795EF85F889AE0FED
:10229000BF1F29853A850E94DC459B01AC01A0E95E
:1022A000B0E00E94E3452FE030E040E050E00E94C3
:1022B000244699E055954795379527959A95D1F7F6
:1022C000ACCFF201A081B18129853A850E94DC451D
:1022D00029893A894B895C890E942446D4018D91D1
:1022E0009C91820F931FF50191838083D7018D917B
:1022F0009C91F30191838083E3CE81E08093540D20
:102300002091140D3091150D0091D40C1091D50C25
:102310001A830983C801880F991F8901081B190BAB
:102320001E870D871093B2090093B10909811A81A4
:102330002017310709F4E5C0A801B3E32B2EBCE058
:102340003B2E12E7612E19E0712E04E3802E07E088
:10235000902E85EB482E8BE0582E05EB1CE065E0B7
:1023600075E0C901841B950B9C0140E050E0298772
:102370003A874B875C8795E0C92ED12CE12CF12C54
:10238000788B6F8719C0EF85F8897096F88BEF8787
:10239000F2E02F0E311C22E0620E711C32E0830E3F
:1023A000911C42E0440E511C0F5F1F4F6F857889CE
:1023B0006550774009F44BC0AF85B8898C91813066
:1023C00011F7F8018081813009F446C0F401A08141
:1023D000B181F101A080B180F30180819181A81ABF
:1023E000B90A29813A810E94DC459B01AC01660F44
:1023F000771F881F991F620F731F841F951F660F19
:10240000771F881F991F660F771F881F991FA701C5
:1024100096010E942446BB2757FDBA95A52F942FFD
:10242000832FA81AB90AD201AD92BC92ACCF809189
:10243000B10C9091B20C009709F4E1C023E0209315
:10244000540D9093B2098093B1099E878D8780E0E7
:1024500090E0AD85BE8598CEF101A081B181F301F8
:1024600080819181A81BB90B2D853E850E94DC459A
:1024700029853A854B855C850E942446D2012D939F
:102480003C9381CFF801ED58F34F80819181D501C4
:102490008D939C9315CE82E08093540D7091D40C53
:1024A0006091D50C7093B1096093B209A5EBBBE0C4
:1024B000E5E0F5E080E090E08D0109C070960296BD
:1024C0000E5F1F4FB7E0E530FB0709F47DC02081A8
:1024D0002130A1F79C012D5C334FD9012D913C9106
:1024E000D8014D915C91241B350BAC014E58564FD1
:1024F000DA014D915C91241B350BD8012D933C934F
:10250000DDCFB5EBCB2EBBE0DB2E15EBE12E1CE0D7
:10251000F12E85E095E000E010E045E0442E512CDE
:10252000612C712C49011C0111C0F0E12F0E311CEE
:1025300022E0C20ED11C0E5F1F4F3FEFE31AF30AD9
:1025400045E0241647E0340609F481CFD1018C918F
:10255000813059F7F70180818130C9F1F801EC5CD5
:10256000F84FA081B181F801ED5CF34FA080B180FC
:10257000F801EE58F64F80819181A81AB90A9401AA
:102580000E94DC459B01AC01660F771F881F991FD5
:10259000620F731F841F951F660F771F881F991F77
:1025A000660F771F881F991FA30192010E9424467E
:1025B000BB2757FDBA95A52F942F832FA81AB90AC8
:1025C000F601B182A082B1CF7D876E8740CFD60160
:1025D0001D921C92AACF1092540DA6E1BDE0E5E039
:1025E000F5E006C07096129607E0E530F00749F076
:1025F00080818130B9F711961C921E92F3CF109210
:10260000540D8091720C813009F463CD8091710C6E
:102610008F5F8093710CA091C809A81708F0C8C0FB
:1026200080E092E0E2E7F7E0A4EBB9E001900D92E0
:102630000197E1F78091B40C9091B309981721F0BC
:102640009091C3099093B00991E09093710C80939D
:10265000B309A091C809B1E0AB1709F484C26B2F8C
:1026600070E08B010150110900241695079507941D
:10267000169507950794102F002DA8014C54564F1E
:10268000FA01E258FF4F80812091CA09289FC001BA
:10269000112496958795929582958F7089279F70C2
:1026A00089279093B20C8093B10CFA01E158FF4F47
:1026B0003081329F900111243695279532952295CD
:1026C0002F7023273F7023272115310511F421E0B6
:1026D00030E04091720C413009F45EC2892B09F45C
:1026E000C4C1AB1709F456C3E5EB4E2EECE05E2EE9
:1026F000A3E7BCE07B010024F694E7940794F694EA
:10270000E7940794FE2CE02CA7014C50564F7A0119
:1027100080EC582F56034001579F900C1124E5E0A0
:10272000F5E080E090E059013D01A70168010EC08D
:102730007096BFEF4B1A5B0A029602E0600E711CA6
:102740004E5F5F4F17E0E530F107A1F120812130A6
:1027500079F79C012E58364FD9011D921C929A018F
:10276000280D391D2C0D3D1DD9012D913C9136FFB1
:1027700018C0D3012D913C91B901E12CF12C8C01B1
:102780000A52134FD8016D937C93D3012D933C9340
:102790009C012D5C334FD901ED92FC92D2011C9229
:1027A000C7CFD3016D917C917901E61AF70AE7CF83
:1027B000B82F52CF95013093150D2093140D8091B1
:1027C000CC0990E0AC01440F551F4217530708F4A1
:1027D000E0C0C9010197969587959093D50C809399
:1027E000D40C009709F0D9C01092150D1092140D59
:1027F0001E861D8619821A821B821C821D821E82E1
:102800001F82188661E06F87412C512C198A1D8A1E
:102810001F8A188E198E71E07A8F1B8E1C8E1D8E6A
:102820001E8E1F8E18A219A274E3872E77E0972EB2
:10283000E5EB6E2EECE07E2E05E015E0212C312C30
:102840001BA30AA315C00AA11BA1005F1F4F1BA356
:102850000AA312E0810E911C22E0220E311C3FEFF0
:10286000631A730A4AA15BA14550574009F484C01A
:10287000AAA1BBA18C91813031F7F101EA5EF24F40
:1028800031812081932F990F990BA980BA80CB8039
:10289000DC80ED80FE800F811885492F592F692F2C
:1028A000792F892F0E947A4659016A017B018C0198
:1028B000F101ED5CF34FA081B18120E03AE00E948C
:1028C000DC452CE030E040E050E00E942446DA0194
:1028D000C901550F220B322FA90129873A874B874F
:1028E0005C87F3012081211122C09C01AD01698523
:1028F000762F862F962F0E949B47AA8CBB8CCC8C60
:10290000DD8CEE8CFF8C08A119A10E943D46D401FC
:102910002C9311963C93822F932F8115F4E09F07FF
:102920000CF1EFEFF3E0D401ED93FC938CCF9C011D
:10293000AD016985762F862F962F0E949B47AF8425
:10294000B42CC52CD988ED88FF88088D198D0E947C
:102950003D46F40120833183822F932F8115F4E0CB
:102960009F07FCF681309C4F0CF06DCFE1E0FCEF4F
:10297000D401ED93FC9367CF8D859E859093B2092A
:102980008093B1098091F30B9091F40BAD85BE85D6
:10299000FBCB9093D50C8093D40C4901A12CB12C86
:1029A000880C991CAA1CBB1CC12CD12C76019E87BB
:1029B0008D87A0E0B0E0880F991FAA1FBB1F8C0174
:1029C0009D0140E050E0BA0189831A832B833C8348
:1029D0004D835E836F8378879401A501B601C7019B
:1029E0005801CB80DC80E12CF12C00E010E00E944B
:1029F0009B4701E00E947947722E832E942EB52FBB
:102A0000662E372EF82FE92F00E00E9492472F877D
:102A1000432E542E598B6D8B7F8B888F998F7A8E96
:102A20008B8E9C8EBD8F6E8E3F8EF8A3E9A3452DB5
:102A3000A0E00E94A44749F411E01F87412C512CCB
:102A4000198A1D8A1F8A188E198E272D382D492D17
:102A50005B2F662D732D8F2F9E2FA0E00E94A44721
:102A600009F0E2CE21E02A8FD8CEAB1709F42AC1B3
:102A7000A5EBEA2EACE0FA2EB3E74B2EBCE05B2EC2
:102A8000DB010024B695A7950794B695A795079402
:102A9000BA2FA02DAC50B64F80EC482F4603400112
:102AA000479F900C1124E5E0F5E080E090E077246A
:102AB00073945901A7011D0168010FC070964F5F03
:102AC0005F4F0296B2E04B0E511C02E0200E311C0B
:102AD00017E0E530F10709F46DCE2081213071F760
:102AE0009C012E58364FD9011D921C929101280D40
:102AF000391D2C0D3D1DD9012D913C9136FF2CC067
:102B0000D2012D913C91B901E12CF12C8C010A529A
:102B1000134FD8016D937C93D2012D933C938C017C
:102B20000D5C134FD801ED92FC92D1010D911C91D7
:102B300016FD0FC06217730730F42017310718F421
:102B4000DA017C92BBCF2617370718F40217130758
:102B5000B8F3DA011C92B2CFD2016D917C91790168
:102B6000E61AF70AD3CF8091B40B813009F4A0C0E4
:102B70008091B00981508093B009882309F493C0F3
:102B80008091B3098093B40C811169C081E0809376
:102B9000720CB091710C63CD892B09F046C1AB1753
:102BA00009F4F5C145EB442E4CE0542EA3E7BCE0FC
:102BB0007B010024F694E7940794F694E794079435
:102BC000FE2CE02CA7014C50564F7A0180EC582F78
:102BD00056034001579F900C1124E5E0F5E080E09A
:102BE00090E059013D01A7010FC07096BFEF4B1A4D
:102BF0005B0A029622E0620E711C4E5F5F4F37E067
:102C0000E530F30709F4D6CD2081213071F79C011E
:102C10002E58364FD9011D921C929A01280D391D4C
:102C2000200F311FD9012D913C91D30136FF35C0C2
:102C30002D913C917901C12CD12CBC016A52734F6A
:102C4000DB01ED92FC92D3012D933C939C012D5C12
:102C5000334FD901CD92DC92D2011C92C6CF909114
:102C6000B30998132AC080E092E0E4EBF9E0A2E710
:102C7000B7E001900D920197E1F7809181078823D9
:102C800021F080918607811103C081E08093720C4E
:102C9000B091710CA091C809E2CCED90FC90690153
:102CA000CE18DF08CACF8091CD098093B40C6CCFC9
:102CB0008091CE098093B40C67CF62E777E00E94E1
:102CC0003A18DBCF45EB5CE0A3E7BCE00C54164FB1
:102CD000E5E0F5E080E090E0BB24B39469013A01BF
:102CE0004D010DC07096BFEF6B1A7B0A029622E071
:102CF000820E911C37E0E530F30709F449C04081AA
:102D0000413081F7AC014E58564FDA011D921C92AA
:102D1000A801480F591F405C5F4FDA014D915C914B
:102D200056FF2FC0D4014D915C91BA01E12CF12CDA
:102D30009C012A52334FD9016D937C93D4014D935A
:102D40005C939C012D5C334FD901ED92FC929C0168
:102D50002E54384FD901ED90FC90F6FC0FC064174B
:102D6000750730F44E155F0518F4D301BC92BACF45
:102D70004617570718F4E416F506B8F3D3011C926A
:102D8000B1CFD4016D917C917A01E61AF70AD0CFC8
:102D9000960111CD45EB5CE0A3E7BCE00C54164F67
:102DA000E5E0F5E080E090E04A0169015D010CC0DA
:102DB0007096BFEF8B1A9B0A029622E0A20EB11CFE
:102DC00037E0E530F30721F34081413089F7AC016A
:102DD0004E58564FDA011D921C92A801480F591FF8
:102DE000405C5F4FDA014D915C91D50156FF17C0F1
:102DF0004D915C91BA01E12CF12C9C012A52334F88
:102E0000D9016D937C93D5014D935C93AC014D5CDE
:102E1000534FDA01ED92FC92D4011C92C9CF6D910F
:102E20007C917A01E61AF70AE8CFAB1709F465C07E
:102E300085EB482E8CE0582EA3E7BCE07B010024F4
:102E4000F694E7940794F694E7940794FE2CE02C0C
:102E5000C7018C50964F7C0180EC482F46034001FF
:102E6000479F900C1124E5E0F5E080E090E05901E7
:102E70003D01A70178010FC07096BFEF4B1A5B0AA6
:102E8000029602E0600E711C4E5F5F4F17E0E53066
:102E9000F10709F48FCC2081213071F79C012E5865
:102EA000364FD9011D921C929A01280D391D2E0D05
:102EB0003F1DD9012D913C9136FF18C0D3012D91B2
:102EC0003C91B901C12CD12C8C010A52134FD8016D
:102ED0006D937C93D3012D933C939C012D5C334FD8
:102EE000D901CD92DC92D2011C92C6CFD3016D9153
:102EF0007C916901C61AD70AE7CFA3E7BCE045EB8E
:102F00005CE00C54164FE5E0F5E080E090E05D01F8
:102F10004A010DC070960296B2E0AB0EB11C4FEFA5
:102F2000841A940A57E0E530F50709F444CC40814F
:102F3000413081F7AC014E58564FDA011D921C9278
:102F4000A801480F591F405C5F4FDA014D915C9119
:102F5000D50156FF16C04D915C91BA01E12CF12CC0
:102F6000DC01AA52B34F6D937C93D5014D935C93D2
:102F7000AC014D5C534FDA01ED92FC92D4011C92EE
:102F8000C9CF6D917C917A01E61AF70AE9CFA3E7E0
:102F9000BCE045EB5CE00C54164FE5E0F5E080E06A
:102FA00090E05D014A010DC070960296B2E0AB0E52
:102FB000B11C4FEF841A940A57E0E530F50709F485
:102FC000FACB4081413081F7AC014E58564FDA01BF
:102FD0001D921C92A801480F591F405C5F4FDA01F7
:102FE0004D915C9156FF17C0D5014D915C91BA018E
:102FF000E12CF12CDC01AA52B34F6D937C93D501E7
:103000004D935C93AC014D5C534FDA01ED92FC9211
:10301000D4011C92C9CFD5016D917C917A01E61A39
:10302000F70AE8CFFC0120E030E090E08191980FB2
:103030002F5F3F4F211582E03807C1F781E09111E2
:1030400080E0089520E032E0FC01A9011192415096
:103050005040E1F70895FB0120E030E0DC01A20FD1
:10306000B31F4C9141932F5F3F4F211542E034072E
:10307000A9F70895EF92FF920F931F93CF93DF93D9
:10308000F62EE72E082F10E020E030E000511F4F11
:103090002F4F3F4F89E0000F111F221F331F8A95CA
:1030A000D1F7C62FD72F80E090E0DC01AC01BD0145
:1030B000400F511F621F731F6BBFFA014791499365
:1030C0000196A11DB11D811542E09407A105B1052E
:1030D00069F7EF2DFE2D20E080E090E03191230F85
:1030E0000196811532E09307C9F781E0211180E054
:1030F0008195DF91CF911F910F91FF90EF900895EF
:103100004F925F926F927F928F929F92AF92BF92F7
:10311000CF92DF92EF92FF921F93CF93DF93809134
:10312000970D813081F0DF91CF911F91FF90EF904B
:10313000DF90CF90BF90AF909F908F907F906F90D7
:103140005F904F9008951091550D113061F783E015
:103150000E94510A20919A0D30919B0D7C01E21A38
:10316000F30A84E00E94510A2091980D3091990D44
:10317000EC01C21BD30B88E3E8168FEFF8060CF4C2
:1031800079C089ECE816F10414F01093560DB701DC
:10319000882777FD8095982F0E94C3486B017C019A
:1031A00026E234EB47E15DE30E9473492B013C01C9
:1031B00029E33EE843EE5DE3C701B6010E9473498F
:1031C0004B015C01BE01882777FD8095982F0E94F6
:1031D000C3486B017C012DEC3CEC4CEC5DE30E94A0
:1031E00073490E9495487093680D6093670D7093C2
:1031F0006A0D6093690DC301B2010E9495489B015D
:103200002E51310930936E0D20936D0D625E7F4F0C
:103210007093700D60936F0DC301B20190580E94BE
:1032200095487093720D6093710DC501B4010E94B1
:1032300095487093740D6093730DC501B401905857
:103240000E9495487093760D6093750D2DEC3CECC3
:103250004CE45DE3C701B6010E94734990580E9497
:1032600095487093780D6093770D70937A0D609305
:10327000790D59CF82E08093560D89CFE82FF0E089
:10328000EE0FFF1FE95AF24F80819181089527E5E3
:103290003DE0FC0131832083089510929B0D109234
:1032A0009A0D1092990D1092980D1092550D109242
:1032B000970D1092560D80E4E7E5FDE0DF011D92C9
:1032C0008A95E9F708958091560D1092560D08954C
:1032D0001092560D08952F923F924F925F926F92E7
:1032E0007F928F929F92AF92BF92CF92DF92EF9296
:1032F000FF920F931F93CF93DF93CDB7DEB7E49781
:103300000FB6F894DEBF0FBECDBF10929B0D10928A
:103310009A0D1092990D1092980D82E390E00E9400
:103320007F0C7E0185E1E80EF11CFE013196FAA7C3
:10333000E9A71E01F9E22F0E311C812C912C5401BA
:103340002401350104C00E94160C0E94FE050E9453
:10335000C40C8823C1F383E00E94510A8C01F70159
:10336000819391937F0184E00E94510A6C01E9A549
:10337000FAA581939193FAA7E9A7B80180E090E0BC
:103380000E94C1489B01AC01C301B2010E94C54724
:103390002B013C01B60180E090E00E94C1489B01F6
:1033A000AC01C501B4010E94C5474B015C01E214A8
:1033B000F30469F60E94D60C20E030E040E251E4CC
:1033C000C301B2010E942D486B017C0120E030E076
:1033D00040E251E4C501B4010E942D4869A77AA7D3
:1033E0008BA79CA76D897E8980E090E00E94C148F0
:1033F000A70196010E94C4479B01AC010E9473493A
:1034000020E030E0A9010E94C5472B013C01698101
:103410007A8180E090E00E94C14829A53AA54BA599
:103420005CA50E94C4479B01AC010E94734920E047
:1034300030E0A9010E94C5474B015C016F89788D7E
:1034400080E090E00E94C148A70196010E94C44715
:103450009B01AC010E947349A30192010E94C547E0
:103460002B013C016B817C8180E090E00E94C1488F
:1034700029A53AA54BA55CA50E94C4479B01AC01B8
:103480000E9473499B01AC01C501B4010E94C5476C
:103490004B015C01698D7A8D80E090E00E94C1480B
:1034A000A70196010E94C4479B01AC010E94734989
:1034B0009B01AC01C301B2010E94C5472B013C0135
:1034C0006D817E8180E090E00E94C14829A53AA5E7
:1034D0004BA55CA50E94C4479B01AC010E947349A7
:1034E0009B01AC01C501B4010E94C5474B015C01C1
:1034F0006B8D7C8D80E090E00E94C148A701960111
:103500000E94C4479B01AC010E9473499B01AC011E
:10351000C301B2010E94C5472B013C016F81788530
:1035200080E090E00E94C14829A53AA54BA55CA582
:103530000E94C4479B01AC010E9473499B01AC01EE
:10354000C501B4010E94C5474B015C016D8D7E8DA4
:1035500080E090E00E94C148A70196010E94C44704
:103560009B01AC010E9473499B01AC01C301B201F4
:103570000E94C5472B013C0169857A8580E090E077
:103580000E94C14829A53AA54BA55CA50E94C44745
:103590009B01AC010E9473499B01AC01C501B401C0
:1035A0000E94C5474B015C016F8D78A180E090E0DF
:1035B0000E94C148A70196010E94C4479B01AC012B
:1035C0000E9473499B01AC01C301B2010E94C5472F
:1035D0002B013C016B857C8580E090E00E94C14816
:1035E00029A53AA54BA55CA50E94C4479B01AC0147
:1035F0000E9473499B01AC01C501B4010E94C547FB
:103600004B015C0169A17AA180E090E00E94C14871
:10361000A70196010E94C4479B01AC010E94734917
:103620009B01AC01C301B2010E94C5472B013C01C3
:103630006D857E8580E090E00E94C14829A53AA56D
:103640004BA55CA50E94C4479B01AC010E94734935
:103650009B01AC01C501B4010E94C5474B015C014F
:103660006BA17CA180E090E00E94C148A701960177
:103670000E94C4479B01AC010E9473499B01AC01AD
:10368000C301B2010E94C5472B013C016F857889B7
:1036900080E090E00E94C14829A53AA54BA55CA511
:1036A0000E94C4479B01AC010E9473499B01AC017D
:1036B000C501B4010E94C5474B015C016DA17EA10B
:1036C00080E090E00E94C148A70196010E94C44793
:1036D0009B01AC010E9473499B01AC01C301B20183
:1036E0000E94C5476DA77EA78FA798AB69897A8985
:1036F00080E090E00E94C14829A53AA54BA55CA5B1
:103700000E94C4479B01AC010E9473499B01AC011C
:10371000C501B4010E94C54769AB7AAB8BAB9CABCA
:103720006FA178A580E090E00E94C148A7019601B2
:103730000E94C4472B013C016B897C8980E090E0AA
:103740000E94C14829A53AA54BA55CA50E94C44783
:103750004B015C01A3019201C301B2010E947349B4
:103760002DA53EA54FA558A90E94C54720E030E0F1
:1037700040E251E40E942D480E94DA492B013C01AD
:10378000A5019401C501B4010E94734929A93AA970
:103790004BA95CA90E94C54720E030E040E251E41B
:1037A0000E942D480E94DA494B015C0120E030E084
:1037B00040EA51E4C301B2010E94294887FF0AC0D0
:1037C00020E030E040EA51E4C501B4010E942948FC
:1037D00087FD21C044E650E06AE070E084E00E948A
:1037E000E00A80E0E4960FB6F894DEBF0FBECDBFCE
:1037F000DF91CF911F910F91FF90EF90DF90CF90CD
:10380000BF90AF909F908F907F906F905F904F9000
:103810003F902F90089581E08093550DC701B60128
:103820000E94954870939B0D60939A0D69A57AA5A7
:103830008BA59CA50E9495487093990D6093980D57
:103840000E94D30A81E0CECF81E08093970D089546
:103850001092970D08958091970D08950F931F93DF
:10386000CF93DF93EC011091E002113091F108F455
:1038700042C0123081F01330C1F50E94B10F8111A6
:103880002CC01092A00D1092E00281E0DF91CF9148
:103890001F910F9108950E94B10F81111EC01091C8
:1038A000A00D80919F0D113009F454C0882309F4B4
:1038B0004AC08A810E94580F10929F0D0E94640F87
:1038C00082E08093E00280E0DF91CF911F910F9121
:1038D00008950E94B10F882321F11093E00280E047
:1038E000DF91CF911F910F91089580E0DF91CF91EB
:1038F0001F910F91089580919E0D882301F1898178
:103900000E94580F0E94640F80919E0D80939F0D1E
:1039100081E08093E00280E0DF91CF911F910F91D1
:1039200008950091A00D80919F0D013009F1811142
:10393000C0CF8B810E94580F10939F0DBFCF8881FD
:103940000E94580FDFCF8B810E94580F81E0809337
:103950009F0DB4CF811114C08D810E94580F109318
:103960009F0D0E94640F83E08093E00280E0B8CF57
:10397000811106C08D810E94580F00939F0DF1CFD9
:103980008C810E94580F10929F0DEBCF1F93CF9305
:10399000DF93EC011091DF02113029F1A0F1123018
:1039A00079F0133059F50E94B10F811120C01092A7
:1039B000A00D1092DF0281E0DF91CF911F91089559
:1039C0000E94B10F811113C080919F0D81115FC0C2
:1039D0008091A00D813009F447C08B810E94580F5F
:1039E0001093DF0233C00E94B10F882309F11093B6
:1039F000DF0280E0DF91CF911F91089580E0DF9199
:103A0000CF911F91089580919E0D882349F189815E
:103A10000E94580F0E94640F80919E0D80939F0D0D
:103A200081E08093DF0280E0DF91CF911F910895C4
:103A300080919F0D81111FC08091A00D8130A1F058
:103A40008B810E94580F82E08093DF0281E0809397
:103A50009F0D0E94640F80E0DF91CF911F91089528
:103A600088810E94580FD6CF8D810E94580F83E025
:103A70008093DF02EBCF8A810E94580F10929F0D36
:103A80000E94640F82E08093DF0280E0B3CF8A81DE
:103A90000E94580F10929F0D0E94640F1093DF0236
:103AA00080E0A8CF1F93CF93DF93EC011091DE024B
:103AB000113031F1A8F1123079F0133061F50E9424
:103AC000B10F811121C01092A00D1092DE0281E091
:103AD000DF91CF911F9108950E94B10F811114C001
:103AE00080919F0D813009F057C08091A00D8130E9
:103AF00009F45EC08A810E94580F1093DE0233C021
:103B00000E94B10F882309F11093DE0280E0DF915B
:103B1000CF911F91089580E0DF91CF911F9108957B
:103B200080919E0D882341F189810E94580F0E9447
:103B3000640F80919E0D80939F0D81E08093DE0243
:103B400080E0DF91CF911F91089580919F0D81308A
:103B5000B9F48091A00D813059F18A810E94580FEB
:103B600082E08093DE0210929F0D0E94640F80E03D
:103B7000DF91CF911F91089588810E94580FD7CF70
:103B80008B810E94580F10939F0D0E94640F82E05A
:103B90008093DE0280E0BBCF8B810E94580F81E0D2
:103BA00080939F0D0E94640F1093DE0280E0AFCFE0
:103BB0008C810E94580F83E08093DE02D4CF8091E5
:103BC0009F0D882319F010929F0D089581E0809336
:103BD0009F0D0895681B790B683F88EF780744F0C4
:103BE000693087E0780714F060517E40CB0108957A
:103BF000605F714FCB010895680F791F77FD08C092
:103C000061318EE0780714F060517E40CB01089559
:103C1000605F714FCB0108951092A00D10929E0D20
:103C200010929F0D10929D0D10929C0D089581E0B1
:103C30008093A00D089580939E0D089510929D0D80
:103C400010929C0D089580919C0D90919D0D08956A
:103C5000CF93DF93C091E002C13071F1D8F1C2304F
:103C600071F0C33099F50E94B10F811129C01092F3
:103C7000A00D1092E00281E0DF91CF9108950E94A3
:103C8000B10F81111DC0C091A00D80919F0DC13059
:103C900009F451C0882309F446C0809102020E94B1
:103CA000580F10929F0D0E94640F82E08093E002F3
:103CB00080E0DF91CF9108950E94B10F8823F9F041
:103CC000C093E00280E0DF91CF91089580E0DF9122
:103CD000CF91089580919E0D882301F1809101027A
:103CE0000E94580F0E94640F80919E0D80939F0D3B
:103CF00081E08093E00280E0DF91CF910895D09140
:103D0000A00D80919F0DD13029F18111C6CF8091F6
:103D100003020E94580FC0939F0DC5CF80910002EF
:103D20000E94580FDFCF809103020E94580F81E05C
:103D300080939F0DB8CF811116C0809105020E941B
:103D4000580FC0939F0D0E94640F83E08093E002A0
:103D500080E0B9CF811107C0809105020E94580F01
:103D6000D0939F0DF0CF809104020E94580F1092C3
:103D70009F0DE9CFCF93DF93C091E002C13071F185
:103D8000D8F1C23071F0C33099F50E94B10F8111A2
:103D900029C01092A00D1092E00281E0DF91CF9136
:103DA00008950E94B10F81111DC0C091A00D809196
:103DB0009F0DC13009F451C0882309F446C0809199
:103DC00008020E94580F10929F0D0E94640F82E01B
:103DD0008093E00280E0DF91CF9108950E94B10FBF
:103DE0008823F9F0C093E00280E0DF91CF9108953D
:103DF00080E0DF91CF91089580919E0D882301F19D
:103E0000809107020E94580F0E94640F80919E0DBE
:103E100080939F0D81E08093E00280E0DF91CF915D
:103E20000895D091A00D80919F0DD13029F181117D
:103E3000C6CF809109020E94580FC0939F0DC5CF35
:103E4000809106020E94580FDFCF809109020E94E4
:103E5000580F81E080939F0DB8CF811116C08091DB
:103E60000B020E94580FC0939F0D0E94640F83E0C5
:103E70008093E00280E0B9CF811107C080910B02EE
:103E80000E94580FD0939F0DF0CF80910A020E949C
:103E9000580F10929F0DE9CFCF93C091DF02C13030
:103EA00021F178F1C23069F0C33041F50E94B10FC1
:103EB00081111FC01092A00D1092DF0281E0CF91FE
:103EC00008950E94B10F811114C080919F0D81113E
:103ED0005DC08091A00D813009F443C080910F0234
:103EE0000E94580FC093DF022FC00E94B10F882399
:103EF000E1F0C093DF0280E0CF91089580E0CF91A0
:103F0000089580919E0D882339F180910D020E94C1
:103F1000580F0E94640F80919E0D80939F0D81E049
:103F20008093DF0280E0CF91089580919F0D8111F1
:103F300020C08091A00D8130A1F080910F020E94DD
:103F4000580F82E08093DF0281E080939F0D0E94F2
:103F5000640F80E0CF91089580910C020E94580F69
:103F6000D8CF809111020E94580F83E08093DF0226
:103F7000EBCF80910E020E94580F10929F0D0E946D
:103F8000640F82E08093DF0280E0B6CF80910E0262
:103F90000E94580F10929F0D0E94640FC093DF0281
:103FA00080E0AACFCF93C091DE02C13029F180F129
:103FB000C23069F0C33049F50E94B10F811120C0B1
:103FC0001092A00D1092DE0281E0CF9108950E9420
:103FD000B10F811115C080919F0D813009F054C03F
:103FE0008091A00D813009F45CC0809114020E9480
:103FF000580FC093DE022FC00E94B10F8823E1F05A
:10400000C093DE0280E0CF91089580E0CF910895C3
:1040100080919E0D882331F1809113020E94580FE8
:104020000E94640F80919E0D80939F0D81E080938C
:10403000DE0280E0CF91089580919F0D8130B9F428
:104040008091A00D813069F1809114020E94580F77
:1040500082E08093DE0210929F0D0E94640F80E048
:10406000CF910895809112020E94580FD9CF80916C
:1040700015020E94580FC0939F0D0E94640F82E0AA
:104080008093DE0280E0BFCF809115020E94580F1E
:1040900081E080939F0D0E94640FC093DE0280E058
:1040A000B2CF809116020E94580F83E08093DE0207
:1040B000D2CFCF93C091DF02C13021F178F1C2306D
:1040C00069F0C33041F50E94B10F81111FC01092F9
:1040D000A00D1092DF0281E0CF9108950E94B10FF0
:1040E000811114C080919F0D81115DC08091A00D40
:1040F000813009F443C080911B020E94580FC09385
:10410000DF022FC00E94B10F8823E1F0C093DF02CD
:1041100080E0CF91089580E0CF91089580919E0D29
:10412000882339F1809119020E94580F0E94640F70
:1041300080919E0D80939F0D81E08093DF0280E04F
:10414000CF91089580919F0D811120C08091A00D85
:104150008130A1F080911B020E94580F82E0809371
:10416000DF0281E080939F0D0E94640F80E0CF9179
:104170000895809118020E94580FD8CF80911D0297
:104180000E94580F83E08093DF02EBCF80911A02E8
:104190000E94580F10929F0D0E94640F82E080933E
:1041A000DF0280E0B6CF80911A020E94580F109271
:1041B0009F0D0E94640FC093DF0280E0AACFCF93CF
:1041C000C091DE02C13029F180F1C23069F0C33004
:1041D00049F50E94B10F811120C01092A00D1092DC
:1041E000DE0281E0CF9108950E94B10F811115C0C8
:1041F00080919F0D813009F054C08091A00D8130D5
:1042000009F45CC0809120020E94580FC093DE0226
:104210002FC00E94B10F8823E1F0C093DE0280E03E
:10422000CF91089580E0CF91089580919E0D8823CD
:1042300031F180911F020E94580F0E94640F8091FB
:104240009E0D80939F0D81E08093DE0280E0CF91F0
:10425000089580919F0D8130B9F48091A00D813037
:1042600069F1809120020E94580F82E08093DE0263
:1042700010929F0D0E94640F80E0CF91089580916D
:104280001E020E94580FD9CF809121020E94580F20
:10429000C0939F0D0E94640F82E08093DE0280E055
:1042A000BFCF809121020E94580F81E080939F0D23
:1042B0000E94640FC093DE0280E0B2CF80912202A0
:1042C0000E94580F83E08093DE02D2CFCF93C0913B
:1042D000DF02C13021F178F1C23069F0C33041F51D
:1042E0000E94B10F81111FC01092A00D1092DF0229
:1042F00081E0CF9108950E94B10F811114C0809187
:104300009F0D81115DC08091A00D813009F443C0E3
:10431000809127020E94580FC093DF022FC00E9495
:10432000B10F8823E1F0C093DF0280E0CF910895C0
:1043300080E0CF91089580919E0D882339F180917E
:1043400025020E94580F0E94640F80919E0D809359
:104350009F0D81E08093DF0280E0CF9108958091EE
:104360009F0D811120C08091A00D8130A1F080911E
:1043700027020E94580F82E08093DF0281E0809341
:104380009F0D0E94640F80E0CF91089580912402D8
:104390000E94580FD8CF809129020E94580F83E0C5
:1043A0008093DF02EBCF809126020E94580F10927B
:1043B0009F0D0E94640F82E08093DF0280E0B6CF01
:1043C000809126020E94580F10929F0D0E94640F48
:1043D000C093DF0280E0AACFCF93C091DE02C1304C
:1043E00029F180F1C23069F0C33049F50E94B10F64
:1043F000811120C01092A00D1092DE0281E0CF91B9
:1044000008950E94B10F811115C080919F0D8130D8
:1044100009F054C08091A00D813009F45CC08091F6
:104420002C020E94580FC093DE022FC00E94B10FD1
:104430008823E1F0C093DE0280E0CF91089580E010
:10444000CF91089580919E0D882331F180912B02A8
:104450000E94580F0E94640F80919E0D80939F0DC3
:1044600081E08093DE0280E0CF91089580919F0DDE
:104470008130B9F48091A00D813069F180912C02D6
:104480000E94580F82E08093DE0210929F0D0E94DE
:10449000640F80E0CF91089580912A020E94580F06
:1044A000D9CF80912D020E94580FC0939F0D0E947A
:1044B000640F82E08093DE0280E0BFCF80912D0206
:1044C0000E94580F81E080939F0D0E94640FC0935B
:1044D000DE0280E0B2CF80912E020E94580F83E06E
:1044E0008093DE02D2CFCF93C091DF02C13021F1A1
:1044F00078F1C23069F0C33041F50E94B10F8111EB
:104500001FC01092A00D1092DF0281E0CF9108959C
:104510000E94B10F811114C080919F0D81115DC067
:104520008091A00D813009F443C0809133020E9434
:10453000580FC093DF022FC00E94B10F8823E1F013
:10454000C093DF0280E0CF91089580E0CF9108957D
:1045500080919E0D882339F1809131020E94580F7D
:104560000E94640F80919E0D80939F0D81E0809347
:10457000DF0280E0CF91089580919F0D811120C0CE
:104580008091A00D8130A1F0809133020E94580FDC
:1045900082E08093DF0281E080939F0D0E94640F90
:1045A00080E0CF910895809130020E94580FD8CFBB
:1045B000809135020E94580F83E08093DF02EBCF99
:1045C000809132020E94580F10929F0D0E94640F3A
:1045D00082E08093DF0280E0B6CF809132020E94B9
:1045E000580F10929F0D0E94640FC093DF0280E06D
:1045F000AACFCF93C091DE02C13029F180F1C23041
:1046000069F0C33049F50E94B10F811120C01092AA
:10461000A00D1092DE0281E0CF9108950E94B10FAB
:10462000811115C080919F0D813009F054C0809197
:10463000A00D813009F45CC0809138020E94580FAF
:10464000C093DE022FC00E94B10F8823E1F0C09317
:10465000DE0280E0CF91089580E0CF9108958091AF
:104660009E0D882331F1809137020E94580F0E94DD
:10467000640F80919E0D80939F0D81E08093DE02F8
:1046800080E0CF91089580919F0D8130B9F48091A1
:10469000A00D813069F1809138020E94580F82E0AC
:1046A0008093DE0210929F0D0E94640F80E0CF91F4
:1046B0000895809136020E94580FD9CF8091390217
:1046C0000E94580FC0939F0D0E94640F82E0809358
:1046D000DE0280E0BFCF809139020E94580F81E056
:1046E00080939F0D0E94640FC093DE0280E0B2CFE2
:1046F00080913A020E94580F83E08093DE02D2CF6D
:10470000CF93C091DF02C13021F178F1C23069F05E
:10471000C33041F50E94B10F81111FC01092A00D4E
:104720001092DF0281E0CF9108950E94B10F8111B4
:1047300014C080919F0D81115DC08091A00D8130CA
:1047400009F443C080913F020E94580FC093DF02DA
:104750002FC00E94B10F8823E1F0C093DF0280E0F8
:10476000CF91089580E0CF91089580919E0D882388
:1047700039F180913D020E94580F0E94640F809190
:104780009E0D80939F0D81E08093DF0280E0CF91AA
:10479000089580919F0D811120C08091A00D8130DE
:1047A000A1F080913F020E94580F82E08093DF02C7
:1047B00081E080939F0D0E94640F80E0CF91089567
:1047C00080913C020E94580FD8CF809141020E94F4
:1047D000580F83E08093DF02EBCF80913E020E946E
:1047E000580F10929F0D0E94640F82E08093DF02A9
:1047F00080E0B6CF80913E020E94580F10929F0D2C
:104800000E94640FC093DF0280E0AACFCF93C091D3
:10481000DE02C13029F180F1C23069F0C33049F5C0
:104820000E94B10F811120C01092A00D1092DE02E3
:1048300081E0CF9108950E94B10F811115C0809140
:104840009F0D813009F054C08091A00D813009F492
:104850005CC0809144020E94580FC093DE022FC0BA
:104860000E94B10F8823E1F0C093DE0280E0CF9177
:10487000089580E0CF91089580919E0D882331F1B5
:10488000809143020E94580F0E94640F80919E0DF8
:1048900080939F0D81E08093DE0280E0CF910895A8
:1048A00080919F0D8130B9F48091A00D813069F124
:1048B000809144020E94580F82E08093DE021092A1
:1048C0009F0D0E94640F80E0CF9108958091420275
:1048D0000E94580FD9CF809145020E94580FC09373
:1048E0009F0D0E94640F82E08093DE0280E0BFCFC4
:1048F000809145020E94580F81E080939F0D0E9495
:10490000640FC093DE0280E0B2CF809146020E9425
:10491000580F83E08093DE02D2CFCF93C091DF02A5
:10492000C13021F178F1C23069F0C33041F50E9405
:10493000B10F81111FC01092A00D1092DF0281E013
:10494000CF9108950E94B10F811114C080919F0DE5
:1049500081115DC08091A00D813009F443C0809128
:104960004B020E94580FC093DF022FC00E94B10F6C
:104970008823E1F0C093DF0280E0CF91089580E0CA
:10498000CF91089580919E0D882339F1809149023D
:104990000E94580F0E94640F80919E0D80939F0D7E
:1049A00081E08093DF0280E0CF91089580919F0D98
:1049B000811120C08091A00D8130A1F080914B0227
:1049C0000E94580F82E08093DF0281E080939F0D68
:1049D0000E94640F80E0CF910895809148020E9468
:1049E000580FD8CF80914D020E94580F83E08093DA
:1049F000DF02EBCF80914A020E94580F10929F0D68
:104A00000E94640F82E08093DF0280E0B6CF809145
:104A10004A020E94580F10929F0D0E94640FC0938B
:104A2000DF0280E0AACFCF93C091DE02C13029F12E
:104A300080F1C23069F0C33049F50E94B10F811195
:104A400020C01092A00D1092DE0281E0CF91089557
:104A50000E94B10F811115C080919F0D813009F026
:104A600054C08091A00D813009F45CC08091500247
:104A70000E94580FC093DE022FC00E94B10F8823FE
:104A8000E1F0C093DE0280E0CF91089580E0CF9105
:104A9000089580919E0D882331F180914F020E94EC
:104AA000580F0E94640F80919E0D80939F0D81E0AE
:104AB0008093DE0280E0CF91089580919F0D813038
:104AC000B9F48091A00D813069F1809150020E946B
:104AD000580F82E08093DE0210929F0D0E94640FB7
:104AE00080E0CF91089580914E020E94580FD9CF57
:104AF000809151020E94580FC0939F0D0E94640F35
:104B000082E08093DE0280E0BFCF809151020E945C
:104B1000580F81E080939F0D0E94640FC093DE02C6
:104B200080E0B2CF809152020E94580F83E08093C0
:104B3000DE02D2CFCF93DF93C091E002C13071F19A
:104B4000D8F1C23071F0C33099F50E94B10F8111D4
:104B500029C01092A00D1092E00281E0DF91CF9168
:104B600008950E94B10F81111DC0C091A00D8091C8
:104B70009F0DC13009F451C0882309F446C08091CB
:104B800056020E94580F10929F0D0E94640F82E0FF
:104B90008093E00280E0DF91CF9108950E94B10FF1
:104BA0008823F9F0C093E00280E0DF91CF9108956F
:104BB00080E0DF91CF91089580919E0D882301F1CF
:104BC000809155020E94580F0E94640F80919E0DA3
:104BD00080939F0D81E08093E00280E0DF91CF9190
:104BE0000895D091A00D80919F0DD13029F18111B0
:104BF000C6CF809157020E94580FC0939F0DC5CF1A
:104C0000809154020E94580FDFCF809157020E947A
:104C1000580F81E080939F0DB8CF811116C080910D
:104C200059020E94580FC0939F0D0E94640F83E0A9
:104C30008093E00280E0B9CF811107C080915902D2
:104C40000E94580FD0939F0DF0CF809158020E9480
:104C5000580F10929F0DE9CFCF93DF93C091E002E0
:104C6000C13071F1D8F1C23071F0C33099F50E94B2
:104C7000B10F811129C01092A00D1092E00281E0C5
:104C8000DF91CF9108950E94B10F81111DC0C09195
:104C9000A00D80919F0DC13009F451C0882309F403
:104CA00046C080915C020E94580F10929F0D0E9496
:104CB000640F82E08093E00280E0DF91CF9108955D
:104CC0000E94B10F8823F9F0C093E00280E0DF91E9
:104CD000CF91089580E0DF91CF91089580919E0D4E
:104CE000882301F180915B020E94580F0E94640F9B
:104CF00080919E0D80939F0D81E08093E00280E083
:104D0000DF91CF910895D091A00D80919F0DD1306A
:104D100029F18111C6CF80915D020E94580FC09386
:104D20009F0DC5CF80915A020E94580FDFCF80910E
:104D30005D020E94580F81E080939F0DB8CF8111D2
:104D400016C080915F020E94580FC0939F0D0E9471
:104D5000640F83E08093E00280E0B9CF811107C047
:104D600080915F020E94580FD0939F0DF0CF8091E9
:104D70005E020E94580F10929F0DE9CF089508958A
:104D80000895089508950895089508951F93CF9361
:104D9000DF931F921F92CDB7DEB7681B790B683F78
:104DA00088EF78073CF5605F714F1091DD0211309C
:104DB00059F1113008F4A1C0123009F45EC013306B
:104DC00009F094C00E94B10F811187C080919C0DA1
:104DD00090919D0D019690939D0D80939C0D109246
:104DE000A00D1092DD0281E00F900F90DF91CF9126
:104DF0001F9108956930E7E07E07BCF260517E4064
:104E00001091DD021130A9F669837A830E94B10FF7
:104E100069817A81811161C080919C0D90919D0D75
:104E2000019690939D0D80939C0D8091A00D8130F3
:104E300009F4B2C0CB018D599F4F873C910508F40E
:104E40007BC080919F0D6C39FFEF7F070CF08AC00B
:104E5000882309F4C3C0813009F4F9C091E090932C
:104E6000DD0281118BC081E080939F0D80E00F9067
:104E70000F90DF91CF911F91089569837A830E94EB
:104E8000B10F69817A81811128C080919C0D909128
:104E90009D0D019690939D0D80939C0D8091A00D8A
:104EA000813009F488C0CB0177FDA0C0853691051B
:104EB0000CF46DC080919F0D161617060CF04CC0B7
:104EC000811190C08CE60E94580F0E94640F82E00E
:104ED0008093DD0280919F0DC4CF1093DD0280E0AE
:104EE0000F900F90DF91CF911F91089580E00F9068
:104EF0000F90DF91CF911F91089580919E0D88238F
:104F0000B9F082E20E94580F0E94640F80919E0DBA
:104F100090E001968170992780939F0D81E08093A6
:104F2000DD0280E00F900F90DF91CF911F910895E7
:104F300080E20E94580FE8CF80919F0D882309F4EA
:104F40004DC086E20E94580F0E94640F81E080935A
:104F5000DD0280919F0D85CF81115AC088E70E94A4
:104F6000580FB3CF653671050CF468C0813049F332
:104F7000882309F458C081E08093DD0210929F0DD0
:104F800080E00F900F90DF91CF911F91089581E005
:104F90008093DD0280E0A4CF80919F0D81112BC012
:104FA00088E20E94580F0E94640F83E08093DD0224
:104FB00080919F0D56CF80919F0D16161706FCF419
:104FC000813051F18CE60E94580F1093DD020E944F
:104FD000640F80919F0D8111D1CF45CF84E20E9453
:104FE000580FB2CF8EE60E94580F6FCF88279927AF
:104FF000861B970B5BCF8AE20E94580FD4CF81119A
:1050000020C08CE70E94580F83E08093DD02DFCF41
:105010008AE70E94580F59CF82E70E94580F83E019
:105020008093DD02D4CF82E08093DD028CE60E9483
:10503000580F0E94640F80919F0D13CF77FF98CF78
:105040000ACF8AE70E94580F1093DD02C0CF8AE78B
:105050000E94580F82E08093DD020E94640F8091CD
:105060009F0DFFCE1F93CF93DF931F921F92CDB75B
:10507000DEB7681B790B683F88EF78073CF5605F07
:10508000714F1091DC02113059F1113008F49EC0BB
:10509000123009F45DC0133009F091C00E94B10FC5
:1050A000811184C080919C0D90919D0D01979093EA
:1050B0009D0D80939C0D1092A00D1092DC0281E05A
:1050C0000F900F90DF91CF911F9108956930E7E025
:1050D0007E07BCF260517E401091DC021130A9F6CF
:1050E00069837A830E94B10F69817A8181115EC0E0
:1050F00080919C0D90919D0D019790939D0D8093B3
:105100009C0D8091A00D813009F4B0C0CB018D5968
:105110009F4F873C910508F478C080919F0D6536BC
:1051200071050CF488C0882309F4C2C0813009F4E9
:10513000E7C091E09093DC0281118AC081E0809306
:105140009F0D80E00F900F90DF91CF911F910895F8
:1051500069837A830E94B10F69817A81811126C0A7
:1051600080919C0D90919D0D019790939D0D809342
:105170009C0D8091A00D813009F487C0CB0177FD93
:105180009FC0853691050CF46CC080919F0D77FD12
:105190004CC0811191C080E90E94580F0E94640F99
:1051A00082E08093DC0280919F0DC6CF1093DC02D9
:1051B00080E00F900F90DF91CF911F91089580E0D4
:1051C0000F900F90DF91CF911F91089580919E0DC8
:1051D0008823B9F08EE20E94580F0E94640F8091DC
:1051E0009E0D90E001968170992780939F0D81E03C
:1051F0008093DC0280E00F900F90DF91CF911F91A0
:1052000008958CE20E94580FE8CF80919F0D88236B
:1052100009F44EC082E30E94580F0E94640F81E09F
:105220008093DC0280919F0D87CF811160C084E85C
:105230000E94580FB3CF6C39FFEF7F070CF05BC0B3
:10524000813041F3882309F46DC081E08093DC0252
:1052500010929F0D80E00F900F90DF91CF911F91E2
:10526000089581E08093DC0280E0A3CF80919F0DC0
:1052700081112BC084E30E94580F0E94640F83E0C9
:105280008093DC0280919F0D57CF80919F0D77FD19
:1052900026C081111EC084E90E94580F83E08093CC
:1052A000DC020E94640F80919F0D8111D1CF46CF07
:1052B00080E30E94580FB1CF82E90E94580F6ECF51
:1052C00088279927861B970B5CCF86E30E94580F8F
:1052D000D4CF82E90E94580F1093DC02E2CF8130D4
:1052E000D1F084E80E94580F1093DC02DACF86E8F0
:1052F0000E94580F53CF161617060CF417CFA2CFE3
:1053000082E90E94580F82E08093DC020E94640FC1
:1053100080919F0D11CF8AE80E94580F83E08093FF
:10532000DC02BFCF82E08093DC0284E80E94580F49
:105330000E94640F80919F0DFFCECF93DF93D82FF3
:10534000C091DB02C13019F180F0C23021F080E061
:10535000DF91CF9108950E94CD0C811129C0C09397
:10536000DB0280E0DF91CF9108950E94B10F81119F
:105370001BC0D13019F18CE10E94580F0E94640FBC
:1053800081E08093DB0280E0DF91CF9108950E945D
:10539000B10F8111E4CF82E08093DB0288EE93E0CD
:1053A0000E94A10C80E0D4CF1092DB0280E0D0CF2D
:1053B0000E9468191092DB0281E0CACF8BE10E9443
:1053C000580FDCCFCF93C82F4091DA0250E048301D
:1053D000510530F080E0C1111092DA02CF910895AA
:1053E000FA01EA59FE4F0C9473470E94B10F8823CB
:1053F00009F456C086E08093DA0280E0ECCF0E9488
:10540000B10F882309F448C087E08093DA0280E076
:10541000E2CF0E94B10F8823A9F10E94AD0F81E075
:105420008093DA0280E0D7CF0E94B10F882351F138
:1054300081E08093DA0280E0CECF0E94B10F882312
:1054400009F456C082E08093DA0280E0C4CF0E9463
:10545000CD0C811143C083E08093DA0280E0BBCFA2
:105460000E94B10F882381F184E08093DA0280E00A
:10547000B2CF0E94B10F8823E9F085E08093DA0271
:1054800080E0A9CF83EE0E94580F0E94640F82E053
:105490008093DA0280E09FCF1092DA0281E09BCF06
:1054A0008FE10E94580F0E94640F87E08093DA0218
:1054B00080E091CF82EE0E94580F0E94640F86E038
:1054C0008093DA0280E087CF81EE0E94580F0E941D
:1054D000640F85E08093DA0280E07DCF80EE0E9449
:1054E000580F0E94640F84E08093DA0280E073CF4B
:1054F0008CED95E00E94A10C83E08093DA0280E0BD
:105500006ACFCF93C091D902C23009F441C068F08C
:10551000C430C1F098F1C53019F50E94B10F811166
:105520000CC01092D90281E00BC0CC23E1F0C13055
:10553000B9F40E94B10F8823C9F1C093D90280E069
:10554000CF9108950E94B10F8111F7CF8FE10E9492
:10555000580F0E94640F85E08093D90280E0F0CF5D
:1055600080E0CF9108950E94B10F8823F9F00E9446
:10557000AD0F81E08093D90280E0E2CF0E94B10FAD
:105580008823F9F083E08093D90280E0CF910895D9
:105590000E94B10F8111D1CF85EE0E94580F0E9459
:1055A000640F83E08093D90280E0CACF84EE0E942A
:1055B000580F0E94640F82E08093D90280E0CF915F
:1055C000089586EE0E94580F0E94640F84E0809335
:1055D000D90280E0B5CF1F93CF93DF93EB01C81BB7
:1055E000D90BC83F88EFD8079CF5C05FD14F109109
:1055F000D8021230B9F1133008F04DC0112309F46C
:1056000072C0113009F061C00E94B10F811184C0D5
:105610008091A00D813009F49FC0C953DF4FCF386E
:10562000D14008F488C080919F0D813009F4A2C058
:1056300084E50E94580F0E94640F1093D802809155
:105640009F0D811185C081E080939F0D80E03EC059
:10565000C93097E0D9075CF2C051DE401091D80202
:10566000123049F60E94B10F882309F460C01093EC
:10567000D802D7FD21C08CE092E00E94C61C8111A7
:1056800029C0C436D1050CF591E09093A00DDF91AF
:10569000CF911F910895133061F31430B1F40E943B
:1056A000B10F811139C01092A00D1092D80281E083
:1056B000DF91CF911F91089582E192E00E94521DE7
:1056C000811108C0CD39DF4FFCF680E0DF91CF912A
:1056D0001F9108951092D8021092A00D80E0DF91E2
:1056E000CF911F91089580919E0D81111CC080E57E
:1056F0000E94580F0E94640F80919E0D90E00196C9
:105700008170992780939F0D81E08093D80280E07B
:10571000DF91CF911F9108951093D80280E0DF911F
:10572000CF911F91089582E50E94580FE3CF83E047
:105730008093D8029ECF80919F0D811117C084E580
:105740000E94580F0E94640F81E08093D80277CFA7
:1057500010929F0D80E0BACF80919F0D813099F01B
:1057600084E50E94580F0E94640F69CF86E50E946D
:10577000580FE8CF8AE50E94580F0E94640F82E01C
:105780008093D8025CCF8AE50E94580F84E0809312
:10579000D802E9CF1F93CF93DF93EB01C81BD90B3E
:1057A000C83F88EFD8079CF5C05FD14F1091D70252
:1057B0001230B9F1133008F04DC0112309F472C052
:1057C000113009F061C00E94B10F811184C0809135
:1057D000A00D813009F49FC0C953DF4FCF38D140AD
:1057E00008F488C080919F0D8111A2C084E60E94B8
:1057F000580F0E94640F82E08093D70280919F0D22
:10580000811185C081E080939F0D80E03EC0C9304A
:1058100097E0D9075CF2C051DE401091D7021230F8
:1058200049F60E94B10F882309F460C01093D70293
:10583000D7FD21C08CE092E00E94C61C811129C0D6
:10584000C436D1050CF591E09093A00DDF91CF9176
:105850001F910895133061F31430B1F40E94B10F19
:10586000811139C01092A00D1092D70281E0DF9112
:10587000CF911F91089582E192E00E94521D811103
:1058800008C0CD39DF4FFCF680E0DF91CF911F914A
:1058900008951092D7021092A00D80E0DF91CF9171
:1058A0001F91089580919E0D81111CC08CE50E946E
:1058B000580F0E94640F80919E0D90E001968170B8
:1058C000992780939F0D81E08093D70280E0DF913C
:1058D000CF911F9108951093D70280E0DF91CF916F
:1058E0001F9108958EE50E94580FE3CF83E08093C7
:1058F000D7029ECF80919F0D811122C080E60E9429
:10590000580F0E94640F81E08093D70277CF1092E6
:105910009F0D80E0BACF80919F0D811115C084E664
:105920000E94580F84E08093D7020E94640F66CFD4
:1059300082E60E94580F0E94640F1093D7025ECF38
:1059400082E60E94580FDDCF82E60E94580FEDCF0D
:105950001F93CF93DF93EC018091D602823009F43C
:1059600083C028F5882309F457C0813061F5C091C0
:10597000D202D091D3020E94633A9E01281B390BB8
:10598000C901883F38EF93070CF08FC0805F914FBB
:1059900097FDBFC0853691050CF08FC084E08093E1
:1059A000D60210E0812FDF91CF911F9108958330AF
:1059B00081F0843041F41092D60211E0812FDF9102
:1059C000CF911F91089510E0812FDF91CF911F910A
:1059D000089582E192E00E94521D182F8111DECFBE
:1059E000C091D202D091D3020E94633A9E01281B3B
:1059F000390B283F88EF38070CF47EC0293087E048
:105A0000380714F020513E40243631050CF47AC09A
:105A100083E08093D602C6CF0E94633A9093D5026A
:105A20008093D4029E01220F331FCC0FDD1FCC0FB9
:105A3000DD1FCC0FDD1F2C0F3D1F280F391F37FD39
:105A400065C021318EE0380714F020513E4030937C
:105A5000D3022093D20281E08093D60210E0812FFE
:105A6000DF91CF911F9108958CE092E00E94C61CB7
:105A7000182F811193CFC091D202D091D3020E94EE
:105A8000633A9E01281B390B283F88EF38078CF1B9
:105A9000293087E0380714F020513E402D393F4F20
:105AA0008CF582E08093D6027DCF893027E0920783
:105AB0000CF46ECF80519E406BCFC091D202D0913A
:105AC000D3020E94633A9E01281B390BC901883F0B
:105AD00038EF9307A4F0893027E0920714F0805143
