:100000000C94EF010C9410020C9410020C9410024A
:100010000C9410020C9410020C9410020C94100218
:100020000C9410020C9410020C9410020C94100208
:100030000C9410020C9410020C9410020C941002F8
:100040000C9410020C9410020C9410020C941002E8
:100050000C9410020C9410020C9410020C941002D8
:100060000C9410020C942A410C9410020C94E7405A
:100070000C9410020C9410020C9410020C941002B8
:100080000C9410020C9410020C9410020C941002A8
:100090000C9492450C9410020C94C1450C941002DF
:1000A0000C9410020C9410020C9410020C94100288
:1000B0000C9410020C9410020C9410020C94100278
:1000C0000C9410020C9410020C9410024403680368
:1000D00062036E03BA030E04600424044304600444
:1000E000A00484048F04FA05FC05F905FE05F90552
:1000F000F905F9050006F905F905F905F905F90508
:10010000F905F9050206F905F905F905F905F905F5
:10011000F905F905F905F905F905F905F905F905EF
:10012000F905F9050406F905F905F905F905F905D3
:10013000F905F905F905F905F905F905F905F905CF
:10014000F905F905F905F905F905F905F905F905BF
:10015000F905F905F905F905F905F905F905F905AF
:10016000F905F905F805120614061106160611061A
:1001700011061106180611061106110611061106C0
:10018000110611061A0611061106110611061106AE
:1001900011061106110611061106110611061106A7
:1001A000110611061C06110611061106110611068C
:1001B0001106110611061106110611061106110687
:1001C0001106110611061106110611061106110677
:1001D0001106110611061106110611061106110667
:1001E0001106110610062D0632062C0637062C06BF
:1001F0002C062C063C062C062C062C062C062C065F
:100200002C062C0641062C062C062C062C062C0649
:100210002C062C062C062C062C062C062C062C064E
:100220002C062C0646062C062C062C062C062C0624
:100230002C062C062C062C062C062C062C062C062E
:100240002C062C062C062C062C062C062C062C061E
:100250002C062C062C062C062C062C062C062C060E
:100260002C062C0628065706570651065706510637
:1002700051065106600651065106510651065106B7
:1002800051065106650651065106510651065106A2
:1002900051065106510651065106510651065106A6
:1002A000510651065A06510651065106510651068D
:1002B0005106510651065106510651065106510686
:1002C0005106510651065106510651065106510676
:1002D0005106510651065106510651065106510666
:1002E000510651066D06602C6B2C742C7E2C872CCD
:1002F000902C4C2C562C6364696E6F707375785813
:100300005B000C9446060C9412060C94FE050C94AB
:1003100011060C948F040C9457060C946D060C94E3
:100320004C2C0C94742C0C9428060C946B2C0C9470
:100330007E2C0C9449450C941A060C9468030C947A
:1003400060040C9414060C94A0040C942C060C94D9
:10035000F9050C94BA030C9427450C94902C0C943A
:100360001C060C943C060C9424040C9410060C946B
:10037000872C0C94544A0C9404060C94602C0C9416
:1003800062030C9432060C94F8050C9400060C944D
:1003900037060C9451060C9402060C9418060C9423
:1003A00043040C9460060C942D060C94FA050C94EE
:1003B0006E030C940E040C9465060C94562C0C944D
:1003C000A3210C9441060C9444030C945A060C94FB
:1003D00016060C94FC050C9484040C942922112418
:1003E0001FBECFEFD1E2DEBFCDBF00E00CBF12E0F9
:1003F000A0E0B2E0E8EEFBEA00E00BBF02C007902D
:100400000D92A43CB107D9F712E1A4ECB2E001C00F
:100410001D92A434B107E1F70E94A9490C94F2554A
:100420000C940000681B790B683F88EF78071CF478
:10043000605F714F06C0693087E0780714F0605143
:100440007E40CB01089587302FEF920714F08A5F2A
:1004500091090895CF93DF93EC010E94A43D87306A
:100460002FEF920714F08A5F91098C1B9D0B893046
:1004700027E092071CF080519E4006C0883F28EF7D
:10048000920714F4805F914F6AE070E00E94F9498E
:10049000CB01DF91CF910895680F791F77FF03C0DB
:1004A000605F714F06C061318EE0780714F06051D3
:1004B0007E40CB010895CF93DF93EC018091CD0274
:1004C000823009F482C028F4882369F0813029F150
:1004D00097C0833009F45EC0843009F091C0109257
:1004E000CD0281E08EC00E94A43D87302FEF92079D
:1004F00014F08A5F91099093CC028093CB022AE09A
:100500002C9FB0012D9F700D11240E944C029093DE
:10051000CA028093C90281E071C0C091C902D09122
:10052000CA020E94A43D87302FEF920714F08A5F21
:100530009109BE010E94120297FF03C09195819517
:100540009109853691050CF444C0C091C902D0913F
:10055000CA020E94A43D87302FEF920714F08A5FF1
:100560009109BE010E9412028536910564F5C09181
:10057000C902D091CA020E94A43D87302FEF920792
:1005800014F08A5F9109BE010E9412028C399F4FBC
:10059000BCF533C00E94292281111BC0C091C90241
:1005A000D091CA020E94A43D87302FEF920714F029
:1005B0008A5F9109BE010E941202843691051CF4E3
:1005C0000E946E201DC083E019C00E94A3218823D1
:1005D00011F084E013C0C091C902D091CA020E94F8
:1005E000A43D87302FEF920714F08A5F9109BE0176
:1005F0000E9412028D399F4F1CF782E08093CD023A
:1006000080E0DF91CF91089560E071EE80E090E0AE
:100610000E9402460E949F1B0E94BD1B0E947B1EDF
:1006200084E690E00E94A80E0E9463200E941F3979
:100630000E942A3D80E10E94790681110E94903D2E
:100640000E94703D813051F02FEF81EE94E02150F7
:1006500080409040E1F700C00000F2CF86E0809338
:10066000F00284E08093EB0287E08093E802089533
:100670008091C80290E08D30910508F06FC1FC01B7
:10068000EA59FF4F0C947E4B81E00E94AE0688230E
:10069000B1F00E94A43D87302FEF920714F08A5FDB
:1006A00091099093EE028093ED028FE10E94AE11CA
:1006B0000E94BA1188E893E10E94A80E07C0109228
:1006C000C80208950E94ED0E811143C182E044C129
:1006D0000E940C12882309F49FC03BC10E94821E15
:1006E000811102C00E947B1E8091ED029091EE026A
:1006F0000E942A02409714F083E0CEC08091ED0260
:100700009091EE020E942A02813F9F4F14F483E0F1
:10071000D1C08091F0020E94B63980359105B8F4BD
:100720008091C6029091C702019751F40E946E20F9
:1007300085E08093EF021092C7021092C60213C0A8
:1007400081E090E09093C7028093C6020CC0809134
:10075000EB020E94B6398B3F910528F00E946E2073
:1007600084E08093EF020E94B022813009F44BC0F4
:1007700083E0F2C00E94821E811102C00E947B1E93
:100780008091ED029091EE020E942A02409714F0AF
:1007900084E082C08091ED029091EE020E942A02D4
:1007A000813F9F4F14F484E085C08091F0020E9445
:1007B000B63980359105B8F48091C6029091C70290
:1007C000019751F40E946E2085E08093EF02109211
:1007D000C7021092C60213C081E090E09093C70256
:1007E0008093C6020CC08091E8020E94B6398B3F0C
:1007F000910528F00E946E2083E08093EF020E9412
:100800003623813049F48091EF028093C802109220
:10081000C7021092C602089584E09EC08091ED0246
:100820009091EE020E942A02409714F085E034C0B5
:100830008091ED029091EE020E942A02813F9F4F2B
:100840000CF060C085E036C088E00E94EE050E9492
:10085000821E81110E947F1E8FEA90E00E945B023F
:10086000813009F04DC089E08093C80268E077E0EC
:100870008091ED029091EE020E944C029093EE0264
:100880008093ED0208958091ED029091EE020E9416
:100890002A0240972CF088E08093EC028BE05CC049
:1008A0008091ED029091EE020E942A02813F9F4FBB
:1008B0002CF488E08093EC028CE04EC089E04CC0C0
:1008C0000E94821E811102C00E947B1E8091F00254
:1008D0000E94B6398F35914010F00E946E200E9420
:1008E000A43D87302FEF920714F08A5F9109BC0175
:1008F0008091ED029091EE020E941D29813011F449
:1009000087E02AC086E028C00E94821E81110E94D2
:100910007F1E0E94A321813059F08BE00DC00E9400
:10092000821E81110E947F1E0E942922813019F4AB
:100930008091EC0211C08CE08093C8020C946E2070
:100940008EEB92E00E94834E80E10E94AE068823E7
:1009500011F081E001C08AE08093C80208950E94EE
:10096000B7050E9470060E9480090E944C0D0C94ED
:10097000760E649974C081E080930503909108031A
:10098000992309F4B5C010920903659952C081E01A
:100990008093000390910303992309F498C0109267
:1009A0000403669932C081E08093F6029091F902C7
:1009B000992309F47BC01092FA026799AAC081E0DA
:1009C0008093F1029091F402992309F45EC0109291
:1009D000F502489912C091E09093FB028091FE02CB
:1009E000811110C08091FF028F5F8093FF02809180
:1009F000FF02843109F4B4C008958091FE02813071
:100A000009F49DC01092FF0208958091F90281308F
:100A100091F69091FA029F5F9093FA029091FA02F8
:100A2000943159F68093F8021092F9021092FA026A
:100A3000C4CF80910303813009F0B1CF90910403BA
:100A40009F5F9093040390910403943109F0A9CF20
:100A5000809302031092030310920403A2CF8091AB
:100A60000803813009F08FCF909109039F5F909325
:100A7000090390910903943109F087CF809307030C
:100A8000109208031092090380CF9091F5029F5FA6
:100A90009093F5029091F502943109F09ACF8093EA
:100AA000F2028093F4021092F50293CF9091FA0231
:100AB0009F5F9093FA029091FA02943109F07DCFF2
:100AC0008093F7028093F9021092FA0276CF909108
:100AD00004039F5F9093040390910403943109F001
:100AE00060CF80930103809303031092040359CFD6
:100AF000909109039F5F90930903909109039431AA
:100B000009F043CF809306038093080310920903F2
:100B10003CCF8091F402813009F059CF9091F502D9
:100B20009F5F9093F5029091F502943109F051CFB7
:100B30008093F3021092F4021092F5024ACF909142
:100B4000FF029F5F9093FF029091FF02943109F0A2
:100B500053CF8093FD021092FE021092FF0208957F
:100B60009093FC029093FE021092FF0208958FE78B
:100B700087B98EE788B91092050310920603109288
:100B800007031092080310920903109200031092B9
:100B900001031092020310920303109204031092B7
:100BA000F6021092F7021092F8021092F9021092D7
:100BB000FA021092F1021092F2021092F3021092D5
:100BC000F4021092F5021092FB021092FC021092B5
:100BD000FD021092FE021092FF02089590E0FC01C7
:100BE0003197E034F10528F4ED58FF4F0C947E4B1B
:100BF0004698089540980895419808954298089518
:100C000043980895449808954598089590E0FC010C
:100C10003197E034F10528F4ED54FF4F0C947E4BEE
:100C2000469A0895409A0895419A0895429A0895DF
:100C3000439A0895449A0895459A089590E0FC01D6
:100C40003197E034F10540F4ED50FF4F0C947E4BAA
:100C500088B190E4892788B9089588B191E08927FF
:100C600088B9089588B192E0892788B9089588B134
:100C700094E0892788B9089588B198E0892788B9D0
:100C8000089588B190E1892788B9089588B190E2E4
:100C9000892788B9089590E0FC013197E034F10587
:100CA00010F080E00895ED5CFE4F0C947E4B86B111
:100CB00080E0089586B1807290E0959587950895BB
:100CC00086B183FB882780F9089586B1807190E012
:100CD0009595879595958795089586B18074089523
:100CE0005098589A8DB18F708DB98EB1806F8EB932
:100CF0000895803259F160F4813001F18031A1F41E
:100D000080910503882381F01092050381E0089506
:100D1000803461F0803841F48091F102882321F021
:100D20001092F10281E0089580E008958091F6022A
:100D30008823D1F31092F60281E008958091FB029E
:100D4000882391F31092FB0281E0089580910003C3
:100D5000882351F31092000381E00895803259F105
:100D600060F4813001F18031A1F480910603882381
:100D700081F01092060381E00895803461F080389C
:100D800041F48091F202882321F01092F20281E076
:100D9000089580E008958091F7028823D1F310929E
:100DA000F70281E008958091FC02882391F310926C
:100DB000FC0281E0089580910103882351F3109291
:100DC000010381E00895803259F160F4813001F12E
:100DD0008031A1F480910703882381F010920703EA
:100DE00081E00895803461F0803841F48091F3020D
:100DF000882321F01092F30281E0089580E00895A5
:100E00008091F8028823D1F31092F80281E00895CE
:100E10008091FD02882391F31092FD0281E00895F4
:100E200080910203882351F31092020381E0089518
:100E300090917C00987F90937C0020917C00982F6B
:100E40009770922B90937C00882359F0815020E872
:100E500030E002C0359527958A95E2F7209522B9B2
:100E6000089582B18C6F82B90895CF92DF92EF928C
:100E7000FF92CF93DF93CDB7DEB72E970FB6F894DE
:100E8000DEBF0FBECDBF8EE0E0EBF2E0DE011196DB
:100E900001900D928A95E1F789819A819C01220F38
:100EA000331F220F331F220F331F281B390B40E043
:100EB00050E0C12CB4ECDB2EB9E0EB2EF12CC701D5
:100EC000B6010E940D4A215031092F3F310509F02A
:100ED00008F49BC08B819C819C01220F331F220F41
:100EE000331F220F331F281B390B40E050E0C7018E
:100EF000B6010E940D4A215031092F3F310509F0FA
:100F000008F48AC08D819E819C01220F331F220F1D
:100F1000331F220F331F281B390B40E050E0C7015D
:100F2000B6010E940D4A215031092F3F310509F0C9
:100F300008F474C08F8198859C01220F331F220F03
:100F4000331F220F331F281B390B40E050E0C7012D
:100F5000B6010E940D4A215031092F3F310509F099
:100F600008F45EC089859A859C01220F331F220FE9
:100F7000331F220F331F281B390B40E050E0C701FD
:100F8000B6010E940D4A215031092F3F310509F069
:100F900008F448C08B859C859C01220F331F220FCB
:100FA000331F220F331F281B390B40E050E0C701CD
:100FB000B6010E940D4A215031092F3F3105A1F1A0
:100FC00098F18D859E859C01220F331F220F331FC0
:100FD000220F331F281B390B40E050E0C701B60138
:100FE0000E940D4A215031092F3F3105F9F0F0F0F0
:100FF0002E960FB6F894DEBF0FBECDBFDF91CF9116
:10100000FF90EF90DF90CF90089580E02093B300A1
:101010008F5F8093B100ECCF81E0F8CF82E0F6CF14
:1010200083E0F4CF84E0F2CF85E0F0CF86E0EECF2E
:10103000EAE7F0E0808180648083089580917A00FF
:1010400082958170089587B3869581700895B99BC4
:10105000089587B3876087BB1092B2009091FA031E
:1010600080917C00887F80937C0020917C00892F78
:101070008770822B80937C00992309F420C12FEF85
:10108000290F80E890E002C0959587952A95E2F7B0
:10109000809582B920E42A95F1F780917A008064E6
:1010A00080937A0080917A0084FFFCCF80917A004F
:1010B000806180937A008091780090917900E0912E
:1010C000FA03F0E0EE0FFF1FE550FC4F91838083A1
:1010D000E091FA0320910B0330E1E39FF00111242A
:1010E000E20FF11DEE0FFF1FE65EFC4F9183808340
:1010F000E091FA0380E2E89FF0011124E65EFC4FE4
:1011000080819181E091FA0320E2E29FF0011124B5
:10111000E65EFC4F22813381820F931FE091FA0338
:1011200030E2E39FF0011124E65EFC4F248135811B
:10113000820F931FE091FA0320E2E29FF001112455
:10114000E65EFC4F26813781820F931FE091FA0300
:1011500030E2E39FF0011124E65EFC4F20853185EB
:10116000820F931FE091FA0320E2E29FF001112425
:10117000E65EFC4F22853385820F931FE091FA03D0
:1011800030E2E39FF0011124E65EFC4F24853585B3
:10119000820F931FE091FA0320E2E29FF0011124F5
:1011A000E65EFC4F26853785820F931FE091FA0398
:1011B00030E2E39FF0011124E65EFC4F2089318983
:1011C000820F931FE091FA0320E2E29FF0011124C5
:1011D000E65EFC4F22893389820F931FE091FA0368
:1011E00030E2E39FF0011124E65EFC4F248935894B
:1011F000820F931FE091FA0320E2E29FF001112495
:10120000E65EFC4F26893789820F931FE091FA032F
:1012100030E2E39FF0011124E65EFC4F208D318D1A
:10122000820F931FE091FA0320E2E29FF001112464
:10123000E65EFC4F228D338D820F931FE091FA03FF
:1012400030E2E39FF0011124E65EFC4F248D358DE2
:10125000820F931FE091FA0320E2E29FF001112434
:10126000E65EFC4F268D378D820F931F92958295F7
:101270008F7089279F708927E091FA03F0E0EE0FC5
:10128000FF1FE45FFC4F918380832091FA03263097
:10129000D1F02091FA03211107C020910A032130D7
:1012A000E1F08E3A914008F18091FA0390E00196C6
:1012B00067E070E00E94F9498093FA03089582B1D3
:1012C0008C6F82B9E7CE20910B0330E02F5F3F4F48
:1012D0002F70332720930B03DCCF863D914020F302
:1012E0000E94FC0C10920A03DFCF4EE150E06EE149
:1012F00070E085E00E94090D81E080930A03D4CF5D
:10130000CF92DF92EF92FF92CF93DF93CDB7DEB70C
:101310002E970FB6F894DEBF0FBECDBF87E880933F
:101320007A0010927B0010927C0010927E00109246
:101330007D008CEF81B982B986E692E09093FC0340
:101340008093FB0390930D0380930C0390931B03F6
:1013500080931A0390931D0380931C0390931F03A3
:1013600080931E0390932103809320039093230383
:101370008093220390932503809324039093270363
:1013800080932603909329038093280390932B0343
:1013900080932A0390932D0380932C0390932F0323
:1013A00080932E0390933103809330039093330303
:1013B00080933203909335038093340390933703E3
:1013C0008093360390933903809338039093FE0300
:1013D0008093FD0390930F0380930E0390933B0340
:1013E00080933A0390933D0380933C0390933F0393
:1013F00080933E0390934103809340039093430373
:101400008093420390934503809344039093470352
:1014100080934603909349038093480390934B0332
:1014200080934A0390934D0380934C0390934F0312
:1014300080934E03909351038093500390935303F2
:1014400080935203909355038093540390935703D2
:10145000809356039093590380935803909300040C
:101460008093FF03909311038093100390935B0389
:1014700080935A0390935D0380935C0390935F0382
:1014800080935E0390936103809360039093630362
:101490008093620390936503809364039093670342
:1014A00080936603909369038093680390936B0322
:1014B00080936A0390936D0380936C0390936F0302
:1014C00080936E03909371038093700390937303E2
:1014D00080937203909375038093740390937703C2
:1014E000809376039093790380937803909302041A
:1014F00080930104909313038093120390937B03D2
:1015000080937A0390937D0380937C0390937F0371
:1015100080937E0390938103809380039093830351
:101520008093820390938503809384039093870331
:1015300080938603909389038093880390938B0311
:1015400080938A0390938D0380938C0390938F03F1
:1015500080938E03909391038093900390939303D1
:1015600080939203909395038093940390939703B1
:101570008093960390939903809398039093040427
:1015800080930304909315038093140390939B031B
:1015900080939A0390939D0380939C0390939F0361
:1015A00080939E039093A1038093A0039093A30341
:1015B0008093A2039093A5038093A4039093A70321
:1015C0008093A6039093A9038093A8039093AB0301
:1015D0008093AA039093AD038093AC039093AF03E1
:1015E0008093AE039093B1038093B0039093B303C1
:1015F0008093B2039093B5038093B4039093B703A1
:101600008093B6039093B9038093B8039093060434
:101610008093050490931703809316039093BB0364
:101620008093BA039093BD038093BC039093BF0350
:101630008093BE039093C1038093C0039093C30330
:101640008093C2039093C5038093C4039093C70310
:101650008093C6039093C9038093C8039093CB03F0
:101660008093CA039093CD038093CC039093CF03D0
:101670008093CE039093D1038093D0039093D303B0
:101680008093D2039093D5038093D4039093D70390
:101690008093D6039093D9038093D8039093080442
:1016A0008093070490931903809318039093DB03AE
:1016B0008093DA039093DD038093DC039093DF0340
:1016C0008093DE039093E1038093E0039093E30320
:1016D0008093E2039093E5038093E4039093E70300
:1016E0008093E6039093E9038093E8039093EB03E0
:1016F0008093EA039093ED038093EC039093EF03C0
:101700008093EE039093F1038093F0039093F3039F
:101710008093F2039093F5038093F4039093F7037F
:101720008093F6039093F9038093F8031092FA03E1
:1017300010920B0310920A0382E08093B000109283
:10174000B2001092700087E087BB8EE0E0EBF2E021
:10175000DE01119601900D928A95E1F789819A81B7
:101760009C01220F331F220F331F220F331F281B10
:10177000390B40E050E0C12C64ECD62E69E0E62E37
:10178000F12CC701B6010E940D4A215031092F3FAB
:10179000310509F008F49BC08B819C819C01220FCC
:1017A000331F220F331F220F331F281B390B40E03A
:1017B00050E0C701B6010E940D4A215031092F3F68
:1017C000310509F008F48AC08D819E819C01220FA9
:1017D000331F220F331F220F331F281B390B40E00A
:1017E00050E0C701B6010E940D4A215031092F3F38
:1017F000310509F008F474C08F8198859C01220F8F
:10180000331F220F331F220F331F281B390B40E0D9
:1018100050E0C701B6010E940D4A215031092F3F07
:10182000310509F008F464C089859A859C01220F6E
:10183000331F220F331F220F331F281B390B40E0A9
:1018400050E0C701B6010E940D4A215031092F3FD7
:10185000310509F008F44AC08B859C859C01220F54
:10186000331F220F331F220F331F281B390B40E079
:1018700050E0C701B6010E940D4A215031092F3FA7
:10188000310591F188F18D859E859C01220F331FD2
:10189000220F331F220F331F281B390B40E050E06B
:1018A000C701B6010E940D4A215031092F3F310571
:1018B000C9F0C0F02E960FB6F894DEBF0FBECDBFB4
:1018C000DF91CF91FF90EF90DF90CF90089580E06F
:1018D0002093B3008F5F8093B100ECCF81E0F8CF0D
:1018E00082E0F6CF86E0F4CF85E0F2CF84E0F0CF5F
:1018F00083E0EECFE82FF0E0EE0FFF1FE550FC4F46
:10190000808191810895E82FF0E0EE0FFF1FE45FE2
:10191000FC4F808191810895C19B11C0C19A1092A2
:101920009500109294008091D202811109C080919B
:101930001004813081F080910904813061F00895B4
:1019400080911004813019F1809109048130F9F0FF
:101950001092D202089581E08093D20280910A040D
:1019600090910B0401979093D1028093D002209123
:101970000C0430910D043093CF022093CE02892BBA
:10198000F1F6809180008F7380938000089580919C
:10199000D0029091D102009741F001979093D1022B
:1019A0008093D002892B59F6ECCF8091CE02909192
:1019B000CF02009731F001979093CF028093CE022F
:1019C0000895809180008F7B8093800080918000BB
:1019D00080688093800080910A0490910B0490931A
:1019E000D1028093D00280910C0490910D049093C9
:1019F000CF028093CE02089580910904813009F0CE
:101A00000895809180008F73809380001092090464
:101A1000089590910904992359F19130A9F11092F8
:101A2000870090E0FC01EF5EFB4F20812093860051
:101A300010928900208126952093880070930B04D2
:101A400060930A0450930D0440930C0490930F0488
:101A500080930E04809180008F7B80938000809122
:101A6000800080688093800081E08093090408955D
:101A700090911004913099F6909180009F7390930B
:101A8000800010921004CBCF909180009F739093B0
:101A9000800010920904C3CF259A2D9810926F00F0
:101AA0009FE296BB1092850010928400E0E8F0E07F
:101AB000108280818E7F8083808182608083E1E8D4
:101AC000F0E01082808188608083808180618083E3
:101AD00010928900109288008081887F80838081A5
:101AE000856080831092710098BB109295001092CF
:101AF0009400E0E9F0E0108280818E7F8083808115
:101B00008D7F8083E1E9F0E01082808188608083AE
:101B100080818F7E808398E1909399008AE68093FC
:101B200098008081887F80838081846080838DE1BC
:101B3000809311048AE1809312049093130486E148
:101B40008093140484E18093150482E18093160449
:101B500080E180931704109210041092090481E030
:101B600090E090930B0480930A0490930D0480936B
:101B70000C0410920F0410920E0408959091090421
:101B800091112CC090911004911128C010928700DF
:101B900090E0FC01EF5EFB4F2081209386001092C5
:101BA0008900208126952093880090930F048093CC
:101BB0000E0470930B0460930A0450930D04409339
:101BC0000C04809180008F7B809380008091800046
:101BD00080688093800081E0809310040895909144
:101BE0000904911104C090911004913009F00895F6
:101BF0001092870090E0FC01EF5EFB4F2081209364
:101C00008600109289002081269520938800909369
:101C10000F0480930E04089520910904211104C03B
:101C200020911004213009F0089590930B048093C3
:101C30000A04089520910904211104C02091100480
:101C4000213009F0089590930D0480930C040895B9
:101C500080910904811104C080911004813009F041
:101C60000895809180008F738093800010921004FB
:101C70000895809110040895809109040895D19BDE
:101C800019C0D19A109225011092240140911E048E
:101C90008091D3029091D402413069F020911804D0
:101CA0003091190482179307C9F001969093D402DA
:101CB0008093D302089520911B0430911C04821755
:101CC000930799F71092D4021092D30240931A040A
:101CD00080912101887F8093210108951092D40280
:101CE0001092D30281E080931D0408951092730036
:101CF0008FE28ABB1092250110922401E0E2F1E00C
:101D0000108280818E7F808380818D7F8083E1E25D
:101D1000F1E0108280818860808380818F7E808363
:101D200088E1809329018AE6809328018081887F59
:101D3000808310921E0410921C0410921B041092B7
:101D400019041092180410921A0410921D04089598
:101D500010921E049C013695279536952795ABE782
:101D6000B4E10E94D8499695879590931904809381
:101D7000180410921D0410922501109224018FE284
:101D80008ABBE1E2F1E08081887F8083808184608A
:101D90008083089521E020931E049C0136952795A9
:101DA00036952795ABE7B4E10E94D849969587957B
:101DB00090931C0480931B0410921A041092250126
:101DC000109224018FE28ABBE1E2F1E08081887FFA
:101DD0008083808184608083089580911D04813098
:101DE00011F080E0089510921D04089580911A0466
:101DF000813011F080E0089510921A040895E1E214
:101E0000F1E08081887F8083D19A10922501109221
:101E1000240110921D0410921A0408951092720069
:101E20008FE289BB1092A5001092A400E0EAF0E0D6
:101E3000108280818E7F808380818D7F8083E1EA24
:101E4000F0E0108280818860808380818F7E808333
:101E50008DE38093A90088E08093A8008081887F2B
:101E600080838081826080830895C99B07C0C99A5E
:101E70001092A5001092A40081E0089580E00895DA
:101E8000AF92BF92CF92DF92EF92FF920F931F9388
:101E9000CF93DF931F921F92CDB7DEB7CE0101968D
:101EA0000E94991BE3E1F5E049815A81BCE4AB2E25
:101EB000B1E1BB2ED12C01E010E085E0C82E1FC09F
:101EC000C901805E9B4FDC01CC92C9018F5D9B4FA5
:101ED000DC01CC92CB01880F991F80569B4F205E6E
:101EE0003B4FDC012D933C93D39470964E5F5F4F34
:101EF000BFEFAB1ABB0A87E0E331F807D9F1808165
:101F0000882399F3DA018D919C919F012750310923
:101F1000D9012D913C91820F931FD5012C91820FF5
:101F2000911D27FD9A956D2D70E09B01220F331FA7
:101F3000220F331FD901AE5DBB4F8C93D901AD5D2C
:101F4000BB4F9C93CF010197DC018C91882309F44E
:101F5000B7CF8F70D80102C0AA0FBB1F8A95E2F7D6
:101F6000CD01D901A05EBB4F8C93D901AF5DBB4FB2
:101F70008C93B0CFDD2061F000EA14E024E030E083
:101F80004CE150E064EE74E080911F040E943944FB
:101F90000F900F90DF91CF911F910F91FF90EF90D5
:101FA000DF90CF90BF90AF90089590E1899FF001AE
:101FB0001124EC5FFA4F6687089590E1899FF00144
:101FC0001124EC5FFA4F8685089590E1899FF00116
:101FD0001124EC5FFA4F71876087089590E1899F23
:101FE000F0011124EC5FFA4F80859185089590E10E
:101FF000899FF0011124EC5FFA4F8785089590E1E5
:10200000899FF0011124EC5FFA4F8285089590E1D9
:10201000899FF0011124EC5FFA4F84850895C99BD4
:1020200015C0C99A1092A5001092A4000E941C39F4
:1020300081110DC00E940F120E94DB1A0E945833BA
:102040000E941C39811106C00C94400F08950E9413
:102050008D38F0CF0E949738F7CF2F923F924F9252
:102060005F926F927F928F929F92AF92BF92CF9228
:10207000DF92EF92FF920F931F93CF93DF9300D0E5
:10208000CDB7DEB7482E19820E940642882309F494
:1020900052C12FEF89E698E1215080409040E1F74E
:1020A00000C00000E4E0F5E043E155E025E01182E6
:1020B0001082138212821582148217821682118670
:1020C0001086DA011C92CA010197DC012C93138659
:1020D0001286158614867096405F5F4FB7E0E43035
:1020E000FB0729F71092E0041092E1041092E20439
:1020F0001092E30464EE74E0CE0101960E945B420C
:1021000010921F048981882309F418C1312C9CE2A4
:10211000892E99249394AA24AA9423E0B22EC12C48
:1021200032E0D32E5524539445E0642EEE24E394FC
:10213000F12C62E0262E09C081159C4009F4C4C030
:1021400033948981381608F069C0E32DF0E0EC5132
:10215000FB4F7080872D0E9462408C30910521F0EA
:102160008C32E1E09E0741F7872D0E944436F0E172
:102170007F9EB00111248B010C5F1A4FD80111967C
:102180009C928E921396BC92AE92129715961C92C8
:102190001E9214971796DC92CE921697872D6A831B
:1021A0007B830E94A137F801918780876A817B81B8
:1021B000AB01405F5A4F625F7A4F872D0E94C8344F
:1021C000D8011F965C921F971E966C9280911F04F7
:1021D0008F5F80931F04A70102C0440F551F7A949C
:1021E000E2F7662757FD6095762F8091E004909185
:1021F000E104A091E204B091E304842B952BA62B7B
:10220000B72B8093E0049093E104A093E204B09391
:10221000E30433948981381608F497CF80911F0422
:10222000481609F485C044E650E06AE070E084E0B6
:102230000E94090D109272008FE289BB1092A500D6
:102240001092A4001092A0008091A0008E7F809335
:10225000A0008091A0008D7F8093A0001092A1002B
:102260008091A10088608093A1008091A1008F7E61
:102270008093A1008DE38093A90088E08093A8005B
:102280008091A100887F8093A1008091A10082604D
:102290008093A1000E94A01180911F040F900F90C5
:1022A0000F90DF91CF911F910F91FF90EF90DF90F2
:1022B000CF90BF90AF909F908F907F906F905F90E6
:1022C0004F903F902F900895872D0E944436E0E173
:1022D0007E9EB00111248B010C5F1A4FE4EBF0E0FD
:1022E000D8011196FC93EE931396BC92AE9212977E
:1022F00015961C921E9214971796DC92CE92169702
:10230000872D6A837B830E94A137D80119969C93FD
:102310008E9318976A817B81AB01405F5A4F625F51
:102320007A4F872D0E94C834F801278666864ECFE3
:102330000E94FC0C7FCF0E94D041ABCE80E070CFDA
:102340001092800C1092C20B8FEF8093C20C80937E
:10235000C10980937F0C1092C10C0895CF93C82FB0
:1023600062EC79E00E94951A811102C0C093C10904
:10237000CF9108951092800C1092020C1092010CD3
:102380001092C0091092BF091092C00C1092BF0C9D
:1023900083E08093620D10927F0C8091D10980932D
:1023A000BE091092C20CE3E1F5E080E090E006C0C7
:1023B0007096029627E0E331F20709F1208121307F
:1023C000B9F7DF0117972D913C91DC01AF57B34F5F
:1023D0002D933C93DC01AC5DB24F1D921C92DC014D
:1023E000AF5BB34F1D921C92DC01AC5FB84F1D92E6
:1023F0001C927096029627E0E331F207F9F681E02D
:102400008093C10C80918211806180938211089524
:1024100081E08093C20B08958091C10C08952F92A2
:102420003F924F925F926F927F928F929F92AF9264
:10243000BF92CF92DF92EF92FF920F931F93CF93B1
:10244000DF93CDB7DEB7A3970FB6F894DEBF0FBE0C
:10245000CDBF8091C10C882309F49AC08091010CF2
:102460009091020C4091BF095091C00984179507C3
:1024700008F0A7C08C010F5F1F4F1A8709871093C0
:10248000020C0093010C1091620D1D87133009F4AA
:102490007FC08091BF099091C0098C0120E030E09D
:1024A000098B1A8B2B8B3C8B8C01015011091E8BD5
:1024B0000D8B04EE1CE07CE0A72E75E0B72EE2E465
:1024C000CE2EE7E0DE2EF4E2EF2EFDE0FF2EA4E0BC
:1024D0004A2EA7E05A2EB3EC6B2EBBE07B2E812C4C
:1024E000912C80E090E0212C312C9BA38AA3C20187
:1024F000230194014801A60167017A0189013C0189
:1025000021C0BFEF2B1A3B0AEAA1FBA17096FBA3E7
:10251000EAA3F2E08F0E911C0E5F1F4F20E1A20E86
:10252000B11C32E0E30EF11C42E0C40ED11C52E0BB
:10253000650E711C62E0460E511C8AA19BA181159B
:10254000924031F12AA13BA12C5F3A4F3A83298373
:10255000D9011F968C918130A1F6F801EF5BF34F02
:1025600080819181892B09F06FC0F4018081918174
:10257000D5018D939C93F101EE53F64F80A1A98173
:10258000BA811E968C93BDCF1092C10C1092C20BD3
:10259000A3960FB6F894DEBF0FBECDBFDF91CF91EB
:1025A0001F910F91FF90EF90DF90CF90BF90AF9071
:1025B0009F908F907F906F905F904F903F902F9063
:1025C00008951092020C1092010CE3E1F5E080E016
:1025D00090E006C07096029607E0E331F007E1F064
:1025E00020812130B9F7DF0117972D913C91DC0153
:1025F000AC51B34F2D933C93DC01AC5FB84F2D91A0
:102600003C91DC01AC5DB24F2D933C9370960296E9
:1026100007E0E331F00721F78091620D882309F488
:10262000C7C0813009F492C1823009F45BC18330A4
:1026300009F42CC25E874D8780E090E0DA018A17AA
:102640009B0708F0A5CF16CFBD85B1114AC0F60192
:102650000190F081E02DF88BEF87F701A081B18127
:102660002F853889A21BB30B29853A850E94E7493B
:1026700029893A894B895C890E942F4A8F859889DC
:10268000820F931FD3018D939C93D901B595A79584
:10269000EF85F889AE0FBF1F29853A850E94E7496B
:1026A0009B01AC01A0E9B0E00E94EE492FE030E0D0
:1026B00040E050E00E942F4A69E0559547953795D4
:1026C00027956A95D1F7F801E058F64F31832083BA
:1026D000D4018D919C91820F931FF501918380838A
:1026E0004ACFB13009F448C029853A854D895E89C1
:1026F0002417350709F421C1F101ED53F34F80810F
:1027000081113AC0F6010190F081E02DF88BEF873E
:10271000DF01B195A195B10929853A850E94E74964
:1027200029893A894B895C890E942F4A8F8598892B
:10273000820F931FD3018D939C93D901B595A795D3
:10274000EF85F889AE0FBF1F29853A850E94E749BA
:102750009B01AC01A0E9B0E00E94EE492FE030E01F
:1027600040E050E00E942F4A99E0559547953795F3
:1027700027959A95D1F7ACCFF201A081B181298537
:102780003A850E94E74929893A894B895C890E94E8
:102790002F4AD4018D919C91820F931FF501918353
:1027A0008083D7018D919C91F30191838083E3CE47
:1027B00081E08093620D2091220D3091230D0091D4
:1027C000E20C1091E30C1A830983C801880F991F4A
:1027D0008901081B190B1E870D871093C0090093F0
:1027E000BF0909811A812017310709F4E5C0A80142
:1027F000B1E42B2EBCE03B2E10E8612E19E0712EC7
:1028000002E4802E07E0902E83EC482E8BE0582EB9
:1028100003EC1CE063E175E0C901841B950B9C018E
:1028200040E050E029873A874B875C8795E0C92EC6
:10283000D12CE12CF12C788B6F8719C0EF85F889AA
:102840007096F88BEF87F2E02F0E311C22E0620EBB
:10285000711C32E0830E911C42E0440E511C0F5F4C
:102860001F4F6F8578896351774009F44BC0AF855E
:10287000B8898C91813011F7F8018081813009F499
:1028800046C0F401A081B181F101A080B180F301C3
:1028900080819181A81AB90A29813A810E94E74969
:1028A0009B01AC01660F771F881F991F620F731F72
:1028B000841F951F660F771F881F991F660F771F4C
:1028C000881F991FA70196010E942F4ABB2757FD19
:1028D000BA95A52F942F832FA81AB90AD201AD92C9
:1028E000BC92ACCF8091BF0C9091C00C009709F4C2
:1028F000E1C023E02093620D9093C0098093BF094B
:102900009E878D8780E090E0AD85BE8598CEF101F1
:10291000A081B181F30180819181A81BB90B2D8524
:102920003E850E94E74929853A854B855C850E9452
:102930002F4AD2012D933C9381CFF801EF57F34FEB
:1029400080819181D5018D939C9315CE82E08093F7
:10295000620D7091E20C6091E30C7093BF0960937B
:10296000C009A3ECBBE0E3E1F5E080E090E08D017D
:1029700009C0709602960E5F1F4FB7E0E331FB0768
:1029800009F47DC020812130A1F79C012F5B334FDA
:10299000D9012D913C91D8014D915C91241B350BAF
:1029A000AC014058564FDA014D915C91241B350B18
:1029B000D8012D933C93DDCFB3ECCB2EBBE0DB2EC7
:1029C00013ECE12E1CE0F12E83E195E000E010E035
:1029D00045E0442E512C612C712C49011C0111C081
:1029E000F0E12F0E311C22E0C20ED11C0E5F1F4FF2
:1029F0003FEFE31AF30A43E1241647E0340609F4F3
:102A000081CFD1018C91813059F7F70180818130DC
:102A1000C9F1F801EE5BF84FA081B181F801EF5BDD
:102A2000F34FA080B180F801E058F64F808191818A
:102A3000A81AB90A94010E94E7499B01AC01660FEC
:102A4000771F881F991F620F731F841F951F660FC2
:102A5000771F881F991F660F771F881F991FA30173
:102A600092010E942F4ABB2757FDBA95A52F942F9C
:102A7000832FA81AB90AF601B182A082B1CF7D874F
:102A80006E8740CFD6011D921C92AACF1092620D84
:102A9000A4E2BDE0E3E1F5E006C07096129607E01F
:102AA000E331F00749F080818130B9F711961C922B
:102AB0001E92F3CF1092620D8091800C813009F448
:102AC00063CD80917F0C8F5F80937F0CA091D6099E
:102AD000A81708F0C8C080E092E0E0E8F7E0A2ECB8
:102AE000B9E001900D920197E1F78091C20C9091AD
:102AF000C109981721F09091D1099093BE0991E0F6
:102B000090937F0C8093C109A091D609B1E0AB17D7
:102B100009F484C26B2F70E08B010150110900246D
:102B2000169507950794169507950794102F002D75
:102B3000A8014E53564FFA01E258FF4F8081209171
:102B4000D809289FC0011124969587959295829562
:102B50008F7089279F7089279093C00C8093BF0C3A
:102B6000FA01E158FF4F3081329F900111243695D0
:102B70002795329522952F7023273F702327211503
:102B8000310511F421E030E04091800C413009F42E
:102B90005EC2892B09F4C4C1AB1709F456C3E3EC38
:102BA0004E2EECE05E2EA1E8BCE07B010024F69402
:102BB000E7940794F694E7940794FE2CE02CA70181
:102BC0004E5F554F7A0180EC582F56034001579FB6
:102BD000900C1124E3E1F5E080E090E059013D0123
:102BE000A70168010EC07096BFEF4B1A5B0A0296F0
:102BF00002E0600E711C4E5F5F4F17E0E331F1079A
:102C0000A1F12081213079F79C012058364FD9015C
:102C10001D921C929A01280D391D2C0D3D1DD901C4
:102C20002D913C9136FF18C0D3012D913C91B901F3
:102C3000E12CF12C8C010C51134FD8016D937C9336
:102C4000D3012D933C939C012F5B334FD901ED921F
:102C5000FC92D2011C92C7CFD3016D917C91790176
:102C6000E61AF70AE7CFB82F52CF95013093230D1C
:102C70002093220D8091DA0990E0AC01440F551F9A
:102C80004217530708F4E0C0C9010197969587954C
:102C90009093E30C8093E20C009709F0D9C0109256
:102CA000230D1092220D1E861D8619821A821B8208
:102CB0001C821D821E821F82188661E06F87412C54
:102CC000512C198A1D8A1F8A188E198E71E07A8FED
:102CD0001B8E1C8E1D8E1E8E1F8E18A219A272E4D2
:102CE000872E77E0972EE3EC6E2EECE07E2E03E14C
:102CF00015E0212C312C1BA30AA315C00AA11BA18E
:102D0000005F1F4F1BA30AA312E0810E911C22E05B
:102D1000220E311C3FEF631A730A4AA15BA1435193
:102D2000574009F484C0AAA1BBA18C91813031F72E
:102D3000F101EC5DF24F31812081932F990F990BB6
:102D4000A980BA80CB80DC80ED80FE800F81188561
:102D5000492F592F692F792F892F0E94854A5901B0
:102D60006A017B018C01F101EF5BF34FA081B1811E
:102D700020E03AE00E94E7492CE030E040E050E0FB
:102D80000E942F4ADA01C901550F220B322FA901E7
:102D900029873A874B875C87F3012081211122C064
:102DA0009C01AD016985762F862F962F0E94A64B38
:102DB000AA8CBB8CCC8CDD8CEE8CFF8C08A119A16D
:102DC0000E94484AD4012C9311963C93822F932F52
:102DD0008115F4E09F070CF1EFEFF3E0D401ED93E0
:102DE000FC938CCF9C01AD016985762F862F962FA1
:102DF0000E94A64BAF84B42CC52CD988ED88FF88DF
:102E0000088D198D0E94484AF40120833183822F56
:102E1000932F8115F4E09F07FCF681309C4F0CF056
:102E20006DCFE1E0FCEFD401ED93FC9367CF8D858E
:102E30009E859093C0098093BF098091010C909169
:102E4000020CAD85BE85FBCB9093E30C8093E20C26
:102E50004901A12CB12C880C991CAA1CBB1CC12CAB
:102E6000D12C76019E878D87A0E0B0E0880F991F56
:102E7000AA1FBB1F8C019D0140E050E0BA0189836D
:102E80001A832B833C834D835E836F837887940101
:102E9000A501B601C7015801CB80DC80E12CF12CE3
:102EA00000E010E00E94A64B01E00E94844B722ECD
:102EB000832E942EB52F662E372EF82FE92F00E0A3
:102EC0000E949D4B2F87432E542E598B6D8B7F8BE9
:102ED000888F998F7A8E8B8E9C8EBD8F6E8E3F8E53
:102EE000F8A3E9A3452DA0E00E94AF4B49F411E0FF
:102EF0001F87412C512C198A1D8A1F8A188E198E02
:102F0000272D382D492D5B2F662D732D8F2F9E2F4A
:102F1000A0E00E94AF4B09F0E2CE21E02A8FD8CE8C
:102F2000AB1709F42AC1A3ECEA2EACE0FA2EB1E803
:102F30004B2EBCE05B2EDB010024B695A7950794D1
:102F4000B695A7950794BA2FA02DAE5FB54F80EC2C
:102F5000482F46034001479F900C1124E3E1F5E020
:102F600080E090E0772473945901A7011D01680166
:102F70000FC070964F5F5F4F0296B2E04B0E511C30
:102F800002E0200E311C17E0E331F10709F46DCEA9
:102F90002081213071F79C012058364FD9011D92B4
:102FA0001C929101280D391D2C0D3D1DD9012D912B
:102FB0003C9136FF2CC0D2012D913C91B901E12CFE
:102FC000F12C8C010C51134FD8016D937C93D201DD
:102FD0002D933C938C010F5B134FD801ED92FC9223
:102FE000D1010D911C9116FD0FC06217730730F4CB
:102FF0002017310718F4DA017C92BBCF2617370768
:1030000018F402171307B8F3DA011C92B2CFD201F9
:103010006D917C917901E61AF70AD3CF8091C20BAA
:10302000813009F4A0C08091BE0981508093BE090F
:10303000882309F493C08091C1098093C20C811147
:1030400069C081E08093800CB0917F0C63CD892BA7
:1030500009F046C1AB1709F4F5C143EC442E4CE02E
:10306000542EA1E8BCE07B010024F694E794079479
:10307000F694E7940794FE2CE02CA7014E5F554F81
:103080007A0180EC582F56034001579F900C112471
:10309000E3E1F5E080E090E059013D01A7010FC0B8
:1030A0007096BFEF4B1A5B0A029622E0620E711C0B
:1030B0004E5F5F4F37E0E331F30709F4D6CD20814F
:1030C000213071F79C012058364FD9011D921C9276
:1030D0009A01280D391D200F311FD9012D913C91E6
:1030E000D30136FF35C02D913C917901C12CD12CF3
:1030F000BC016C51734FDB01ED92FC92D3012D9317
:103100003C939C012F5B334FD901CD92DC92D201CD
:103110001C92C6CF9091C10998132AC080E092E01A
:10312000E2ECF9E0A0E8B7E001900D920197E1F739
:1031300080918F07882321F080919407811103C02B
:1031400081E08093800CB0917F0CA091D609E2CCF5
:10315000ED90FC906901CE18DF08CACF8091DB09A1
:103160008093C20C6CCF8091DC098093C20C67CF36
:1031700060E877E00E94951ADBCF43EC5CE0A1E8C1
:10318000BCE00E53164FE3E1F5E080E090E0BB2495
:10319000B39469013A014D010DC07096BFEF6B1AEF
:1031A0007B0A029622E0820E911C37E0E331F3079E
:1031B00009F449C04081413081F7AC014058564F75
:1031C000DA011D921C92A801480F591F405C5F4F05
:1031D000DA014D915C9156FF2FC0D4014D915C9165
:1031E000BA01E12CF12C9C012C51334FD9016D9384
:1031F0007C93D4014D935C939C012F5B334FD90199
:10320000ED92FC929C012054384FD901ED90FC9036
:10321000F6FC0FC06417750730F44E155F0518F4FF
:10322000D301BC92BACF4617570718F4E416F50637
:10323000B8F3D3011C92B1CFD4016D917C917A0186
:10324000E61AF70AD0CF960111CD43EC5CE0A1E875
:10325000BCE00E53164FE3E1F5E080E090E04A0158
:1032600069015D010CC07096BFEF8B1A9B0A029634
:1032700022E0A20EB11C37E0E331F30721F34081D5
:10328000413089F7AC014058564FDA011D921C922B
:10329000A801480F591F405C5F4FDA014D915C91C6
:1032A000D50156FF17C04D915C91BA01E12CF12C6C
:1032B0009C012C51334FD9016D937C93D5014D93D3
:1032C0005C93AC014F5B534FDA01ED92FC92D40159
:1032D0001C92C9CF6D917C917A01E61AF70AE8CF6A
:1032E000AB1709F465C083EC482E8CE0582EA1E89A
:1032F000BCE07B010024F694E7940794F694E794ED
:103300000794FE2CE02CC7018E5F954F7C0180EC6A
:10331000482F46034001479F900C1124E3E1F5E05C
:1033200080E090E059013D01A70178010FC070963F
:10333000BFEF4B1A5B0A029602E0600E711C4E5FF3
:103340005F4F17E0E331F10709F48FCC2081213082
:1033500071F79C012058364FD9011D921C929A0199
:10336000280D391D2E0D3F1DD9012D913C9136FFA1
:1033700018C0D3012D913C91B901C12CD12C8C01E5
:103380000C51134FD8016D937C93D3012D933C9333
:103390009C012F5B334FD901CD92DC92D2011C925C
:1033A000C6CFD3016D917C916901C61AD70AE7CFC8
:1033B000A1E8BCE043EC5CE00E53164FE3E1F5E01E
:1033C00080E090E05D014A010DC070960296B2E087
:1033D000AB0EB11C4FEF841A940A57E0E331F507A6
:1033E00009F444CC4081413081F7AC014058564F3C
:1033F000DA011D921C92A801480F591F405C5F4FD3
:10340000DA014D915C91D50156FF16C04D915C914A
:10341000BA01E12CF12CDC01AC51B34F6D937C93DC
:10342000D5014D935C93AC014F5B534FDA01ED92A4
:10343000FC92D4011C92C9CF6D917C917A01E61A5D
:10344000F70AE9CFA1E8BCE043EC5CE00E53164F6D
:10345000E3E1F5E080E090E05D014A010DC0709687
:103460000296B2E0AB0EB11C4FEF841A940A57E0FB
:10347000E331F50709F4FACB4081413081F7AC0123
:103480004058564FDA011D921C92A801480F591F4F
:10349000405C5F4FDA014D915C9156FF17C0D5013A
:1034A0004D915C91BA01E12CF12CDC01AC51B34F90
:1034B0006D937C93D5014D935C93AC014F5B534F5F
:1034C000DA01ED92FC92D4011C92C9CFD5016D9125
:1034D0007C917A01E61AF70AE8CFFC0120E030E09F
:1034E00090E08191980F2F5F3F4F211582E03807C0
:1034F000C1F781E0911180E0089520E032E0FC0105
:10350000A901119241505040E1F70895FB0120E0DC
:1035100030E0DC01A20FB31F4C9141932F5F3F4F6E
:10352000211542E03407A9F70895EF92FF920F9317
:103530001F93CF93DF93F62EE72E082F10E020E0A5
:1035400030E000511F4F2F4F3F4F89E0000F111FF8
:10355000221F331F8A95D1F7C62FD72F80E090E026
:10356000DC01AC01BD01400F511F621F731F6BBF17
:10357000FA01479149930196A11DB11D811542E0C1
:103580009407A105B10569F7EF2DFE2D20E080E03D
:1035900090E03191230F0196811532E09307C9F72E
:1035A00081E0211180E08195DF91CF911F910F91F2
:1035B000FF90EF9008954F925F926F927F928F925B
:1035C0009F92AF92BF92CF92DF92EF92FF921F93A2
:1035D000CF93DF938091A50D813081F0DF91CF9162
:1035E0001F91FF90EF90DF90CF90BF90AF909F9092
:1035F0008F907F906F905F904F9008951091630D22
:10360000113061F783E00E947A0C2091A80D30916F
:10361000A90D7C01E21AF30A84E00E947A0CC091A1
:10362000A60DD091A70D662777276E197F09C81BB5
:10363000D90B68338FEF78070CF46EC0693C7105C5
:1036400014F01093640D882777FD8095982F0E94C1
:10365000CE4C6B017C0126E234EB47E95DE30E942E
:103660007E4D2B013C0129E33EE843E65EE3C701C2
:10367000B6010E947E4D4B015C01BE01882777FD9B
:103680008095982F0E94CE4C6B017C012DEC3CEC78
:103690004CE45EE30E947E4D0E94A04C7093760D38
:1036A0006093750D7093780D6093770DC301B2012F
:1036B0000E94A04C70937E0D60937D0DC301B201FA
:1036C00090580E94A04C7093800D60937F0DC501AF
:1036D000B4010E94A04C7093820D6093810DC501CE
:1036E000B40190580E94A04C7093840D6093830D98
:1036F0002DEC3CEC4CEC5DE3C701B6010E947E4D25
:1037000090580E94A04C7093860D6093850D709325
:10371000880D6093870D62CF82E08093640D93CF14
:10372000E82FF0E0EE0FFF1FEB59F24F80819181FF
:10373000089525E63DE0FC01318320830895109231
:10374000A90D1092A80D1092A70D1092A60D10921F
:10375000630D1092A50D1092640D80E4E5E6FDE086
:10376000DF011D928A95E9F708958091640D10920A
:10377000640D08951092640D08952F923F924F9218
:103780005F926F927F928F929F92AF92BF92CF92F1
:10379000DF92EF92FF920F931F93CF93DF93CDB7FA
:1037A000DEB7E4970FB6F894DEBF0FBECDBF109220
:1037B000A90D1092A80D1092A70D1092A60D82E3EC
:1037C00090E00E94A80E7E0185E1E80EF11CFE014A
:1037D0003196FAA7E9A71E01F9E22F0E311C812CC0
:1037E000912C54012401350104C00E943F0E0E9417
:1037F00027080E94ED0E8823C1F383E00E947A0C13
:103800008C01F701819391937F0184E00E947A0CEF
:103810006C01E9A5FAA581939193FAA7E9A7B801EC
:1038200080E090E00E94CC4C9B01AC01C301B2014E
:103830000E94D04B2B013C01B60180E090E00E9439
:10384000CC4C9B01AC01C501B4010E94D04B4B0193
:103850005C01E214F30469F60E94FF0E20E030E000
:1038600040E251E4C301B2010E94384C6B017C017B
:1038700020E030E040E251E4C501B4010E94384C40
:1038800069A77AA78BA79CA76D897E8980E090E0C5
:103890000E94CC4CA70196010E94CF4B9B01AC012A
:1038A0000E947E4D20E030E0A9010E94D04B2B0108
:1038B0003C0169817A8180E090E00E94CC4C29A58E
:1038C0003AA54BA55CA50E94CF4B9B01AC010E9481
:1038D0007E4D20E030E0A9010E94D04B4B015C01FD
:1038E0006F89788D80E090E00E94CC4CA701960112
:1038F0000E94CF4B9B01AC010E947E4DA30192011F
:103900000E94D04B2B013C016B817C8180E090E0D8
:103910000E94CC4C29A53AA54BA55CA50E94CF4B93
:103920009B01AC010E947E4D9B01AC01C501B4011D
:103930000E94D04B4B015C01698D7A8D80E090E054
:103940000E94CC4CA70196010E94CF4B9B01AC0179
:103950000E947E4D9B01AC01C301B2010E94D04B7D
:103960002B013C016D817E8180E090E00E94CC4C77
:1039700029A53AA54BA55CA50E94CF4B9B01AC01A4
:103980000E947E4D9B01AC01C501B4010E94D04B49
:103990004B015C016B8D7C8D80E090E00E94CC4CF3
:1039A000A70196010E94CF4B9B01AC010E947E4D66
:1039B0009B01AC01C301B2010E94D04B2B013C0121
:1039C0006F81788580E090E00E94CC4C29A53AA5D3
:1039D0004BA55CA50E94CF4B9B01AC010E947E4D84
:1039E0009B01AC01C501B4010E94D04B4B015C01AD
:1039F0006D8D7E8D80E090E00E94CC4CA7019601F9
:103A00000E94CF4B9B01AC010E947E4D9B01AC01FB
:103A1000C301B2010E94D04B2B013C0169857A851C
:103A200080E090E00E94CC4C29A53AA54BA55CA56E
:103A30000E94CF4B9B01AC010E947E4D9B01AC01CB
:103A4000C501B4010E94D04B4B015C016F8D78A180
:103A500080E090E00E94CC4CA70196010E94CF4BE1
:103A60009B01AC010E947E4D9B01AC01C301B201E0
:103A70000E94D04B2B013C016B857C8580E090E05F
:103A80000E94CC4C29A53AA54BA55CA50E94CF4B22
:103A90009B01AC010E947E4D9B01AC01C501B401AC
:103AA0000E94D04B4B015C0169A17AA180E090E0BB
:103AB0000E94CC4CA70196010E94CF4B9B01AC0108
:103AC0000E947E4D9B01AC01C301B2010E94D04B0C
:103AD0002B013C016D857E8580E090E00E94CC4CFE
:103AE00029A53AA54BA55CA50E94CF4B9B01AC0133
:103AF0000E947E4D9B01AC01C501B4010E94D04BD8
:103B00004B015C016BA17CA180E090E00E94CC4C59
:103B1000A70196010E94CF4B9B01AC010E947E4DF4
:103B20009B01AC01C301B2010E94D04B2B013C01AF
:103B30006F85788980E090E00E94CC4C29A53AA559
:103B40004BA55CA50E94CF4B9B01AC010E947E4D12
:103B50009B01AC01C501B4010E94D04B4B015C013B
:103B60006DA17EA180E090E00E94CC4CA70196015F
:103B70000E94CF4B9B01AC010E947E4D9B01AC018A
:103B8000C301B2010E94D04B6DA77EA78FA798AB4F
:103B900069897A8980E090E00E94CC4C29A53AA5F9
:103BA0004BA55CA50E94CF4B9B01AC010E947E4DB2
:103BB0009B01AC01C501B4010E94D04B69AB7AAB4B
:103BC0008BAB9CAB6FA178A580E090E00E94CC4CC1
:103BD000A70196010E94CF4B2B013C016B897C8988
:103BE00080E090E00E94CC4C29A53AA54BA55CA5AD
:103BF0000E94CF4B4B015C01A3019201C301B201B2
:103C00000E947E4D2DA53EA54FA558A90E94D04BE0
:103C100020E030E040E251E40E94384C0E94E54D43
:103C20002B013C01A5019401C501B4010E947E4D08
:103C300029A93AA94BA95CA90E94D04B20E030E009
:103C400040E251E40E94384C0E94E54D4B015C017A
:103C500020E030E040EA51E4C301B2010E94344C5C
:103C600087FF0AC020E030E040EA51E4C501B4011A
:103C70000E94344C87FD26C044E650E06AE070E0C4
:103C800084E00E94090D80917C118F7780937C11D4
:103C900080E0E4960FB6F894DEBF0FBECDBFDF9193
:103CA000CF911F910F91FF90EF90DF90CF90BF9039
:103CB000AF909F908F907F906F905F904F903F90CC
:103CC0002F90089581E08093630DC701B6010E9493
:103CD000A04C7093A90D6093A80D69A57AA58BA53A
:103CE0009CA50E94A04C7093A70D6093A60D0E9406
:103CF000FC0C81E0CECF81E08093A50D0895109259
:103D0000A50D08958091A50D08950F931F93CF934E
:103D1000DF93EC011091E302113091F108F442C0FD
:103D2000123081F01330C1F50E940C1281112CC0A9
:103D30001092AE0D1092E30281E0DF91CF911F91BE
:103D40000F9108950E940C1281111EC01091AE0DAA
:103D50008091AD0D113009F454C0882309F44AC094
:103D60008A810E94AE111092AD0D0E94BA1182E0BC
:103D70008093E30280E0DF91CF911F910F9108952E
:103D80000E940C12882321F11093E30280E0DF915E
:103D9000CF911F910F91089580E0DF91CF911F91F6
:103DA0000F9108958091AC0D882301F189810E94C3
:103DB000AE110E94BA118091AC0D8093AD0D81E0DF
:103DC0008093E30280E0DF91CF911F910F910895DE
:103DD0000091AE0D8091AD0D013009F18111C0CF80
:103DE0008B810E94AE111093AD0DBFCF88810E94D0
:103DF000AE11DFCF8B810E94AE1181E08093AD0DBB
:103E0000B4CF811114C08D810E94AE111093AD0DFD
:103E10000E94BA1183E08093E30280E0B8CF811161
:103E200006C08D810E94AE110093AD0DF1CF8C8143
:103E30000E94AE111092AD0DEBCF1F93CF93DF9385
:103E4000EC011091E202113029F1A0F1123079F069
:103E5000133059F50E940C12811120C01092AE0D42
:103E60001092E20281E0DF91CF911F9108950E94AC
:103E70000C12811113C08091AD0D81115FC0809132
:103E8000AE0D813009F447C08B810E94AE111093B2
:103E9000E20233C00E940C12882309F11093E2025F
:103EA00080E0DF91CF911F91089580E0DF91CF9165
:103EB0001F9108958091AC0D882349F189810E945A
:103EC000AE110E94BA118091AC0D8093AD0D81E0CE
:103ED0008093E20280E0DF91CF911F91089580915D
:103EE000AD0D81111FC08091AE0D8130A1F08B818D
:103EF0000E94AE1182E08093E20281E08093AD0DDA
:103F00000E94BA1180E0DF91CF911F9108958881BE
:103F10000E94AE11D6CF8D810E94AE1183E08093B6
:103F2000E202EBCF8A810E94AE111092AD0D0E9489
:103F3000BA1182E08093E20280E0B3CF8A810E94CE
:103F4000AE111092AD0D0E94BA111093E20280E002
:103F5000A8CF1F93CF93DF93EC011091E1021130B2
:103F600031F1A8F1123079F0133061F50E940C1292
:103F7000811121C01092AE0D1092E10281E0DF911B
:103F8000CF911F9108950E940C12811114C080914D
:103F9000AD0D813009F057C08091AE0D813009F42C
:103FA0005EC08A810E94AE111093E10233C00E946C
:103FB0000C12882309F11093E10280E0DF91CF9188
:103FC0001F91089580E0DF91CF911F910895809116
:103FD000AC0D882341F189810E94AE110E94BA1173
:103FE0008091AC0D8093AD0D81E08093E10280E083
:103FF000DF91CF911F9108958091AD0D8130B9F47B
:104000008091AE0D813059F18A810E94AE1182E01B
:104010008093E1021092AD0D0E94BA1180E0DF9111
:10402000CF911F91089588810E94AE11D7CF8B81C7
:104030000E94AE111093AD0D0E94BA1182E08093E0
:10404000E10280E0BBCF8B810E94AE1181E08093C2
:10405000AD0D0E94BA111093E10280E0AFCF8C81C8
:104060000E94AE1183E08093E102D4CF8091AD0D28
:10407000882319F01092AD0D089581E08093AD0D65
:104080000895681B790B683F88EF780744F0693022
:1040900087E0780714F060517E40CB010895605F9F
:1040A000714FCB010895680F791F77FD08C061310A
:1040B0008EE0780714F060517E40CB010895605F78
:1040C000714FCB0108951092AE0D1092AC0D10926D
:1040D000AD0D1092AB0D1092AA0D089581E0809362
:1040E000AE0D08958093AC0D08951092AB0D109213
:1040F000AA0D08958091AA0D9091AB0D0895CF93CC
:10410000DF93C091E302C13071F1D8F1C23071F098
:10411000C33099F50E940C12811129C01092AE0D86
:104120001092E30281E0DF91CF9108950E940C127A
:1041300081111DC0C091AE0D8091AD0DC13009F44B
:1041400051C0882309F446C0809106020E94AE1136
:104150001092AD0D0E94BA1182E08093E30280E0DC
:10416000DF91CF9108950E940C128823F9F0C0933B
:10417000E30280E0DF91CF91089580E0DF91CF915D
:1041800008958091AC0D882301F1809105020E9471
:10419000AE110E94BA118091AC0D8093AD0D81E0FB
:1041A0008093E30280E0DF91CF910895D091AE0D2E
:1041B0008091AD0DD13029F18111C6CF80910702D8
:1041C0000E94AE11C093AD0DC5CF809104020E9434
:1041D000AE11DFCF809107020E94AE1181E0809383
:1041E000AD0DB8CF811116C0809109020E94AE11A9
:1041F000C093AD0D0E94BA1183E08093E30280E08A
:10420000B9CF811107C0809109020E94AE11D093ED
:10421000AD0DF0CF809108020E94AE111092AD0D4D
:10422000E9CFCF93DF93C091E302C13071F1D8F1B0
:10423000C23071F0C33099F50E940C12811129C06F
:104240001092AE0D1092E30281E0DF91CF910895BC
:104250000E940C1281111DC0C091AE0D8091AD0D58
:10426000C13009F451C0882309F446C080910C0282
:104270000E94AE111092AD0D0E94BA1182E080939F
:10428000E30280E0DF91CF9108950E940C12882311
:10429000F9F0C093E30280E0DF91CF91089580E0D0
:1042A000DF91CF9108958091AC0D882301F1809129
:1042B0000B020E94AE110E94BA118091AC0D809346
:1042C000AD0D81E08093E30280E0DF91CF9108950E
:1042D000D091AE0D8091AD0DD13029F18111C6CFB5
:1042E00080910D020E94AE11C093AD0DC5CF80919B
:1042F0000A020E94AE11DFCF80910D020E94AE1122
:1043000081E08093AD0DB8CF811116C080910F026E
:104310000E94AE11C093AD0D0E94BA1183E080934C
:10432000E30280E0B9CF811107C080910F020E94A3
:10433000AE11D093AD0DF0CF80910E020E94AE1160
:104340001092AD0DE9CFCF93C091E202C13021F1BF
:1043500078F1C23069F0C33041F50E940C1281112E
:104360001FC01092AE0D1092E20281E0CF9108952D
:104370000E940C12811114C08091AD0D81115DC09D
:104380008091AE0D813009F443C0809113020E94E8
:10439000AE11C093E2022FC00E940C128823E1F0FC
:1043A000C093E20280E0CF91089580E0CF9108951C
:1043B0008091AC0D882339F1809111020E94AE11D9
:1043C0000E94BA118091AC0D8093AD0D81E0809375
:1043D000E20280E0CF9108958091AD0D811120C05F
:1043E0008091AE0D8130A1F0809113020E94AE1138
:1043F00082E08093E20281E08093AD0D0E94BA11C9
:1044000080E0CF910895809110020E94AE11D8CF24
:10441000809115020E94AE1183E08093E202EBCFFF
:10442000809112020E94AE111092AD0D0E94BA113D
:1044300082E08093E20280E0B6CF809112020E9477
:10444000AE111092AD0D0E94BA11C093E20280E04D
:10445000AACFCF93C091E102C13029F180F1C230DF
:1044600069F0C33049F50E940C12811120C01092EE
:10447000AE0D1092E10281E0CF9108950E940C12DE
:10448000811115C08091AD0D813009F054C080912B
:10449000AE0D813009F45CC0809118020E94AE110B
:1044A000C093E1022FC00E940C128823E1F0C09358
:1044B000E10280E0CF91089580E0CF91089580914E
:1044C000AC0D882331F1809117020E94AE110E9439
:1044D000BA118091AC0D8093AD0D81E08093E10223
:1044E00080E0CF9108958091AD0D8130B9F4809135
:1044F000AE0D813069F1809118020E94AE1182E008
:104500008093E1021092AD0D0E94BA1180E0CF912C
:104510000895809116020E94AE11D9CF80911902A0
:104520000E94AE11C093AD0D0E94BA1182E080933B
:10453000E10280E0BFCF809119020E94AE1181E0BC
:104540008093AD0D0E94BA11C093E10280E0B2CF1A
:1045500080911A020E94AE1183E08093E102D2CFD3
:10456000CF93C091E202C13021F178F1C23069F0FD
:10457000C33041F50E940C1281111FC01092AE0D84
:104580001092E20281E0CF9108950E940C128111F5
:1045900014C08091AD0D81115DC08091AE0D813050
:1045A00009F443C080911F020E94AE11C093E20241
:1045B0002FC00E940C128823E1F0C093E20280E039
:1045C000CF91089580E0CF9108958091AC0D88231C
:1045D00039F180911D020E94AE110E94BA118091A2
:1045E000AC0D8093AD0D81E08093E20280E0CF912D
:1045F00008958091AD0D811120C08091AE0D813064
:10460000A1F080911F020E94AE1182E08093E2022D
:1046100081E08093AD0D0E94BA1180E0CF910895A2
:1046200080911C020E94AE11D8CF809121020E947D
:10463000AE1183E08093E202EBCF80911E020E94D4
:10464000AE111092AD0D0E94BA1182E08093E20289
:1046500080E0B6CF80911E020E94AE111092AD0D87
:104660000E94BA11C093E20280E0AACFCF93C0911A
:10467000E102C13029F180F1C23069F0C33049F55F
:104680000E940C12811120C01092AE0D1092E10216
:1046900081E0CF9108950E940C12811115C0809184
:1046A000AD0D813009F054C08091AE0D813009F418
:1046B0005CC0809124020E94AE11C093E1022FC021
:1046C0000E940C128823E1F0C093E10280E0CF91B8
:1046D000089580E0CF9108958091AC0D882331F149
:1046E000809123020E94AE110E94BA118091AC0DFC
:1046F0008093AD0D81E08093E10280E0CF91089539
:104700008091AD0D8130B9F48091AE0D813069F1A9
:10471000809124020E94AE1182E08093E102109207
:10472000AD0D0E94BA1180E0CF91089580912202D0
:104730000E94AE11D9CF809125020E94AE11C09384
:10474000AD0D0E94BA1182E08093E10280E0BFCFFC
:10475000809125020E94AE1181E08093AD0D0E94F0
:10476000BA11C093E10280E0B2CF809126020E948C
:10477000AE1183E08093E102D2CFCF93C091E202E9
:10478000C13021F178F1C23069F0C33041F50E94A7
:104790000C1281111FC01092AE0D1092E20281E046
:1047A000CF9108950E940C12811114C08091AD0D1B
:1047B00081115DC08091AE0D813009F443C08091BC
:1047C0002B020E94AE11C093E2022FC00E940C1275
:1047D0008823E1F0C093E20280E0CF91089580E069
:1047E000CF9108958091AC0D882339F180912902F1
:1047F0000E94AE110E94BA118091AC0D8093AD0D54
:1048000081E08093E20280E0CF9108958091AD0D28
:10481000811120C08091AE0D8130A1F080912B02DA
:104820000E94AE1182E08093E20281E08093AD0DA0
:104830000E94BA1180E0CF910895809128020E94D1
:10484000AE11D8CF80912D020E94AE1183E08093EB
:10485000E202EBCF80912A020E94AE111092AD0DC0
:104860000E94BA1182E08093E20280E0B6CF80918C
:104870002A020E94AE111092AD0D0E94BA11C0938F
:10488000E20280E0AACFCF93C091E102C13029F1CA
:1048900080F1C23069F0C33049F50E940C128111D9
:1048A00020C01092AE0D1092E10281E0CF910895E8
:1048B0000E940C12811115C08091AD0D813009F05C
:1048C00054C08091AE0D813009F45CC080913002FB
:1048D0000E94AE11C093E1022FC00E940C128823E7
:1048E000E1F0C093E10280E0CF91089580E0CF91A4
:1048F00008958091AC0D882331F180912F020E94A0
:10490000AE110E94BA118091AC0D8093AD0D81E083
:104910008093E10280E0CF9108958091AD0D8130C8
:10492000B9F48091AE0D813069F1809130020E941E
:10493000AE1182E08093E1021092AD0D0E94BA1197
:1049400080E0CF91089580912E020E94AE11D9CFC0
:10495000809131020E94AE11C093AD0D0E94BA1138
:1049600082E08093E10280E0BFCF809131020E941B
:10497000AE1181E08093AD0D0E94BA11C093E102A7
:1049800080E0B2CF809132020E94AE1183E080932A
:10499000E102D2CFCF93C091E202C13021F178F190
:1049A000C23069F0C33041F50E940C1281111FC062
:1049B0001092AE0D1092E20281E0CF9108950E9414
:1049C0000C12811114C08091AD0D81115DC08091D8
:1049D000AE0D813009F443C0809137020E94AE11C0
:1049E000C093E2022FC00E940C128823E1F0C09312
:1049F000E20280E0CF91089580E0CF910895809108
:104A0000AC0D882339F1809135020E94AE110E94CD
:104A1000BA118091AC0D8093AD0D81E08093E202DC
:104A200080E0CF9108958091AD0D811120C08091DB
:104A3000AE0D8130A1F0809137020E94AE1182E06C
:104A40008093E20281E08093AD0D0E94BA1180E074
:104A5000CF910895809134020E94AE11D8CF8091F9
:104A600039020E94AE1183E08093E202EBCF809185
:104A700036020E94AE111092AD0D0E94BA1182E072
:104A80008093E20280E0B6CF809136020E94AE11A0
:104A90001092AD0D0E94BA11C093E20280E0AACF3D
:104AA000CF93C091E102C13029F180F1C23069F0A9
:104AB000C33049F50E940C12811120C01092AE0D36
:104AC0001092E10281E0CF9108950E940C128111B1
:104AD00015C08091AD0D813009F054C08091AE0DAC
:104AE000813009F45CC080913C020E94AE11C093F9
:104AF000E1022FC00E940C128823E1F0C093E10272
:104B000080E0CF91089580E0CF9108958091AC0D21
:104B1000882331F180913B020E94AE110E94BA11AC
:104B20008091AC0D8093AD0D81E08093E10280E037
:104B3000CF9108958091AD0D8130B9F48091AE0D83
:104B4000813069F180913C020E94AE1182E0809335
:104B5000E1021092AD0D0E94BA1180E0CF9108954C
:104B600080913A020E94AE11D9CF80913D020E94FD
:104B7000AE11C093AD0D0E94BA1182E08093E102A4
:104B800080E0BFCF80913D020E94AE1181E0809312
:104B9000AD0D0E94BA11C093E10280E0B2CF8091C6
:104BA0003E020E94AE1183E08093E102D2CFCF9308
:104BB000C091E202C13021F178F1C23069F0C33016
:104BC00041F50E940C1281111FC01092AE0D10927F
:104BD000E20281E0CF9108950E940C12811114C06D
:104BE0008091AD0D81115DC08091AE0D813009F4D1
:104BF00043C0809143020E94AE11C093E2022FC0D5
:104C00000E940C128823E1F0C093E20280E0CF9171
:104C1000089580E0CF9108958091AC0D882339F1FB
:104C2000809141020E94AE110E94BA118091AC0D98
:104C30008093AD0D81E08093E20280E0CF910895F2
:104C40008091AD0D811120C08091AE0D8130A1F019
:104C5000809143020E94AE1182E08093E20281E0E3
:104C60008093AD0D0E94BA1180E0CF91089580919C
:104C700040020E94AE11D8CF809145020E94AE1131
:104C800083E08093E202EBCF809142020E94AE115A
:104C90001092AD0D0E94BA1182E08093E20280E092
:104CA000B6CF809142020E94AE111092AD0D0E94CB
:104CB000BA11C093E20280E0AACFCF93C091E10283
:104CC000C13029F180F1C23069F0C33049F50E944A
:104CD0000C12811120C01092AE0D1092E10281E001
:104CE000CF9108950E940C12811115C08091AD0DD5
:104CF000813009F054C08091AE0D813009F45CC060
:104D0000809148020E94AE11C093E1022FC00E9420
:104D10000C128823E1F0C093E10280E0CF91089566
:104D200080E0CF9108958091AC0D882331F180917E
:104D300047020E94AE110E94BA118091AC0D80937F
:104D4000AD0D81E08093E10280E0CF9108958091E4
:104D5000AD0D8130B9F48091AE0D813069F1809153
:104D600048020E94AE1182E08093E1021092AD0DE4
:104D70000E94BA1180E0CF910895809146020E946E
:104D8000AE11D9CF809149020E94AE11C093AD0DF2
:104D90000E94BA1182E08093E10280E0BFCF80914F
:104DA00049020E94AE1181E08093AD0D0E94BA11BC
:104DB000C093E10280E0B2CF80914A020E94AE111E
:104DC00083E08093E102D2CFCF93C091E202C13061
:104DD00021F178F1C23069F0C33041F50E940C1224
:104DE00081111FC01092AE0D1092E20281E0CF91AE
:104DF00008950E940C12811114C08091AD0D811193
:104E00005DC08091AE0D813009F443C080914F02A6
:104E10000E94AE11C093E2022FC00E940C128823A0
:104E2000E1F0C093E20280E0CF91089580E0CF915D
:104E300008958091AC0D882339F180914D020E9434
:104E4000AE110E94BA118091AC0D8093AD0D81E03E
:104E50008093E20280E0CF9108958091AD0D8111A1
:104E600020C08091AE0D8130A1F080914F020E9450
:104E7000AE1182E08093E20281E08093AD0D0E944A
:104E8000BA1180E0CF91089580914C020E94AE113A
:104E9000D8CF809151020E94AE1183E08093E2024C
:104EA000EBCF80914E020E94AE111092AD0D0E9488
:104EB000BA1182E08093E20280E0B6CF80914E0288
:104EC0000E94AE111092AD0D0E94BA11C093E20281
:104ED00080E0AACFCF93C091E102C13029F180F1E7
:104EE000C23069F0C33049F50E940C12811120C014
:104EF0001092AE0D1092E10281E0CF9108950E94D0
:104F00000C12811115C08091AD0D813009F054C093
:104F10008091AE0D813009F45CC0809154020E94F2
:104F2000AE11C093E1022FC00E940C128823E1F061
:104F3000C093E10280E0CF91089580E0CF91089581
:104F40008091AC0D882331F1809153020E94AE1103
:104F50000E94BA118091AC0D8093AD0D81E08093D9
:104F6000E10280E0CF9108958091AD0D8130B9F4D8
:104F70008091AE0D813069F1809154020E94AE1192
:104F800082E08093E1021092AD0D0E94BA1180E0A0
:104F9000CF910895809152020E94AE11D9CF809195
:104FA00055020E94AE11C093AD0D0E94BA1182E06D
:104FB0008093E10280E0BFCF809155020E94AE1144
:104FC00081E08093AD0D0E94BA11C093E10280E0B0
:104FD000B2CF809156020E94AE1183E08093E1022D
:104FE000D2CFCF93DF93C091E302C13071F1D8F1FA
:104FF000C23071F0C33099F50E940C12811129C0A2
:105000001092AE0D1092E30281E0DF91CF910895EE
:105010000E940C1281111DC0C091AE0D8091AD0D8A
:10502000C13009F451C0882309F446C080915A0266
:105030000E94AE111092AD0D0E94BA1182E08093D1
:10504000E30280E0DF91CF9108950E940C12882343
:10505000F9F0C093E30280E0DF91CF91089580E002
:10506000DF91CF9108958091AC0D882301F180915B
:1050700059020E94AE110E94BA118091AC0D80932A
:10508000AD0D81E08093E30280E0DF91CF91089540
:10509000D091AE0D8091AD0DD13029F18111C6CFE7
:1050A00080915B020E94AE11C093AD0DC5CF80917F
:1050B00058020E94AE11DFCF80915B020E94AE11B8
:1050C00081E08093AD0DB8CF811116C080915D0253
:1050D0000E94AE11C093AD0D0E94BA1183E080937F
:1050E000E30280E0B9CF811107C080915D020E9488
:1050F000AE11D093AD0DF0CF80915C020E94AE1145
:105100001092AD0DE9CFCF93DF93C091E302C13090
:1051100071F1D8F1C23071F0C33099F50E940C12D0
:10512000811129C01092AE0D1092E30281E0DF914F
:10513000CF9108950E940C1281111DC0C091AE0D37
:105140008091AD0DC13009F451C0882309F446C0E7
:10515000809160020E94AE111092AD0D0E94BA11B2
:1051600082E08093E30280E0DF91CF9108950E9476
:105170000C128823F9F0C093E30280E0DF91CF9115
:10518000089580E0DF91CF9108958091AC0D882340
:1051900001F180915F020E94AE110E94BA118091CC
:1051A000AC0D8093AD0D81E08093E30280E0DF9150
:1051B000CF910895D091AE0D8091AD0DD13029F1F0
:1051C0008111C6CF809161020E94AE11C093AD0DD6
:1051D000C5CF80915E020E94AE11DFCF8091610247
:1051E0000E94AE1181E08093AD0DB8CF811116C041
:1051F000809163020E94AE11C093AD0D0E94BA115E
:1052000083E08093E30280E0B9CF811107C08091F1
:1052100063020E94AE11D093AD0DF0CF8091620277
:105220000E94AE111092AD0DE9CF08950895089532
:10523000089508950895089508951F93CF93DF93D7
:105240001F921F92CDB7DEB7681B790B683F88EFBE
:1052500078073CF5605F714F1091E002113059F111
:10526000113008F4A1C0123009F45EC0133009F007
:1052700094C00E940C12811187C08091AA0D909158
:10528000AB0D01969093AB0D8093AA0D1092AE0DCD
:105290001092E00281E00F900F90DF91CF911F916B
:1052A00008956930E7E07E07BCF260517E401091BE
:1052B000E0021130A9F669837A830E940C12698199
:1052C0007A81811161C08091AA0D9091AB0D0196F8
:1052D0009093AB0D8093AA0D8091AE0D813009F4AF
:1052E000B2C0CB018D599F4F873C910508F47BC01C
:1052F0008091AD0D6C39FFEF7F070CF08AC08823D9
:1053000009F4C3C0813009F4F9C091E09093E00240
:1053100081118BC081E08093AD0D80E00F900F90E4
:10532000DF91CF911F91089569837A830E940C12B7
:1053300069817A81811128C08091AA0D9091AB0D6D
:1053400001969093AB0D8093AA0D8091AE0D8130A4
:1053500009F488C0CB0177FDA0C0853691050CF417
:105360006DC08091AD0D161617060CF04CC0811162
:1053700090C08CE60E94AE110E94BA1182E0809328
:10538000E0028091AD0DC4CF1093E00280E00F9059
:105390000F90DF91CF911F91089580E00F900F90B3
:1053A000DF91CF911F9108958091AC0D8823B9F0C2
:1053B00082E20E94AE110E94BA118091AC0D90E081
:1053C0000196817099278093AD0D81E08093E00272
:1053D00080E00F900F90DF91CF911F91089580E2B0
:1053E0000E94AE11E8CF8091AD0D882309F44DC025
:1053F00086E20E94AE110E94BA1181E08093E00221
:105400008091AD0D85CF81115AC088E70E94AE1101
:10541000B3CF653671050CF468C0813049F3882339
:1054200009F458C081E08093E0021092AD0D80E055
:105430000F900F90DF91CF911F91089581E080939D
:10544000E00280E0A4CF8091AD0D81112BC088E2F5
:105450000E94AE110E94BA1183E08093E002809115
:10546000AD0D56CF8091AD0D16161706FCF48130A8
:1054700051F18CE60E94AE111093E0020E94BA1125
:105480008091AD0D8111D1CF45CF84E20E94AE1144
:10549000B2CF8EE60E94AE116FCF88279927861B68
:1054A000970B5BCF8AE20E94AE11D4CF811120C04E
:1054B0008CE70E94AE1183E08093E002DFCF8AE7A1
:1054C0000E94AE1159CF82E70E94AE1183E0809313
:1054D000E002D4CF82E08093E0028CE60E94AE111D
:1054E0000E94BA118091AD0D13CF77FF98CF0ACFEC
:1054F0008AE70E94AE111093E002C0CF8AE70E94B3
:10550000AE1182E08093E0020E94BA118091AD0D4D
:10551000FFCE1F93CF93DF931F921F92CDB7DEB7BD
:10552000681B790B683F88EF78073CF5605F714F27
:105530001091DF02113059F1113008F49EC0123081
:1055400009F45DC0133009F091C00E940C12811162
:1055500084C08091AA0D9091AB0D01979093AB0DF3
:105560008093AA0D1092AE0D1092DF0281E00F9091
:105570000F90DF91CF911F9108956930E7E07E078A
:10558000BCF260517E401091DF021130A9F66983B0
:105590007A830E940C1269817A8181115EC08091A8
:1055A000AA0D9091AB0D01979093AB0D8093AA0D2E
:1055B0008091AE0D813009F4B0C0CB018D599F4F61
:1055C000873C910508F478C08091AD0D6536710572
:1055D0000CF488C0882309F4C2C0813009F4E7C004
:1055E00091E09093DF0281118AC081E08093AD0D3C
:1055F00080E00F900F90DF91CF911F910895698304
:105600007A830E940C1269817A81811126C080916F
:10561000AA0D9091AB0D01979093AB0D8093AA0DBD
:105620008091AE0D813009F487C0CB0177FD9FC01A
:10563000853691050CF46CC08091AD0D77FD4CC0A2
:10564000811191C080E90E94AE110E94BA1182E0DE
:105650008093DF028091AD0DC6CF1093DF0280E012
:105660000F900F90DF91CF911F91089580E00F90E0
:105670000F90DF91CF911F9108958091AC0D8823F9
:10568000B9F08EE20E94AE110E94BA118091AC0D69
:1056900090E00196817099278093AD0D81E0809311
:1056A000DF0280E00F900F90DF91CF911F9108955E
:1056B0008CE20E94AE11E8CF8091AD0D882309F4F1
:1056C0004EC082E30E94AE110E94BA1181E0809325
:1056D000DF028091AD0D87CF811160C084E80E9408
:1056E000AE11B3CF6C39FFEF7F070CF05BC0813098
:1056F00041F3882309F46DC081E08093DF021092AA
:10570000AD0D80E00F900F90DF91CF911F91089524
:1057100081E08093DF0280E0A3CF8091AD0D811105
:105720002BC084E30E94AE110E94BA1183E08093E3
:10573000DF028091AD0D57CF8091AD0D77FD26C072
:1057400081111EC084E90E94AE1183E08093DF02C4
:105750000E94BA118091AD0D8111D1CF46CF80E367
:105760000E94AE11B1CF82E90E94AE116ECF8827A0
:105770009927861B970B5CCF86E30E94AE11D4CF8E
:1057800082E90E94AE111093DF02E2CF8130D1F0A6
:1057900084E80E94AE111093DF02DACF86E80E94FF
:1057A000AE1153CF161617060CF417CFA2CF82E90D
:1057B0000E94AE1182E08093DF020E94BA118091B4
:1057C000AD0D11CF8AE80E94AE1183E08093DF0215
:1057D000BFCF82E08093DF0284E80E94AE110E9476
:1057E000BA118091AD0DFFCECF93DF93D82FC0912A
:1057F000DE02C13019F180F0C23021F080E0DF918B
:10580000CF9108950E94F60E811129C0C093DE0247
:1058100080E0DF91CF9108950E940C1281111BC08E
:10582000D13019F18CE10E94AE110E94BA1181E0D1
:105830008093DE0280E0DF91CF9108950E940C12E8
:105840008111E4CF82E08093DE0288EE93E00E9433
:10585000CA0E80E0D4CF1092DE0280E0D0CF0E944A
:10586000BA1B1092DE0281E0CACF8BE10E94AE111A
:10587000DCCFCF93C82F4091DD0250E04830510576
:1058800030F080E0C1111092DD02CF910895FA014D
:10589000ED58FE4F0C947E4B0E940C12882309F4A5
:1058A00056C086E08093DD0280E0ECCF0E940C12AF
:1058B000882309F448C087E08093DD0280E0E2CFCE
:1058C0000E940C128823A9F10E94081281E08093A3
:1058D000DD0280E0D7CF0E940C12882351F181E0D5
:1058E0008093DD0280E0CECF0E940C12882309F461
:1058F00056C082E08093DD0280E0C4CF0E94F60EA5
:10590000811143C083E08093DD0280E0BBCF0E9421
:105910000C12882381F184E08093DD0280E0B2CF15
:105920000E940C128823E9F085E08093DD0280E07C
:10593000A9CF83EE0E94AE110E94BA1182E080933B
:10594000DD0280E09FCF1092DD0281E09BCF8FE1EE
:105950000E94AE110E94BA1187E08093DD0280E0C0
:1059600091CF82EE0E94AE110E94BA1186E0809320
:10597000DD0280E087CF81EE0E94AE110E94BA1155
:1059800085E08093DD0280E07DCF80EE0E94AE1145
:105990000E94BA1184E08093DD0280E073CF8CED29
:1059A00095E00E94CA0E83E08093DD0280E06ACF1A
:1059B000CF93C091DC02C23009F441C068F0C4301A
:1059C000C1F098F1C53019F50E940C1281110CC07C
:1059D0001092DC0281E00BC0CC23E1F0C130B9F4BD
:1059E0000E940C128823C9F1C093DC0280E0CF91A1
:1059F00008950E940C128111F7CF8FE10E94AE1121
:105A00000E94BA1185E08093DC0280E0F0CF80E054
:105A1000CF9108950E940C128823F9F00E94081279
:105A200081E08093DC0280E0E2CF0E940C128823A8
:105A3000F9F083E08093DC0280E0CF9108950E942A
:105A40000C128111D1CF85EE0E94AE110E94BA11C5
:105A500083E08093DC0280E0CACF84EE0E94AE1126
:105A60000E94BA1182E08093DC0280E0CF91089519
:105A700086EE0E94AE110E94BA1184E08093DC028F
:105A800080E0B5CF1F93CF93DF93EB01C81BD90BF9
:105A9000C83F88EFD8079CF5C05FD14F1091DB025B
:105AA0001230B9F1133008F04DC0112309F472C05F
:105AB000113009F061C00E940C12811184C08091E4
:105AC000AE0D813009F49FC0C953DF4FCF38D140AC
:105AD00008F488C08091AD0D813009F4A2C084E53E
