:100000000C94E1010C9402020C9402020C94020282
:100010000C9402020C9402020C9402020C94020250
:100020000C9402020C9402020C9402020C94020240
:100030000C9402020C9402020C9402020C94020230
:100040000C9402020C9402020C9402020C94020220
:100050000C9402020C9402020C9402020C94020210
:100060000C9402020C94753E0C9402020C94323EE5
:100070000C9402020C9402020C9402020C940202F0
:100080000C9402020C9402020C9402020C940202E0
:100090000C94DD420C9402020C940C430C9402026A
:1000A0000C9402020C9402020C9402020C940202C0
:1000B0000C9402020C9402020C9402020C940202B0
:1000C0000C9402020C9402020C940202420261029D
:1000D00067029602C602EE020A03FD0219036F04CC
:1000E00071046E0473046E046E046E0475046E0471
:1000F0006E046E046E046E046E046E0477046E0467
:100100006E046E046E046E046E046E046E046E045F
:100110006E046E046E046E046E046E0479046E0444
:100120006E046E046E046E046E046E046E046E043F
:100130006E046E046E046E046E046E046E046E042F
:100140006E046E046E046E046E046E046E046E041F
:100150006E046E046E046E046E046E046D048704F7
:10016000890486048B048604860486048D04860430
:100170008604860486048604860486048F04860426
:10018000860486048604860486048604860486041F
:100190008604860486048604860486049104860404
:1001A00086048604860486048604860486048604FF
:1001B00086048604860486048604860486048604EF
:1001C00086048604860486048604860486048604DF
:1001D0008604860486048604860486048504A204B4
:1001E000A704A104AC04A104A104A104B104A104C6
:1001F000A104A104A104A104A104A104B604A104C2
:10020000A104A104A104A104A104A104A104A104C6
:10021000A104A104A104A104A104A104BB04A1049C
:10022000A104A104A104A104A104A104A104A104A6
:10023000A104A104A104A104A104A104A104A10496
:10024000A104A104A104A104A104A104A104A10486
:10025000A104A104A104A104A104A1049D04CC044F
:10026000CC04C604CC04C604C604C604D504C60423
:10027000C604C604C604C604C604C604DA04C6041A
:10028000C604C604C604C604C604C604C604C6041E
:10029000C604C604C604C604C604C604CF04C60405
:1002A000C604C604C604C604C604C604C604C604FE
:1002B000C604C604C604C604C604C604C604C604EE
:1002C000C604C604C604C604C604C604C604C604DE
:1002D000C604C604C604C604C604C604E204A72AAB
:1002E000B22ABB2AC52ACE2AD72A932A9D2A63641A
:1002F000696E6F70737578585B000C948F040C9462
:10030000D72A0C94BB040C9479040C94AC040C9480
:10031000B22A0C9487040C9491040C94C52A0C9472
:1003200072420C9485040C94C6020C94CE2A0C9450
:10033000C6040C94A2040C94A7040C948D040C9491
:1003400096020C94DA040C946F040C940A030C9437
:10035000D5040C9473040C94CF040C9471040C9485
:10036000B1040C9419030C94B6040C94A1040C94DD
:10037000E2040C9442020C94E7460C948B040C9417
:1003800094420C949D2A0C94EE020C94FD020C9461
:100390009D040C9467020C946D040C9489040C94D5
:1003A00086040C946E040C94932A0C94CC040C9444
:1003B000A72A0C9477040C9461020C94BB2A0C9429
:1003C000750411241FBECFEFD1E2DEBFCDBF00E028
:1003D0000CBF12E0A0E0B2E0E8E8F4EA00E00BBFF6
:1003E00002C007900D92A838B107D9F71FE0A8E81E
:1003F000B2E001C01D92AD3DB107E1F70E94404659
:100400000C9442520C94000060E071EE80E090E0A9
:100410000E944D430E94EB190E94091A0E94C21CBF
:1004200084E690E00E941D0D0E94AA1E0E945A3789
:100430000C94853ACF93DF93EC010E94013B8C1B17
:100440009D0B893027E092071CF080519E4006C02A
:10045000883F28EF920714F4805F914F6AE070E0C4
:100460000E948C46CB01DF91CF91089580918A0242
:1004700090E08930910508F0E6C0FC01EA59FF4F91
:100480000C94114881E00E9423058823B9F08FE184
:100490000E94F60F0E9402100E94013B9093A80256
:1004A0008093A7029093A6028093A50281E0809397
:1004B0008A021092890210928802089510928A028C
:1004C00008950E944F10882309F45BC0B7C080E4F0
:1004D0000E942305811155C080E80E9423058111E7
:1004E00078C080E10E9423058823B9F087E00E944C
:1004F000F1379F938F9384E792E09F938F930E94AD
:10050000744384EF91E00E941D0D81E080938A0284
:100510000F900F900F900F90089580E20E94230596
:10052000882309F48BC00E94B51E88C087E00E9412
:10053000F137CC9718F40E94F72082C084E00E9423
:10054000F1378C329140F8F480E20E94230581114A
:100550001AC00E94F7208091A7029091A8020E94E1
:100560001A0203971CF00E94EA1F0BC08091A70299
:100570009091A8020E941A028E3F9F4F14F40E948D
:10058000702083E05EC00E94B51E23C086E00E94FA
:10059000F1378C329140F8F480E20E9423058111FA
:1005A0001AC00E947D218091A7029091A8020E940A
:1005B0001A0203971CF00E94EA1F0BC08091A70249
:1005C0009091A8020E941A028E3F9F4F14F40E943D
:1005D000702084E036C00E94B51E32C087E00E94C1
:1005E000F137823C914020F40E94C61E85E003C092
:1005F0000E94B51E87E080938A0284EB90E00E94FF
:10060000462D0E94013B9093A8028093A70286E0AA
:1006100080938A0287E00E94F137823C914020F467
:100620000E94C61E85E003C00E94B51E88E080932C
:100630008A0280E10E942305882311F081E001C035
:1006400088E080938A0208950E942C040E94E504A9
:100650000E94F5070E94C10B0C94EB0C649974C0C6
:1006600081E08093BD029091C002992309F4B5C046
:100670001092C102659952C081E08093B8029091B6
:10068000BB02992309F498C01092BC02669932C04B
:1006900081E08093AE029091B102992309F47BC06E
:1006A0001092B2026799AAC081E08093A90290914A
:1006B000AC02992309F45EC01092AD02489912C0B1
:1006C00091E09093B3028091B602811110C08091A5
:1006D000B7028F5F8093B7028091B702843109F42B
:1006E000B4C008958091B602813009F49DC0109283
:1006F000B70208958091B102813091F69091B202D3
:100700009F5F9093B2029091B202943159F6809318
:10071000B0021092B1021092B202C4CF8091BB021B
:10072000813009F0B1CF9091BC029F5F9093BC02E1
:100730009091BC02943109F0A9CF8093BA02109233
:10074000BB021092BC02A2CF8091C002813009F09E
:100750008FCF9091C1029F5F9093C1029091C1028F
:10076000943109F087CF8093BF021092C00210929B
:10077000C10280CF9091AD029F5F9093AD029091A6
:10078000AD02943109F09ACF8093AA028093AC0213
:100790001092AD0293CF9091B2029F5F9093B202FC
:1007A0009091B202943109F07DCF8093AF02809393
:1007B000B1021092B20276CF9091BC029F5F9093EB
:1007C000BC029091BC02943109F060CF8093B902D1
:1007D0008093BB021092BC0259CF9091C1029F5FDF
:1007E0009093C1029091C102943109F043CF80935C
:1007F000BE028093C0021092C1023CCF8091AC0235
:10080000813009F059CF9091AD029F5F9093AD0276
:100810009091AD02943109F051CF8093AB021092C8
:10082000AC021092AD024ACF9091B7029F5F9093B5
:10083000B7029091B702943109F053CF8093B5027B
:100840001092B6021092B70208959093B40290935A
:10085000B6021092B70208958FE787B98EE788B97C
:100860001092BD021092BE021092BF021092C002FE
:100870001092C1021092B8021092B9021092BA02FC
:100880001092BB021092BC021092AE021092AF0204
:100890001092B0021092B1021092B2021092A9020C
:1008A0001092AA021092AB021092AC021092AD020A
:1008B0001092B3021092B4021092B5021092B602D6
:1008C0001092B702089590E0FC013197E034F105F1
:1008D00028F4E159FF4F0C94114846980895409828
:1008E000089541980895429808954398089544982A
:1008F00008954598089590E0FC013197E034F105A2
:1009000028F4E155FF4F0C941148469A0895409AF7
:100910000895419A0895429A0895439A0895449AF1
:100920000895459A089590E0FC013197E034F1056F
:1009300040F4E151FF4F0C94114888B190E48927AD
:1009400088B9089588B191E0892788B9089588B158
:1009500092E0892788B9089588B194E0892788B9F9
:10096000089588B198E0892788B9089588B190E101
:10097000892788B9089588B190E2892788B90895B0
:1009800090E0FC013197E034F10510F080E008952B
:10099000E15DFE4F0C94114886B180E0089586B168
:1009A000807290E095958795089586B183FB88279E
:1009B00080F9089586B1807190E095958795959519
:1009C0008795089586B1807408955098589A8DB18E
:1009D0008F708DB98EB1806F8EB90895803259F1C4
:1009E00060F4813001F18031A1F48091BD0288234F
:1009F00081F01092BD0281E00895803461F080386A
:100A000041F48091A902882321F01092A90281E08B
:100A1000089580E008958091AE028823D1F310926A
:100A2000AE0281E008958091B302882391F3109281
:100A3000B30281E008958091B802882351F31092A7
:100A4000B80281E00895803259F160F4813001F1FB
:100A50008031A1F48091BE02882381F01092BE0201
:100A600081E00895803461F0803841F48091AA02D9
:100A7000882321F01092AA0281E0089580E0089571
:100A80008091AF028823D1F31092AF0281E00895E4
:100A90008091B402882391F31092B40281E008950A
:100AA0008091B902882351F31092B90281E0089530
:100AB000803259F160F4813001F18031A1F48091EC
:100AC000BF02882381F01092BF0281E00895803434
:100AD00061F0803841F48091AB02882321F01092BC
:100AE000AB0281E0089580E008958091B0028823F0
:100AF000D1F31092B00281E008958091B50288236D
:100B000091F31092B50281E008958091BA02882392
:100B100051F31092BA0281E0089590917C00987F81
:100B200090937C0020917C00982F9770922B90934B
:100B30007C00882359F0815020E830E002C03595D0
:100B400027958A95E2F7209522B9089582B18C6F96
:100B500082B90895CF92DF92EF92FF92CF93DF9305
:100B6000CDB7DEB72E970FB6F894DEBF0FBECDBF60
:100B70008EE0E6E6F2E0DE01119601900D928A9594
:100B8000E1F789819A819C01220F331F220F331FC5
:100B9000220F331F281B390B40E050E0C12CB4EC6E
:100BA000DB2EB9E0EB2EF12CC701B6010E94A04666
:100BB000215031092F3F310509F008F49BC08B818A
:100BC0009C819C01220F331F220F331F220F331FE2
:100BD000281B390B40E050E0C701B6010E94A04637
:100BE000215031092F3F310509F008F48AC08D8169
:100BF0009E819C01220F331F220F331F220F331FB0
:100C0000281B390B40E050E0C701B6010E94A04606
:100C1000215031092F3F310509F008F474C08F814C
:100C200098859C01220F331F220F331F220F331F81
:100C3000281B390B40E050E0C701B6010E94A046D6
:100C4000215031092F3F310509F008F45EC0898534
:100C50009A859C01220F331F220F331F220F331F4F
:100C6000281B390B40E050E0C701B6010E94A046A6
:100C7000215031092F3F310509F008F448C08B8518
:100C80009C859C01220F331F220F331F220F331F1D
:100C9000281B390B40E050E0C701B6010E94A04676
:100CA000215031092F3F3105A1F198F18D859E85A5
:100CB0009C01220F331F220F331F220F331F281BCB
:100CC000390B40E050E0C701B6010E94A046215018
:100CD00031092F3F3105F9F0F0F02E960FB6F89458
:100CE000DEBF0FBECDBFDF91CF91FF90EF90DF90C1
:100CF000CF90089580E02093B3008F5F8093B10080
:100D0000ECCF81E0F8CF82E0F6CF83E0F4CF84E04F
:100D1000F2CF85E0F0CF86E0EECFEAE7F0E0808129
:100D200080648083089580917A008295817008950F
:100D300087B3869581700895B99B089587B38760BE
:100D400087BB1092B2009091B20380917C00887FA3
:100D500080937C0020917C00892F8770822B809368
:100D60007C00992309F420C12FEF290F80E890E03F
:100D700002C0959587952A95E2F7809582B920E47F
:100D80002A95F1F780917A00806480937A008091AF
:100D90007A0084FFFCCF80917A00806180937A0092
:100DA0008091780090917900E091B203F0E0EE0F2D
:100DB000FF1FED54FC4F91838083E091B20320919B
:100DC000C30230E1E39FF0011124E20FF11DEE0FA9
:100DD000FF1FEE52FD4F91838083E091B20380E2CA
:100DE000E89FF0011124EE52FD4F80819181E09146
:100DF000B20320E2E29FF0011124EE52FD4F228166
:100E00003381820F931FE091B20330E2E39FF00140
:100E10001124EE52FD4F24813581820F931FE09102
:100E2000B20320E2E29FF0011124EE52FD4F268131
:100E30003781820F931FE091B20330E2E39FF0010C
:100E40001124EE52FD4F20853185820F931FE091D2
:100E5000B20320E2E29FF0011124EE52FD4F228501
:100E60003385820F931FE091B20330E2E39FF001DC
:100E70001124EE52FD4F24853585820F931FE0919A
:100E8000B20320E2E29FF0011124EE52FD4F2685CD
:100E90003785820F931FE091B20330E2E39FF001A8
:100EA0001124EE52FD4F20893189820F931FE0916A
:100EB000B20320E2E29FF0011124EE52FD4F22899D
:100EC0003389820F931FE091B20330E2E39FF00178
:100ED0001124EE52FD4F24893589820F931FE09132
:100EE000B20320E2E29FF0011124EE52FD4F268969
:100EF0003789820F931FE091B20330E2E39FF00144
:100F00001124EE52FD4F208D318D820F931FE09101
:100F1000B20320E2E29FF0011124EE52FD4F228D38
:100F2000338D820F931FE091B20330E2E39FF00113
:100F30001124EE52FD4F248D358D820F931FE091C9
:100F4000B20320E2E29FF0011124EE52FD4F268D04
:100F5000378D820F931F929582958F7089279F708E
:100F60008927E091B203F0E0EE0FFF1FEC53FD4F35
:100F7000918380832091B2032630D1F02091B20377
:100F8000211107C02091C2022130E1F08E3A914038
:100F900008F18091B20390E0019667E070E00E9452
:100FA0008C468093B203089582B18C6F82B9E7CEEC
:100FB0002091C30230E02F5F3F4F2F7033272093E3
:100FC000C302DCCF863D914020F30E94710B10924A
:100FD000C202DFCF4EE150E06EE170E085E00E949A
:100FE0007E0B81E08093C202D4CFCF92DF92EF924A
:100FF000FF92CF93DF93CDB7DEB72E970FB6F8945D
:10100000DEBF0FBECDBF87E880937A0010927B00D1
:1010100010927C0010927E0010927D008CEF81B9BE
:1010200082B986E692E09093B4038093B3039093E1
:10103000C5028093C4029093D3028093D20290930E
:10104000D5028093D4029093D7028093D6029093D6
:10105000D9028093D8029093DB028093DA029093B6
:10106000DD028093DC029093DF028093DE02909396
:10107000E1028093E0029093E3028093E202909376
:10108000E5028093E4029093E7028093E602909356
:10109000E9028093E8029093EB028093EA02909336
:1010A000ED028093EC029093EF028093EE02909316
:1010B000F1028093F0029093B6038093B50390936E
:1010C000C7028093C6029093F3028093F20290933A
:1010D000F5028093F4029093F7028093F6029093C6
:1010E000F9028093F8029093FB028093FA029093A6
:1010F000FD028093FC029093FF028093FE02909386
:101100000103809300039093030380930203909361
:101110000503809304039093070380930603909341
:1011200009038093080390930B0380930A03909321
:101130000D0380930C0390930F0380930E03909301
:101140001103809310039093B8038093B703909397
:10115000C9028093C8029093130380931203909363
:1011600015038093140390931703809316039093B1
:1011700019038093180390931B0380931A03909391
:101180001D0380931C0390931F0380931E03909371
:101190002103809320039093230380932203909351
:1011A0002503809324039093270380932603909331
:1011B00029038093280390932B0380932A03909311
:1011C0002D0380932C0390932F0380932E039093F1
:1011D0003103809330039093BA038093B9039093C3
:1011E000CB028093CA02909333038093320390938F
:1011F00035038093340390933703809336039093A1
:1012000039038093380390933B0380933A03909380
:101210003D0380933C0390933F0380933E03909360
:101220004103809340039093430380934203909340
:101230004503809344039093470380934603909320
:1012400049038093480390934B0380934A03909300
:101250004D0380934C0390934F0380934E039093E0
:101260005103809350039093BC038093BB039093EE
:10127000CD028093CC0290935303809352039093BA
:101280005503809354039093570380935603909390
:1012900059038093580390935B0380935A03909370
:1012A0005D0380935C0390935F0380935E03909350
:1012B0006103809360039093630380936203909330
:1012C0006503809364039093670380936603909310
:1012D00069038093680390936B0380936A039093F0
:1012E0006D0380936C0390936F0380936E039093D0
:1012F0007103809370039093BE038093BD0390931A
:10130000CF028093CE0290937303809372039093E5
:10131000750380937403909377038093760390937F
:1013200079038093780390937B0380937A0390935F
:101330007D0380937C0390937F0380937E0390933F
:10134000810380938003909383038093820390931F
:1013500085038093840390938703809386039093FF
:1013600089038093880390938B0380938A039093DF
:101370008D0380938C0390938F0380938E039093BF
:101380009103809390039093C0038093BF03909345
:10139000D1028093D0029093930380939203909311
:1013A000950380939403909397038093960390936F
:1013B00099038093980390939B0380939A0390934F
:1013C0009D0380939C0390939F0380939E0390932F
:1013D000A1038093A0039093A3038093A20390930F
:1013E000A5038093A4039093A7038093A6039093EF
:1013F000A9038093A8039093AB038093AA039093CF
:10140000AD038093AC039093AF038093AE039093AE
:10141000B1038093B0031092B2031092C3021092F2
:10142000C20282E08093B0001092B200109270006D
:1014300087E087BB8EE0E6E6F2E0DE0111960190E0
:101440000D928A95E1F789819A819C01220F331FC1
:10145000220F331F220F331F281B390B40E050E0AF
:10146000C12C64ECD62E69E0E62EF12CC701B60142
:101470000E94A046215031092F3F310509F008F4A0
:101480009BC08B819C819C01220F331F220F331F35
:10149000220F331F281B390B40E050E0C701B60173
:1014A0000E94A046215031092F3F310509F008F470
:1014B0008AC08D819E819C01220F331F220F331F12
:1014C000220F331F281B390B40E050E0C701B60143
:1014D0000E94A046215031092F3F310509F008F440
:1014E00074C08F8198859C01220F331F220F331FF8
:1014F000220F331F281B390B40E050E0C701B60113
:101500000E94A046215031092F3F310509F008F40F
:1015100064C089859A859C01220F331F220F331FD7
:10152000220F331F281B390B40E050E0C701B601E2
:101530000E94A046215031092F3F310509F008F4DF
:101540004AC08B859C859C01220F331F220F331FBD
:10155000220F331F281B390B40E050E0C701B601B2
:101560000E94A046215031092F3F310591F188F1A9
:101570008D859E859C01220F331F220F331F220F62
:10158000331F281B390B40E050E0C701B6010E9411
:10159000A046215031092F3F3105C9F0C0F02E96E9
:1015A0000FB6F894DEBF0FBECDBFDF91CF91FF9095
:1015B000EF90DF90CF90089580E02093B3008F5F8D
:1015C0008093B100ECCF81E0F8CF82E0F6CF86E0E7
:1015D000F4CF85E0F2CF84E0F0CF83E0EECFE82FC8
:1015E000F0E0EE0FFF1FED54FC4F808191810895D4
:1015F000E82FF0E0EE0FFF1FEC53FD4F808191814B
:101600000895C19B11C0C19A109295001092940048
:1016100080918F02811109C08091C803813081F0CF
:101620008091C103813061F008958091C8038130B9
:1016300019F18091C1038130F9F010928F02089561
:1016400081E080938F028091C2039091C303019740
:1016500090938E0280938D022091C4033091C50334
:1016600030938C0220938B02892BF1F680918000BD
:101670008F7380938000089580918D0290918E02E7
:10168000009741F0019790938E0280938D02892BF1
:1016900059F6ECCF80918B0290918C02009731F03B
:1016A000019790938C0280938B0208958091800023
:1016B0008F7B809380008091800080688093800081
:1016C0008091C2039091C30390938E0280938D0208
:1016D0008091C4039091C50390938C0280938B02F8
:1016E00008958091C103813009F0089580918000B0
:1016F0008F73809380001092C10308959091C1036D
:10170000992359F19130A9F11092870090E0FC01E2
:10171000E753FC4F2081209386001092890020819E
:101720002695209388007093C3036093C20350935F
:10173000C5034093C4039093C7038093C60380916D
:1017400080008F7B809380008091800080688093F0
:10175000800081E08093C10308959091C803913087
:1017600099F6909180009F73909380001092C80327
:10177000CBCF909180009F73909380001092C10313
:10178000C3CF259A2D9810926F009FE296BB1092BE
:10179000850010928400E0E8F0E0108280818E7F66
:1017A0008083808182608083E1E8F0E01082808124
:1017B000886080838081806180831092890010928C
:1017C00088008081887F80838081856080831092FB
:1017D000710098BB1092950010929400E0E9F0E03F
:1017E000108280818E7F808380818D7F8083E1E97C
:1017F000F0E0108280818860808380818F7E80838A
:1018000098E1909399008AE6809398008081887F80
:1018100080838081846080838DE18093C9038AE125
:101820008093CA039093CB0386E18093CC0384E139
:101830008093CD0382E18093CE0380E18093CF0338
:101840001092C8031092C10381E090E09093C3030B
:101850008093C2039093C5038093C4031092C7037F
:101860001092C60308959091C10391112CC09091DC
:10187000C803911128C01092870090E0FC01E75343
:10188000FC4F2081209386001092890020812695AC
:10189000209388009093C7038093C6037093C3037B
:1018A0006093C2035093C5034093C40380918000AA
:1018B0008F7B80938000809180008068809380007F
:1018C00081E08093C80308959091C103911104C0F1
:1018D0009091C803913009F008951092870090E02C
:1018E000FC01E753FC4F2081209386001092890071
:1018F00020812695209388009093C7038093C60388
:1019000008952091C103211104C02091C803213002
:1019100009F008959093C3038093C2030895209122
:10192000C103211104C02091C803213009F008959A
:101930009093C5038093C40308958091C1038111DE
:1019400004C08091C803813009F00895809180001F
:101950008F73809380001092C80308958091C8030C
:1019600008958091C1030895D19B19C0D19A109216
:101970002501109224014091D6038091900290910C
:101980009102413069F02091D0033091D103821748
:101990009307C9F001969093910280939002089565
:1019A0002091D3033091D4038217930799F71092B3
:1019B0009102109290024093D20380912101887F7E
:1019C000809321010895109291021092900281E07B
:1019D0008093D5030895109273008FE28ABB109212
:1019E000250110922401E0E2F1E0108280818E7FD7
:1019F000808380818D7F8083E1E2F1E010828081AD
:101A00008860808380818F7E808388E18093290134
:101A10008AE6809328018081887F80831092D60394
:101A20001092D4031092D3031092D1031092D003DA
:101A30001092D2031092D50308951092D6039C0100
:101A40003695279536952795ABE7B4E10E946B460E
:101A5000969587959093D1038093D0031092D503E8
:101A600010922501109224018FE28ABBE1E2F1E09D
:101A70008081887F8083808184608083089521E0D5
:101A80002093D6039C013695279536952795ABE78D
:101A9000B4E10E946B46969587959093D40380930A
:101AA000D3031092D20310922501109224018FE2E9
:101AB0008ABBE1E2F1E08081887F8083808184605D
:101AC000808308958091D503813011F080E00895DE
:101AD0001092D50308958091D203813011F080E0F7
:101AE00008951092D2030895E1E2F1E08081887FA9
:101AF0008083D19A10922501109224011092D5036F
:101B00001092D2030895109272008FE289BB109256
:101B1000A5001092A400E0EAF0E0108280818E7FA0
:101B2000808380818D7F8083E1EAF0E01082808174
:101B30008860808380818F7E80838DE38093A9007D
:101B400088E08093A8008081887F80838081826084
:101B500080830895C99B07C0C99A1092A50010926E
:101B6000A40081E0089580E00895CF92DF92EF9283
:101B7000FF920F931F93CF93DF931F921F92CDB7C6
:101B8000DEB7CE0101960E94E519E7ECF4E0C980CA
:101B9000DA80F12C61E070E0B5E0EB2E1DC09C0115
:101BA00028523C4FD901EC929C0127523C4FD9015D
:101BB000EC929A01220F331F285A3B4F88529C4FB8
:101BC000D9018D939C93F3947096B2E0CB0ED11C07
:101BD00086E0E73CF807C9F180818823A9F3D601A4
:101BE0002D913C91CF010797DC018D919C91280F9D
:101BF000391F4F2D50E0CA01880F991F880F991F78
:101C00008C0106521C4FD8012C938C0105521C4F9D
:101C1000D8013C939F0121503109D9012C912223F5
:101C200009F4BDCF2F70DB0102C0AA0FBB1F2A959C
:101C3000E2F79D018C0108521C4FD8012C938C01B6
:101C400007521C4FD8012C93B4CFFF2061F008E558
:101C500014E024E030E04CE150E068E974E0809169
:101C6000D7030E9484410F900F90DF91CF911F9175
:101C70000F91FF90EF90DF90CF90089590E1899FB2
:101C8000F0011124E854FB4F6687089590E1899F85
:101C9000F0011124E854FB4F8685089590E1899F57
:101CA000F0011124E854FB4F71876087089590E19B
:101CB000899FF0011124E854FB4F80859185089598
:101CC00090E1899FF0011124E854FB4F8785089526
:101CD00090E1899FF0011124E854FB4F828508951B
:101CE00090E1899FF0011124E854FB4F8485089509
:101CF000C99B15C0C99A1092A5001092A4000E9419
:101D0000573781110DC00E9452100E941E190E9467
:101D10009F310E945737811106C00C94B50D08956C
:101D20000E94D436F0CF0E94DE36F7CF2F923F923A
:101D30004F925F926F927F928F929F92AF92BF92DB
:101D4000CF92DF92EF92FF920F931F93CF93DF9387
:101D500000D0CDB7DEB7782E19820E94513F88237C
:101D600009F433C12FEF89E698E12150804090407B
:101D7000E1F700C000002981222331F1E8EBF4E013
:101D800067EC74E02150A0E12A9F900111242853B0
:101D90003B4F45E011821082138212821582148219
:101DA0001782168211861086DB011C92CB010197E7
:101DB000DC014C9313861286158614867096605F3C
:101DC0007F4FE217F30731F768E974E0CE0101961F
:101DD0000E94A63F1092D7038981882309F466C028
:101DE000312C1CE2A12EBB24B394CC24CA9403E072
:101DF000D02EE12C82E0F82E5524539495E0692EE4
:101E000022E0422E09C081159C4009F4A2C03394FF
:101E10008981381608F048C0E32DF0E0E856FB4F02
:101E20002080822D0E94AD3D8C30910521F08C32B6
:101E3000B1E09B0741F7822D0E948B34E0E12E9E9A
:101E400040011124840108541B4FD8011196BC9203
:101E5000AE921396DC92CE92129715961C921E9219
:101E600014971796FC92EE921697822D0E94E835F1
:101E7000F80191878087A4014C535B4FB4016E53E6
:101E80007B4F822D0E940F33D8011F965C921F97C3
:101E90001E966C928091D7038F5F8093D703339403
:101EA0008981381608F4B8CF8091D703781609F4E1
:101EB00089C044E650E06AE070E084E00E947E0B56
:101EC000109272008FE289BB1092A5001092A400BC
:101ED0001092A0008091A0008E7F8093A00080913E
:101EE000A0008D7F8093A0001092A1008091A1009E
:101EF00088608093A1008091A1008F7E8093A100D3
:101F00008DE38093A90088E08093A8008091A100D0
:101F1000887F8093A1008091A10082608093A100BE
:101F20000E94E80F89810F900F900F90DF91CF9161
:101F30001F910F91FF90EF90DF90CF90BF90AF90E7
:101F40009F908F907F906F905F904F903F902F90D9
:101F50000895822D0E948B34E0E12E9EB001112461
:101F60008B0108541B4FE4EBF0E0D8011196FC9371
:101F7000EE931396DC92CE92129715961C921E92B7
:101F800014971796FC92EE921697822D6A837B83A4
:101F90000E94E835D80119969C938E9318976A8110
:101FA0007B81AB014C535B4F6E537B4F822D0E9464
:101FB0000F33F801478666868091D7038F5F809341
:101FC000D70325CF0E94710B7BCF0E941B3FCACE47
:101FD0001092340C1092760B8FEF8093760C8093D6
:101FE00075098093330C1092750C0895CF93C82F08
:101FF00066E779E00E94D818811102C0C093750984
:10200000CF9108951092340C1092B60B1092B50B2C
:1020100010927409109273091092740C1092730C40
:1020200083E08093160D1092330C80918509809384
:1020300072091092760CE7ECF4E080E090E006C0C4
:102040007096029626E0E73CF20709F120812130E4
:10205000B9F7DF0117972D913C91DC01AB5CB34FD1
:102060002D933C93DC01A852B34F1D921C92DC01CE
:10207000AB50B44F1D921C92DC01A854B94F1D9275
:102080001C927096029626E0E73CF207F9F681E092
:102090008093750C089581E08093760B089580916C
:1020A000750C08952F923F924F925F926F927F929C
:1020B0008F929F92AF92BF92CF92DF92EF92FF9258
:1020C0000F931F93CF93DF93CDB7DEB7A3970FB6D0
:1020D000F894DEBF0FBECDBF8091750C882309F444
:1020E0009AC08091B50B9091B60B409173095091B5
:1020F00074098417950708F0A7C08C010F5F1F4F64
:102100001A8709871093B60B0093B50B1091160D23
:102110001D87133009F47FC0809173099091740971
:102120008C0120E030E0098B1A8B2B8B3C8B8C01CF
:10213000015011091E8B0D8B08E91CE070ECA72ED5
:1021400074E0B72EE6EFCE2EE6E0DE2EF8EDEF2EB1
:10215000FCE0FF2EA8EB4A2EA6E05A2EB7E76B2E26
:10216000BBE07B2E812C912C80E090E0212C312C47
:102170009BA38AA3C201230194014801A601670120
:102180007A0189013C0121C0BFEF2B1A3B0AEAA169
:10219000FBA17096FBA3EAA3F2E08F0E911C0E5FE9
:1021A0001F4F20E1A20EB11C32E0E30EF11C42E011
:1021B000C40ED11C52E0650E711C62E0460E511C2B
:1021C0008AA19BA18115924031F12AA13BA12854FB
:1021D0003B4F3A832983D9011F968C918130A1F618
:1021E000F801EB50F44F80819181892B09F06FC089
:1021F000F40180819181D5018D939C93F101EA587E
:10220000F64F80A1A981BA811E968C93BDCF109202
:10221000750C1092760BA3960FB6F894DEBF0FBE26
:10222000CDBFDF91CF911F910F91FF90EF90DF9085
:10223000CF90BF90AF909F908F907F906F905F9066
:102240004F903F902F9008951092B60B1092B50BBF
:10225000E7ECF4E080E090E006C07096029606E0BD
:10226000E73CF007E1F020812130B9F7DF01179753
:102270002D913C91DC01A856B34F2D933C93DC018A
:10228000A854B94F2D913C91DC01A852B34F2D9326
:102290003C937096029606E0E73CF00721F78091A8
:1022A000160D882309F4C7C0813009F492C1823029
:1022B00009F45BC1833009F42CC25E874D8780E04E
:1022C00090E0DA018A179B0708F0A5CF16CFBD85ED
:1022D000B1114AC0F6010190F081E02DF88BEF8733
:1022E000F701A081B1812F853889A21BB30B298505
:1022F0003A850E947A4629893A894B895C890E94ED
:10230000C2468F859889820F931FD3018D939C932A
:10231000D901B595A795EF85F889AE0FBF1F29851F
:102320003A850E947A469B01AC01A0E9B0E00E9488
:1023300081462FE030E040E050E00E94C24669E074
:1023400055954795379527956A95D1F7F801EC5C37
:10235000F64F31832083D4018D919C91820F931F7E
:10236000F501918380834ACFB13009F448C02985B3
:102370003A854D895E892417350709F421C1F10199
:10238000E958F34F808181113AC0F6010190F08144
:10239000E02DF88BEF87DF01B195A195B109298573
:1023A0003A850E947A4629893A894B895C890E943C
:1023B000C2468F859889820F931FD3018D939C937A
:1023C000D901B595A795EF85F889AE0FBF1F29856F
:1023D0003A850E947A469B01AC01A0E9B0E00E94D8
:1023E00081462FE030E040E050E00E94C24699E094
:1023F00055954795379527959A95D1F7ACCFF2012A
:10240000A081B18129853A850E947A4629893A8935
:102410004B895C890E94C246D4018D919C91820FA8
:10242000931FF50191838083D7018D919C91F301D6
:1024300091838083E3CE81E08093160D2091D60CAA
:102440003091D70C0091960C1091970C1A83098348
:10245000C801880F991F8901081B190B1E870D875A
:10246000109374090093730909811A8120173107A9
:1024700009F4E5C0A801B5EF2B2EBBE03B2E14E319
:10248000612E19E0712E06EF802E06E0902E87E770
:10249000482E8BE0582E07E71CE067EC74E0C9017A
:1024A000841B950B9C0140E050E029873A874B87BD
:1024B0005C8795E0C92ED12CE12CF12C788B6F87AD
:1024C00019C0EF85F8897096F88BEF87F2E02F0E30
:1024D000311C22E0620E711C32E0830E911C42E03E
:1024E000440E511C0F5F1F4F6F857889675C7640E3
:1024F00009F44BC0AF85B8898C91813011F7F80190
:102500008081813009F446C0F401A081B181F101DC
:10251000A080B180F30180819181A81AB90A298134
:102520003A810E947A469B01AC01660F771F881F93
:10253000991F620F731F841F951F660F771F881FD7
:10254000991F660F771F881F991FA70196010E9488
:10255000C246BB2757FDBA95A52F942F832FA81AE3
:10256000B90AD201AD92BC92ACCF8091730C90911C
:10257000740C009709F4E1C023E02093160D9093AA
:102580007409809373099E878D8780E090E0AD8504
:10259000BE8598CEF101A081B181F3018081918146
:1025A000A81BB90B2D853E850E947A4629853A8560
:1025B0004B855C850E94C246D2012D933C9381CF0E
:1025C000F801EB5CF34F80819181D5018D939C9351
:1025D00015CE82E08093160D7091960C6091970C49
:1025E0007093730960937409A7E7BBE0E7ECF4E02C
:1025F00080E090E08D0109C0709602960E5F1F4F3B
:10260000B6E0E73CFB0709F47DC020812130A1F74B
:102610009C012B50344FD9012D913C91D8014D9103
:102620005C91241B350BAC014C5C564FDA014D918B
:102630005C91241B350BD8012D933C93DDCFB7E77C
:10264000CB2EBBE0DB2E17E7E12E1CE0F12E87EC52
:1026500094E000E010E045E0442E512C612C712CF8
:1026600049011C0111C0F0E12F0E311C22E0C20E05
:10267000D11C0E5F1F4F3FEFE31AF30A47EC2416FD
:1026800046E0340609F481CFD1018C91813059F7AD
:10269000F70180818130C9F1F801EA50F94FA0813A
:1026A000B181F801EB50F44FA080B180F801EC5CEF
:1026B000F64F80819181A81AB90A94010E947A4646
:1026C0009B01AC01660F771F881F991F620F731F54
:1026D000841F951F660F771F881F991F660F771F2E
:1026E000881F991FA30192010E94C246BB2757FD74
:1026F000BA95A52F942F832FA81AB90AF601B18293
:10270000A082B1CF7D876E8740CFD6011D921C92EB
:10271000AACF1092160DA8EDBCE0E7ECF4E006C0DD
:102720007096129606E0E73CF00749F08081813010
:10273000B9F711961C921E92F3CF1092160D80914C
:10274000340C813009F463CD8091330C8F5F80931A
:10275000330CA0918A09A81708F0C8C080E092E065
:10276000E4E3F7E0A6E7B9E001900D920197E1F705
:102770008091760C90917509981721F090918509B8
:102780009093720991E09093330C80937509A09116
:102790008A09B1E0AB1709F484C26B2F70E08B019A
:1027A0000150110900241695079507941695079571
:1027B0000794102F002DA8014A58564FFA01E258ED
:1027C000FF4F808120918C09289FC001112496958C
:1027D0008795929582958F7089279F70892790930E
:1027E000740C8093730CFA01E158FF4F3081329FD3
:1027F0009001112436952795329522952F70232725
:102800003F7023272115310511F421E030E040917C
:10281000340C413009F45EC2892B09F4C4C1AB17F2
:1028200009F456C3E7E74E2EECE05E2EA5E3BCE0CC
:102830007B010024F694E7940794F694E7940794B8
:10284000FE2CE02CA7014A54564F7A0180EC582FF9
:1028500056034001579F900C1124E7ECF4E080E010
:1028600090E059013D01A70168010EC07096BFEFCD
:102870004B1A5B0A029602E0600E711C4E5F5F4FBE
:1028800016E0E73CF107A1F12081213079F79C01A6
:102890002C5C364FD9011D921C929A01280D391DCE
:1028A0002C0D3D1DD9012D913C9136FF18C0D3014F
:1028B0002D913C91B901E12CF12C8C010856134F5C
:1028C000D8016D937C93D3012D933C939C012B50A5
:1028D000344FD901ED92FC92D2011C92C7CFD301A3
:1028E0006D917C917901E61AF70AE7CFB82F52CFA4
:1028F00095013093D70C2093D60C80918E0990E0EF
:10290000AC01440F551F4217530708F4E0C0C9013A
:102910000197969587959093970C8093960C0097C6
:1029200009F0D9C01092D70C1092D60C1E861D86C5
:1029300019821A821B821C821D821E821F821886A7
:1029400061E06F87412C512C198A1D8A1F8A188ECD
:10295000198E71E07A8F1B8E1C8E1D8E1E8E1F8E1F
:1029600018A219A276EF872E76E0972EE7E76E2E53
:10297000ECE07E2E07EC14E0212C312C1BA30AA3E3
:1029800015C00AA11BA1005F1F4F1BA30AA312E0E1
:10299000810E911C22E0220E311C3FEF631A730A54
:1029A0004AA15BA1475C564009F484C0AAA1BBA11F
:1029B0008C91813031F7F101E852F34F3181208160
:1029C000932F990F990BA980BA80CB80DC80ED8082
:1029D000FE800F811885492F592F692F792F892F54
:1029E0000E94184759016A017B018C01F101EB50EB
:1029F000F44FA081B18120E03AE00E947A462CE0B9
:102A000030E040E050E00E94C246DA01C901550FB3
:102A1000220B322FA90129873A874B875C87F30164
:102A20002081211122C09C01AD016985762F862F5E
:102A3000962F0E943948AA8CBB8CCC8CDD8CEE8CF6
:102A4000FF8C08A119A10E94DB46D4012C9311969A
:102A50003C93822F932F8115F4E09F070CF1EFEF49
:102A6000F3E0D401ED93FC938CCF9C01AD0169851B
:102A7000762F862F962F0E943948AF84B42CC52C10
:102A8000D988ED88FF88088D198D0E94DB46F401F6
:102A900020833183822F932F8115F4E09F07FCF66A
:102AA00081309C4F0CF06DCFE1E0FCEFD401ED9351
:102AB000FC9367CF8D859E859093740980937309ED
:102AC0008091B50B9091B60BAD85BE85FBCB9093F5
:102AD000970C8093960C4901A12CB12C880C991C61
:102AE000AA1CBB1CC12CD12C76019E878D87A0E02F
:102AF000B0E0880F991FAA1FBB1F8C019D0140E009
:102B000050E0BA0189831A832B833C834D835E8313
:102B10006F8378879401A501B601C7015801CB8066
:102B2000DC80E12CF12C00E010E00E94394801E04B
:102B30000E941748722E832E942EB52F662E372EA4
:102B4000F82FE92F00E00E9430482F87432E542EA3
:102B5000598B6D8B7F8B888F998F7A8E8B8E9C8E05
:102B6000BD8F6E8E3F8EF8A3E9A3452DA0E00E9495
:102B7000424849F411E01F87412C512C198A1D8AC3
:102B80001F8A188E198E272D382D492D5B2F662D03
:102B9000732D8F2F9E2FA0E00E94424809F0E2CEB5
:102BA00021E02A8FD8CEAB1709F42AC1A7E7EA2E75
:102BB000ACE0FA2EB5E34B2EBCE05B2EDB0100242B
:102BC000B695A7950794B695A7950794BA2FA02D0B
:102BD000AA54B64F80EC482F46034001479F900C03
:102BE0001124E7ECF4E080E090E07724739459013D
:102BF000A7011D0168010FC070964F5F5F4F0296DD
:102C0000B2E04B0E511C02E0200E311C16E0E73CF6
:102C1000F10709F46DCE2081213071F79C012C5C05
:102C2000364FD9011D921C929101280D391D2C0D92
:102C30003D1DD9012D913C9136FF2CC0D2012D9123
:102C40003C91B901E12CF12C8C010856134FD801AD
:102C50006D937C93D2012D933C938C010B50144FB8
:102C6000D801ED92FC92D1010D911C9116FD0FC07F
:102C70006217730730F42017310718F4DA017C92D9
:102C8000BBCF2617370718F402171307B8F3DA017A
:102C90001C92B2CFD2016D917C917901E61AF70AAC
:102CA000D3CF8091760B813009F4A0C08091720956
:102CB000815080937209882309F493C0809175092B
:102CC0008093760C811169C081E08093340CB091BF
:102CD000330C63CD892B09F046C1AB1709F4F5C15C
:102CE00047E7442E4CE0542EA5E3BCE07B010024D2
:102CF000F694E7940794F694E7940794FE2CE02C5E
:102D0000A7014A54564F7A0180EC582F56034001D0
:102D1000579F900C1124E7ECF4E080E090E059011B
:102D20003D01A7010FC07096BFEF4B1A5B0A0296D8
:102D300022E0620E711C4E5F5F4F36E0E73CF30706
:102D400009F4D6CD2081213071F79C012C5C364FDF
:102D5000D9011D921C929A01280D391D200F311F97
:102D6000D9012D913C91D30136FF35C02D913C9175
:102D70007901C12CD12CBC016856734FDB01ED9257
:102D8000FC92D3012D933C939C012B50344FD901DD
:102D9000CD92DC92D2011C92C6CF90917509981306
:102DA0002AC080E092E0E6E7F9E0A4E3B7E0019012
:102DB0000D920197E1F780914307882321F08091DC
:102DC0004807811103C081E08093340CB091330C2B
:102DD000A0918A09E2CCED90FC906901CE18DF0841
:102DE000CACF80918F098093760C6CCF8091900927
:102DF0008093760C67CF64E377E00E94D818DBCF2E
:102E000047E75CE0A5E3BCE00A58164FE7ECF4E0C6
:102E100080E090E0BB24B39469013A014D010DC0FC
:102E20007096BFEF6B1A7B0A029622E0820E911C0D
:102E300036E0E73CF30709F449C04081413081F7AF
:102E4000AC014C5C564FDA011D921C92A801480F50
:102E5000591F405C5F4FDA014D915C9156FF2FC0C6
:102E6000D4014D915C91BA01E12CF12C9C012856C2
:102E7000334FD9016D937C93D4014D935C939C01A6
:102E80002B50344FD901ED92FC929C012C58384FB5
:102E9000D901ED90FC90F6FC0FC06417750730F473
:102EA0004E155F0518F4D301BC92BACF46175707E9
:102EB00018F4E416F506B8F3D3011C92B1CFD4018F
:102EC0006D917C917A01E61AF70AD0CF960111CD67
:102ED00047E75CE0A5E3BCE00A58164FE7ECF4E0F6
:102EE00080E090E04A0169015D010CC07096BFEF7F
:102EF0008B1A9B0A029622E0A20EB11C36E0E73C38
:102F0000F30721F34081413089F7AC014C5C564F07
:102F1000DA011D921C92A801480F591F405C5F4FB7
:102F2000DA014D915C91D50156FF17C04D915C912E
:102F3000BA01E12CF12C9C012856334FD9016D9335
:102F40007C93D5014D935C93AC014B50544FDA0107
:102F5000ED92FC92D4011C92C9CF6D917C917A01C3
:102F6000E61AF70AE8CFAB1709F465C087E7482EE1
:102F70008CE0582EA5E3BCE07B010024F694E79496
:102F80000794F694E7940794FE2CE02CC7018A542A
:102F9000964F7C0180EC482F46034001479F900CE0
:102FA0001124E7ECF4E080E090E059013D01A70135
:102FB00078010FC07096BFEF4B1A5B0A029602E0D1
:102FC000600E711C4E5F5F4F16E0E73CF10709F49D
:102FD0008FCC2081213071F79C012C5C364FD901B8
:102FE0001D921C929A01280D391D2E0D3F1DD901ED
:102FF0002D913C9136FF18C0D3012D913C91B90120
:10300000C12CD12C8C010856134FD8016D937C93A1
:10301000D3012D933C939C012B50344FD901CD9279
:10302000DC92D2011C92C6CFD3016D917C916901D3
:10303000C61AD70AE7CFA5E3BCE047E75CE00A5829
:10304000164FE7ECF4E080E090E05D014A010DC02E
:1030500070960296B2E0AB0EB11C4FEF841A940A40
:1030600056E0E73CF50709F444CC4081413081F754
:10307000AC014C5C564FDA011D921C92A801480F1E
:10308000591F405C5F4FDA014D915C91D50156FFAD
:1030900016C04D915C91BA01E12CF12CDC01A856CF
:1030A000B34F6D937C93D5014D935C93AC014B5022
:1030B000544FDA01ED92FC92D4011C92C9CF6D916C
:1030C0007C917A01E61AF70AE9CFA5E3BCE047E76D
:1030D0005CE00A58164FE7ECF4E080E090E05D0118
:1030E0004A010DC070960296B2E0AB0EB11C4FEFD4
:1030F000841A940A56E0E73CF50709F4FACB4081BC
:10310000413081F7AC014C5C564FDA011D921C92A4
:10311000A801480F591F405C5F4FDA014D915C9147
:1031200056FF17C0D5014D915C91BA01E12CF12CED
:10313000DC01A856B34F6D937C93D5014D935C93FE
:10314000AC014B50544FDA01ED92FC92D4011C9229
:10315000C9CFD5016D917C917A01E61AF70AE8CFC3
:10316000FC0120E030E090E08191980F2F5F3F4F0D
:10317000211582E03807C1F781E0911180E00895C0
:1031800020E032E0FC01A901119241505040E1F7EA
:103190000895FB0120E030E0DC01A20FB31F4C9149
:1031A00041932F5F3F4F211542E03407A9F708955F
:1031B000EF92FF920F931F93CF93DF93F62EE72E9C
:1031C000082F10E020E030E000511F4F2F4F3F4FFD
:1031D00089E0000F111F221F331F8A95D1F7C62FD8
:1031E000D72F80E090E0DC01AC01BD01400F511F02
:1031F000621F731F6BBFFA01479149930196A11D8E
:10320000B11D811542E09407A105B10569F7EF2DC5
:10321000FE2D20E080E090E03191230F0196811592
:1032200032E09307C9F781E0211180E08195DF91B9
:10323000CF911F910F91FF90EF9008954F925F9261
:103240006F927F928F929F92AF92BF92CF92DF92B6
:10325000EF92FF921F93CF93DF938091590D8130AE
:1032600081F0DF91CF911F91FF90EF90DF90CF9091
:10327000BF90AF909F908F907F906F905F904F9096
:1032800008951091170D113061F783E00E94EF0A45
:1032900020915C0D30915D0D7C01E21AF30A84E00F
:1032A0000E94EF0A20915A0D30915B0DEC01C21B78
:1032B000D30B88E3E8168FEFF8060CF479C089EC9D
:1032C000E816F10414F01093180DB701882777FD64
:1032D0008095982F0E9461496B017C0126E234EBB6
:1032E00047E15DE30E94114A2B013C0129E33EE8DE
:1032F00043EE5DE3C701B6010E94114A4B015C0138
:10330000BE01882777FD8095982F0E9461496B0147
:103310007C012DEC3CEC4CEC5DE30E94114A0E94D8
:10332000334970932A0D6093290D70932C0D60938F
:103330002B0DC301B2010E9433499B012E5131096B
:103340003093300D20932F0D625E7F4F7093320DBE
:103350006093310DC301B20190580E9433497093BC
:10336000340D6093330DC501B4010E94334970934D
:10337000360D6093350DC501B40190580E94334954
:103380007093380D6093370D2DEC3CEC4CE45DE30D
:10339000C701B6010E94114A90580E9433497093A8
:1033A0003A0D6093390D70933C0D60933B0D59CFEE
:1033B00082E08093180D89CFE82FF0E0EE0FFF1F19
:1033C000E75EF24F80819181089529E13DE0FC01A3
:1033D00031832083089510925D0D10925C0D109240
:1033E0005B0D10925A0D1092170D1092590D1092FC
:1033F000180D80E4E9E1FDE0DF011D928A95E9F70F
:1034000008958091180D1092180D08951092180DBE
:1034100008952F923F924F925F926F927F928F9278
:103420009F92AF92BF92CF92DF92EF92FF920F9353
:103430001F93CF93DF93CDB7DEB7E4970FB6F89421
:10344000DEBF0FBECDBF10925D0D10925C0D1092CD
:103450005B0D10925A0D82E390E00E941D0D7E01DB
:1034600085E1E80EF11CFE013196FAA7E9A71E01DD
:10347000F9E22F0E311C812C912C540124013501CD
:1034800004C00E94B40C0E949C060E94620D882316
:10349000C1F383E00E94EF0A8C01F70181939193BD
:1034A0007F0184E00E94EF0A6C01E9A5FAA58193EF
:1034B0009193FAA7E9A7B80180E090E00E945F49E4
:1034C0009B01AC01C301B2010E9463482B013C0186
:1034D000B60180E090E00E945F499B01AC01C5010C
:1034E000B4010E9463484B015C01E214F30469F6E5
:1034F0000E94740D20E030E040E251E4C301B201CB
:103500000E94CB486B017C0120E030E040E251E4B6
:10351000C501B4010E94CB4869A77AA78BA79CA7D5
:103520006D897E8980E090E00E945F49A701960145
:103530000E9462489B01AC010E94114A20E030E0E9
:10354000A9010E9463482B013C0169817A8180E0D6
:1035500090E00E945F4929A53AA54BA55CA50E9471
:1035600062489B01AC010E94114A20E030E0A901B1
:103570000E9463484B015C016F89788D80E090E088
:103580000E945F49A70196010E9462489B01AC011D
:103590000E94114AA30192010E9463482B013C0141
:1035A0006B817C8180E090E00E945F4929A53AA56B
:1035B0004BA55CA50E9462489B01AC010E94114A88
:1035C0009B01AC01C501B4010E9463484B015C0141
:1035D000698D7A8D80E090E00E945F49A701960195
:1035E0000E9462489B01AC010E94114A9B01AC0100
:1035F000C301B2010E9463482B013C016D817E81B1
:1036000080E090E00E945F4929A53AA54BA55CA502
:103610000E9462489B01AC010E94114A9B01AC01CF
:10362000C501B4010E9463484B015C016B8D7C8D28
:1036300080E090E00E945F49A70196010E946248E5
:103640009B01AC010E94114A9B01AC01C301B20174
:103650000E9463482B013C016F81788580E090E0F7
:103660000E945F4929A53AA54BA55CA50E94624826
:103670009B01AC010E94114A9B01AC01C501B40140
:103680000E9463484B015C016D8D7E8D80E090E06F
:103690000E945F49A70196010E9462489B01AC010C
:1036A0000E94114A9B01AC01C301B2010E94634810
:1036B0002B013C0169857A8580E090E00E945F499A
:1036C00029A53AA54BA55CA50E9462489B01AC01C7
:1036D0000E94114A9B01AC01C501B4010E946348DC
:1036E0004B015C016F8D78A180E090E00E945F4902
:1036F000A70196010E9462489B01AC010E94114AF9
:103700009B01AC01C301B2010E9463482B013C0143
:103710006B857C8580E090E00E945F4929A53AA5F1
:103720004BA55CA50E9462489B01AC010E94114A16
:103730009B01AC01C501B4010E9463484B015C01CF
:1037400069A17AA180E090E00E945F49A7019601FB
:103750000E9462489B01AC010E94114A9B01AC018E
:10376000C301B2010E9463482B013C016D857E8537
:1037700080E090E00E945F4929A53AA54BA55CA591
:103780000E9462489B01AC010E94114A9B01AC015E
:10379000C501B4010E9463484B015C016BA17CA18F
:1037A00080E090E00E945F49A70196010E94624874
:1037B0009B01AC010E94114A9B01AC01C301B20103
:1037C0000E9463482B013C016F85788980E090E07E
:1037D0000E945F4929A53AA54BA55CA50E946248B5
:1037E0009B01AC010E94114A9B01AC01C501B401CF
:1037F0000E9463484B015C016DA17EA180E090E0D6
:103800000E945F49A70196010E9462489B01AC019A
:103810000E94114A9B01AC01C301B2010E9463489E
:103820006DA77EA78FA798AB69897A8980E090E021
:103830000E945F4929A53AA54BA55CA50E94624854
:103840009B01AC010E94114A9B01AC01C501B4016E
:103850000E94634869AB7AAB8BAB9CAB6FA178A538
:1038600080E090E00E945F49A70196010E946248B3
:103870002B013C016B897C8980E090E00E945F49CC
:1038800029A53AA54BA55CA50E9462484B015C01A5
:10389000A3019201C301B2010E94114A2DA53EA5C8
:1038A0004FA558A90E94634820E030E040E251E46F
:1038B0000E94CB480E94784A2B013C01A50194014B
:1038C000C501B4010E94114A29A93AA94BA95CA9D2
:1038D0000E94634820E030E040E251E40E94CB487F
:1038E0000E94784A4B015C0120E030E040EA51E45C
:1038F000C301B2010E94C74887FF0AC020E030E040
:1039000040EA51E4C501B4010E94C74887FD21C0C7
:1039100044E650E06AE070E084E00E947E0B80E0C4
:10392000E4960FB6F894DEBF0FBECDBFDF91CF9106
:103930001F910F91FF90EF90DF90CF90BF90AF90CD
:103940009F908F907F906F905F904F903F902F90BF
:10395000089581E08093170DC701B6010E94334995
:1039600070935D0D60935C0D69A57AA58BA59CA5F0
:103970000E94334970935B0D60935A0D0E94710B46
:1039800081E0CECF81E08093590D08951092590DBA
:1039900008958091590D08950F931F93CF93DF934E
:1039A000EC011091A002113091F108F442C01230E4
:1039B00081F01330C1F50E944F1081112CC010927C
:1039C000620D1092A00281E0DF91CF911F910F91C3
:1039D00008950E944F1081111EC01091620D8091B8
:1039E000610D113009F454C0882309F44AC08A815A
:1039F0000E94F60F1092610D0E94021082E08093E7
:103A0000A00280E0DF91CF911F910F9108950E9455
:103A10004F10882321F11093A00280E0DF91CF9115
:103A20001F910F91089580E0DF91CF911F910F9129
:103A300008958091600D882301F189810E94F60F1D
:103A40000E9402108091600D8093610D81E080934F
:103A5000A00280E0DF91CF911F910F910895009116
:103A6000620D8091610D013009F18111C0CF8B8110
:103A70000E94F60F1093610DBFCF88810E94F60F50
:103A8000DFCF8B810E94F60F81E08093610DB4CF70
:103A9000811114C08D810E94F60F1093610D0E9458
:103AA000021083E08093A00280E0B8CF811106C0AD
:103AB0008D810E94F60F0093610DF1CF8C810E94E1
:103AC000F60F1092610DEBCF1F93CF93DF93EC01B4
:103AD00010919F02113029F1A0F1123079F01330CA
:103AE00059F50E944F10811120C01092620D109262
:103AF0009F0281E0DF91CF911F9108950E944F10A6
:103B0000811113C08091610D81115FC08091620DA0
:103B1000813009F447C08B810E94F60F10939F02F9
:103B200033C00E944F10882309F110939F0280E058
:103B3000DF91CF911F91089580E0DF91CF911F9188
:103B400008958091600D882349F189810E94F60FC4
:103B50000E9402108091600D8093610D81E080933E
:103B60009F0280E0DF91CF911F9108958091610DB8
:103B700081111FC08091620D8130A1F08B810E9464
:103B8000F60F82E080939F0281E08093610D0E9496
:103B9000021080E0DF91CF911F91089588810E94EB
:103BA000F60FD6CF8D810E94F60F83E080939F029F
:103BB000EBCF8A810E94F60F1092610D0E940210D5
:103BC00082E080939F0280E0B3CF8A810E94F60F4B
:103BD0001092610D0E94021010939F0280E0A8CF06
:103BE0001F93CF93DF93EC0110919E02113031F1BE
:103BF000A8F1123079F0133061F50E944F10811155
:103C000021C01092620D10929E0281E0DF91CF914F
:103C10001F9108950E944F10811114C08091610D71
:103C2000813009F057C08091620D813009F45EC087
:103C30008A810E94F60F10939E0233C00E944F109B
:103C4000882309F110939E0280E0DF91CF911F91AC
:103C5000089580E0DF91CF911F9108958091600DCC
:103C6000882341F189810E94F60F0E940210809101
:103C7000600D8093610D81E080939E0280E0DF9172
:103C8000CF911F9108958091610D8130B9F4809199
:103C9000620D813059F18A810E94F60F82E0809393
:103CA0009E021092610D0E94021080E0DF91CF9180
:103CB0001F91089588810E94F60FD7CF8B810E94B3
:103CC000F60F1093610D0E94021082E080939E0215
:103CD00080E0BBCF8B810E94F60F81E08093610D65
:103CE0000E94021010939E0280E0AFCF8C810E9450
:103CF000F60F83E080939E02D4CF8091610D8823DC
:103D000019F01092610D089581E08093610D08957E
:103D1000681B790B683F88EF780744F0693087E0CB
:103D2000780714F060517E40CB010895605F714FB9
:103D3000CB010895680F791F77FD08C061318EE0CF
:103D4000780714F060517E40CB010895605F714F99
:103D5000CB0108951092620D1092600D1092610DCA
:103D600010925F0D10925E0D089581E08093620DB8
:103D700008958093600D089510925F0D10925E0D6E
:103D8000089580915E0D90915F0D0895CF93DF931C
:103D9000C091A002C13071F1D8F1C23071F0C330CE
:103DA00099F50E944F10811129C01092620D109256
:103DB000A00281E0DF91CF9108950E944F10811100
:103DC0001DC0C091620D8091610DC13009F451C0D8
:103DD000882309F446C0809102020E94F60F1092D7
:103DE000610D0E94021082E08093A00280E0DF91CA
:103DF000CF9108950E944F108823F9F0C093A0023C
:103E000080E0DF91CF91089580E0DF91CF91089518
:103E10008091600D882301F1809101020E94F60FCC
:103E20000E9402108091600D8093610D81E080936B
:103E3000A00280E0DF91CF910895D091620D809132
:103E4000610DD13029F18111C6CF809103020E940A
:103E5000F60FC093610DC5CF809100020E94F60F4E
:103E6000DFCF809103020E94F60F81E08093610D05
:103E7000B8CF811116C0809105020E94F60FC09341
:103E8000610D0E94021083E08093A00280E0B9CF10
:103E9000811107C0809105020E94F60FD093610D39
:103EA000F0CF809104020E94F60F1092610DE9CFCD
:103EB000CF93DF93C091A002C13071F1D8F1C2302D
:103EC00071F0C33099F50E944F10811129C01092F2
:103ED000620D1092A00281E0DF91CF9108950E94BF
:103EE0004F1081111DC0C091620D8091610DC130D4
:103EF00009F451C0882309F446C0809108020E9449
:103F0000F60F1092610D0E94021082E08093A002D1
:103F100080E0DF91CF9108950E944F108823F9F03F
:103F2000C093A00280E0DF91CF91089580E0DF91FF
:103F3000CF9108958091600D882301F1809107024F
:103F40000E94F60F0E9402108091600D8093610D17
:103F500081E08093A00280E0DF91CF910895D0911D
:103F6000620D8091610DD13029F18111C6CF809110
:103F700009020E94F60FC093610DC5CF8091060221
:103F80000E94F60FDFCF809109020E94F60F81E0B8
:103F90008093610DB8CF811116C080910B020E94F1
:103FA000F60FC093610D0E94021083E08093A0027F
:103FB00080E0B9CF811107C080910B020E94F60FFB
:103FC000D093610DF0CF80910A020E94F60F1092FB
:103FD000610DE9CFCF93C0919F02C13021F178F1FB
:103FE000C23069F0C33041F50E944F1081111FC0EB
:103FF0001092620D10929F0281E0CF9108950E946D
:104000004F10811114C08091610D81115DC08091AC
:10401000620D813009F443C080910F020E94F60FB7
:10402000C0939F022FC00E944F108823E1F0C093DD
:104030009F0280E0CF91089580E0CF910895809114
:10404000600D882339F180910D020E94F60F0E94C5
:1040500002108091600D8093610D81E080939F023A
:1040600080E0CF9108958091610D811120C08091F1
:10407000620D8130A1F080910F020E94F60F82E064
:1040800080939F0281E08093610D0E94021080E086
:10409000CF91089580910C020E94F60FD8CF8091A5
:1040A00011020E94F60F83E080939F02EBCF809174
:1040B0000E020E94F60F1092610D0E94021082E023
:1040C00080939F0280E0B6CF80910E020E94F60F8F
:1040D0001092610D0E940210C0939F0280E0AACF4F
:1040E000CF93C0919E02C13029F180F1C23069F0B6
:1040F000C33049F50E944F10811120C01092620D0B
:1041000010929E0281E0CF9108950E944F1081117C
:1041100015C08091610D813009F054C08091620D0D
:10412000813009F45CC0809114020E94F60FC093A4
:104130009E022FC00E944F108823E1F0C0939E0280
:1041400080E0CF91089580E0CF9108958091600D37
:10415000882331F1809113020E94F60F0E94021011
:104160008091600D8093610D81E080939E0280E0DC
:10417000CF9108958091610D8130B9F48091620DE5
:10418000813069F1809114020E94F60F82E08093E1
:104190009E021092610D0E94021080E0CF9108955E
:1041A000809112020E94F60FD9CF809115020E94D1
:1041B000F60FC093610D0E94021082E080939E0270
:1041C00080E0BFCF809115020E94F60F81E08093BE
:1041D000610D0E940210C0939E0280E0B2CF8091D8
:1041E00016020E94F60F83E080939E02D2CFCF93F7
:1041F000C0919F02C13021F178F1C23069F0C33023
:1042000041F50E944F1081111FC01092620D109253
:104210009F0281E0CF9108950E944F10811114C038
:104220008091610D81115DC08091620D813009F432
:1042300043C080911B020E94F60FC0939F022FC0C3
:104240000E944F108823E1F0C0939F0280E0CF913D
:10425000089580E0CF9108958091600D882339F111
:10426000809119020E94F60F0E9402108091600D49
:104270008093610D81E080939F0280E0CF9108954B
:104280008091610D811120C08091620D8130A1F07B
:1042900080911B020E94F60F82E080939F0281E0D2
:1042A0008093610D0E94021080E0CF91089580916B
:1042B00018020E94F60FD8CF80911D020E94F60FBF
:1042C00083E080939F02EBCF80911A020E94F60F49
:1042D0001092610D0E94021082E080939F0280E0A4
:1042E000B6CF80911A020E94F60F1092610D0E94C3
:1042F0000210C0939F0280E0AACFCF93C0919E028C
:10430000C13029F180F1C23069F0C33049F50E9413
:104310004F10811120C01092620D10929E0281E018
:10432000CF9108950E944F10811115C08091610DA9
:10433000813009F054C08091620D813009F45CC075
:10434000809120020E94F60FC0939E022FC00E940F
:104350004F108823E1F0C0939E0280E0CF91089532
:1043600080E0CF9108958091600D882331F1809194
:104370001F020E94F60F0E9402108091600D809330
:10438000610D81E080939E0280E0CF91089580913D
:10439000610D8130B9F48091620D813069F18091B5
:1043A00020020E94F60F82E080939E021092610D1F
:1043B0000E94021080E0CF91089580911E020E9419
:1043C000F60FD9CF809121020E94F60FC093610DA4
:1043D0000E94021082E080939E0280E0BFCF809115
:1043E00021020E94F60F81E08093610D0E9402106D
:1043F000C0939E0280E0B2CF809122020E94F60F0D
:1044000083E080939E02D2CFCF93C0919F02C130B0
:1044100021F178F1C23069F0C33041F50E944F10AC
:1044200081111FC01092620D10929F0281E0CF9106
:1044300008950E944F10811114C08091610D811167
:104440005DC08091620D813009F443C080912702E4
:104450000E94F60FC0939F022FC00E944F10882326
:10446000E1F0C0939F0280E0CF91089580E0CF916A
:1044700008958091600D882339F1809125020E9472
:10448000F60F0E9402108091600D8093610D81E013
:1044900080939F0280E0CF9108958091610D8111FA
:1044A00020C08091620D8130A1F0809127020E948E
:1044B000F60F82E080939F0281E08093610D0E945D
:1044C000021080E0CF910895809124020E94F60F9F
:1044D000D8CF809129020E94F60F83E080939F023B
:1044E000EBCF809126020E94F60F1092610D0E9480
:1044F000021082E080939F0280E0B6CF8091260276
:104500000E94F60F1092610D0E940210C0939F024C
:1045100080E0AACFCF93C0919E02C13029F180F1F3
:10452000C23069F0C33049F50E944F10811120C09C
:104530001092620D10929E0281E0CF9108950E9428
:104540004F10811115C08091610D813009F054C068
:104550008091620D813009F45CC080912C020E9430
:10456000F60FC0939E022FC00E944F108823E1F0E7
:10457000C0939E0280E0CF91089580E0CF9108958E
:104580008091600D882331F180912B020E94F60FFB
:104590000E9402108091600D8093610D81E08093F4
:1045A0009E0280E0CF9108958091610D8130B9F431
:1045B0008091620D813069F180912C020E94F60F8A
:1045C00082E080939E021092610D0E94021080E0B2
:1045D000CF91089580912A020E94F60FD9CF809141
:1045E0002D020E94F60FC093610D0E94021082E01E
:1045F00080939E0280E0BFCF80912D020E94F60F33
:1046000081E08093610D0E940210C0939E0280E0C1
:10461000B2CF80912E020E94F60F83E080939E021B
:10462000D2CFCF93C0919F02C13021F178F1C23037
:1046300069F0C33041F50E944F1081111FC01092E4
:10464000620D10929F0281E0CF9108950E944F1059
:10465000811114C08091610D81115DC08091620D46
:10466000813009F443C0809133020E94F60FC09359
:104670009F022FC00E944F108823E1F0C0939F0239
:1046800080E0CF91089580E0CF9108958091600DF2
:10469000882339F1809131020E94F60F0E940210A6
:1046A0008091600D8093610D81E080939F0280E096
:1046B000CF9108958091610D811120C08091620D8C
:1046C0008130A1F0809133020E94F60F82E0809346
:1046D0009F0281E08093610D0E94021080E0CF91E3
:1046E0000895809130020E94F60FD8CF8091350254
:1046F0000E94F60F83E080939F02EBCF80913202FD
:104700000E94F60F1092610D0E94021082E08093C9
:104710009F0280E0B6CF809132020E94F60F109285
:10472000610D0E940210C0939F0280E0AACFCF9338
:10473000C0919E02C13029F180F1C23069F0C330CE
:1047400049F50E944F10811120C01092620D109205
:104750009E0281E0CF9108950E944F10811115C0F3
:104760008091610D813009F054C08091620D8130DB
:1047700009F45CC0809138020E94F60FC0939E023B
:104780002FC00E944F108823E1F0C0939E0280E06A
:10479000CF91089580E0CF9108958091600D882396
:1047A00031F1809137020E94F60F0E940210809131
:1047B000600D8093610D81E080939E0280E0CF9137
:1047C00008958091610D8130B9F48091620D81303E
:1047D00069F1809138020E94F60F82E080939E0278
:1047E0001092610D0E94021080E0CF910895809197
:1047F00036020E94F60FD9CF809139020E94F60F3F
:10480000C093610D0E94021082E080939E0280E0BE
:10481000BFCF809139020E94F60F81E08093610D35
:104820000E940210C0939E0280E0B2CF80913A02B3
:104830000E94F60F83E080939E02D2CFCF93C09167
:104840009F02C13021F178F1C23069F0C33041F5E7
:104850000E944F1081111FC01092620D10929F0292
:1048600081E0CF9108950E944F10811114C0809172
:10487000610D81115DC08091620D813009F443C0EA
:1048800080913F020E94F60FC0939F022FC00E94AA
:104890004F108823E1F0C0939F0280E0CF910895EC
:1048A00080E0CF9108958091600D882339F1809147
:1048B0003D020E94F60F0E9402108091600D8093CD
:1048C000610D81E080939F0280E0CF9108958091F7
:1048D000610D811120C08091620D8130A1F0809125
:1048E0003F020E94F60F82E080939F0281E0809356
:1048F000610D0E94021080E0CF91089580913C02EA
:104900000E94F60FD8CF809141020E94F60F83E0FB
:1049100080939F02EBCF80913E020E94F60F10928F
:10492000610D0E94021082E080939F0280E0B6CF6A
:1049300080913E020E94F60F1092610D0E940210BB
:10494000C0939F0280E0AACFCF93C0919E02C13056
:1049500029F180F1C23069F0C33049F50E944F104F
:10496000811120C01092620D10929E0281E0CF91C1
:1049700008950E944F10811115C08091610D813002
:1049800009F054C08091620D813009F45CC08091BF
:1049900044020E94F60FC0939E022FC00E944F1047
:1049A0008823E1F0C0939E0280E0CF91089580E0DB
:1049B000CF9108958091600D882331F18091430259
:1049C0000E94F60F0E9402108091600D8093610D8D
:1049D00081E080939E0280E0CF9108958091610DE7
:1049E0008130B9F48091620D813069F18091440287
:1049F0000E94F60F82E080939E021092610D0E9449
:104A0000021080E0CF910895809142020E94F60F3B
:104A1000D9CF809145020E94F60FC093610D0E948C
:104A2000021082E080939E0280E0BFCF8091450219
:104A30000E94F60F81E08093610D0E940210C093E6
:104A40009E0280E0B2CF809146020E94F60F83E082
:104A500080939E02D2CFCF93C0919F02C13021F1AB
:104A600078F1C23069F0C33041F50E944F108111D6
:104A70001FC01092620D10929F0281E0CF910895A5
:104A80000E944F10811114C08091610D81115DC091
:104A90008091620D813009F443C080914B020E94E5
:104AA000F60FC0939F022FC00E944F108823E1F0A1
:104AB000C0939F0280E0CF91089580E0CF91089548
:104AC0008091600D882339F1809149020E94F60F90
:104AD0000E9402108091600D8093610D81E08093AF
:104AE0009F0280E0CF9108958091610D811120C0D7
:104AF0008091620D8130A1F080914B020E94F60FEF
:104B000082E080939F0281E08093610D0E940210F9
:104B100080E0CF910895809148020E94F60FD8CF8F
:104B200080914D020E94F60F83E080939F02EBCFAD
:104B300080914A020E94F60F1092610D0E940210AD
:104B400082E080939F0280E0B6CF80914A020E946B
:104B5000F60F1092610D0E940210C0939F0280E038
:104B6000AACFCF93C0919E02C13029F180F1C2300B
:104B700069F0C33049F50E944F10811120C0109296
:104B8000620D10929E0281E0CF9108950E944F1015
:104B9000811115C08091610D813009F054C0809160
:104BA000620D813009F45CC0809150020E94F60FC2
:104BB000C0939E022FC00E944F108823E1F0C09343
:104BC0009E0280E0CF91089580E0CF91089580917A
:104BD000600D882331F180914F020E94F60F0E94F0
:104BE00002108091600D8093610D81E080939E02A0
:104BF00080E0CF9108958091610D8130B9F480916A
:104C0000620D813069F1809150020E94F60F82E0BE
:104C100080939E021092610D0E94021080E0CF915D
:104C2000089580914E020E94F60FD9CF80915102D3
:104C30000E94F60FC093610D0E94021082E08093E3
:104C40009E0280E0BFCF809151020E94F60F81E06A
:104C50008093610D0E940210C0939E0280E0B2CF4B
:104C6000809152020E94F60F83E080939E02D2CF81
:104C7000CF93DF93C091A002C13071F1D8F1C2305F
:104C800071F0C33099F50E944F10811129C0109224
:104C9000620D1092A00281E0DF91CF9108950E94F1
:104CA0004F1081111DC0C091620D8091610DC13006
:104CB00009F451C0882309F446C0809156020E942D
:104CC000F60F1092610D0E94021082E08093A00204
:104CD00080E0DF91CF9108950E944F108823F9F072
:104CE000C093A00280E0DF91CF91089580E0DF9132
:104CF000CF9108958091600D882301F18091550234
:104D00000E94F60F0E9402108091600D8093610D49
:104D100081E08093A00280E0DF91CF910895D0914F
:104D2000620D8091610DD13029F18111C6CF809142
:104D300057020E94F60FC093610DC5CF80915402B7
:104D40000E94F60FDFCF809157020E94F60F81E09C
:104D50008093610DB8CF811116C0809159020E94D5
:104D6000F60FC093610D0E94021083E08093A002B1
:104D700080E0B9CF811107C0809159020E94F60FDF
:104D8000D093610DF0CF809158020E94F60F1092DF
:104D9000610DE9CFCF93DF93C091A002C13071F1D3
:104DA000D8F1C23071F0C33099F50E944F108111D3
:104DB00029C01092620D1092A00281E0DF91CF9184
:104DC00008950E944F1081111DC0C091620D809105
:104DD000610DC13009F451C0882309F446C08091A7
:104DE0005C020E94F60F1092610D0E94021082E098
:104DF0008093A00280E0DF91CF9108950E944F1030
:104E00008823F9F0C093A00280E0DF91CF9108954C
:104E100080E0DF91CF9108958091600D882301F1AA
:104E200080915B020E94F60F0E9402108091600D3B
:104E30008093610D81E08093A00280E0DF91CF91AB
:104E40000895D091620D8091610DD13029F18111C9
:104E5000C6CF80915D020E94F60FC093610DC5CF51
:104E600080915A020E94F60FDFCF80915D020E946E
:104E7000F60F81E08093610DB8CF811116C080914B
:104E80005F020E94F60FC093610D0E94021083E042
:104E90008093A00280E0B9CF811107C080915F02AA
:104EA0000E94F60FD093610DF0CF80915E020E94B8
:104EB000F60F1092610DE9CF0895089508950895B1
:104EC00008950895089508951F93CF93DF931F9237
:104ED0001F92CDB7DEB7681B790B683F88EF780764
:104EE0003CF5605F714F10919D02113059F1113006
:104EF00008F4A1C0123009F45EC0133009F094C068
:104F00000E944F10811187C080915E0D90915F0DBE
:104F1000019690935F0D80935E0D1092620D10923A
:104F20009D0281E00F900F90DF91CF911F91089526
:104F30006930E7E07E07BCF260517E4010919D022F
:104F40001130A9F669837A830E944F1069817A81B2
:104F5000811161C080915E0D90915F0D01969093DB
:104F60005F0D80935E0D8091620D813009F4B2C0B7
:104F7000CB018D599F4F873C910508F47BC08091F0
:104F8000610D6C39FFEF7F070CF08AC0882309F4AC
:104F9000C3C0813009F4F9C091E090939D02811162
:104FA0008BC081E08093610D80E00F900F90DF91C6
:104FB000CF911F91089569837A830E944F10698170
:104FC0007A81811128C080915E0D90915F0D0196CC
:104FD00090935F0D80935E0D8091620D813009F496
:104FE00088C0CB0177FDA0C0853691050CF46DC05B
:104FF0008091610D161617060CF04CC0811190C0FF
:105000008CE60E94F60F0E94021082E080939D02BF
:105010008091610DC4CF10939D0280E00F900F909E
:10502000DF91CF911F91089580E00F900F90DF9155
:10503000CF911F9108958091600D8823B9F082E28D
:105040000E94F60F0E9402108091600D90E0019680
:10505000817099278093610D81E080939D0280E0AB
:105060000F900F90DF91CF911F91089580E20E94E1
:10507000F60FE8CF8091610D882309F44DC086E2D8
:105080000E94F60F0E94021081E080939D028091A1
:10509000610D85CF81115AC088E70E94F60FB3CF0A
:1050A000653671050CF468C0813049F3882309F432
:1050B00058C081E080939D021092610D80E00F90B6
:1050C0000F90DF91CF911F91089581E080939D0211
:1050D00080E0A4CF8091610D81112BC088E20E94F5
:1050E000F60F0E94021083E080939D028091610D73
:1050F00056CF8091610D16161706FCF4813051F1E0
:105100008CE60E94F60F10939D020E94021080917F
:10511000610D8111D1CF45CF84E20E94F60FB2CF4D
:105120008EE60E94F60F6FCF88279927861B970B74
:105130005BCF8AE20E94F60FD4CF811120C08CE7AA
:105140000E94F60F83E080939D02DFCF8AE70E94E2
:10515000F60F59CF82E70E94F60F83E080939D02FD
:10516000D4CF82E080939D028CE60E94F60F0E94CD
:1051700002108091610D13CF77FF98CF0ACF8AE795
:105180000E94F60F10939D02C0CF8AE70E94F60F8F
:1051900082E080939D020E9402108091610DFFCEFB
:1051A0001F93CF93DF931F921F92CDB7DEB7681B7B
:1051B000790B683F88EF78073CF5605F714F10917D
:1051C0009C02113059F1113008F49EC0123009F4DC
:1051D0005DC0133009F091C00E944F10811184C04E
:1051E00080915E0D90915F0D019790935F0D80937C
:1051F0005E0D1092620D10929C0281E00F900F9054
:10520000DF91CF911F9108956930E7E07E07BCF2EE
:1052100060517E4010919C021130A9F669837A8317
:105220000E944F1069817A8181115EC080915E0D6C
:1052300090915F0D019790935F0D80935E0D80912B
:10524000620D813009F4B0C0CB018D599F4F873C6E
:10525000910508F478C08091610D653671050CF4F4
:1052600088C0882309F4C2C0813009F4E7C091E006
:1052700090939C0281118AC081E08093610D80E04F
:105280000F900F90DF91CF911F91089569837A83DA
:105290000E944F1069817A81811126C080915E0D34
:1052A00090915F0D019790935F0D80935E0D8091BB
:1052B000620D813009F487C0CB0177FD9FC0853630
:1052C00091050CF46CC08091610D77FD4CC081118B
:1052D00091C080E90E94F60F0E94021082E0809344
:1052E0009C028091610DC6CF10939C0280E00F90CC
:1052F0000F90DF91CF911F91089580E00F900F9054
:10530000DF91CF911F9108958091600D8823B9F0AE
:105310008EE20E94F60F0E9402108091600D90E0D4
:105320000196817099278093610D81E080939C02A2
:1053300080E00F900F90DF91CF911F9108958CE244
:105340000E94F60FE8CF8091610D882309F44EC0CA
:1053500082E30E94F60F0E94021081E080939C027B
:105360008091610D87CF811160C084E80E94F60FA3
:10537000B3CF6C39FFEF7F070CF05BC0813041F396
:10538000882309F46DC081E080939C021092610D26
:1053900080E00F900F90DF91CF911F91089581E0F1
:1053A00080939C0280E0A3CF8091610D81112BC07E
:1053B00084E30E94F60F0E94021083E080939C0217
:1053C0008091610D57CF8091610D77FD26C08111CD
:1053D0001EC084E90E94F60F83E080939C020E9425
:1053E00002108091610D8111D1CF46CF80E30E94E0
:1053F000F60FB1CF82E90E94F60F6ECF882799276A
:10540000861B970B5CCF86E30E94F60FD4CF82E910
:105410000E94F60F10939C02E2CF8130D1F084E815
:105420000E94F60F10939C02DACF86E80E94F60FD6
:1054300053CF161617060CF417CFA2CF82E90E949D
:10544000F60F82E080939C020E9402108091610D11
:1054500011CF8AE80E94F60F83E080939C02BFCFB1
:1054600082E080939C0284E80E94F60F0E94021062
:105470008091610DFFCECF93DF93D82FC0919B0217
:10548000C13019F180F0C23021F080E0DF91CF917E
:1054900008950E946B0D811129C0C0939B0280E08A
:1054A000DF91CF9108950E944F1081111BC0D13020
:1054B00019F18CE10E94F60F0E94021081E08093A6
:1054C0009B0280E0DF91CF9108950E944F108111DF
:1054D000E4CF82E080939B0288EE93E00E943F0D30
:1054E00080E0D4CF10929B0280E0D0CF0E94061AB9
:1054F00010929B0281E0CACF8BE10E94F60FDCCFB5
:10550000CF93C82F40919A0250E04830510530F0B7
:1055100080E0C11110929A02CF910895FA01E159E9
:10552000FE4F0C9411480E944F10882309F456C076
:1055300086E080939A0280E0ECCF0E944F1088238F
:1055400009F448C087E080939A0280E0E2CF0E948D
:105550004F108823A9F10E944B1081E080939A029A
:1055600080E0D7CF0E944F10882351F181E08093D3
:105570009A0280E0CECF0E944F10882309F456C0D3
:1055800082E080939A0280E0C4CF0E946B0D81116B
:1055900043C083E080939A0280E0BBCF0E944F100B
:1055A000882381F184E080939A0280E0B2CF0E9448
:1055B0004F108823E9F085E080939A0280E0A9CF1C
:1055C00083EE0E94F60F0E94021082E080939A02FE
:1055D00080E09FCF10929A0281E09BCF8FE10E94E2
:1055E000F60F0E94021087E080939A0280E091CF2C
:1055F00082EE0E94F60F0E94021086E080939A02CB
:1056000080E087CF81EE0E94F60F0E94021085E0B5
:1056100080939A0280E07DCF80EE0E94F60F0E9478
:10562000021084E080939A0280E073CF8CED95E0C5
:105630000E943F0D83E080939A0280E06ACFCF936F
:10564000C0919902C23009F441C068F0C430C1F081
:1056500098F1C53019F50E944F1081110CC01092BD
:10566000990281E00BC0CC23E1F0C130B9F40E9473
:105670004F108823C9F1C093990280E0CF9108951B
:105680000E944F108111F7CF8FE10E94F60F0E9408
:10569000021085E08093990280E0F0CF80E0CF9106
:1056A00008950E944F108823F9F00E944B1081E06A
:1056B0008093990280E0E2CF0E944F108823F9F096
:1056C00083E08093990280E0CF9108950E944F106B
:1056D0008111D1CF85EE0E94F60F0E94021083E067
:1056E0008093990280E0CACF84EE0E94F60F0E9458
:1056F000021082E08093990280E0CF91089586EEB7
:105700000E94F60F0E94021084E08093990280E0CC
:10571000B5CF1F93CF93DF93EB01C81BD90BC83FC5
:1057200088EFD8079CF5C05FD14F109198021230D6
:10573000B9F1133008F04DC0112309F472C01130D3
:1057400009F061C00E944F10811184C08091620DE8
:10575000813009F49FC0C953DF4FCF38D14008F4DE
:1057600088C08091610D813009F4A2C084E50E9457
:10577000F60F0E940210109398028091610D811122
:1057800085C081E08093610D80E03EC0C93097E024
:10579000D9075CF2C051DE4010919802123049F6F0
:1057A0000E944F10882309F460C010939802D7FD1F
:1057B00021C08CE092E00E94641D811129C0C43692
:1057C000D1050CF591E09093620DDF91CF911F917F
:1057D0000895133061F31430B1F40E944F10811119
:1057E00039C01092620D1092980281E0DF91CF9142
:1057F0001F91089582E192E00E94F01D811108C07E
:10580000CD39DF4FFCF680E0DF91CF911F910895F5
:10581000109298021092620D80E0DF91CF911F915B
:1058200008958091600D81111CC080E50E94F60FE3
:105830000E9402108091600D90E00196817099277E
:105840008093610D81E08093980280E0DF91CF9199
:105850001F9108951093980280E0DF91CF911F91DE
:10586000089582E50E94F60FE3CF83E080939802CB
:105870009ECF8091610D811117C084E50E94F60FC3
:105880000E94021081E08093980277CF1092610D00
:1058900080E0BACF8091610D813099F084E50E945B
:1058A000F60F0E94021069CF86E50E94F60FE8CF3E
:1058B0008AE50E94F60F0E94021082E0809398020F
:1058C0005CCF8AE50E94F60F84E080939802E9CFCE
:1058D0001F93CF93DF93EB01C81BD90BC83F88EF11
:1058E000D8079CF5C05FD14F109197021230B9F1E3
:1058F000133008F04DC0112309F472C0113009F0C3
:1059000061C00E944F10811184C08091620D81306E
:1059100009F49FC0C953DF4FCF38D14008F488C085
:105920008091610D8111A2C084E60E94F60F0E9451
:10593000021082E0809397028091610D811185C0F1
:1059400081E08093610D80E03EC0C93097E0D907C7
:105950005CF2C051DE4010919702123049F60E946D
:105960004F10882309F460C010939702D7FD21C01F
:105970008CE092E00E94641D811129C0C436D105DB
:105980000CF591E09093620DDF91CF911F910895F6
:10599000133061F31430B1F40E944F10811139C0FB
:1059A0001092620D1092970281E0DF91CF911F91CA
:1059B000089582E192E00E94F01D811108C0CD3966
:1059C000DF4FFCF680E0DF91CF911F910895109298
:1059D00097021092620D80E0DF91CF911F910895A0
:1059E0008091600D81111CC08CE50E94F60F0E9411
:1059F00002108091600D90E001968170992780934C
:105A0000610D81E08093970280E0DF91CF911F913B
:105A100008951093970280E0DF91CF911F91089530
:105A20008EE50E94F60FE3CF83E0809397029ECF2E
:105A30008091610D811122C080E60E94F60F0E94C4
:105A4000021081E08093970277CF1092610D80E081
:105A5000BACF8091610D811115C084E60E94F60FC6
:105A600084E0809397020E94021066CF82E60E9433
:105A7000F60F0E940210109397025ECF82E60E94FA
:105A8000F60FDDCF82E60E94F60FEDCF1F93CF9386
:105A9000DF93EC0180919602823009F483C028F5EF
:105AA000882309F457C0813061F5C0919202D091EA
:105AB00093020E94013B9E01281B390BC901883FBC
:105AC00038EF93070CF08FC0805F914F97FDBFC0F8
:105AD000853691050CF08FC084E08093960210E02B
