:100000000C94AE010C94CF010C94CF010C94CF0151
:100010000C94CF010C94CF010C94CF010C94CF0120
:100020000C94CF010C94CF010C94CF010C94CF0110
:100030000C94CF010C94CF010C94CF010C94CF0100
:100040000C94CF010C94CF010C94CF010C94CF01F0
:100050000C94CF010C94CF010C94CF010C94CF01E0
:100060000C94CF010C941F2C0C94CF010C94DC2B1E
:100070000C94CF010C94CF010C94CF010C94CF01C0
:100080000C94CF010C94CF010C94CF010C94CF01B0
:100090000C9487300C94CF010C94B6300C94CF01A3
:1000A0000C94CF010C94CF010C94CF010C94CF0190
:1000B0000C94CF010C94CF010C94CF010C94CF0180
:1000C0000C94CF010C94CF010C94CF01A103A30396
:1000D000A003A503A003A003A003A703A003A003FC
:1000E000A003A003A003A003A003A903A003A003EF
:1000F000A003A003A003A003A003A003A003A003E8
:10010000A003A003A003A003A003AB03A003A003CC
:10011000A003A003A003A003A003A003A003A003C7
:10012000A003A003A003A003A003A003A003A003B7
:10013000A003A003A003A003A003A003A003A003A7
:10014000A003A003A003A003A0039F03B903BB0364
:10015000B803BD03B803B803B803BF03B803B803BB
:10016000B803B803B803B803B803C103B803B803AE
:10017000B803B803B803B803B803B803B803B803A7
:10018000B803B803B803B803B803C303B803B8038C
:10019000B803B803B803B803B803B803B803B80387
:1001A000B803B803B803B803B803B803B803B80377
:1001B000B803B803B803B803B803B803B803B80367
:1001C000B803B803B803B803B803B703D403D9031B
:1001D000D303DE03D303D303D303E303D303D30354
:1001E000D303D303D303D303D303E803D303D3034A
:1001F000D303D303D303D303D303D303D303D3034F
:10020000D303D303D303D303D303ED03D303D30324
:10021000D303D303D303D303D303D303D303D3032E
:10022000D303D303D303D303D303D303D303D3031E
:10023000D303D303D303D303D303D303D303D3030E
:10024000D303D303D303D303D303CF03FE03FE03AC
:10025000F803FE03F803F803F8030704F803F803B0
:10026000F803F803F803F803F8030C04F803F803A1
:10027000F803F803F803F803F803F803F803F803A6
:10028000F803F803F803F803F8030104F803F8038C
:10029000F803F803F803F803F803F803F803F80386
:1002A000F803F803F803F803F803F803F803F80376
:1002B000F803F803F803F803F803F803F803F80366
:1002C000F803F803F803F803F80314046364696E91
:1002D0006F70737578585B000C9407040C94C3031B
:1002E0000C94AB030C94FE030C94ED030C943E3081
:1002F0000C94CF030C9401040C94BF030C94B8032A
:100300000C94B9030C94A5030C94DE030C94E8033D
:100310000C941C300C94A9030C9491340C94A003FD
:100320000C9414040C94A3030C94E3030C94A703FF
:100330000C94F8030C940C040C94A1030C94C103CA
:100340000C94D3030C949F030C94BD030C94B7033B
:100350000C94D4030C94D9030C94BB0311241FBE3A
:10036000CFEFD1E2DEBFCDBF00E00CBF12E0A0E0D6
:10037000B2E0ECEDFFE700E00BBF02C007900D928A
:10038000A834B107D9F71FE0A8E4B2E001C01D927C
:10039000A538B107E1F70E94EA330C94EC3F0C94C6
:1003A0000000CF93DF93EC010E94AB288C1B9D0BC8
:1003B000893027E092071CF080519E4006C0883F9C
:1003C00028EF920714F4805F914FDF91CF91089549
:1003D000FC019A01641B750BCB0160E17EE00E9479
:1003E00036346E9FC0016F9F900D7E9F900D11243B
:1003F000820F931F089560E071EE80E090E00E940C
:10040000F7300E9414190E9432190E94EB1B84E6F7
:1004100090E00E944F0C0E9404250C942F28CF934B
:10042000C0914802C13099F018F0C230D9F03CC0F8
:1004300081E00E945504882339F08FE10E94280F43
:100440000E94340F81E00BC0109248022DC00E9420
:10045000810F882319F0C093480226C082E0809360
:10046000480222C080E10E9455048823E9F00E94DE
:10047000AB289F938F9384E192E09F938F930E9488
:100480001E3187E00E949B259F938F938CE292E020
:100490009F938F930E941E318DB79EB708960FB61B
:1004A000F8949EBF0FBE8DBFCF9108950E945E034A
:1004B0000E9417040E9427070E94F30A0C941D0C47
:1004C000649974C081E080936A0290916D029923CF
:1004D00009F4B5C010926E02659952C081E0809314
:1004E000650290916802992309F498C010926902FC
:1004F000669932C081E080935B0290915E029923FD
:1005000009F47BC010925F026799AAC081E08093D2
:10051000560290915902992309F45EC010925A0232
:10052000489912C091E0909360028091630281111A
:1005300010C0809164028F5F809364028091640296
:10054000843109F4B4C0089580916302813009F4C4
:100550009DC010926402089580915E02813091F6F0
:1005600090915F029F5F90935F0290915F02943140
:1005700059F680935D0210925E0210925F02C4CF22
:1005800080916802813009F0B1CF909169029F5F3C
:100590009093690290916902943109F0A9CF8093F8
:1005A00067021092680210926902A2CF80916D02D8
:1005B000813009F08FCF90916E029F5F90936E0211
:1005C00090916E02943109F087CF80936C02109263
:1005D0006D0210926E0280CF90915A029F5F9093AD
:1005E0005A0290915A02943109F09ACF809357029F
:1005F0008093590210925A0293CF90915F029F5FAD
:1006000090935F0290915F02943109F07DCF8093C7
:100610005C0280935E0210925F0276CF9091690235
:100620009F5F9093690290916902943109F060CFC5
:1006300080936602809368021092690259CF90916C
:100640006E029F5F90936E0290916E02943109F05A
:1006500043CF80936B0280936D0210926E023CCF69
:1006600080915902813009F059CF90915A029F5FD1
:1006700090935A0290915A02943109F051CF80938D
:1006800058021092590210925A024ACF9091640275
:100690009F5F9093640290916402943109F053CF6C
:1006A0008093620210926302109264020895909304
:1006B0006102909363021092640208958FE787B9F4
:1006C0008EE788B910926A0210926B0210926C0247
:1006D00010926D0210926E021092650210926602E4
:1006E00010926702109268021092690210925B02E7
:1006F00010925C0210925D0210925E0210925F02F4
:1007000010925602109257021092580210925902FB
:1007100010925A02109260021092610210926202CC
:100720001092630210926402089590E0FC013197E8
:10073000E034F10528F4EA59FF4F0C94BB35469894
:1007400008954098089541980895429808954398CF
:100750000895449808954598089590E0FC013197D4
:10076000E034F10528F4EA55FF4F0C94BB35469A66
:100770000895409A0895419A0895429A0895439A97
:100780000895449A0895459A089590E0FC013197A0
:10079000E034F10540F4EA51FF4F0C94BB3588B1C9
:1007A00090E4892788B9089588B191E0892788B9AC
:1007B000089588B192E0892788B9089588B194E0B6
:1007C000892788B9089588B198E0892788B908955C
:1007D00088B190E1892788B9089588B190E2892786
:1007E00088B9089590E0FC013197E034F10510F0EC
:1007F00080E00895EA5DFE4F0C94BB3586B180E041
:10080000089586B1807290E095958795089586B198
:1008100083FB882780F9089586B1807190E09595D3
:10082000879595958795089586B180740895509819
:10083000589A8DB18F708DB98EB1806F8EB9089531
:10084000803259F160F4813001F18031A1F480915E
:100850006A02882381F010926A0281E00895803450
:1008600061F0803841F480915602882321F0109283
:10087000560281E0089580E0089580915B0288230C
:10088000D1F310925B0281E0089580916002882389
:1008900091F31092600281E00895809165028823AF
:1008A00051F31092650281E00895803259F160F4AD
:1008B000813001F18031A1F480916B02882381F0B5
:1008C00010926B0281E00895803461F0803841F429
:1008D00080915702882321F01092570281E00895F9
:1008E00080E0089580915C028823D1F310925C022D
:1008F00081E0089580916102882391F31092610252
:1009000081E0089580916602882351F31092660277
:1009100081E00895803259F160F4813001F1803135
:10092000A1F480916C02882381F010926C0281E026
:100930000895803461F0803841F480915802882312
:1009400021F01092580281E0089580E0089580918E
:100950005D028823D1F310925D0281E008958091B9
:100960006202882391F31092620281E008958091DF
:100970006702882351F31092670281E008959091F5
:100980007C00987F90937C0020917C00982F97703A
:10099000922B90937C00882359F0815020E830E01E
:1009A00002C0359527958A95E2F7209522B90895DA
:1009B00082B18C6F82B90895CF92DF92EF92FF924D
:1009C000CF93DF93CDB7DEB72E970FB6F894DEBF87
:1009D0000FBECDBF8EE0E6E0F2E0DE0111960190A1
:1009E0000D928A95E1F789819A819C01220F331F2C
:1009F000220F331F220F331F281B390B40E050E01A
:100A0000C12CB4ECDB2EB9E0EB2EF12CC701B60102
:100A10000E944A34215031092F3F310509F008F472
:100A20009BC08B819C819C01220F331F220F331F9F
:100A3000220F331F281B390B40E050E0C701B601DD
:100A40000E944A34215031092F3F310509F008F442
:100A50008AC08D819E819C01220F331F220F331F7C
:100A6000220F331F281B390B40E050E0C701B601AD
:100A70000E944A34215031092F3F310509F008F412
:100A800074C08F8198859C01220F331F220F331F62
:100A9000220F331F281B390B40E050E0C701B6017D
:100AA0000E944A34215031092F3F310509F008F4E2
:100AB0005EC089859A859C01220F331F220F331F48
:100AC000220F331F281B390B40E050E0C701B6014D
:100AD0000E944A34215031092F3F310509F008F4B2
:100AE00048C08B859C859C01220F331F220F331F2A
:100AF000220F331F281B390B40E050E0C701B6011D
:100B00000E944A34215031092F3F3105A1F198F15B
:100B10008D859E859C01220F331F220F331F220FCC
:100B2000331F281B390B40E050E0C701B6010E947B
:100B30004A34215031092F3F3105F9F0F0F02E965B
:100B40000FB6F894DEBF0FBECDBFDF91CF91FF90FF
:100B5000EF90DF90CF90089580E02093B3008F5FF7
:100B60008093B100ECCF81E0F8CF82E0F6CF83E054
:100B7000F4CF84E0F2CF85E0F0CF86E0EECFEAE775
:100B8000F0E0808180648083089580917A0082956E
:100B90008170089587B3869581700895B99B0895F3
:100BA00087B3876087BB1092B20090915F038091FA
:100BB0007C00887F80937C0020917C00892F877047
:100BC000822B80937C00992309F420C12FEF290FF9
:100BD00080E890E002C0959587952A95E2F7809588
:100BE00082B920E42A95F1F780917A00806480939D
:100BF0007A0080917A0084FFFCCF80917A00806136
:100C000080937A008091780090917900E0915F0361
:100C1000F0E0EE0FFF1FE05AFC4F91838083E091DC
:100C20005F032091700230E1E39FF0011124E20F95
:100C3000F11DEE0FFF1FE158FD4F91838083E0917E
:100C40005F0380E2E89FF0011124E158FD4F8081AD
:100C50009181E0915F0320E2E29FF0011124E158CD
:100C6000FD4F22813381820F931FE0915F0330E2B9
:100C7000E39FF0011124E158FD4F24813581820F5B
:100C8000931FE0915F0320E2E29FF0011124E158FD
:100C9000FD4F26813781820F931FE0915F0330E281
:100CA000E39FF0011124E158FD4F20853185820F2B
:100CB000931FE0915F0320E2E29FF0011124E158CD
:100CC000FD4F22853385820F931FE0915F0330E251
:100CD000E39FF0011124E158FD4F24853585820FF3
:100CE000931FE0915F0320E2E29FF0011124E1589D
:100CF000FD4F26853785820F931FE0915F0330E219
:100D0000E39FF0011124E158FD4F20893189820FC2
:100D1000931FE0915F0320E2E29FF0011124E1586C
:100D2000FD4F22893389820F931FE0915F0330E2E8
:100D3000E39FF0011124E158FD4F24893589820F8A
:100D4000931FE0915F0320E2E29FF0011124E1583C
:100D5000FD4F26893789820F931FE0915F0330E2B0
:100D6000E39FF0011124E158FD4F208D318D820F5A
:100D7000931FE0915F0320E2E29FF0011124E1580C
:100D8000FD4F228D338D820F931FE0915F0330E280
:100D9000E39FF0011124E158FD4F248D358D820F22
:100DA000931FE0915F0320E2E29FF0011124E158DC
:100DB000FD4F268D378D820F931F929582958F70F0
:100DC00089279F708927E0915F03F0E0EE0FFF1FF6
:100DD000EF58FD4F9183808320915F032630D1F03F
:100DE00020915F03211107C020916F022130E1F0B3
:100DF0008E3A914008F180915F0390E0019667E0A0
:100E000070E00E94363480935F03089582B18C6F46
:100E100082B9E7CE2091700230E02F5F3F4F2F70F4
:100E2000332720937002DCCF863D914020F30E944F
:100E3000A30A10926F02DFCF4EE150E06EE170E046
:100E400085E00E94B00A81E080936F02D4CFCF92F8
:100E5000DF92EF92FF92CF93DF93CDB7DEB72E975D
:100E60000FB6F894DEBF0FBECDBF87E880937A003F
:100E700010927B0010927C0010927E0010927D00F8
:100E80008CEF81B982B986E692E0909361038093FA
:100E9000600390937202809371029093800280931A
:100EA0007F029093820280938102909384028093C8
:100EB00083029093860280938502909388028093A8
:100EC000870290938A028093890290938C02809388
:100ED0008B0290938E0280938D0290939002809368
:100EE0008F02909392028093910290939402809348
:100EF0009302909396028093950290939802809328
:100F0000970290939A028093990290939C02809307
:100F10009B0290939E0280939D0290936303809323
:100F2000620390937402809373029093A002809363
:100F30009F029093A2028093A1029093A4028093B7
:100F4000A3029093A6028093A5029093A802809397
:100F5000A7029093AA028093A9029093AC02809377
:100F6000AB029093AE028093AD029093B002809357
:100F7000AF029093B2028093B1029093B402809337
:100F8000B3029093B6028093B5029093B802809317
:100F9000B7029093BA028093B9029093BC028093F7
:100FA000BB029093BE028093BD0290936503809331
:100FB000640390937602809375029093C0028093AD
:100FC000BF029093C2028093C1029093C4028093A7
:100FD000C3029093C6028093C5029093C802809387
:100FE000C7029093CA028093C9029093CC02809367
:100FF000CB029093CE028093CD029093D002809347
:10100000CF029093D2028093D1029093D402809326
:10101000D3029093D6028093D5029093D802809306
:10102000D7029093DA028093D9029093DC028093E6
:10103000DB029093DE028093DD029093670380933E
:10104000660390937802809377029093E0028093F6
:10105000DF029093E2028093E1029093E402809396
:10106000E3029093E6028093E5029093E802809376
:10107000E7029093EA028093E9029093EC02809356
:10108000EB029093EE028093ED029093F002809336
:10109000EF029093F2028093F1029093F402809316
:1010A000F3029093F6028093F5029093F8028093F6
:1010B000F7029093FA028093F9029093FC028093D6
:1010C000FB029093FE028093FD029093690380934C
:1010D000680390937A02809379029093000380933F
:1010E000FF02909302038093010390930403809383
:1010F0000303909306038093050390930803809362
:10110000070390930A038093090390930C03809341
:101110000B0390930E0380930D0390931003809321
:101120000F03909312038093110390931403809301
:1011300013039093160380931503909318038093E1
:10114000170390931A038093190390931C038093C1
:101150001B0390931E0380931D0390936B03809356
:101160006A0390937C0280937B0290932003809388
:101170001F03909322038093210390932403809371
:101180002303909326038093250390932803809351
:10119000270390932A038093290390932C03809331
:1011A0002B0390932E0380932D0390933003809311
:1011B0002F039093320380933103909334038093F1
:1011C00033039093360380933503909338038093D1
:1011D000370390933A038093390390933C038093B1
:1011E0003B0390933E0380933D0390936D03809364
:1011F0006C0390937E0280937D02909340038093D2
:101200003F03909342038093410390934403809360
:101210004303909346038093450390934803809340
:10122000470390934A038093490390934C03809320
:101230004B0390934E0380934D0390935003809300
:101240004F039093520380935103909354038093E0
:1012500053039093560380935503909358038093C0
:10126000570390935A038093590390935C038093A0
:101270005B0390935E0380935D0310925F03109273
:10128000700210926F0282E08093B0001092B20060
:101290001092700087E087BB8EE0E6E0F2E0DE01AE
:1012A000119601900D928A95E1F789819A819C01AE
:1012B000220F331F220F331F220F331F281B390B1E
:1012C00040E050E0C12C64ECD62E69E0E62EF12C13
:1012D000C701B6010E944A34215031092F3F310520
:1012E00009F008F49BC08B819C819C01220F331F65
:1012F000220F331F220F331F281B390B40E050E011
:10130000C701B6010E944A34215031092F3F3105EF
:1013100009F008F48AC08D819E819C01220F331F41
:10132000220F331F220F331F281B390B40E050E0E0
:10133000C701B6010E944A34215031092F3F3105BF
:1013400009F008F474C08F8198859C01220F331F27
:10135000220F331F220F331F281B390B40E050E0B0
:10136000C701B6010E944A34215031092F3F31058F
:1013700009F008F464C089859A859C01220F331F07
:10138000220F331F220F331F281B390B40E050E080
:10139000C701B6010E944A34215031092F3F31055F
:1013A00009F008F44AC08B859C859C01220F331FED
:1013B000220F331F220F331F281B390B40E050E050
:1013C000C701B6010E944A34215031092F3F31052F
:1013D00091F188F18D859E859C01220F331F220F8C
:1013E000331F220F331F281B390B40E050E0C70189
:1013F000B6010E944A34215031092F3F3105C9F00E
:10140000C0F02E960FB6F894DEBF0FBECDBFDF91B1
:10141000CF91FF90EF90DF90CF90089580E02093E0
:10142000B3008F5F8093B100ECCF81E0F8CF82E012
:10143000F6CF86E0F4CF85E0F2CF84E0F0CF83E012
:10144000EECFE82FF0E0EE0FFF1FE05AFC4F808157
:1014500091810895E82FF0E0EE0FFF1FEF58FD4F48
:10146000808191810895C19B11C0C19A109295000D
:101470001092940080914D02811109C080917503F2
:10148000813081F080916E03813061F00895809108
:101490007503813019F180916E038130F9F010925B
:1014A0004D02089581E080934D0280916F039091E9
:1014B0007003019790934C0280934B02209171032B
:1014C0003091720330934A0220934902892BF1F63E
:1014D000809180008F7380938000089580914B02EB
:1014E00090914C02009741F0019790934C028093A9
:1014F0004B02892B59F6ECCF8091490290914A0218
:10150000009731F0019790934A0280934902089521
:10151000809180008F7B8093800080918000806824
:101520008093800080916F039091700390934C02A0
:1015300080934B02809171039091720390934A02C1
:1015400080934902089580916E03813009F00895D7
:10155000809180008F738093800010926E030895B5
:1015600090916E03992359F19130A9F1109287005F
:1015700090E0FC01EA58FC4F2081209386001092F5
:1015800089002081269520938800709370036093D2
:101590006F0350937203409371039093740380938D
:1015A0007303809180008F7B809380008091800006
:1015B00080688093800081E080936E03089590910D
:1015C0007503913099F6909180009F7390938000FD
:1015D00010927503CBCF909180009F739093800001
:1015E00010926E03C3CF259A2D9810926F009FE240
:1015F00096BB1092850010928400E0E8F0E0108223
:1016000080818E7F8083808182608083E1E8F0E04A
:1016100010828081886080838081806180831092C5
:101620008900109288008081887F80838081856016
:1016300080831092710098BB1092950010929400D4
:10164000E0E9F0E0108280818E7F808380818D7F51
:101650008083E1E9F0E0108280818860808380816E
:101660008F7E808398E1909399008AE6809398001A
:101670008081887F80838081846080838DE18093F6
:1016800076038AE1809377039093780386E18093D1
:10169000790384E180937A0382E180937B0380E184
:1016A00080937C031092750310926E0381E090E0AA
:1016B0009093700380936F039093720380937103F0
:1016C0001092740310927303089590916E03911118
:1016D0002CC090917503911128C01092870090E062
:1016E000FC01EA58FC4F208120938600109289006B
:1016F0002081269520938800909374038093730330
:101700007093700360936F0350937203409371035F
:10171000809180008F7B8093800080918000806822
:101720008093800081E080937503089590916E030B
:10173000911104C090917503913009F008951092B1
:10174000870090E0FC01EA58FC4F2081209386003E
:10175000109289002081269520938800909374032D
:1017600080937303089520916E03211104C020918A
:101770007503213009F008959093700380936F03EF
:10178000089520916E03211104C02091750321302A
:1017900009F00895909372038093710308958091E6
:1017A0006E03811104C080917503813009F00895A2
:1017B000809180008F73809380001092750308954C
:1017C00080917503089580916E030895D19B19C08F
:1017D000D19A1092250110922401409183038091A7
:1017E0004E0290914F02413069F020917D0330917B
:1017F0007E0382179307C9F0019690934F0280935E
:101800004E0208952091800330918103821793073F
:1018100099F710924F0210924E0240937F038091ED
:101820002101887F80932101089510924F02109228
:101830004E0281E0809382030895109273008FE23C
:101840008ABB1092250110922401E0E2F1E010829F
:1018500080818E7F808380818D7F8083E1E2F1E0D3
:10186000108280818860808380818F7E808388E180
:10187000809329018AE6809328018081887F808374
:1018800010928303109281031092800310927E03C2
:1018900010927D0310927F0310928203089510929C
:1018A00083039C013695279536952795ABE7B4E1E0
:1018B0000E9415349695879590937E0380937D03BF
:1018C0001092820310922501109224018FE28ABBAC
:1018D000E1E2F1E08081887F808380818460808381
:1018E000089521E0209383039C0136952795369532
:1018F0002795ABE7B4E10E941534969587959093B0
:1019000081038093800310927F031092250110922F
:1019100024018FE28ABBE1E2F1E08081887F80834D
:10192000808184608083089580918203813011F0EA
:1019300080E0089510928203089580917F038130A2
:1019400011F080E0089510927F030895E1E2F1E044
:101950008081887F8083D19A109225011092240182
:101960001092820310927F030895109272008FE20A
:1019700089BB1092A5001092A400E0EAF0E010826A
:1019800080818E7F808380818D7F8083E1EAF0E09B
:10199000108280818860808380818F7E80838DE348
:1019A0008093A90088E08093A8008081887F80834D
:1019B0008081826080830895C99B07C0C99A109274
:1019C000A5001092A40081E0089580E00895CF92D0
:1019D000DF92EF92FF920F931F93CF93DF931F92AB
:1019E0001F92CDB7DEB7CE0101960E940E19E4E733
:1019F000F4E0C980DA80F12C61E070E0B5E0EB2E14
:101A00001DC09C012B573C4FD901EC929C012A57D9
:101A10003C4FD901EC929A01220F331F2B5F3B4FB1
:101A20008B579C4FD9018D939C93F3947096B2E0A1
:101A3000CB0ED11C86E0E437F807C9F180818823FA
:101A4000A9F3D6012D913C91CF010797DC018D912F
:101A50009C91280F391F4F2D50E0CA01880F991F04
:101A6000880F991F8C0109571C4FD8012C938C01AA
:101A700008571C4FD8013C939F0121503109D901CF
:101A80002C91222309F4BDCF2F70DB0102C0AA0FD5
:101A9000BB1F2A95E2F79D018C010B571C4FD80103
:101AA0002C938C010A571C4FD8012C93B4CFFF20E4
:101AB00061F005E014E024E030E04CE150E065E442
:101AC00074E0809184030E942E2F0F900F90DF917D
:101AD000CF911F910F91FF90EF90DF90CF900895DD
:101AE00090E1899FF0011124EB59FB4F668708951F
:101AF00090E1899FF0011124EB59FB4F86850895F1
:101B000090E1899FF0011124EB59FB4F71876087A9
:101B1000089590E1899FF0011124EB59FB4F8085D6
:101B20009185089590E1899FF0011124EB59FB4FB5
:101B30008785089590E1899FF0011124EB59FB4FAF
:101B40008285089590E1899FF0011124EB59FB4FA4
:101B500084850895C99B15C0C99A1092A50010925A
:101B6000A4000E94012581110DC00E94840F0E94D3
:101B700050180E94491F0E940125811106C00C9433
:101B8000E70C08950E947E24F0CF0E948824F7CFAE
:101B90002F923F924F925F926F927F928F929F927D
:101BA000AF92BF92CF92DF92EF92FF920F931F936B
:101BB000CF93DF9300D0CDB7DEB7782E19820E9485
:101BC000FB2C882309F433C12FEF89E698E12150DB
:101BD00080409040E1F700C000002981222331F1CC
:101BE000E5E6F4E064E774E02150A0E12A9F90016B
:101BF00011242B583B4F45E0118210821382128230
:101C0000158214821782168211861086DB011C92BF
:101C1000CB010197DC014C9313861286158614863E
:101C20007096605F7F4FE217F30731F765E474E069
:101C3000CE0101960E94502D109284038981882341
:101C400009F466C0312C1CE2A12EBB24B394CC2431
:101C5000CA9403E0D02EE12C82E0F82E5524539450
:101C600095E0692E22E0422E09C081159C4009F4BE
:101C7000A2C033948981381608F048C0E32DF0E003
:101C8000EB5BFB4F2080822D0E94572B8C309105FF
:101C900021F08C32B1E09B0741F7822D0E94352262
:101CA000E0E12E9E4001112484010B591B4FD80105
:101CB0001196BC92AE921396DC92CE921297159624
:101CC0001C921E9214971796FC92EE921697822DF4
:101CD0000E949223F80191878087A4014F585B4F9F
:101CE000B40161597B4F822D0E94B920D8011F9603
:101CF0005C921F971E966C92809184038F5F8093F5
:101D0000840333948981381608F4B8CF8091840312
:101D1000781609F489C044E650E06AE070E084E097
:101D20000E94B00A109272008FE289BB1092A50047
:101D30001092A4001092A0008091A0008E7F80934A
:101D4000A0008091A0008D7F8093A0001092A10040
:101D50008091A10088608093A1008091A1008F7E76
:101D60008093A1008DE38093A90088E08093A80070
:101D70008091A100887F8093A1008091A100826062
:101D80008093A1000E941A0F89810F900F900F90ED
:101D9000DF91CF911F910F91FF90EF90DF90CF9047
:101DA000BF90AF909F908F907F906F905F904F907B
:101DB0003F902F900895822D0E943522E0E12E9EC3
:101DC000B00111248B010B591B4FE4EBF0E0D8015B
:101DD0001196FC93EE931396DC92CE921297159681
:101DE0001C921E9214971796FC92EE921697822DD3
:101DF0006A837B830E949223D80119969C938E93C9
:101E000018976A817B81AB014F585B4F61597B4FBB
:101E1000822D0E94B920F80147866686809184034E
:101E20008F5F8093840325CF0E94A30A7BCF0E94FB
:101E3000C52CCACE1092E10B1092230B8FEF80932A
:101E4000230C809322098093E00B1092220C0895BA
:101E5000CF93C82F63E279E00E940A18811102C073
:101E6000C0932209CF9108951092E10B1092630B59
:101E70001092620B10922109109220091092210CED
:101E80001092200C83E08093C30C1092E00B8091A1
:101E9000320980931F091092230CE4E7F4E080E0FC
:101EA00090E006C07096029626E0E437F20709F14A
:101EB00020812130B9F7DF0117972D913C91DC018A
:101EC000AE51B44F2D933C93DC01AB57B34F1D92F1
:101ED0001C92DC01AE55B44F1D921C92DC01AB5933
:101EE000B94F1D921C927096029626E0E437F207D5
:101EF000F9F681E08093220C089581E08093230B12
:101F000008958091220C08952F923F924F925F92F4
:101F10006F927F928F929F92AF92BF92CF92DF92F9
:101F2000EF92FF920F931F93CF93DF93CDB7DEB75E
:101F3000A3970FB6F894DEBF0FBECDBF8091220CE1
:101F4000882309F49AC08091620B9091630B4091B1
:101F50002009509121098417950708F0A7C08C012A
:101F60000F5F1F4F1A8709871093630B0093620B53
:101F70001091C30C1D87133009F47FC08091200994
:101F8000909121098C0120E030E0098B1A8B2B8B7A
:101F90003C8B8C01015011091E8B0D8B05E41CE05C
:101FA0007DE6A72E74E0B72EE3EACE2EE6E0DE2E25
:101FB000F5E8EF2EFCE0FF2EA5E64A2EA6E05A2E0D
:101FC000B4E26B2EBBE07B2E812C912C80E090E064
:101FD000212C312C9BA38AA3C20123019401480127
:101FE000A60167017A0189013C0121C0BFEF2B1ACC
:101FF0003B0AEAA1FBA17096FBA3EAA3F2E08F0ED5
:10200000911C0E5F1F4F20E1A20EB11C32E0E30EC7
:10201000F11C42E0C40ED11C52E0650E711C62E05E
:10202000460E511C8AA19BA18115924031F12AA133
:102030003BA12B593B4F3A832983D9011F968C91A1
:102040008130A1F6F801EE55F44F80819181892B02
:1020500009F06FC0F40180819181D5018D939C932B
:10206000F101ED5DF64F80A1A981BA811E968C9396
:10207000BDCF1092220C1092230BA3960FB6F894AA
:10208000DEBF0FBECDBFDF91CF911F910F91FF90AB
:10209000EF90DF90CF90BF90AF909F908F907F9008
:1020A0006F905F904F903F902F9008951092630B28
:1020B0001092620BE4E7F4E080E090E006C07096D6
:1020C000029606E0E437F007E1F020812130B9F70D
:1020D000DF0117972D913C91DC01AB5BB34F2D9342
:1020E0003C93DC01AB59B94F2D913C91DC01AB57CE
:1020F000B34F2D933C937096029606E0E437F007B9
:1021000021F78091C30C882309F4C7C0813009F4FA
:1021100092C1823009F45BC1833009F42CC25E871E
:102120004D8780E090E0DA018A179B0708F0A5CF81
:1021300016CFBD85B1114AC0F6010190F081E02DA6
:10214000F88BEF87F701A081B1812F853889A21B19
:10215000B30B29853A850E94243429893A894B8911
:102160005C890E946C348F859889820F931FD301FC
:102170008D939C93D901B595A795EF85F889AE0FFE
:10218000BF1F29853A850E9424349B01AC01A0E938
:10219000B0E00E942B342FE030E040E050E00E949D
:1021A0006C3469E055954795379527956A95D1F731
:1021B000F801EF51F74F31832083D4018D919C9129
:1021C000820F931FF501918380834ACFB13009F4C8
:1021D00048C029853A854D895E892417350709F459
:1021E00021C1F101EC5DF34F808181113AC0F6010C
:1021F0000190F081E02DF88BEF87DF01B195A1957B
:10220000B10929853A850E94243429893A894B8964
:102210005C890E946C348F859889820F931FD3014B
:102220008D939C93D901B595A795EF85F889AE0F4D
:10223000BF1F29853A850E9424349B01AC01A0E987
:10224000B0E00E942B342FE030E040E050E00E94EC
:102250006C3499E055954795379527959A95D1F720
:10226000ACCFF201A081B18129853A850E94243446
:1022700029893A894B895C890E946C34D4018D91FB
:102280009C91820F931FF50191838083D7018D91DB
:102290009C91F30191838083E3CE81E08093C30C12
:1022A0002091830C3091840C0091430C1091440CCC
:1022B0001A830983C801880F991F8901081B190B0C
:1022C0001E870D87109321090093200909811A8127
:1022D0002017310709F4E5C0A801B2EA2B2EBBE0B4
:1022E0003B2E11EE612E18E0712E03EA802E06E0DF
:1022F000902E84E2482E8BE0582E04E21CE064E726
:1023000074E0C901841B950B9C0140E050E02987D3
:102310003A874B875C8795E0C92ED12CE12CF12CB4
:10232000788B6F8719C0EF85F8897096F88BEF87E7
:10233000F2E02F0E311C22E0620E711C32E0830E9F
:10234000911C42E0440E511C0F5F1F4F6F8578892E
:102350006457764009F44BC0AF85B8898C918130C1
:1023600011F7F8018081813009F446C0F401A081A1
:10237000B181F101A080B180F30180819181A81A1F
:10238000B90A29813A810E9424349B01AC01660F6D
:10239000771F881F991F620F731F841F951F660F79
:1023A000771F881F991F660F771F881F991FA70126
:1023B00096010E946C34BB2757FDBA95A52F942F28
:1023C000832FA81AB90AD201AD92BC92ACCF8091EA
:1023D000200C9091210C009709F4E1C023E0209398
:1023E000C30C90932109809320099E878D8780E0FC
:1023F00090E0AD85BE8598CEF101A081B181F30159
:1024000080819181A81BB90B2D853E850E942434C3
:1024100029853A854B855C850E946C34D2012D93C9
:102420003C9381CFF801EE51F44F80819181D50129
:102430008D939C9315CE82E08093C30C7091430CD6
:102440006091440C7093200960932109A4E2BBE0E1
:10245000E4E7F4E080E090E08D0109C07096029618
:102460000E5F1F4FB6E0E437FB0709F47DC0208103
:102470002130A1F79C012E55344FD9012D913C916B
:10248000D8014D915C91241B350BAC014F51574F36
:10249000DA014D915C91241B350BD8012D933C93AF
:1024A000DDCFB4E2CB2EBBE0DB2E14E2E12E1CE04C
:1024B000F12E84E794E000E010E045E0442E512C3A
:1024C000612C712C49011C0111C0F0E12F0E311C4F
:1024D00022E0C20ED11C0E5F1F4F3FEFE31AF30A3A
:1024E00044E7241646E0340609F481CFD1018C91EB
:1024F000813059F7F70180818130C9F1F801ED553C
:10250000F94FA081B181F801EE55F44FA080B18060
:10251000F801EF51F74F80819181A81AB90A94010F
:102520000E9424349B01AC01660F771F881F991FFE
:10253000620F731F841F951F660F771F881F991FD7
:10254000660F771F881F991FA30192010E946C34A8
:10255000BB2757FDBA95A52F942F832FA81AB90A28
:10256000F601B182A082B1CF7D876E8740CFD601C0
:102570001D921C92AACF1092C30CA5E8BCE0E4E720
:10258000F4E006C07096129606E0E437F00749F0D2
:1025900080818130B9F711961C921E92F3CF109270
:1025A000C30C8091E10B813009F463CD8091E00B85
:1025B0008F5F8093E00BA0913709A81708F0C8C07F
:1025C00080E092E0E1EEF6E0A3E2B9E001900D9246
:1025D0000197E1F78091230C90912209981721F03F
:1025E0009091320990931F0991E09093E00B8093B2
:1025F0002209A0913709B1E0AB1709F484C26B2F0F
:1026000070E08B010150110900241695079507947D
:10261000169507950794102F002DA8014D5D564F74
:10262000FA01E258FF4F808120913909289FC001AB
:10263000112496958795929582958F7089279F7022
:1026400089279093210C8093200CFA01E158FF4FC9
:102650003081329F9001112436952795329522952D
:102660002F7023273F7023272115310511F421E016
:1026700030E04091E10B413009F45EC2892B09F44E
:10268000C4C1AB1709F456C3E4E24E2EECE05E2E53
:10269000A2EEBBE07B010024F694E7940794F69445
:1026A000E7940794FE2CE02CA7014D59564F7A0170
:1026B00080EC582F56034001579F900C1124E4E7FB
:1026C000F4E080E090E059013D01A70168010EC0EF
:1026D0007096BFEF4B1A5B0A029602E0600E711C07
:1026E0004E5F5F4F16E0E437F107A1F12081213002
:1026F00079F79C012F51374FD9011D921C929A01F5
:10270000280D391D2C0D3D1DD9012D913C9136FF11
:1027100018C0D3012D913C91B901E12CF12C8C0111
:102720000B5B134FD8016D937C93D3012D933C9396
:102730009C012E55344FD901ED92FC92D2011C928E
:10274000C7CFD3016D917C917901E61AF70AE7CFE3
:10275000B82F52CF95013093840C2093830C809135
:102760003B0990E0AC01440F551F4217530708F492
:10277000E0C0C9010197969587959093440C80938A
:10278000430C009709F0D9C01092840C1092830C6E
:102790001E861D8619821A821B821C821D821E8241
:1027A0001F82188661E06F87412C512C198A1D8A7F
:1027B0001F8A188E198E71E07A8F1B8E1C8E1D8ECB
:1027C0001E8E1F8E18A219A273EA872E76E0972E0E
:1027D000E4E26E2EECE07E2E04E714E0212C312C96
:1027E0001BA30AA315C00AA11BA1005F1F4F1BA3B7
:1027F0000AA312E0810E911C22E0220E311C3FEF51
:10280000631A730A4AA15BA14457564009F484C075
:10281000AAA1BBA18C91813031F7F101EB57F34FA5
:1028200031812081932F990F990BA980BA80CB8099
:10283000DC80ED80FE800F811885492F592F692F8C
:10284000792F892F0E94C23459016A017B018C01C2
:10285000F101EE55F44FA081B18120E03AE00E94F1
:1028600024342CE030E040E050E00E946C34DA0187
:10287000C901550F220B322FA90129873A874B87AF
:102880005C87F3012081211122C09C01AD01698583
:10289000762F862F962F0E94E335AA8CBB8CCC8C8A
:1028A000DD8CEE8CFF8C08A119A10E948534D40127
:1028B0002C9311963C93822F932F8115F4E09F0760
:1028C0000CF1EFEFF3E0D401ED93FC938CCF9C017E
:1028D000AD016985762F862F962F0E94E335AF8450
:1028E000B42CC52CD988ED88FF88088D198D0E94DD
:1028F0008534F40120833183822F932F8115F4E0F6
:102900009F07FCF681309C4F0CF06DCFE1E0FCEFAF
:10291000D401ED93FC9367CF8D859E85909321091B
:10292000809320098091620B9091630BAD85BE85E9
:10293000FBCB9093440C8093430C4901A12CB12C08
:10294000880C991CAA1CBB1CC12CD12C76019E871B
:102950008D87A0E0B0E0880F991FAA1FBB1F8C01D4
:102960009D0140E050E0BA0189831A832B833C83A8
:102970004D835E836F8378879401A501B601C701FB
:102980005801CB80DC80E12CF12C00E010E00E94AB
:10299000E33501E00E94C135722E832E942EB52FAF
:1029A000662E372EF82FE92F00E00E94DA352F87A8
:1029B000432E542E598B6D8B7F8B888F998F7A8EF7
:1029C0008B8E9C8EBD8F6E8E3F8EF8A3E9A3452D16
:1029D000A0E00E94EC3549F411E01F87412C512CF6
:1029E000198A1D8A1F8A188E198E272D382D492D78
:1029F0005B2F662D732D8F2F9E2FA0E00E94EC354C
:102A000009F0E2CE21E02A8FD8CEAB1709F42AC113
:102A1000A4E2EA2EACE0FA2EB2EE4B2EBBE05B2E27
:102A2000DB010024B695A7950794B695A795079462
:102A3000BA2FA02DAD59B64F80EC482F4603400168
:102A4000479F900C1124E4E7F4E080E090E07724C5
:102A500073945901A7011D0168010FC070964F5F63
:102A60005F4F0296B2E04B0E511C02E0200E311C6B
:102A700016E0E437F10709F46DCE2081213071F7BB
:102A80009C012F51374FD9011D921C929101280DA5
:102A9000391D2C0D3D1DD9012D913C9136FF2CC0C7
:102AA000D2012D913C91B901E12CF12C8C010B5BF1
:102AB000134FD8016D937C93D2012D933C938C01DD
:102AC0000E55144FD801ED92FC92D1010D911C913D
:102AD00016FD0FC06217730730F42017310718F482
:102AE000DA017C92BBCF2617370718F402171307B9
:102AF000B8F3DA011C92B2CFD2016D917C917901C9
:102B0000E61AF70AD3CF8091230B813009F4A0C0D5
:102B100080911F09815080931F09882309F493C075
:102B2000809122098093230C811169C081E08093F8
:102B3000E10BB091E00B63CD892B09F046C1AB17D7
:102B400009F4F5C144E2442E4CE0542EA2EEBBE061
:102B50007B010024F694E7940794F694E794079495
:102B6000FE2CE02CA7014D59564F7A0180EC582FCE
:102B700056034001579F900C1124E4E7F4E080E0F5
:102B800090E059013D01A7010FC07096BFEF4B1AAD
:102B90005B0A029622E0620E711C4E5F5F4F36E0C8
:102BA000E437F30709F4D6CD2081213071F79C0179
:102BB0002F51374FD9011D921C929A01280D391DB2
:102BC000200F311FD9012D913C91D30136FF35C023
:102BD0002D913C917901C12CD12CBC016B5B734FC1
:102BE000DB01ED92FC92D3012D933C939C012E5579
:102BF000344FD901CD92DC92D2011C92C6CF909174
:102C0000220998132AC080E092E0E3E2F9E0A1EE05
:102C1000B6E001900D920197E1F78091F0068823CC
:102C200021F08091F506811103C081E08093E10BD2
:102C3000B091E00BA0913709E2CCED90FC906901D6
:102C4000CE18DF08CACF80913C098093230C6CCF4B
:102C500080913D098093230C67CF61EE76E00E945E
:102C60000A18DBCF44E25CE0A2EEBBE00D5D164F3C
:102C7000E4E7F4E080E090E0BB24B39469013A011A
:102C80004D010DC07096BFEF6B1A7B0A029622E0D1
:102C9000820E911C36E0E437F30709F449C0408105
:102CA000413081F7AC014F51574FDA011D921C9210
:102CB000A801480F591F405C5F4FDA014D915C91AC
:102CC00056FF2FC0D4014D915C91BA01E12CF12C3B
:102CD0009C012B5B334FD9016D937C93D4014D93B1
:102CE0005C939C012E55344FD901ED92FC929C01CE
:102CF0002F5D384FD901ED90FC90F6FC0FC06417A2
:102D0000750730F44E155F0518F4D301BC92BACFA5
:102D10004617570718F4E416F506B8F3D3011C92CA
:102D2000B1CFD4016D917C917A01E61AF70AD0CF28
:102D3000960111CD44E25CE0A2EEBBE00D5D164FC2
:102D4000E4E7F4E080E090E04A0169015D010CC035
:102D50007096BFEF8B1A9B0A029622E0A20EB11C5E
:102D600036E0E437F30721F34081413089F7AC01C5
:102D70004F51574FDA011D921C92A801480F591F5D
:102D8000405C5F4FDA014D915C91D50156FF17C051
:102D90004D915C91BA01E12CF12C9C012B5B334FDE
:102DA000D9016D937C93D5014D935C93AC014E5545
:102DB000544FDA01ED92FC92D4011C92C9CF6D916F
:102DC0007C917A01E61AF70AE8CFAB1709F465C0DF
:102DD00084E2482E8CE0582EA2EEBBE07B0100245A
:102DE000F694E7940794F694E7940794FE2CE02C6D
:102DF000C7018D59964F7C0180EC482F4603400156
:102E0000479F900C1124E4E7F4E080E090E0590142
:102E10003D01A70178010FC07096BFEF4B1A5B0A06
:102E2000029602E0600E711C4E5F5F4F16E0E437C1
:102E3000F10709F48FCC2081213071F79C012F51CB
:102E4000374FD9011D921C929A01280D391D2E0D64
:102E50003F1DD9012D913C9136FF18C0D3012D9112
:102E60003C91B901C12CD12C8C010B5B134FD801C3
:102E70006D937C93D3012D933C939C012E55344F3D
:102E8000D901CD92DC92D2011C92C6CFD3016D91B3
:102E90007C916901C61AD70AE7CFA2EEBBE044E2F3
:102EA0005CE00D5D164FE4E7F4E080E090E05D014A
:102EB0004A010DC070960296B2E0AB0EB11C4FEF06
:102EC000841A940A56E0E437F50709F444CC4081AB
:102ED000413081F7AC014F51574FDA011D921C92DE
:102EE000A801480F591F405C5F4FDA014D915C917A
:102EF000D50156FF16C04D915C91BA01E12CF12C21
:102F0000DC01AB5BB34F6D937C93D5014D935C9328
:102F1000AC014E55544FDA01ED92FC92D4011C9253
:102F2000C9CF6D917C917A01E61AF70AE9CFA2EE3A
:102F3000BBE044E25CE00D5D164FE4E7F4E080E0C6
:102F400090E05D014A010DC070960296B2E0AB0EB2
:102F5000B11C4FEF841A940A56E0E437F50709F4E0
:102F6000FACB4081413081F7AC014F51574FDA0124
:102F70001D921C92A801480F591F405C5F4FDA0157
:102F80004D915C9156FF17C0D5014D915C91BA01EE
:102F9000E12CF12CDC01AB5BB34F6D937C93D5013D
:102FA0004D935C93AC014E55544FDA01ED92FC9277
:102FB000D4011C92C9CFD5016D917C917A01E61A9A
:102FC000F70AE8CFFC0120E030E090E08191980F13
:102FD0002F5F3F4F211582E03807C1F781E0911143
:102FE00080E0089520E032E0FC01A90111924150F7
:102FF0005040E1F70895FB0120E030E0DC01A20F32
:10300000B31F4C9141932F5F3F4F211542E034078E
:10301000A9F70895EF92FF920F931F93CF93DF9339
:10302000F62EE72E082F10E020E030E000511F4F71
:103030002F4F3F4F89E0000F111F221F331F8A952A
:10304000D1F7C62FD72F80E090E0DC01AC01BD01A5
:10305000400F511F621F731F6BBFFA0147914993C5
:103060000196A11DB11D811542E09407A105B1058E
:1030700069F7EF2DFE2D20E080E090E03191230FE5
:103080000196811532E09307C9F781E0211180E0B4
:103090008195DF91CF911F910F91FF90EF9008954F
:1030A0004F925F926F927F928F929F92AF92BF9258
:1030B000CF92DF92EF92FF921F93CF93DF93809195
:1030C000060D813081F0DF91CF911F91FF90EF903D
:1030D000DF90CF90BF90AF909F908F907F906F9038
:1030E0005F904F9008951091C40C113061F783E008
:1030F0000E94210A2091090D30910A0D7C01E21AEB
:10310000F30A84E00E94210A2091070D3091080DF6
:10311000EC01C21BD30B88E3E8168FEFF8060CF422
:1031200070C089ECE816F10414F01093C50CB701D7
:10313000882777FD8095982F0E940B376B017C01C3
:1031400026E234EB47E15DE30E94BB372B013C01F3
:1031500029E33EE843EE5DE3C701B6010E94BB37B9
:103160004B015C01BE01882777FD8095982F0E9456
:103170000B376B017C012DEC3CEC4CEC5DE30E94C9
:10318000BB370E94DD367093D70C6093D60C7093DA
:10319000D90C6093D80CC301B2010E94DD36709344
:1031A000DF0C6093DE0CC301B20190580E94DD3643
:1031B0007093E10C6093E00CC501B4010E94DD3610
:1031C0007093E30C6093E20CC501B40190580E9427
:1031D000DD367093E50C6093E40C2DEC3CEC4CE494
:1031E0005DE3C701B6010E94BB3790580E94DD36EF
:1031F0007093E70C6093E60C7093E90C6093E80C15
:1032000062CF82E08093C50C92CFE82FF0E0EE0F02
:10321000FF1FEA53F34F80819181089526EC3CE033
:10322000FC0131832083089510920A0D1092090D3C
:103230001092080D1092070D1092C40C1092060DFA
:103240001092C50C80E4E6ECFCE0DF011D928A954B
:10325000E9F708958091C50C1092C50C089510925D
:10326000C50C08952F923F924F925F926F927F927A
:103270008F929F92AF92BF92CF92DF92EF92FF9286
:103280000F931F93CF93DF93CDB7DEB7E4970FB6BD
:10329000F894DEBF0FBECDBF10920A0D1092090D3B
:1032A0001092080D1092070D82E390E00E944F0CDF
:1032B0007E0185E1E80EF11CFE013196FAA7E9A72F
:1032C0001E01F9E22F0E311C812C912C5401240196
:1032D000350104C00E94E60B0E94CE050E94940CAA
:1032E0008823C1F383E00E94210A8C01F7018193B6
:1032F00091937F0184E00E94210A6C01E9A5FAA55F
:1033000081939193FAA7E9A7B80180E090E00E9429
:1033100009379B01AC01C301B2010E940D362B019C
:103320003C01B60180E090E00E9409379B01AC01AE
:10333000C501B4010E940D364B015C01E214F30497
:1033400069F60E94A60C20E030E040E251E4C3019F
:10335000B2010E9475366B017C0120E030E040E252
:1033600051E4C501B4010E94753669A77AA78BA7FD
:103370009CA76D897E8980E090E00E940937A701B3
:1033800096010E940C369B01AC010E94BB3720E0E5
:1033900030E0A9010E940D362B013C0169817A8140
:1033A00080E090E00E94093729A53AA54BA55CA5CD
:1033B0000E940C369B01AC010E94BB3720E030E03C
:1033C000A9010E940D364B015C016F89788D80E068
:1033D00090E00E940937A70196010E940C369B01DC
:1033E000AC010E94BB37A30192010E940D362B0154
:1033F0003C016B817C8180E090E00E94093729A527
:103400003AA54BA55CA50E940C369B01AC010E941D
:10341000BB379B01AC01C501B4010E940D364B01C5
:103420005C01698D7A8D80E090E00E940937A701E8
:1034300096010E940C369B01AC010E94BB379B0198
:10344000AC01C301B2010E940D362B013C016D811C
:103450007E8180E090E00E94093729A53AA54BA51E
:103460005CA50E940C369B01AC010E94BB379B01FE
:10347000AC01C501B4010E940D364B015C016B8D9E
:103480007C8D80E090E00E940937A70196010E94A0
:103490000C369B01AC010E94BB379B01AC01C30100
:1034A000B2010E940D362B013C016F81788580E0CE
:1034B00090E00E94093729A53AA54BA55CA50E947A
:1034C0000C369B01AC010E94BB379B01AC01C501CE
:1034D000B4010E940D364B015C016D8D7E8D80E044
:1034E00090E00E940937A70196010E940C369B01CB
:1034F000AC010E94BB379B01AC01C301B2010E9429
:103500000D362B013C0169857A8580E090E00E94B0
:10351000093729A53AA54BA55CA50E940C369B014D
:10352000AC010E94BB379B01AC01C501B4010E94F4
:103530000D364B015C016F8D78A180E090E00E9418
:103540000937A70196010E940C369B01AC010E942D
:10355000BB379B01AC01C301B2010E940D362B01A8
:103560003C016B857C8580E090E00E94093729A5AD
:103570003AA54BA55CA50E940C369B01AC010E94AC
:10358000BB379B01AC01C501B4010E940D364B0154
:103590005C0169A17AA180E090E00E940937A7014F
:1035A00096010E940C369B01AC010E94BB379B0127
:1035B000AC01C301B2010E940D362B013C016D85A7
:1035C0007E8580E090E00E94093729A53AA54BA5A9
:1035D0005CA50E940C369B01AC010E94BB379B018D
:1035E000AC01C501B4010E940D364B015C016BA119
:1035F0007CA180E090E00E940937A70196010E941B
:103600000C369B01AC010E94BB379B01AC01C3018E
:10361000B2010E940D362B013C016F85788980E054
:1036200090E00E94093729A53AA54BA55CA50E9408
:103630000C369B01AC010E94BB379B01AC01C5015C
:10364000B4010E940D364B015C016DA17EA180E0AA
:1036500090E00E940937A70196010E940C369B0159
:10366000AC010E94BB379B01AC01C301B2010E94B7
:103670000D366DA77EA78FA798AB69897A8980E000
:1036800090E00E94093729A53AA54BA55CA50E94A8
:103690000C369B01AC010E94BB379B01AC01C501FC
:1036A000B4010E940D3669AB7AAB8BAB9CAB6FA1BA
:1036B00078A580E090E00E940937A70196010E945A
:1036C0000C362B013C016B897C8980E090E00E94E4
:1036D000093729A53AA54BA55CA50E940C364B01DC
:1036E0005C01A3019201C301B2010E94BB372DA569
:1036F0003EA54FA558A90E940D3620E030E040E2DB
:1037000051E40E9475360E9422382B013C01A5012C
:103710009401C501B4010E94BB3729A93AA94BA95C
:103720005CA90E940D3620E030E040E251E40E94A6
:1037300075360E9422384B015C0120E030E040EAFF
:1037400051E4C301B2010E94713687FF0AC020E034
:1037500030E040EA51E4C501B4010E94713687FDB2
:1037600021C044E650E06AE070E084E00E94B00AC4
:1037700080E0E4960FB6F894DEBF0FBECDBFDF91B8
:10378000CF911F910F91FF90EF90DF90CF90BF905E
:10379000AF909F908F907F906F905F904F903F90F1
:1037A0002F90089581E08093C40CC701B6010E9458
:1037B000DD3670930A0D6093090D69A57AA58BA576
:1037C0009CA50E94DD367093080D6093070D0E9442
:1037D000A30A81E0CECF81E08093060D0895109278
:1037E000060D08958091060D08958093190D60933C
:1037F000220D90E1899FD0011124AB59BB4F18963F
:103800008D919C9119979695982F882797958795D4
:10381000A0E0B0E08093250D9093260DA093270D96
:10382000B093280D1092140D1092150D1092160DD4
:103830001092170D80931E0D90931F0DA093200DD5
:10384000B093210D1092240D1092130D80E1689F0A
:10385000F0011124EB59FB4F808591859695982FA7
:10386000882797958795A0E0B0E080931A0D9093F4
:103870001B0DA0931C0DB0931D0D10920F0D1092F7
:10388000100D1092110D1092120D80930B0D90934C
:103890000C0DA0930D0DB0930E0D1092180D1092FB
:1038A000230D0895FF920F931F93CF93DF93F62E6E
:1038B0000091190D0F3F09F473C04091140D509100
:1038C000150D6091160D7091170D452B462B472B4A
:1038D00009F40BC190E1099F80011124E801CB5943
:1038E000DB4F2A813B81A82FBB27A7FDB0950E9403
:1038F00024342881398140E050E00E946C348E816C
:103900009F81280F391F411D511D8C859D85A0E089
:10391000B0E082179307A407B50750F08A859B850E
:10392000A0E0B0E0281739074A075B0708F0FFC09E
:10393000AC01BD01F801EB59FB4F80859185A0E0FA
:10394000B0E084179507A607B70709F4F9C081E02E
:103950008093130DDB01CA01880F991FAA1FBB1F9B
:10396000880F991FAA1FBB1F880F991FAA1FBB1F73
:10397000880F991FAA1FBB1F880F991FAA1FBB1F63
:10398000880F991FAA1FBB1F880F991FAA1FBB1F53
:103990008093250D9093260DA093270DB093280DAD
:1039A0000091220D0F3F09F473C080910F0D90918B
:1039B000100DA091110DB091120D892B8A2B8B2B1C
:1039C00009F46CC090E1099F80011124E801CB59F2
:1039D000DB4F2A813B81AF2DBB27A7FDB0950E940D
:1039E00024342881398140E050E00E946C348E817B
:1039F0009F81280F391F411D511D8C859D85A0E099
:103A0000B0E082179307A407B50750F08A859B851D
:103A1000A0E0B0E0281739074A075B0708F08AC022
:103A2000AC01BD01F801EB59FB4F80859185A0E009
:103A3000B0E084179507A607B70709F47EC081E0B8
:103A40008093230DDB01CA01880F991FAA1FBB1F9A
:103A5000880F991FAA1FBB1F880F991FAA1FBB1F82
:103A6000880F991FAA1FBB1F880F991FAA1FBB1F72
:103A7000880F991FAA1FBB1F880F991FAA1FBB1F62
:103A800080931A0D90931B0DA0931C0DB0931D0DE8
:103A9000DF91CF911F910F91FF90089580E1089FD2
:103AA000F0011124EB59FB4F808591859695982F55
:103AB000882797958795A0E0B0E080931A0D9093A2
:103AC0001B0DA0931C0DB0931D0D80930B0D9093B7
:103AD0000C0DA0930D0DB0930E0D1092230DDF91E0
:103AE000CF911F910F91FF90089580E1089FF00101
:103AF0001124EB59FB4F808591859695982F882747
:103B000097958795A0E0B0E08093250D9093260DC2
:103B1000A093270DB093280D80931E0D90931F0D39
:103B2000A093200DB093210D1092130D39CFBA013F
:103B3000A90100CFBA01A90175CF1092230D82CF40
:103B40001092130D07CF0F931F93CF93DF93C09164
:103B5000190DCF3F09F475C04091140D5091150D0A
:103B60006091160D7091170D452B462B472B09F4CC
:103B70006DC090E1C99FE00111248E010B591B4FCC
:103B8000F80122813381A82FBB27A7FDB0950E94A1
:103B900024342081318140E050E00E946C34F801EF
:103BA00086819781280F391F411D511D8485958578
:103BB000A0E0B0E082179307A407B50758F0F8011A
:103BC00082859385A0E0B0E0281739074A075B0794
:103BD00008F062C0AC01BD01CB59DB4F88859985E7
:103BE000A0E0B0E084179507A607B70709F457C00F
:103BF00081E08093130DDB01CA01880F991FAA1F72
:103C0000BB1F880F991FAA1FBB1F880F991FAA1FD0
:103C1000BB1F880F991FAA1FBB1F880F991FAA1FC0
:103C2000BB1F880F991FAA1FBB1F880F991FAA1FB0
:103C3000BB1F8093250D9093260DA093270DB09365
:103C4000280DDF91CF911F910F91089580E1C89FBA
:103C5000E0011124CB59DB4F888599859695982FE3
:103C6000882797958795A0E0B0E08093250D9093E5
:103C7000260DA093270DB093280D80931E0D9093D1
:103C80001F0DA093200DB093210D1092130DDF9105
:103C9000CF911F910F910895BA01A9019DCF109264
:103CA000130DA9CFE091190D90E1E99FF0011124C6
:103CB000EB59FB4F22813381A82FB0E00E941534CD
:103CC0002081318140E050E00E944A342093140D5D
:103CD0003093150D4093160D5093170D089581E004
:103CE0008093240D08958091130D08950F931F93D1
:103CF000CF93DF93C091220DCF3F09F475C040915F
:103D00000F0D5091100D6091110D7091120D452BFA
:103D1000462B472B09F46DC090E1C99FE0011124A7
:103D20008E010B591B4FF80122813381A82FBB272D
:103D3000A7FDB0950E9424342081318140E050E0FD
:103D40000E946C34F80186819781280F391F411D2C
:103D5000511D84859585A0E0B0E082179307A407E4
:103D6000B50758F0F80182859385A0E0B0E02817E8
:103D700039074A075B0708F062C0AC01BD01CB59A7
:103D8000DB4F88859985A0E0B0E084179507A607EA
:103D9000B70709F457C081E08093230DDB01CA0106
:103DA000880F991FAA1FBB1F880F991FAA1FBB1F2F
:103DB000880F991FAA1FBB1F880F991FAA1FBB1F1F
:103DC000880F991FAA1FBB1F880F991FAA1FBB1F0F
:103DD000880F991FAA1FBB1F80931A0D90931B0D6C
:103DE000A0931C0DB0931D0DDF91CF911F910F91EA
:103DF000089580E1C89FE0011124CB59DB4F8885ED
:103E000099859695982F882797958795A0E0B0E09B
:103E100080931A0D90931B0DA0931C0DB0931D0D54
:103E200080930B0D90930C0DA0930D0DB0930E0D80
:103E30001092230DDF91CF911F910F910895BA0138
:103E4000A9019DCF1092230DA9CFE091220D90E101
:103E5000E99FF0011124EB59FB4F22813381A82FF8
:103E6000B0E00E9415342081318140E050E00E9492
:103E70004A3420930F0D3093100D4093110D509341
:103E8000120D089581E08093180D08958091230DFF
:103E900008950F931F938091240D813009F4FEC083
:103EA00040911E0D50911F0D6091200D7091210DBC
:103EB0008091250D9091260DA091270DB091280D90
:103EC000481759076A077B0708F086C00091140D50
:103ED0001091150D2091160D3091170D040F151F1F
:103EE000261F371F00931E0D10931F0D2093200DCA
:103EF0003093210D081719072A073B0708F406C15C
:103F000080931E0D90931F0DA093200DB093210D53
:103F10001092130D2091190DAC01BD0180E1289F75
:103F200090011124F901EB59FB4F07E07695679555
:103F3000579547950A95D1F7518740878091180D7D
:103F4000813009F4ECC040910B0D50910C0D609143
:103F50000D0D70910E0D80911A0D90911B0DA09179
:103F60001C0DB0911D0D481759076A077B0708F013
:103F70005FC000910F0D1091100D2091110D309127
:103F8000120D040F151F261F371F00930B0D1093E2
:103F90000C0D20930D0D30930E0D081719072A07ED
:103FA0003B0708F06AC04091220DD901C80150E1D9
:103FB000459F90011124F901EB59FB4FAC01BD0164
:103FC00017E076956795579547951A95D1F75187DC
:103FD00040871F910F91089584179507A607B7078B
:103FE00000F50091140D1091150D2091160D3091D2
:103FF000170D401751076207730708F481CF401B64
:10400000510B620B730B40931E0D50931F0D609369
:10401000200D7093210D84179507A607B70708F0A8
:104020006FCF2091190D90E1299F900111247ACF33
:1040300084179507A607B70708F05FC000910F0D1A
:104040001091100D2091110D3091120D4017510754
:104050006207730790F0401B510B620B730B409388
:104060000B0D50930C0D60930D0D70930E0D841776
:104070009507A607B70708F440C080930B0D9093EF
:104080000C0DA0930D0DB0930E0D1092230D2091E9
:10409000220D40E1249F900111248DCF2091190D14
:1040A00040E1249F90011124F901EB59FB4F408519
:1040B00051855695542F44275795479560E070E0F9
:1040C0004093250D5093260D6093270D7093280D76
:1040D00040931E0D50931F0D6093200D7093210D82
:1040E0001092140D1092150D1092160D1092170DBE
:1040F0001092130D1092240D15CF2091220DDB018B
:10410000CA0150E1259F9001112455CF8091190DCE
:10411000B901A80190E1899F9001112403CF20915A
:10412000220D90E1299F90011124F901EB59FB4FD9
:1041300080859185A0E0B0E080931A0D90931B0DCF
:10414000A0931C0DB0931D0D80930B0D90930C0D3F
:10415000A0930D0DB0930E0D10920F0D1092100D37
:104160001092110D1092120D1092230D1092180D35
:1041700022CF1F93CF93DF93182FEA01AB0166E0A4
:1041800070E00E94262E882329F08FEFDF91CF91D7
:104190001F910895AE0168E070E0812F0E94262EE5
:1041A00091E0811101C090E0892F8195DF91CF913D
:1041B0001F9108951F93CF93DF93182FEA01AB014E
:1041C00066E070E00E94A62E882329F08FEFDF9131
:1041D000CF911F910895AE0168E070E0812F0E9499
:1041E000A62E91E0811101C090E0892F8195DF9189
:1041F000CF911F910895CF93DF931F92CDB7DEB774
:10420000AE014F5F5F4F6BE070E00E94212E88236C
:1042100029F08FEF0F90DF91CF91089589810F9052
:10422000DF91CF910895462F6BE070E00E94952EAC
:1042300091E0811101C090E0892F819508951F932D
:10424000CF93DF93182FEA01AB016CE070E00E947E
:10425000212E882329F08FEFDF91CF911F910895B0
:10426000AE016DE070E0812F0E94212E91E081115E
:1042700001C090E0892F8195DF91CF911F91089522
:10428000CF93DF93C82FD42F462F6CE070E00E94AD
:10429000952E882321F08FEFDF91CF9108954D2F38
:1042A0006DE070E08C2F0E94952E91E0811101C08D
:1042B00090E0892F8195DF91CF910895CF93DF937F
:1042C0001F921F92CDB7DEB7AE014F5F5F4F6EE01A
:1042D00070E00E94262E882339F08FEF9FEF0F9019
:1042E0000F90DF91CF91089589819A810F900F905F
:1042F000DF91CF910895AB016EE070E00E94A62E91
:1043000091E0811101C090E0892F81950895CF93AC
:10431000DF931F92CDB7DEB7AE014F5F5F4F61E114
:1043200070E00E94212E882329F08FEF0F90DF91FB
:10433000CF91089589810F90DF91CF910895462FF5
:1043400061E170E00E94952E91E0811101C090E042
:10435000892F81950895CF93DF931F92CDB7DEB754
:10436000AE014F5F5F4F62E170E00E94212E882313
:1043700029F08FEF0F90DF91CF91089589810F90F1
:10438000DF91CF910895462F62E170E00E94952E53
:1043900091E0811101C090E0892F81950895CF931C
:1043A000C82F40E050E066E070E00E94A62E88230F
:1043B00019F08FEFCF91089540E050E068E070E091
:1043C0008C2F0E94A62E91E0811101C090E0892FD0
:1043D0008195CF910895CF93C82F40E054E066E0D7
:1043E00070E00E94A62E882319F08FEFCF910895D8
:1043F00040E050E068E070E08C2F0E94A62E91E033
:10440000811101C090E0892F8195CF9108951F936C
:10441000CF93DF9300D01F92CDB7DEB7182FAE0138
:104420004D5F5F4F66E070E00E94262E882349F0C2
:104430008FEF0F900F900F900F90DF91CF911F9102
:104440000895AE014F5F5F4F68E070E0812F0E94DA
:10445000262E8111EDCF8B819C81892B49F7898193
:104460009A81892B29F780E0E4CF41E068E170E090
:104470000E94952E91E0811101C090E0892F8195D5
:10448000089540E068E170E00E94952E91E081116E
:1044900001C090E0892F81950895CF93DF931F92FB
:1044A000CDB7DEB7AE014F5F5F4F68E170E00E94AD
:1044B000212E882329F08FEF0F90DF91CF9108955F
:1044C00089810F90DF91CF91089541E069E170E01B
:1044D0000E94952E91E0811101C090E0892F819575
:1044E000089540E069E170E00E94952E91E081110D
:1044F00001C090E0892F81950895CF93DF931F929B
:10450000CDB7DEB7AE014F5F5F4F69E170E00E944B
:10451000212E882329F08FEF0F90DF91CF910895FE
:1045200089810F90DF91CF9108951F93CF93DF93EF
:10453000182FEA01AB016AE170E00E94212E882366
:1045400029F08FEFDF91CF911F910895AE016BE1BC
:1045500070E0812F0E94212E91E0811101C090E036
:10456000892F8195DF91CF911F910895CF93DF938C
:10457000C82FD42F462F6AE170E00E94952E882321
:1045800021F08FEFDF91CF9108954D2F6BE170E017
:104590008C2F0E94952E91E0811101C090E0892F0F
:1045A0008195DF91CF9108951F93CF93DF93182FBB
:1045B000EA01AB016CE170E00E94212E882329F012
:1045C0008FEFDF91CF911F910895AE016DE170E003
:1045D000812F0E94212E91E0811101C090E0892F4E
:1045E0008195DF91CF911F910895CF93DF93C82FCD
:1045F000D42F462F6CE170E00E94952E882321F085
:104600008FEFDF91CF9108954D2F6DE170E08C2FEA
:104610000E94952E91E0811101C090E0892F819533
:10462000DF91CF9108958FEF08958FEF0895CF9385
:10463000DF931F921F92CDB7DEB7AE014F5F5F4F82
:104640006EE170E00E94262E882339F08FEF9FEFF5
:104650000F900F90DF91CF91089589819A810F90EB
:104660000F90DF91CF910895AB016EE170E00E9451
:10467000A62E91E0811101C090E0892F81950895C7
:10468000CF93DF931F921F92CDB7DEB7AE014F5F7E
:104690005F4F60E270E00E94262E882339F08FEF92
:1046A0009FEF0F900F90DF91CF91089589819A81AC
:1046B0000F900F90DF91CF910895AB0160E270E011
:1046C0000E94A62E91E0811101C090E0892F819572
:1046D0000895CF93DF931F921F92CDB7DEB7AE013F
:1046E0004F5F5F4F62E270E00E94262E882339F010
:1046F0008FEF9FEF0F900F90DF91CF9108958981F9
:104700009A810F900F90DF91CF910895AB0162E2F3
:1047100070E00E94A62E91E0811101C090E0892FE7
:1047200081950895CF93DF931F921F92CDB7DEB787
:10473000AE014F5F5F4F64E270E00E94262E882337
:1047400039F08FEF9FEF0F900F90DF91CF91089589
:1047500089819A810F900F90DF91CF910895CF9327
:10476000DF931F921F92CDB7DEB7AE014F5F5F4F51
:1047700066E270E00E94262E882339F08FEF9FEFCB
:104780000F900F90DF91CF91089589819A810F90BA
:104790000F90DF91CF910895CF93DF931F921F92D7
:1047A000CDB7DEB7AE014F5F5F4F68E270E00E94A9
:1047B000262E882339F08FEF9FEF0F900F90DF9117
:1047C000CF91089589819A810F900F90DF91CF91B9
:1047D0000895CF93DF931F92CDB7DEB7AE014F5F41
:1047E0005F4F6AE270E00E94212E882329F08FEF4C
:1047F0000F90DF91CF91089589810F90DF91CF9134
:104800000895CF93DF931F92CDB7DEB7AE014F5F10
:104810005F4F6BE270E00E94212E882329F08FEF1A
:104820000F90DF91CF91089589810F90DF91CF9103
:104830000895CF93DF931F92CDB7DEB7AE014F5FE0
:104840005F4F6DE270E00E94212E882329F08FEFE8
:104850000F90DF91CF91089589810F90DF91CF91D3
:104860000895CF93DF931F92CDB7DEB7AE014F5FB0
:104870005F4F6EE270E00E94212E882329F08FEFB7
:104880000F90DF91CF91089589810F90DF91CF91A3
:10489000089541E06EE270E00E94952E91E0811152
:1048A00001C090E0892F81950895CF93DF931F92E7
:1048B0001F92CDB7DEB7AE014F5F5F4F60E370E090
:1048C0000E94262E882339F08FEF9FEF0F900F90D4
:1048D000DF91CF91089589819A810F900F90DF9198
:1048E000CF910895AB0160E370E00E94A62E91E0A5
:1048F000811101C090E0892F819508952EE23DE05D
:1049000047E350E066E970E080912D0D0C94702D26
:104910002EE23DE047E350E066E970E080912D0D26
:104920000C94A92D2EE23DE047E350E066E970E0EB
:1049300080912D0D0C94CA2D0F931F93CF93DF936D
:104940001F92CDB7DEB7182F0E94272D8823A9F01C
:104950001092650D1092290D10922C0D10922B0DB6
:1049600010922A0D8FEF80932D0D1092660D0F90EF
:10497000DF91CF911F910F91089510932D0D01E0BC
:104980000093650DAE014F5F5F4F66E070E0812FD1
:104990000E94212E811118C0898180FD27C01092AC
:1049A0002B0D00932C0D81FF26C081E08093290DF3
:1049B00010922A0D46E65DE06DEC70E080912D0DC1
:1049C0000E94212E80E0D3CF1092290D10922C0D41
:1049D00010922B0D10922A0D46E65DE06DEC70E012
:1049E00080912D0D0E94212E8FEFC1CF00932B0DB2
:1049F00010922C0DD8CF1092290D81E080932A0DB2
:104A0000D9CF8091650D089541E060E270E080911A
:104A10002D0D0E94952E91E0811101C090E0892F0B
:104A20008195089542E060E270E080912D0D0E9432
:104A3000952E91E0811101C090E0892F8195089514
:104A4000CF93DF931F92CDB7DEB7AE014F5F5F4FBD
:104A500060E270E080912D0D0E94212E882329F0C4
:104A60008FEF0F90DF91CF910895898182FB882786
:104A700080F90F90DF91CF910895482F61E270E0A7
:104A800080912D0D0E94952E91E0811101C090E042
:104A9000892F81950895CF93DF931F92CDB7DEB70D
:104AA000AE014F5F5F4F61E270E080912D0D0E947B
:104AB000212E882329F08FEF0F90DF91CF91089559
:104AC00089810F90DF91CF910895482F62E270E0C5
:104AD00080912D0D0E94952E91E0811101C090E0F2
:104AE000892F81950895CF93DF931F92CDB7DEB7BD
:104AF000AE014F5F5F4F62E270E080912D0D0E942A
:104B0000212E882329F08FEF0F90DF91CF91089508
:104B100089810F90DF91CF910895E82FF0E0EE0F9B
:104B2000FF1FE25DF24F2389848990E0982F882748
:104B3000820F911D0895E82FF0E0EE0FFF1FE25D58
:104B4000F24F23A184A190E0982F8827820F911D16
:104B50000895833110F08FEF089590E04896880F04
:104B6000991F462FBC0180912D0D0E94952E91E03A
:104B7000811101C090E0892F81950895E82FF0E020
:104B8000E25DF24F80810895833110F08FEF089538
:104B900090E0880F991FC196462FBC0180912D0D82
:104BA0000E94952E91E0811101C090E0892F81959E
:104BB000089541E066E570E080912D0D0E94952EEC
:104BC00091E0811101C090E0892F8195089540E026
:104BD00066E570E080912D0D0E94952E91E0811187
:104BE00001C090E0892F81950895CF93DF931F92A4
:104BF000CDB7DEB7AE014F5F5F4F67E570E08091E4
:104C00002D0D0E94212E882329F08FEF0F90DF9128
:104C1000CF91089589810F90DF91CF910895809170
:104C20002B0D811102C08FEF089541E068E770E01D
:104C300080912D0D0E94952E91E0811101C090E090
:104C4000892F8195089580912B0D811102C08FEFDE
:104C5000089542E068E770E080912D0D0E94952E46
:104C600091E0811101C090E0892F81950895CF9343
:104C7000DF931F92CDB7DEB780912B0D811105C058
:104C80008FEF0F90DF91CF910895AE014F5F5F4F8F
:104C900068E770E080912D0D0E94212E8111F0CFE8
:104CA000898182FB882780F9ECCF843010F08FEF68
:104CB000089590912B0D9923D1F341E050E001C06C
:104CC000440F8A95EAF769E770E080912D0D0E9404
:104CD000952E91E0882319F0892F8195089590E011
:104CE000FBCF843010F08FEF089590912B0D992316
:104CF000D1F340E150E001C0440F8A95EAF769E73B
:104D000070E080912D0D0E94952E91E0882319F07E
:104D1000892F8195089590E0FBCF1F93CF93DF9368
:104D20001F92CDB7DEB7182F843030F08FEF0F9081
:104D3000DF91CF911F91089580912B0D8823B1F3BE
:104D4000AE014F5F5F4F68E770E080912D0D0E94CC
:104D5000212E8111EBCF20E130E002C0220F331F62
:104D60001A95E2F7898190E02823392381E0232BEB
:104D7000F1F680E0DCCF20912B0D211102C08FEFE6
:104D80000895AC016AE770E080912D0D0E94A62E77
:104D900091E0811101C090E0892F81950895CF9312
:104DA000DF931F921F92CDB7DEB780912B0D81113B
:104DB00007C08FEF9FEF0F900F90DF91CF91089575
:104DC000AE014F5F5F4F6AE770E080912D0D0E944A
:104DD000262E8111EECF89819A81EDCF843010F09B
:104DE0008FEF089590912B0D9923D1F390E0845883
:104DF0009F4F462FBC0180912D0D0E94952E91E072
:104E0000882319F0892F8195089590E0FBCFCF93E7
:104E1000DF931F92CDB7DEB7843028F08FEF0F906D
:104E2000DF91CF91089590912B0D9923B9F3682FBD
:104E300070E064587F4FAE014F5F5F4F80912D0D42
:104E40000E94212E8111EACF8981E9CF8091660DE0
:104E500008958091290D811102C08FEF089541E0DE
:104E600060E870E080912D0D0E94952E91E08111F7
:104E700001C090E0892F819508958091290D8111BD
:104E800002C08FEF089542E060E870E080912D0D40
:104E90000E94952E91E0811101C090E0892F8195AB
:104EA0000895CF93DF931F92CDB7DEB78091290D80
:104EB000811105C08FEF0F90DF91CF910895AE0162
:104EC0004F5F5F4F60E870E080912D0D0E94212EB2
:104ED0008111F0CF898182958170EDCF823010F001
:104EE0008FEF08959091290D9923D1F341E050E07F
:104EF00001C0440F8A95EAF761E870E080912D0DBA
:104F00000E94952E91E0811101C090E0892F81953A
:104F10000895823010F08FEF08959091290D992314
:104F2000D1F344E050E001C0440F8A95EAF761E80C
:104F300070E080912D0D0E94952E91E0811101C0AD
:104F400090E0892F819508951F93CF93DF931F924F
:104F5000CDB7DEB7182F823030F08FEF0F90DF9192
:104F6000CF911F9108958091290D8823B1F3AE014F
:104F70004F5F5F4F60E870E080912D0D0E94212E01
:104F80008111EBCF20E430E002C0220F331F1A95CD
:104F9000E2F7898190E02823392381E0232BF1F681
:104FA00080E0DCCFCF93C82F823018F08FEFCF9105
:104FB00008958091290D8823C9F380E090E0FDE0F9
:104FC000660F771F881F991FFA95D1F728EE33E0F7
:104FD00040E050E00E944A346C2F70E06F5B7F4FDE
:104FE000660F771FA90180912D0D0E94A62E91E0DA
:104FF000811101C090E0892F8195D9CFCF93DF93A4
:105000001F921F92CDB7DEB7823038F08FEF9FEF3F
:105010000F900F90DF91CF9108959091290D9923D2
:10502000A9F3682F70E06F5B7F4F660F771FAE01AB
:105030004F5F5F4F80912D0D0E94262E8111E6CF8C
:1050400029813A81A8EEB3E00E941534BDE096951F
:10505000879577956795BA95D1F7CB01D9CF41E080
:1050600066E870E080912D0D0E94952E91E08111EF
:1050700001C090E0892F8195089542E066E870E0D4
:1050800080912D0D0E94952E91E0811101C090E03C
:10509000892F81950895CF93DF931F92CDB7DEB707
:1050A000AE014F5F5F4F66E870E080912D0D0E946A
:1050B000212E882329F08FEF0F90DF91CF91089553
:1050C000898186FB882780F90F90DF91CF91089521
:1050D00044E066E870E080912D0D0E94952E91E0ED
:1050E000811101C090E0892F8195089548E066E81C
:1050F00070E080912D0D0E94952E91E0811101C0EC
:1051000090E0892F81950895CF93DF931F92CDB7BB
:10511000DEB7AE014F5F5F4F66E870E080912D0D06
:105120000E94212E882329F08FEF0F90DF91CF91DD
:1051300008958981881F8827881F0F90DF91CF915C
:1051400008952091610D8091620D90E0982F88273D
:10515000820F911D08952091630D8091640D90E060
:10516000982F8827820F911D0895482F6BE870E0D3
:1051700080912D0D0E94952E91E0811101C090E04B
:10518000892F81950895CF93DF931F92CDB7DEB716
:10519000AE014F5F5F4F6BE870E080912D0D0E9474
:1051A000212E882329F08FEF0F90DF91CF91089562
:1051B00089810F90DF91CF91089580912C0D8111FD
:1051C00002C08FEF089541E06CE870E080912D0DF2
:1051D0000E94952E91E0811101C090E0892F819568
:1051E000089580912C0D811102C08FEF089542E047
:1051F0006CE870E080912D0D0E94952E91E0811158
:1052000001C090E0892F81950895CF93DF931F927D
:10521000CDB7DEB780912C0D811105C08FEF0F90B7
:10522000DF91CF910895AE014F5F5F4F6CE870E062
:1052300080912D0D0E94212E8111F0CF898185FB57
:10524000882780F9ECCF20912C0D211102C08FEF1F
:105250000895AC016FE870E080912D0D0E94A62E9C
:1052600091E0811101C090E0892F81950895CF933D
:10527000DF931F921F92CDB7DEB780912C0D811165
:1052800007C08FEF9FEF0F900F90DF91CF910895A0
:10529000AE014F5F5F4F6FE870E080912D0D0E946F
:1052A000262E8111EECF89819A81EDCF90912C0D20
:1052B000911102C08FEF0895482F6DE870E0809142
:1052C0002D0D0E94952E91E0811101C090E0892F53
:1052D00081950895CF93DF931F92CDB7DEB780916C
:1052E0002C0D811105C08FEF0F90DF91CF910895A4
:1052F000AE014F5F5F4F6CE870E080912D0D0E9412
:10530000212E8111F0CF898186FB882780F9ECCF8F
:10531000EF92FF920F931F93CF93DF931F92CDB71E
:10532000DEB7282F80912C0D811109C08FEF0F90CF
:10533000DF91CF911F910F91FF90EF90089561152C
:105340007105B1F1022F192F7801E60EF71EF80151
:1053500041918F01882349F022C08FE39CE9019796
:10536000F1F700C0000080912C0D8823B1F3AE014D
:105370004F5F5F4F6CE870E080912D0D0E94212EF1
:105380008111EBCF898186FDE8CF0E151F0581F0D5
:1053900080912C0DF80141918F01882331F36DE844
:1053A00070E080912D0D0E94952E80912C0DDDCF07
:1053B00080E00F90DF91CF911F910F91FF90EF90C0
:1053C0000895CF93DF931F92CDB7DEB780912C0D58
:1053D000811105C08FEF0F90DF91CF910895AE013D
:1053E0004F5F5F4F6CE870E080912D0D0E94212E81
:1053F0008111F0CF8981881F8827881FECCFCF9338
:10540000DF931F92CDB7DEB780912C0D811105C0BF
:105410008FEF0F90DF91CF910895AE014F5F5F4FF7
:105420006EE870E080912D0D0E94212E8111F0CF49
:105430008981EFCF80912A0D811102C08FEF0895ED
:1054400041E061E970E080912D0D0E94952E91E080
:10545000811101C090E0892F8195089580912A0DD6
:10546000811102C08FEF089542E061E970E0809100
:105470002D0D0E94952E91E0811101C090E0892FA1
:1054800081950895CF93DF931F92CDB7DEB78091BA
:105490002A0D811105C08FEF0F90DF91CF910895F4
:1054A000AE014F5F5F4F61E970E080912D0D0E946A
:1054B000212E8111F0CF898185FB882780F9ECCFDF
:1054C00020912A0D211102C08FEF0895AC0164E9EB
:1054D00070E080912D0D0E94A62E91E0811101C0F7
:1054E00090E0892F81950895CF93DF931F921F92AB
:1054F000CDB7DEB780912A0D811107C08FEF9FEFE6
:105500000F900F90DF91CF910895AE014F5F5F4FE5
:1055100064E970E080912D0D0E94262E8111EECF5E
:1055200089819A81EDCF90912A0D911102C08FEF60
:105530000895482F62E970E080912D0D0E94952E0C
:1055400091E0811101C090E0892F81950895CF935A
:10555000DF931F92CDB7DEB780912A0D811105C070
:105560008FEF0F90DF91CF910895AE014F5F5F4FA6
:1055700061E970E080912D0D0E94212E8111F0CF04
:10558000898186FB882780F9ECCFEF92FF920F93F9
:105590001F93CF93DF931F92CDB7DEB7282F809153
:1055A0002A0D811109C08FEF0F90DF91CF911F91CC
:1055B0000F91FF90EF90089561157105B1F1022FE1
:1055C000192F7801E60EF71EF80141918F0188230B
:1055D00049F022C08FE39CE90197F1F700C0000079
:1055E00080912A0D8823B1F3AE014F5F5F4F61E9CF
:1055F00070E080912D0D0E94212E8111EBCF8981C9
:1056000086FDE8CF0E151F0581F080912A0DF80167
:1056100041918F01882331F362E970E080912D0D73
:105620000E94952E80912A0DDDCF80E00F90DF91B2
:10563000CF911F910F91FF90EF900895CF93DF933B
:105640001F92CDB7DEB780912A0D811105C08FEF73
:105650000F90DF91CF910895AE014F5F5F4F61E9E9
:1056600070E080912D0D0E94212E8111F0CF898153
:10567000881F8827881FECCFCF93DF931F92CDB769
:10568000DEB780912A0D811105C08FEF0F90DF9159
:10569000CF910895AE014F5F5F4F63E970E0809155
:1056A0002D0D0E94212E8111F0CF8981EFCFCF9354
:1056B000DF931F921F92CDB7DEB7AE014F5F5F4FF2
:1056C00060E070E00E94262E882339F08FEF9FEF74
:1056D0000F900F90DF91CF91089589819A810F905B
:1056E0000F90DF91CF910895CF93DF931F92CDB7A5
:1056F000DEB7AE014F5F5F4F62E070E00E94212E87
:10570000882329F08FEF0F90DF91CF910895898141
:105710000F90DF91CF910895462F63E070E00E94D3
:10572000952E91E0811101C090E0892F8195089517
:10573000CF93DF931F92CDB7DEB7AE014F5F5F4FC0
:1057400064E070E00E94212E882329F08FEF0F90F3
:10575000DF91CF91089589810F90DF91CF910895C6
:10576000462F64E070E00E94952E91E0811101C007
:1057700090E0892F819508958091720E9091730E1B
:10578000A0E0B0E026E0B695A795979587952A9575
:10579000D1F7809586BDA89A85E085BD089515BC92
:1057A000A89A16BC089585B3817008957398729A6B
:1057B00008957298739A08951F920F920FB60F92E0
:1057C00011240BB60F922F933F934F935F936F93D8
:1057D0007F938F939F93AF93BF93EF93FF93F8942F
:1057E0002091E90D30E08091EF0D90E004962817AC
:1057F000390731F40E94D92B81E08093EA0D0BC068
:10580000F901E451F24F80818093C6008091E90D47
:105810008F5F8093E90D7894FF91EF91BF91AF91E5
:105820009F918F917F916F915F914F913F912F91B8
:105830000F900BBE0F900FBE0F901F9018951F92E8
:105840000F920FB60F9211240BB60F922F933F9326
:105850004F935F936F937F938F939F93AF93BF9378
:10586000EF93FF93F8940E94BC2B8091710E90915E
:10587000C600E82FF0E0E759F24F9083813071F0D5
:1058800048F0823091F0833091F49D5F9093510203
:1058900084E01AC09F3FD1F481E016C09F3F11F40D
:1058A00082E012C01092710E11C083E00DC0909181
:1058B0005102891308C01092710E81E08093EB0DA4
:1058C0000E94CF2B03C08F5F8093710E7894FF915D
:1058D000EF91BF91AF919F918F917F916F915F9168
:1058E0004F913F912F910F900BBE0F900FBE0F90D5
:1058F0001F9018950E94BC2B8091EA0D81110BC05E
:105900000E94D32B8823C1F30E94CF2B81E0809388
:10591000EA0D83E008950E94CF2B80E0089581E096
:105920008093E90D8091EC0D8093C60080E008958E
:105930008091700E882321F01092700E80E00895FF
:105940000E94BC2B8091EB0D811108C00E94D32BCB
:105950008823C1F30E94CF2B83E008958091670DC7
:1059600081508093670D811102C00E94CF2B10924D
:10597000EB0D89E69DE00E94A8318F3F21F489E676
:105980009DE00C94CA3380E10895CF93C1E0C093A9
:10599000EA0D1092EB0D1092E90D1092710E10921B
:1059A000700E1092670D82E08093680D8DB18E604D
:1059B0008DB968988FE787B988B982E48093C00071
:1059C00088ED8093C10086E08093C2001092C500EC
:1059D000C093C40080ED97E09093730E8093720E95
:1059E00014BC15BC10926E0016BC0E94D92BC0933B
:1059F0005002CF91089580915002089581382EE38E
:105A0000920710F080E89EE39093730E8093720EDD
:105A100008958093680D08958091680D08959B0105
:105A2000AC0160E874E88EE190E00E944A342150B5
:105A300031093093C5002093C400089560916C0E25
:105A400070916D0E80916E0E90916F0E0895CF93B0
:105A5000DF931F92CDB7DEB789830E947A2C6981CC
:105A60008330C9F08CEE9DE00E94DA3181E08093B2
:105A7000670D1092700E0E94D62B0E948F2C8823E7
:105A800029F089830E94D92B898106C00F90DF916C
:105A9000CF910C94982C83E00F90DF91CF910895D3
:105AA000FF920F931F93CF93DF93EC018B0118822A
:105AB000F12C8F2D0E94272D811108C08881F801BB
:105AC000E80FF11DF08288818F5F8883F3948EEF59
:105AD000F812EFCFDF91CF911F910F91FF900895B2
