:100000000C94C6010C94E7010C94E7010C94E701F1
:100010000C94E7010C94E7010C94E7010C94E701C0
:100020000C94E7010C94E7010C94E7010C94E701B0
:100030000C94E7010C94E7010C94E7010C94E701A0
:100040000C94E7010C94E7010C94E7010C94E70190
:100050000C94E7010C94E7010C94E7010C94E70180
:100060000C94E7010C94BB3D0C94E7010C94783D93
:100070000C94E7010C94E7010C94E7010C94E70160
:100080000C94E7010C94E7010C94E7010C94E70150
:100090000C9423420C94E7010C9452420C94E70117
:1000A0000C94E7010C94E7010C94E7010C94E70130
:1000B0000C94E7010C94E7010C94E7010C94E70120
:1000C0000C94E7010C94E7010C94E701B503B70326
:1000D000B403B903B403B403B403BB03B403B4035C
:1000E000B403B403B403B403B403BD03B403B4034F
:1000F000B403B403B403B403B403B403B403B40348
:10010000B403B403B403B403B403BF03B403B4032C
:10011000B403B403B403B403B403B403B403B40327
:10012000B403B403B403B403B403B403B403B40317
:10013000B403B403B403B403B403B403B403B40307
:10014000B403B403B403B403B403B303CD03CF03C4
:10015000CC03D103CC03CC03CC03D303CC03CC031B
:10016000CC03CC03CC03CC03CC03D503CC03CC030E
:10017000CC03CC03CC03CC03CC03CC03CC03CC0307
:10018000CC03CC03CC03CC03CC03D703CC03CC03EC
:10019000CC03CC03CC03CC03CC03CC03CC03CC03E7
:1001A000CC03CC03CC03CC03CC03CC03CC03CC03D7
:1001B000CC03CC03CC03CC03CC03CC03CC03CC03C7
:1001C000CC03CC03CC03CC03CC03CB03E803ED037B
:1001D000E703F203E703E703E703F703E703E703B4
:1001E000E703E703E703E703E703FC03E703E703AA
:1001F000E703E703E703E703E703E703E703E703AF
:10020000E703E703E703E703E7030104E703E70383
:10021000E703E703E703E703E703E703E703E7038E
:10022000E703E703E703E703E703E703E703E7037E
:10023000E703E703E703E703E703E703E703E7036E
:10024000E703E703E703E703E703E303120412040A
:100250000C0412040C040C040C041B040C040C0409
:100260000C040C040C040C040C0420040C040C04FA
:100270000C040C040C040C040C040C040C040C04FE
:100280000C040C040C040C040C0415040C040C04E5
:100290000C040C040C040C040C040C040C040C04DE
:1002A0000C040C040C040C040C040C040C040C04CE
:1002B0000C040C040C040C040C040C040C040C04BE
:1002C0000C040C040C040C040C042804ED29F8297B
:1002D000012A0B2A142A1D2AD929E3296364696E8D
:1002E0006F70737578585B000C941B040C941D2A76
:1002F0000C94012A0C94B8410C94D7030C94142A42
:100300000C94BF030C9412040C9401040C94E303AA
:100310000C94F8290C9415040C94D3030C94CC037E
:100320000C94CD030C94B9030C94F2030C94FC03CD
:100330000C94BD030C942D460C94B4030C94280427
:100340000C94B7030C94F7030C94BB030C940C04AB
:100350000C94DA410C9420040C94B5030C94D5034E
:100360000C94E7030C94B3030C94ED290C94D10383
:100370000C94CB030C94E3290C94D9290C940B2AEC
:100380000C94E8030C94ED030C94CF0311241FBECE
:10039000CFEFD1E2DEBFCDBF00E00CBF12E0A0E0A6
:1003A000B2E0E4E1F3EA00E00BBF02C007900D9277
:1003B000AE38B107D9F71FE0AEE8B2E001C01D9238
:1003C000AF3DB107E1F70E9486450C9488510C942B
:1003D0000000CF93DF93EC010E94473A8C1B9D0BEA
:1003E000893027E092071CF080519E4006C0883F6C
:1003F00028EF920714F4805F914F6AE070E00E944A
:10040000D245CB01DF91CF91089560E071EE80E09D
:1004100090E00E9493420E9431190E944F190E945D
:10042000081C84E690E00E94630C0E94F01D0C946E
:10043000CB39CF93C0918E02C130C1F018F0C230D9
:1004400031F146C081E00E946904882361F00E9476
:10045000473A9093AA028093A9028FE10E943C0F31
:100460000E94480F32C010928E0232C00E94950F37
:10047000882359F0C0938E0284E792E09F938F9374
:100480000E94BA420F900F9023C082E01FC083E801
:1004900092E09F938F930E94BA428091A90290911B
:1004A000AA020E94E9010F900F9006971CF00E948B
:1004B000301F0BC08091A9029091AA020E94E9010D
:1004C0008B3F9F4F14F40E94B61F81E080938E02F1
:1004D000CF9108950E9472030E942B040E943B0753
:1004E0000E94070B0C94310C649974C081E08093D6
:1004F000BF029091C202992309F4B5C01092C302C1
:10050000659952C081E08093BA029091BD0299230F
:1005100009F498C01092BE02669932C081E08093BF
:10052000B0029091B302992309F47BC01092B402F7
:100530006799AAC081E08093AB029091AE029923A3
:1005400009F45EC01092AF02489912C091E09093F6
:10055000B5028091B802811110C08091B9028F5FFD
:100560008093B9028091B902843109F4B4C008952E
:100570008091B802813009F49DC01092B9020895AB
:100580008091B302813091F69091B4029F5F909375
:10059000B4029091B402943159F68093B202109251
:1005A000B3021092B402C4CF8091BD02813009F031
:1005B000B1CF9091BE029F5F9093BE029091BE0218
:1005C000943109F0A9CF8093BC021092BD02109221
:1005D000BE02A2CF8091C202813009F08FCF9091EC
:1005E000C3029F5F9093C3029091C302943109F0BC
:1005F00087CF8093C1021092C2021092C30280CFB3
:100600009091AF029F5F9093AF029091AF029431AF
:1006100009F09ACF8093AC028093AE021092AF02A1
:1006200093CF9091B4029F5F9093B4029091B402E3
:10063000943109F07DCF8093B1028093B302109280
:10064000B40276CF9091BE029F5F9093BE029091CC
:10065000BE02943109F060CF8093BB028093BD024B
:100660001092BE0259CF9091C3029F5F9093C30234
:100670009091C302943109F043CF8093C0028093DC
:10068000C2021092C3023CCF8091AE02813009F0C9
:1006900059CF9091AF029F5F9093AF029091AF02BC
:1006A000943109F051CF8093AD021092AE021092B6
:1006B000AF024ACF9091B9029F5F9093B902909197
:1006C000B902943109F053CF8093B7021092B80267
:1006D0001092B90208959093B6029093B8021092C6
:1006E000B90208958FE787B98EE788B91092BF02E3
:1006F0001092C0021092C1021092C2021092C30264
:100700001092BA021092BB021092BC021092BD026B
:100710001092BE021092B0021092B1021092B20278
:100720001092B3021092B4021092AB021092AC027B
:100730001092AD021092AE021092AF021092B5026A
:100740001092B6021092B7021092B8021092B9023B
:10075000089590E0FC013197E034F10528F4EA595E
:10076000FF4F0C9457474698089540980895419834
:100770000895429808954398089544980895459897
:10078000089590E0FC013197E034F10528F4EA5532
:10079000FF4F0C945747469A0895409A0895419AFE
:1007A0000895429A0895439A0895449A0895459A5F
:1007B000089590E0FC013197E034F10540F4EA51EE
:1007C000FF4F0C94574788B190E4892788B9089562
:1007D00088B191E0892788B9089588B192E0892786
:1007E00088B9089588B194E0892788B9089588B1B7
:1007F00098E0892788B9089588B190E1892788B958
:10080000089588B190E2892788B9089590E0FC01A5
:100810003197E034F10510F080E00895EA5DFE4F75
:100820000C94574786B180E0089586B1807290E0BD
:1008300095958795089586B183FB882780F908955B
:1008400086B1807190E095958795959587950895E7
:1008500086B1807408955098589A8DB18F708DB973
:100860008EB1806F8EB90895803259F160F4813075
:1008700001F18031A1F48091BF02882381F01092B0
:10088000BF0281E00895803461F0803841F48091A6
:10089000AB02882321F01092AB0281E0089580E042
:1008A00008958091B0028823D1F31092B00281E0C4
:1008B00008958091B502882391F31092B50281E0EA
:1008C00008958091BA02882351F31092BA0281E010
:1008D0000895803259F160F4813001F18031A1F442
:1008E0008091C002882381F01092C00281E00895B7
:1008F000803461F0803841F48091AC02882321F08B
:100900001092AC0281E0089580E008958091B102D8
:100910008823D1F31092B10281E008958091B6024C
:10092000882391F31092B60281E008958091BB0272
:10093000882351F31092BB0281E00895803259F16F
:1009400060F4813001F18031A1F48091C1028823EB
:1009500081F01092C10281E00895803461F0803806
:1009600041F48091AD02882321F01092AD0281E024
:10097000089580E008958091B2028823D1F3109207
:10098000B20281E008958091B702882391F310921A
:10099000B70281E008958091BC02882351F3109240
:1009A000BC0281E0089590917C00987F90937C0038
:1009B00020917C00982F9770922B90937C00882335
:1009C00059F0815020E830E002C0359527958A958E
:1009D000E2F7209522B9089582B18C6F82B908950B
:1009E000CF92DF92EF92FF92CF93DF93CDB7DEB736
:1009F0002E970FB6F894DEBF0FBECDBF8EE0E6E6B1
:100A0000F2E0DE01119601900D928A95E1F789815D
:100A10009A819C01220F331F220F331F220F331F95
:100A2000281B390B40E050E0C12CB4ECDB2EB9E0C0
:100A3000EB2EF12CC701B6010E94E6452150310989
:100A40002F3F310509F008F49BC08B819C819C01EC
:100A5000220F331F220F331F220F331F281B390B86
:100A600040E050E0C701B6010E94E645215031093F
:100A70002F3F310509F008F48AC08D819E819C01C9
:100A8000220F331F220F331F220F331F281B390B56
:100A900040E050E0C701B6010E94E645215031090F
:100AA0002F3F310509F008F474C08F8198859C01AF
:100AB000220F331F220F331F220F331F281B390B26
:100AC00040E050E0C701B6010E94E64521503109DF
:100AD0002F3F310509F008F45EC089859A859C0195
:100AE000220F331F220F331F220F331F281B390BF6
:100AF00040E050E0C701B6010E94E64521503109AF
:100B00002F3F310509F008F448C08B859C859C0176
:100B1000220F331F220F331F220F331F281B390BC5
:100B200040E050E0C701B6010E94E645215031097E
:100B30002F3F3105A1F198F18D859E859C01220FF3
:100B4000331F220F331F220F331F281B390B40E0A6
:100B500050E0C701B6010E94E645215031092F3F00
:100B60003105F9F0F0F02E960FB6F894DEBF0FBE07
:100B7000CDBFDF91CF91FF90EF90DF90CF900895A0
:100B800080E02093B3008F5F8093B100ECCF81E0D1
:100B9000F8CF82E0F6CF83E0F4CF84E0F2CF85E0B7
:100BA000F0CF86E0EECFEAE7F0E0808180648083DA
:100BB000089580917A0082958170089587B3869513
:100BC00081700895B99B089587B3876087BB1092A1
:100BD000B2009091B40380917C00887F80937C0068
:100BE00020917C00892F8770822B80937C00992331
:100BF00009F420C12FEF290F80E890E002C09595FD
:100C000087952A95E2F7809582B920E42A95F1F735
:100C100080917A00806480937A0080917A0084FFCA
:100C2000FCCF80917A00806180937A008091780077
:100C300090917900E091B403F0E0EE0FFF1FEB54C8
:100C4000FC4F91838083E091B4032091C50230E191
:100C5000E39FF0011124E20FF11DEE0FFF1FEC5294
:100C6000FD4F91838083E091B40380E2E89FF0011F
:100C70001124EC52FD4F80819181E091B40320E278
:100C8000E29FF0011124EC52FD4F22813381820F4B
:100C9000931FE091B40330E2E39FF0011124EC5282
:100CA000FD4F24813581820F931FE091B40320E230
:100CB000E29FF0011124EC52FD4F26813781820F13
:100CC000931FE091B40330E2E39FF0011124EC5252
:100CD000FD4F20853185820F931FE091B40320E200
:100CE000E29FF0011124EC52FD4F22853385820FE3
:100CF000931FE091B40330E2E39FF0011124EC5222
:100D0000FD4F24853585820F931FE091B40320E2C7
:100D1000E29FF0011124EC52FD4F26853785820FAA
:100D2000931FE091B40330E2E39FF0011124EC52F1
:100D3000FD4F20893189820F931FE091B40320E297
:100D4000E29FF0011124EC52FD4F22893389820F7A
:100D5000931FE091B40330E2E39FF0011124EC52C1
:100D6000FD4F24893589820F931FE091B40320E25F
:100D7000E29FF0011124EC52FD4F26893789820F42
:100D8000931FE091B40330E2E39FF0011124EC5291
:100D9000FD4F208D318D820F931FE091B40320E22F
:100DA000E29FF0011124EC52FD4F228D338D820F12
:100DB000931FE091B40330E2E39FF0011124EC5261
:100DC000FD4F248D358D820F931FE091B40320E2F7
:100DD000E29FF0011124EC52FD4F268D378D820FDA
:100DE000931F929582958F7089279F708927E09134
:100DF000B403F0E0EE0FFF1FEA53FD4F91838083B1
:100E00002091B4032630D1F02091B403211107C002
:100E10002091C4022130E1F08E3A914008F1809196
:100E2000B40390E0019667E070E00E94D2458093A1
:100E3000B403089582B18C6F82B9E7CE2091C502C8
:100E400030E02F5F3F4F2F7033272093C502DCCF58
:100E5000863D914020F30E94B70A1092C402DFCF72
:100E60004EE150E06EE170E085E00E94C40A81E04E
:100E70008093C402D4CFCF92DF92EF92FF92CF93B0
:100E8000DF93CDB7DEB72E970FB6F894DEBF0FBE57
:100E9000CDBF87E880937A0010927B0010927C008F
:100EA00010927E0010927D008CEF81B982B986E6A7
:100EB00092E09093B6038093B5039093C70280931A
:100EC000C6029093D5028093D4029093D702809368
:100ED000D6029093D9028093D8029093DB0280933C
:100EE000DA029093DD028093DC029093DF0280931C
:100EF000DE029093E1028093E0029093E3028093FC
:100F0000E2029093E5028093E4029093E7028093DB
:100F1000E6029093E9028093E8029093EB028093BB
:100F2000EA029093ED028093EC029093EF0280939B
:100F3000EE029093F1028093F0029093F30280937B
:100F4000F2029093B8038093B7039093C902809301
:100F5000C8029093F5028093F4029093F702809375
:100F6000F6029093F9028093F8029093FB0280932B
:100F7000FA029093FD028093FC029093FF0280930B
:100F8000FE029093010380930003909303038093E8
:100F900002039093050380930403909307038093C7
:100FA0000603909309038093080390930B038093A7
:100FB0000A0390930D0380930C0390930F03809387
:100FC0000E03909311038093100390931303809367
:100FD00012039093BA038093B9039093CB0280934A
:100FE000CA02909315038093140390931703809380
:100FF0001603909319038093180390931B03809317
:101000001A0390931D0380931C0390931F038093F6
:101010001E039093210380932003909323038093D6
:1010200022039093250380932403909327038093B6
:101030002603909329038093280390932B03809396
:101040002A0390932D0380932C0390932F03809376
:101050002E03909331038093300390933303809356
:1010600032039093BC038093BB039093CD02809393
:10107000CC0290933503809334039093370380938D
:101080003603909339038093380390933B03809306
:101090003A0390933D0380933C0390933F038093E6
:1010A0003E039093410380934003909343038093C6
:1010B00042039093450380934403909347038093A6
:1010C0004603909349038093480390934B03809386
:1010D0004A0390934D0380934C0390934F03809366
:1010E0004E03909351038093500390935303809346
:1010F00052039093BE038093BD039093CF028093DD
:10110000CE0290935503809354039093570380939A
:101110005603909359038093580390935B038093F5
:101120005A0390935D0380935C0390935F038093D5
:101130005E039093610380936003909363038093B5
:101140006203909365038093640390936703809395
:101150006603909369038093680390936B03809375
:101160006A0390936D0380936C0390936F03809355
:101170006E03909371038093700390937303809335
:1011800072039093C0038093BF039093D102809326
:10119000D0029093750380937403909377038093A8
:1011A0007603909379038093780390937B038093E5
:1011B0007A0390937D0380937C0390937F038093C5
:1011C0007E039093810380938003909383038093A5
:1011D0008203909385038093840390938703809385
:1011E0008603909389038093880390938B03809365
:1011F0008A0390938D0380938C0390938F03809345
:101200008E03909391038093900390939303809324
:1012100092039093C2038093C1039093D30280936F
:10122000D2029093950380939403909397038093B5
:101230009603909399038093980390939B038093D4
:101240009A0390939D0380939C0390939F038093B4
:101250009E039093A1038093A0039093A303809394
:10126000A2039093A5038093A4039093A703809374
:10127000A6039093A9038093A8039093AB03809354
:10128000AA039093AD038093AC039093AF03809334
:10129000AE039093B1038093B0039093B303809314
:1012A000B2031092B4031092C5021092C40282E0FD
:1012B0008093B0001092B2001092700087E087BB5C
:1012C0008EE0E6E6F2E0DE01119601900D928A953D
:1012D000E1F789819A819C01220F331F220F331F6E
:1012E000220F331F281B390B40E050E0C12C64EC67
:1012F000D62E69E0E62EF12CC701B6010E94E64524
:10130000215031092F3F310509F008F49BC08B8132
:101310009C819C01220F331F220F331F220F331F8A
:10132000281B390B40E050E0C701B6010E94E6459A
:10133000215031092F3F310509F008F48AC08D8111
:101340009E819C01220F331F220F331F220F331F58
:10135000281B390B40E050E0C701B6010E94E6456A
:10136000215031092F3F310509F008F474C08F81F5
:1013700098859C01220F331F220F331F220F331F2A
:10138000281B390B40E050E0C701B6010E94E6453A
:10139000215031092F3F310509F008F464C08985D7
:1013A0009A859C01220F331F220F331F220F331FF8
:1013B000281B390B40E050E0C701B6010E94E6450A
:1013C000215031092F3F310509F008F44AC08B85BF
:1013D0009C859C01220F331F220F331F220F331FC6
:1013E000281B390B40E050E0C701B6010E94E645DA
:1013F000215031092F3F310591F188F18D859E856E
:101400009C01220F331F220F331F220F331F281B73
:10141000390B40E050E0C701B6010E94E64521507B
:1014200031092F3F3105C9F0C0F02E960FB6F89460
:10143000DEBF0FBECDBFDF91CF91FF90EF90DF9069
:10144000CF90089580E02093B3008F5F8093B10028
:10145000ECCF81E0F8CF82E0F6CF86E0F4CF85E0F4
:10146000F2CF84E0F0CF83E0EECFE82FF0E0EE0F94
:10147000FF1FEB54FC4F808191810895E82FF0E02D
:10148000EE0FFF1FEA53FD4F808191810895C19BAC
:1014900011C0C19A1092950010929400809193020D
:1014A000811109C08091CA03813081F08091C3030A
:1014B000813061F008958091CA03813019F18091E3
:1014C000C3038130F9F010929302089581E0809374
:1014D00093028091C4039091C50301979093920267
:1014E000809391022091C6033091C70330939002FC
:1014F00020938F02892BF1F6809180008F73809367
:10150000800008958091910290919202009741F09D
:1015100001979093920280939102892B59F6ECCF18
:1015200080918F0290919002009731F001979093F3
:10153000900280938F020895809180008F7B80932A
:101540008000809180008068809380008091C40337
:101550009091C50390939202809391028091C6036B
:101560009091C7039093900280938F020895809189
:10157000C303813009F00895809180008F738093B8
:1015800080001092C30308959091C303992359F1E9
:101590009130A9F11092870090E0FC01E553FC4FD7
:1015A0002081209386001092890020812695209327
:1015B00088007093C5036093C4035093C70340939E
:1015C000C6039093C9038093C803809180008F7BEA
:1015D000809380008091800080688093800081E00B
:1015E0008093C30308959091CA03913099F6909126
:1015F00080009F73909380001092CA03CBCF90918C
:1016000080009F73909380001092C303C3CF259AEC
:101610002D9810926F009FE296BB10928500109259
:101620008400E0E8F0E0108280818E7F80838081FA
:1016300082608083E1E8F0E01082808188608083AE
:10164000808180618083109289001092880080815F
:10165000887F80838081856080831092710098BB31
:101660001092950010929400E0E9F0E010828081E1
:101670008E7F808380818D7F8083E1E9F0E010821E
:1016800080818860808380818F7E808398E19093C1
:1016900099008AE6809398008081887F808380818A
:1016A000846080838DE18093CB038AE18093CC03B7
:1016B0009093CD0386E18093CE0384E18093CF03A2
:1016C00082E18093D00380E18093D1031092CA031A
:1016D0001092C30381E090E09093C5038093C4030C
:1016E0009093C7038093C6031092C9031092C80356
:1016F00008959091C30391112CC09091CA03911148
:1017000028C01092870090E0FC01E553FC4F208137
:1017100020938600109289002081269520938800CE
:101720009093C9038093C8037093C5036093C40367
:101730005093C7034093C603809180008F7B8093B2
:1017400080008091800080688093800081E0809399
:10175000CA0308959091C303911104C09091CA03E4
:10176000913009F008951092870090E0FC01E55354
:10177000FC4F2081209386001092890020812695BD
:10178000209388009093C9038093C8030895209103
:10179000C303211104C02091CA03213009F0089528
:1017A0009093C5038093C40308952091C30321112E
:1017B00004C02091CA03213009F008959093C70313
:1017C0008093C60308958091C303811104C0809162
:1017D000CA03813009F00895809180008F7380934F
:1017E00080001092CA0308958091CA0308958091E1
:1017F000C3030895D19B19C0D19A1092250110926C
:1018000024014091D8038091940290919502413037
:1018100069F02091D2033091D30382179307C9F066
:101820000196909395028093940208952091D50398
:101830003091D6038217930799F710929502109270
:1018400094024093D40380912101887F80932101E9
:101850000895109295021092940281E08093D7032C
:101860000895109273008FE28ABB109225011092A6
:101870002401E0E2F1E0108280818E7F808380810C
:101880008D7F8083E1E2F1E0108280818860808337
:1018900080818F7E808388E1809329018AE680930E
:1018A00028018081887F80831092D8031092D6030C
:1018B0001092D5031092D3031092D2031092D40346
:1018C0001092D70308951092D8039C01369527955E
:1018D00036952795ABE7B4E10E94B145969587957B
:1018E0009093D3038093D2031092D70310922501D3
:1018F000109224018FE28ABBE1E2F1E08081887FCF
:101900008083808184608083089521E02093D803C0
:101910009C013695279536952795ABE7B4E10E9453
:10192000B145969587959093D6038093D5031092F1
:10193000D40310922501109224018FE28ABBE1E2C8
:10194000F1E08081887F8083808184608083089536
:101950008091D703813011F080E008951092D70371
:1019600008958091D403813011F080E008951092A1
:10197000D4030895E1E2F1E08081887F8083D19AE9
:1019800010922501109224011092D7031092D403D3
:101990000895109272008FE289BB1092A5001092F8
:1019A000A400E0EAF0E0108280818E7F8083808155
:1019B0008D7F8083E1EAF0E01082808188608083FF
:1019C00080818F7E80838DE38093A90088E080935F
:1019D000A8008081887F80838081826080830895D1
:1019E000C99B07C0C99A1092A5001092A40081E07B
:1019F000089580E00895CF92DF92EF92FF920F93C7
:101A00001F93CF93DF931F921F92CDB7DEB7CE0106
:101A100001960E942B19E9ECF4E0C980DA80F12CE0
:101A200061E070E0B5E0EB2E1DC09C0126523C4FFA
:101A3000D901EC929C0125523C4FD901EC929A01BC
:101A4000220F331F265A3B4F86529C4FD9018D934C
:101A50009C93F3947096B2E0CB0ED11C86E0E93CE7
:101A6000F807C9F180818823A9F3D6012D913C9113
:101A7000CF010797DC018D919C91280F391F4F2DC5
:101A800050E0CA01880F991F880F991F8C010452DA
:101A90001C4FD8012C938C0103521C4FD8013C934E
:101AA0009F0121503109D9012C91222309F4BDCF86
:101AB0002F70DB0102C0AA0FBB1F2A95E2F79D0120
:101AC0008C0106521C4FD8012C938C0105521C4FDF
:101AD000D8012C93B4CFFF2061F00AE514E024E094
:101AE00030E04CE150E06AE974E08091D9030E9453
:101AF000CA400F900F90DF91CF911F910F91FF90EF
:101B0000EF90DF90CF90089590E1899FF00111242C
:101B1000E654FB4F6687089590E1899FF0011124F8
:101B2000E654FB4F8685089590E1899FF0011124CA
:101B3000E654FB4F71876087089590E1899FF0011B
:101B40001124E654FB4F80859185089590E1899F8B
:101B5000F0011124E654FB4F8785089590E1899F99
:101B6000F0011124E654FB4F8285089590E1899F8E
:101B7000F0011124E654FB4F84850895C99B15C0DC
:101B8000C99A1092A5001092A4000E949D3681115E
:101B90000DC00E94980F0E9464180E94E5300E94B8
:101BA0009D36811106C00C94FB0C08950E941A36D4
:101BB000F0CF0E942436F7CF2F923F924F925F9240
:101BC0006F927F928F929F92AF92BF92CF92DF924D
:101BD000EF92FF920F931F93CF93DF9300D0CDB777
:101BE000DEB7782E19820E94973E882309F433C10C
:101BF0002FEF89E698E1215080409040E1F700C046
:101C000000002981222331F1EAEBF4E069EC74E071
:101C10002150A0E12A9F9001112426533B4F45E01B
:101C20001182108213821282158214821782168208
:101C300011861086DB011C92CB010197DC014C93CD
:101C400013861286158614867096605F7F4FE217A2
:101C5000F30731F76AE974E0CE0101960E94EC3E89
:101C60001092D9038981882309F466C0312C1CE2C3
:101C7000A12EBB24B394CC24CA9403E0D02EE12C33
:101C800082E0F82E5524539495E0692E22E0422EEE
:101C900009C081159C4009F4A2C03394898138168B
:101CA00008F048C0E32DF0E0E656FB4F2080822D7F
:101CB0000E94F33C8C30910521F08C32B1E09B07FF
:101CC00041F7822D0E94D133E0E12E9E4001112484
:101CD000840106541B4FD8011196BC92AE92139604
:101CE000DC92CE92129715961C921E92149717961C
:101CF000FC92EE921697822D0E942E35F801918764
:101D00008087A4014A535B4FB4016C537B4F822DF3
:101D10000E945532D8011F965C921F971E966C92B6
:101D20008091D9038F5F8093D903339489813816CA
:101D300008F4B8CF8091D903781609F489C044E635
:101D400050E06AE070E084E00E94C40A10927200E1
:101D50008FE289BB1092A5001092A4001092A000FF
:101D60008091A0008E7F8093A0008091A0008D7F45
:101D70008093A0001092A1008091A10088608093C0
:101D8000A1008091A1008F7E8093A1008DE38093BC
:101D9000A90088E08093A8008091A100887F8093AB
:101DA000A1008091A10082608093A1000E942E0F6B
:101DB00089810F900F900F90DF91CF911F910F911C
:101DC000FF90EF90DF90CF90BF90AF909F908F905B
:101DD0007F906F905F904F903F902F900895822D4D
:101DE0000E94D133E0E12E9EB00111248B010654F4
:101DF0001B4FE4EBF0E0D8011196FC93EE931396A1
:101E0000DC92CE92129715961C921E9214971796FA
:101E1000FC92EE921697822D6A837B830E942E3568
:101E2000D80119969C938E9318976A817B81AB0198
:101E30004A535B4F6C537B4F822D0E945532F80101
:101E4000478666868091D9038F5F8093D90325CF1B
:101E50000E94B70A7BCF0E94613ECACE1092360C18
:101E60001092780B8FEF8093780C80937709809392
:101E7000350C1092770C0895CF93C82F68E779E05E
:101E80000E941E18811102C0C0937709CF91089556
:101E90001092360C1092B80B1092B70B1092760974
:101EA000109275091092760C1092750C83E0809355
:101EB000180D1092350C8091870980937409109247
:101EC000780CE9ECF4E080E090E006C070960296B1
:101ED00026E0E93CF20709F120812130B9F7DF0162
:101EE00017972D913C91DC01A95CB34F2D933C9346
:101EF000DC01A652B34F1D921C92DC01A950B44FD5
:101F00001D921C92DC01A654B94F1D921C92709632
:101F1000029626E0E93CF207F9F681E08093770C1F
:101F2000089581E08093780B08958091770C08954F
:101F30002F923F924F925F926F927F928F929F92D9
:101F4000AF92BF92CF92DF92EF92FF920F931F93C7
:101F5000CF93DF93CDB7DEB7A3970FB6F894DEBF6C
:101F60000FBECDBF8091770C882309F49AC0809171
:101F7000B70B9091B80B4091750950917609841771
:101F8000950708F0A7C08C010F5F1F4F1A870987BC
:101F90001093B80B0093B70B1091180D1D871330D9
:101FA00009F47FC080917509909176098C0120E039
:101FB00030E0098B1A8B2B8B3C8B8C010150110963
:101FC0001E8B0D8B0AE91CE072ECA72E74E0B72E75
:101FD000E8EFCE2EE6E0DE2EFAEDEF2EFCE0FF2E4F
:101FE000AAEB4A2EA6E05A2EB9E76B2EBBE07B2E59
:101FF000812C912C80E090E0212C312C9BA38AA392
:10200000C201230194014801A60167017A018901F7
:102010003C0121C0BFEF2B1A3B0AEAA1FBA170963D
:10202000FBA3EAA3F2E08F0E911C0E5F1F4F20E18D
:10203000A20EB11C32E0E30EF11C42E0C40ED11C32
:1020400052E0650E711C62E0460E511C8AA19BA1F4
:102050008115924031F12AA13BA126543B4F3A838E
:102060002983D9011F968C918130A1F6F801E9509E
:10207000F44F80819181892B09F06FC0F401808138
:102080009181D5018D939C93F101E858F64F80A181
:10209000A981BA811E968C93BDCF1092770C1092B5
:1020A000780BA3960FB6F894DEBF0FBECDBFDF91BD
:1020B000CF911F910F91FF90EF90DF90CF90BF9045
:1020C000AF909F908F907F906F905F904F903F90D8
:1020D0002F9008951092B80B1092B70BE9ECF4E032
:1020E00080E090E006C07096029606E0E93CF007BA
:1020F000E1F020812130B9F7DF0117972D913C9154
:10210000DC01A656B34F2D933C93DC01A654B94F86
:102110002D913C91DC01A652B34F2D933C937096C8
:10212000029606E0E93CF00721F78091180D88231C
:1021300009F4C7C0813009F492C1823009F45BC14F
:10214000833009F42CC25E874D8780E090E0DA018D
:102150008A179B0708F0A5CF16CFBD85B1114AC0DD
:10216000F6010190F081E02DF88BEF87F701A08157
:10217000B1812F853889A21BB30B29853A850E942E
:10218000C04529893A894B895C890E9408468F8518
:102190009889820F931FD3018D939C93D901B59594
:1021A000A795EF85F889AE0FBF1F29853A850E9454
:1021B000C0459B01AC01A0E9B0E00E94C7452FE0FB
:1021C00030E040E050E00E94084669E055954795B0
:1021D000379527956A95D1F7F801EA5CF64F318378
:1021E0002083D4018D919C91820F931FF5019183DF
:1021F00080834ACFB13009F448C029853A854D899A
:102200005E892417350709F421C1F101E758F34F1E
:10221000808181113AC0F6010190F081E02DF88BA8
:10222000EF87DF01B195A195B10929853A850E9413
:10223000C04529893A894B895C890E9408468F8567
:102240009889820F931FD3018D939C93D901B595E3
:10225000A795EF85F889AE0FBF1F29853A850E94A3
:10226000C0459B01AC01A0E9B0E00E94C7452FE04A
:1022700030E040E050E00E94084699E055954795CF
:10228000379527959A95D1F7ACCFF201A081B1810E
:1022900029853A850E94C04529893A894B895C89FC
:1022A0000E940846D4018D919C91820F931FF501E5
:1022B00091838083D7018D919C91F30191838083D9
:1022C000E3CE81E08093180D2091D80C3091D90C89
:1022D0000091980C1091990C1A830983C801880FFA
:1022E000991F8901081B190B1E870D87109376090A
:1022F0000093750909811A812017310709F4E5C097
:10230000A801B7EF2B2EBBE03B2E16E3612E19E0A0
:10231000712E08EF802E06E0902E89E7482E8BE084
:10232000582E09E71CE069EC74E0C901841B950B89
:102330009C0140E050E029873A874B875C8795E015
:10234000C92ED12CE12CF12C788B6F8719C0EF8529
:10235000F8897096F88BEF87F2E02F0E311C22E09F
:10236000620E711C32E0830E911C42E0440E511C3F
:102370000F5F1F4F6F857889695C764009F44BC009
:10238000AF85B8898C91813011F7F8018081813057
:1023900009F446C0F401A081B181F101A080B180AF
:1023A000F30180819181A81AB90A29813A810E949A
:1023B000C0459B01AC01660F771F881F991F620FF4
:1023C000731F841F951F660F771F881F991F660F45
:1023D000771F881F991FA70196010E940846BB27F7
:1023E00057FDBA95A52F942F832FA81AB90AD201A9
:1023F000AD92BC92ACCF8091750C9091760C009709
:1024000009F4E1C023E02093180D9093760980939E
:1024100075099E878D8780E090E0AD85BE8598CE5A
:10242000F101A081B181F30180819181A81BB90BD9
:102430002D853E850E94C04529853A854B855C8562
:102440000E940846D2012D933C9381CFF801E95CAC
:10245000F34F80819181D5018D939C9315CE82E0BD
:102460008093180D7091980C6091990C7093750978
:1024700060937609A9E7BBE0E9ECF4E080E090E046
:102480008D0109C0709602960E5F1F4FB6E0E93CC1
:10249000FB0709F47DC020812130A1F79C01295060
:1024A000344FD9012D913C91D8014D915C91241B61
:1024B000350BAC014A5C564FDA014D915C91241BFF
:1024C000350BD8012D933C93DDCFB9E7CB2EBBE084
:1024D000DB2E19E7E12E1CE0F12E89EC94E000E000
:1024E00010E045E0442E512C612C712C49011C0157
:1024F00011C0F0E12F0E311C22E0C20ED11C0E5F84
:102500001F4F3FEFE31AF30A49EC241646E0340666
:1025100009F481CFD1018C91813059F7F701808185
:102520008130C9F1F801E850F94FA081B181F8017B
:10253000E950F44FA080B180F801EA5CF64F808149
:102540009181A81AB90A94010E94C0459B01AC016F
:10255000660F771F881F991F620F731F841F951FB7
:10256000660F771F881F991F660F771F881F991F97
:10257000A30192010E940846BB2757FDBA95A52FDB
:10258000942F832FA81AB90AF601B182A082B1CF85
:102590007D876E8740CFD6011D921C92AACF1092E4
:1025A000180DAAEDBCE0E9ECF4E006C070961296B6
:1025B00006E0E93CF00749F080818130B9F71196D7
:1025C0001C921E92F3CF1092180D8091360C813020
:1025D00009F463CD8091350C8F5F8093350CA09109
:1025E0008C09A81708F0C8C080E092E0E6E3F7E0A5
:1025F000A8E7B9E001900D920197E1F78091780C7E
:1026000090917709981721F0909187099093740918
:1026100091E09093350C80937709A0918C09B1E0FB
:10262000AB1709F484C26B2F70E08B0101501109C4
:102630000024169507950794169507950794102F73
:10264000002DA8014858564FFA01E258FF4F8081EB
:1026500020918E09289FC001112496958795929507
:1026600082958F7089279F7089279093760C80932D
:10267000750CFA01E158FF4F3081329F900111240F
:1026800036952795329522952F7023273F70232763
:102690002115310511F421E030E04091360C413034
:1026A00009F45EC2892B09F4C4C1AB1709F456C3FF
:1026B000E9E74E2EECE05E2EA7E3BCE07B010024B0
:1026C000F694E7940794F694E7940794FE2CE02C94
:1026D000A7014854564F7A0180EC582F5603400109
:1026E000579F900C1124E9ECF4E080E090E0590150
:1026F0003D01A70168010EC07096BFEF4B1A5B0A3F
:10270000029602E0600E711C4E5F5F4F16E0E93CDE
:10271000F107A1F12081213079F79C012A5C364F25
:10272000D9011D921C929A01280D391D2C0D3D1DB9
:10273000D9012D913C9136FF18C0D3012D913C91C8
:10274000B901E12CF12C8C010656134FD8016D9381
:102750007C93D3012D933C939C012950344FD90194
:10276000ED92FC92D2011C92C7CFD3016D917C9166
:102770007901E61AF70AE7CFB82F52CF95013093C7
:10278000D90C2093D80C8091900990E0AC01440FB3
:10279000551F4217530708F4E0C0C90101979695E9
:1027A00087959093990C8093980C009709F0D9C065
:1027B0001092D90C1092D80C1E861D8619821A828E
:1027C0001B821C821D821E821F82188661E06F8719
:1027D000412C512C198A1D8A1F8A188E198E71E07E
:1027E0007A8F1B8E1C8E1D8E1E8E1F8E18A219A214
:1027F00078EF872E76E0972EE9E76E2EECE07E2EBE
:1028000009EC14E0212C312C1BA30AA315C00AA14A
:102810001BA1005F1F4F1BA30AA312E0810E911C96
:1028200022E0220E311C3FEF631A730A4AA15BA11A
:10283000495C564009F484C0AAA1BBA18C918130A7
:1028400031F7F101E652F34F31812081932F990F37
:10285000990BA980BA80CB80DC80ED80FE800F814F
:102860001885492F592F692F792F892F0E945E468D
:1028700059016A017B018C01F101E950F44FA081FB
:10288000B18120E03AE00E94C0452CE030E040E019
:1028900050E00E940846DA01C901550F220B322F81
:1028A000A90129873A874B875C87F3012081211191
:1028B00022C09C01AD016985762F862F962F0E943C
:1028C0007F47AA8CBB8CCC8CDD8CEE8CFF8C08A156
:1028D00019A10E942146D4012C9311963C93822F7A
:1028E000932F8115F4E09F070CF1EFEFF3E0D40193
:1028F000ED93FC938CCF9C01AD016985762F862FDB
:10290000962F0E947F47AF84B42CC52CD988ED88C0
:10291000FF88088D198D0E942146F40120833183A0
:10292000822F932F8115F4E09F07FCF681309C4F96
:102930000CF06DCFE1E0FCEFD401ED93FC9367CF99
:102940008D859E8590937609809375098091B70B4C
:102950009091B80BAD85BE85FBCB9093990C80937D
:10296000980C4901A12CB12C880C991CAA1CBB1CE9
:10297000C12CD12C76019E878D87A0E0B0E0880F16
:10298000991FAA1FBB1F8C019D0140E050E0BA01B6
:1029900089831A832B833C834D835E836F8378877F
:1029A0009401A501B601C7015801CB80DC80E12C60
:1029B000F12C00E010E00E947F4701E00E945D479B
:1029C000722E832E942EB52F662E372EF82FE92FD8
:1029D00000E00E9476472F87432E542E598B6D8B33
:1029E0007F8B888F998F7A8E8B8E9C8EBD8F6E8E0B
:1029F0003F8EF8A3E9A3452DA0E00E94884749F443
:102A000011E01F87412C512C198A1D8A1F8A188EAC
:102A1000198E272D382D492D5B2F662D732D8F2F65
:102A20009E2FA0E00E94884709F0E2CE21E02A8F85
:102A3000D8CEAB1709F42AC1A9E7EA2EACE0FA2EEA
:102A4000B7E34B2EBCE05B2EDB010024B695A795C7
:102A50000794B695A7950794BA2FA02DA854B64F02
:102A600080EC482F46034001479F900C1124E9EC6D
:102A7000F4E080E090E0772473945901A7011D01F0
:102A800068010FC070964F5F5F4F0296B2E04B0E29
:102A9000511C02E0200E311C16E0E93CF10709F45C
:102AA0006DCE2081213071F79C012A5C364FD9010F
:102AB0001D921C929101280D391D2C0D3D1DD9012F
:102AC0002D913C9136FF2CC0D2012D913C91B90142
:102AD000E12CF12C8C010656134FD8016D937C9399
:102AE000D2012D933C938C010950144FD801ED92E3
:102AF000FC92D1010D911C9116FD0FC06217730756
:102B000030F42017310718F4DA017C92BBCF261776
:102B1000370718F402171307B8F3DA011C92B2CF83
:102B2000D2016D917C917901E61AF70AD3CF809199
:102B3000780B813009F4A0C0809174098150809392
:102B40007409882309F493C0809177098093780CE5
:102B5000811169C081E08093360CB091350C63CD52
:102B6000892B09F046C1AB1709F4F5C149E7442E9A
:102B70004CE0542EA7E3BCE07B010024F694E794DC
:102B80000794F694E7940794FE2CE02CA701485490
:102B9000564F7A0180EC582F56034001579F900CF6
:102BA0001124E9ECF4E080E090E059013D01A70137
:102BB0000FC07096BFEF4B1A5B0A029622E0620EBE
:102BC000711C4E5F5F4F36E0E93CF30709F4D6CD48
:102BD0002081213071F79C012A5C364FD9011D926A
:102BE0001C929A01280D391D200F311FD9012D91FA
:102BF0003C91D30136FF35C02D913C917901C12C18
:102C0000D12CBC016656734FDB01ED92FC92D301CF
:102C10002D933C939C012950344FD901CD92DC92E5
:102C2000D2011C92C6CF9091770998132AC080E0F8
:102C300092E0E8E7F9E0A6E3B7E001900D92019792
:102C4000E1F780914507882321F080914A0781119F
:102C500003C081E08093360CB091350CA0918C09B3
:102C6000E2CCED90FC906901CE18DF08CACF8091CC
:102C700091098093780C6CCF809192098093780CA5
:102C800067CF66E377E00E941E18DBCF49E75CE080
:102C9000A7E3BCE00858164FE9ECF4E080E090E0D0
:102CA000BB24B39469013A014D010DC07096BFEF8A
:102CB0006B1A7B0A029622E0820E911C36E0E93CF8
:102CC000F30709F449C04081413081F7AC014A5C07
:102CD000564FDA011D921C92A801480F591F405C03
:102CE0005F4FDA014D915C9156FF2FC0D4014D9199
:102CF0005C91BA01E12CF12C9C012656334FD9018D
:102D00006D937C93D4014D935C939C012950344F77
:102D1000D901ED92FC929C012A58384FD901ED90CF
:102D2000FC90F6FC0FC06417750730F44E155F0574
:102D300018F4D301BC92BACF4617570718F4E4161B
:102D4000F506B8F3D3011C92B1CFD4016D917C91FB
:102D50007A01E61AF70AD0CF960111CD49E75CE077
:102D6000A7E3BCE00858164FE9ECF4E080E090E0FF
:102D70004A0169015D010CC07096BFEF8B1A9B0A76
:102D8000029622E0A20EB11C36E0E93CF30721F3E3
:102D90004081413089F7AC014A5C564FDA011D92FF
:102DA0001C92A801480F591F405C5F4FDA014D91FA
:102DB0005C91D50156FF17C04D915C91BA01E12C91
:102DC000F12C9C012656334FD9016D937C93D5018C
:102DD0004D935C93AC014950544FDA01ED92FC9253
:102DE000D4011C92C9CF6D917C917A01E61AF70A41
:102DF000E8CFAB1709F465C089E7482E8CE0582E60
:102E0000A7E3BCE07B010024F694E7940794F694D2
:102E1000E7940794FE2CE02CC7018854964F7C0160
:102E200080EC482F46034001479F900C1124E9ECA9
:102E3000F4E080E090E059013D01A70178010FC066
:102E40007096BFEF4B1A5B0A029602E0600E711C8F
:102E50004E5F5F4F16E0E93CF10709F48FCC20810B
:102E6000213071F79C012A5C364FD9011D921C92CA
:102E70009A01280D391D2E0D3F1DD9012D913C9130
:102E800036FF18C0D3012D913C91B901C12CD12C32
:102E90008C010656134FD8016D937C93D3012D936B
:102EA0003C939C012950344FD901CD92DC92D20140
:102EB0001C92C6CFD3016D917C916901C61AD70AC5
:102EC000E7CFA7E3BCE049E75CE00858164FE9EC20
:102ED000F4E080E090E05D014A010DC0709602963A
:102EE000B2E0AB0EB11C4FEF841A940A56E0E93CF5
:102EF000F50709F444CC4081413081F7AC014A5CCC
:102F0000564FDA011D921C92A801480F591F405CD0
:102F10005F4FDA014D915C91D50156FF16C04D917E
:102F20005C91BA01E12CF12CDC01A656B34F6D93F4
:102F30007C93D5014D935C93AC014950544FDA0119
:102F4000ED92FC92D4011C92C9CF6D917C917A01D3
:102F5000E61AF70AE9CFA7E3BCE049E75CE00858C6
:102F6000164FE9ECF4E080E090E05D014A010DC00D
:102F700070960296B2E0AB0EB11C4FEF841A940A21
:102F800056E0E93CF50709F4FACB4081413081F77E
:102F9000AC014A5C564FDA011D921C92A801480F01
:102FA000591F405C5F4FDA014D915C9156FF17C08D
:102FB000D5014D915C91BA01E12CF12CDC01A656B2
:102FC000B34F6D937C93D5014D935C93AC01495005
:102FD000544FDA01ED92FC92D4011C92C9CFD50175
:102FE0006D917C917A01E61AF70AE8CFFC0120E0A6
:102FF00030E090E08191980F2F5F3F4F211582E0E4
:103000003807C1F781E0911180E0089520E032E0B7
:10301000FC01A901119241505040E1F70895FB01D4
:1030200020E030E0DC01A20FB31F4C9141932F5FF1
:103030003F4F211542E03407A9F70895EF92FF9220
:103040000F931F93CF93DF93F62EE72E082F10E0F8
:1030500020E030E000511F4F2F4F3F4F89E0000F1D
:10306000111F221F331F8A95D1F7C62FD72F80E05B
:1030700090E0DC01AC01BD01400F511F621F731FC6
:103080006BBFFA01479149930196A11DB11D8115AE
:1030900042E09407A105B10569F7EF2DFE2D20E070
:1030A00080E090E03191230F0196811532E0930783
:1030B000C9F781E0211180E08195DF91CF911F91C7
:1030C0000F91FF90EF9008954F925F926F927F92D1
:1030D0008F929F92AF92BF92CF92DF92EF92FF9228
:1030E0001F93CF93DF9380915B0D813081F0DF914F
:1030F000CF911F91FF90EF90DF90CF90BF90AF9056
:103100009F908F907F906F905F904F900895109157
:10311000190D113061F783E00E94350A20915E0D90
:1031200030915F0D7C01E21AF30A84E00E94350AB7
:1031300020915C0D30915D0DEC01C21BD30B88E337
:10314000E8168FEFF8060CF479C089ECE816F10464
:1031500014F010931A0DB701882777FD8095982FEA
:103160000E94A7486B017C0126E234EB47E15DE356
:103170000E9457492B013C0129E33EE843EE5DE301
:10318000C701B6010E9457494B015C01BE01882767
:1031900077FD8095982F0E94A7486B017C012DEC4C
:1031A0003CEC4CEC5DE30E9457490E9479487093D7
:1031B0002C0D60932B0D70932E0D60932D0DC3017C
:1031C000B2010E9479489B01245131093093320D9C
:1031D0002093310D6C5E7F4F7093340D6093330DEF
:1031E000C301B20190580E9479487093360D6093E4
:1031F000350DC501B4010E9479487093380D609374
:10320000370DC501B40190580E94794870933A0D6A
:103210006093390D2DEC3CEC4CE45DE3C701B60145
:103220000E94574990580E94794870933C0D6093D2
:103230003B0D70933E0D60933D0D59CF82E080931E
:103240001A0D89CFE82FF0E0EE0FFF1FE55EF24F79
:103250008081918108952BE13DE0FC013183208341
:10326000089510925F0D10925E0D10925D0D1092F8
:103270005C0D1092190D10925B0D10921A0D80E4E6
:10328000EBE1FDE0DF011D928A95E9F70895809159
:103290001A0D10921A0D089510921A0D08952F927A
:1032A0003F924F925F926F927F928F929F92AF92D6
:1032B000BF92CF92DF92EF92FF920F931F93CF9323
:1032C000DF93CDB7DEB7E4970FB6F894DEBF0FBE3D
:1032D000CDBF10925F0D10925E0D10925D0D109299
:1032E0005C0D82E390E00E94630C7E0185E1E80EB4
:1032F000F11CFE013196FAA7E9A71E01F9E22F0E93
:10330000311C812C912C54012401350104C00E94F0
:10331000FA0B0E94E2050E94A80C8823C1F383E007
:103320000E94350A8C01F701819391937F0184E01B
:103330000E94350A6C01E9A5FAA581939193FAA739
:10334000E9A7B80180E090E00E94A5489B01AC018C
:10335000C301B2010E94A9472B013C01B60180E0E4
:1033600090E00E94A5489B01AC01C501B4010E94F8
:10337000A9474B015C01E214F30469F60E94BA0C00
:1033800020E030E040E251E4C301B2010E94114864
:103390006B017C0120E030E040E251E4C501B40162
:1033A0000E94114869A77AA78BA79CA76D897E897F
:1033B00080E090E00E94A548A70196010E94A847DE
:1033C0009B01AC010E94574920E030E0A9010E9416
:1033D000A9472B013C0169817A8180E090E00E943D
:1033E000A54829A53AA54BA55CA50E94A8479B0125
:1033F000AC010E94574920E030E0A9010E94A94792
:103400004B015C016F89788D80E090E00E94A548B7
:10341000A70196010E94A8479B01AC010E94574951
:10342000A30192010E94A9472B013C016B817C8181
:1034300080E090E00E94A54829A53AA54BA55CA58F
:103440000E94A8479B01AC010E9457499B01AC0117
:10345000C501B4010E94A9474B015C01698D7A8DB9
:1034600080E090E00E94A548A70196010E94A8472D
:103470009B01AC010E9457499B01AC01C301B20101
:103480000E94A9472B013C016D817E8180E090E084
:103490000E94A54829A53AA54BA55CA50E94A8476E
:1034A0009B01AC010E9457499B01AC01C501B401CD
:1034B0000E94A9474B015C016B8D7C8D80E090E000
:1034C0000E94A548A70196010E94A8479B01AC0154
:1034D0000E9457499B01AC01C301B2010E94A94758
:1034E0002B013C016F81788580E090E00E94A54827
:1034F00029A53AA54BA55CA50E94A8479B01AC0154
:103500000E9457499B01AC01C501B4010E94A94723
:103510004B015C016D8D7E8D80E090E00E94A5489E
:10352000A70196010E94A8479B01AC010E94574940
:103530009B01AC01C301B2010E94A9472B013C01D0
:1035400069857A8580E090E00E94A54829A53AA582
:103550004BA55CA50E94A8479B01AC010E9457495E
:103560009B01AC01C501B4010E94A9474B015C015C
:103570006F8D78A180E090E00E94A548A701960198
:103580000E94A8479B01AC010E9457499B01AC01D6
:10359000C301B2010E94A9472B013C016B857C85C8
:1035A00080E090E00E94A54829A53AA54BA55CA51E
:1035B0000E94A8479B01AC010E9457499B01AC01A6
:1035C000C501B4010E94A9474B015C0169A17AA120
:1035D00080E090E00E94A548A70196010E94A847BC
:1035E0009B01AC010E9457499B01AC01C301B20190
:1035F0000E94A9472B013C016D857E8580E090E00B
:103600000E94A54829A53AA54BA55CA50E94A847FC
:103610009B01AC010E9457499B01AC01C501B4015B
:103620000E94A9474B015C016BA17CA180E090E066
:103630000E94A548A70196010E94A8479B01AC01E2
:103640000E9457499B01AC01C301B2010E94A947E6
:103650002B013C016F85788980E090E00E94A548AD
:1036600029A53AA54BA55CA50E94A8479B01AC01E2
:103670000E9457499B01AC01C501B4010E94A947B2
:103680004B015C016DA17EA180E090E00E94A54805
:10369000A70196010E94A8479B01AC010E945749CF
:1036A0009B01AC01C301B2010E94A9476DA77EA78F
:1036B0008FA798AB69897A8980E090E00E94A5483D
:1036C00029A53AA54BA55CA50E94A8479B01AC0182
:1036D0000E9457499B01AC01C501B4010E94A94752
:1036E00069AB7AAB8BAB9CAB6FA178A580E090E027
:1036F0000E94A548A70196010E94A8472B013C0102
:103700006B897C8980E090E00E94A54829A53AA5B4
:103710004BA55CA50E94A8474B015C01A301920147
:10372000C301B2010E9457492DA53EA54FA558A936
:103730000E94A94720E030E040E251E40E94114895
:103740000E94BE492B013C01A5019401C501B401B1
:103750000E94574929A93AA94BA95CA90E94A947E7
:1037600020E030E040E251E40E9411480E94BE494E
:103770004B015C0120E030E040EA51E4C301B201BA
:103780000E940D4887FF0AC020E030E040EA51E483
:10379000C501B4010E940D4887FD21C044E650E0F8
:1037A0006AE070E084E00E94C40A80E0E4960FB60C
:1037B000F894DEBF0FBECDBFDF91CF911F910F9167
:1037C000FF90EF90DF90CF90BF90AF909F908F9041
:1037D0007F906F905F904F903F902F90089581E081
:1037E0008093190DC701B6010E94794870935F0D4F
:1037F00060935E0D69A57AA58BA59CA50E9479486A
:1038000070935D0D60935C0D0E94B70A81E0CECF8E
:1038100081E080935B0D089510925B0D0895809177
:103820005B0D08950F931F93CF93DF93EC011091DD
:10383000A402113091F108F442C0123081F013302B
:10384000C1F50E94950F81112CC01092640D109249
:10385000A40281E0DF91CF911F910F9108950E9402
:10386000950F81111EC01091640D8091630D113070
:1038700009F454C0882309F44AC08A810E943C0F8D
:103880001092630D0E94480F82E08093A40280E0B2
:10389000DF91CF911F910F9108950E94950F88237A
:1038A00021F11093A40280E0DF91CF911F910F913D
:1038B000089580E0DF91CF911F910F91089580913D
:1038C000620D882301F189810E943C0F0E94480FFC
:1038D0008091620D8093630D81E08093A40280E06B
:1038E000DF91CF911F910F9108950091640D809108
:1038F000630D013009F18111C0CF8B810E943C0F13
:103900001093630DBFCF88810E943C0FDFCF8B8166
:103910000E943C0F81E08093630DB4CF811114C0ED
:103920008D810E943C0F1093630D0E94480F83E02D
:103930008093A40280E0B8CF811106C08D810E94DF
:103940003C0F0093630DF1CF8C810E943C0F1092CD
:10395000630DEBCF1F93CF93DF93EC011091A30284
:10396000113029F1A0F1123079F0133059F50E948D
:10397000950F811120C01092640D1092A30281E076
:10398000DF91CF911F9108950E94950F811113C06F
:103990008091630D81115FC08091640D813009F4C5
:1039A00047C08B810E943C0F1093A30233C00E943A
:1039B000950F882309F11093A30280E0DF91CF9146
:1039C0001F91089580E0DF91CF911F91089580911C
:1039D000620D882349F189810E943C0F0E94480FA3
:1039E0008091620D8093630D81E08093A30280E05B
:1039F000DF91CF911F9108958091630D81111FC0B8
:103A00008091640D8130A1F08B810E943C0F82E097
:103A10008093A30281E08093630D0E94480F80E0B1
:103A2000DF91CF911F91089588810E943C0FD6CFDE
:103A30008D810E943C0F83E08093A302EBCF8A81AB
:103A40000E943C0F1092630D0E94480F82E0809309
:103A5000A30280E0B3CF8A810E943C0F1092630DD5
:103A60000E94480F1093A30280E0A8CF1F93CF932A
:103A7000DF93EC011091A202113031F1A8F1123064
:103A800079F0133061F50E94950F811121C01092D9
:103A9000640D1092A20281E0DF91CF911F910895F1
:103AA0000E94950F811114C08091630D813009F03F
:103AB00057C08091640D813009F45EC08A810E94F4
:103AC0003C0F1093A20233C00E94950F882309F186
:103AD0001093A20280E0DF91CF911F91089580E0C2
:103AE000DF91CF911F9108958091620D882341F15C
:103AF00089810E943C0F0E94480F8091620D809343
:103B0000630D81E08093A20280E0DF91CF911F914D
:103B100008958091630D8130B9F48091640D8130F6
:103B200059F18A810E943C0F82E08093A202109298
:103B3000630D0E94480F80E0DF91CF911F9108959F
:103B400088810E943C0FD7CF8B810E943C0F10933D
:103B5000630D0E94480F82E08093A20280E0BBCFF9
:103B60008B810E943C0F81E08093630D0E94480F7F
:103B70001093A20280E0AFCF8C810E943C0F83E0C3
:103B80008093A202D4CF8091630D882319F0109204
:103B9000630D089581E08093630D0895681B790B90
:103BA000683F88EF780744F0693087E0780714F0C1
:103BB00060517E40CB010895605F714FCB01089545
:103BC000680F791F77FD08C061318EE0780714F027
:103BD00060517E40CB010895605F714FCB01089525
:103BE0001092640D1092620D1092630D1092610D8F
:103BF0001092600D089581E08093640D0895809384
:103C0000620D08951092610D1092600D08958091DB
:103C1000600D9091610D0895CF93DF93C091A40240
:103C2000C13071F1D8F1C23071F0C33099F50E9402
:103C3000950F811129C01092640D1092A40281E0A9
:103C4000DF91CF9108950E94950F81111DC0C09101
:103C5000640D8091630DC13009F451C0882309F4CB
:103C600046C0809102020E943C0F1092630D0E9498
:103C7000480F82E08093A40280E0DF91CF91089505
:103C80000E94950F8823F9F0C093A40280E0DF9191
:103C9000CF91089580E0DF91CF9108958091620DDA
:103CA000882301F1809101020E943C0F0E94480F7D
:103CB0008091620D8093630D81E08093A40280E087
:103CC000DF91CF910895D091640D8091630DD13033
:103CD00029F18111C6CF809103020E943C0FC0934D
:103CE000630DC5CF809100020E943C0FDFCF809111
:103CF00003020E943C0F81E08093630DB8CF8111D5
:103D000016C0809105020E943C0FC093630D0E9473
:103D1000480F83E08093A40280E0B9CF811107C0EF
:103D2000809105020E943C0FD093630DF0CF8091EB
:103D300004020E943C0F1092630DE9CFCF93DF93F2
:103D4000C091A402C13071F1D8F1C23071F0C3301A
:103D500099F50E94950F811129C01092640D10925F
:103D6000A40281E0DF91CF9108950E94950F811107
:103D70001DC0C091640D8091630DC13009F451C024
:103D8000882309F446C0809108020E943C0F1092DB
:103D9000630D0E94480F82E08093A40280E0DF91CF
:103DA000CF9108950E94950F8823F9F0C093A40243
:103DB00080E0DF91CF91089580E0DF91CF91089569
:103DC0008091620D882301F1809107020E943C0FCF
:103DD0000E94480F8091620D8093630D81E0809373
:103DE000A40280E0DF91CF910895D091640D80917D
:103DF000630DD13029F18111C6CF809109020E9453
:103E00003C0FC093630DC5CF809106020E943C0F0A
:103E1000DFCF809109020E943C0F81E08093630D07
:103E2000B8CF811116C080910B020E943C0FC09345
:103E3000630D0E94480F83E08093A40280E0B9CF15
:103E4000811107C080910B020E943C0FD093630D3B
:103E5000F0CF80910A020E943C0F1092630DE9CFCF
:103E6000CF93C091A302C13021F178F1C23069F043
:103E7000C33041F50E94950F81111FC01092640D4F
:103E80001092A30281E0CF9108950E94950F8111B5
:103E900014C08091630D81115DC08091640D8130EB
:103EA00009F443C080910F020E943C0FC093A3020B
:103EB0002FC00E94950F8823E1F0C093A30280E0F9
:103EC000CF91089580E0CF9108958091620D88236D
:103ED00039F180910D020E943C0F0E94480F8091A1
:103EE000620D8093630D81E08093A30280E0CF9107
:103EF00008958091630D811120C08091640D8130FF
:103F0000A1F080910F020E943C0F82E08093A302F7
:103F100081E08093630D0E94480F80E0CF91089567
:103F200080910C020E943C0FD8CF809111020E9418
:103F30003C0F83E08093A302EBCF80910E020E949E
:103F40003C0F1092630D0E94480F82E08093A30201
:103F500080E0B6CF80910E020E943C0F1092630D5C
:103F60000E94480FC093A30280E0AACFCF93C091D4
:103F7000A202C13029F180F1C23069F0C33049F5A5
:103F80000E94950F811120C01092640D1092A20220
:103F900081E0CF9108950E94950F811115C0809105
:103FA000630D813009F054C08091640D813009F4B3
:103FB0005CC0809114020E943C0FC093A2022FC0EB
:103FC0000E94950F8823E1F0C093A20280E0CF9178
:103FD000089580E0CF9108958091620D882331F19A
:103FE000809113020E943C0F0E94480F8091620D45
:103FF0008093630D81E08093A20280E0CF910895C9
:104000008091630D8130B9F48091640D813069F144
:10401000809114020E943C0F82E08093A2021092D1
:10402000630D0E94480F80E0CF91089580911202A5
:104030000E943C0FD9CF809115020E943C0FC09383
:10404000630D0E94480F82E08093A20280E0BFCF00
:10405000809115020E943C0F81E08093630D0E94C5
:10406000480FC093A20280E0B2CF809116020E9456
:104070003C0F83E08093A202D2CFCF93C091A302E2
:10408000C13021F178F1C23069F0C33041F50E94AE
:10409000950F81111FC01092640D1092A30281E050
:1040A000CF9108950E94950F811114C08091630DE6
:1040B00081115DC08091640D813009F443C080910D
:1040C0001B020E943C0FC093A3022FC00E94950FB9
:1040D0008823E1F0C093A30280E0CF91089580E0AF
:1040E000CF9108958091620D882339F18091190252
:1040F0000E943C0F0E94480F8091620D8093630DD7
:1041000081E08093A30280E0CF9108958091630DB8
:10411000811120C08091640D8130A1F080911B023B
:104120000E943C0F82E08093A30281E08093630DA4
:104130000E94480F80E0CF910895809118020E945C
:104140003C0FD8CF80911D020E943C0F83E08093EA
:10415000A302EBCF80911A020E943C0F1092630DD4
:104160000E94480F82E08093A30280E0B6CF809146
:104170001A020E943C0F1092630D0E94480FC093D8
:10418000A30280E0AACFCF93C091A202C13029F14F
:1041900080F1C23069F0C33049F50E94950F81115A
:1041A00020C01092640D1092A20281E0CF91089578
:1041B0000E94950F811115C08091630D813009F027
:1041C00054C08091640D813009F45CC0809120025C
:1041D0000E943C0FC093A2022FC00E94950F88231B
:1041E000E1F0C093A20280E0CF91089580E0CF91EA
:1041F00008958091620D882331F180911F020E9401
:104200003C0F0E94480F8091620D8093630D81E006
:104210008093A20280E0CF9108958091630D813058
:10422000B9F48091640D813069F1809120020E947F
:104230003C0F82E08093A2021092630D0E94480F0F
:1042400080E0CF91089580911E020E943C0FD9CF4B
:10425000809121020E943C0FC093630D0E94480F81
:1042600082E08093A20280E0BFCF809121020E9471
:104270003C0F81E08093630D0E94480FC093A2021F
:1042800080E0B2CF809122020E943C0F83E08093B5
:10429000A202D2CFCF93C091A302C13021F178F115
:1042A000C23069F0C33041F50E94950F81111FC0E3
:1042B0001092640D1092A30281E0CF9108950E94A4
:1042C000950F811114C08091630D81115DC08091A3
:1042D000640D813009F443C0809127020E943C0F95
:1042E000C093A3022FC00E94950F8823E1F0C093D2
:1042F000A30280E0CF91089580E0CF91089580914E
:10430000620D882339F1809125020E943C0F0E94A2
:10431000480F8091620D8093630D81E08093A3022A
:1043200080E0CF9108958091630D811120C080912C
:10433000640D8130A1F0809127020E943C0F82E041
:104340008093A30281E08093630D0E94480F80E078
:10435000CF910895809124020E943C0FD8CF809184
:1043600029020E943C0F83E08093A302EBCF80914F
:1043700026020E943C0F1092630D0E94480F82E0BB
:104380008093A30280E0B6CF809126020E943C0F6A
:104390001092630D0E94480FC093A30280E0AACF41
:1043A000CF93C091A202C13029F180F1C23069F0EF
:1043B000C33049F50E94950F811120C01092640D01
:1043C0001092A20281E0CF9108950E94950F811171
:1043D00015C08091630D813009F054C08091640D47
:1043E000813009F45CC080912C020E943C0FC09384
:1043F000A2022FC00E94950F8823E1F0C093A20271
:1044000080E0CF91089580E0CF9108958091620D72
:10441000882331F180912B020E943C0F0E94480FAB
:104420008091620D8093630D81E08093A20280E011
:10443000CF9108958091630D8130B9F48091640D1E
:10444000813069F180912C020E943C0F82E08093C0
:10445000A2021092630D0E94480F80E0CF91089550
:1044600080912A020E943C0FD9CF80912D020E9498
:104470003C0FC093630D0E94480F82E08093A2021C
:1044800080E0BFCF80912D020E943C0F81E080939D
:10449000630D0E94480FC093A20280E0B2CF8091CA
:1044A0002E020E943C0F83E08093A202D2CFCF93D2
:1044B000C091A302C13021F178F1C23069F0C3305C
:1044C00041F50E94950F81111FC01092640D10924A
:1044D000A30281E0CF9108950E94950F811114C02D
:1044E0008091630D81115DC08091640D813009F46C
:1044F00043C0809133020E943C0FC093A3022FC09F
:104500000E94950F8823E1F0C093A30280E0CF9131
:10451000089580E0CF9108958091620D882339F14C
:10452000809131020E943C0F0E94480F8091620DE1
:104530008093630D81E08093A30280E0CF91089582
:104540008091630D811120C08091640D8130A1F0B4
:10455000809133020E943C0F82E08093A30281E0AD
:104560008093630D0E94480F80E0CF910895809161
:1045700030020E943C0FD8CF809135020E943C0F40
:1045800083E08093A302EBCF809132020E943C0F24
:104590001092630D0E94480F82E08093A30280E096
:1045A000B6CF809132020E943C0F1092630D0E94A0
:1045B000480FC093A30280E0AACFCF93C091A2027C
:1045C000C13029F180F1C23069F0C33049F50E9451
:1045D000950F811120C01092640D1092A20281E00B
:1045E000CF9108950E94950F811115C08091630DA0
:1045F000813009F054C08091640D813009F45CC0B1
:10460000809138020E943C0FC093A2022FC00E94EA
:10461000950F8823E1F0C093A20280E0CF91089526
:1046200080E0CF9108958091620D882331F18091CF
:1046300037020E943C0F0E94480F8091620D8093C8
:10464000630D81E08093A20280E0CF910895809174
:10465000630D8130B9F48091640D813069F18091EE
:1046600038020E943C0F82E08093A2021092630DF8
:104670000E94480F80E0CF910895809136020E94F9
:104680003C0FD9CF809139020E943C0FC093630D3B
:104690000E94480F82E08093A20280E0BFCF809109
:1046A00039020E943C0F81E08093630D0E94480F05
:1046B000C093A20280E0B2CF80913A020E943C0FE8
:1046C00083E08093A202D2CFCF93C091A302C130E6
:1046D00021F178F1C23069F0C33041F50E94950FA5
:1046E00081111FC01092640D1092A30281E0CF913E
:1046F00008950E94950F811114C08091630D81115E
:104700005DC08091640D813009F443C080913F0207
:104710000E943C0FC093A3022FC00E94950F8823D4
:10472000E1F0C093A30280E0CF91089580E0CF91A3
:1047300008958091620D882339F180913D020E9495
:104740003C0F0E94480F8091620D8093630D81E0C1
:104750008093A30280E0CF9108958091630D811131
:1047600020C08091640D8130A1F080913F020E94B1
:104770003C0F82E08093A30281E08093630D0E944E
:10478000480F80E0CF91089580913C020E943C0F39
:10479000D8CF809141020E943C0F83E08093A30216
:1047A000EBCF80913E020E943C0F1092630D0E945D
:1047B000480F82E08093A30280E0B6CF80913E0252
:1047C0000E943C0F1092630D0E94480FC093A302F9
:1047D00080E0AACFCF93C091A202C13029F180F12D
:1047E000C23069F0C33049F50E94950F811120C095
:1047F0001092640D1092A20281E0CF9108950E9460
:10480000950F811115C08091630D813009F054C05E
:104810008091640D813009F45CC0809144020E9453
:104820003C0FC093A2022FC00E94950F8823E1F095
:10483000C093A20280E0CF91089580E0CF910895C7
:104840008091620D882331F1809143020E943C0FD8
:104850000E94480F8091620D8093630D81E08093E8
:10486000A20280E0CF9108958091630D8130B9F468
:104870008091640D813069F1809144020E943C0F67
:1048800082E08093A2021092630D0E94480F80E0A4
:10489000CF910895809142020E943C0FD9CF809120
:1048A00045020E943C0FC093630D0E94480F82E0B6
:1048B0008093A20280E0BFCF809145020E943C0F0E
:1048C00081E08093630D0E94480FC093A20280E0B4
:1048D000B2CF809146020E943C0F83E08093A202F7
:1048E000D2CFCF93C091A302C13021F178F1C23071
:1048F00069F0C33041F50E94950F81111FC01092DD
:10490000640D1092A30281E0CF9108950E94950F4B
:10491000811114C08091630D81115DC08091640D7F
:10492000813009F443C080914B020E943C0FC09338
:10493000A3022FC00E94950F8823E1F0C093A30229
:1049400080E0CF91089580E0CF9108958091620D2D
:10495000882339F1809149020E943C0F0E94480F40
:104960008091620D8093630D81E08093A30280E0CB
:10497000CF9108958091630D811120C08091640DC5
:104980008130A1F080914B020E943C0F82E0809325
:10499000A30281E08093630D0E94480F80E0CF91D5
:1049A0000895809148020E943C0FD8CF80914D021B
:1049B0000E943C0F83E08093A302EBCF80914A02D8
:1049C0000E943C0F1092630D0E94480F82E080937A
:1049D000A30280E0B6CF80914A020E943C0F109261
:1049E000630D0E94480FC093A30280E0AACFCF932B
:1049F000C091A202C13029F180F1C23069F0C33008
:104A000049F50E94950F811120C01092640D1092FB
:104A1000A20281E0CF9108950E94950F811115C0E7
:104A20008091630D813009F054C08091640D813014
:104A300009F45CC0809150020E943C0FC093A20216
:104A40002FC00E94950F8823E1F0C093A20280E05E
:104A5000CF91089580E0CF9108958091620D8823D1
:104A600031F180914F020E943C0F0E94480F8091CB
:104A7000620D8093630D81E08093A20280E0CF916C
:104A800008958091630D8130B9F48091640D813077
:104A900069F1809150020E943C0F82E08093A20253
:104AA0001092630D0E94480F80E0CF91089580918D
:104AB0004E020E943C0FD9CF809151020E943C0FC0
:104AC000C093630D0E94480F82E08093A20280E0B1
:104AD000BFCF809151020E943C0F81E08093630D13
:104AE0000E94480FC093A20280E0B2CF8091520290
:104AF0000E943C0F83E08093A202D2CFCF93DF933A
:104B0000C091A402C13071F1D8F1C23071F0C3304C
:104B100099F50E94950F811129C01092640D109291
:104B2000A40281E0DF91CF9108950E94950F811139
:104B30001DC0C091640D8091630DC13009F451C056
:104B4000882309F446C0809156020E943C0F1092BF
:104B5000630D0E94480F82E08093A40280E0DF9101
:104B6000CF9108950E94950F8823F9F0C093A40275
:104B700080E0DF91CF91089580E0DF91CF9108959B
:104B80008091620D882301F1809155020E943C0FB3
:104B90000E94480F8091620D8093630D81E08093A5
:104BA000A40280E0DF91CF910895D091640D8091AF
:104BB000630DD13029F18111C6CF809157020E9437
:104BC0003C0FC093630DC5CF809154020E943C0FEF
:104BD000DFCF809157020E943C0F81E08093630DEC
:104BE000B8CF811116C0809159020E943C0FC0932A
:104BF000630D0E94480F83E08093A40280E0B9CF48
:104C0000811107C0809159020E943C0FD093630D1F
:104C1000F0CF809158020E943C0F1092630DE9CFB3
:104C2000CF93DF93C091A402C13071F1D8F1C230AB
:104C300071F0C33099F50E94950F811129C010922F
:104C4000640D1092A40281E0DF91CF9108950E943B
:104C5000950F81111DC0C091640D8091630DC1300D
:104C600009F451C0882309F446C080915C020E9477
:104C70003C0F1092630D0E94480F82E08093A402C3
:104C800080E0DF91CF9108950E94950F8823F9F07D
:104C9000C093A40280E0DF91CF91089580E0DF917E
:104CA000CF9108958091620D882301F180915B027C
:104CB0000E943C0F0E94480F8091620D8093630D0B
:104CC00081E08093A40280E0DF91CF910895D0919C
:104CD000640D8091630DD13029F18111C6CF80918F
:104CE0005D020E943C0FC093630DC5CF80915A02B4
:104CF0000E943C0FDFCF80915D020E943C0F81E05B
:104D00008093630DB8CF811116C080915F020E941D
:104D10003C0FC093630D0E94480F83E08093A40270
:104D200080E0B9CF811107C080915F020E943C0FE3
:104D3000D093630DF0CF80915E020E943C0F1092E1
:104D4000630DE9CF0895089508950895089508958D
:104D5000089508951F93CF93DF931F921F92CDB7AD
:104D6000DEB7681B790B683F88EF78073CF5605F1A
:104D7000714F1091A102113059F1113008F4A1C006
:104D8000123009F45EC0133009F094C00E94950FF0
:104D9000811187C08091600D9091610D0196909373
:104DA000610D8093600D1092640D1092A10281E05C
:104DB0000F900F90DF91CF911F9108956930E7E038
:104DC0007E07BCF260517E401091A1021130A9F61D
:104DD00069837A830E94950F69817A81811161C00C
:104DE0008091600D9091610D01969093610D80937B
:104DF000600D8091640D813009F4B2C0CB018D59F2
:104E00009F4F873C910508F47BC08091630D6C39FE
:104E1000FFEF7F070CF08AC0882309F4C3C08130FC
:104E200009F4F9C091E09093A10281118BC081E057
:104E30008093630D80E00F900F90DF91CF911F91D1
:104E4000089569837A830E94950F69817A8181111F
:104E500028C08091600D9091610D01969093610D35
:104E60008093600D8091640D813009F488C0CB017E
:104E700077FDA0C0853691050CF46DC08091630D5F
:104E8000161617060CF04CC0811190C08CE60E94DB
:104E90003C0F0E94480F82E08093A1028091630D35
:104EA000C4CF1093A10280E00F900F90DF91CF91BB
:104EB0001F91089580E00F900F90DF91CF911F9187
:104EC00008958091620D8823B9F082E20E943C0F20
:104ED0000E94480F8091620D90E0019681709927A1
:104EE0008093630D81E08093A10280E00F900F908A
:104EF000DF91CF911F91089580E20E943C0FE8CF8F
:104F00008091630D882309F44DC086E20E943C0F16
:104F10000E94480F81E08093A1028091630D85CFAC
:104F200081115AC088E70E943C0FB3CF65367105E6
:104F30000CF468C0813049F3882309F458C081E03B
:104F40008093A1021092630D80E00F900F90DF918B
:104F5000CF911F91089581E08093A10280E0A4CFBA
:104F60008091630D81112BC088E20E943C0F0E944A
:104F7000480F83E08093A1028091630D56CF80910A
:104F8000630D16161706FCF4813051F18CE60E9471
:104F90003C0F1093A1020E94480F8091630D811174
:104FA000D1CF45CF84E20E943C0FB2CF8EE60E9463
:104FB0003C0F6FCF88279927861B970B5BCF8AE220
:104FC0000E943C0FD4CF811120C08CE70E943C0F7F
:104FD00083E08093A102DFCF8AE70E943C0F59CF84
:104FE00082E70E943C0F83E08093A102D4CF82E04D
:104FF0008093A1028CE60E943C0F0E94480F809192
:10500000630D13CF77FF98CF0ACF8AE70E943C0F3A
:105010001093A102C0CF8AE70E943C0F82E08093E8
:10502000A1020E94480F8091630DFFCE1F93CF9382
:10503000DF931F921F92CDB7DEB7681B790B683FD5
:1050400088EF78073CF5605F714F1091A002113036
:1050500059F1113008F49EC0123009F45DC01330CC
:1050600009F091C00E94950F811184C08091600D5C
:105070009091610D01979093610D8093600D109256
:10508000640D1092A00281E00F900F90DF91CF91FC
:105090001F9108956930E7E07E07BCF260517E40C1
:1050A0001091A0021130A9F669837A830E94950FAE
:1050B00069817A8181115EC08091600D9091610D4E
:1050C00001979093610D8093600D8091640D813004
:1050D00009F4B0C0CB018D599F4F873C910508F46E
:1050E00078C08091630D653671050CF488C0882303
:1050F00009F4C2C0813009F4E7C091E09093A002A6
:1051000081118AC081E08093630D80E00F900F9041
:10511000DF91CF911F91089569837A830E94950F43
:1051200069817A81811126C08091600D9091610D15
:1051300001979093610D8093600D8091640D813093
:1051400009F487C0CB0177FD9FC0853691050CF42B
:105150006CC08091630D77FD4CC0811191C080E9D6
:105160000E943C0F0E94480F82E08093A002809131
:10517000630DC6CF1093A00280E00F900F90DF91D7
:10518000CF911F91089580E00F900F90DF91CF9104
:105190001F9108958091620D8823B9F08EE20E94DC
:1051A0003C0F0E94480F8091620D90E00196817043
:1051B00099278093630D81E08093A00280E00F9097
:1051C0000F90DF91CF911F9108958CE20E943C0FC8
:1051D000E8CF8091630D882309F44EC082E30E94DA
:1051E0003C0F0E94480F81E08093A0028091630DE4
:1051F00087CF811160C084E80E943C0FB3CF6C3927
:10520000FFEF7F070CF05BC0813041F3882309F486
:105210006DC081E08093A0021092630D80E00F903A
:105220000F90DF91CF911F91089581E08093A002AC
:1052300080E0A3CF8091630D81112BC084E30E9495
:105240003C0F0E94480F83E08093A0028091630D81
:1052500057CF8091630D77FD26C081111EC084E970
:105260000E943C0F83E08093A0020E94480F80912F
:10527000630D8111D1CF46CF80E30E943C0FB1CFA7
:1052800082E90E943C0F6ECF88279927861B970BD7
:105290005CCF86E30E943C0FD4CF82E90E943C0F92
:1052A0001093A002E2CF8130D1F084E80E943C0F3D
:1052B0001093A002DACF86E80E943C0F53CF161657
:1052C00017060CF417CFA2CF82E90E943C0F82E0B0
:1052D0008093A0020E94480F8091630D11CF8AE84D
:1052E0000E943C0F83E08093A002BFCF82E08093B6
:1052F000A00284E80E943C0F0E94480F8091630D39
:10530000FFCECF93DF93D82FC0919F02C13019F108
:1053100080F0C23021F080E0DF91CF9108950E94AB
:10532000B10C811129C0C0939F0280E0DF91CF9121
:1053300008950E94950F81111BC0D13019F18CE1A5
:105340000E943C0F0E94480F81E080939F0280E002
:10535000DF91CF9108950E94950F8111E4CF82E0F3
:1053600080939F0288EE93E00E94850C80E0D4CF6A
:1053700010929F0280E0D0CF0E944C1910929F02A1
:1053800081E0CACF8BE10E943C0FDCCFCF93C82FC6
:1053900040919E0250E04830510530F080E0C1114C
:1053A00010929E02CF910895FA01EA59FE4F0C9493
:1053B00057470E94950F882309F456C086E08093D2
:1053C0009E0280E0ECCF0E94950F882309F448C02C
:1053D00087E080939E0280E0E2CF0E94950F8823B1
:1053E000A9F10E94910F81E080939E0280E0D7CFC7
:1053F0000E94950F882351F181E080939E0280E006
:10540000CECF0E94950F882309F456C082E0809386
:105410009E0280E0C4CF0E94B10C811143C083E0A2
:1054200080939E0280E0BBCF0E94950F882381F17C
:1054300084E080939E0280E0B2CF0E94950F882383
:10544000E9F085E080939E0280E0A9CF83EE0E9480
:105450003C0F0E94480F82E080939E0280E09FCF25
:1054600010929E0281E09BCF8FE10E943C0F0E9430
:10547000480F87E080939E0280E091CF82EE0E94E9
:105480003C0F0E94480F86E080939E0280E087CF09
:1054900081EE0E943C0F0E94480F85E080939E029F
:1054A00080E07DCF80EE0E943C0F0E94480F84E098
:1054B00080939E0280E073CF8CED95E00E94850C76
:1054C00083E080939E0280E06ACFCF93C0919D02DB
:1054D000C23009F441C068F0C430C1F098F1C53061
:1054E00019F50E94950F81110CC010929D0281E068
:1054F0000BC0CC23E1F0C130B9F40E94950F882392
:10550000C9F1C0939D0280E0CF9108950E94950F4C
:105510008111F7CF8FE10E943C0F0E94480F85E078
:1055200080939D0280E0F0CF80E0CF9108950E94AB
:10553000950F8823F9F00E94910F81E080939D02DE
:1055400080E0E2CF0E94950F8823F9F083E08093FA
:105550009D0280E0CF9108950E94950F8111D1CFD7
:1055600085EE0E943C0F0E94480F83E080939D02CD
:1055700080E0CACF84EE0E943C0F0E94480F82E078
:1055800080939D0280E0CF91089586EE0E943C0FAB
:105590000E94480F84E080939D0280E0B5CF1F9366
:1055A000CF93DF93EB01C81BD90BC83F88EFD80717
:1055B0009CF5C05FD14F10919C021230B9F11330AD
:1055C00008F04DC0112309F472C0113009F061C018
:1055D0000E94950F811184C08091640D813009F47F
:1055E0009FC0C953DF4FCF38D14008F488C08091A5
:1055F000630D813009F4A2C084E50E943C0F0E9433
:10560000480F10939C028091630D811185C081E049
:105610008093630D80E03EC0C93097E0D9075CF20B
:10562000C051DE4010919C02123049F60E94950F45
:10563000882309F460C010939C02D7FD21C08CE040
:1056400092E00E94AA1C811129C0C436D1050CF534
:1056500091E09093640DDF91CF911F9108951330E5
:1056600061F31430B1F40E94950F811139C010928A
:10567000640D10929C0281E0DF91CF911F910895FB
:1056800082E192E00E94361D811108C0CD39DF4FC2
:10569000FCF680E0DF91CF911F91089510929C025B
:1056A0001092640D80E0DF91CF911F910895809159
:1056B000620D81111CC080E50E943C0F0E94480FC2
:1056C0008091620D90E00196817099278093630D1F
:1056D00081E080939C0280E0DF91CF911F9108953B
:1056E00010939C0280E0DF91CF911F91089582E595
:1056F0000E943C0FE3CF83E080939C029ECF809179
:10570000630D811117C084E50E943C0F0E94480F71
:1057100081E080939C0277CF1092630D80E0BACF36
:105720008091630D813099F084E50E943C0F0E94C6
:10573000480F69CF86E50E943C0FE8CF8AE50E94BA
:105740003C0F0E94480F82E080939C025CCF8AE568
:105750000E943C0F84E080939C02E9CF1F93CF937B
:10576000DF93EB01C81BD90BC83F88EFD8079CF526
:10577000C05FD14F10919B021230B9F1133008F085
:105780004DC0112309F472C0113009F061C00E94AC
:10579000950F811184C08091640D813009F49FC000
:1057A000C953DF4FCF38D14008F488C08091630DD2
:1057B0008111A2C084E60E943C0F0E94480F82E043
:1057C00080939B028091630D811185C081E080935D
:1057D000630D80E03EC0C93097E0D9075CF2C0514C
:1057E000DE4010919B02123049F60E94950F8823EB
:1057F00009F460C010939B02D7FD21C08CE092E0B9
:105800000E94AA1C811129C0C436D1050CF591E073
:105810009093640DDF91CF911F910895133061F340
:105820001430B1F40E94950F811139C01092640DAB
:1058300010929B0281E0DF91CF911F91089582E148
:1058400092E00E94361D811108C0CD39DF4FFCF671
:1058500080E0DF91CF911F91089510929B021092EA
:10586000640D80E0DF91CF911F9108958091620DCA
:1058700081111CC08CE50E943C0F0E94480F809152
:10588000620D90E00196817099278093630D81E00D
:1058900080939B0280E0DF91CF911F910895109338
:1058A0009B0280E0DF91CF911F9108958EE50E94C9
:1058B0003C0FE3CF83E080939B029ECF8091630DEA
:1058C000811122C080E60E943C0F0E94480F81E0B7
:1058D00080939B0277CF1092630D80E0BACF8091C6
:1058E000630D811115C084E60E943C0F84E0809313
:1058F0009B020E94480F66CF82E60E943C0F0E94E6
:10590000480F10939B025ECF82E60E943C0FDDCFD2
:1059100082E60E943C0FEDCF1F93CF93DF93EC0103
:1059200080919A02823009F483C028F5882309F413
:1059300057C0813061F5C0919602D09197020E94C4
:10594000473A9E01281B390BC901883F38EF93075E
:105950000CF08FC0805F914F97FDBFC085369105D9
:105960000CF08FC084E080939A0210E0812FDF91C9
:10597000CF911F910895833081F0843041F41092CB
:105980009A0211E0812FDF91CF911F91089510E0CD
:10599000812FDF91CF911F91089582E192E00E94C3
:1059A000361D182F8111DECFC0919602D09197023B
:1059B0000E94473A9E01281B390B283F88EF380781
:1059C0000CF47EC0293087E0380714F020513E40A7
:1059D000243631050CF47AC083E080939A02C6CF56
:1059E0000E94473A90939902809398029E01220F59
:1059F000331FCC0FDD1FCC0FDD1FCC0FDD1F2C0F95
:105A00003D1F280F391F37FD65C021318EE0380753
:105A100014F020513E40309397022093960281E08B
:105A200080939A0210E0812FDF91CF911F9108950A
:105A30008CE092E00E94AA1C182F811193CFC09194
:105A40009602D09197020E94473A9E01281B390B7B
:105A5000283F88EF38078CF1293087E0380714F0A9
:105A600020513E402D393F4F8CF582E080939A02C1
:105A70007DCF893027E092070CF46ECF80519E4095
:105A80006BCFC0919602D09197020E94473A9E0137
:105A9000281B390BC901883F38EF9307A4F08930E0
:105AA00027E0920714F080519E4085369105CCF096
:105AB00083E080939A0210E059CF205F314FD2CF1C
:105AC000205F314F85CF805F914FEFCF81E0809392
:105AD000640D4CCF205F314F9ECF919581959109F8
