:100000000C94C6010C94E7010C94E7010C94E701F1
:100010000C94E7010C94E7010C94E7010C94E701C0
:100020000C94E7010C94E7010C94E7010C94E701B0
:100030000C94E7010C94E7010C94E7010C94E701A0
:100040000C94E7010C94E7010C94E7010C94E70190
:100050000C94E7010C94E7010C94E7010C94E70180
:100060000C94E7010C947D3D0C94E7010C943A3D0F
:100070000C94E7010C94E7010C94E7010C94E70160
:100080000C94E7010C94E7010C94E7010C94E70150
:100090000C94E5410C94E7010C9414420C94E70194
:1000A0000C94E7010C94E7010C94E7010C94E70130
:1000B0000C94E7010C94E7010C94E7010C94E70120
:1000C0000C94E7010C94E7010C94E7018003820390
:1000D0007F0384037F037F037F0386037F037F0304
:1000E0007F037F037F037F037F0388037F037F03F7
:1000F0007F037F037F037F037F037F037F037F03F0
:100100007F037F037F037F037F038A037F037F03D4
:100110007F037F037F037F037F037F037F037F03CF
:100120007F037F037F037F037F037F037F037F03BF
:100130007F037F037F037F037F037F037F037F03AF
:100140007F037F037F037F037F037E0398039A036C
:1001500097039C039703970397039E0397039703C3
:1001600097039703970397039703A00397039703B6
:1001700097039703970397039703970397039703AF
:1001800097039703970397039703A2039703970394
:10019000970397039703970397039703970397038F
:1001A000970397039703970397039703970397037F
:1001B000970397039703970397039703970397036F
:1001C000970397039703970397039603B303B80323
:1001D000B203BD03B203B203B203C203B203B2035C
:1001E000B203B203B203B203B203C703B203B20352
:1001F000B203B203B203B203B203B203B203B20357
:10020000B203B203B203B203B203CC03B203B2032C
:10021000B203B203B203B203B203B203B203B20336
:10022000B203B203B203B203B203B203B203B20326
:10023000B203B203B203B203B203B203B203B20316
:10024000B203B203B203B203B203AE03DD03DD03B4
:10025000D703DD03D703D703D703E603D703D703B9
:10026000D703D703D703D703D703EB03D703D703AA
:10027000D703D703D703D703D703D703D703D703AE
:10028000D703D703D703D703D703E003D703D70395
:10029000D703D703D703D703D703D703D703D7038E
:1002A000D703D703D703D703D703D703D703D7037E
:1002B000D703D703D703D703D703D703D703D7036E
:1002C000D703D703D703D703D703F303AF29BA293B
:1002D000C329CD29D629DF299B29A5296364696E05
:1002E0006F70737578585B000C949B290C949C413B
:1002F0000C94C2030C94A0030C9482030C94CD299B
:100300000C948A030C9484030C94B2030C94DD03C4
:100310000C94EF450C94C7030C94AE030C947A41F3
:100320000C94A5290C9480030C94BD030C94CC036D
:100330000C94B8030C94BA290C94D6290C949A0303
:100340000C949C030C9488030C947E030C94F3038C
:100350000C94D7030C94A2030C94AF290C9486033D
:100360000C9498030C949E030C94DF290C94E003E6
:100370000C94E6030C94B3030C94EB030C949603D7
:100380000C947F030C9497030C94C32911241FBE73
:10039000CFEFD1E2DEBFCDBF00E00CBF12E0A0E0A6
:1003A000B2E0E8E9F2EA00E00BBF02C007900D926C
:1003B000A437B107D9F71FE0A4E7B2E001C01D924E
:1003C000A33CB107E1F70E9448450C944A510C94B4
:1003D000000060E071EE80E090E00E9455420E94D3
:1003E000F3180E9411190E94CA1B84E690E00E9433
:1003F0002E0C0C94B21DCF93C0917402C130A1F0A9
:1004000028F0C230F9F0C33031F12DC081E00E94F4
:100410003404882331F08FE10E94070F0E94130FEC
:100420001FC0109274021FC00E94600F882319F031
:10043000C093740218C081E00E94070F0E94130F3E
:1004400082E00FC080E20E943404882349F00E94B9
:10045000BD1D83E006C080E10E943404882319F0AA
:1004600081E080937402CF9108950E943D030E9421
:10047000F6030E9406070E94D20A0C94FC0B6499B2
:1004800074C081E08093A3029091A602992309F49D
:10049000B5C01092A702659952C081E080939E0278
:1004A0009091A102992309F498C01092A202669932
:1004B00032C081E08093940290919702992309F4CD
:1004C0007BC0109298026799AAC081E080938F0246
:1004D00090919202992309F45EC010929302489978
:1004E00012C091E09093990280919C02811110C0FA
:1004F00080919D028F5F80939D0280919D02843147
:1005000009F4B4C0089580919C02813009F49DC023
:1005100010929D02089580919702813091F69091FA
:1005200098029F5F9093980290919802943159F6A7
:10053000809396021092970210929802C4CF8091F5
:10054000A102813009F0B1CF9091A2029F5F9093F8
:10055000A2029091A202943109F0A9CF8093A00247
:100560001092A1021092A202A2CF8091A602813025
:1005700009F08FCF9091A7029F5F9093A70290916F
:10058000A702943109F087CF8093A5021092A602AA
:100590001092A70280CF909193029F5F9093930255
:1005A00090919302943109F09ACF809390028093B6
:1005B00092021092930293CF909198029F5F909332
:1005C000980290919802943109F07DCF8093950222
:1005D000809397021092980276CF9091A2029F5F2B
:1005E0009093A2029091A202943109F060CF80937F
:1005F0009F028093A1021092A20259CF9091A7026C
:100600009F5F9093A7029091A702943109F043CF86
:100610008093A4028093A6021092A7023CCF8091FF
:100620009202813009F059CF909193029F5F90938D
:10063000930290919302943109F051CF80939102EB
:1006400010929202109293024ACF90919D029F5F66
:1006500090939D0290919D02943109F053CF809325
:100660009B0210929C0210929D02089590939A0210
:1006700090939C0210929D0208958FE787B98EE7B0
:1006800088B91092A3021092A4021092A5021092AF
:10069000A6021092A70210929E0210929F02109240
:1006A000A0021092A1021092A20210929402109243
:1006B0009502109296021092970210929802109250
:1006C0008F02109290021092910210929202109258
:1006D00093021092990210929A0210929B02109229
:1006E0009C0210929D02089590E0FC013197E03445
:1006F000F10528F4EA59FF4F0C94194746980895DC
:10070000409808954198089542980895439808950F
:10071000449808954598089590E0FC013197E0349D
:10072000F10528F4EA55FF4F0C941947469A0895AD
:10073000409A0895419A0895429A0895439A0895D7
:10074000449A0895459A089590E0FC013197E03469
:10075000F10540F4EA51FF4F0C94194788B190E439
:10076000892788B9089588B191E0892788B90895C3
:1007700088B192E0892788B9089588B194E08927E3
:1007800088B9089588B198E0892788B9089588B113
:1007900090E1892788B9089588B190E2892788B9BE
:1007A000089590E0FC013197E034F10510F080E00D
:1007B0000895EA5DFE4F0C94194786B180E00895D4
:1007C00086B1807290E095958795089586B183FBF8
:1007D000882780F9089586B1807190E09595879576
:1007E00095958795089586B1807408955098589A84
:1007F0008DB18F708DB98EB1806F8EB908958032B2
:1008000059F160F4813001F18031A1F48091A302AB
:10081000882381F01092A30281E00895803461F072
:10082000803841F480918F02882321F010928F024A
:1008300081E0089580E00895809194028823D1F3A7
:100840001092940281E0089580919902882391F397
:100850001092990281E0089580919E02882351F3BD
:1008600010929E0281E00895803259F160F4813047
:1008700001F18031A1F48091A402882381F01092CB
:10088000A40281E00895803461F0803841F48091C1
:100890009002882321F01092900281E0089580E078
:1008A0000895809195028823D1F31092950281E0FA
:1008B000089580919A02882391F310929A0281E020
:1008C000089580919F02882351F310929F0281E046
:1008D0000895803259F160F4813001F18031A1F442
:1008E0008091A502882381F01092A50281E00895ED
:1008F000803461F0803841F480919102882321F0A6
:100900001092910281E0089580E00895809196020E
:100910008823D1F31092960281E0089580919B0282
:10092000882391F310929B0281E008958091A002A8
:10093000882351F31092A00281E0089590917C00E9
:10094000987F90937C0020917C00982F9770922B39
:1009500090937C00882359F0815020E830E002C059
:10096000359527958A95E2F7209522B9089582B1A9
:100970008C6F82B90895CF92DF92EF92FF92CF935E
:10098000DF93CDB7DEB72E970FB6F894DEBF0FBE5C
:10099000CDBF8EE0E6E6F2E0DE01119601900D9209
:1009A0008A95E1F789819A819C01220F331F220FDA
:1009B000331F220F331F281B390B40E050E0C12C9E
:1009C000B4ECDB2EB9E0EB2EF12CC701B6010E948E
:1009D000A845215031092F3F310509F008F49BC08B
:1009E0008B819C819C01220F331F220F331F220F0A
:1009F000331F281B390B40E050E0C701B6010E94AD
:100A0000A845215031092F3F310509F008F48AC06B
:100A10008D819E819C01220F331F220F331F220FD5
:100A2000331F281B390B40E050E0C701B6010E947C
:100A3000A845215031092F3F310509F008F474C051
:100A40008F8198859C01220F331F220F331F220FA5
:100A5000331F281B390B40E050E0C701B6010E944C
:100A6000A845215031092F3F310509F008F45EC037
:100A700089859A859C01220F331F220F331F220F75
:100A8000331F281B390B40E050E0C701B6010E941C
:100A9000A845215031092F3F310509F008F448C01D
:100AA0008B859C859C01220F331F220F331F220F41
:100AB000331F281B390B40E050E0C701B6010E94EC
:100AC000A845215031092F3F3105A1F198F18D85BD
:100AD0009E859C01220F331F220F331F220F331FCD
:100AE000281B390B40E050E0C701B6010E94A84521
:100AF000215031092F3F3105F9F0F0F02E960FB655
:100B0000F894DEBF0FBECDBFDF91CF91FF90EF9085
:100B1000DF90CF90089580E02093B3008F5F8093A3
:100B2000B100ECCF81E0F8CF82E0F6CF83E0F4CFE4
:100B300084E0F2CF85E0F0CF86E0EECFEAE7F0E0A8
:100B4000808180648083089580917A00829581708D
:100B5000089587B3869581700895B99B089587B3EA
:100B6000876087BB1092B2009091980380917C00BF
:100B7000887F80937C0020917C00892F8770822B56
:100B800080937C00992309F420C12FEF290F80E87E
:100B900090E002C0959587952A95E2F7809582B9F5
:100BA00020E42A95F1F780917A00806480937A009E
:100BB00080917A0084FFFCCF80917A0080618093DD
:100BC0007A008091780090917900E0919803F0E0AC
:100BD000EE0FFF1FE756FC4F91838083E09198034F
:100BE0002091A90230E1E39FF0011124E20FF11DF1
:100BF000EE0FFF1FE854FD4F91838083E09198032F
:100C000080E2E89FF0011124E854FD4F808191813A
:100C1000E091980320E2E29FF0011124E854FD4F97
:100C200022813381820F931FE091980330E2E39F8A
:100C3000F0011124E854FD4F24813581820F931F68
:100C4000E091980320E2E29FF0011124E854FD4F67
:100C500026813781820F931FE091980330E2E39F52
:100C6000F0011124E854FD4F20853185820F931F38
:100C7000E091980320E2E29FF0011124E854FD4F37
:100C800022853385820F931FE091980330E2E39F22
:100C9000F0011124E854FD4F24853585820F931F00
:100CA000E091980320E2E29FF0011124E854FD4F07
:100CB00026853785820F931FE091980330E2E39FEA
:100CC000F0011124E854FD4F20893189820F931FD0
:100CD000E091980320E2E29FF0011124E854FD4FD7
:100CE00022893389820F931FE091980330E2E39FBA
:100CF000F0011124E854FD4F24893589820F931F98
:100D0000E091980320E2E29FF0011124E854FD4FA6
:100D100026893789820F931FE091980330E2E39F81
:100D2000F0011124E854FD4F208D318D820F931F67
:100D3000E091980320E2E29FF0011124E854FD4F76
:100D4000228D338D820F931FE091980330E2E39F51
:100D5000F0011124E854FD4F248D358D820F931F2F
:100D6000E091980320E2E29FF0011124E854FD4F46
:100D7000268D378D820F931F929582958F708927CC
:100D80009F708927E0919803F0E0EE0FFF1FE65572
:100D9000FD4F91838083209198032630D1F02091DC
:100DA0009803211107C02091A8022130E1F08E3A6A
:100DB000914008F18091980390E0019667E070E01F
:100DC0000E94944580939803089582B18C6F82B9F4
:100DD000E7CE2091A90230E02F5F3F4F2F703327DD
:100DE0002093A902DCCF863D914020F30E94820A25
:100DF0001092A802DFCF4EE150E06EE170E085E096
:100E00000E948F0A81E08093A802D4CFCF92DF9214
:100E1000EF92FF92CF93DF93CDB7DEB72E970FB649
:100E2000F894DEBF0FBECDBF87E880937A001092A2
:100E30007B0010927C0010927E0010927D008CEF5F
:100E400081B982B986E692E090939A0380939903E0
:100E50009093AB028093AA029093B9028093B80258
:100E60009093BB028093BA029093BD028093BC0220
:100E70009093BF028093BE029093C1028093C00200
:100E80009093C3028093C2029093C5028093C402E0
:100E90009093C7028093C6029093C9028093C802C0
:100EA0009093CB028093CA029093CD028093CC02A0
:100EB0009093CF028093CE029093D1028093D00280
:100EC0009093D3028093D2029093D5028093D40260
:100ED0009093D7028093D60290939C0380939B03B8
:100EE0009093AD028093AC029093D9028093D80284
:100EF0009093DB028093DA029093DD028093DC0210
:100F00009093DF028093DE029093E1028093E002EF
:100F10009093E3028093E2029093E5028093E402CF
:100F20009093E7028093E6029093E9028093E802AF
:100F30009093EB028093EA029093ED028093EC028F
:100F40009093EF028093EE029093F1028093F0026F
:100F50009093F3028093F2029093F5028093F4024F
:100F60009093F7028093F60290939E0380939D03E3
:100F70009093AF028093AE029093F9028093F802AF
:100F80009093FB028093FA029093FD028093FC02FF
:100F90009093FF028093FE029093010380930003DD
:100FA00090930303809302039093050380930403BB
:100FB000909307038093060390930903809308039B
:100FC00090930B0380930A0390930D0380930C037B
:100FD00090930F0380930E0390931103809310035B
:100FE000909313038093120390931503809314033B
:100FF00090931703809316039093A00380939F030D
:101000009093B1028093B0029093190380931803D8
:1010100090931B0380931A0390931D0380931C03EA
:1010200090931F0380931E039093210380932003CA
:1010300090932303809322039093250380932403AA
:10104000909327038093260390932903809328038A
:1010500090932B0380932A0390932D0380932C036A
:1010600090932F0380932E0390933103809330034A
:10107000909333038093320390933503809334032A
:1010800090933703809336039093A2038093A10338
:101090009093B3028093B202909339038093380304
:1010A00090933B0380933A0390933D0380933C03DA
:1010B00090933F0380933E039093410380934003BA
:1010C000909343038093420390934503809344039A
:1010D000909347038093460390934903809348037A
:1010E00090934B0380934A0390934D0380934C035A
:1010F00090934F0380934E0390935103809350033A
:101100009093530380935203909355038093540319
:1011100090935703809356039093A4038093A30363
:101120009093B5028093B40290935903809358032F
:1011300090935B0380935A0390935D0380935C03C9
:1011400090935F0380935E039093610380936003A9
:101150009093630380936203909365038093640389
:101160009093670380936603909369038093680369
:1011700090936B0380936A0390936D0380936C0349
:1011800090936F0380936E03909371038093700329
:101190009093730380937203909375038093740309
:1011A00090937703809376039093A6038093A5038F
:1011B0009093B7028093B60290937903809378035B
:1011C00090937B0380937A0390937D0380937C03B9
:1011D00090937F0380937E03909381038093800399
:1011E0009093830380938203909385038093840379
:1011F0009093870380938603909389038093880359
:1012000090938B0380938A0390938D0380938C0338
:1012100090938F0380938E03909391038093900318
:1012200090939303809392039093950380939403F8
:101230009093970380939603109298031092A902BB
:101240001092A80282E08093B0001092B200109237
:10125000700087E087BB8EE0E6E6F2E0DE011196E3
:1012600001900D928A95E1F789819A819C01220F64
:10127000331F220F331F220F331F281B390B40E06F
:1012800050E0C12C64ECD62E69E0E62EF12CC701AB
:10129000B6010E94A845215031092F3F310509F0C0
:1012A00008F49BC08B819C819C01220F331F220F6D
:1012B000331F220F331F281B390B40E050E0C701BA
:1012C000B6010E94A845215031092F3F310509F090
:1012D00008F48AC08D819E819C01220F331F220F4A
:1012E000331F220F331F281B390B40E050E0C7018A
:1012F000B6010E94A845215031092F3F310509F060
:1013000008F474C08F8198859C01220F331F220F2F
:10131000331F220F331F281B390B40E050E0C70159
:10132000B6010E94A845215031092F3F310509F02F
:1013300008F464C089859A859C01220F331F220F0F
:10134000331F220F331F281B390B40E050E0C70129
:10135000B6010E94A845215031092F3F310509F0FF
:1013600008F44AC08B859C859C01220F331F220FF5
:10137000331F220F331F281B390B40E050E0C701F9
:10138000B6010E94A845215031092F3F310591F146
:1013900088F18D859E859C01220F331F220F331FFC
:1013A000220F331F281B390B40E050E0C701B60164
:1013B0000E94A845215031092F3F3105C9F0C0F0E6
:1013C0002E960FB6F894DEBF0FBECDBFDF91CF9142
:1013D000FF90EF90DF90CF90089580E02093B300CE
:1013E0008F5F8093B100ECCF81E0F8CF82E0F6CF41
:1013F00086E0F4CF85E0F2CF84E0F0CF83E0EECF5B
:10140000E82FF0E0EE0FFF1FE756FC4F808191813F
:101410000895E82FF0E0EE0FFF1FE655FD4F8081A5
:1014200091810895C19B11C0C19A109295001092AC
:10143000940080917902811109C08091AE038130BE
:1014400081F08091A703813061F008958091AE030F
:10145000813019F18091A7038130F9F0109279025F
:10146000089581E0809379028091A8039091A90367
:10147000019790937802809377022091AA0330918C
:10148000AB033093760220937502892BF1F680919D
:1014900080008F73809380000895809177029091EF
:1014A0007802009741F00197909378028093770239
:1014B000892B59F6ECCF80917502909176020097B6
:1014C00031F0019790937602809375020895809190
:1014D00080008F7B80938000809180008068809363
:1014E00080008091A8039091A90390937802809343
:1014F00077028091AA039091AB0390937602809338
:10150000750208958091A703813009F008958091B4
:1015100080008F73809380001092A70308959091AC
:10152000A703992359F19130A9F11092870090E017
:10153000FC01E155FC4F2081209386001092890028
:1015400020812695209388007093A9036093A803B7
:101550005093AB034093AA039093AD038093AC03E5
:10156000809180008F7B80938000809180008068D4
:101570008093800081E08093A70308959091AE034B
:10158000913099F6909180009F7390938000109213
:10159000AE03CBCF909180009F7390938000109208
:1015A000A703C3CF259A2D9810926F009FE296BB98
:1015B0001092850010928400E0E8F0E010828081B3
:1015C0008E7F8083808182608083E1E8F0E01082FA
:1015D000808188608083808180618083109289000F
:1015E000109288008081887F8083808185608083DD
:1015F0001092710098BB1092950010929400E0E94F
:10160000F0E0108280818E7F808380818D7F808357
:10161000E1E9F0E0108280818860808380818F7EA4
:10162000808398E1909399008AE680939800808166
:10163000887F80838081846080838DE18093AF0385
:101640008AE18093B0039093B10386E18093B20363
:1016500084E18093B30382E18093B40380E18093BB
:10166000B5031092AE031092A70381E090E090932F
:10167000A9038093A8039093AB038093AA031092CD
:10168000AD031092AC0308959091A70391112CC063
:101690009091AE03911128C01092870090E0FC0158
:1016A000E155FC4F20812093860010928900208113
:1016B0002695209388009093AD038093AC0370939C
:1016C000A9036093A8035093AB034093AA038091AE
:1016D00080008F7B80938000809180008068809361
:1016E000800081E08093AE0308959091A70391114B
:1016F00004C09091AE03913009F0089510928700D4
:1017000090E0FC01E155FC4F20812093860010926F
:10171000890020812695209388009093AD038093C3
:10172000AC0308952091A703211104C02091AE03BA
:10173000213009F008959093A9038093A803089598
:101740002091A703211104C02091AE03213009F09C
:1017500008959093AB038093AA0308958091A70303
:10176000811104C08091AE03813009F00895809109
:1017700080008F73809380001092AE030895809153
:10178000AE0308958091A7030895D19B19C0D19A03
:1017900010922501109224014091BC0380917A029D
:1017A00090917B02413069F02091B6033091B703EC
:1017B00082179307C9F0019690937B0280937A0277
:1017C00008952091B9033091BA038217930799F7CE
:1017D00010927B0210927A024093B803809121010B
:1017E000887F80932101089510927B0210927A02E3
:1017F00081E08093BB030895109273008FE28ABB4F
:101800001092250110922401E0E2F1E01082808123
:101810008E7F808380818D7F8083E1E2F1E0108282
:1018200080818860808380818F7E808388E180933F
:1018300029018AE6809328018081887F8083109225
:10184000BC031092BA031092B9031092B70310921E
:10185000B6031092B8031092BB0308951092BC0314
:101860009C013695279536952795ABE7B4E10E9404
:101870007345969587959093B7038093B60310921E
:10188000BB0310922501109224018FE28ABBE1E292
:10189000F1E08081887F80838081846080830895E7
:1018A00021E02093BC039C0136952795369527951A
:1018B000ABE7B4E10E947345969587959093BA0380
:1018C0008093B9031092B80310922501109224015D
:1018D0008FE28ABBE1E2F1E08081887F80838081B2
:1018E0008460808308958091BB03813011F080E093
:1018F00008951092BB0308958091B803813011F0D0
:1019000080E008951092B8030895E1E2F1E080814B
:10191000887F8083D19A1092250110922401109221
:10192000BB031092B8030895109272008FE289BB36
:101930001092A5001092A400E0EAF0E010828081ED
:101940008E7F808380818D7F8083E1EAF0E010824A
:1019500080818860808380818F7E80838DE3809307
:10196000A90088E08093A8008081887F808380819F
:10197000826080830895C99B07C0C99A1092A50010
:101980001092A40081E0089580E00895CF92DF9244
:10199000EF92FF920F931F93CF93DF931F921F92AB
:1019A000CDB7DEB7CE0101960E94ED18EDEAF4E066
:1019B000C980DA80F12C61E070E0B5E0EB2E1DC04B
:1019C0009C0122543C4FD901EC929C0121543C4F84
:1019D000D901EC929A01220F331F225C3B4F8254B3
:1019E0009C4FD9018D939C93F3947096B2E0CB0EEB
:1019F000D11C86E0ED3AF807C9F180818823A9F36C
:101A0000D6012D913C91CF010797DC018D919C91DE
:101A1000280F391F4F2D50E0CA01880F991F880FDA
:101A2000991F8C0100541C4FD8012C938C010F532B
:101A30001C4FD8013C939F0121503109D9012C91B1
:101A4000222309F4BDCF2F70DB0102C0AA0FBB1FF8
:101A50002A95E2F79D018C0102541C4FD8012C936A
:101A60008C0101541C4FD8012C93B4CFFF2061F09E
:101A70000EE314E024E030E04CE150E06EE774E067
:101A80008091BD030E948C400F900F90DF91CF9109
:101A90001F910F91FF90EF90DF90CF90089590E10C
:101AA000899FF0011124E256FB4F6687089590E16B
:101AB000899FF0011124E256FB4F8685089590E13D
:101AC000899FF0011124E256FB4F718760870895CA
:101AD00090E1899FF0011124E256FB4F80859185AA
:101AE000089590E1899FF0011124E256FB4F87850C
:101AF000089590E1899FF0011124E256FB4F828501
:101B0000089590E1899FF0011124E256FB4F8485EE
:101B10000895C99B15C0C99A1092A5001092A400FF
:101B20000E945F3681110DC00E94630F0E942F1822
:101B30000E94A7300E945F36811106C00C94C60C2B
:101B400008950E94DC35F0CF0E94E635F7CF2F9242
:101B50003F924F925F926F927F928F929F92AF923D
:101B6000BF92CF92DF92EF92FF920F931F93CF938A
:101B7000DF9300D0CDB7DEB7782E19820E94593E90
:101B8000882309F433C12FEF89E698E12150804082
:101B90009040E1F700C000002981222331F1EEE9F5
:101BA000F4E06DEA74E02150A0E12A9F9001112435
:101BB00022553B4F45E0118210821382128215821A
:101BC00014821782168211861086DB011C92CB01CB
:101BD0000197DC014C931386128615861486709645
:101BE000605F7F4FE217F30731F76EE774E0CE01D5
:101BF00001960E94AE3E1092BD038981882309F4AC
:101C000066C0312C1CE2A12EBB24B394CC24CA9410
:101C100003E0D02EE12C82E0F82E5524539495E079
:101C2000692E22E0422E09C081159C4009F4A2C011
:101C300033948981381608F048C0E32DF0E0E2586B
:101C4000FB4F2080822D0E94B53C8C30910521F005
:101C50008C32B1E09B0741F7822D0E949333E0E183
:101C60002E9E40011124840102561B4FD80111966B
:101C7000BC92AE921396DC92CE92129715961C925D
:101C80001E9214971796FC92EE921697822D0E9440
:101C9000F034F80191878087A40146555B4FB40169
:101CA00068557B4F822D0E941732D8011F965C9297
:101CB0001F971E966C928091BD038F5F8093BD032A
:101CC00033948981381608F4B8CF8091BD03781613
:101CD00009F489C044E650E06AE070E084E00E94C4
:101CE0008F0A109272008FE289BB1092A5001092A9
:101CF000A4001092A0008091A0008E7F8093A0008D
:101D00008091A0008D7F8093A0001092A10080910F
:101D1000A10088608093A1008091A1008F7E8093B4
:101D2000A1008DE38093A90088E08093A8008091B2
:101D3000A100887F8093A1008091A10082608093A0
:101D4000A1000E94F90E89810F900F900F90DF91F2
:101D5000CF911F910F91FF90EF90DF90CF90BF90A8
:101D6000AF909F908F907F906F905F904F903F903B
:101D70002F900895822D0E949333E0E12E9EB001B2
:101D800011248B0102561B4FE4EBF0E0D8011196B1
:101D9000FC93EE931396DC92CE92129715961C92BA
:101DA0001E9214971796FC92EE921697822D6A83D4
:101DB0007B830E94F034D80119969C938E931897D8
:101DC0006A817B81AB0146555B4F68557B4F822D05
:101DD0000E941732F801478666868091BD038F5FA7
:101DE0008093BD0325CF0E94820A7BCF0E94233EB1
:101DF000CACE10921A0C10925C0B8FEF80935C0C81
:101E000080935B098093190C10925B0C0895CF931B
:101E1000C82F6CE579E00E94E917811102C0C093D8
:101E20005B09CF91089510921A0C10929C0B10929E
:101E30009B0B10925A091092590910925A0C109249
:101E4000590C83E08093FC0C1092190C80916B0963
:101E50008093580910925C0CEDEAF4E080E090E089
:101E600006C07096029626E0ED3AF20709F120814D
:101E70002130B9F7DF0117972D913C91DC01A55E68
:101E8000B34F2D933C93DC01A254B34F1D921C928F
:101E9000DC01A552B44F1D921C92DC01A256B94F31
:101EA0001D921C927096029626E0ED3AF207F9F622
:101EB00081E080935B0C089581E080935C0B089532
:101EC00080915B0C08952F923F924F925F926F9298
:101ED0007F928F929F92AF92BF92CF92DF92EF92BA
:101EE000FF920F931F93CF93DF93CDB7DEB7A397E6
:101EF0000FB6F894DEBF0FBECDBF80915B0C882378
:101F000009F49AC080919B0B90919C0B40915909C8
:101F100050915A098417950708F0A7C08C010F5FEC
:101F20001F4F1A87098710939C0B00939B0B1091EE
:101F3000FC0C1D87133009F47FC0809159099091E2
:101F40005A098C0120E030E0098B1A8B2B8B3C8BDB
:101F50008C01015011091E8B0D8B0EE71CE076EAF7
:101F6000A72E74E0B72EECEDCE2EE6E0DE2EFEEBD3
:101F7000EF2EFCE0FF2EAEE94A2EA6E05A2EBDE57C
:101F80006B2EBBE07B2E812C912C80E090E0212CED
:101F9000312C9BA38AA3C201230194014801A6010D
:101FA00067017A0189013C0121C0BFEF2B1A3B0A6E
:101FB000EAA1FBA17096FBA3EAA3F2E08F0E911CAD
:101FC0000E5F1F4F20E1A20EB11C32E0E30EF11CA8
:101FD00042E0C40ED11C52E0650E711C62E0460E58
:101FE000511C8AA19BA18115924031F12AA13BA1EC
:101FF00022563B4F3A832983D9011F968C91813019
:10200000A1F6F801E552F44F80819181892B09F006
:102010006FC0F40180819181D5018D939C93F10172
:10202000E45AF64F80A1A981BA811E968C93BDCF48
:1020300010925B0C10925C0BA3960FB6F894DEBF67
:102040000FBECDBFDF91CF911F910F91FF90EF9009
:10205000DF90CF90BF90AF909F908F907F906F90C8
:102060005F904F903F902F90089510929C0B10928C
:102070009B0BEDEAF4E080E090E006C070960296DB
:1020800006E0ED3AF007E1F020812130B9F7DF01F9
:1020900017972D913C91DC01A258B34F2D933C939F
:1020A000DC01A256B94F2D913C91DC01A254B34FF3
:1020B0002D933C937096029606E0ED3AF00721F7D7
:1020C0008091FC0C882309F4C7C0813009F492C1C7
:1020D000823009F45BC1833009F42CC25E874D87DE
:1020E00080E090E0DA018A179B0708F0A5CF16CFB1
:1020F000BD85B1114AC0F6010190F081E02DF88B49
:10210000EF87F701A081B1812F853889A21BB30B1E
:1021100029853A850E94824529893A894B895C89BB
:102120000E94CA458F859889820F931FD3018D9392
:102130009C93D901B595A795EF85F889AE0FBF1F80
:1021400029853A850E9482459B01AC01A0E9B0E057
:102150000E9489452FE030E040E050E00E94CA45EF
:1021600069E055954795379527956A95D1F7F80118
:10217000E65EF64F31832083D4018D919C91820FCE
:10218000931FF501918380834ACFB13009F448C091
:1021900029853A854D895E892417350709F421C1BF
:1021A000F101E35AF34F808181113AC0F6010190A9
:1021B000F081E02DF88BEF87DF01B195A195B10992
:1021C00029853A850E94824529893A894B895C890B
:1021D0000E94CA458F859889820F931FD3018D93E2
:1021E0009C93D901B595A795EF85F889AE0FBF1FD0
:1021F00029853A850E9482459B01AC01A0E9B0E0A7
:102200000E9489452FE030E040E050E00E94CA453E
:1022100099E055954795379527959A95D1F7ACCF85
:10222000F201A081B18129853A850E9482452989E0
:102230003A894B895C890E94CA45D4018D919C9151
:10224000820F931FF50191838083D7018D919C911B
:10225000F30191838083E3CE81E08093FC0C209195
:10226000BC0C3091BD0C00917C0C10917D0C1A833C
:102270000983C801880F991F8901081B190B1E8744
:102280000D8710935A090093590909811A81201763
:10229000310709F4E5C0A801BBED2B2EBBE03B2EB6
:1022A0001AE1612E19E0712E0CED802E06E0902EC1
:1022B0008DE5482E8BE0582E0DE51CE06DEA74E0AC
:1022C000C901841B950B9C0140E050E029873A87A7
:1022D0004B875C8795E0C92ED12CE12CF12C788BB3
:1022E0006F8719C0EF85F8897096F88BEF87F2E059
:1022F0002F0E311C22E0620E711C32E0830E911C05
:1023000042E0440E511C0F5F1F4F6F8578896D5A54
:10231000764009F44BC0AF85B8898C91813011F7B4
:10232000F8018081813009F446C0F401A081B181B7
:10233000F101A080B180F30180819181A81AB90ACE
:1023400029813A810E9482459B01AC01660F771F6B
:10235000881F991F620F731F841F951F660F771FB9
:10236000881F991F660F771F881F991FA701960165
:102370000E94CA45BB2757FDBA95A52F942F832FDE
:10238000A81AB90AD201AD92BC92ACCF8091590C77
:1023900090915A0C009709F4E1C023E02093FC0CC3
:1023A00090935A09809359099E878D8780E090E029
:1023B000AD85BE8598CEF101A081B181F301808108
:1023C0009181A81BB90B2D853E850E9482452985E8
:1023D0003A854B855C850E94CA45D2012D933C937A
:1023E00081CFF801E55EF34F80819181D5018D9316
:1023F0009C9315CE82E08093FC0C70917C0C6091D4
:102400007D0C7093590960935A09ADE5BBE0EDEA84
:10241000F4E080E090E08D0109C0709602960E5FB6
:102420001F4FB6E0ED3AFB0709F47DC02081213053
:10243000A1F79C012552344FD9012D913C91D8012F
:102440004D915C91241B350BAC01465E564FDA0171
:102450004D915C91241B350BD8012D933C93DDCF1E
:10246000BDE5CB2EBBE0DB2E1DE5E12E1CE0F12E01
:102470008DEA94E000E010E045E0442E512C612C00
:10248000712C49011C0111C0F0E12F0E311C22E01A
:10249000C20ED11C0E5F1F4F3FEFE31AF30A4DEA45
:1024A000241646E0340609F481CFD1018C918130A5
:1024B00059F7F70180818130C9F1F801E452F94FF1
:1024C000A081B181F801E552F44FA080B180F801FC
:1024D000E65EF64F80819181A81AB90A94010E94A4
:1024E00082459B01AC01660F771F881F991F620F01
:1024F000731F841F951F660F771F881F991F660F14
:10250000771F881F991FA30192010E94CA45BB270C
:1025100057FDBA95A52F942F832FA81AB90AF60153
:10252000B182A082B1CF7D876E8740CFD6011D9248
:102530001C92AACF1092FC0CAEEBBCE0EDEAF4E0EA
:1025400006C07096129606E0ED3AF00749F08081D9
:102550008130B9F711961C921E92F3CF1092FC0CA9
:1025600080911A0C813009F463CD8091190C8F5F32
:102570008093190CA0917009A81708F0C8C080E0DA
:1025800092E0EAE1F7E0ACE5B9E001900D92019745
:10259000E1F780915C0C90915B09981721F0909184
:1025A0006B099093580991E09093190C80935B0903
:1025B000A0917009B1E0AB1709F484C26B2F70E0F1
:1025C0008B01015011090024169507950794169563
:1025D00007950794102F002DA801445A564FFA0171
:1025E000E258FF4F808120917209289FC001112479
:1025F00096958795929582958F7089279F708927E8
:1026000090935A0C8093590CFA01E158FF4F308196
:10261000329F9001112436952795329522952F707F
:1026200023273F7023272115310511F421E030E0E5
:1026300040911A0C413009F45EC2892B09F4C4C1DF
:10264000AB1709F456C3EDE54E2EECE05E2EABE180
:10265000BCE07B010024F694E7940794F694E79499
:102660000794FE2CE02CA7014456564F7A0180ECCB
:10267000582F56034001579F900C1124EDEAF4E0C7
:1026800080E090E059013D01A70168010EC07096FD
:10269000BFEF4B1A5B0A029602E0600E711C4E5FA0
:1026A0005F4F16E0ED3AF107A1F12081213079F773
:1026B0009C01265E364FD9011D921C929A01280D6D
:1026C000391D2C0D3D1DD9012D913C9136FF18C0AF
:1026D000D3012D913C91B901E12CF12C8C010258D0
:1026E000134FD8016D937C93D3012D933C939C01A0
:1026F0002552344FD901ED92FC92D2011C92C7CFE2
:10270000D3016D917C917901E61AF70AE7CFB82FD2
:1027100052CF95013093BD0C2093BC0C809174096D
:1027200090E0AC01440F551F4217530708F4E0C076
:10273000C90101979695879590937D0C80937C0CA9
:10274000009709F0D9C01092BD0C1092BC0C1E86E7
:102750001D8619821A821B821C821D821E821F8284
:10276000188661E06F87412C512C198A1D8A1F8AB7
:10277000188E198E71E07A8F1B8E1C8E1D8E1E8E08
:102780001F8E18A219A27CED872E76E0972EEDE51C
:102790006E2EECE07E2E0DEA14E0212C312C1BA3D2
:1027A0000AA315C00AA11BA1005F1F4F1BA30AA308
:1027B00012E0810E911C22E0220E311C3FEF631AC1
:1027C000730A4AA15BA14D5A564009F484C0AAA1DC
:1027D000BBA18C91813031F7F101E254F34F31818B
:1027E0002081932F990F990BA980BA80CB80DC8030
:1027F000ED80FE800F811885492F592F692F792F81
:10280000892F0E94204659016A017B018C01F10148
:10281000E552F44FA081B18120E03AE00E94824568
:102820002CE030E040E050E00E94CA45DA01C901E6
:10283000550F220B322FA90129873A874B875C87D6
:10284000F3012081211122C09C01AD016985762F01
:10285000862F962F0E944147AA8CBB8CCC8CDD8C96
:10286000EE8CFF8C08A119A10E94E345D4012C93A2
:1028700011963C93822F932F8115F4E09F070CF162
:10288000EFEFF3E0D401ED93FC938CCF9C01AD010D
:102890006985762F862F962F0E944147AF84B42CEE
:1028A000C52CD988ED88FF88088D198D0E94E345D5
:1028B000F40120833183822F932F8115F4E09F0749
:1028C000FCF681309C4F0CF06DCFE1E0FCEFD401C1
:1028D000ED93FC9367CF8D859E8590935A098093E5
:1028E000590980919B0B90919C0BAD85BE85FBCBCC
:1028F00090937D0C80937C0C4901A12CB12C880C09
:10290000991CAA1CBB1CC12CD12C76019E878D87DB
:10291000A0E0B0E0880F991FAA1FBB1F8C019D018A
:1029200040E050E0BA0189831A832B833C834D83B6
:102930005E836F8378879401A501B601C7015801B2
:10294000CB80DC80E12CF12C00E010E00E944147BC
:1029500001E00E941F47722E832E942EB52F662E03
:10296000372EF82FE92F00E00E9438472F87432E9B
:10297000542E598B6D8B7F8B888F998F7A8E8B8E8F
:102980009C8EBD8F6E8E3F8EF8A3E9A3452DA0E0EF
:102990000E944A4749F411E01F87412C512C198AA3
:1029A0001D8A1F8A188E198E272D382D492D5B2FD1
:1029B000662D732D8F2F9E2FA0E00E944A4709F0AD
:1029C000E2CE21E02A8FD8CEAB1709F42AC1ADE5BB
:1029D000EA2EACE0FA2EBBE14B2EBCE05B2EDB0115
:1029E0000024B695A7950794B695A7950794BA2F96
:1029F000A02DA456B64F80EC482F46034001479FB8
:102A0000900C1124EDEAF4E080E090E077247394D8
:102A10005901A7011D0168010FC070964F5F5F4FFC
:102A20000296B2E04B0E511C02E0200E311C16E063
:102A3000ED3AF10709F46DCE2081213071F79C0148
:102A4000265E364FD9011D921C929101280D391D29
:102A50002C0D3D1DD9012D913C9136FF2CC0D2018A
:102A60002D913C91B901E12CF12C8C010258134FAE
:102A7000D8016D937C93D2012D933C938C01055228
:102A8000144FD801ED92FC92D1010D911C9116FDCD
:102A90000FC06217730730F42017310718F4DA01FA
:102AA0007C92BBCF2617370718F402171307B8F329
:102AB000DA011C92B2CFD2016D917C917901E61AB4
:102AC000F70AD3CF80915C0B813009F4A0C08091CC
:102AD0005809815080935809882309F493C0809144
:102AE0005B0980935C0C811169C081E080931A0CB2
:102AF000B091190C63CD892B09F046C1AB1709F4CD
:102B0000F5C14DE5442E4CE0542EABE1BCE07B0119
:102B10000024F694E7940794F694E7940794FE2C27
:102B2000E02CA7014456564F7A0180EC582F5603EB
:102B30004001579F900C1124EDEAF4E080E090E012
:102B400059013D01A7010FC07096BFEF4B1A5B0AF8
:102B5000029622E0620E711C4E5F5F4F36E0ED3A46
:102B6000F30709F4D6CD2081213071F79C01265E50
:102B7000364FD9011D921C929A01280D391D200F44
:102B8000311FD9012D913C91D30136FF35C02D91D4
:102B90003C917901C12CD12CBC016258734FDB01EF
:102BA000ED92FC92D3012D933C939C012552344F1E
:102BB000D901CD92DC92D2011C92C6CF90915B09D3
:102BC00098132AC080E092E0ECE5F9E0AAE1B7E0D2
:102BD00001900D920197E1F780912907882321F058
:102BE00080912E07811103C081E080931A0CB0916F
:102BF000190CA0917009E2CCED90FC906901CE18FF
:102C0000DF08CACF8091750980935C0C6CCF8091EE
:102C1000760980935C0C67CF6AE177E00E94E91740
:102C2000DBCF4DE55CE0ABE1BCE0045A164FEDEACA
:102C3000F4E080E090E0BB24B39469013A014D01D7
:102C40000DC07096BFEF6B1A7B0A029622E0820ECF
:102C5000911C36E0ED3AF30709F449C04081413058
:102C600081F7AC01465E564FDA011D921C92A80115
:102C7000480F591F405C5F4FDA014D915C9156FF40
:102C80002FC0D4014D915C91BA01E12CF12C9C0133
:102C90002258334FD9016D937C93D4014D935C93AB
:102CA0009C012552344FD901ED92FC929C01265A89
:102CB000384FD901ED90FC90F6FC0FC064177507F2
:102CC00030F44E155F0518F4D301BC92BACF461705
:102CD000570718F4E416F506B8F3D3011C92B1CFE8
:102CE000D4016D917C917A01E61AF70AD0CF960152
:102CF00011CD4DE55CE0ABE1BCE0045A164FEDEAC6
:102D0000F4E080E090E04A0169015D010CC070963A
:102D1000BFEF8B1A9B0A029622E0A20EB11C36E08E
:102D2000ED3AF30721F34081413089F7AC01465E6B
:102D3000564FDA011D921C92A801480F591F405CA2
:102D40005F4FDA014D915C91D50156FF17C04D914F
:102D50005C91BA01E12CF12C9C012258334FD9012E
:102D60006D937C93D5014D935C93AC014552544FC8
:102D7000DA01ED92FC92D4011C92C9CF6D917C9145
:102D80007A01E61AF70AE8CFAB1709F465C08DE5BA
:102D9000482E8CE0582EABE1BCE07B010024F69479
:102DA000E7940794F694E7940794FE2CE02CC7016F
:102DB0008456964F7C0180EC482F46034001479F84
:102DC000900C1124EDEAF4E080E090E059013D011F
:102DD000A70178010FC07096BFEF4B1A5B0A0296ED
:102DE00002E0600E711C4E5F5F4F16E0ED3AF10796
:102DF00009F48FCC2081213071F79C01265E364F7B
:102E0000D9011D921C929A01280D391D2E0D3F1DCE
:102E1000D9012D913C9136FF18C0D3012D913C91E1
:102E2000B901C12CD12C8C010258134FD8016D93DC
:102E30007C93D3012D933C939C012552344FD901AF
:102E4000CD92DC92D2011C92C6CFD3016D917C91C0
:102E50006901C61AD70AE7CFABE1BCE04DE55CE0FB
:102E6000045A164FEDEAF4E080E090E05D014A017B
:102E70000DC070960296B2E0AB0EB11C4FEF841AF3
:102E8000940A56E0ED3AF50709F444CC408141300C
:102E900081F7AC01465E564FDA011D921C92A801E3
:102EA000480F591F405C5F4FDA014D915C91D5018D
:102EB00056FF16C04D915C91BA01E12CF12CDC015A
:102EC000A258B34F6D937C93D5014D935C93AC01A5
:102ED0004552544FDA01ED92FC92D4011C92C9CFB5
:102EE0006D917C917A01E61AF70AE9CFABE1BCE07B
:102EF0004DE55CE0045A164FEDEAF4E080E090E026
:102F00005D014A010DC070960296B2E0AB0EB11C95
:102F10004FEF841A940A56E0ED3AF50709F4FACB1C
:102F20004081413081F7AC01465E564FDA011D9277
:102F30001C92A801480F591F405C5F4FDA014D9168
:102F40005C9156FF17C0D5014D915C91BA01E12CFF
:102F5000F12CDC01A258B34F6D937C93D5014D93B6
:102F60005C93AC014552544FDA01ED92FC92D401CE
:102F70001C92C9CFD5016D917C917A01E61AF70AAE
:102F8000E8CFFC0120E030E090E08191980F2F5FC6
:102F90003F4F211582E03807C1F781E0911180E0B1
:102FA000089520E032E0FC01A90111924150504007
:102FB000E1F70895FB0120E030E0DC01A20FB31F30
:102FC0004C9141932F5F3F4F211542E03407A9F701
:102FD0000895EF92FF920F931F93CF93DF93F62EF6
:102FE000E72E082F10E020E030E000511F4F2F4F58
:102FF0003F4F89E0000F111F221F331F8A95D1F721
:10300000C62FD72F80E090E0DC01AC01BD01400F5E
:10301000511F621F731F6BBFFA01479149930196BD
:10302000A11DB11D811542E09407A105B10569F705
:10303000EF2DFE2D20E080E090E03191230F0196EE
:10304000811532E09307C9F781E0211180E0819575
:10305000DF91CF911F910F91FF90EF9008954F92C4
:103060005F926F927F928F929F92AF92BF92CF9218
:10307000DF92EF92FF921F93CF93DF9380913F0DEA
:10308000813081F0DF91CF911F91FF90EF90DF9021
:10309000CF90BF90AF909F908F907F906F905F90F8
:1030A0004F9008951091FD0C113061F783E00E945C
:1030B000000A2091420D3091430D7C01E21AF30A7F
:1030C00084E00E94000A2091400D3091410DEC01F6
:1030D000C21BD30B88E3E8168FEFF8060CF470C020
:1030E00089ECE816F10414F01093FE0CB701882760
:1030F00077FD8095982F0E9469486B017C0126E23C
:1031000034EB47E15DE30E9419492B013C0129E3BF
:103110003EE843EE5DE3C701B6010E9419494B0149
:103120005C01BE01882777FD8095982F0E94694831
:103130006B017C012DEC3CEC4CEC5DE30E941949E9
:103140000E943B487093100D60930F0D7093120D09
:103150006093110DC301B2010E943B487093180D9A
:103160006093170DC301B20190580E943B487093C1
:103170001A0D6093190DC501B4010E943B4870936C
:103180001C0D60931B0DC501B40190580E943B4873
:1031900070931E0D60931D0D2DEC3CEC4CE45DE333
:1031A000C701B6010E94194990580E943B4870938C
:1031B000200D60931F0D7093220D6093210D62CF3F
:1031C00082E08093FE0C92CFE82FF0E0EE0FFF1F1D
:1031D000E150F34F8081918108952FEF3CE0FC0195
:1031E0003183208308951092430D1092420D109266
:1031F000410D1092400D1092FD0C10923F0D109257
:10320000FE0C80E4EFEFFCE0DF011D928A95E9F708
:1032100008958091FE0C1092FE0C08951092FE0C01
:1032200008952F923F924F925F926F927F928F926A
:103230009F92AF92BF92CF92DF92EF92FF920F9345
:103240001F93CF93DF93CDB7DEB7E4970FB6F89413
:10325000DEBF0FBECDBF1092430D1092420D1092F3
:10326000410D1092400D82E390E00E942E0C7E01F1
:1032700085E1E80EF11CFE013196FAA7E9A71E01CF
:10328000F9E22F0E311C812C912C540124013501BF
:1032900004C00E94C50B0E94AD050E94730C8823D8
:1032A000C1F383E00E94000A8C01F701819391939E
:1032B0007F0184E00E94000A6C01E9A5FAA58193D0
:1032C0009193FAA7E9A7B80180E090E00E946748CF
:1032D0009B01AC01C301B2010E946B472B013C0171
:1032E000B60180E090E00E9467489B01AC01C501F7
:1032F000B4010E946B474B015C01E214F30469F6D0
:103300000E94850C20E030E040E251E4C301B201AC
:103310000E94D3476B017C0120E030E040E251E4A1
:10332000C501B4010E94D34769A77AA78BA79CA7C0
:103330006D897E8980E090E00E946748A701960130
:103340000E946A479B01AC010E94194920E030E0CD
:10335000A9010E946B472B013C0169817A8180E0C1
:1033600090E00E94674829A53AA54BA55CA50E945C
:103370006A479B01AC010E94194920E030E0A90195
:103380000E946B474B015C016F89788D80E090E073
:103390000E946748A70196010E946A479B01AC0101
:1033A0000E941949A30192010E946B472B013C0125
:1033B0006B817C8180E090E00E94674829A53AA556
:1033C0004BA55CA50E946A479B01AC010E9419496C
:1033D0009B01AC01C501B4010E946B474B015C012C
:1033E000698D7A8D80E090E00E946748A701960180
:1033F0000E946A479B01AC010E9419499B01AC01E4
:10340000C301B2010E946B472B013C016D817E819B
:1034100080E090E00E94674829A53AA54BA55CA5ED
:103420000E946A479B01AC010E9419499B01AC01B3
:10343000C501B4010E946B474B015C016B8D7C8D13
:1034400080E090E00E946748A70196010E946A47C9
:103450009B01AC010E9419499B01AC01C301B2015F
:103460000E946B472B013C016F81788580E090E0E2
:103470000E94674829A53AA54BA55CA50E946A470A
:103480009B01AC010E9419499B01AC01C501B4012B
:103490000E946B474B015C016D8D7E8D80E090E05A
:1034A0000E946748A70196010E946A479B01AC01F0
:1034B0000E9419499B01AC01C301B2010E946B47F4
:1034C0002B013C0169857A8580E090E00E94674885
:1034D00029A53AA54BA55CA50E946A479B01AC01B2
:1034E0000E9419499B01AC01C501B4010E946B47C0
:1034F0004B015C016F8D78A180E090E00E946748ED
:10350000A70196010E946A479B01AC010E941949DC
:103510009B01AC01C301B2010E946B472B013C012E
:103520006B857C8580E090E00E94674829A53AA5DC
:103530004BA55CA50E946A479B01AC010E941949FA
:103540009B01AC01C501B4010E946B474B015C01BA
:1035500069A17AA180E090E00E946748A7019601E6
:103560000E946A479B01AC010E9419499B01AC0172
:10357000C301B2010E946B472B013C016D857E8522
:1035800080E090E00E94674829A53AA54BA55CA57C
:103590000E946A479B01AC010E9419499B01AC0142
:1035A000C501B4010E946B474B015C016BA17CA17A
:1035B00080E090E00E946748A70196010E946A4758
:1035C0009B01AC010E9419499B01AC01C301B201EE
:1035D0000E946B472B013C016F85788980E090E069
:1035E0000E94674829A53AA54BA55CA50E946A4799
:1035F0009B01AC010E9419499B01AC01C501B401BA
:103600000E946B474B015C016DA17EA180E090E0C0
:103610000E946748A70196010E946A479B01AC017E
:103620000E9419499B01AC01C301B2010E946B4782
:103630006DA77EA78FA798AB69897A8980E090E013
:103640000E94674829A53AA54BA55CA50E946A4738
:103650009B01AC010E9419499B01AC01C501B40159
:103660000E946B4769AB7AAB8BAB9CAB6FA178A523
:1036700080E090E00E946748A70196010E946A4797
:103680002B013C016B897C8980E090E00E946748B7
:1036900029A53AA54BA55CA50E946A474B015C0190
:1036A000A3019201C301B2010E9419492DA53EA5B3
:1036B0004FA558A90E946B4720E030E040E251E45A
:1036C0000E94D3470E9480492B013C01A50194012F
:1036D000C501B4010E94194929A93AA94BA95CA9BD
:1036E0000E946B4720E030E040E251E40E94D34763
:1036F0000E9480494B015C0120E030E040EA51E447
:10370000C301B2010E94CF4787FF0AC020E030E02A
:1037100040EA51E4C501B4010E94CF4787FD21C0B2
:1037200044E650E06AE070E084E00E948F0A80E0A6
:10373000E4960FB6F894DEBF0FBECDBFDF91CF91F8
:103740001F910F91FF90EF90DF90CF90BF90AF90BF
:103750009F908F907F906F905F904F903F902F90B1
:10376000089581E08093FD0CC701B6010E943B489B
:103770007093430D6093420D69A57AA58BA59CA516
:103780000E943B487093410D6093400D0E94820A55
:1037900081E0CECF81E080933F0D089510923F0DE0
:1037A000089580913F0D08950F931F93CF93DF935A
:1037B000EC0110918A02113091F108F442C01230EC
:1037C00081F01330C1F50E94600F81112CC010925E
:1037D000480D10928A0281E0DF91CF911F910F91E5
:1037E00008950E94600F81111EC01091480D8091B4
:1037F000470D113009F454C0882309F44AC08A8166
:103800000E94070F1092470D0E94130F82E08093D1
:103810008A0280E0DF91CF911F910F9108950E945D
:10382000600F882321F110938A0280E0DF91CF910D
:103830001F910F91089580E0DF91CF911F910F911B
:1038400008958091460D882301F189810E94070F18
:103850000E94130F8091460D8093470D81E0809365
:103860008A0280E0DF91CF911F910F91089500911E
:10387000480D8091470D013009F18111C0CF8B8136
:103880000E94070F1093470DBFCF88810E94070F3A
:10389000DFCF8B810E94070F81E08093470DB4CF6B
:1038A000811114C08D810E94070F1093470D0E9453
:1038B000130F83E080938A0280E0B8CF811106C0A5
:1038C0008D810E94070F0093470DF1CF8C810E94DC
:1038D000070F1092470DEBCF1F93CF93DF93EC01AF
:1038E00010918902113029F1A0F1123079F01330D2
:1038F00059F50E94600F811120C01092480D10925E
:10390000890281E0DF91CF911F9108950E94600F9D
:10391000811113C08091470D81115FC08091480DC6
:10392000813009F447C08B810E94070F10938902F0
:1039300033C00E94600F882309F11093890280E050
:10394000DF91CF911F91089580E0DF91CF911F917A
:1039500008958091460D882349F189810E94070FBF
:103960000E94130F8091460D8093470D81E0809354
:10397000890280E0DF91CF911F9108958091470DDA
:1039800081111FC08091480D8130A1F08B810E9470
:10399000070F82E08093890281E08093470D0E94A7
:1039A000130F80E0DF91CF911F91089588810E94CD
:1039B000070FD6CF8D810E94070F83E08093890285
:1039C000EBCF8A810E94070F1092470D0E94130FC0
:1039D00082E08093890280E0B3CF8A810E94070F42
:1039E0001092470D0E94130F1093890280E0A8CF18
:1039F0001F93CF93DF93EC0110918802113031F1C6
:103A0000A8F1123079F0133061F50E94600F811136
:103A100021C01092480D1092880281E0DF91CF9171
:103A20001F9108950E94600F811114C08091470D6D
:103A3000813009F057C08091480D813009F45EC093
:103A40008A810E94070F1093880233C00E94600F82
:103A5000882309F11093880280E0DF91CF911F91B4
:103A6000089580E0DF91CF911F9108958091460DD8
:103A7000882341F189810E94070F0E94130F8091D2
:103A8000460D8093470D81E08093880280E0DF91AE
:103A9000CF911F9108958091470D8130B9F48091A5
:103AA000480D813059F18A810E94070F82E080938E
:103AB00088021092470D0E94130F80E0DF91CF9192
:103AC0001F91089588810E94070FD7CF8B810E9494
:103AD000070F1093470D0E94130F82E08093880216
:103AE00080E0BBCF8B810E94070F81E08093470D60
:103AF0000E94130F1093880280E0AFCF8C810E9448
:103B0000070F83E080938802D4CF8091470D8823EC
:103B100019F01092470D089581E08093470D0895A4
:103B2000681B790B683F88EF780744F0693087E0BD
:103B3000780714F060517E40CB010895605F714FAB
:103B4000CB010895680F791F77FD08C061318EE0C1
:103B5000780714F060517E40CB010895605F714F8B
:103B6000CB0108951092480D1092460D1092470D0A
:103B70001092450D1092440D089581E08093480DF8
:103B800008958093460D08951092450D1092440DAE
:103B900008958091440D9091450D0895CF93DF9342
:103BA000C0918A02C13071F1D8F1C23071F0C330D6
:103BB00099F50E94600F811129C01092480D109252
:103BC0008A0281E0DF91CF9108950E94600F8111F8
:103BD0001DC0C091480D8091470DC13009F451C0FE
:103BE000882309F446C0809102020E94070F1092B8
:103BF000470D0E94130F82E080938A0280E0DF91DC
:103C0000CF9108950E94600F8823F9F0C0938A0233
:103C100080E0DF91CF91089580E0DF91CF9108950A
:103C20008091460D882301F1809101020E94070FC7
:103C30000E94130F8091460D8093470D81E0809381
:103C40008A0280E0DF91CF910895D091480D809154
:103C5000470DD13029F18111C6CF809103020E9416
:103C6000070FC093470DC5CF809100020E94070F38
:103C7000DFCF809103020E94070F81E08093470D00
:103C8000B8CF811116C0809105020E94070FC09322
:103C9000470D0E94130F83E080938A0280E0B9CF22
:103CA000811107C0809105020E94070FD093470D34
:103CB000F0CF809104020E94070F1092470DE9CFC8
:103CC000CF93DF93C0918A02C13071F1D8F1C23035
:103CD00071F0C33099F50E94600F811129C01092D4
:103CE000480D10928A0281E0DF91CF9108950E94E1
:103CF000600F81111DC0C091480D8091470DC130EA
:103D000009F451C0882309F446C0809108020E943A
:103D1000070F1092470D0E94130F82E080938A02D2
:103D200080E0DF91CF9108950E94600F8823F9F021
:103D3000C0938A0280E0DF91CF91089580E0DF9107
:103D4000CF9108958091460D882301F1809107025B
:103D50000E94070F0E94130F8091460D8093470D1C
:103D600081E080938A0280E0DF91CF910895D09125
:103D7000480D8091470DD13029F18111C6CF809136
:103D800009020E94070FC093470DC5CF809106021C
:103D90000E94070FDFCF809109020E94070F81E088
:103DA0008093470DB8CF811116C080910B020E94FD
:103DB000070FC093470D0E94130F83E080938A0280
:103DC00080E0B9CF811107C080910B020E94070FDC
:103DD000D093470DF0CF80910A020E94070F1092F6
:103DE000470DE9CFCF93C0918902C13021F178F11D
:103DF000C23069F0C33041F50E94600F81111FC0CD
:103E00001092480D1092890281E0CF9108950E948E
:103E1000600F811114C08091470D81115DC08091A8
:103E2000480D813009F443C080910F020E94070FB2
:103E3000C09389022FC00E94600F8823E1F0C093D5
:103E4000890280E0CF91089580E0CF91089580911C
:103E5000460D882339F180910D020E94070F0E94C0
:103E6000130F8091460D8093470D81E08093890266
:103E700080E0CF9108958091470D811120C08091FD
:103E8000480D8130A1F080910F020E94070F82E05F
:103E90008093890281E08093470D0E94130F80E098
:103EA000CF91089580910C020E94070FD8CF809186
:103EB00011020E94070F83E080938902EBCF80916B
:103EC0000E020E94070F1092470D0E94130F82E00E
:103ED0008093890280E0B6CF80910E020E94070F86
:103EE0001092470D0E94130FC093890280E0AACF61
:103EF000CF93C0918802C13029F180F1C23069F0BE
:103F0000C33049F50E94600F811120C01092480D06
:103F10001092880281E0CF9108950E94600F811174
:103F200015C08091470D813009F054C08091480D33
:103F3000813009F45CC0809114020E94070FC09385
:103F400088022FC00E94600F8823E1F0C09388028E
:103F500080E0CF91089580E0CF9108958091460D43
:103F6000882331F1809113020E94070F0E94130FE2
:103F70008091460D8093470D81E08093880280E018
:103F8000CF9108958091470D8130B9F48091480D0B
:103F9000813069F1809114020E94070F82E08093C2
:103FA00088021092470D0E94130F80E0CF91089570
:103FB000809112020E94070FD9CF809115020E94B2
:103FC000070FC093470D0E94130F82E08093880271
:103FD00080E0BFCF809115020E94070F81E080939F
:103FE000470D0E94130FC093880280E0B2CF8091EA
:103FF00016020E94070F83E080938802D2CFCF93EE
:10400000C0918902C13021F178F1C23069F0C3302A
:1040100041F50E94600F81111FC01092480D10924F
:10402000890281E0CF9108950E94600F811114C030
:104030008091470D81115DC08091480D813009F458
:1040400043C080911B020E94070FC09389022FC0BA
:104050000E94600F8823E1F0C093890280E0CF9135
:10406000089580E0CF9108958091460D882339F11D
:10407000809119020E94070F0E94130F8091460D34
:104080008093470D81E08093890280E0CF9108956D
:104090008091470D811120C08091480D8130A1F0A1
:1040A00080911B020E94070F82E08093890281E0C9
:1040B0008093470D0E94130F80E0CF910895809167
:1040C00018020E94070FD8CF80911D020E94070F8F
:1040D00083E080938902EBCF80911A020E94070F40
:1040E0001092470D0E94130F82E08093890280E0B6
:1040F000B6CF80911A020E94070F1092470D0E94BE
:10410000130FC093890280E0AACFCF93C091880299
:10411000C13029F180F1C23069F0C33049F50E9405
:10412000600F811120C01092480D1092880281E02A
:10413000CF9108950E94600F811115C08091470DA5
:10414000813009F054C08091480D813009F45CC081
:10415000809120020E94070FC09388022FC00E9406
:10416000600F8823E1F0C093880280E0CF9108952A
:1041700080E0CF9108958091460D882331F18091A0
:104180001F020E94070F0E94130F8091460D80931B
:10419000470D81E08093880280E0CF91089580915F
:1041A000470D8130B9F48091480D813069F18091DB
:1041B00020020E94070F82E0809388021092470D30
:1041C0000E94130F80E0CF91089580911E020E94FB
:1041D000070FD9CF809121020E94070FC093470D8E
:1041E0000E94130F82E08093880280E0BFCF80910D
:1041F00021020E94070F81E08093470D0E94130F58
:10420000C093880280E0B2CF809122020E94070F03
:1042100083E080938802D2CFCF93C0918902C130CE
:1042200021F178F1C23069F0C33041F50E94600F8E
:1042300081111FC01092480D1092890281E0CF9128
:1042400008950E94600F811114C08091470D811163
:104250005DC08091480D813009F443C080912702F0
:104260000E94070FC09389022FC00E94600F88230D
:10427000E1F0C093890280E0CF91089580E0CF9172
:1042800008958091460D882339F1809125020E947E
:10429000070F0E94130F8091460D8093470D81E018
:1042A0008093890280E0CF9108958091470D81111C
:1042B00020C08091480D8130A1F0809127020E949A
:1042C000070F82E08093890281E08093470D0E946E
:1042D000130F80E0CF910895809124020E94070F70
:1042E000D8CF809129020E94070F83E08093890232
:1042F000EBCF809126020E94070F1092470D0E947B
:10430000130F82E08093890280E0B6CF809126026D
:104310000E94070F1092470D0E94130FC09389024D
:1043200080E0AACFCF93C0918802C13029F180F1FB
:10433000C23069F0C33049F50E94600F811120C07E
:104340001092480D1092880281E0CF9108950E944A
:10435000600F811115C08091470D813009F054C064
:104360008091480D813009F45CC080912C020E943C
:10437000070FC09388022FC00E94600F8823E1F0CE
:10438000C093880280E0CF91089580E0CF91089596
:104390008091460D882331F180912B020E94070FF6
:1043A0000E94130F8091460D8093470D81E080930A
:1043B000880280E0CF9108958091470D8130B9F453
:1043C0008091480D813069F180912C020E94070F85
:1043D00082E0809388021092470D0E94130F80E0C4
:1043E000CF91089580912A020E94070FD9CF809122
:1043F0002D020E94070FC093470D0E94130F82E009
:104400008093880280E0BFCF80912D020E94070F29
:1044100081E08093470D0E94130FC093880280E0D3
:10442000B2CF80912E020E94070F83E08093880212
:10443000D2CFCF93C0918902C13021F178F1C2303F
:1044400069F0C33041F50E94600F81111FC01092C6
:10445000480D1092890281E0CF9108950E94600F6B
:10446000811114C08091470D81115DC08091480D6C
:10447000813009F443C0809133020E94070FC0933A
:1044800089022FC00E94600F8823E1F0C093890247
:1044900080E0CF91089580E0CF9108958091460DFE
:1044A000882339F1809131020E94070F0E94130F77
:1044B0008091460D8093470D81E08093890280E0D2
:1044C000CF9108958091470D811120C08091480DB2
:1044D0008130A1F0809133020E94070F82E0809327
:1044E000890281E08093470D0E94130F80E0CF91F5
:1044F0000895809130020E94070FD8CF8091350235
:104500000E94070F83E080938902EBCF80913202F3
:104510000E94070F1092470D0E94130F82E08093B4
:10452000890280E0B6CF809132020E94070F10927C
:10453000470D0E94130FC093890280E0AACFCF934A
:10454000C0918802C13029F180F1C23069F0C330D6
:1045500049F50E94600F811120C01092480D109201
:10456000880281E0CF9108950E94600F811115C0EB
:104570008091470D813009F054C08091480D813001
:1045800009F45CC0809138020E94070FC093880232
:104590002FC00E94600F8823E1F0C093880280E062
:1045A000CF91089580E0CF9108958091460D8823A2
:1045B00031F1809137020E94070F0E94130F809102
:1045C000460D8093470D81E08093880280E0CF9173
:1045D00008958091470D8130B9F48091480D813064
:1045E00069F1809138020E94070F82E0809388026F
:1045F0001092470D0E94130F80E0CF910895809193
:1046000036020E94070FD9CF809139020E94070F0E
:10461000C093470D0E94130F82E08093880280E0D0
:10462000BFCF809139020E94070F81E08093470D30
:104630000E94130FC093880280E0B2CF80913A02AB
:104640000E94070F83E080938802D2CFCF93C0915E
:104650008902C13021F178F1C23069F0C33041F5EF
:104660000E94600F81111FC01092480D10928902A4
:1046700081E0CF9108950E94600F811114C0809154
:10468000470D81115DC08091480D813009F443C010
:1046900080913F020E94070FC09389022FC00E94A1
:1046A000600F8823E1F0C093890280E0CF910895E4
:1046B00080E0CF9108958091460D882339F1809153
:1046C0003D020E94070F0E94130F8091460D8093B8
:1046D000470D81E08093890280E0CF910895809119
:1046E000470D811120C08091480D8130A1F080914B
:1046F0003F020E94070F82E08093890281E080934D
:10470000470D0E94130F80E0CF91089580913C02E5
:104710000E94070FD8CF809141020E94070F83E0CB
:1047200080938902EBCF80913E020E94070F109286
:10473000470D0E94130F82E08093890280E0B6CF7C
:1047400080913E020E94070F1092470D0E94130FA6
:10475000C093890280E0AACFCF93C0918802C13074
:1047600029F180F1C23069F0C33049F50E94600F31
:10477000811120C01092480D1092880281E0CF91E3
:1047800008950E94600F811115C08091470D8130FE
:1047900009F054C08091480D813009F45CC08091CB
:1047A00044020E94070FC09388022FC00E94600F2E
:1047B0008823E1F0C093880280E0CF91089580E0E3
:1047C000CF9108958091460D882331F18091430265
:1047D0000E94070F0E94130F8091460D8093470D92
:1047E00081E08093880280E0CF9108958091470D09
:1047F0008130B9F48091480D813069F18091440293
:104800000E94070F82E0809388021092470D0E9459
:10481000130F80E0CF910895809142020E94070F0C
:10482000D9CF809145020E94070FC093470D0E9487
:10483000130F82E08093880280E0BFCF8091450211
:104840000E94070F81E08093470D0E94130FC093D1
:10485000880280E0B2CF809146020E94070F83E079
:1048600080938802D2CFCF93C0918902C13021F1C9
:1048700078F1C23069F0C33041F50E94600F8111B8
:104880001FC01092480D1092890281E0CF910895C7
:104890000E94600F811114C08091470D81115DC08D
:1048A0008091480D813009F443C080914B020E94F1
:1048B000070FC09389022FC00E94600F8823E1F088
:1048C000C093890280E0CF91089580E0CF91089550
:1048D0008091460D882339F1809149020E94070F8B
:1048E0000E94130F8091460D8093470D81E08093C5
:1048F000890280E0CF9108958091470D811120C0F9
:104900008091480D8130A1F080914B020E94070FE9
:1049100082E08093890281E08093470D0E94130F0B
:1049200080E0CF910895809148020E94070FD8CF70
:1049300080914D020E94070F83E080938902EBCFA4
:1049400080914A020E94070F1092470D0E94130F98
:1049500082E08093890280E0B6CF80914A020E9473
:10496000070F1092470D0E94130FC093890280E039
:10497000AACFCF93C0918802C13029F180F1C23013
:1049800069F0C33049F50E94600F811120C0109278
:10499000480D1092880281E0CF9108950E94600F27
:1049A000811115C08091470D813009F054C080916C
:1049B000480D813009F45CC0809150020E94070FBD
:1049C000C09388022FC00E94600F8823E1F0C0933B
:1049D000880280E0CF91089580E0CF910895809182
:1049E000460D882331F180914F020E94070F0E94EB
:1049F000130F8091460D8093470D81E080938802CC
:104A000080E0CF9108958091470D8130B9F4809175
:104A1000480D813069F1809150020E94070F82E0B9
:104A2000809388021092470D0E94130F80E0CF916F
:104A3000089580914E020E94070FD9CF80915102B4
:104A40000E94070FC093470D0E94130F82E08093CE
:104A5000880280E0BFCF809151020E94070F81E061
:104A60008093470D0E94130FC093880280E0B2CF5D
:104A7000809152020E94070F83E080938802D2CF78
:104A8000CF93DF93C0918A02C13071F1D8F1C23067
:104A900071F0C33099F50E94600F811129C0109206
:104AA000480D10928A0281E0DF91CF9108950E9413
:104AB000600F81111DC0C091480D8091470DC1301C
:104AC00009F451C0882309F446C0809156020E941F
:104AD000070F1092470D0E94130F82E080938A0205
:104AE00080E0DF91CF9108950E94600F8823F9F054
:104AF000C0938A0280E0DF91CF91089580E0DF913A
:104B0000CF9108958091460D882301F1809155023F
:104B10000E94070F0E94130F8091460D8093470D4E
:104B200081E080938A0280E0DF91CF910895D09157
:104B3000480D8091470DD13029F18111C6CF809168
:104B400057020E94070FC093470DC5CF80915402B2
:104B50000E94070FDFCF809157020E94070F81E06C
:104B60008093470DB8CF811116C0809159020E94E1
:104B7000070FC093470D0E94130F83E080938A02B2
:104B800080E0B9CF811107C0809159020E94070FC0
:104B9000D093470DF0CF809158020E94070F1092DA
:104BA000470DE9CFCF93DF93C0918A02C13071F1F5
:104BB000D8F1C23071F0C33099F50E94600F8111B5
:104BC00029C01092480D10928A0281E0DF91CF91A6
:104BD00008950E94600F81111DC0C091480D809101
:104BE000470DC13009F451C0882309F446C08091B3
:104BF0005C020E94070F1092470D0E94130F82E083
:104C000080938A0280E0DF91CF9108950E94600F27
:104C10008823F9F0C0938A0280E0DF91CF91089554
:104C200080E0DF91CF9108958091460D882301F1B6
:104C300080915B020E94070F0E94130F8091460D26
:104C40008093470D81E080938A0280E0DF91CF91CD
:104C50000895D091480D8091470DD13029F18111EF
:104C6000C6CF80915D020E94070FC093470DC5CF4C
:104C700080915A020E94070FDFCF80915D020E944F
:104C8000070F81E08093470DB8CF811116C0809146
:104C90005F020E94070FC093470D0E94130F83E02D
:104CA00080938A0280E0B9CF811107C080915F02B2
:104CB0000E94070FD093470DF0CF80915E020E94B3
:104CC000070F1092470DE9CF0895089508950895AC
:104CD00008950895089508951F93CF93DF931F9229
:104CE0001F92CDB7DEB7681B790B683F88EF780756
:104CF0003CF5605F714F10918702113059F111300E
:104D000008F4A1C0123009F45EC0133009F094C059
:104D10000E94600F811187C08091440D9091450DD4
:104D200001969093450D8093440D1092480D10927A
:104D3000870281E00F900F90DF91CF911F9108952E
:104D40006930E7E07E07BCF260517E401091870237
:104D50001130A9F669837A830E94600F69817A8194
:104D6000811161C08091440D9091450D0196909301
:104D7000450D8093440D8091480D813009F4B2C0F7
:104D8000CB018D599F4F873C910508F47BC08091E2
:104D9000470D6C39FFEF7F070CF08AC0882309F4B8
:104DA000C3C0813009F4F9C091E09093870281116A
:104DB0008BC081E08093470D80E00F900F90DF91D2
:104DC000CF911F91089569837A830E94600F698152
:104DD0007A81811128C08091440D9091450D0196F2
:104DE0009093450D8093440D8091480D813009F4D6
:104DF00088C0CB0177FDA0C0853691050CF46DC04D
:104E00008091470D161617060CF04CC0811190C00A
:104E10008CE60E94070F0E94130F82E080938702A6
:104E20008091470DC4CF1093870280E00F900F90C0
:104E3000DF91CF911F91089580E00F900F90DF9147
:104E4000CF911F9108958091460D8823B9F082E299
:104E50000E94070F0E94130F8091460D90E001966B
:104E6000817099278093470D81E08093870280E0CD
:104E70000F900F90DF91CF911F91089580E20E94D3
:104E8000070FE8CF8091470D882309F44DC086E2D3
:104E90000E94070F0E94130F81E080938702809188
:104EA000470D85CF81115AC088E70E94070FB3CF05
:104EB000653671050CF468C0813049F3882309F424
:104EC00058C081E0809387021092470D80E00F90D8
:104ED0000F90DF91CF911F91089581E08093870219
:104EE00080E0A4CF8091470D81112BC088E20E9401
:104EF000070F0E94130F83E0809387028091470D74
:104F000056CF8091470D16161706FCF4813051F1EB
:104F10008CE60E94070F109387020E94130F809166
:104F2000470D8111D1CF45CF84E20E94070FB2CF48
:104F30008EE60E94070F6FCF88279927861B970B55
:104F40005BCF8AE20E94070FD4CF811120C08CE78B
:104F50000E94070F83E080938702DFCF8AE70E94D9
:104F6000070F59CF82E70E94070F83E080938702E3
:104F7000D4CF82E0809387028CE60E94070F0E94C4
:104F8000130F8091470D13CF77FF98CF0ACF8AE791
:104F90000E94070F10938702C0CF8AE70E94070F75
:104FA00082E0809387020E94130F8091470DFFCE0D
:104FB0001F93CF93DF931F921F92CDB7DEB7681B6D
:104FC000790B683F88EF78073CF5605F714F10916F
:104FD0008602113059F1113008F49EC0123009F4E4
:104FE0005DC0133009F091C00E94600F811184C030
:104FF0008091440D9091450D01979093450D8093BC
:10500000440D1092480D1092860281E00F900F908F
:10501000DF91CF911F9108956930E7E07E07BCF2E0
:1050200060517E40109186021130A9F669837A831F
:105030000E94600F69817A8181115EC08091440D68
:105040009091450D01979093450D8093440D80916B
:10505000480D813009F4B0C0CB018D599F4F873C7A
:10506000910508F478C08091470D653671050CF400
:1050700088C0882309F4C2C0813009F4E7C091E0F8
:105080009093860281118AC081E08093470D80E071
:105090000F900F90DF91CF911F91089569837A83CC
:1050A0000E94600F69817A81811126C08091440D30
:1050B0009091450D01979093450D8093440D8091FB
:1050C000480D813009F487C0CB0177FD9FC085363C
:1050D00091050CF46CC08091470D77FD4CC0811197
:1050E00091C080E90E94070F0E94130F82E0809315
:1050F00086028091470DC6CF1093860280E00F9004
:105100000F90DF91CF911F91089580E00F900F9045
:10511000DF91CF911F9108958091460D8823B9F0BA
:105120008EE20E94070F0E94130F8091460D90E0BF
:105130000196817099278093470D81E080938602C4
:1051400080E00F900F90DF91CF911F9108958CE236
:105150000E94070FE8CF8091470D882309F44EC0C5
:1051600082E30E94070F0E94130F81E08093860262
:105170008091470D87CF811160C084E80E94070F9E
:10518000B3CF6C39FFEF7F070CF05BC0813041F388
:10519000882309F46DC081E0809386021092470D48
:1051A00080E00F900F90DF91CF911F91089581E0E3
:1051B0008093860280E0A3CF8091470D81112BC0A0
:1051C00084E30E94070F0E94130F83E080938602FE
:1051D0008091470D57CF8091470D77FD26C08111F3
:1051E0001EC084E90E94070F83E0809386020E941C
:1051F000130F8091470D8111D1CF46CF80E30E94DC
:10520000070FB1CF82E90E94070F6ECF8827992739
:10521000861B970B5CCF86E30E94070FD4CF82E9F1
:105220000E94070F10938602E2CF8130D1F084E80C
:105230000E94070F10938602DACF86E80E94070FBC
:1052400053CF161617060CF417CFA2CF82E90E948F
:10525000070F82E0809386020E94130F8091470D12
:1052600011CF8AE80E94070F83E080938602BFCFA8
:1052700082E08093860284E80E94070F0E94130F49
:105280008091470DFFCECF93DF93D82FC091850239
:10529000C13019F180F0C23021F080E0DF91CF9170
:1052A00008950E947C0C811129C0C093850280E082
:1052B000DF91CF9108950E94600F81111BC0D13002
:1052C00019F18CE10E94070F0E94130F81E0809377
:1052D000850280E0DF91CF9108950E94600F8111D7
:1052E000E4CF82E08093850288EE93E00E94500C28
:1052F00080E0D4CF1092850280E0D0CF0E940E19BA
:105300001092850281E0CACF8BE10E94070FDCCFAB
:10531000CF93C82F4091840250E04830510530F0BF
:1053200080E0C11110928402CF910895FA01EA59E8
:10533000FE4F0C9419470E94600F882309F456C051
:1053400086E08093840280E0ECCF0E94600F882387
:1053500009F448C087E08093840280E0E2CF0E9495
:10536000600F8823A9F10E945C0F81E08093840282
:1053700080E0D7CF0E94600F882351F181E08093B5
:10538000840280E0CECF0E94600F882309F456C0CB
:1053900082E08093840280E0C4CF0E947C0C811163
:1053A00043C083E08093840280E0BBCF0E94600F03
:1053B000882381F184E08093840280E0B2CF0E9450
:1053C000600F8823E9F085E08093840280E0A9CF14
:1053D00083EE0E94070F0E94130F82E080938402E5
:1053E00080E09FCF1092840281E09BCF8FE10E94EA
:1053F000070F0E94130F87E08093840280E091CF13
:1054000082EE0E94070F0E94130F86E080938402B1
:1054100080E087CF81EE0E94070F0E94130F85E086
:105420008093840280E07DCF80EE0E94070F0E946F
:10543000130F84E08093840280E073CF8CED95E0BD
:105440000E94500C83E08093840280E06ACFCF9367
:10545000C0918302C23009F441C068F0C430C1F089
:1054600098F1C53019F50E94600F81110CC010929F
:10547000830281E00BC0CC23E1F0C130B9F40E947B
:10548000600F8823C9F1C093830280E0CF91089513
:105490000E94600F8111F7CF8FE10E94070F0E94D9
:1054A000130F85E08093830280E0F0CF80E0CF91FE
:1054B00008950E94600F8823F9F00E945C0F81E03C
:1054C0008093830280E0E2CF0E94600F8823F9F08E
:1054D00083E08093830280E0CF9108950E94600F63
:1054E0008111D1CF85EE0E94070F0E94130F83E038
:1054F0008093830280E0CACF84EE0E94070F0E944F
:10550000130F82E08093830280E0CF91089586EEAE
:105510000E94070F0E94130F84E08093830280E0B3
:10552000B5CF1F93CF93DF93EB01C81BD90BC83FB7
:1055300088EFD8079CF5C05FD14F109182021230DE
:10554000B9F1133008F04DC0112309F472C01130C5
:1055500009F061C00E94600F811184C08091480DE4
:10556000813009F49FC0C953DF4FCF38D14008F4D0
:1055700088C08091470D813009F4A2C084E50E9463
:10558000070F0E94130F109382028091470D811123
:1055900085C081E08093470D80E03EC0C93097E030
:1055A000D9075CF2C051DE4010918202123049F6F8
:1055B0000E94600F882309F460C010938202D7FD17
:1055C00021C08CE092E00E946C1C811129C0C4367D
:1055D000D1050CF591E09093480DDF91CF911F918B
:1055E0000895133061F31430B1F40E94600F8111FB
:1055F00039C01092480D1092820281E0DF91CF9164
:105600001F91089582E192E00E94F81C811108C068
:10561000CD39DF4FFCF680E0DF91CF911F910895E7
:10562000109282021092480D80E0DF91CF911F917D
:1056300008958091460D81111CC080E50E94070FDE
:105640000E94130F8091460D90E00196817099277A
:105650008093470D81E08093820280E0DF91CF91BB
:105660001F9108951093820280E0DF91CF911F91E6
:10567000089582E50E94070FE3CF83E080938202C2
:105680009ECF8091470D811117C084E50E94070FBE
:105690000E94130F81E08093820277CF1092470D12
:1056A00080E0BACF8091470D813099F084E50E9467
:1056B000070F0E94130F69CF86E50E94070FE8CFFE
:1056C0008AE50E94070F0E94130F82E080938202F6
:1056D0005CCF8AE50E94070F84E080938202E9CFC5
:1056E0001F93CF93DF93EB01C81BD90BC83F88EF03
:1056F000D8079CF5C05FD14F109181021230B9F1EB
:10570000133008F04DC0112309F472C0113009F0B4
:1057100061C00E94600F811184C08091480D81306A
:1057200009F49FC0C953DF4FCF38D14008F488C077
:105730008091470D8111A2C084E60E94070F0E944C
:10574000130F82E0809381028091470D811185C003
:1057500081E08093470D80E03EC0C93097E0D907D3
:105760005CF2C051DE4010918102123049F60E9475
:10577000600F882309F460C010938102D7FD21C017
:105780008CE092E00E946C1C811129C0C436D105C6
:105790000CF591E09093480DDF91CF911F91089502
:1057A000133061F31430B1F40E94600F811139C0DD
:1057B0001092480D1092810281E0DF91CF911F91EC
:1057C000089582E192E00E94F81C811108C0CD3951
:1057D000DF4FFCF680E0DF91CF911F91089510928A
:1057E00081021092480D80E0DF91CF911F910895C2
:1057F0008091460D81111CC08CE50E94070F0E940C
:10580000130F8091460D90E0019681709927809347
:10581000470D81E08093810280E0DF91CF911F915D
:1058200008951093810280E0DF91CF911F91089538
:105830008EE50E94070FE3CF83E0809381029ECF25
:105840008091470D811122C080E60E94070F0E94BF
:10585000130F81E08093810277CF1092470D80E093
:10586000BACF8091470D811115C084E60E94070FC1
:1058700084E0809381020E94130F66CF82E60E942B
:10588000070F0E94130F109381025ECF82E60E94E1
:10589000070FDDCF82E60E94070FEDCF1F93CF9356
:1058A000DF93EC0180918002823009F483C028F5F7
:1058B000882309F457C0813061F5C0917C02D091F2
:1058C0007D020E94093A9E01281B390BC901883FBD
:1058D00038EF93070CF08FC0805F914F97FDBFC0EA
:1058E000853691050CF08FC084E08093800210E033
:1058F000812FDF91CF911F910895833081F0843003
:1059000041F41092800211E0812FDF91CF911F911D
:10591000089510E0812FDF91CF911F91089582E1CA
:1059200092E00E94F81C182F8111DECFC0917C02FA
:10593000D0917D020E94093A9E01281B390B283F15
:1059400088EF38070CF47EC0293087E0380714F060
:1059500020513E40243631050CF47AC083E0809318
:105960008002C6CF0E94093A90937F0280937E0204
:105970009E01220F331FCC0FDD1FCC0FDD1FCC0F7C
:10598000DD1F2C0F3D1F280F391F37FD65C021314A
:105990008EE0380714F020513E4030937D02209372
:1059A0007C0281E08093800210E0812FDF91CF9113
:1059B0001F9108958CE092E00E946C1C182F8111B9
:1059C00093CFC0917C02D0917D020E94093A9E0142
:1059D000281B390B283F88EF38078CF1293087E0E6
:1059E000380714F020513E402D393F4F8CF582E0AE
:1059F000809380027DCF893027E092070CF46ECF30
:105A000080519E406BCFC0917C02D0917D020E945C
:105A1000093A9E01281B390BC901883F38EF9307CB
:105A2000A4F0893027E0920714F080519E4085361B
:105A30009105CCF083E08093800210E059CF205F85
:105A4000314FD2CF205F314F85CF805F914FEFCF65
:105A500081E08093480D4CCF205F314F9ECF9195D0
:105A6000819591093DCFC0917C02D0917D020E9429
:105A7000093A9E01281B390BC901883F38EF93076B
:105A80005CF4805F914F8C399F4F0CF042CF82E0E5
:105A90008093800210E02CCF893027E092079CF39E
:105AA00080519E40F0CF8093570D6093600D90E140
:105AB000899FD0011124A256BB4F18968D919C91BD
:105AC00019979695982F882797958795A0E0B0E02D
:105AD0008093630D9093640DA093650DB093660D54
