:100000000C94C6010C94E7010C94E7010C94E701F1
:100010000C94E7010C94E7010C94E7010C94E701C0
:100020000C94E7010C94E7010C94E7010C94E701B0
:100030000C94E7010C94E7010C94E7010C94E701A0
:100040000C94E7010C94E7010C94E7010C94E70190
:100050000C94E7010C94E7010C94E7010C94E70180
:100060000C94E7010C94D43D0C94E7010C94913D61
:100070000C94E7010C94E7010C94E7010C94E70160
:100080000C94E7010C94E7010C94E7010C94E70150
:100090000C943C420C94E7010C946B420C94E701E5
:1000A0000C94E7010C94E7010C94E7010C94E70130
:1000B0000C94E7010C94E7010C94E7010C94E70120
:1000C0000C94E7010C94E7010C94E701CE03D003F4
:1000D000CD03D203CD03CD03CD03D403CD03CD0394
:1000E000CD03CD03CD03CD03CD03D603CD03CD0387
:1000F000CD03CD03CD03CD03CD03CD03CD03CD0380
:10010000CD03CD03CD03CD03CD03D803CD03CD0364
:10011000CD03CD03CD03CD03CD03CD03CD03CD035F
:10012000CD03CD03CD03CD03CD03CD03CD03CD034F
:10013000CD03CD03CD03CD03CD03CD03CD03CD033F
:10014000CD03CD03CD03CD03CD03CC03E603E803FC
:10015000E503EA03E503E503E503EC03E503E50353
:10016000E503E503E503E503E503EE03E503E50346
:10017000E503E503E503E503E503E503E503E5033F
:10018000E503E503E503E503E503F003E503E50324
:10019000E503E503E503E503E503E503E503E5031F
:1001A000E503E503E503E503E503E503E503E5030F
:1001B000E503E503E503E503E503E503E503E503FF
:1001C000E503E503E503E503E503E40301040604B1
:1001D00000040B04000400040004100400040004E4
:1001E00000040004000400040004150400040004DA
:1001F00000040004000400040004000400040004DF
:10020000000400040004000400041A0400040004B4
:1002100000040004000400040004000400040004BE
:1002200000040004000400040004000400040004AE
:10023000000400040004000400040004000400049E
:1002400000040004000400040004FC032B042B043D
:1002500025042B0425042504250434042504250441
:100260002504250425042504250439042504250432
:100270002504250425042504250425042504250436
:10028000250425042504250425042E04250425041D
:100290002504250425042504250425042504250416
:1002A0002504250425042504250425042504250406
:1002B00025042504250425042504250425042504F6
:1002C000250425042504250425044104062A112AB1
:1002D0001A2A242A2D2A362AF229FC296364696EF7
:1002E0006F70737578585B000C9400040C94CC0309
:1002F0000C94112A0C9406040C94D2030C9401045F
:100300000C942E040C942B040C94EA030C942D2AC8
:100310000C94E8030C94F3410C9434040C94E6031D
:100320000C94F0030C9439040C94CE030C94062A1C
:100330000C94FC030C9441040C94D8030C94EC032F
:100340000C9410040C941A2A0C94362A0C94E5038D
:100350000C94D0030C940B040C941A040C94D60344
:100360000C94CD030C94D1410C94E4030C94D4036D
:100370000C9415040C94242A0C94FC290C944646E5
:100380000C94EE030C94F2290C94250411241FBE46
:10039000CFEFD1E2DEBFCDBF00E00CBF12E0A0E0A6
:1003A000B2E0E6E4F3EA00E00BBF02C007900D9272
:1003B000A437B107D9F71FE0A4E7B2E001C01D924E
:1003C000A73CB107E1F70E949F450C94A1510C9402
:1003D0000000CF93DF93EC010E94603A8C1B9D0BD1
:1003E000893027E092071CF080519E4006C0883F6C
:1003F00028EF920714F4805F914F6AE070E00E944A
:10040000EB45CB01DF91CF91089560E071EE80E084
:1004100090E00E94AC420E944A190E9468190E9412
:10042000211C84E690E00E947C0C0E94091E0E9420
:10043000B9360C94E439CF93C0917402C23061F1A3
:1004400028F4CC2361F0C13011F15BC0C43009F451
:100450004EC008F443C0C53009F44EC052C081E01C
:100460000E948204882381F00E94603A9093920255
:10047000809391029093900280938F028FE10E946B
:10048000550F0E94610F2FC0109274023AC00E9453
:10049000AE0F882399F11FC080E20E948204882356
:1004A00019F00E94141E21C0809191029091920235
:1004B0000E94E9010B9714F084E021C08091910221
:1004C000909192020E94E901863F9F4F14F485E0CB
:1004D00016C00E94251EC093740213C080E10E94C2
:1004E0008204882311F081E00AC083E008C00E94E2
:1004F000632182E0809374020E94E92182E080936C
:100500007402CF9108950E948B030E9444040E94BC
:1005100054070E94200B0C944A0C649974C081E02B
:100520008093A7029091AA02992309F4B5C0109272
:10053000AB02659952C081E08093A2029091A5021E
:10054000992309F498C01092A602669932C081E0FE
:100550008093980290919B02992309F47BC010929A
:100560009C026799AAC081E08093930290919602C1
:10057000992309F45EC010929702489912C091E045
:1005800090939D028091A002811110C08091A102E0
:100590008F5F8093A1028091A102843109F4B4C0DD
:1005A00008958091A002813009F49DC01092A102AB
:1005B000089580919B02813091F690919C029F5FFB
:1005C00090939C0290919C02943159F680939A02E8
:1005D00010929B0210929C02C4CF8091A5028130A0
:1005E00009F0B1CF9091A6029F5F9093A6029091DF
:1005F000A602943109F0A9CF8093A4021092A5021B
:100600001092A602A2CF8091AA02813009F08FCF6A
:100610009091AB029F5F9093AB029091AB029431AB
:1006200009F087CF8093A9021092AA021092AB0220
:1006300080CF909197029F5F90939702909197023D
:10064000943109F09ACF809394028093960210928D
:10065000970293CF90919C029F5F90939C02909100
:100660009C02943109F07DCF8093990280939B0284
:1006700010929C0276CF9091A6029F5F9093A60263
:100680009091A602943109F060CF8093A3028093E9
:10069000A5021092A60259CF9091AB029F5F909352
:1006A000AB029091AB02943109F043CF8093A80242
:1006B0008093AA021092AB023CCF809196028130C7
:1006C00009F059CF909197029F5F90939702909174
:1006D0009702943109F051CF8093950210929602BF
:1006E000109297024ACF9091A1029F5F9093A1022E
:1006F0009091A102943109F053CF80939F02109200
:10070000A0021092A102089590939E029093A002DD
:100710001092A10208958FE787B98EE788B91092E9
:10072000A7021092A8021092A9021092AA02109297
:10073000AB021092A2021092A3021092A402109295
:10074000A5021092A602109298021092990210929D
:100750009A0210929B0210929C02109293021092A5
:1007600094021092950210929602109297021092A3
:100770009D0210929E0210929F021092A00210926F
:10078000A102089590E0FC013197E034F10528F4CE
:10079000EA59FF4F0C947047469808954098089581
:1007A000419808954298089543980895449808956B
:1007B0004598089590E0FC013197E034F10528F464
:1007C000EA55FF4F0C947047469A0895409A089551
:1007D000419A0895429A0895439A0895449A089533
:1007E000459A089590E0FC013197E034F10540F41A
:1007F000EA51FF4F0C94704788B190E4892788B97B
:10080000089588B191E0892788B9089588B192E068
:10081000892788B9089588B194E0892788B908950F
:1008200088B198E0892788B9089588B190E189272F
:1008300088B9089588B190E2892788B9089590E031
:10084000FC013197E034F10510F080E00895EA5D95
:10085000FE4F0C94704786B180E0089586B1807297
:1008600090E095958795089586B183FB882780F958
:10087000089586B1807190E09595879595958795B7
:10088000089586B1807408955098589A8DB18F70EC
:100890008DB98EB1806F8EB90895803259F160F4B0
:1008A000813001F18031A1F48091A702882381F089
:1008B0001092A70281E00895803461F0803841F4FD
:1008C00080919302882321F01092930281E0089591
:1008D00080E00895809198028823D1F310929802C5
:1008E00081E0089580919D02882391F310929D02EA
:1008F00081E008958091A202882351F31092A20210
:1009000081E00895803259F160F4813001F1803145
:10091000A1F48091A802882381F01092A80281E0BE
:100920000895803461F0803841F4809194028823E6
:1009300021F01092940281E0089580E00895809162
:1009400099028823D1F31092990281E00895809151
:100950009E02882391F310929E0281E00895809177
:10096000A302882351F31092A30281E008958032FC
:1009700059F160F4813001F18031A1F48091A90234
:10098000882381F01092A90281E00895803461F0FB
:10099000803841F480919502882321F010929502CD
:1009A00081E0089580E0089580919A028823D1F330
:1009B00010929A0281E0089580919F02882391F31A
:1009C00010929F0281E008958091A402882351F340
:1009D0001092A40281E0089590917C00987F9093FA
:1009E0007C0020917C00982F9770922B90937C0034
:1009F000882359F0815020E830E002C035952795D2
:100A00008A95E2F7209522B9089582B18C6F82B958
:100A10000895CF92DF92EF92FF92CF93DF93CDB7FD
:100A2000DEB72E970FB6F894DEBF0FBECDBF8EE0B7
:100A3000E6E6F2E0DE01119601900D928A95E1F76B
:100A400089819A819C01220F331F220F331F220FAD
:100A5000331F281B390B40E050E0C12CB4ECDB2ED7
:100A6000B9E0EB2EF12CC701B6010E94FF452150E1
:100A700031092F3F310509F008F49BC08B819C811F
:100A80009C01220F331F220F331F220F331F281BFD
:100A9000390B40E050E0C701B6010E94FF452150EC
:100AA00031092F3F310509F008F48AC08D819E81FC
:100AB0009C01220F331F220F331F220F331F281BCD
:100AC000390B40E050E0C701B6010E94FF452150BC
:100AD00031092F3F310509F008F474C08F819885E2
:100AE0009C01220F331F220F331F220F331F281B9D
:100AF000390B40E050E0C701B6010E94FF4521508C
:100B000031092F3F310509F008F45EC089859A85C7
:100B10009C01220F331F220F331F220F331F281B6C
:100B2000390B40E050E0C701B6010E94FF4521505B
:100B300031092F3F310509F008F448C08B859C85A9
:100B40009C01220F331F220F331F220F331F281B3C
:100B5000390B40E050E0C701B6010E94FF4521502B
:100B600031092F3F3105A1F198F18D859E859C01BA
:100B7000220F331F220F331F220F331F281B390B65
:100B800040E050E0C701B6010E94FF452150310905
:100B90002F3F3105F9F0F0F02E960FB6F894DEBF36
:100BA0000FBECDBFDF91CF91FF90EF90DF90CF9040
:100BB000089580E02093B3008F5F8093B100ECCF65
:100BC00081E0F8CF82E0F6CF83E0F4CF84E0F2CF8B
:100BD00085E0F0CF86E0EECFEAE7F0E08081806448
:100BE0008083089580917A0082958170089587B3FB
:100BF000869581700895B99B089587B3876087BBF8
:100C00001092B20090919C0380917C00887F809329
:100C10007C0020917C00892F8770822B80937C0040
:100C2000992309F420C12FEF290F80E890E002C03A
:100C3000959587952A95E2F7809582B920E42A95C3
:100C4000F1F780917A00806480937A0080917A0035
:100C500084FFFCCF80917A00806180937A0080913C
:100C6000780090917900E0919C03F0E0EE0FFF1F77
:100C7000E356FC4F91838083E0919C032091AD0269
:100C800030E1E39FF0011124E20FF11DEE0FFF1F91
:100C9000E454FD4F91838083E0919C0380E2E89FC0
:100CA000F0011124E454FD4F80819181E0919C0377
:100CB00020E2E29FF0011124E454FD4F22813381B0
:100CC000820F931FE0919C0330E2E39FF001112417
:100CD000E454FD4F24813581820F931FE0919C03E2
:100CE00020E2E29FF0011124E454FD4F2681378178
:100CF000820F931FE0919C0330E2E39FF0011124E7
:100D0000E454FD4F20853185820F931FE0919C03B1
:100D100020E2E29FF0011124E454FD4F2285338547
:100D2000820F931FE0919C0330E2E39FF0011124B6
:100D3000E454FD4F24853585820F931FE0919C0379
:100D400020E2E29FF0011124E454FD4F268537850F
:100D5000820F931FE0919C0330E2E39FF001112486
:100D6000E454FD4F20893189820F931FE0919C0349
:100D700020E2E29FF0011124E454FD4F22893389DF
:100D8000820F931FE0919C0330E2E39FF001112456
:100D9000E454FD4F24893589820F931FE0919C0311
:100DA00020E2E29FF0011124E454FD4F26893789A7
:100DB000820F931FE0919C0330E2E39FF001112426
:100DC000E454FD4F208D318D820F931FE0919C03E1
:100DD00020E2E29FF0011124E454FD4F228D338D77
:100DE000820F931FE0919C0330E2E39FF0011124F6
:100DF000E454FD4F248D358D820F931FE0919C03A9
:100E000020E2E29FF0011124E454FD4F268D378D3E
:100E1000820F931F929582958F7089279F708927E3
:100E2000E0919C03F0E0EE0FFF1FE255FD4F918330
:100E3000808320919C032630D1F020919C032111C6
:100E400007C02091AC022130E1F08E3A914008F1C8
:100E500080919C0390E0019667E070E00E94EB4572
:100E600080939C03089582B18C6F82B9E7CE209164
:100E7000AD0230E02F5F3F4F2F7033272093AD023C
:100E8000DCCF863D914020F30E94D00A1092AC0244
:100E9000DFCF4EE150E06EE170E085E00E94DD0AB8
:100EA00081E08093AC02D4CFCF92DF92EF92FF9299
:100EB000CF93DF93CDB7DEB72E970FB6F894DEBF92
:100EC0000FBECDBF87E880937A0010927B0010920E
:100ED0007C0010927E0010927D008CEF81B982B967
:100EE00086E692E090939E0380939D039093AF02D9
:100EF0008093AE029093BD028093BC029093BF0298
:100F00008093BE029093C1028093C0029093C3026B
:100F10008093C2029093C5028093C4029093C7024B
:100F20008093C6029093C9028093C8029093CB022B
:100F30008093CA029093CD028093CC029093CF020B
:100F40008093CE029093D1028093D0029093D302EB
:100F50008093D2029093D5028093D4029093D702CB
:100F60008093D6029093D9028093D8029093DB02AB
:100F70008093DA029093A00380939F039093B10231
:100F80008093B0029093DD028093DC029093DF02A5
:100F90008093DE029093E1028093E0029093E3025B
:100FA0008093E2029093E5028093E4029093E7023B
:100FB0008093E6029093E9028093E8029093EB021B
:100FC0008093EA029093ED028093EC029093EF02FB
:100FD0008093EE029093F1028093F0029093F302DB
:100FE0008093F2029093F5028093F4029093F702BB
:100FF0008093F6029093F9028093F8029093FB029B
:101000008093FA029093A2038093A1039093B3027A
:101010008093B2029093FD028093FC029093FF02B2
:101020008093FE0290930103809300039093030347
:101030008093020390930503809304039093070326
:1010400080930603909309038093080390930B0306
:1010500080930A0390930D0380930C0390930F03E6
:1010600080930E03909311038093100390931303C6
:1010700080931203909315038093140390931703A6
:1010800080931603909319038093180390931B0386
:1010900080931A039093A4038093A3039093B502C3
:1010A0008093B40290931D0380931C0390931F03BD
:1010B00080931E0390932103809320039093230336
:1010C0008093220390932503809324039093270316
:1010D00080932603909329038093280390932B03F6
:1010E00080932A0390932D0380932C0390932F03D6
:1010F00080932E03909331038093300390933303B6
:101100008093320390933503809334039093370395
:1011100080933603909339038093380390933B0375
:1011200080933A039093A6038093A5039093B7020C
:101130008093B60290933D0380933C0390933F03CA
:1011400080933E0390934103809340039093430325
:101150008093420390934503809344039093470305
:1011600080934603909349038093480390934B03E5
:1011700080934A0390934D0380934C0390934F03C5
:1011800080934E03909351038093500390935303A5
:101190008093520390935503809354039093570385
:1011A00080935603909359038093580390935B0365
:1011B00080935A039093A8038093A7039093B90256
:1011C0008093B80290935D0380935C0390935F03D8
:1011D00080935E0390936103809360039093630315
:1011E00080936203909365038093640390936703F5
:1011F00080936603909369038093680390936B03D5
:1012000080936A0390936D0380936C0390936F03B4
:1012100080936E0390937103809370039093730394
:101220008093720390937503809374039093770374
:1012300080937603909379038093780390937B0354
:1012400080937A039093AA038093A9039093BB029F
:101250008093BA0290937D0380937C0390937F03E5
:1012600080937E0390938103809380039093830304
:1012700080938203909385038093840390938703E4
:1012800080938603909389038093880390938B03C4
:1012900080938A0390938D0380938C0390938F03A4
:1012A00080938E0390939103809390039093930384
:1012B0008093920390939503809394039093970364
:1012C00080939603909399038093980390939B0344
:1012D00080939A0310929C031092AD021092AC027C
:1012E00082E08093B0001092B2001092700087E00C
:1012F00087BB8EE0E6E6F2E0DE01119601900D92EA
:101300008A95E1F789819A819C01220F331F220F70
:10131000331F220F331F281B390B40E050E0C12C34
:1013200064ECD62E69E0E62EF12CC701B6010E94CE
:10133000FF45215031092F3F310509F008F49BC0CA
:101340008B819C819C01220F331F220F331F220FA0
:10135000331F281B390B40E050E0C701B6010E9443
:10136000FF45215031092F3F310509F008F48AC0AB
:101370008D819E819C01220F331F220F331F220F6C
:10138000331F281B390B40E050E0C701B6010E9413
:10139000FF45215031092F3F310509F008F474C091
:1013A0008F8198859C01220F331F220F331F220F3C
:1013B000331F281B390B40E050E0C701B6010E94E3
:1013C000FF45215031092F3F310509F008F464C071
:1013D00089859A859C01220F331F220F331F220F0C
:1013E000331F281B390B40E050E0C701B6010E94B3
:1013F000FF45215031092F3F310509F008F44AC05B
:101400008B859C859C01220F331F220F331F220FD7
:10141000331F281B390B40E050E0C701B6010E9482
:10142000FF45215031092F3F310591F188F18D851C
:101430009E859C01220F331F220F331F220F331F63
:10144000281B390B40E050E0C701B6010E94FF4560
:10145000215031092F3F3105C9F0C0F02E960FB64B
:10146000F894DEBF0FBECDBFDF91CF91FF90EF901C
:10147000DF90CF90089580E02093B3008F5F80933A
:10148000B100ECCF81E0F8CF82E0F6CF86E0F4CF78
:1014900085E0F2CF84E0F0CF83E0EECFE82FF0E0FC
:1014A000EE0FFF1FE356FC4F808191810895E82FD6
:1014B000F0E0EE0FFF1FE255FD4F8081918108950E
:1014C000C19B11C0C19A1092950010929400809116
:1014D0007902811109C08091B203813081F080913D
:1014E000AB03813061F008958091B203813019F12E
:1014F0008091AB038130F9F010927902089581E078
:10150000809379028091AC039091AD030197909301
:101510007802809377022091AE033091AF0330932D
:10152000760220937502892BF1F6809180008F73EB
:1015300080938000089580917702909178020097BF
:1015400041F001979093780280937702892B59F6A6
:10155000ECCF8091750290917602009731F001975F
:1015600090937602809375020895809180008F7B1E
:1015700080938000809180008068809380008091BB
:10158000AC039091AD0390937802809377028091A1
:10159000AE039091AF039093760280937502089505
:1015A0008091AB03813009F00895809180008F73A2
:1015B000809380001092AB0308959091AB03992320
:1015C00059F19130A9F11092870090E0FC01ED549F
:1015D000FC4F20812093860010928900208126955F
:1015E000209388007093AD036093AC035093AF03D6
:1015F0004093AE039093B1038093B0038091800039
:101600008F7B809380008091800080688093800031
:1016100081E08093AB0308959091B203913099F6E5
:10162000909180009F73909380001092B203CBCF73
:10163000909180009F73909380001092AB03C3CF72
:10164000259A2D9810926F009FE296BB109285000C
:1016500010928400E0E8F0E0108280818E7F808329
:10166000808182608083E1E8F0E010828081886080
:10167000808380818061808310928900109288002D
:101680008081887F80838081856080831092710053
:1016900098BB1092950010929400E0E9F0E010825F
:1016A00080818E7F808380818D7F8083E1E9F0E07F
:1016B000108280818860808380818F7E808398E122
:1016C000909399008AE6809398008081887F808338
:1016D0008081846080838DE18093B3038AE180936D
:1016E000B4039093B50386E18093B60384E18093BD
:1016F000B70382E18093B80380E18093B90310922D
:10170000B2031092AB0381E090E09093AD0380931D
:10171000AC039093AF038093AE031092B103109289
:10172000B00308959091AB0391112CC09091B20336
:10173000911128C01092870090E0FC01ED54FC4FFD
:101740002081209386001092890020812695209385
:1017500088009093B1038093B0037093AD036093BE
:10176000AC035093AF034093AE03809180008F7B16
:10177000809380008091800080688093800081E069
:101780008093B20308959091AB03911104C090919E
:10179000B203913009F008951092870090E0FC01A7
:1017A000ED54FC4F20812093860010928900208107
:1017B0002695209388009093B1038093B0030895F9
:1017C0002091AB03211104C02091B203213009F014
:1017D00008959093AD038093AC0308952091AB03DB
:1017E000211104C02091B203213009F00895909393
:1017F000AF038093AE0308958091AB03811104C0C1
:101800008091B203813009F00895809180008F7338
:10181000809380001092B20308958091B2030895DE
:101820008091AB030895D19B19C0D19A10922501E4
:10183000109224014091C00380917A0290917B0222
:10184000413069F02091BA033091BB0382179307AE
:10185000C9F0019690937B0280937A0208952091BB
:10186000BD033091BE038217930799F710927B0254
:1018700010927A024093BC0380912101887F80936B
:101880002101089510927B0210927A0281E08093E8
:10189000BF030895109273008FE28ABB1092250156
:1018A00010922401E0E2F1E0108280818E7F80833B
:1018B00080818D7F8083E1E2F1E010828081886009
:1018C000808380818F7E808388E1809329018AE6EE
:1018D000809328018081887F80831092C0031092BA
:1018E000BE031092BD031092BB031092BA03109274
:1018F000BC031092BF0308951092C0039C0136955B
:10190000279536952795ABE7B4E10E94CA45969591
:1019100087959093BB038093BA031092BF031092F4
:101920002501109224018FE28ABBE1E2F1E080817F
:10193000887F8083808184608083089521E0209364
:10194000C0039C013695279536952795ABE7B4E102
:101950000E94CA45969587959093BE038093BD03D8
:101960001092BC0310922501109224018FE28ABBD1
:10197000E1E2F1E08081887F8083808184608083E0
:1019800008958091BF03813011F080E00895109296
:10199000BF0308958091BC03813011F080E0089569
:1019A0001092BC030895E1E2F1E08081887F80839A
:1019B000D19A10922501109224011092BF03109227
:1019C000BC030895109272008FE289BB1092A500AB
:1019D0001092A400E0EAF0E0108280818E7F808384
:1019E00080818D7F8083E1EAF0E0108280818860D1
:1019F000808380818F7E80838DE38093A90088E03F
:101A00008093A8008081887F80838081826080832A
:101A10000895C99B07C0C99A1092A5001092A4000E
:101A200081E0089580E00895CF92DF92EF92FF92D7
:101A30000F931F93CF93DF931F921F92CDB7DEB703
:101A4000CE0101960E944419E1EBF4E0C980DA80EE
:101A5000F12C61E070E0B5E0EB2E1DC09C012E532F
:101A60003C4FD901EC929C012D533C4FD901EC9293
:101A70009A01220F331F2E5B3B4F8E539C4FD9018F
:101A80008D939C93F3947096B2E0CB0ED11C86E0BC
:101A9000E13BF807C9F180818823A9F3D6012D9194
:101AA0003C91CF010797DC018D919C91280F391F44
:101AB0004F2D50E0CA01880F991F880F991F8C0184
:101AC0000C531C4FD8012C938C010B531C4FD80185
:101AD0003C939F0121503109D9012C91222309F413
:101AE000BDCF2F70DB0102C0AA0FBB1F2A95E2F702
:101AF0009D018C010E531C4FD8012C938C010D536A
:101B00001C4FD8012C93B4CFFF2061F002E414E005
:101B100024E030E04CE150E062E874E08091C103E1
:101B20000E94E3400F900F90DF91CF911F910F9192
:101B3000FF90EF90DF90CF90089590E1899FF001A2
:101B40001124EE55FB4F6687089590E1899FF001BF
:101B50001124EE55FB4F8685089590E1899FF00191
:101B60001124EE55FB4F71876087089590E1899F9E
:101B7000F0011124EE55FB4F80859185089590E189
:101B8000899FF0011124EE55FB4F8785089590E160
:101B9000899FF0011124EE55FB4F8285089590E155
:101BA000899FF0011124EE55FB4F84850895C99B50
:101BB00015C0C99A1092A5001092A4000E94B636D2
:101BC00081110DC00E94B10F0E947D180E94FE304D
:101BD0000E94B636811106C00C94140D08950E941F
:101BE0003336F0CF0E943D36F7CF2F923F924F927F
:101BF0005F926F927F928F929F92AF92BF92CF929D
:101C0000DF92EF92FF920F931F93CF93DF9300D059
:101C1000CDB7DEB7782E19820E94B03E882309F432
:101C200033C12FEF89E698E1215080409040E1F7E1
:101C300000C000002981222331F1E2EAF4E061EBE7
:101C400074E02150A0E12A9F900111242E543B4FB3
:101C500045E011821082138212821582148217824B
:101C6000168211861086DB011C92CB010197DC01E4
:101C70004C9313861286158614867096605F7F4F8C
:101C8000E217F30731F762E874E0CE0101960E9493
:101C9000053F1092C1038981882309F466C0312C65
:101CA0001CE2A12EBB24B394CC24CA9403E0D02E12
:101CB000E12C82E0F82E5524539495E0692E22E021
:101CC000422E09C081159C4009F4A2C03394898139
:101CD000381608F048C0E32DF0E0EE57FB4F2080A7
:101CE000822D0E940C3D8C30910521F08C32B1E0A8
:101CF0009B0741F7822D0E94EA33E0E12E9E4001CE
:101D0000112484010E551B4FD8011196BC92AE923E
:101D10001396DC92CE92129715961C921E921497EF
:101D20001796FC92EE921697822D0E944735F80185
:101D300091878087A40142555B4FB40164557B4F66
:101D4000822D0E946E32D8011F965C921F971E96BC
:101D50006C928091C1038F5F8093C103339489811A
:101D6000381608F4B8CF8091C103781609F489C0F9
:101D700044E650E06AE070E084E00E94DD0A1092E0
:101D800072008FE289BB1092A5001092A4001092FD
:101D9000A0008091A0008E7F8093A0008091A00081
:101DA0008D7F8093A0001092A1008091A100886097
:101DB0008093A1008091A1008F7E8093A1008DE38C
:101DC0008093A90088E08093A8008091A100887F7B
:101DD0008093A1008091A10082608093A1000E9465
:101DE000470F89810F900F900F90DF91CF911F9136
:101DF0000F91FF90EF90DF90CF90BF90AF909F90AA
:101E00008F907F906F905F904F903F902F900895AC
:101E1000822D0E94EA33E0E12E9EB00111248B0155
:101E20000E551B4FE4EBF0E0D8011196FC93EE93B6
:101E30001396DC92CE92129715961C921E921497CE
:101E40001796FC92EE921697822D6A837B830E94EE
:101E50004735D80119969C938E9318976A817B8198
:101E6000AB0142555B4F64557B4F822D0E946E3211
:101E7000F801478666868091C1038F5F8093C10316
:101E800025CF0E94D00A7BCF0E947A3ECACE109204
:101E90001E0C1092600B8FEF8093600C80935F0993
:101EA00080931D0C10925F0C0895CF93C82F60E6AD
:101EB00079E00E943718811102C0C0935F09CF9169
:101EC000089510921E0C1092A00B10929F0B10926E
:101ED0005E0910925D0910925E0C10925D0C83E019
:101EE0008093000D10921D0C80916F0980935C0906
:101EF0001092600CE1EBF4E080E090E006C0709698
:101F0000029626E0E13BF20709F120812130B9F782
:101F1000DF0117972D913C91DC01A15EB34F2D930A
:101F20003C93DC01AE53B34F1D921C92DC01A152D5
:101F3000B44F1D921C92DC01AE55B94F1D921C92FC
:101F40007096029626E0E13BF207F9F681E0809375
:101F50005F0C089581E08093600B089580915F0C81
:101F600008952F923F924F925F926F927F928F923D
:101F70009F92AF92BF92CF92DF92EF92FF920F9318
:101F80001F93CF93DF93CDB7DEB7A3970FB6F89427
:101F9000DEBF0FBECDBF80915F0C882309F49AC0CD
:101FA00080919F0B9091A00B40915D0950915E092B
:101FB0008417950708F0A7C08C010F5F1F4F1A8781
:101FC00009871093A00B00939F0B1091000D1D87A4
:101FD000133009F47FC080915D0990915E098C01F6
:101FE00020E030E0098B1A8B2B8B3C8B8C0101504D
:101FF00011091E8B0D8B02E81CE07AEAA72E74E013
:10200000B72EE0EECE2EE6E0DE2EF2ECEF2EFCE078
:10201000FF2EA2EA4A2EA6E05A2EB1E66B2EBBE0B6
:102020007B2E812C912C80E090E0212C312C9BA3E5
:102030008AA3C201230194014801A60167017A0124
:1020400089013C0121C0BFEF2B1A3B0AEAA1FBA189
:102050007096FBA3EAA3F2E08F0E911C0E5F1F4F58
:1020600020E1A20EB11C32E0E30EF11C42E0C40EEE
:10207000D11C52E0650E711C62E0460E511C8AA113
:102080009BA18115924031F12AA13BA12E553B4FD6
:102090003A832983D9011F968C918130A1F6F801EA
:1020A000E152F44F80819181892B09F06FC0F401D6
:1020B00080819181D5018D939C93F101E05AF64F77
:1020C00080A1A981BA811E968C93BDCF10925F0C1E
:1020D0001092600BA3960FB6F894DEBF0FBECDBF73
:1020E000DF91CF911F910F91FF90EF90DF90CF90F4
:1020F000BF90AF909F908F907F906F905F904F9028
:102100003F902F9008951092A00B10929F0BE1EB3F
:10211000F4E080E090E006C07096029606E0E13BB5
:10212000F007E1F020812130B9F7DF0117972D91F9
:102130003C91DC01AE57B34F2D933C93DC01AE557F
:10214000B94F2D913C91DC01AE53B34F2D933C938D
:102150007096029606E0E13BF00721F78091000DB2
:10216000882309F4C7C0813009F492C1823009F490
:102170005BC1833009F42CC25E874D8780E090E01C
:10218000DA018A179B0708F0A5CF16CFBD85B111DC
:102190004AC0F6010190F081E02DF88BEF87F7013E
:1021A000A081B1812F853889A21BB30B29853A857F
:1021B0000E94D94529893A894B895C890E94214628
:1021C0008F859889820F931FD3018D939C93D9019A
:1021D000B595A795EF85F889AE0FBF1F29853A857C
:1021E0000E94D9459B01AC01A0E9B0E00E94E04506
:1021F0002FE030E040E050E00E94214669E0559534
:102200004795379527956A95D1F7F801E25EF64F25
:1022100031832083D4018D919C91820F931FF5010E
:10222000918380834ACFB13009F448C029853A852B
:102230004D895E892417350709F421C1F101EF5951
:10224000F34F808181113AC0F6010190F081E02DB9
:10225000F88BEF87DF01B195A195B10929853A8502
:102260000E94D94529893A894B895C890E94214677
:102270008F859889820F931FD3018D939C93D901E9
:10228000B595A795EF85F889AE0FBF1F29853A85CB
:102290000E94D9459B01AC01A0E9B0E00E94E04555
:1022A0002FE030E040E050E00E94214699E0559553
:1022B0004795379527959A95D1F7ACCFF201A08134
:1022C000B18129853A850E94D94529893A894B8966
:1022D0005C890E942146D4018D919C91820F931FAD
:1022E000F50191838083D7018D919C91F3019183B6
:1022F0008083E3CE81E08093000D2091C00C30916B
:10230000C10C0091800C1091810C1A830983C801C3
:10231000880F991F8901081B190B1E870D871093C1
:102320005E0900935D0909811A812017310709F4BC
:10233000E5C0A801BFED2B2EBBE03B2E1EE1612EB8
:1023400019E0712E00EE802E06E0902E81E6482ED8
:102350008BE0582E01E61CE061EB74E0C901841BA0
:10236000950B9C0140E050E029873A874B875C87BA
:1023700095E0C92ED12CE12CF12C788B6F8719C0F8
:10238000EF85F8897096F88BEF87F2E02F0E311CFD
:1023900022E0620E711C32E0830E911C42E0440E7A
:1023A000511C0F5F1F4F6F857889615B764009F480
:1023B0004BC0AF85B8898C91813011F7F8018081CD
:1023C000813009F446C0F401A081B181F101A080FF
:1023D000B180F30180819181A81AB90A29813A81DB
:1023E0000E94D9459B01AC01660F771F881F991F7A
:1023F000620F731F841F951F660F771F881F991F19
:10240000660F771F881F991FA70196010E9421461A
:10241000BB2757FDBA95A52F942F832FA81AB90A69
:10242000D201AD92BC92ACCF80915D0C90915E0CCC
:10243000009709F4E1C023E02093000D90935E091A
:1024400080935D099E878D8780E090E0AD85BE8595
:1024500098CEF101A081B181F30180819181A81B07
:10246000B90B2D853E850E94D94529853A854B8536
:102470005C850E942146D2012D933C9381CFF801C7
:10248000E15EF34F80819181D5018D939C9315CEB0
:1024900082E08093000D7091800C6091810C7093AC
:1024A0005D0960935E09A1E6BBE0E1EBF4E080E04A
:1024B00090E08D0109C0709602960E5F1F4FB6E046
:1024C000E13BFB0709F47DC020812130A1F79C018D
:1024D0002152344FD9012D913C91D8014D915C91FD
:1024E000241B350BAC01425E564FDA014D915C91D5
:1024F000241B350BD8012D933C93DDCFB1E6CB2EB9
:10250000BBE0DB2E11E6E12E1CE0F12E81EB94E026
:1025100000E010E045E0442E512C612C712C490163
:102520001C0111C0F0E12F0E311C22E0C20ED11CA3
:102530000E5F1F4F3FEFE31AF30A41EB241646E00C
:10254000340609F481CFD1018C91813059F7F7011C
:1025500080818130C9F1F801E052F94FA081B18149
:10256000F801E152F44FA080B180F801E25EF64F2D
:1025700080819181A81AB90A94010E94D9459B01D2
:10258000AC01660F771F881F991F620F731F841F8E
:10259000951F660F771F881F991F660F771F881F6B
:1025A000991FA30192010E942146BB2757FDBA95AE
:1025B000A52F942F832FA81AB90AF601B182A08201
:1025C000B1CF7D876E8740CFD6011D921C92AACFD6
:1025D0001092000DA2ECBCE0E1EBF4E006C07096B6
:1025E000129606E0E13BF00749F080818130B9F7AF
:1025F00011961C921E92F3CF1092000D80911E0C2A
:10260000813009F463CD80911D0C8F5F80931D0C88
:10261000A0917409A81708F0C8C080E092E0EEE12C
:10262000F7E0A0E6B9E001900D920197E1F7809103
:10263000600C90915F09981721F090916F09909329
:102640005C0991E090931D0C80935F09A09174093F
:10265000B1E0AB1709F484C26B2F70E08B0101501D
:102660001109002416950795079416950795079468
:10267000102F002DA801405A564FFA01E258FF4F83
:10268000808120917609289FC00111249695879515
:10269000929582958F7089279F70892790935E0C01
:1026A00080935D0CFA01E158FF4F3081329F900119
:1026B000112436952795329522952F7023273F7048
:1026C00023272115310511F421E030E040911E0C43
:1026D000413009F45EC2892B09F4C4C1AB1709F477
:1026E00056C3E1E64E2EECE05E2EAFE1BCE07B018E
:1026F0000024F694E7940794F694E7940794FE2C4C
:10270000E02CA7014056564F7A0180EC582F560313
:102710004001579F900C1124E1EBF4E080E090E041
:1027200059013D01A70168010EC07096BFEF4B1A19
:102730005B0A029602E0600E711C4E5F5F4F16E06E
:10274000E13BF107A1F12081213079F79C01225E64
:10275000364FD9011D921C929A01280D391D2C0D5E
:102760003D1DD9012D913C9136FF18C0D3012D910B
:102770003C91B901E12CF12C8C010E57134FD8017B
:102780006D937C93D3012D933C939C012152344F44
:10279000D901ED92FC92D2011C92C7CFD3016D9169
:1027A0007C917901E61AF70AE7CFB82F52CF95014D
:1027B0003093C10C2093C00C8091780990E0AC015B
:1027C000440F551F4217530708F4E0C0C901019791
:1027D000969587959093810C8093800C009709F0D3
:1027E000D9C01092C10C1092C00C1E861D86198291
:1027F0001A821B821C821D821E821F82188661E043
:102800006F87412C512C198A1D8A1F8A188E198EA8
:1028100071E07A8F1B8E1C8E1D8E1E8E1F8E18A24D
:1028200019A270EE872E76E0972EE1E66E2EECE090
:102830007E2E01EB14E0212C312C1BA30AA315C022
:102840000AA11BA1005F1F4F1BA30AA312E0810E68
:10285000911C22E0220E311C3FEF631A730A4AA139
:102860005BA1415B564009F484C0AAA1BBA18C9135
:10287000813031F7F101EE53F34F31812081932FF5
:10288000990F990BA980BA80CB80DC80ED80FE8007
:102890000F811885492F592F692F792F892F0E9471
:1028A000774659016A017B018C01F101E152F44F35
:1028B000A081B18120E03AE00E94D9452CE030E0CF
:1028C00040E050E00E942146DA01C901550F220B79
:1028D000322FA90129873A874B875C87F301208132
:1028E000211122C09C01AD016985762F862F962F7C
:1028F0000E949847AA8CBB8CCC8CDD8CEE8CFF8C14
:1029000008A119A10E943A46D4012C9311963C9338
:10291000822F932F8115F4E09F070CF1EFEFF3E086
:10292000D401ED93FC938CCF9C01AD016985762F8A
:10293000862F962F0E949847AF84B42CC52CD98837
:10294000ED88FF88088D198D0E943A46F401208396
:102950003183822F932F8115F4E09F07FCF681309D
:102960009C4F0CF06DCFE1E0FCEFD401ED93FC93B4
:1029700067CF8D859E8590935E0980935D098091D8
:102980009F0B9091A00BAD85BE85FBCB9093810CE6
:102990008093800C4901A12CB12C880C991CAA1C95
:1029A000BB1CC12CD12C76019E878D87A0E0B0E0A6
:1029B000880F991FAA1FBB1F8C019D0140E050E0AA
:1029C000BA0189831A832B833C834D835E836F8393
:1029D00078879401A501B601C7015801CB80DC803E
:1029E000E12CF12C00E010E00E94984701E00E94E9
:1029F0007647722E832E942EB52F662E372EF82F03
:102A0000E92F00E00E948F472F87432E542E598BC9
:102A10006D8B7F8B888F998F7A8E8B8E9C8EBD8FDE
:102A20006E8E3F8EF8A3E9A3452DA0E00E94A1473A
:102A300049F411E01F87412C512C198A1D8A1F8AE5
:102A4000188E198E272D382D492D5B2F662D732D4D
:102A50008F2F9E2FA0E00E94A14709F0E2CE21E037
:102A60002A8FD8CEAB1709F42AC1A1E6EA2EACE032
:102A7000FA2EBFE14B2EBCE05B2EDB010024B695A5
:102A8000A7950794B695A7950794BA2FA02DA056A1
:102A9000B64F80EC482F46034001479F900C11240D
:102AA000E1EBF4E080E090E0772473945901A70112
:102AB0001D0168010FC070964F5F5F4F0296B2E034
:102AC0004B0E511C02E0200E311C16E0E13BF107D9
:102AD00009F46DCE2081213071F79C01225E364FC2
:102AE000D9011D921C929101280D391D2C0D3D1DFF
:102AF000D9012D913C9136FF2CC0D2012D913C91F2
:102B0000B901E12CF12C8C010E57134FD8016D93B4
:102B10007C93D2012D933C938C010152144FD80128
:102B2000ED92FC92D1010D911C9116FD0FC0621720
:102B3000730730F42017310718F4DA017C92BBCF09
:102B40002617370718F402171307B8F3DA011C9297
:102B5000B2CFD2016D917C917901E61AF70AD3CFF9
:102B60008091600B813009F4A0C080915C09815094
:102B700080935C09882309F493C080915F09809356
:102B8000600C811169C081E080931E0CB0911D0C16
:102B900063CD892B09F046C1AB1709F4F5C141E6B5
:102BA000442E4CE0542EAFE1BCE07B010024F694AF
:102BB000E7940794F694E7940794FE2CE02CA70181
:102BC0004056564F7A0180EC582F56034001579FCC
:102BD000900C1124E1EBF4E080E090E059013D011C
:102BE000A7010FC07096BFEF4B1A5B0A029622E056
:102BF000620E711C4E5F5F4F36E0E13BF30709F454
:102C0000D6CD2081213071F79C01225E364FD9014B
:102C10001D921C929A01280D391D200F311FD901D8
:102C20002D913C91D30136FF35C02D913C91790116
:102C3000C12CD12CBC016E57734FDB01ED92FC927D
:102C4000D3012D933C939C012152344FD901CD9255
:102C5000DC92D2011C92C6CF90915F0998132AC0D2
:102C600080E092E0E0E6F9E0AEE1B7E001900D929D
:102C70000197E1F780912D07882321F08091320799
:102C8000811103C081E080931E0CB0911D0CA091B6
:102C90007409E2CCED90FC906901CE18DF08CACF30
:102CA000809179098093600C6CCF80917A09809330
:102CB000600C67CF6EE177E00E943718DBCF41E60A
:102CC0005CE0AFE1BCE0005A164FE1EBF4E080E0DD
:102CD00090E0BB24B39469013A014D010DC0709698
:102CE000BFEF6B1A7B0A029622E0820E911C36E03F
:102CF000E13BF30709F449C04081413081F7AC0161
:102D0000425E564FDA011D921C92A801480F591FCE
:102D1000405C5F4FDA014D915C9156FF2FC0D401AA
:102D20004D915C91BA01E12CF12C9C012E57334F4F
:102D3000D9016D937C93D4014D935C939C012152F6
:102D4000344FD901ED92FC929C01225A384FD9019F
:102D5000ED90FC90F6FC0FC06417750730F44E152B
:102D60005F0518F4D301BC92BACF4617570718F481
:102D7000E416F506B8F3D3011C92B1CFD4016D91DE
:102D80007C917A01E61AF70AD0CF960111CD41E67F
:102D90005CE0AFE1BCE0005A164FE1EBF4E080E00C
:102DA00090E04A0169015D010CC07096BFEF8B1A7B
:102DB0009B0A029622E0A20EB11C36E0E13BF3072B
:102DC00021F34081413089F7AC01425E564FDA0170
:102DD0001D921C92A801480F591F405C5F4FDA01F9
:102DE0004D915C91D50156FF17C04D915C91BA0190
:102DF000E12CF12C9C012E57334FD9016D937C931C
:102E0000D5014D935C93AC014152544FDA01ED92E0
:102E1000FC92D4011C92C9CF6D917C917A01E61A83
:102E2000F70AE8CFAB1709F465C081E6482E8CE0BD
:102E3000582EAFE1BCE07B010024F694E7940794A0
:102E4000F694E7940794FE2CE02CC7018056964F29
:102E50007C0180EC482F46034001479F900C1124D1
:102E6000E1EBF4E080E090E059013D01A701780139
:102E70000FC07096BFEF4B1A5B0A029602E0600E1D
:102E8000711C4E5F5F4F16E0E13BF10709F48FCCF8
:102E90002081213071F79C01225E364FD9011D92AD
:102EA0001C929A01280D391D2E0D3F1DD9012D911F
:102EB0003C9136FF18C0D3012D913C91B901C12C32
:102EC000D12C8C010E57134FD8016D937C93D301F5
:102ED0002D933C939C012152344FD901CD92DC9229
:102EE000D2011C92C6CFD3016D917C916901C61AA3
:102EF000D70AE7CFAFE1BCE041E65CE0005A164FED
:102F0000E1EBF4E080E090E05D014A010DC07096D5
:102F10000296B2E0AB0EB11C4FEF841A940A56E051
:102F2000E13BF50709F444CC4081413081F7AC0125
:102F3000425E564FDA011D921C92A801480F591F9C
:102F4000405C5F4FDA014D915C91D50156FF16C090
:102F50004D915C91BA01E12CF12CDC01AE57B34FDD
:102F60006D937C93D5014D935C93AC014152544FCA
:102F7000DA01ED92FC92D4011C92C9CF6D917C9143
:102F80007A01E61AF70AE9CFAFE1BCE041E65CE07E
:102F9000005A164FE1EBF4E080E090E05D014A0159
:102FA0000DC070960296B2E0AB0EB11C4FEF841AC2
:102FB000940A56E0E13BF50709F4FACB4081413031
:102FC00081F7AC01425E564FDA011D921C92A801B6
:102FD000480F591F405C5F4FDA014D915C9156FFDD
:102FE00017C0D5014D915C91BA01E12CF12CDC01A7
:102FF000AE57B34F6D937C93D5014D935C93AC0169
:103000004152544FDA01ED92FC92D4011C92C9CF87
:10301000D5016D917C917A01E61AF70AE8CFFC019F
:1030200020E030E090E08191980F2F5F3F4F211515
:1030300082E03807C1F781E0911180E0089520E037
:1030400032E0FC01A901119241505040E1F708958E
:10305000FB0120E030E0DC01A20FB31F4C91419353
:103060002F5F3F4F211542E03407A9F70895EF92F3
:10307000FF920F931F93CF93DF93F62EE72E082F27
:1030800010E020E030E000511F4F2F4F3F4F89E00C
:10309000000F111F221F331F8A95D1F7C62FD72F7C
:1030A00080E090E0DC01AC01BD01400F511F621FC8
:1030B000731F6BBFFA01479149930196A11DB11D82
:1030C000811542E09407A105B10569F7EF2DFE2DAA
:1030D00020E080E090E03191230F0196811532E0ED
:1030E0009307C9F781E0211180E08195DF91CF91AD
:1030F0001F910F91FF90EF9008954F925F926F9202
:103100007F928F929F92AF92BF92CF92DF92EF9277
:10311000FF921F93CF93DF938091430D813081F015
:10312000DF91CF911F91FF90EF90DF90CF90BF90F4
:10313000AF909F908F907F906F905F904F90089589
:103140001091010D113061F783E00E944E0A209129
:10315000460D3091470D7C01E21AF30A84E00E948B
:103160004E0A2091440D3091450DEC01C21BD30B4A
:1031700088E3E8168FEFF8060CF479C089ECE816BE
:10318000F10414F01093020DB701882777FD8095A4
:10319000982F0E94C0486B017C0126E234EB47E186
:1031A0005DE30E9470492B013C0129E33EE843EEB8
:1031B0005DE3C701B6010E9470494B015C01BE018D
:1031C000882777FD8095982F0E94C0486B017C016D
:1031D0002DEC3CEC4CEC5DE30E9470490E9492485F
:1031E0007093140D6093130D7093160D6093150D6D
:1031F000C301B2010E9492489B012E5131093093C4
:103200001A0D2093190D625E7F4F70931C0D609311
:103210001B0DC301B20190580E94924870931E0D7D
:1032200060931D0DC501B4010E9492487093200D5A
:1032300060931F0DC501B40190580E94924870938D
:10324000220D6093210D2DEC3CEC4CE45DE3C701B5
:10325000B6010E94704990580E9492487093240DC4
:103260006093230D7093260D6093250D59CF82E056
:103270008093020D89CFE82FF0E0EE0FFF1FED5F86
:10328000F24F80819181089523E03DE0FC0131837C
:10329000208308951092470D1092460D1092450D0F
:1032A0001092440D1092010D1092430D1092020DD8
:1032B00080E4E3E0FDE0DF011D928A95E9F70895DF
:1032C0008091020D1092020D08951092020D089542
:1032D0002F923F924F925F926F927F928F929F9226
:1032E000AF92BF92CF92DF92EF92FF920F931F9314
:1032F000CF93DF93CDB7DEB7E4970FB6F894DEBF78
:103300000FBECDBF1092470D1092460D1092450D85
:103310001092440D82E390E00E947C0C7E0185E1D6
:10332000E80EF11CFE013196FAA7E9A71E01F9E2A9
:103330002F0E311C812C912C54012401350104C025
:103340000E94130C0E94FB050E94C10C8823C1F34C
:1033500083E00E944E0A8C01F701819391937F01D3
:1033600084E00E944E0A6C01E9A5FAA5819391932D
:10337000FAA7E9A7B80180E090E00E94BE489B014F
:10338000AC01C301B2010E94C2472B013C01B6014E
:1033900080E090E00E94BE489B01AC01C501B401F1
:1033A0000E94C2474B015C01E214F30469F60E94DB
:1033B000D30C20E030E040E251E4C301B2010E94AE
:1033C0002A486B017C0120E030E040E251E4C50175
:1033D000B4010E942A4869A77AA78BA79CA76D8988
:1033E0007E8980E090E00E94BE48A70196010E947D
:1033F000C1479B01AC010E94704920E030E0A90167
:103400000E94C2472B013C0169817A8180E090E0F3
:103410000E94BE4829A53AA54BA55CA50E94C147BC
:103420009B01AC010E94704920E030E0A9010E949C
:10343000C2474B015C016F89788D80E090E00E946B
:10344000BE48A70196010E94C1479B01AC010E94A2
:103450007049A30192010E94C2472B013C016B817C
:103460007C8180E090E00E94BE4829A53AA54BA54A
:103470005CA50E94C1479B01AC010E9470499B0161
:10348000AC01C501B4010E94C2474B015C01698DCA
:103490007A8D80E090E00E94BE48A70196010E94CC
:1034A000C1479B01AC010E9470499B01AC01C30163
:1034B000B2010E94C2472B013C016D817E8180E0F8
:1034C00090E00E94BE4829A53AA54BA55CA50E94A4
:1034D000C1479B01AC010E9470499B01AC01C50131
:1034E000B4010E94C2474B015C016B8D7C8D80E072
:1034F00090E00E94BE48A70196010E94C1479B012F
:10350000AC010E9470499B01AC01C301B2010E9451
:10351000C2472B013C016F81788580E090E00E94DA
:10352000BE4829A53AA54BA55CA50E94C1479B01B1
:10353000AC010E9470499B01AC01C501B4010E941D
:10354000C2474B015C016D8D7E8D80E090E00E9452
:10355000BE48A70196010E94C1479B01AC010E9491
:1035600070499B01AC01C301B2010E94C2472B010B
:103570003C0169857A8580E090E00E94BE4829A5DB
:103580003AA54BA55CA50E94C1479B01AC010E94D6
:1035900070499B01AC01C501B4010E94C2474B01B7
:1035A0005C016F8D78A180E090E00E94BE48A70189
:1035B00096010E94C1479B01AC010E9470499B018A
:1035C000AC01C301B2010E94C2472B013C016B85D3
:1035D0007C8580E090E00E94BE4829A53AA54BA5D5
:1035E0005CA50E94C1479B01AC010E9470499B01F0
:1035F000AC01C501B4010E94C2474B015C0169A145
:103600007AA180E090E00E94BE48A70196010E9446
:10361000C1479B01AC010E9470499B01AC01C301F1
:10362000B2010E94C2472B013C016D857E8580E07E
:1036300090E00E94BE4829A53AA54BA55CA50E9432
:10364000C1479B01AC010E9470499B01AC01C501BF
:10365000B4010E94C2474B015C016BA17CA180E0D8
:1036600090E00E94BE48A70196010E94C1479B01BD
:10367000AC010E9470499B01AC01C301B2010E94E0
:10368000C2472B013C016F85788980E090E00E9461
:10369000BE4829A53AA54BA55CA50E94C1479B0140
:1036A000AC010E9470499B01AC01C501B4010E94AC
:1036B000C2474B015C016DA17EA180E090E00E94B9
:1036C000BE48A70196010E94C1479B01AC010E9420
:1036D00070499B01AC01C301B2010E94C2476DA7B2
:1036E0007EA78FA798AB69897A8980E090E00E94D5
:1036F000BE4829A53AA54BA55CA50E94C1479B01E0
:10370000AC010E9470499B01AC01C501B4010E944B
:10371000C24769AB7AAB8BAB9CAB6FA178A580E05D
:1037200090E00E94BE48A70196010E94C1472B016C
:103730003C016B897C8980E090E00E94BE4829A50D
:103740003AA54BA55CA50E94C1474B015C01A301B2
:103750009201C301B2010E9470492DA53EA54FA55B
:1037600058A90E94C24720E030E040E251E40E94A4
:103770002A480E94D7492B013C01A5019401C501AB
:10378000B4010E94704929A93AA94BA95CA90E94D9
:10379000C24720E030E040E251E40E942A480E9403
:1037A000D7494B015C0120E030E040EA51E4C3011D
:1037B000B2010E94264887FF0AC020E030E040EABC
:1037C00051E4C501B4010E94264887FD21C044E6AA
:1037D00050E06AE070E084E00E94DD0A80E0E49658
:1037E0000FB6F894DEBF0FBECDBFDF91CF911F9112
:1037F0000F91FF90EF90DF90CF90BF90AF909F9090
:103800008F907F906F905F904F903F902F90089592
:1038100081E08093010DC701B6010E949248709328
:10382000470D6093460D69A57AA58BA59CA50E94BE
:1038300092487093450D6093440D0E94D00A81E038
:10384000CECF81E08093430D08951092430D0895EB
:103850008091430D08950F931F93CF93DF93EC0155
:1038600010918A02113091F108F442C0123081F0B7
:103870001330C1F50E94AE0F81112CC010924C0D77
:1038800010928A0281E0DF91CF911F910F910895EC
:103890000E94AE0F81111EC010914C0D80914B0DF6
:1038A000113009F454C0882309F44AC08A810E9467
:1038B000550F10924B0D0E94610F82E080938A0297
:1038C00080E0DF91CF911F910F9108950E94AE0F7C
:1038D000882321F110938A0280E0DF91CF911F911C
:1038E0000F91089580E0DF91CF911F910F9108957E
:1038F00080914A0D882301F189810E94550F0E9411
:10390000610F80914A0D80934B0D81E080938A0274
:1039100080E0DF91CF911F910F91089500914C0DA0
:1039200080914B0D013009F18111C0CF8B810E9434
:10393000550F10934B0DBFCF88810E94550FDFCFDD
:103940008B810E94550F81E080934B0DB4CF811184
:1039500014C08D810E94550F10934B0D0E94610F72
:1039600083E080938A0280E0B8CF811106C08D8108
:103970000E94550F00934B0DF1CF8C810E94550F83
:1039800010924B0DEBCF1F93CF93DF93EC0110916F
:103990008902113029F1A0F1123079F0133059F574
:1039A0000E94AE0F811120C010924C0D109289021E
:1039B00081E0DF91CF911F9108950E94AE0F811198
:1039C00013C080914B0D81115FC080914C0D8130EF
:1039D00009F447C08B810E94550F1093890233C0B0
:1039E0000E94AE0F882309F11093890280E0DF91D5
:1039F000CF911F91089580E0DF91CF911F9108959D
:103A000080914A0D882349F189810E94550F0E94B7
:103A1000610F80914A0D80934B0D81E08093890264
:103A200080E0DF91CF911F91089580914B0D81111E
:103A30001FC080914C0D8130A1F08B810E94550FE9
:103A400082E08093890281E080934B0D0E94610F98
:103A500080E0DF91CF911F91089588810E94550FDA
:103A6000D6CF8D810E94550F83E080938902EBCFE2
:103A70008A810E94550F10924B0D0E94610F82E0C7
:103A80008093890280E0B3CF8A810E94550F109203
:103A90004B0D0E94610F1093890280E0A8CF1F9305
:103AA000CF93DF93EC0110918802113031F1A8F12E
:103AB000123079F0133061F50E94AE0F811121C0F0
:103AC00010924C0D1092880281E0DF91CF911F91EE
:103AD00008950E94AE0F811114C080914B0D81306A
:103AE00009F057C080914C0D813009F45EC08A8185
:103AF0000E94550F1093880233C00E94AE0F882396
:103B000009F11093880280E0DF91CF911F91089511
:103B100080E0DF91CF911F91089580914A0D882315
:103B200041F189810E94550F0E94610F80914A0DD9
:103B300080934B0D81E08093880280E0DF91CF91EC
:103B40001F91089580914B0D8130B9F480914C0DF7
:103B5000813059F18A810E94550F82E0809388025A
:103B600010924B0D0E94610F80E0DF91CF911F9169
:103B7000089588810E94550FD7CF8B810E94550FE1
:103B800010934B0D0E94610F82E08093880280E0C9
:103B9000BBCF8B810E94550F81E080934B0D0E941B
:103BA000610F1093880280E0AFCF8C810E94550F87
:103BB00083E080938802D4CF80914B0D882319F045
:103BC00010924B0D089581E080934B0D0895681B72
:103BD000790B683F88EF780744F0693087E0780711
:103BE00014F060517E40CB010895605F714FCB01AE
:103BF0000895680F791F77FD08C061318EE078075E
:103C000014F060517E40CB010895605F714FCB018D
:103C1000089510924C0D10924A0D10924B0D109277
:103C2000490D1092480D089581E080934C0D089540
:103C300080934A0D08951092490D1092480D0895F1
:103C40008091480D9091490D0895CF93DF93C091D5
:103C50008A02C13071F1D8F1C23071F0C33099F5E8
:103C60000E94AE0F811129C010924C0D10928A0251
:103C700081E0DF91CF9108950E94AE0F81111DC0A8
:103C8000C0914C0D80914B0DC13009F451C0882377
:103C900009F446C0809102020E94550F10924B0D0C
:103CA0000E94610F82E080938A0280E0DF91CF91D1
:103CB00008950E94AE0F8823F9F0C0938A0280E035
:103CC000DF91CF91089580E0DF91CF9108958091A9
:103CD0004A0D882301F1809101020E94550F0E9434
:103CE000610F80914A0D80934B0D81E080938A0291
:103CF00080E0DF91CF910895D0914C0D80914B0DD4
:103D0000D13029F18111C6CF809103020E94550F55
:103D1000C0934B0DC5CF809100020E94550FDFCF9D
:103D2000809103020E94550F81E080934B0DB8CF24
:103D3000811116C0809105020E94550FC0934B0D52
:103D40000E94610F83E080938A0280E0B9CF8111E5
:103D500007C0809105020E94550FD0934B0DF0CF04
:103D6000809104020E94550F10924B0DE9CFCF9322
:103D7000DF93C0918A02C13071F1D8F1C23071F085
:103D8000C33099F50E94AE0F811129C010924C0DDD
:103D900010928A0281E0DF91CF9108950E94AE0FC8
:103DA00081111DC0C0914C0D80914B0DC13009F4A3
:103DB00051C0882309F446C0809108020E94550F23
:103DC00010924B0D0E94610F82E080938A0280E086
:103DD000DF91CF9108950E94AE0F8823F9F0C09330
:103DE0008A0280E0DF91CF91089580E0DF91CF914A
:103DF000089580914A0D882301F1809107020E9465
:103E0000550F0E94610F80914A0D80934B0D81E008
:103E100080938A0280E0DF91CF910895D0914C0D7C
:103E200080914B0DD13029F18111C6CF80910902CB
:103E30000E94550FC0934B0DC5CF809106020E9482
:103E4000550FDFCF809109020E94550F81E08093CA
:103E50004B0DB8CF811116C080910B020E94550FF7
:103E6000C0934B0D0E94610F83E080938A0280E033
:103E7000B9CF811107C080910B020E94550FD093DA
:103E80004B0DF0CF80910A020E94550F10924B0DFE
:103E9000E9CFCF93C0918902C13021F178F1C230CE
:103EA00069F0C33041F50E94AE0F81111FC010921E
:103EB0004C0D1092890281E0CF9108950E94AE0FBF
:103EC000811114C080914B0D81115DC080914C0D0A
:103ED000813009F443C080910F020E94550FC093B6
:103EE00089022FC00E94AE0F8823E1F0C09389029F
:103EF00080E0CF91089580E0CF91089580914A0DA0
:103F0000882339F180910D020E94550F0E94610FA4
:103F100080914A0D80934B0D81E08093890280E06F
:103F2000CF91089580914B0D811120C080914C0D4F
:103F30008130A1F080910F020E94550F82E08093A2
:103F4000890281E080934B0D0E94610F80E0CF9148
:103F5000089580910C020E94550FD8CF80911102D4
:103F60000E94550F83E080938902EBCF80910E026F
:103F70000E94550F10924B0D0E94610F82E08093BA
:103F8000890280E0B6CF80910E020E94550F1092F8
:103F90004B0D0E94610FC093890280E0AACFCF939E
:103FA000C0918802C13029F180F1C23069F0C3307C
:103FB00049F50E94AE0F811120C010924C0D109255
:103FC000880281E0CF9108950E94AE0F811115C043
:103FD00080914B0D813009F054C080914C0D81309F
:103FE00009F45CC0809114020E94550FC0938802AE
:103FF0002FC00E94AE0F8823E1F0C093880280E0BA
:10400000CF91089580E0CF91089580914A0D882343
:1040100031F1809113020E94550F0E94610F80912F
:104020004A0D80934B0D81E08093880280E0CF9110
:10403000089580914B0D8130B9F480914C0D813001
:1040400069F1809114020E94550F82E080938802EA
:1040500010924B0D0E94610F80E0CF9108958091E6
:1040600012020E94550FD9CF809115020E94550F60
:10407000C0934B0D0E94610F82E08093880280E024
:10408000BFCF809115020E94550F81E080934B0DA8
:104090000E94610FC093880280E0B2CF8091160227
:1040A0000E94550F83E080938802D2CFCF93C091B6
:1040B0008902C13021F178F1C23069F0C33041F595
:1040C0000E94AE0F81111FC010924C0D10928902F8
:1040D00081E0CF9108950E94AE0F811114C08091AC
:1040E0004B0D81115DC080914C0D813009F443C0AE
:1040F00080911B020E94550FC09389022FC00E941D
:10410000AE0F8823E1F0C093890280E0CF9108953B
:1041100080E0CF91089580914A0D882339F18091F4
:1041200019020E94550F0E94610F80914A0D8093E1
:104130004B0D81E08093890280E0CF9108958091BA
:104140004B0D811120C080914C0D8130A1F08091E8
:104150001B020E94550F82E08093890281E08093C8
:104160004B0D0E94610F80E0CF910895809118025D
:104170000E94550FD8CF80911D020E94550F83E0F9
:1041800080938902EBCF80911A020E94550F109202
:104190004B0D0E94610F82E08093890280E0B6CFD0
:1041A00080911A020E94550F10924B0D0E94610FD0
:1041B000C093890280E0AACFCF93C0918802C1301A
:1041C00029F180F1C23069F0C33049F50E94AE0F89
:1041D000811120C010924C0D1092880281E0CF9185
:1041E00008950E94AE0F811115C080914B0D813052
:1041F00009F054C080914C0D813009F45CC080916D
:1042000020020E94550FC09388022FC00E94AE0F5B
:104210008823E1F0C093880280E0CF91089580E088
:10422000CF91089580914A0D882331F180911F022A
:104230000E94550F0E94610F80914A0D80934B0D93
:1042400081E08093880280E0CF91089580914B0DAA
:104250008130B9F480914C0D813069F18091200258
:104260000E94550F82E08093880210924B0D0E94AD
:10427000610F80E0CF91089580911E020E94550F3A
:10428000D9CF809121020E94550FC0934B0D0E94FF
:10429000610F82E08093880280E0BFCF809121028D
:1042A0000E94550F81E080934B0D0E94610FC093D7
:1042B000880280E0B2CF809122020E94550F83E0F5
:1042C00080938802D2CFCF93C0918902C13021F16F
:1042D00078F1C23069F0C33041F50E94AE0F811110
:1042E0001FC010924C0D1092890281E0CF91089569
:1042F0000E94AE0F811114C080914B0D81115DC0E1
:1043000080914C0D813009F443C0809127020E94B6
:10431000550FC09389022FC00E94AE0F8823E1F091
:10432000C093890280E0CF91089580E0CF910895F5
:1043300080914A0D882339F1809125020E94550F02
:104340000E94610F80914A0D80934B0D81E0809314
:10435000890280E0CF91089580914B0D811120C09A
:1043600080914C0D8130A1F0809127020E94550F61
:1043700082E08093890281E080934B0D0E94610F5F
:1043800080E0CF910895809124020E94550FD8CFEC
:10439000809129020E94550F83E080938902EBCF20
:1043A000809126020E94550F10924B0D0E94610FC2
:1043B00082E08093890280E0B6CF809126020E943D
:1043C000550F10924B0D0E94610FC093890280E03F
:1043D000AACFCF93C0918802C13029F180F1C230B9
:1043E00069F0C33049F50E94AE0F811120C01092D0
:1043F0004C0D1092880281E0CF9108950E94AE0F7B
:10440000811115C080914B0D813009F054C080910D
:104410004C0D813009F45CC080912C020E94550F34
:10442000C09388022FC00E94AE0F8823E1F0C09392
:10443000880280E0CF91089580E0CF910895809127
:104440004A0D882331F180912B020E94550F0E9462
:10445000610F80914A0D80934B0D81E0809388021B
:1044600080E0CF91089580914B0D8130B9F4809117
:104470004C0D813069F180912C020E94550F82E031
:104480008093880210924B0D0E94610F80E0CF91C3
:10449000089580912A020E94550FD9CF80912D0254
:1044A0000E94550FC0934B0D0E94610F82E08093D4
:1044B000880280E0BFCF80912D020E94550F81E0DD
:1044C00080934B0D0E94610FC093880280E0B2CFB1
:1044D00080912E020E94550F83E080938802D2CFF4
:1044E000CF93C0918902C13021F178F1C23069F0D7
:1044F000C33041F50E94AE0F81111FC010924C0DC8
:104500001092890281E0CF9108950E94AE0F81112F
:1045100014C080914B0D81115DC080914C0D813094
:1045200009F443C0809133020E94550FC093890261
:104530002FC00E94AE0F8823E1F0C093890280E073
:10454000CF91089580E0CF91089580914A0D8823FE
:1045500039F1809131020E94550F0E94610F8091C4
:104560004A0D80934B0D81E08093890280E0CF91CA
:10457000089580914B0D811120C080914C0D8130A8
:10458000A1F0809133020E94550F82E0809389024E
:1045900081E080934B0D0E94610F80E0CF910895E0
:1045A000809130020E94550FD8CF809135020E9431
:1045B000550F83E080938902EBCF809132020E94F5
:1045C000550F10924B0D0E94610F82E0809389027B
:1045D00080E0B6CF809132020E94550F10924B0DB1
:1045E0000E94610FC093890280E0AACFCF93C0914F
:1045F0008802C13029F180F1C23069F0C33049F539
:104600000E94AE0F811120C010924C0D10928802B2
:1046100081E0CF9108950E94AE0F811115C0809165
:104620004B0D813009F054C080914C0D813009F45C
:104630005CC0809138020E94550FC09388022FC041
:104640000E94AE0F8823E1F0C093880280E0CF91F2
:10465000089580E0CF91089580914A0D882331F12B
:10466000809137020E94550F0E94610F80914A0D80
:1046700080934B0D81E08093880280E0CF91089574
:1046800080914B0D8130B9F480914C0D813069F1EE
:10469000809138020E94550F82E080938802109228
:1046A0004B0D0E94610F80E0CF91089580913602FA
:1046B0000E94550FD9CF809139020E94550FC093A7
:1046C0004B0D0E94610F82E08093880280E0BFCF93
:1046D000809139020E94550F81E080934B0D0E941A
:1046E000610FC093880280E0B2CF80913A020E94AD
:1046F000550F83E080938802D2CFCF93C091890277
:10470000C13021F178F1C23069F0C33041F50E9427
:10471000AE0F81111FC010924C0D1092890281E0E2
:10472000CF9108950E94AE0F811114C080914B0D5E
:1047300081115DC080914C0D813009F443C080919E
:104740003F020E94550FC09389022FC00E94AE0FF6
:104750008823E1F0C093890280E0CF91089580E042
:10476000CF91089580914A0D882339F180913D02BF
:104770000E94550F0E94610F80914A0D80934B0D4E
:1047800081E08093890280E0CF91089580914B0D64
:10479000811120C080914C0D8130A1F080913F02A9
:1047A0000E94550F82E08093890281E080934B0D37
:1047B0000E94610F80E0CF91089580913C020E9499
:1047C000550FD8CF809141020E94550F83E080930E
:1047D0008902EBCF80913E020E94550F10924B0D43
:1047E0000E94610F82E08093890280E0B6CF8091C1
:1047F0003E020E94550F10924B0D0E94610FC09314
:10480000890280E0AACFCF93C0918802C13029F1FC
:1048100080F1C23069F0C33049F50E94AE0F8111BA
:1048200020C010924C0D1092880281E0CF91089523
:104830000E94AE0F811115C080914B0D813009F09F
:1048400054C080914C0D813009F45CC080914402C9
:104850000E94550FC09388022FC00E94AE0F88237C
:10486000E1F0C093880280E0CF91089580E0CF917D
:10487000089580914A0D882331F1809143020E946E
:10488000550F0E94610F80914A0D80934B0D81E07E
:104890008093880280E0CF91089580914B0D813004
:1048A000B9F480914C0D813069F1809144020E94ED
:1048B000550F82E08093880210924B0D0E94610F89
:1048C00080E0CF910895809142020E94550FD9CF88
:1048D000809145020E94550FC0934B0D0E94610FBD
:1048E00082E08093880280E0BFCF809145020E94E1
:1048F000550F81E080934B0D0E94610FC093880299
:1049000080E0B2CF809146020E94550F83E08093F1
:104910008802D2CFCF93C0918902C13021F178F1C2
:10492000C23069F0C33041F50E94AE0F81111FC043
:1049300010924C0D1092890281E0CF9108950E944F
:10494000AE0F811114C080914B0D81115DC080911B
:104950004C0D813009F443C080914B020E94550FE9
:10496000C09389022FC00E94AE0F8823E1F0C0934C
:10497000890280E0CF91089580E0CF9108958091E1
:104980004A0D882339F1809149020E94550F0E94F7
:10499000610F80914A0D80934B0D81E080938902D5
:1049A00080E0CF91089580914B0D811120C08091BE
:1049B0004C0D8130A1F080914B020E94550F82E096
:1049C0008093890281E080934B0D0E94610F80E00B
:1049D000CF910895809148020E94550FD8CF8091C1
:1049E0004D020E94550F83E080938902EBCF8091A6
:1049F0004A020E94550F10924B0D0E94610F82E0F7
:104A00008093890280E0B6CF80914A020E94550FC0
:104A100010924B0D0E94610FC093890280E0AACFD3
:104A2000CF93C0918802C13029F180F1C23069F082
:104A3000C33049F50E94AE0F811120C010924C0D79
:104A40001092880281E0CF9108950E94AE0F8111EB
:104A500015C080914B0D813009F054C080914C0DF0
:104A6000813009F45CC0809150020E94550FC093C0
:104A700088022FC00E94AE0F8823E1F0C093880205
:104A800080E0CF91089580E0CF91089580914A0D04
:104A9000882331F180914F020E94550F0E94610FCF
:104AA00080914A0D80934B0D81E08093880280E0D5
:104AB000CF91089580914B0D8130B9F480914C0DC8
:104AC000813069F1809150020E94550F82E08093FD
:104AD000880210924B0D0E94610F80E0CF910895E3
:104AE00080914E020E94550FD9CF809151020E94B1
:104AF000550FC0934B0D0E94610F82E08093880296
:104B000080E0BFCF809151020E94550F81E08093D9
:104B10004B0D0E94610FC093880280E0B2CF80915C
:104B200052020E94550F83E080938802D2CFCF9328
:104B3000DF93C0918A02C13071F1D8F1C23071F0B7
:104B4000C33099F50E94AE0F811129C010924C0D0F
:104B500010928A0281E0DF91CF9108950E94AE0FFA
:104B600081111DC0C0914C0D80914B0DC13009F4D5
:104B700051C0882309F446C0809156020E94550F07
:104B800010924B0D0E94610F82E080938A0280E0B8
:104B9000DF91CF9108950E94AE0F8823F9F0C09362
:104BA0008A0280E0DF91CF91089580E0DF91CF917C
:104BB000089580914A0D882301F1809155020E9449
:104BC000550F0E94610F80914A0D80934B0D81E03B
:104BD00080938A0280E0DF91CF910895D0914C0DAF
:104BE00080914B0DD13029F18111C6CF80915702B0
:104BF0000E94550FC0934B0DC5CF809154020E9467
:104C0000550FDFCF809157020E94550F81E08093AE
:104C10004B0DB8CF811116C0809159020E94550FDB
:104C2000C0934B0D0E94610F83E080938A0280E065
:104C3000B9CF811107C0809159020E94550FD093BE
:104C40004B0DF0CF809158020E94550F10924B0DE2
:104C5000E9CFCF93DF93C0918A02C13071F1D8F1CF
:104C6000C23071F0C33099F50E94AE0F811129C096
:104C700010924C0D10928A0281E0DF91CF9108953D
:104C80000E94AE0F81111DC0C0914C0D80914B0D43
:104C9000C13009F451C0882309F446C080915C02F8
:104CA0000E94550F10924B0D0E94610F82E080937D
:104CB0008A0280E0DF91CF9108950E94AE0F882391
:104CC000F9F0C0938A0280E0DF91CF91089580E0EF
:104CD000DF91CF91089580914A0D882301F1809151
:104CE0005B020E94550F0E94610F80914A0D8093D4
:104CF0004B0D81E080938A0280E0DF91CF9108958F
:104D0000D0914C0D80914B0DD13029F18111C6CF3E
:104D100080915D020E94550FC0934B0DC5CF8091CD
:104D20005A020E94550FDFCF80915D020E94550FFD
:104D300081E080934B0DB8CF811116C080915F0246
:104D40000E94550FC0934B0D0E94610F83E080932A
:104D50008A0280E0B9CF811107C080915F020E9472
:104D6000550FD0934B0DF0CF80915E020E94550FEE
:104D700010924B0DE9CF0895089508950895089570
:104D80000895089508951F93CF93DF931F921F9264
:104D9000CDB7DEB7681B790B683F88EF78073CF525
:104DA000605F714F10918702113059F1113008F492
:104DB000A1C0123009F45EC0133009F094C00E9403
:104DC000AE0F811187C08091480D9091490D0196D9
:104DD0009093490D8093480D10924C0D10928702CC
:104DE00081E00F900F90DF91CF911F91089569306E
:104DF000E7E07E07BCF260517E40109187021130DF
:104E0000A9F669837A830E94AE0F69817A81811144
:104E100061C08091480D9091490D01969093490D84
:104E20008093480D80914C0D813009F4B2C0CB01C4
:104E30008D599F4F873C910508F47BC080914B0DA5
:104E40006C39FFEF7F070CF08AC0882309F4C3C0D8
:104E5000813009F4F9C091E09093870281118BC0F1
:104E600081E080934B0D80E00F900F90DF91CF9108
:104E70001F91089569837A830E94AE0F69817A81B8
:104E8000811128C08091480D9091490D0196909311
:104E9000490D8093480D80914C0D813009F488C0F4
:104EA000CB0177FDA0C0853691050CF46DC08091D3
:104EB0004B0D161617060CF04CC0811190C08CE6F5
:104EC0000E94550F0E94610F82E0809387028091BB
:104ED0004B0DC4CF1093870280E00F900F90DF91AD
:104EE000CF911F91089580E00F900F90DF91CF91A7
:104EF0001F91089580914A0D8823B9F082E20E94A3
:104F0000550F0E94610F80914A0D90E001968170CB
:104F1000992780934B0D81E08093870280E00F906A
:104F20000F90DF91CF911F91089580E20E94550F5D
:104F3000E8CF80914B0D882309F44DC086E20E9492
:104F4000550F0E94610F81E08093870280914B0D85
:104F500085CF81115AC088E70E94550FB3CF6536BF
:104F600071050CF468C0813049F3882309F458C0F6
:104F700081E08093870210924B0D80E00F900F909C
:104F8000DF91CF911F91089581E08093870280E0A7
:104F9000A4CF80914B0D81112BC088E20E94550F48
:104FA0000E94610F83E08093870280914B0D56CF62
:104FB00080914B0D16161706FCF4813051F18CE6EA
:104FC0000E94550F109387020E94610F80914B0D34
:104FD0008111D1CF45CF84E20E94550FB2CF8EE62A
:104FE0000E94550F6FCF88279927861B970B5BCFA1
:104FF0008AE20E94550FD4CF811120C08CE70E9415
:10500000550F83E080938702DFCF8AE70E94550F18
:1050100059CF82E70E94550F83E080938702D4CF57
:1050200082E0809387028CE60E94550F0E94610FF8
:1050300080914B0D13CF77FF98CF0ACF8AE70E945C
:10504000550F10938702C0CF8AE70E94550F82E068
:10505000809387020E94610F80914B0DFFCE1F93BA
:10506000CF93DF931F921F92CDB7DEB7681B790BEA
:10507000683F88EF78073CF5605F714F10918602BA
:10508000113059F1113008F49EC0123009F45DC09E
:10509000133009F091C00E94AE0F811184C080913D
:1050A000480D9091490D01979093490D8093480DBB
:1050B00010924C0D1092860281E00F900F90DF91BC
:1050C000CF911F9108956930E7E07E07BCF26051EF
:1050D0007E40109186021130A9F669837A830E947E
:1050E000AE0F69817A8181115EC08091480D9091E7
:1050F000490D01979093490D8093480D80914C0D77
:10510000813009F4B0C0CB018D599F4F873C910588
:1051100008F478C080914B0D653671050CF488C099
:10512000882309F4C2C0813009F4E7C091E090936C
:10513000860281118AC081E080934B0D80E00F9040
:105140000F90DF91CF911F91089569837A830E9418
:10515000AE0F69817A81811126C08091480D9091AE
:10516000490D01979093490D8093480D80914C0D06
:10517000813009F487C0CB0177FD9FC0853691054A
:105180000CF46CC080914B0D77FD4CC0811191C027
:1051900080E90E94550F0E94610F82E08093860291
:1051A00080914B0DC6CF1093860280E00F900F9038
:1051B000DF91CF911F91089580E00F900F90DF91C4
:1051C000CF911F91089580914A0D8823B9F08EE206
:1051D0000E94550F0E94610F80914A0D90E0019648
:1051E0008170992780934B0D81E08093860280E047
:1051F0000F900F90DF91CF911F9108958CE20E9444
:10520000550FE8CF80914B0D882309F44EC082E3FF
:105210000E94550F0E94610F81E080938602809169
:105220004B0D87CF811160C084E80E94550FB3CF2A
:105230006C39FFEF7F070CF05BC0813041F38823AE
:1052400009F46DC081E08093860210924B0D80E0DE
:105250000F900F90DF91CF911F91089581E080937F
:10526000860280E0A3CF80914B0D81112BC084E397
:105270000E94550F0E94610F83E080938602809107
:105280004B0D57CF80914B0D77FD26C081111EC06D
:1052900084E90E94550F83E0809386020E94610F8B
:1052A00080914B0D8111D1CF46CF80E30E94550FE5
:1052B000B1CF82E90E94550F6ECF88279927861BB0
:1052C000970B5CCF86E30E94550FD4CF82E90E94F2
:1052D000550F10938602E2CF8130D1F084E80E940E
:1052E000550F10938602DACF86E80E94550F53CFF0
:1052F000161617060CF417CFA2CF82E90E94550F9D
:1053000082E0809386020E94610F80914B0D11CF45
:105310008AE80E94550F83E080938602BFCF82E027
:105320008093860284E80E94550F0E94610F80914D
:105330004B0DFFCECF93DF93D82FC0918502C130A4
:1053400019F180F0C23021F080E0DF91CF91089513
:105350000E94CA0C811129C0C093850280E0DF91B0
:10536000CF9108950E94AE0F81111BC0D13019F169
:105370008CE10E94550F0E94610F81E080938502AD
:1053800080E0DF91CF9108950E94AE0F8111E4CFAC
:1053900082E08093850288EE93E00E949E0C80E07C
:1053A000D4CF1092850280E0D0CF0E946519109270
:1053B000850281E0CACF8BE10E94550FDCCFCF93ED
:1053C000C82F4091840250E04830510530F080E011
:1053D000C11110928402CF910895FA01EA59FE4F4B
:1053E0000C9470470E94AE0F882309F456C086E0E3
:1053F0008093840280E0ECCF0E94AE0F882309F4F2
:1054000048C087E08093840280E0E2CF0E94AE0F24
:105410008823A9F10E94AA0F81E08093840280E092
:10542000D7CF0E94AE0F882351F181E08093840290
:1054300080E0CECF0E94AE0F882309F456C082E0F0
:105440008093840280E0C4CF0E94CA0C811143C0C3
:1054500083E08093840280E0BBCF0E94AE0F88235C
:1054600081F184E08093840280E0B2CF0E94AE0F8D
:105470008823E9F085E08093840280E0A9CF83EE61
:105480000E94550F0E94610F82E08093840280E0A9
:105490009FCF1092840281E09BCF8FE10E94550F35
:1054A0000E94610F87E08093840280E091CF82EEBA
:1054B0000E94550F0E94610F86E08093840280E075
:1054C00087CF81EE0E94550F0E94610F85E0809387
:1054D000840280E07DCF80EE0E94550F0E94610F14
:1054E00084E08093840280E073CF8CED95E00E948D
:1054F0009E0C83E08093840280E06ACFCF93C091BA
:105500008302C23009F441C068F0C430C1F098F1A0
:10551000C53019F50E94AE0F81110CC010928302A4
:1055200081E00BC0CC23E1F0C130B9F40E94AE0F92
:105530008823C9F1C093830280E0CF9108950E942F
:10554000AE0F8111F7CF8FE10E94550F0E94610FBE
:1055500085E08093830280E0F0CF80E0CF910895D2
:105560000E94AE0F8823F9F00E94AA0F81E0809379
:10557000830280E0E2CF0E94AE0F8823F9F083E03F
:105580008093830280E0CF9108950E94AE0F811135
:10559000D1CF85EE0E94550F0E94610F83E080936A
:1055A000830280E0CACF84EE0E94550F0E94610FF3
:1055B00082E08093830280E0CF91089586EE0E947E
:1055C000550F0E94610F84E08093830280E0B5CF85
:1055D0001F93CF93DF93EB01C81BD90BC83F88EF14
:1055E000D8079CF5C05FD14F109182021230B9F1FB
:1055F000133008F04DC0112309F472C0113009F0C6
:1056000061C00E94AE0F811184C080914C0D813029
:1056100009F49FC0C953DF4FCF38D14008F488C088
:1056200080914B0D813009F4A2C084E50E94550F92
:105630000E94610F1093820280914B0D811185C0F1
:1056400081E080934B0D80E03EC0C93097E0D907E0
:105650005CF2C051DE4010918202123049F60E9485
:10566000AE0F882309F460C010938202D7FD21C0D9
:105670008CE092E00E94C31C811129C0C436D10580
:105680000CF591E090934C0DDF91CF911F9108950F
:10569000133061F31430B1F40E94AE0F811139C0A0
:1056A00010924C0D1092820281E0DF91CF911F91F8
:1056B000089582E192E00E944F1D811108C0CD390A
:1056C000DF4FFCF680E0DF91CF911F91089510929B
:1056D000820210924C0D80E0DF91CF911F910895CE
:1056E00080914A0D81111CC080E50E94550F0E94D7
:1056F000610F80914A0D90E0019681709927809307
:105700004B0D81E08093820280E0DF91CF911F9169
:1057100008951093820280E0DF91CF911F91089548
:1057200082E50E94550FE3CF83E0809382029ECFF3
:1057300080914B0D811117C084E50E94550F0E9486
:10574000610F81E08093820277CF10924B0D80E051
:10575000BACF80914B0D813099F084E50E94550FAE
:105760000E94610F69CF86E50E94550FE8CF8AE558
:105770000E94550F0E94610F82E0809382025CCFED
:105780008AE50E94550F84E080938202E9CF1F933F
:10579000CF93DF93EB01C81BD90BC83F88EFD80725
:1057A0009CF5C05FD14F109181021230B9F11330D6
:1057B00008F04DC0112309F472C0113009F061C026
:1057C0000E94AE0F811184C080914C0D813009F48C
:1057D0009FC0C953DF4FCF38D14008F488C08091B3
:1057E0004B0D8111A2C084E60E94550F0E94610FEB
:1057F00082E08093810280914B0D811185C081E010
:1058000080934B0D80E03EC0C93097E0D9075CF231
:10581000C051DE4010918102123049F60E94AE0F55
:10582000882309F460C010938102D7FD21C08CE069
:1058300092E00E94C31C811129C0C436D1050CF529
:1058400091E090934C0DDF91CF911F91089513300B
:1058500061F31430B1F40E94AE0F811139C010927F
:105860004C0D1092810281E0DF91CF911F9108953C
:1058700082E192E00E944F1D811108C0CD39DF4FB7
:10588000FCF680E0DF91CF911F9108951092810284
:1058900010924C0D80E0DF91CF911F91089580917F
:1058A0004A0D81111CC08CE50E94550F0E94610FAA
:1058B00080914A0D90E001968170992780934B0D5D
:1058C00081E08093810280E0DF91CF911F91089564
:1058D0001093810280E0DF91CF911F9108958EE5B2
:1058E0000E94550FE3CF83E0809381029ECF809189
:1058F0004B0D811122C080E60E94550F0E94610F5E
:1059000081E08093810277CF10924B0D80E0BACF77
:1059100080914B0D811115C084E60E94550F84E0E3
:10592000809381020E94610F66CF82E60E94550F2C
:105930000E94610F109381025ECF82E60E94550F94
:10594000DDCF82E60E94550FEDCF1F93CF93DF93FB
:10595000EC0180918002823009F483C028F588230D
:1059600009F457C0813061F5C0917C02D0917D026D
:105970000E94603A9E01281B390BC901883F38EF0D
:1059800093070CF08FC0805F914F97FDBFC08536A5
:1059900091050CF08FC084E08093800210E0812F8D
:1059A000DF91CF911F910895833081F0843041F4CD
:1059B0001092800211E0812FDF91CF911F91089505
:1059C00010E0812FDF91CF911F91089582E192E045
:1059D0000E944F1D182F8111DECFC0917C02D09103
:1059E0007D020E94603A9E01281B390B283F88EFF8
:1059F00038070CF47EC0293087E0380714F02051B6
:105A00003E40243631050CF47AC083E08093800256
:105A1000C6CF0E94603A90937F0280937E029E01DF
:105A2000220F331FCC0FDD1FCC0FDD1FCC0FDD1F6E
:105A30002C0F3D1F280F391F37FD65C021318EE027
:105A4000380714F020513E4030937D0220937C02B1
:105A500081E08093800210E0812FDF91CF911F9130
:105A600008958CE092E00E94C31C182F811193CFFF
:105A7000C0917C02D0917D020E94603A9E01281B59
:105A8000390B283F88EF38078CF1293087E0380739
:105A900014F020513E402D393F4F8CF582E0809329
:105AA00080027DCF893027E092070CF46ECF8051C1
:105AB0009E406BCFC0917C02D0917D020E94603AE3
:105AC0009E01281B390BC901883F38EF9307A4F0CA
:105AD000893027E0920714F080519E408536910569
