:100000000C94C6010C94E7010C94E7010C94E701F1
:100010000C94E7010C94E7010C94E7010C94E701C0
:100020000C94E7010C94E7010C94E7010C94E701B0
:100030000C94E7010C94E7010C94E7010C94E701A0
:100040000C94E7010C94E7010C94E7010C94E70190
:100050000C94E7010C94E7010C94E7010C94E70180
:100060000C94E7010C94D23D0C94E7010C948F3D65
:100070000C94E7010C94E7010C94E7010C94E70160
:100080000C94E7010C94E7010C94E7010C94E70150
:100090000C943A420C94E7010C9469420C94E701E9
:1000A0000C94E7010C94E7010C94E7010C94E70130
:1000B0000C94E7010C94E7010C94E7010C94E70120
:1000C0000C94E7010C94E7010C94E701D503D703E6
:1000D000D403D903D403D403D403DB03D403D4035C
:1000E000D403D403D403D403D403DD03D403D4034F
:1000F000D403D403D403D403D403D403D403D40348
:10010000D403D403D403D403D403DF03D403D4032C
:10011000D403D403D403D403D403D403D403D40327
:10012000D403D403D403D403D403D403D403D40317
:10013000D403D403D403D403D403D403D403D40307
:10014000D403D403D403D403D403D303ED03EF03C4
:10015000EC03F103EC03EC03EC03F303EC03EC031B
:10016000EC03EC03EC03EC03EC03F503EC03EC030E
:10017000EC03EC03EC03EC03EC03EC03EC03EC0307
:10018000EC03EC03EC03EC03EC03F703EC03EC03EC
:10019000EC03EC03EC03EC03EC03EC03EC03EC03E7
:1001A000EC03EC03EC03EC03EC03EC03EC03EC03D7
:1001B000EC03EC03EC03EC03EC03EC03EC03EC03C7
:1001C000EC03EC03EC03EC03EC03EB0308040D0479
:1001D00007041204070407040704170407040704AC
:1001E000070407040704070407041C0407040704A2
:1001F00007040704070407040704070407040704A7
:10020000070407040704070407042104070407047C
:100210000704070407040704070407040704070486
:100220000704070407040704070407040704070476
:100230000704070407040704070407040704070466
:100240000704070407040704070403043204320404
:100250002C0432042C042C042C043B042C042C0409
:100260002C042C042C042C042C0440042C042C04FA
:100270002C042C042C042C042C042C042C042C04FE
:100280002C042C042C042C042C0435042C042C04E5
:100290002C042C042C042C042C042C042C042C04DE
:1002A0002C042C042C042C042C042C042C042C04CE
:1002B0002C042C042C042C042C042C042C042C04BE
:1002C0002C042C042C042C042C044804042A0F2A8B
:1002D000182A222A2B2A342AF029FA296364696E03
:1002E0006F70737578585B000C9407040C94D303FB
:1002F0000C940F2A0C940D040C94D9030C9408044C
:100300000C9435040C9432040C94F1030C942B2AB5
:100310000C94EF030C94F1410C943B040C94ED030A
:100320000C94F7030C9440040C94D5030C94042A09
:100330000C9403040C9448040C94DF030C94F30312
:100340000C9417040C94182A0C94342A0C94EC0383
:100350000C94D7030C9412040C9421040C94DD0328
:100360000C94D4030C94CF410C94EB030C94DB035A
:100370000C941C040C94222A0C94FA290C944446E4
:100380000C94F5030C94F0290C942C0411241FBE3A
:10039000CFEFD1E2DEBFCDBF00E00CBF12E0A0E0A6
:1003A000B2E0E2E4F3EA00E00BBF02C007900D9276
:1003B000A437B107D9F71FE0A4E7B2E001C01D924E
:1003C000A53CB107E1F70E949D450C949F510C9408
:1003D0000000CF93DF93EC010E945E3A8C1B9D0BD3
:1003E000893027E092071CF080519E4006C0883F6C
:1003F00028EF920714F4805F914F6AE070E00E944A
:10040000E945CB01DF91CF91089560E071EE80E086
:1004100090E00E94AA420E9448190E9466190E9418
:100420001F1C84E690E00E94830C0E94071E0E941D
:10043000B7360C94E239CF93C0917402C23001F107
:1004400028F4CC2341F0C130A9F062C0C330B9F127
:10045000C430E9F15DC081E00E948904882339F04D
:100460000E945E3A9093900280938F0249C010924E
:1004700074024EC00E94B50F811126C082E046C0B2
:1004800080E20E948904882321F00E94121E83E0EA
:100490003DC080918F02909190020E94E9014597A2
:1004A00014F084E033C080918F02909190020E94FA
:1004B000E9018C3E9F4FACF30E94231E05C080E1F2
:1004C0000E948904811121C0C093740221C08091CF
:1004D0008F02909190020E94E90145971CF00E94C2
:1004E000471F13C080918F02909190020E94E901F2
:1004F0008C3E9F4F1CF40E94CD1F07C00E94121E0D
:100500008FE10E945C0F0E94680F81E0809374026B
:10051000CF9108950E9492030E944B040E945B07B2
:100520000E94270B0C94510C649974C081E0809355
:10053000A5029091A802992309F4B5C01092A902CE
:10054000659952C081E08093A0029091A302992303
:1005500009F498C01092A402669932C081E0809399
:10056000960290919902992309F47BC010929A0205
:100570006799AAC081E08093910290919402992397
:1005800009F45EC010929502489912C091E09093D0
:100590009B0280919E02811110C080919F028F5F0B
:1005A00080939F0280919F02843109F4B4C0089522
:1005B00080919E02813009F49DC010929F0208959F
:1005C00080919902813091F690919A029F5F909369
:1005D0009A0290919A02943159F68093980210925F
:1005E000990210929A02C4CF8091A302813009F03F
:1005F000B1CF9091A4029F5F9093A4029091A40226
:10060000943109F0A9CF8093A2021092A302109214
:10061000A402A2CF8091A802813009F08FCF9091DF
:10062000A9029F5F9093A9029091A902943109F0C9
:1006300087CF8093A7021092A8021092A90280CFC0
:10064000909195029F5F90939502909195029431BD
:1006500009F09ACF809392028093940210929502AF
:1006600093CF90919A029F5F90939A0290919A02F1
:10067000943109F07DCF8093970280939902109274
:100680009A0276CF9091A4029F5F9093A4029091DA
:10069000A402943109F060CF8093A1028093A30259
:1006A0001092A40259CF9091A9029F5F9093A90242
:1006B0009091A902943109F043CF8093A6028093D0
:1006C000A8021092A9023CCF80919402813009F0D7
:1006D00059CF909195029F5F9093950290919502CA
:1006E000943109F051CF80939302109294021092AA
:1006F00095024ACF90919F029F5F90939F029091A5
:100700009F02943109F053CF80939D0210929E0274
:1007100010929F02089590939C0290939E021092D3
:100720009F0208958FE787B98EE788B91092A502D6
:100730001092A6021092A7021092A8021092A9028B
:100740001092A0021092A1021092A2021092A30293
:100750001092A402109296021092970210929802A0
:100760001092990210929A021092910210929202A3
:1007700010929302109294021092950210929B0292
:1007800010929C0210929D0210929E0210929F0263
:10079000089590E0FC013197E034F10528F4EA591E
:1007A000FF4F0C946E4746980895409808954198DD
:1007B0000895429808954398089544980895459857
:1007C000089590E0FC013197E034F10528F4EA55F2
:1007D000FF4F0C946E47469A0895409A0895419AA7
:1007E0000895429A0895439A0895449A0895459A1F
:1007F000089590E0FC013197E034F10540F4EA51AE
:10080000FF4F0C946E4788B190E4892788B908950A
:1008100088B191E0892788B9089588B192E0892745
:1008200088B9089588B194E0892788B9089588B176
:1008300098E0892788B9089588B190E1892788B917
:10084000089588B190E2892788B9089590E0FC0165
:100850003197E034F10510F080E00895EA5DFE4F35
:100860000C946E4786B180E0089586B1807290E066
:1008700095958795089586B183FB882780F908951B
:1008800086B1807190E095958795959587950895A7
:1008900086B1807408955098589A8DB18F708DB933
:1008A0008EB1806F8EB90895803259F160F4813035
:1008B00001F18031A1F48091A502882381F010928A
:1008C000A50281E00895803461F0803841F4809180
:1008D0009102882321F01092910281E0089580E036
:1008E0000895809196028823D1F31092960281E0B8
:1008F000089580919B02882391F310929B0281E0DE
:1009000008958091A002882351F31092A00281E003
:100910000895803259F160F4813001F18031A1F401
:100920008091A602882381F01092A60281E00895AA
:10093000803461F0803841F480919202882321F064
:100940001092920281E0089580E0089580919702CC
:100950008823D1F31092970281E0089580919C0240
:10096000882391F310929C0281E008958091A10266
:10097000882351F31092A10281E00895803259F149
:1009800060F4813001F18031A1F48091A7028823C5
:1009900081F01092A70281E00895803461F08038E0
:1009A00041F480919302882321F01092930281E018
:1009B000089580E00895809198028823D1F31092E1
:1009C000980281E0089580919D02882391F310920E
:1009D0009D0281E008958091A202882351F3109234
:1009E000A20281E0089590917C00987F90937C0012
:1009F00020917C00982F9770922B90937C008823F5
:100A000059F0815020E830E002C0359527958A954D
:100A1000E2F7209522B9089582B18C6F82B90895CA
:100A2000CF92DF92EF92FF92CF93DF93CDB7DEB7F5
:100A30002E970FB6F894DEBF0FBECDBF8EE0E6E670
:100A4000F2E0DE01119601900D928A95E1F789811D
:100A50009A819C01220F331F220F331F220F331F55
:100A6000281B390B40E050E0C12CB4ECDB2EB9E080
:100A7000EB2EF12CC701B6010E94FD452150310932
:100A80002F3F310509F008F49BC08B819C819C01AC
:100A9000220F331F220F331F220F331F281B390B46
:100AA00040E050E0C701B6010E94FD4521503109E8
:100AB0002F3F310509F008F48AC08D819E819C0189
:100AC000220F331F220F331F220F331F281B390B16
:100AD00040E050E0C701B6010E94FD4521503109B8
:100AE0002F3F310509F008F474C08F8198859C016F
:100AF000220F331F220F331F220F331F281B390BE6
:100B000040E050E0C701B6010E94FD452150310987
:100B10002F3F310509F008F45EC089859A859C0154
:100B2000220F331F220F331F220F331F281B390BB5
:100B300040E050E0C701B6010E94FD452150310957
:100B40002F3F310509F008F448C08B859C859C0136
:100B5000220F331F220F331F220F331F281B390B85
:100B600040E050E0C701B6010E94FD452150310927
:100B70002F3F3105A1F198F18D859E859C01220FB3
:100B8000331F220F331F220F331F281B390B40E066
:100B900050E0C701B6010E94FD45215031092F3FA9
:100BA0003105F9F0F0F02E960FB6F894DEBF0FBEC7
:100BB000CDBFDF91CF91FF90EF90DF90CF90089560
:100BC00080E02093B3008F5F8093B100ECCF81E091
:100BD000F8CF82E0F6CF83E0F4CF84E0F2CF85E077
:100BE000F0CF86E0EECFEAE7F0E08081806480839A
:100BF000089580917A0082958170089587B38695D3
:100C000081700895B99B089587B3876087BB109260
:100C1000B20090919A0380917C00887F80937C0041
:100C200020917C00892F8770822B80937C009923F0
:100C300009F420C12FEF290F80E890E002C09595BC
:100C400087952A95E2F7809582B920E42A95F1F7F5
:100C500080917A00806480937A0080917A0084FF8A
:100C6000FCCF80917A00806180937A008091780037
:100C700090917900E0919A03F0E0EE0FFF1FE556A6
:100C8000FC4F91838083E0919A032091AB0230E185
:100C9000E39FF0011124E20FF11DEE0FFF1FE65458
:100CA000FD4F91838083E0919A0380E2E89FF001F9
:100CB0001124E654FD4F80819181E0919A0320E256
:100CC000E29FF0011124E654FD4F22813381820F0F
:100CD000931FE0919A0330E2E39FF0011124E65460
:100CE000FD4F24813581820F931FE0919A0320E20A
:100CF000E29FF0011124E654FD4F26813781820FD7
:100D0000931FE0919A0330E2E39FF0011124E6542F
:100D1000FD4F20853185820F931FE0919A0320E2D9
:100D2000E29FF0011124E654FD4F22853385820FA6
:100D3000931FE0919A0330E2E39FF0011124E654FF
:100D4000FD4F24853585820F931FE0919A0320E2A1
:100D5000E29FF0011124E654FD4F26853785820F6E
:100D6000931FE0919A0330E2E39FF0011124E654CF
:100D7000FD4F20893189820F931FE0919A0320E271
:100D8000E29FF0011124E654FD4F22893389820F3E
:100D9000931FE0919A0330E2E39FF0011124E6549F
:100DA000FD4F24893589820F931FE0919A0320E239
:100DB000E29FF0011124E654FD4F26893789820F06
:100DC000931FE0919A0330E2E39FF0011124E6546F
:100DD000FD4F208D318D820F931FE0919A0320E209
:100DE000E29FF0011124E654FD4F228D338D820FD6
:100DF000931FE0919A0330E2E39FF0011124E6543F
:100E0000FD4F248D358D820F931FE0919A0320E2D0
:100E1000E29FF0011124E654FD4F268D378D820F9D
:100E2000931F929582958F7089279F708927E091F3
:100E30009A03F0E0EE0FFF1FE455FD4F918380838E
:100E400020919A032630D1F020919A03211107C0F6
:100E50002091AA022130E1F08E3A914008F1809170
:100E60009A0390E0019667E070E00E94E945809364
:100E70009A03089582B18C6F82B9E7CE2091AB02BC
:100E800030E02F5F3F4F2F7033272093AB02DCCF32
:100E9000863D914020F30E94D70A1092AA02DFCF2C
:100EA0004EE150E06EE170E085E00E94E40A81E0EE
:100EB0008093AA02D4CFCF92DF92EF92FF92CF938A
:100EC000DF93CDB7DEB72E970FB6F894DEBF0FBE17
:100ED000CDBF87E880937A0010927B0010927C004F
:100EE00010927E0010927D008CEF81B982B986E667
:100EF00092E090939C0380939B039093AD02809328
:100F0000AC029093BB028093BA029093BD0280938F
:100F1000BC029093BF028093BE029093C102809363
:100F2000C0029093C3028093C2029093C502809343
:100F3000C4029093C7028093C6029093C902809323
:100F4000C8029093CB028093CA029093CD02809303
:100F5000CC029093CF028093CE029093D1028093E3
:100F6000D0029093D3028093D2029093D5028093C3
:100F7000D4029093D7028093D6029093D9028093A3
:100F8000D80290939E0380939D039093AF02809329
:100F9000AE029093DB028093DA029093DD0280939D
:100FA000DC029093DF028093DE029093E102809353
:100FB000E0029093E3028093E2029093E502809333
:100FC000E4029093E7028093E6029093E902809313
:100FD000E8029093EB028093EA029093ED028093F3
:100FE000EC029093EF028093EE029093F1028093D3
:100FF000F0029093F3028093F2029093F5028093B3
:10100000F4029093F7028093F6029093F902809392
:10101000F8029093A00380939F039093B102809372
:10102000B0029093FB028093FA029093FD028093AA
:10103000FC029093FF028093FE0290930103809341
:10104000000390930303809302039093050380931E
:1010500004039093070380930603909309038093FE
:10106000080390930B0380930A0390930D038093DE
:101070000C0390930F0380930E03909311038093BE
:10108000100390931303809312039093150380939E
:10109000140390931703809316039093190380937E
:1010A00018039093A2038093A1039093B3028093BB
:1010B000B20290931B0380931A0390931D038093B5
:1010C0001C0390931F0380931E039093210380932E
:1010D000200390932303809322039093250380930E
:1010E00024039093270380932603909329038093EE
:1010F000280390932B0380932A0390932D038093CE
:101100002C0390932F0380932E03909331038093AD
:10111000300390933303809332039093350380938D
:10112000340390933703809336039093390380936D
:1011300038039093A4038093A3039093B502809304
:10114000B40290933B0380933A0390933D038093C2
:101150003C0390933F0380933E039093410380931D
:1011600040039093430380934203909345038093FD
:1011700044039093470380934603909349038093DD
:10118000480390934B0380934A0390934D038093BD
:101190004C0390934F0380934E039093510380939D
:1011A000500390935303809352039093550380937D
:1011B000540390935703809356039093590380935D
:1011C00058039093A6038093A5039093B70280934E
:1011D000B60290935B0380935A0390935D038093D0
:1011E0005C0390935F0380935E039093610380930D
:1011F00060039093630380936203909365038093ED
:1012000064039093670380936603909369038093CC
:10121000680390936B0380936A0390936D038093AC
:101220006C0390936F0380936E039093710380938C
:10123000700390937303809372039093750380936C
:10124000740390937703809376039093790380934C
:1012500078039093A8038093A7039093B902809397
:10126000B80290937B0380937A0390937D038093DD
:101270007C0390937F0380937E03909381038093FC
:1012800080039093830380938203909385038093DC
:1012900084039093870380938603909389038093BC
:1012A000880390938B0380938A0390938D0380939C
:1012B0008C0390938F0380938E039093910380937C
:1012C000900390939303809392039093950380935C
:1012D000940390939703809396039093990380933C
:1012E000980310929A031092AB021092AA0282E025
:1012F0008093B0001092B2001092700087E087BB1C
:101300008EE0E6E6F2E0DE01119601900D928A95FC
:10131000E1F789819A819C01220F331F220F331F2D
:10132000220F331F281B390B40E050E0C12C64EC26
:10133000D62E69E0E62EF12CC701B6010E94FD45CC
:10134000215031092F3F310509F008F49BC08B81F2
:101350009C819C01220F331F220F331F220F331F4A
:10136000281B390B40E050E0C701B6010E94FD4543
:10137000215031092F3F310509F008F48AC08D81D1
:101380009E819C01220F331F220F331F220F331F18
:10139000281B390B40E050E0C701B6010E94FD4513
:1013A000215031092F3F310509F008F474C08F81B5
:1013B00098859C01220F331F220F331F220F331FEA
:1013C000281B390B40E050E0C701B6010E94FD45E3
:1013D000215031092F3F310509F008F464C0898597
:1013E0009A859C01220F331F220F331F220F331FB8
:1013F000281B390B40E050E0C701B6010E94FD45B3
:10140000215031092F3F310509F008F44AC08B857E
:101410009C859C01220F331F220F331F220F331F85
:10142000281B390B40E050E0C701B6010E94FD4582
:10143000215031092F3F310591F188F18D859E852D
:101440009C01220F331F220F331F220F331F281B33
:10145000390B40E050E0C701B6010E94FD45215024
:1014600031092F3F3105C9F0C0F02E960FB6F89420
:10147000DEBF0FBECDBFDF91CF91FF90EF90DF9029
:10148000CF90089580E02093B3008F5F8093B100E8
:10149000ECCF81E0F8CF82E0F6CF86E0F4CF85E0B4
:1014A000F2CF84E0F0CF83E0EECFE82FF0E0EE0F54
:1014B000FF1FE556FC4F808191810895E82FF0E0F1
:1014C000EE0FFF1FE455FD4F808191810895C19B70
:1014D00011C0C19A109295001092940080917902E7
:1014E000811109C08091B003813081F08091A903FE
:1014F000813061F008958091B003813019F18091BD
:10150000A9038130F9F010927902089581E0809367
:1015100079028091AA039091AB030197909378028E
:10152000809377022091AC033091AD033093760223
:1015300020937502892BF1F6809180008F73809340
:10154000800008958091770290917802009741F091
:1015500001979093780280937702892B59F6ECCF0C
:101560008091750290917602009731F001979093E7
:101570007602809375020895809180008F7B80931E
:101580008000809180008068809380008091AA0311
:101590009091AB0390937802809377028091AC0393
:1015A0009091AD0390937602809375020895809197
:1015B000A903813009F00895809180008F73809392
:1015C00080001092A90308959091A903992359F1DD
:1015D0009130A9F11092870090E0FC01EF54FC4F8C
:1015E00020812093860010928900208126952093E7
:1015F00088007093AB036093AA035093AD034093AC
:10160000AC039093AF038093AE03809180008F7BF7
:10161000809380008091800080688093800081E0CA
:101620008093A90308959091B003913099F6909119
:1016300080009F73909380001092B003CBCF909165
:1016400080009F73909380001092A903C3CF259AC6
:101650002D9810926F009FE296BB10928500109219
:101660008400E0E8F0E0108280818E7F80838081BA
:1016700082608083E1E8F0E010828081886080836E
:10168000808180618083109289001092880080811F
:10169000887F80838081856080831092710098BBF1
:1016A0001092950010929400E0E9F0E010828081A1
:1016B0008E7F808380818D7F8083E1E9F0E01082DE
:1016C00080818860808380818F7E808398E1909381
:1016D00099008AE6809398008081887F808380814A
:1016E000846080838DE18093B1038AE18093B203AB
:1016F0009093B30386E18093B40384E18093B503B0
:1017000082E18093B60380E18093B7031092B00327
:101710001092A90381E090E09093AB038093AA0319
:101720009093AD038093AC031092AF031092AE037D
:1017300008959091A90391112CC09091B00391113B
:1017400028C01092870090E0FC01EF54FC4F2081EC
:10175000209386001092890020812695209388008E
:101760009093AF038093AE037093AB036093AA038F
:101770005093AD034093AC03809180008F7B8093A6
:1017800080008091800080688093800081E0809359
:10179000B00308959091A903911104C09091B003F2
:1017A000913009F008951092870090E0FC01EF5409
:1017B000FC4F20812093860010928900208126957D
:1017C000209388009093AF038093AE0308952091F7
:1017D000A903211104C02091B003213009F008951C
:1017E0009093AB038093AA0308952091A90321113C
:1017F00004C02091B003213009F008959093AD0307
:101800008093AC0308958091A903811104C0809155
:10181000B003813009F00895809180008F73809328
:1018200080001092B00308958091B00308958091D4
:10183000A9030895D19B19C0D19A10922501109245
:1018400024014091BE0380917A0290917B02413045
:1018500069F02091B8033091B90382179307C9F05A
:10186000019690937B0280937A0208952091BB03A6
:101870003091BC038217930799F710927B02109264
:101880007A024093BA0380912101887F80932101DD
:10189000089510927B0210927A0281E08093BD033A
:1018A0000895109273008FE28ABB10922501109266
:1018B0002401E0E2F1E0108280818E7F80838081CC
:1018C0008D7F8083E1E2F1E01082808188608083F7
:1018D00080818F7E808388E1809329018AE68093CE
:1018E00028018081887F80831092BE031092BC0300
:1018F0001092BB031092B9031092B8031092BA036E
:101900001092BD0308951092BE039C013695279551
:1019100036952795ABE7B4E10E94C8459695879523
:101920009093B9038093B8031092BD0310922501E0
:10193000109224018FE28ABBE1E2F1E08081887F8E
:101940008083808184608083089521E02093BE039A
:101950009C013695279536952795ABE7B4E10E9413
:10196000C845969587959093BC038093BB031092CE
:10197000BA0310922501109224018FE28ABBE1E2A2
:10198000F1E08081887F80838081846080830895F6
:101990008091BD03813011F080E008951092BD0365
:1019A00008958091BA03813011F080E0089510927B
:1019B000BA030895E1E2F1E08081887F8083D19AC3
:1019C00010922501109224011092BD031092BA03C7
:1019D0000895109272008FE289BB1092A5001092B8
:1019E000A400E0EAF0E0108280818E7F8083808115
:1019F0008D7F8083E1EAF0E01082808188608083BF
:101A000080818F7E80838DE38093A90088E080931E
:101A1000A8008081887F8083808182608083089590
:101A2000C99B07C0C99A1092A5001092A40081E03A
:101A3000089580E00895CF92DF92EF92FF920F9386
:101A40001F93CF93DF931F921F92CDB7DEB7CE01C6
:101A500001960E944219EFEAF4E0C980DA80F12C85
:101A600061E070E0B5E0EB2E1DC09C0120543C4FBE
:101A7000D901EC929C012F533C4FD901EC929A0171
:101A8000220F331F205C3B4F80549C4FD9018D9314
:101A90009C93F3947096B2E0CB0ED11C86E0EF3AA3
:101AA000F807C9F180818823A9F3D6012D913C91D3
:101AB000CF010797DC018D919C91280F391F4F2D85
:101AC00050E0CA01880F991F880F991F8C010E538F
:101AD0001C4FD8012C938C010D531C4FD8013C9303
:101AE0009F0121503109D9012C91222309F4BDCF46
:101AF0002F70DB0102C0AA0FBB1F2A95E2F79D01E0
:101B00008C0100541C4FD8012C938C010F531C4F97
:101B1000D8012C93B4CFFF2061F000E414E024E05E
:101B200030E04CE150E060E874E08091BF030E9437
:101B3000E1400F900F90DF91CF911F910F91FF9097
:101B4000EF90DF90CF90089590E1899FF0011124EC
:101B5000E056FB4F6687089590E1899FF0011124BC
:101B6000E056FB4F8685089590E1899FF00111248E
:101B7000E056FB4F71876087089590E1899FF001DF
:101B80001124E056FB4F80859185089590E1899F4F
:101B9000F0011124E056FB4F8785089590E1899F5D
:101BA000F0011124E056FB4F8285089590E1899F52
:101BB000F0011124E056FB4F84850895C99B15C0A0
:101BC000C99A1092A5001092A4000E94B436811107
:101BD0000DC00E94B80F0E9484180E94FC300E9421
:101BE000B436811106C00C941B0D08950E94313645
:101BF000F0CF0E943B36F7CF2F923F924F925F92E9
:101C00006F927F928F929F92AF92BF92CF92DF920C
:101C1000EF92FF920F931F93CF93DF9300D0CDB736
:101C2000DEB7782E19820E94AE3E882309F433C1B4
:101C30002FEF89E698E1215080409040E1F700C005
:101C400000002981222331F1E0EAF4E06FEA74E038
:101C50002150A0E12A9F9001112420553B4F45E0DF
:101C600011821082138212821582148217821682C8
:101C700011861086DB011C92CB010197DC014C938D
:101C800013861286158614867096605F7F4FE21762
:101C9000F30731F760E874E0CE0101960E94033F3C
:101CA0001092BF038981882309F466C0312C1CE29D
:101CB000A12EBB24B394CC24CA9403E0D02EE12CF3
:101CC00082E0F82E5524539495E0692E22E0422EAE
:101CD00009C081159C4009F4A2C03394898138164B
:101CE00008F048C0E32DF0E0E058FB4F2080822D43
:101CF0000E940A3D8C30910521F08C32B1E09B07A7
:101D000041F7822D0E94E833E0E12E9E400111242C
:101D1000840100561B4FD8011196BC92AE921396C7
:101D2000DC92CE92129715961C921E9214971796DB
:101D3000FC92EE921697822D0E944535F80191870C
:101D40008087A40144555B4FB40166557B4F822DBB
:101D50000E946C32D8011F965C921F971E966C925F
:101D60008091BF038F5F8093BF03339489813816BE
:101D700008F4B8CF8091BF03781609F489C044E60F
:101D800050E06AE070E084E00E94E40A1092720081
:101D90008FE289BB1092A5001092A4001092A000BF
:101DA0008091A0008E7F8093A0008091A0008D7F05
:101DB0008093A0001092A1008091A1008860809380
:101DC000A1008091A1008F7E8093A1008DE380937C
:101DD000A90088E08093A8008091A100887F80936B
:101DE000A1008091A10082608093A1000E944E0F0B
:101DF00089810F900F900F90DF91CF911F910F91DC
:101E0000FF90EF90DF90CF90BF90AF909F908F901A
:101E10007F906F905F904F903F902F900895822D0C
:101E20000E94E833E0E12E9EB00111248B010056A0
:101E30001B4FE4EBF0E0D8011196FC93EE93139660
:101E4000DC92CE92129715961C921E9214971796BA
:101E5000FC92EE921697822D6A837B830E94453511
:101E6000D80119969C938E9318976A817B81AB0158
:101E700044555B4F66557B4F822D0E946C32F801B2
:101E8000478666868091BF038F5F8093BF0325CF0F
:101E90000E94D70A7BCF0E94783ECACE10921C0CBB
:101EA00010925E0B8FEF80935E0C80935D098093A0
:101EB0001B0C10925D0C0895CF93C82F6EE579E04E
:101EC0000E943E18811102C0C0935D09CF91089510
:101ED00010921C0C10929E0B10929D0B10925C099C
:101EE00010925B0910925C0C10925B0C83E0809363
:101EF000FE0C10921B0C80916D0980935A09109270
:101F00005E0CEFEAF4E080E090E006C07096029686
:101F100026E0EF3AF20709F120812130B9F7DF011D
:101F200017972D913C91DC01A35EB34F2D933C9309
:101F3000DC01A054B34F1D921C92DC01A352B44F9C
:101F40001D921C92DC01A056B94F1D921C927096F6
:101F5000029626E0EF3AF207F9F681E080935D0CF5
:101F6000089581E080935E0B089580915D0C089543
:101F70002F923F924F925F926F927F928F929F9299
:101F8000AF92BF92CF92DF92EF92FF920F931F9387
:101F9000CF93DF93CDB7DEB7A3970FB6F894DEBF2C
:101FA0000FBECDBF80915D0C882309F49AC080914B
:101FB0009D0B90919E0B40915B0950915C09841799
:101FC000950708F0A7C08C010F5F1F4F1A8709877C
:101FD00010939E0B00939D0B1091FE0C1D871330E8
:101FE00009F47FC080915B0990915C098C0120E02D
:101FF00030E0098B1A8B2B8B3C8B8C010150110923
:102000001E8B0D8B00E81CE078EAA72E74E0B72E3B
:10201000EEEDCE2EE6E0DE2EF0ECEF2EFCE0FF2E15
:10202000A0EA4A2EA6E05A2EBFE56B2EBBE07B2E1F
:10203000812C912C80E090E0212C312C9BA38AA351
:10204000C201230194014801A60167017A018901B7
:102050003C0121C0BFEF2B1A3B0AEAA1FBA17096FD
:10206000FBA3EAA3F2E08F0E911C0E5F1F4F20E14D
:10207000A20EB11C32E0E30EF11C42E0C40ED11CF2
:1020800052E0650E711C62E0460E511C8AA19BA1B4
:102090008115924031F12AA13BA120563B4F3A8352
:1020A0002983D9011F968C918130A1F6F801E35262
:1020B000F44F80819181892B09F06FC0F4018081F8
:1020C0009181D5018D939C93F101E25AF64F80A145
:1020D000A981BA811E968C93BDCF10925D0C10928F
:1020E0005E0BA3960FB6F894DEBF0FBECDBFDF9197
:1020F000CF911F910F91FF90EF90DF90CF90BF9005
:10210000AF909F908F907F906F905F904F903F9097
:102110002F90089510929E0B10929D0BEFEAF4E021
:1021200080E090E006C07096029606E0EF3AF00775
:10213000E1F020812130B9F7DF0117972D913C9113
:10214000DC01A058B34F2D933C93DC01A056B94F4E
:102150002D913C91DC01A054B34F2D933C9370968C
:10216000029606E0EF3AF00721F78091FE0C8823F3
:1021700009F4C7C0813009F492C1823009F45BC10F
:10218000833009F42CC25E874D8780E090E0DA014D
:102190008A179B0708F0A5CF16CFBD85B1114AC09D
:1021A000F6010190F081E02DF88BEF87F701A08117
:1021B000B1812F853889A21BB30B29853A850E94EE
:1021C000D74529893A894B895C890E941F468F85AA
:1021D0009889820F931FD3018D939C93D901B59554
:1021E000A795EF85F889AE0FBF1F29853A850E9414
:1021F000D7459B01AC01A0E9B0E00E94DE452FE08D
:1022000030E040E050E00E941F4669E05595479558
:10221000379527956A95D1F7F801E45EF64F31833B
:102220002083D4018D919C91820F931FF50191839E
:1022300080834ACFB13009F448C029853A854D8959
:102240005E892417350709F421C1F101E15AF34FE2
:10225000808181113AC0F6010190F081E02DF88B68
:10226000EF87DF01B195A195B10929853A850E94D3
:10227000D74529893A894B895C890E941F468F85F9
:102280009889820F931FD3018D939C93D901B595A3
:10229000A795EF85F889AE0FBF1F29853A850E9463
:1022A000D7459B01AC01A0E9B0E00E94DE452FE0DC
:1022B00030E040E050E00E941F4699E05595479578
:1022C000379527959A95D1F7ACCFF201A081B181CE
:1022D00029853A850E94D74529893A894B895C89A5
:1022E0000E941F46D4018D919C91820F931FF5018E
:1022F00091838083D7018D919C91F3019183808399
:10230000E3CE81E08093FE0C2091BE0C3091BF0C97
:1023100000917E0C10917F0C1A830983C801880FED
:10232000991F8901081B190B1E870D8710935C09E3
:1023300000935B0909811A812017310709F4E5C070
:10234000A801BDED2B2EBBE03B2E1CE1612E19E058
:10235000712E0EED802E06E0902E8FE5482E8BE03C
:10236000582E0FE51CE06FEA74E0C901841B950B41
:102370009C0140E050E029873A874B875C8795E0D5
:10238000C92ED12CE12CF12C788B6F8719C0EF85E9
:10239000F8897096F88BEF87F2E02F0E311C22E05F
:1023A000620E711C32E0830E911C42E0440E511CFF
:1023B0000F5F1F4F6F8578896F5A764009F44BC0C5
:1023C000AF85B8898C91813011F7F8018081813017
:1023D00009F446C0F401A081B181F101A080B1806F
:1023E000F30180819181A81AB90A29813A810E945A
:1023F000D7459B01AC01660F771F881F991F620F9D
:10240000731F841F951F660F771F881F991F660F04
:10241000771F881F991FA70196010E941F46BB279F
:1024200057FDBA95A52F942F832FA81AB90AD20168
:10243000AD92BC92ACCF80915B0C90915C0C0097FC
:1024400009F4E1C023E02093FE0C90935C09809393
:102450005B099E878D8780E090E0AD85BE8598CE34
:10246000F101A081B181F30180819181A81BB90B99
:102470002D853E850E94D74529853A854B855C850B
:102480000E941F46D2012D933C9381CFF801E35E59
:10249000F34F80819181D5018D939C9315CE82E07D
:1024A0008093FE0C70917E0C60917F0C70935B09A1
:1024B00060935C09AFE5BBE0EFEAF4E080E090E018
:1024C0008D0109C0709602960E5F1F4FB6E0EF3A7D
:1024D000FB0709F47DC020812130A1F79C01235224
:1024E000344FD9012D913C91D8014D915C91241B21
:1024F000350BAC01445E564FDA014D915C91241BC3
:10250000350BD8012D933C93DDCFBFE5CB2EBBE03F
:10251000DB2E1FE5E12E1CE0F12E8FEA94E000E0B7
:1025200010E045E0442E512C612C712C49011C0116
:1025300011C0F0E12F0E311C22E0C20ED11C0E5F43
:102540001F4F3FEFE31AF30A4FEA241646E0340622
:1025500009F481CFD1018C91813059F7F701808145
:102560008130C9F1F801E252F94FA081B181F8013F
:10257000E352F44FA080B180F801E45EF64F808111
:102580009181A81AB90A94010E94D7459B01AC0118
:10259000660F771F881F991F620F731F841F951F77
:1025A000660F771F881F991F660F771F881F991F57
:1025B000A30192010E941F46BB2757FDBA95A52F84
:1025C000942F832FA81AB90AF601B182A082B1CF45
:1025D0007D876E8740CFD6011D921C92AACF1092A4
:1025E000FE0CA0ECBCE0EFEAF4E006C07096129698
:1025F00006E0EF3AF00749F080818130B9F7119693
:102600001C921E92F3CF1092FE0C80911C0C813014
:1026100009F463CD80911B0C8F5F80931B0CA091FC
:102620007209A81708F0C8C080E092E0ECE1F7E07A
:10263000AEE5B9E001900D920197E1F780915E0C53
:1026400090915D09981721F090916D0990935A0926
:1026500091E090931B0C80935D09A0917209B1E009
:10266000AB1709F484C26B2F70E08B010150110984
:102670000024169507950794169507950794102F33
:10268000002DA801425A564FFA01E258FF4F8081AF
:1026900020917409289FC0011124969587959295E1
:1026A00082958F7089279F70892790935C0C809307
:1026B0005B0CFA01E158FF4F3081329F90011124E9
:1026C00036952795329522952F7023273F70232723
:1026D0002115310511F421E030E040911C0C41300E
:1026E00009F45EC2892B09F4C4C1AB1709F456C3BF
:1026F000EFE54E2EECE05E2EADE1BCE07B01002468
:10270000F694E7940794F694E7940794FE2CE02C53
:10271000A7014256564F7A0180EC582F56034001CC
:10272000579F900C1124EFEAF4E080E090E059010B
:102730003D01A70168010EC07096BFEF4B1A5B0AFE
:10274000029602E0600E711C4E5F5F4F16E0EF3A9A
:10275000F107A1F12081213079F79C01245E364FE9
:10276000D9011D921C929A01280D391D2C0D3D1D79
:10277000D9012D913C9136FF18C0D3012D913C9188
:10278000B901E12CF12C8C010058134FD8016D9345
:102790007C93D3012D933C939C012352344FD90158
:1027A000ED92FC92D2011C92C7CFD3016D917C9126
:1027B0007901E61AF70AE7CFB82F52CF9501309387
:1027C000BF0C2093BE0C8091760990E0AC01440FC1
:1027D000551F4217530708F4E0C0C90101979695A9
:1027E000879590937F0C80937E0C009709F0D9C059
:1027F0001092BF0C1092BE0C1E861D8619821A8282
:102800001B821C821D821E821F82188661E06F87D8
:10281000412C512C198A1D8A1F8A188E198E71E03D
:102820007A8F1B8E1C8E1D8E1E8E1F8E18A219A2D3
:102830007EED872E76E0972EEFE56E2EECE07E2E75
:102840000FEA14E0212C312C1BA30AA315C00AA106
:102850001BA1005F1F4F1BA30AA312E0810E911C56
:1028600022E0220E311C3FEF631A730A4AA15BA1DA
:102870004F5A564009F484C0AAA1BBA18C91813063
:1028800031F7F101E054F34F31812081932F990FFB
:10289000990BA980BA80CB80DC80ED80FE800F810F
:1028A0001885492F592F692F792F892F0E94754636
:1028B00059016A017B018C01F101E352F44FA081BF
:1028C000B18120E03AE00E94D7452CE030E040E0C2
:1028D00050E00E941F46DA01C901550F220B322F2A
:1028E000A90129873A874B875C87F3012081211151
:1028F00022C09C01AD016985762F862F962F0E94FC
:102900009647AA8CBB8CCC8CDD8CEE8CFF8C08A1FE
:1029100019A10E943846D4012C9311963C93822F22
:10292000932F8115F4E09F070CF1EFEFF3E0D40152
:10293000ED93FC938CCF9C01AD016985762F862F9A
:10294000962F0E949647AF84B42CC52CD988ED8869
:10295000FF88088D198D0E943846F4012083318349
:10296000822F932F8115F4E09F07FCF681309C4F56
:102970000CF06DCFE1E0FCEFD401ED93FC9367CF59
:102980008D859E8590935C0980935B0980919D0B5A
:1029900090919E0BAD85BE85FBCB90937F0C809371
:1029A0007E0C4901A12CB12C880C991CAA1CBB1CC3
:1029B000C12CD12C76019E878D87A0E0B0E0880FD6
:1029C000991FAA1FBB1F8C019D0140E050E0BA0176
:1029D00089831A832B833C834D835E836F8378873F
:1029E0009401A501B601C7015801CB80DC80E12C20
:1029F000F12C00E010E00E94964701E00E9474472D
:102A0000722E832E942EB52F662E372EF82FE92F97
:102A100000E00E948D472F87432E542E598B6D8BDB
:102A20007F8B888F998F7A8E8B8E9C8EBD8F6E8ECA
:102A30003F8EF8A3E9A3452DA0E00E949F4749F4EB
:102A400011E01F87412C512C198A1D8A1F8A188E6C
:102A5000198E272D382D492D5B2F662D732D8F2F25
:102A60009E2FA0E00E949F4709F0E2CE21E02A8F2E
:102A7000D8CEAB1709F42AC1AFE5EA2EACE0FA2EA6
:102A8000BDE14B2EBCE05B2EDB010024B695A79583
:102A90000794B695A7950794BA2FA02DA256B64FC6
:102AA00080EC482F46034001479F900C1124EFEA29
:102AB000F4E080E090E0772473945901A7011D01B0
:102AC00068010FC070964F5F5F4F0296B2E04B0EE9
:102AD000511C02E0200E311C16E0EF3AF10709F418
:102AE0006DCE2081213071F79C01245E364FD901D3
:102AF0001D921C929101280D391D2C0D3D1DD901EF
:102B00002D913C9136FF2CC0D2012D913C91B90101
:102B1000E12CF12C8C010058134FD8016D937C935C
:102B2000D2012D933C938C010352144FD801ED92A6
:102B3000FC92D1010D911C9116FD0FC06217730715
:102B400030F42017310718F4DA017C92BBCF261736
:102B5000370718F402171307B8F3DA011C92B2CF43
:102B6000D2016D917C917901E61AF70AD3CF809159
:102B70005E0B813009F4A0C080915A098150809386
:102B80005A09882309F493C080915D0980935E0CF3
:102B9000811169C081E080931C0CB0911B0C63CD46
:102BA000892B09F046C1AB1709F4F5C14FE5442E56
:102BB0004CE0542EADE1BCE07B010024F694E79498
:102BC0000794F694E7940794FE2CE02CA701425654
:102BD000564F7A0180EC582F56034001579F900CB6
:102BE0001124EFEAF4E080E090E059013D01A701F3
:102BF0000FC07096BFEF4B1A5B0A029622E0620E7E
:102C0000711C4E5F5F4F36E0EF3AF30709F4D6CD03
:102C10002081213071F79C01245E364FD9011D922D
:102C20001C929A01280D391D200F311FD9012D91B9
:102C30003C91D30136FF35C02D913C917901C12CD7
:102C4000D12CBC016058734FDB01ED92FC92D30193
:102C50002D933C939C012352344FD901CD92DC92A9
:102C6000D2011C92C6CF90915D0998132AC080E0D2
:102C700092E0EEE5F9E0ACE1B7E001900D9201974A
:102C8000E1F780912B07882321F080913007811193
:102C900003C081E080931C0CB0911B0CA0917209C1
:102CA000E2CCED90FC906901CE18DF08CACF80918C
:102CB000770980935E0C6CCF8091780980935E0CCD
:102CC00067CF6CE177E00E943E18DBCF4FE55CE018
:102CD000ADE1BCE0025A164FEFEAF4E080E090E08C
:102CE000BB24B39469013A014D010DC07096BFEF4A
:102CF0006B1A7B0A029622E0820E911C36E0EF3AB4
:102D0000F30709F449C04081413081F7AC01445ECA
:102D1000564FDA011D921C92A801480F591F405CC2
:102D20005F4FDA014D915C9156FF2FC0D4014D9158
:102D30005C91BA01E12CF12C9C012058334FD90150
:102D40006D937C93D4014D935C939C012352344F3B
:102D5000D901ED92FC929C01245A384FD901ED9093
:102D6000FC90F6FC0FC06417750730F44E155F0534
:102D700018F4D301BC92BACF4617570718F4E416DB
:102D8000F506B8F3D3011C92B1CFD4016D917C91BB
:102D90007A01E61AF70AD0CF960111CD4FE55CE033
:102DA000ADE1BCE0025A164FEFEAF4E080E090E0BB
:102DB0004A0169015D010CC07096BFEF8B1A9B0A36
:102DC000029622E0A20EB11C36E0EF3AF30721F39F
:102DD0004081413089F7AC01445E564FDA011D92C3
:102DE0001C92A801480F591F405C5F4FDA014D91BA
:102DF0005C91D50156FF17C04D915C91BA01E12C51
:102E0000F12C9C012058334FD9016D937C93D5014F
:102E10004D935C93AC014352544FDA01ED92FC9216
:102E2000D4011C92C9CF6D917C917A01E61AF70A00
:102E3000E8CFAB1709F465C08FE5482E8CE0582E1B
:102E4000ADE1BCE07B010024F694E7940794F6948E
:102E5000E7940794FE2CE02CC7018256964F7C0124
:102E600080EC482F46034001479F900C1124EFEA65
:102E7000F4E080E090E059013D01A70178010FC026
:102E80007096BFEF4B1A5B0A029602E0600E711C4F
:102E90004E5F5F4F16E0EF3AF10709F48FCC2081C7
:102EA000213071F79C01245E364FD9011D921C928E
:102EB0009A01280D391D2E0D3F1DD9012D913C91F0
:102EC00036FF18C0D3012D913C91B901C12CD12CF2
:102ED0008C010058134FD8016D937C93D3012D932F
:102EE0003C939C012352344FD901CD92DC92D20104
:102EF0001C92C6CFD3016D917C916901C61AD70A85
:102F0000E7CFADE1BCE04FE55CE0025A164FEFEAD7
:102F1000F4E080E090E05D014A010DC070960296F9
:102F2000B2E0AB0EB11C4FEF841A940A56E0EF3AB0
:102F3000F50709F444CC4081413081F7AC01445E8F
:102F4000564FDA011D921C92A801480F591F405C90
:102F50005F4FDA014D915C91D50156FF16C04D913E
:102F60005C91BA01E12CF12CDC01A058B34F6D93B8
:102F70007C93D5014D935C93AC014352544FDA01DD
:102F8000ED92FC92D4011C92C9CF6D917C917A0193
:102F9000E61AF70AE9CFADE1BCE04FE55CE0025A82
:102FA000164FEFEAF4E080E090E05D014A010DC0C9
:102FB00070960296B2E0AB0EB11C4FEF841A940AE1
:102FC00056E0EF3AF50709F4FACB4081413081F73A
:102FD000AC01445E564FDA011D921C92A801480FC5
:102FE000591F405C5F4FDA014D915C9156FF17C04D
:102FF000D5014D915C91BA01E12CF12CDC01A05876
:10300000B34F6D937C93D5014D935C93AC014352C8
:10301000544FDA01ED92FC92D4011C92C9CFD50134
:103020006D917C917A01E61AF70AE8CFFC0120E065
:1030300030E090E08191980F2F5F3F4F211582E0A3
:103040003807C1F781E0911180E0089520E032E077
:10305000FC01A901119241505040E1F70895FB0194
:1030600020E030E0DC01A20FB31F4C9141932F5FB1
:103070003F4F211542E03407A9F70895EF92FF92E0
:103080000F931F93CF93DF93F62EE72E082F10E0B8
:1030900020E030E000511F4F2F4F3F4F89E0000FDD
:1030A000111F221F331F8A95D1F7C62FD72F80E01B
:1030B00090E0DC01AC01BD01400F511F621F731F86
:1030C0006BBFFA01479149930196A11DB11D81156E
:1030D00042E09407A105B10569F7EF2DFE2D20E030
:1030E00080E090E03191230F0196811532E0930743
:1030F000C9F781E0211180E08195DF91CF911F9187
:103100000F91FF90EF9008954F925F926F927F9290
:103110008F929F92AF92BF92CF92DF92EF92FF92E7
:103120001F93CF93DF938091410D813081F0DF9128
:10313000CF911F91FF90EF90DF90CF90BF90AF9015
:103140009F908F907F906F905F904F900895109117
:10315000FF0C113061F783E00E94550A2091440D65
:103160003091450D7C01E21AF30A84E00E94550A71
:103170002091420D3091430DEC01C21BD30B88E32B
:10318000E8168FEFF8060CF470C089ECE816F1042D
:1031900014F01093000DB701882777FD8095982FC4
:1031A0000E94BE486B017C0126E234EB47E15DE3FF
:1031B0000E946E492B013C0129E33EE843EE5DE3AA
:1031C000C701B6010E946E494B015C01BE01882710
:1031D00077FD8095982F0E94BE486B017C012DECF5
:1031E0003CEC4CEC5DE30E946E490E949048709369
:1031F000120D6093110D7093140D6093130DC301A4
:10320000B2010E94904870931A0D6093190DC3018A
:10321000B20190580E94904870931C0D60931B0D52
:10322000C501B4010E94904870931E0D60931D0D5E
:10323000C501B40190580E9490487093200D60938E
:103240001F0D2DEC3CEC4CE45DE3C701B6010E9480
:103250006E4990580E9490487093220D6093210D02
:103260007093240D6093230D62CF82E08093000D54
:1032700092CFE82FF0E0EE0FFF1FEF5FF24F80815B
:103280009181089521E03DE0FC0131832083089580
:103290001092450D1092440D1092430D1092420D64
:1032A0001092FF0C1092410D1092000D80E4E1E0AD
:1032B000FDE0DF011D928A95E9F708958091000DE8
:1032C0001092000D08951092000D08952F923F92D4
:1032D0004F925F926F927F928F929F92AF92BF9226
:1032E000CF92DF92EF92FF920F931F93CF93DF93D2
:1032F000CDB7DEB7E4970FB6F894DEBF0FBECDBFF3
:103300001092450D1092440D1092430D1092420DF3
:1033100082E390E00E94830C7E0185E1E80EF11CBF
:10332000FE013196FAA7E9A71E01F9E22F0E311C22
:10333000812C912C54012401350104C00E941A0CE7
:103340000E9402060E94C80C8823C1F383E00E94F9
:10335000550A8C01F701819391937F0184E00E94CB
:10336000550A6C01E9A5FAA581939193FAA7E9A7FB
:10337000B80180E090E00E94BC489B01AC01C30111
:10338000B2010E94C0472B013C01B60180E090E0F1
:103390000E94BC489B01AC01C501B4010E94C0471A
:1033A0004B015C01E214F30469F60E94DA0C20E0A0
:1033B00030E040E251E4C301B2010E9428486B01B1
:1033C0007C0120E030E040E251E4C501B4010E94FC
:1033D000284869A77AA78BA79CA76D897E8980E07A
:1033E00090E00E94BC48A70196010E94BF479B0144
:1033F000AC010E946E4920E030E0A9010E94C04764
:103400002B013C0169817A8180E090E00E94BC48F8
:1034100029A53AA54BA55CA50E94BF479B01AC011D
:103420000E946E4920E030E0A9010E94C0474B0194
:103430005C016F89788D80E090E00E94BC48A70114
:1034400096010E94BF479B01AC010E946E49A301F7
:1034500092010E94C0472B013C016B817C8180E07E
:1034600090E00E94BC4829A53AA54BA55CA50E9406
:10347000BF479B01AC010E946E499B01AC01C50195
:10348000B4010E94C0474B015C01698D7A8D80E0D8
:1034900090E00E94BC48A70196010E94BF479B0193
:1034A000AC010E946E499B01AC01C301B2010E94B4
:1034B000C0472B013C016D817E8180E090E00E943D
:1034C000BC4829A53AA54BA55CA50E94BF479B0116
:1034D000AC010E946E499B01AC01C501B4010E9480
:1034E000C0474B015C016B8D7C8D80E090E00E94B9
:1034F000BC48A70196010E94BF479B01AC010E94F6
:103500006E499B01AC01C301B2010E94C0472B016F
:103510003C016F81788580E090E00E94BC4829A53D
:103520003AA54BA55CA50E94BF479B01AC010E9438
:103530006E499B01AC01C501B4010E94C0474B011B
:103540005C016D8D7E8D80E090E00E94BC48A701FB
:1035500096010E94BF479B01AC010E946E499B01EE
:10356000AC01C301B2010E94C0472B013C01698537
:103570007A8580E090E00E94BC4829A53AA54BA539
:103580005CA50E94BF479B01AC010E946E499B0154
:10359000AC01C501B4010E94C0474B015C016F8DB5
:1035A00078A180E090E00E94BC48A70196010E94AB
:1035B000BF479B01AC010E946E499B01AC01C30156
:1035C000B2010E94C0472B013C016B857C8580E0E5
:1035D00090E00E94BC4829A53AA54BA55CA50E9495
:1035E000BF479B01AC010E946E499B01AC01C50124
:1035F000B4010E94C0474B015C0169A17AA180E03F
:1036000090E00E94BC48A70196010E94BF479B0121
:10361000AC010E946E499B01AC01C301B2010E9442
:10362000C0472B013C016D857E8580E090E00E94C3
:10363000BC4829A53AA54BA55CA50E94BF479B01A4
:10364000AC010E946E499B01AC01C501B4010E940E
:10365000C0474B015C016BA17CA180E090E00E941F
:10366000BC48A70196010E94BF479B01AC010E9484
:103670006E499B01AC01C301B2010E94C0472B01FE
:103680003C016F85788980E090E00E94BC4829A5C4
:103690003AA54BA55CA50E94BF479B01AC010E94C7
:1036A0006E499B01AC01C501B4010E94C0474B01AA
:1036B0005C016DA17EA180E090E00E94BC48A70162
:1036C00096010E94BF479B01AC010E946E499B017D
:1036D000AC01C301B2010E94C0476DA77EA78FA7AE
:1036E00098AB69897A8980E090E00E94BC4829A55E
:1036F0003AA54BA55CA50E94BF479B01AC010E9467
:103700006E499B01AC01C501B4010E94C04769AB81
:103710007AAB8BAB9CAB6FA178A580E090E00E9468
:10372000BC48A70196010E94BF472B013C016B8951
:103730007C8980E090E00E94BC4829A53AA54BA571
:103740005CA50E94BF474B015C01A3019201C3012C
:10375000B2010E946E492DA53EA54FA558A90E9411
:10376000C04720E030E040E251E40E9428480E9437
:10377000D5492B013C01A5019401C501B4010E946A
:103780006E4929A93AA94BA95CA90E94C04720E02B
:1037900030E040E251E40E9428480E94D5494B01A4
:1037A0005C0120E030E040EA51E4C301B2010E9434
:1037B000244887FF0AC020E030E040EA51E4C50118
:1037C000B4010E94244887FD21C044E650E06AE02D
:1037D00070E084E00E94E40A80E0E4960FB6F8947A
:1037E000DEBF0FBECDBFDF91CF911F910F91FF9034
:1037F000EF90DF90CF90BF90AF909F908F907F9091
:103800006F905F904F903F902F90089581E080934C
:10381000FF0CC701B6010E9490487093450D60935C
:10382000440D69A57AA58BA59CA50E94904870932C
:10383000430D6093420D0E94D70A81E0CECF81E014
:103840008093410D08951092410D08958091410D8E
:1038500008950F931F93CF93DF93EC0110918A0289
:10386000113091F108F442C0123081F01330C1F5EB
:103870000E94B50F81112CC010924A0D10928A023D
:1038800081E0DF91CF911F910F9108950E94B50FB4
:1038900081111EC010914A0D8091490D113009F41B
:1038A00054C0882309F44AC08A810E945C0F109298
:1038B000490D0E94680F82E080938A0280E0DF91C8
:1038C000CF911F910F9108950E94B50F882321F188
:1038D00010938A0280E0DF91CF911F910F9108959C
:1038E00080E0DF91CF911F910F9108958091480D55
:1038F000882301F189810E945C0F0E94680F8091EA
:10390000480D8093490D81E080938A0280E0DF9129
:10391000CF911F910F91089500914A0D8091490D0B
:10392000013009F18111C0CF8B810E945C0F10938F
:10393000490DBFCF88810E945C0FDFCF8B810E9431
:103940005C0F81E08093490DB4CF811114C08D814B
:103950000E945C0F1093490D0E94680F83E08093D2
:103960008A0280E0B8CF811106C08D810E945C0F71
:103970000093490DF1CF8C810E945C0F1092490D8C
:10398000EBCF1F93CF93DF93EC011091890211309D
:1039900029F1A0F1123079F0133059F50E94B50FDA
:1039A000811120C010924A0D1092890281E0DF91AE
:1039B000CF911F9108950E94B50F811113C080917E
:1039C000490D81115FC080914A0D813009F447C0D3
:1039D0008B810E945C0F1093890233C00E94B50F47
:1039E000882309F11093890280E0DF91CF911F9124
:1039F000089580E0DF91CF911F9108958091480D47
:103A0000882349F189810E945C0F0E94680F809190
:103A1000480D8093490D81E08093890280E0DF9119
:103A2000CF911F9108958091490D81111FC0809100
:103A30004A0D8130A1F08B810E945C0F82E080935F
:103A4000890281E08093490D0E94680F80E0DF9138
:103A5000CF911F91089588810E945C0FD6CF8D81F0
:103A60000E945C0F83E080938902EBCF8A810E94E1
:103A70005C0F1092490D0E94680F82E080938902CA
:103A800080E0B3CF8A810E945C0F1092490D0E94A2
:103A9000680F1093890280E0A8CF1F93CF93DF9324
:103AA000EC0110918802113031F1A8F1123079F057
:103AB000133061F50E94B50F811121C010924A0D9B
:103AC0001092880281E0DF91CF911F9108950E94AA
:103AD000B50F811114C08091490D813009F057C094
:103AE00080914A0D813009F45EC08A810E945C0F8A
:103AF0001093880233C00E94B50F882309F11093F8
:103B0000880280E0DF91CF911F91089580E0DF91DE
:103B1000CF911F9108958091480D882341F18981AB
:103B20000E945C0F0E94680F8091480D8093490DA0
:103B300081E08093880280E0DF91CF911F9108950A
:103B40008091490D8130B9F480914A0D813059F14D
:103B50008A810E945C0F82E0809388021092490D56
:103B60000E94680F80E0DF91CF911F9108958881B6
:103B70000E945C0FD7CF8B810E945C0F1093490D80
:103B80000E94680F82E08093880280E0BBCF8B8127
:103B90000E945C0F81E08093490D0E94680F109392
:103BA000880280E0AFCF8C810E945C0F83E080931D
:103BB0008802D4CF8091490D882319F01092490DC5
:103BC000089581E08093490D0895681B790B683F43
:103BD00088EF780744F0693087E0780714F0605187
:103BE0007E40CB010895605F714FCB010895680F4F
:103BF000791F77FD08C061318EE0780714F06051BD
:103C00007E40CB010895605F714FCB010895109203
:103C10004A0D1092480D1092490D1092470D1092C6
:103C2000460D089581E080934A0D08958093480DD4
:103C300008951092470D1092460D08958091460DFB
:103C40009091470D0895CF93DF93C0918A02C130C0
:103C500071F1D8F1C23071F0C33099F50E94B50FFF
:103C6000811129C010924A0D10928A0281E0DF91E1
:103C7000CF9108950E94B50F81111DC0C0914A0DCA
:103C80008091490DC13009F451C0882309F446C020
:103C9000809102020E945C0F1092490D0E94680FF1
:103CA00082E080938A0280E0DF91CF9108950E94A4
:103CB000B50F8823F9F0C0938A0280E0DF91CF919D
:103CC000089580E0DF91CF9108958091480D882379
:103CD00001F1809101020E945C0F0E94680F8091A7
:103CE000480D8093490D81E080938A0280E0DF9146
:103CF000CF910895D0914A0D8091490DD13029F18D
:103D00008111C6CF809103020E945C0FC093490DC0
:103D1000C5CF809100020E945C0FDFCF809103022B
:103D20000E945C0F81E08093490DB8CF811116C0CD
:103D3000809105020E945C0FC093490D0E94680F9C
:103D400083E080938A0280E0B9CF811107C080911F
:103D500005020E945C0FD093490DF0CF80910402C0
:103D60000E945C0F1092490DE9CFCF93DF93C09171
:103D70008A02C13071F1D8F1C23071F0C33099F5C7
:103D80000E94B50F811129C010924A0D10928A022B
:103D900081E0DF91CF9108950E94B50F81111DC080
:103DA000C0914A0D8091490DC13009F451C088235A
:103DB00009F446C0809108020E945C0F1092490DE0
:103DC0000E94680F82E080938A0280E0DF91CF91A9
:103DD00008950E94B50F8823F9F0C0938A0280E00D
:103DE000DF91CF91089580E0DF91CF910895809188
:103DF000480D882301F1809107020E945C0F0E9408
:103E0000680F8091480D8093490D81E080938A026C
:103E100080E0DF91CF910895D0914A0D8091490DB6
:103E2000D13029F18111C6CF809109020E945C0F27
:103E3000C093490DC5CF809106020E945C0FDFCF71
:103E4000809109020E945C0F81E08093490DB8CFF8
:103E5000811116C080910B020E945C0FC093490D26
:103E60000E94680F83E080938A0280E0B9CF8111BD
:103E700007C080910B020E945C0FD093490DF0CFD8
:103E800080910A020E945C0F1092490DE9CFCF93F6
:103E9000C0918902C13021F178F1C23069F0C3309C
:103EA00041F50E94B50F81111FC010924A0D10926A
:103EB000890281E0CF9108950E94B50F811114C04D
:103EC0008091490D81115DC080914A0D813009F4C6
:103ED00043C080910F020E945C0FC09389022FC0E3
:103EE0000E94B50F8823E1F0C093890280E0CF9152
:103EF000089580E0CF9108958091480D882339F18D
:103F000080910D020E945C0F0E94680F8091480D05
:103F10008093490D81E08093890280E0CF910895DC
:103F20008091490D811120C080914A0D8130A1F00E
:103F300080910F020E945C0F82E08093890281E0F1
:103F40008093490D0E94680F80E0CF910895809181
:103F50000C020E945C0FD8CF809111020E945C0F6E
:103F600083E080938902EBCF80910E020E945C0F68
:103F70001092490D0E94680F82E08093890280E0D0
:103F8000B6CF80910E020E945C0F1092490D0E94E4
:103F9000680FC093890280E0AACFCF93C0918802B6
:103FA000C13029F180F1C23069F0C33049F50E9477
:103FB000B50F811120C010924A0D1092880281E045
:103FC000CF9108950E94B50F811115C08091490DC0
:103FD000813009F054C080914A0D813009F45CC0F1
:103FE000809114020E945C0FC09388022FC00E942F
:103FF000B50F8823E1F0C093880280E0CF91089547
:1040000080E0CF9108958091480D882331F180910F
:1040100013020E945C0F0E94680F8091480D8093EC
:10402000490D81E08093880280E0CF9108958091CE
:10403000490D8130B9F480914A0D813069F1809148
:1040400014020E945C0F82E0809388021092490D56
:104050000E94680F80E0CF910895809112020E9423
:104060005C0FD9CF809115020E945C0FC093490D5F
:104070000E94680F82E08093880280E0BFCF809129
:1040800015020E945C0F81E08093490D0E94680F29
:10409000C093880280E0B2CF809116020E945C0F2C
:1040A00083E080938802D2CFCF93C0918902C13040
:1040B00021F178F1C23069F0C33041F50E94B50FAB
:1040C00081111FC010924A0D1092890281E0CF9198
:1040D00008950E94B50F811114C08091490D81117E
:1040E0005DC080914A0D813009F443C080911B026C
:1040F0000E945C0FC09389022FC00E94B50F8823D5
:10410000E1F0C093890280E0CF91089580E0CF91E3
:1041100008958091480D882339F1809119020E94F9
:104120005C0F0E94680F8091480D8093490D81E0DB
:104130008093890280E0CF9108958091490D81118B
:1041400020C080914A0D8130A1F080911B020E9415
:104150005C0F82E08093890281E08093490D0E9488
:10416000680F80E0CF910895809118020E945C0F43
:10417000D8CF80911D020E945C0F83E0809389025A
:10418000EBCF80911A020E945C0F1092490D0E94A1
:10419000680F82E08093890280E0B6CF80911A0296
:1041A0000E945C0F1092490D0E94680FC093890213
:1041B00080E0AACFCF93C0918802C13029F180F16D
:1041C000C23069F0C33049F50E94B50F811120C09B
:1041D00010924A0D1092880281E0CF9108950E94BA
:1041E000B50F811115C08091490D813009F054C07F
:1041F00080914A0D813009F45CC0809120020E94B8
:104200005C0FC09388022FC00E94B50F8823E1F095
:10421000C093880280E0CF91089580E0CF91089507
:104220008091480D882331F180911F020E945C0F1C
:104230000E94680F8091480D8093490D81E0809322
:10424000880280E0CF9108958091490D8130B9F4C2
:1042500080914A0D813069F1809120020E945C0FAB
:1042600082E0809388021092490D0E94680F80E0DE
:10427000CF91089580911E020E945C0FD9CF80914A
:1042800021020E945C0FC093490D0E94680F82E0DA
:104290008093880280E0BFCF809121020E945C0F52
:1042A00081E08093490D0E94680FC093880280E0EE
:1042B000B2CF809122020E945C0F83E0809388023B
:1042C000D2CFCF93C0918902C13021F178F1C230B1
:1042D00069F0C33041F50E94B50F81111FC01092E3
:1042E0004A0D1092890281E0CF9108950E94B50F86
:1042F000811114C08091490D81115DC080914A0DDA
:10430000813009F443C0809127020E945C0FC09362
:1043100089022FC00E94B50F8823E1F0C093890263
:1043200080E0CF91089580E0CF9108958091480D6D
:10433000882339F1809125020E945C0F0E94680F4A
:104340008091480D8093490D81E08093890280E03F
:10435000CF9108958091490D811120C080914A0D1F
:104360008130A1F0809127020E945C0F82E080934F
:10437000890281E08093490D0E94680F80E0CF910F
:104380000895809124020E945C0FD8CF8091290269
:104390000E945C0F83E080938902EBCF809126021C
:1043A0000E945C0F1092490D0E94680F82E080937A
:1043B000890280E0B6CF809126020E945C0F1092A5
:1043C000490D0E94680FC093890280E0AACFCF9365
:1043D000C0918802C13029F180F1C23069F0C33048
:1043E00049F50E94B50F811120C010924A0D10921C
:1043F000880281E0CF9108950E94B50F811115C008
:104400008091490D813009F054C080914A0D81306E
:1044100009F45CC080912C020E945C0FC09388025A
:104420002FC00E94B50F8823E1F0C093880280E07E
:10443000CF91089580E0CF9108958091480D882311
:1044400031F180912B020E945C0F0E94680F8091D5
:10445000480D8093490D81E08093880280E0CF91E0
:1044600008958091490D8130B9F480914A0D8130D1
:1044700069F180912C020E945C0F82E08093880297
:104480001092490D0E94680F80E0CF9108958091AD
:104490002A020E945C0FD9CF80912D020E945C0FEE
:1044A000C093490D0E94680F82E08093880280E0EB
:1044B000BFCF80912D020E945C0F81E08093490D57
:1044C0000E94680FC093880280E0B2CF80912E02D4
:1044D0000E945C0F83E080938802D2CFCF93C0917B
:1044E0008902C13021F178F1C23069F0C33041F561
:1044F0000E94B50F81111FC010924A0D10928902BF
:1045000081E0CF9108950E94B50F811114C0809170
:10451000490D81115DC080914A0D813009F443C07D
:10452000809133020E945C0FC09389022FC00E94C9
:10453000B50F8823E1F0C093890280E0CF91089500
:1045400080E0CF9108958091480D882339F18091C2
:1045500031020E945C0F0E94680F8091480D809389
:10456000490D81E08093890280E0CF910895809188
:10457000490D811120C080914A0D8130A1F08091B8
:1045800033020E945C0F82E08093890281E0809375
:10459000490D0E94680F80E0CF910895809130020C
:1045A0000E945C0FD8CF809135020E945C0F83E09F
:1045B00080938902EBCF809132020E945C0F1092AF
:1045C000490D0E94680F82E08093890280E0B6CF97
:1045D000809132020E945C0F1092490D0E94680F78
:1045E000C093890280E0AACFCF93C0918802C130E6
:1045F00029F180F1C23069F0C33049F50E94B50F4E
:10460000811120C010924A0D1092880281E0CF9152
:1046100008950E94B50F811115C08091490D813018
:1046200009F054C080914A0D813009F45CC080913A
:1046300038020E945C0FC09388022FC00E94B50F01
:104640008823E1F0C093880280E0CF91089580E054
:10465000CF9108958091480D882331F180913702E0
:104660000E945C0F0E94680F8091480D8093490D55
:1046700081E08093880280E0CF9108958091490D78
:104680008130B9F480914A0D813069F1809138020E
:104690000E945C0F82E0809388021092490D0E9474
:1046A000680F80E0CF910895809136020E945C0FE0
:1046B000D9CF809139020E945C0FC093490D0E94AE
:1046C000680F82E08093880280E0BFCF809139023A
:1046D0000E945C0F81E08093490D0E94680FC09397
:1046E000880280E0B2CF80913A020E945C0F83E0A2
:1046F00080938802D2CFCF93C0918902C13021F13B
:1047000078F1C23069F0C33041F50E94B50F8111D4
:104710001FC010924A0D1092890281E0CF91089536
:104720000E94B50F811114C08091490D81115DC0A7
:1047300080914A0D813009F443C080913F020E946C
:104740005C0FC09389022FC00E94B50F8823E1F04F
:10475000C093890280E0CF91089580E0CF910895C1
:104760008091480D882339F180913D020E945C0FB1
:104770000E94680F8091480D8093490D81E08093DD
:10478000890280E0CF9108958091490D811120C068
:1047900080914A0D8130A1F080913F020E945C0F10
:1047A00082E08093890281E08093490D0E94680F26
:1047B00080E0CF91089580913C020E945C0FD8CF99
:1047C000809141020E945C0F83E080938902EBCFCD
:1047D00080913E020E945C0F1092490D0E94680F6A
:1047E00082E08093890280E0B6CF80913E020E94F1
:1047F0005C0F1092490D0E94680FC093890280E0FF
:10480000AACFCF93C0918802C13029F180F1C23084
:1048100069F0C33049F50E94B50F811120C0109294
:104820004A0D1092880281E0CF9108950E94B50F41
:10483000811115C08091490D813009F054C08091DB
:104840004A0D813009F45CC0809144020E945C0FE3
:10485000C09388022FC00E94B50F8823E1F0C09357
:10486000880280E0CF91089580E0CF9108958091F3
:10487000480D882331F1809143020E945C0F0E9411
:10488000680F8091480D8093490D81E080938802E4
:1048900080E0CF9108958091490D8130B9F48091E5
:1048A0004A0D813069F1809144020E945C0F82E0E0
:1048B000809388021092490D0E94680F80E0CF918A
:1048C0000895809142020E945C0FD9CF80914502E9
:1048D0000E945C0FC093490D0E94680F82E0809394
:1048E000880280E0BFCF809145020E945C0F81E08A
:1048F0008093490D0E94680FC093880280E0B2CF78
:10490000809146020E945C0F83E080938802D2CFA0
:10491000CF93C0918902C13021F178F1C23069F0A2
:10492000C33041F50E94B50F81111FC010924A0D8E
:104930001092890281E0CF9108950E94B50F8111F4
:1049400014C08091490D81115DC080914A0D813064
:1049500009F443C080914B020E945C0FC09389020E
:104960002FC00E94B50F8823E1F0C093890280E038
:10497000CF91089580E0CF9108958091480D8823CC
:1049800039F1809149020E945C0F0E94680F80916A
:10499000480D8093490D81E08093890280E0CF919A
:1049A00008958091490D811120C080914A0D813078
:1049B000A1F080914B020E945C0F82E080938902FB
:1049C00081E08093490D0E94680F80E0CF910895A7
:1049D000809148020E945C0FD8CF80914D020E94C6
:1049E0005C0F83E080938902EBCF80914A020E94A2
:1049F0005C0F1092490D0E94680F82E0809389023B
:104A000080E0B6CF80914A020E945C0F1092490D5F
:104A10000E94680FC093890280E0AACFCF93C09113
:104A20008802C13029F180F1C23069F0C33049F504
:104A30000E94B50F811120C010924A0D1092880279
:104A400081E0CF9108950E94B50F811115C080912A
:104A5000490D813009F054C080914A0D813009F42C
:104A60005CC0809150020E945C0FC09388022FC0EE
:104A70000E94B50F8823E1F0C093880280E0CF91B7
:104A8000089580E0CF9108958091480D882331F1F9
:104A900080914F020E945C0F0E94680F8091480D28
:104AA0008093490D81E08093880280E0CF91089542
:104AB0008091490D8130B9F480914A0D813069F1BE
:104AC000809150020E945C0F82E0809388021092D5
:104AD000490D0E94680F80E0CF91089580914E02A9
:104AE0000E945C0FD9CF809151020E945C0FC0934D
:104AF000490D0E94680F82E08093880280E0BFCF5A
:104B0000809151020E945C0F81E08093490D0E94C8
:104B1000680FC093880280E0B2CF809152020E9459
:104B20005C0F83E080938802D2CFCF93DF93C09154
:104B30008A02C13071F1D8F1C23071F0C33099F5F9
:104B40000E94B50F811129C010924A0D10928A025D
:104B500081E0DF91CF9108950E94B50F81111DC0B2
:104B6000C0914A0D8091490DC13009F451C088238C
:104B700009F446C0809156020E945C0F1092490DC4
:104B80000E94680F82E080938A0280E0DF91CF91DB
:104B900008950E94B50F8823F9F0C0938A0280E03F
:104BA000DF91CF91089580E0DF91CF9108958091BA
:104BB000480D882301F1809155020E945C0F0E94EC
:104BC000680F8091480D8093490D81E080938A029F
:104BD00080E0DF91CF910895D0914A0D8091490DE9
:104BE000D13029F18111C6CF809157020E945C0F0C
:104BF000C093490DC5CF809154020E945C0FDFCF56
:104C0000809157020E945C0F81E08093490DB8CFDC
:104C1000811116C0809159020E945C0FC093490D0A
:104C20000E94680F83E080938A0280E0B9CF8111EF
:104C300007C0809159020E945C0FD093490DF0CFBC
:104C4000809158020E945C0F1092490DE9CFCF93DA
:104C5000DF93C0918A02C13071F1D8F1C23071F096
:104C6000C33099F50E94B50F811129C010924A0DE9
:104C700010928A0281E0DF91CF9108950E94B50FD2
:104C800081111DC0C0914A0D8091490DC13009F4B8
:104C900051C0882309F446C080915C020E945C0FD9
:104CA0001092490D0E94680F82E080938A0280E092
:104CB000DF91CF9108950E94B50F8823F9F0C0933A
:104CC0008A0280E0DF91CF91089580E0DF91CF915B
:104CD00008958091480D882301F180915B020E9424
:104CE0005C0F0E94680F8091480D8093490D81E010
:104CF00080938A0280E0DF91CF910895D0914A0D90
:104D00008091490DD13029F18111C6CF80915D028A
:104D10000E945C0FC093490DC5CF80915A020E943A
:104D20005C0FDFCF80915D020E945C0F81E0809379
:104D3000490DB8CF811116C080915F020E945C0FAF
:104D4000C093490D0E94680F83E080938A0280E03F
:104D5000B9CF811107C080915F020E945C0FD09390
:104D6000490DF0CF80915E020E945C0F1092490DB8
:104D7000E9CF089508950895089508950895089530
:104D800008951F93CF93DF931F921F92CDB7DEB785
:104D9000681B790B683F88EF78073CF5605F714FBF
:104DA00010918702113059F1113008F4A1C012306E
:104DB00009F45EC0133009F094C00E94B50F811150
:104DC00087C08091460D9091470D01969093470DB5
:104DD0008093460D10924A0D1092870281E00F9049
:104DE0000F90DF91CF911F9108956930E7E07E0722
:104DF000BCF260517E40109187021130A9F66983A0
:104E00007A830E94B50F69817A81811161C0809196
:104E1000460D9091470D01969093470D8093460D56
:104E200080914A0D813009F4B2C0CB018D599F4F5A
:104E3000873C910508F47BC08091490D6C39FFEFE8
:104E40007F070CF08AC0882309F4C3C0813009F4BD
:104E5000F9C091E09093870281118BC081E080932B
:104E6000490D80E00F900F90DF91CF911F91089531
:104E700069837A830E94B50F69817A81811128C084
:104E80008091460D9091470D01969093470D809328
:104E9000460D80914A0D813009F488C0CB0177FD21
:104EA000A0C0853691050CF46DC08091490D161691
:104EB00017060CF04CC0811190C08CE60E945C0F6C
:104EC0000E94680F82E0809387028091490DC4CFD1
:104ED0001093870280E00F900F90DF91CF911F9188
:104EE000089580E00F900F90DF91CF911F9108956A
:104EF0008091480D8823B9F082E20E945C0F0E94E5
:104F0000680F8091480D90E00196817099278093F9
:104F1000490D81E08093870280E00F900F90DF9130
:104F2000CF911F91089580E20E945C0FE8CF80919D
:104F3000490D882309F44DC086E20E945C0F0E944F
:104F4000680F81E0809387028091490D85CF8111A0
:104F50005AC088E70E945C0FB3CF653671050CF428
:104F600068C0813049F3882309F458C081E08093F8
:104F700087021092490D80E00F900F90DF91CF9142
:104F80001F91089581E08093870280E0A4CF8091F3
:104F9000490D81112BC088E20E945C0F0E94680FAE
:104FA00083E0809387028091490D56CF8091490D0F
:104FB00016161706FCF4813051F18CE60E945C0F46
:104FC000109387020E94680F8091490D8111D1CF03
:104FD00045CF84E20E945C0FB2CF8EE60E945C0F48
:104FE0006FCF88279927861B970B5BCF8AE20E9499
:104FF0005C0FD4CF811120C08CE70E945C0F83E04E
:1050000080938702DFCF8AE70E945C0F59CF82E747
:105010000E945C0F83E080938702D4CF82E080936C
:1050200087028CE60E945C0F0E94680F8091490DF8
:1050300013CF77FF98CF0ACF8AE70E945C0F1093B7
:105040008702C0CF8AE70E945C0F82E080938702CC
:105050000E94680F8091490DFFCE1F93CF93DF937D
:105060001F921F92CDB7DEB7681B790B683F88EFA0
:1050700078073CF5605F714F10918602113059F14D
:10508000113008F49EC0123009F45DC0133009F0ED
:1050900091C00E94B50F811184C08091460D9091FE
:1050A000470D01979093470D8093460D10924A0D3E
:1050B0001092860281E00F900F90DF91CF911F91A7
:1050C00008956930E7E07E07BCF260517E401091A0
:1050D00086021130A9F669837A830E94B50F69812F
:1050E0007A8181115EC08091460D9091470D0197A4
:1050F0009093470D8093460D80914A0D813009F4BD
:10510000B0C0CB018D599F4F873C910508F478C002
:105110008091490D653671050CF488C0882309F427
:10512000C2C0813009F4E7C091E0909386028111FA
:105130008AC081E08093490D80E00F900F90DF914D
:10514000CF911F91089569837A830E94B50F698179
:105150007A81811126C08091460D9091470D01976B
:105160009093470D8093460D80914A0D813009F44C
:1051700087C0CB0177FD9FC0853691050CF46CC0CC
:105180008091490D77FD4CC0811191C080E90E944A
:105190005C0F0E94680F82E0809386028091490D27
:1051A000C6CF1093860280E00F900F90DF91CF91D1
:1051B0001F91089580E00F900F90DF91CF911F9184
:1051C00008958091480D8823B9F08EE20E945C0F0B
:1051D0000E94680F8091480D90E001968170992798
:1051E0008093490D81E08093860280E00F900F90BC
:1051F000DF91CF911F9108958CE20E945C0FE8CF60
:105200008091490D882309F44EC082E30E945C0F0F
:105210000E94680F81E0809386028091490D87CFBC
:10522000811160C084E80E945C0FB3CF6C39FFEF3E
:105230007F070CF05BC0813041F3882309F46DC017
:1052400081E0809386021092490D80E00F900F90CC
:10525000DF91CF911F91089581E08093860280E0D5
:10526000A3CF8091490D81112BC084E30E945C0F74
:105270000E94680F83E0809386028091490D57CF8A
:105280008091490D77FD26C081111EC084E90E94DE
:105290005C0F83E0809386020E94680F8091490D25
:1052A0008111D1CF46CF80E30E945C0FB1CF82E95C
:1052B0000E945C0F6ECF88279927861B970B5CCFC7
:1052C00086E30E945C0FD4CF82E90E945C0F1093AA
:1052D0008602E2CF8130D1F084E80E945C0F109307
:1052E0008602DACF86E80E945C0F53CF16161706A7
:1052F0000CF417CFA2CF82E90E945C0F82E080936A
:1053000086020E94680F8091490D11CF8AE80E94A1
:105310005C0F83E080938602BFCF82E08093860299
:1053200084E80E945C0F0E94680F8091490DFFCEB7
:10533000CF93DF93D82FC0918502C13019F180F04F
:10534000C23021F080E0DF91CF9108950E94D10C0E
:10535000811129C0C093850280E0DF91CF9108952B
:105360000E94B50F81111BC0D13019F18CE10E9450
:105370005C0F0E94680F81E08093850280E0DF91DE
:10538000CF9108950E94B50F8111E4CF82E0809300
:10539000850288EE93E00E94A50C80E0D4CF1092A5
:1053A000850280E0D0CF0E9463191092850281E0CF
:1053B000CACF8BE10E945C0FDCCFCF93C82F409106
:1053C000840250E04830510530F080E0C111109265
:1053D0008402CF910895FA01EA59FE4F0C946E476A
:1053E0000E94B50F882309F456C086E0809384029A
:1053F00080E0ECCF0E94B50F882309F448C087E015
:105400008093840280E0E2CF0E94B50F8823A9F147
:105410000E94B10F81E08093840280E0D7CF0E9488
:10542000B50F882351F181E08093840280E0CECFD4
:105430000E94B50F882309F456C082E0809384024D
:1054400080E0C4CF0E94D10C811143C083E08093DF
:10545000840280E0BBCF0E94B50F882381F184E0F5
:105460008093840280E0B2CF0E94B50F8823E9F0D8
:1054700085E08093840280E0A9CF83EE0E945C0FD8
:105480000E94680F82E08093840280E09FCF109298
:10549000840281E09BCF8FE10E945C0F0E94680F25
:1054A00087E08093840280E091CF82EE0E945C0FBF
:1054B0000E94680F86E08093840280E087CF81EEAF
:1054C0000E945C0F0E94680F85E08093840280E058
:1054D0007DCF80EE0E945C0F0E94680F84E0809375
:1054E000840280E073CF8CED95E00E94A50C83E0F0
:1054F0008093840280E06ACFCF93C0918302C23050
:1055000009F441C068F0C430C1F098F1C53019F514
:105510000E94B50F81110CC01092830281E00BC074
:10552000CC23E1F0C130B9F40E94B50F8823C9F152
:10553000C093830280E0CF9108950E94B50F81113E
:10554000F7CF8FE10E945C0F0E94680F85E0809387
:10555000830280E0F0CF80E0CF9108950E94B50FE4
:105560008823F9F00E94B10F81E08093830280E0EC
:10557000E2CF0E94B50F8823F9F083E08093830285
:1055800080E0CF9108950E94B50F8111D1CF85EEB3
:105590000E945C0F0E94680F83E08093830280E08A
:1055A000CACF84EE0E945C0F0E94680F82E0809355
:1055B000830280E0CF91089586EE0E945C0F0E94E6
:1055C000680F84E08093830280E0B5CF1F93CF9370
:1055D000DF93EB01C81BD90BC83F88EFD8079CF5B8
:1055E000C05FD14F109182021230B9F1133008F030
:1055F0004DC0112309F472C0113009F061C00E943E
:10560000B50F811184C080914A0D813009F49FC08B
:10561000C953DF4FCF38D14008F488C08091490D7D
:10562000813009F4A2C084E50E945C0F0E94680FDB
:10563000109382028091490D811185C081E0809391
:10564000490D80E03EC0C93097E0D9075CF2C051F7
:10565000DE4010918202123049F60E94B50F882375
:1056600009F460C010938202D7FD21C08CE092E063
:105670000E94C11C811129C0C436D1050CF591E0EE
:1056800090934A0DDF91CF911F910895133061F3EC
:105690001430B1F40E94B50F811139C010924A0D37
:1056A0001092820281E0DF91CF911F91089582E1F3
:1056B00092E00E944D1D811108C0CD39DF4FFCF6EC
:1056C00080E0DF91CF911F91089510928202109295
:1056D0004A0D80E0DF91CF911F9108958091480D90
:1056E00081111CC080E50E945C0F0E94680F8091B0
:1056F000480D90E00196817099278093490D81E0D3
:105700008093820280E0DF91CF911F9108951093E2
:10571000820280E0DF91CF911F91089582E50E947F
:105720005C0FE3CF83E0809382029ECF8091490D8E
:10573000811117C084E50E945C0F0E94680F81E010
:105740008093820277CF1092490D80E0BACF80918A
:10575000490D813099F084E50E945C0F0E94680F2A
:1057600069CF86E50E945C0FE8CF8AE50E945C0F56
:105770000E94680F82E0809382025CCF8AE50E94DB
:105780005C0F84E080938202E9CF1F93CF93DF9375
:10579000EB01C81BD90BC83F88EFD8079CF5C05F49
:1057A000D14F109181021230B9F1133008F04DC081
:1057B000112309F472C0113009F061C00E94B50FC5
:1057C000811184C080914A0D813009F49FC0C95372
:1057D000DF4FCF38D14008F488C08091490D811146
:1057E000A2C084E60E945C0F0E94680F82E0809352
:1057F00081028091490D811185C081E08093490D1E
:1058000080E03EC0C93097E0D9075CF2C051DE406D
:1058100010918102123049F60E94B50F882309F4D5
:1058200060C010938102D7FD21C08CE092E00E94FD
:10583000C11C811129C0C436D1050CF591E09093AB
:105840004A0DDF91CF911F910895133061F3143009
:10585000B1F40E94B50F811139C010924A0D109217
:10586000810281E0DF91CF911F91089582E192E062
:105870000E944D1D811108C0CD39DF4FFCF680E03C
:10588000DF91CF911F9108951092810210924A0DDD
:1058900080E0DF91CF911F9108958091480D811193
:1058A0001CC08CE50E945C0F0E94680F8091480D1F
:1058B00090E00196817099278093490D81E0809353
:1058C000810280E0DF91CF911F91089510938102B2
:1058D00080E0DF91CF911F9108958EE50E945C0FCB
:1058E000E3CF83E0809381029ECF8091490D8111A7
:1058F00022C080E60E945C0F0E94680F81E08093C6
:10590000810277CF1092490D80E0BACF8091490D86
:10591000811115C084E60E945C0F84E080938102AF
:105920000E94680F66CF82E60E945C0F0E94680F9B
:10593000109381025ECF82E60E945C0FDDCF82E68B
:105940000E945C0FEDCF1F93CF93DF93EC0180910A
:105950008002823009F483C028F5882309F457C0F7
:10596000813061F5C0917C02D0917D020E945E3A47
:105970009E01281B390BC901883F38EF93070CF0B3
:105980008FC0805F914F97FDBFC0853691050CF0A9
:105990008FC084E08093800210E0812FDF91CF914F
:1059A0001F910895833081F0843041F41092800279
:1059B00011E0812FDF91CF911F91089510E0812F89
:1059C000DF91CF911F91089582E192E00E944D1DD9
:1059D000182F8111DECFC0917C02D0917D020E94F0
:1059E0005E3A9E01281B390B283F88EF38070CF4DC
:1059F0007EC0293087E0380714F020513E4024361D
:105A000031050CF47AC083E080938002C6CF0E94F7
:105A10005E3A90937F0280937E029E01220F331F95
:105A2000CC0FDD1FCC0FDD1FCC0FDD1F2C0F3D1F5A
:105A3000280F391F37FD65C021318EE0380714F07B
:105A400020513E4030937D0220937C0281E0809380
:105A5000800210E0812FDF91CF911F9108958CE09B
:105A600092E00E94C11C182F811193CFC0917C023B
:105A7000D0917D020E945E3A9E01281B390B283F7F
:105A800088EF38078CF1293087E0380714F020516F
:105A90003E402D393F4F8CF582E0809380027DCFD0
:105AA000893027E092070CF46ECF80519E406BCF77
:105AB000C0917C02D0917D020E945E3A9E01281B1B
:105AC000390BC901883F38EF9307A4F0893027E0EC
:105AD000920714F080519E4085369105CCF083E00A
