:100000000C94E1010C9402020C9402020C94020282
:100010000C9402020C9402020C9402020C94020250
:100020000C9402020C9402020C9402020C94020240
:100030000C9402020C9402020C9402020C94020230
:100040000C9402020C9402020C9402020C94020220
:100050000C9402020C9402020C9402020C94020210
:100060000C9402020C94403F0C9402020C94FD3E4E
:100070000C9402020C9402020C9402020C940202F0
:100080000C9402020C9402020C9402020C940202E0
:100090000C94A8430C9402020C94D7430C940202D3
:1000A0000C9402020C9402020C9402020C940202C0
:1000B0000C9402020C9402020C9402020C940202B0
:1000C0000C9402020C9402020C94020242025602A8
:1000D0005D026B02B602A002AB02100412040F0410
:1000E00014040F040F040F0416040F040F040F046C
:1000F0000F040F040F040F0418040F040F040F045F
:100100000F040F040F040F040F040F040F040F0457
:100110000F040F040F040F041A040F040F040F043C
:100120000F040F040F040F040F040F040F040F0437
:100130000F040F040F040F040F040F040F040F0427
:100140000F040F040F040F040F040F040F040F0417
:100150000F040F040F040F040E0428042A042704BC
:100160002C042704270427042E042704270427042B
:10017000270427042704270430042704270427041E
:100180002704270427042704270427042704270417
:1001900027042704270427043204270427042704FC
:1001A00027042704270427042704270427042704F7
:1001B00027042704270427042704270427042704E7
:1001C00027042704270427042704270427042704D7
:1001D0002704270427042704260443044804420470
:1001E0004D044204420442045204420442044204C4
:1001F00042044204420442045704420442044204BA
:1002000042044204420442044204420442044204BE
:1002100042044204420442045C0442044204420494
:10022000420442044204420442044204420442049E
:10023000420442044204420442044204420442048E
:10024000420442044204420442044204420442047E
:1002500042044204420442043E046D046D046704F7
:100260006D04670467046704760467046704670421
:1002700067046704670467047B0467046704670412
:100280006704670467046704670467046704670416
:1002900067046704670467047004670467046704FD
:1002A00067046704670467046704670467046704F6
:1002B00067046704670467046704670467046704E6
:1002C00067046704670467046704670467046704D6
:1002D00067046704670467048304762A812A8A2AEC
:1002E000942A9D2AA62A622A6C2A6364696E6F701A
:1002F000737578585B000C9430040C94A62A0C9407
:100300005C040C941A040C944D040C94812A0C94F3
:10031000B6020C9428040C94AB020C9432040C9496
:10032000942A0C94A0020C943D430C9426040C9443
:100330009D2A0C9467040C9443040C9448040C9478
:100340002E040C946B020C947B040C9410040C94FB
:100350006A480C9476040C9414040C9470040C9465
:1003600012040C94B91F0C9456020C9452040C9471
:1003700057040C9442040C9483040C9442020C9491
:100380002C040C945F430C946C2A0C945D020C9426
:100390003F200C943E040C940E040C942A040C94FC
:1003A00027040C940F040C94622A0C946D040C9492
:1003B000762A0C9418040C948A2A0C9416040C9433
:1003C000951E11241FBECFEFD1E2DEBFCDBF00E0EE
:1003D0000CBF12E0A0E0B2E0EAEBF7EA00E00BBFEE
:1003E00002C007900D92A03CB107D9F712E1A0EC32
:1003F000B2E001C01D92A633B107E1F70E94BF47EA
:100400000C94DB530C940000CF93DF93EC010E941B
:10041000FD3A8C1B9D0B893027E092071CF0805120
:100420009E4006C0883F28EF920714F4805F914FEA
:100430006AE070E00E940F48CB01DF91CF910895F0
:1004400060E071EE80E090E00E9418440E94B519CF
:100450000E94D3190E94911C84E690E00E94BE0C79
:100460000E94791E0E9435370C94603A8091C40234
:1004700090E08730910508F087C0FC01EA59FF4FF2
:100480000C94944981E00E94C404882361F00E9486
:10049000FD3A9093E2028093E1028FE10E94C40F43
:1004A0000E94D00F08C01092C40208950E9422102A
:1004B000882309F464C081E065C086E00E94CC37DF
:1004C0008C3C914030F4E0910402F09105021995C2
:1004D00035C00C94841E8091E1029091E2020E944A
:1004E000040240978CF00E94841EE0910402F09177
:1004F00005021995813011F585E08093C402E091E1
:100500000202F091030219C08091E1029091E2028F
:100510000E940402813F9F4F94F50E94841EE09147
:100520000402F09105021995813041F486E0809330
:10053000C402E0910002F0910102199483E022C00C
:100540000E94841EE0910202F0910302199581300D
:10055000B1F085E017C00E94841EE0910002F09186
:1005600001021995813059F086E00CC00E94841E6A
:10057000E0910402F09105021995813011F482E0B6
:1005800001C084E08093C40208950E94CD030E94BC
:1005900086040E9496070E94620B0C948C0C64994E
:1005A00074C081E08093F7029091FA02992309F4D4
:1005B000B5C01092FB02659952C081E08093F202AF
:1005C0009091F502992309F498C01092F602669969
:1005D00032C081E08093E8029091EB02992309F404
:1005E0007BC01092EC026799AAC081E08093E3027D
:1005F0009091E602992309F45EC01092E7024899AF
:1006000012C091E09093ED028091F002811110C030
:100610008091F1028F5F8093F1028091F102843129
:1006200009F4B4C008958091F002813009F49DC0AE
:100630001092F10208958091EB02813091F6909131
:10064000EC029F5F9093EC029091EC02943159F68A
:100650008093EA021092EB021092EC02C4CF8091D8
:10066000F502813009F0B1CF9091F6029F5F90932F
:10067000F6029091F602943109F0A9CF8093F4022A
:100680001092F5021092F602A2CF8091FA02813008
:1006900009F08FCF9091FB029F5F9093FB029091A6
:1006A000FB02943109F087CF8093F9021092FA028D
:1006B0001092FB0280CF9091E7029F5F9093E70238
:1006C0009091E702943109F09ACF8093E4028093ED
:1006D000E6021092E70293CF9091EC029F5F909315
:1006E000EC029091EC02943109F07DCF8093E90205
:1006F0008093EB021092EC0276CF9091F6029F5F0E
:100700009093F6029091F602943109F060CF8093B5
:10071000F3028093F5021092F60259CF9091FB02FA
:100720009F5F9093FB029091FB02943109F043CFBD
:100730008093F8028093FA021092FB023CCF8091E2
:10074000E602813009F059CF9091E7029F5F9093C4
:10075000E7029091E702943109F051CF8093E502CE
:100760001092E6021092E7024ACF9091F1029F5F49
:100770009093F1029091F102943109F053CF80935C
:10078000EF021092F0021092F10208959093EE029F
:100790009093F0021092F10208958FE787B98EE7E7
:1007A00088B91092F7021092F8021092F902109292
:1007B000FA021092FB021092F2021092F3021092CF
:1007C000F4021092F5021092F6021092E8021092D2
:1007D000E9021092EA021092EB021092EC021092DF
:1007E000E3021092E4021092E5021092E6021092E7
:1007F000E7021092ED021092EE021092EF021092B8
:10080000F0021092F102089590E0FC013197E0347B
:10081000F10528F4E359FF4F0C9494494698089544
:1008200040980895419808954298089543980895EE
:10083000449808954598089590E0FC013197E0347C
:10084000F10528F4E355FF4F0C949449469A089516
:10085000409A0895419A0895429A0895439A0895B6
:10086000449A0895459A089590E0FC013197E03448
:10087000F10540F4E351FF4F0C94944988B190E4A2
:10088000892788B9089588B191E0892788B90895A2
:1008900088B192E0892788B9089588B194E08927C2
:1008A00088B9089588B198E0892788B9089588B1F2
:1008B00090E1892788B9089588B190E2892788B99D
:1008C000089590E0FC013197E034F10510F080E0EC
:1008D0000895E35DFE4F0C94944986B180E008953D
:1008E00086B1807290E095958795089586B183FBD7
:1008F000882780F9089586B1807190E09595879555
:1009000095958795089586B1807408955098589A62
:100910008DB18F708DB98EB1806F8EB90895803290
:1009200059F160F4813001F18031A1F48091F70236
:10093000882381F01092F70281E00895803461F0FD
:10094000803841F48091E302882321F01092E30281
:1009500081E0089580E008958091E8028823D1F332
:100960001092E80281E008958091ED02882391F3CE
:100970001092ED0281E008958091F202882351F3F4
:100980001092F20281E00895803259F160F48130D2
:1009900001F18031A1F48091F802882381F0109256
:1009A000F80281E00895803461F0803841F480914C
:1009B000E402882321F01092E40281E0089580E0AF
:1009C00008958091E9028823D1F31092E90281E031
:1009D00008958091EE02882391F31092EE0281E057
:1009E00008958091F302882351F31092F30281E07D
:1009F0000895803259F160F4813001F18031A1F421
:100A00008091F902882381F01092F90281E0089523
:100A1000803461F0803841F48091E502882321F030
:100A20001092E50281E0089580E008958091EA0245
:100A30008823D1F31092EA0281E008958091EF02B9
:100A4000882391F31092EF0281E008958091F402DF
:100A5000882351F31092F40281E0089590917C0074
:100A6000987F90937C0020917C00982F9770922B18
:100A700090937C00882359F0815020E830E002C038
:100A8000359527958A95E2F7209522B9089582B188
:100A90008C6F82B90895CF92DF92EF92FF92CF933D
:100AA000DF93CDB7DEB72E970FB6F894DEBF0FBE3B
:100AB000CDBF8EE0E2EBF2E0DE01119601900D92E7
:100AC0008A95E1F789819A819C01220F331F220FB9
:100AD000331F220F331F281B390B40E050E0C12C7D
:100AE000B4ECDB2EB9E0EB2EF12CC701B6010E946D
:100AF0002348215031092F3F310509F008F49BC0EC
:100B00008B819C819C01220F331F220F331F220FE8
:100B1000331F281B390B40E050E0C701B6010E948B
:100B20002348215031092F3F310509F008F48AC0CC
:100B30008D819E819C01220F331F220F331F220FB4
:100B4000331F281B390B40E050E0C701B6010E945B
:100B50002348215031092F3F310509F008F474C0B2
:100B60008F8198859C01220F331F220F331F220F84
:100B7000331F281B390B40E050E0C701B6010E942B
:100B80002348215031092F3F310509F008F45EC098
:100B900089859A859C01220F331F220F331F220F54
:100BA000331F281B390B40E050E0C701B6010E94FB
:100BB0002348215031092F3F310509F008F448C07E
:100BC0008B859C859C01220F331F220F331F220F20
:100BD000331F281B390B40E050E0C701B6010E94CB
:100BE0002348215031092F3F3105A1F198F18D851E
:100BF0009E859C01220F331F220F331F220F331FAC
:100C0000281B390B40E050E0C701B6010E94234881
:100C1000215031092F3F3105F9F0F0F02E960FB633
:100C2000F894DEBF0FBECDBFDF91CF91FF90EF9064
:100C3000DF90CF90089580E02093B3008F5F809382
:100C4000B100ECCF81E0F8CF82E0F6CF83E0F4CFC3
:100C500084E0F2CF85E0F0CF86E0EECFEAE7F0E087
:100C6000808180648083089580917A00829581706C
:100C7000089587B3869581700895B99B089587B3C9
:100C8000876087BB1092B2009091EC0380917C004A
:100C9000887F80937C0020917C00892F8770822B35
:100CA00080937C00992309F420C12FEF290F80E85D
:100CB00090E002C0959587952A95E2F7809582B9D4
:100CC00020E42A95F1F780917A00806480937A007D
:100CD00080917A0084FFFCCF80917A0080618093BC
:100CE0007A008091780090917900E091EC03F0E037
:100CF000EE0FFF1FE351FC4F91838083E091EC03E3
:100D00002091FD0230E1E39FF0011124E20FF11D7B
:100D1000EE0FFF1FE45FFC4F91838083E091EC03B3
:100D200080E2E89FF0011124E45FFC4F8081918113
:100D3000E091EC0320E2E29FF0011124E45FFC4F1C
:100D400022813381820F931FE091EC0330E2E39F15
:100D5000F0011124E45FFC4F24813581820F931F41
:100D6000E091EC0320E2E29FF0011124E45FFC4FEC
:100D700026813781820F931FE091EC0330E2E39FDD
:100D8000F0011124E45FFC4F20853185820F931F11
:100D9000E091EC0320E2E29FF0011124E45FFC4FBC
:100DA00022853385820F931FE091EC0330E2E39FAD
:100DB000F0011124E45FFC4F24853585820F931FD9
:100DC000E091EC0320E2E29FF0011124E45FFC4F8C
:100DD00026853785820F931FE091EC0330E2E39F75
:100DE000F0011124E45FFC4F20893189820F931FA9
:100DF000E091EC0320E2E29FF0011124E45FFC4F5C
:100E000022893389820F931FE091EC0330E2E39F44
:100E1000F0011124E45FFC4F24893589820F931F70
:100E2000E091EC0320E2E29FF0011124E45FFC4F2B
:100E300026893789820F931FE091EC0330E2E39F0C
:100E4000F0011124E45FFC4F208D318D820F931F40
:100E5000E091EC0320E2E29FF0011124E45FFC4FFB
:100E6000228D338D820F931FE091EC0330E2E39FDC
:100E7000F0011124E45FFC4F248D358D820F931F08
:100E8000E091EC0320E2E29FF0011124E45FFC4FCB
:100E9000268D378D820F931F929582958F708927AB
:100EA0009F708927E091EC03F0E0EE0FFF1FE25006
:100EB000FD4F918380832091EC032630D1F0209167
:100EC000EC03211107C02091FC022130E1F08E3AA1
:100ED000914008F18091EC0390E0019667E070E0AA
:100EE0000E940F488093EC03089582B18C6F82B901
:100EF000E7CE2091FD0230E02F5F3F4F2F70332768
:100F00002093FD02DCCF863D914020F30E94120B1E
:100F10001092FC02DFCF4EE150E06EE170E085E020
:100F20000E941F0B81E08093FC02D4CFCF92DF920E
:100F3000EF92FF92CF93DF93CDB7DEB72E970FB628
:100F4000F894DEBF0FBECDBF87E880937A00109281
:100F50007B0010927C0010927E0010927D008CEF3E
:100F600081B982B986E692E09093EE038093ED0317
:100F70009093FF028093FE0290930D0380930C03E5
:100F800090930F0380930E039093110380931003AB
:100F9000909313038093120390931503809314038B
:100FA000909317038093160390931903809318036B
:100FB00090931B0380931A0390931D0380931C034B
:100FC00090931F0380931E0390932103809320032B
:100FD000909323038093220390932503809324030B
:100FE00090932703809326039093290380932803EB
:100FF00090932B0380932A039093F0038093EF0345
:10100000909301038093000390932D0380932C030E
:1010100090932F0380932E0390933103809330039A
:10102000909333038093320390933503809334037A
:10103000909337038093360390933903809338035A
:1010400090933B0380933A0390933D0380933C033A
:1010500090933F0380933E0390934103809340031A
:1010600090934303809342039093450380934403FA
:1010700090934703809346039093490380934803DA
:1010800090934B0380934A039093F2038093F10370
:10109000909303038093020390934D0380934C033A
:1010A00090934F0380934E0390935103809350038A
:1010B000909353038093520390935503809354036A
:1010C000909357038093560390935903809358034A
:1010D00090935B0380935A0390935D0380935C032A
:1010E00090935F0380935E0390936103809360030A
:1010F00090936303809362039093650380936403EA
:1011000090936703809366039093690380936803C9
:1011100090936B0380936A039093F4038093F3039B
:10112000909305038093040390936D0380936C0365
:1011300090936F0380936E03909371038093700379
:101140009093730380937203909375038093740359
:101150009093770380937603909379038093780339
:1011600090937B0380937A0390937D0380937C0319
:1011700090937F0380937E039093810380938003F9
:1011800090938303809382039093850380938403D9
:1011900090938703809386039093890380938803B9
:1011A00090938B0380938A039093F6038093F503C7
:1011B000909307038093060390938D0380938C0391
:1011C00090938F0380938E03909391038093900369
:1011D0009093930380939203909395038093940349
:1011E0009093970380939603909399038093980329
:1011F00090939B0380939A0390939D0380939C0309
:1012000090939F0380939E039093A1038093A003E8
:101210009093A3038093A2039093A5038093A403C8
:101220009093A7038093A6039093A9038093A803A8
:101230009093AB038093AA039093F8038093F703F2
:1012400090930903809308039093AD038093AC03BC
:101250009093AF038093AE039093B1038093B00358
:101260009093B3038093B2039093B5038093B40338
:101270009093B7038093B6039093B9038093B80318
:101280009093BB038093BA039093BD038093BC03F8
:101290009093BF038093BE039093C1038093C003D8
:1012A0009093C3038093C2039093C5038093C403B8
:1012B0009093C7038093C6039093C9038093C80398
:1012C0009093CB038093CA039093FA038093F9031E
:1012D00090930B0380930A039093CD038093CC03E8
:1012E0009093CF038093CE039093D1038093D00348
:1012F0009093D3038093D2039093D5038093D40328
:101300009093D7038093D6039093D9038093D80307
:101310009093DB038093DA039093DD038093DC03E7
:101320009093DF038093DE039093E1038093E003C7
:101330009093E3038093E2039093E5038093E403A7
:101340009093E7038093E6039093E9038093E80387
:101350009093EB038093EA031092EC031092FD024A
:101360001092FC0282E08093B0001092B2001092C2
:10137000700087E087BB8EE0E2EBF2E0DE011196C1
:1013800001900D928A95E1F789819A819C01220F43
:10139000331F220F331F220F331F281B390B40E04E
:1013A00050E0C12C64ECD62E69E0E62EF12CC7018A
:1013B000B6010E942348215031092F3F310509F021
:1013C00008F49BC08B819C819C01220F331F220F4C
:1013D000331F220F331F281B390B40E050E0C70199
:1013E000B6010E942348215031092F3F310509F0F1
:1013F00008F48AC08D819E819C01220F331F220F29
:10140000331F220F331F281B390B40E050E0C70168
:10141000B6010E942348215031092F3F310509F0C0
:1014200008F474C08F8198859C01220F331F220F0E
:10143000331F220F331F281B390B40E050E0C70138
:10144000B6010E942348215031092F3F310509F090
:1014500008F464C089859A859C01220F331F220FEE
:10146000331F220F331F281B390B40E050E0C70108
:10147000B6010E942348215031092F3F310509F060
:1014800008F44AC08B859C859C01220F331F220FD4
:10149000331F220F331F281B390B40E050E0C701D8
:1014A000B6010E942348215031092F3F310591F1A7
:1014B00088F18D859E859C01220F331F220F331FDB
:1014C000220F331F281B390B40E050E0C701B60143
:1014D0000E942348215031092F3F3105C9F0C0F047
:1014E0002E960FB6F894DEBF0FBECDBFDF91CF9121
:1014F000FF90EF90DF90CF90089580E02093B300AD
:101500008F5F8093B100ECCF81E0F8CF82E0F6CF1F
:1015100086E0F4CF85E0F2CF84E0F0CF83E0EECF39
:10152000E82FF0E0EE0FFF1FE351FC4F8081918127
:101530000895E82FF0E0EE0FFF1FE250FD4F80818D
:1015400091810895C19B11C0C19A1092950010928B
:1015500094008091C902811109C0809102048130F8
:1015600081F08091FB03813061F008958091020445
:10157000813019F18091FB038130F9F01092C9029A
:10158000089581E08093C9028091FC039091FD034E
:1015900001979093C8028093C7022091FE03309177
:1015A000FF033093C6022093C502892BF1F6809188
:1015B00080008F738093800008958091C70290917E
:1015C000C802009741F001979093C8028093C70228
:1015D000892B59F6ECCF8091C5029091C6020097F5
:1015E00031F001979093C6028093C50208958091CF
:1015F00080008F7B80938000809180008068809342
:1016000080008091FC039091FD039093C802809329
:10161000C7028091FE039091FF039093C6028093CE
:10162000C50208958091FB03813009F008958091EF
:1016300080008F73809380001092FB030895909137
:10164000FB03992359F19130A9F11092870090E0A2
:10165000FC01ED5FFB4F20812093860010928900F2
:1016600020812695209388007093FD036093FC03EE
:101670005093FF034093FE03909301048093000472
:10168000809180008F7B80938000809180008068B3
:101690008093800081E08093FB0308959091020481
:1016A000913099F6909180009F73909380001092F2
:1016B0000204CBCF909180009F7390938000109292
:1016C000FB03C3CF259A2D9810926F009FE296BB23
:1016D0001092850010928400E0E8F0E01082808192
:1016E0008E7F8083808182608083E1E8F0E01082D9
:1016F00080818860808380818061808310928900EE
:10170000109288008081887F8083808185608083BB
:101710001092710098BB1092950010929400E0E92D
:10172000F0E0108280818E7F808380818D7F808336
:10173000E1E9F0E0108280818860808380818F7E83
:10174000808398E1909399008AE680939800808145
:10175000887F80838081846080838DE1809303040F
:101760008AE1809304049093050486E18093060443
:1017700084E18093070482E18093080480E18093F0
:101780000904109202041092FB0381E090E0909310
:10179000FD038093FC039093FF038093FE0310925C
:1017A00001041092000408959091FB0391112CC044
:1017B00090910204911128C01092870090E0FC01E2
:1017C000ED5FFB4F208120938600109289002081DD
:1017D00026952093880090930104809300047093D1
:1017E000FD036093FC035093FF034093FE0380913D
:1017F00080008F7B80938000809180008068809340
:10180000800081E08093020408959091FB03911180
:1018100004C090910204913009F00895109287005D
:1018200090E0FC01ED5FFB4F208120938600109239
:10183000890020812695209388009093010480934D
:10184000000408952091FB03211104C0209102049B
:10185000213009F008959093FD038093FC030895CF
:101860002091FB03211104C020910204213009F0D2
:1018700008959093FF038093FE0308958091FB03E6
:10188000811104C080910204813009F00895809193
:1018900080008F73809380001092020408958091DD
:1018A000020408958091FB030895D19B19C0D19A39
:1018B0001092250110922401409110048091CA02D7
:1018C0009091CB02413069F020910A0430910B04D1
:1018D00082179307C9F001969093CB028093CA02B6
:1018E000089520910D0430910E048217930799F703
:1018F0001092CB021092CA0240930C0480912101F5
:10190000887F8093210108951092CB021092CA0221
:1019100081E080930F040895109273008FE28ABBD8
:101920001092250110922401E0E2F1E01082808102
:101930008E7F808380818D7F8083E1E2F1E0108261
:1019400080818860808380818F7E808388E180931E
:1019500029018AE6809328018081887F8083109204
:10196000100410920E0410920D0410920B041092A9
:101970000A0410920C0410920F040895109210049F
:101980009C013695279536952795ABE7B4E10E94E3
:10199000EE479695879590930B0480930A041092D6
:1019A0000F0410922501109224018FE28ABBE1E21C
:1019B000F1E08081887F80838081846080830895C6
:1019C00021E0209310049C013695279536952795A4
:1019D000ABE7B4E10E94EE479695879590930E048D
:1019E00080930D0410920C04109225011092240192
:1019F0008FE28ABBE1E2F1E08081887F8083808191
:101A000084608083089580910F04813011F080E01C
:101A1000089510920F04089580910C04813011F004
:101A200080E0089510920C040895E1E2F1E08081D5
:101A3000887F8083D19A1092250110922401109200
:101A40000F0410920C040895109272008FE289BB6B
:101A50001092A5001092A400E0EAF0E010828081CC
:101A60008E7F808380818D7F8083E1EAF0E0108229
:101A700080818860808380818F7E80838DE38093E6
:101A8000A90088E08093A8008081887F808380817E
:101A9000826080830895C99B07C0C99A1092A500EF
:101AA0001092A40081E0089580E00895AF92BF9263
:101AB000CF92DF92EF92FF920F931F93CF93DF931A
:101AC0001F921F92CDB7DEB7CE0101960E94AF19CB
:101AD000E5E0F5E049815A81BEE3AB2EB1E1BB2ED2
:101AE000D12C01E010E085E0C82E1FC0C9018E5E38
:101AF0009B4FDC01CC92C9018D5E9B4FDC01CC92E7
:101B0000CB01880F991F8E569B4F2E5E3B4FDC01F9
:101B10002D933C93D39470964E5F5F4FBFEFAB1AFB
:101B2000BB0A87E0E530F807D9F18081882399F373
:101B3000DA018D919C919F0127503109D9012D9196
:101B40003C91820F931FD5012C91820F911D27FD8F
:101B50009A956D2D70E09B01220F331F220F331FCA
:101B6000D901AC5EBB4F8C93D901AB5EBB4F9C934C
:101B7000CF010197DC018C91882309F4B7CF8F70D6
:101B8000D80102C0AA0FBB1F8A95E2F7CD01D90187
:101B9000AE5EBB4F8C93D901AD5EBB4F8C93B0CF83
:101BA000DD2061F002E914E024E030E04CE150E097
:101BB00066ED74E0809111040E944F420F900F90E7
:101BC000DF91CF911F910F91FF90EF90DF90CF9019
:101BD000BF90AF90089590E1899FF0011124EA50E1
:101BE000FB4F6687089590E1899FF0011124EA5028
:101BF000FB4F8685089590E1899FF0011124EA50FA
:101C0000FB4F71876087089590E1899FF00111244F
:101C1000EA50FB4F80859185089590E1899FF001FE
:101C20001124EA50FB4F8785089590E1899FF001C8
:101C30001124EA50FB4F8285089590E1899FF001BD
:101C40001124EA50FB4F84850895C99B15C0C99A99
:101C50001092A5001092A4000E94323781110DC08D
:101C60000E9425100E94F1180E946E310E943237A6
:101C7000811106C00C94560D08950E94A336F0CF32
:101C80000E94AD36F7CF2F923F924F925F926F92A4
:101C90007F928F929F92AF92BF92CF92DF92EF92FC
:101CA000FF920F931F93CF93DF9300D0CDB7DEB792
:101CB000482E19820E941C40882309F452C12FEF3C
:101CC00089E698E1215080409040E1F700C0000093
:101CD000E6EFF4E045E055E025E011821082138242
:101CE0001282158214821782168211861086DA01FA
:101CF0001C92CA010197DC012C931386128615866B
:101D000014867096405F5F4FB6E0E63FFB0729F709
:101D10001092D2041092D3041092D4041092D504DD
:101D200066ED74E0CE0101960E947140109211049C
:101D30008981882309F418C1312C9CE2892E9924C9
:101D40009394AA24AA9423E0B22EC12C32E0D32E7D
:101D50005524539445E0642EEE24E394F12C62E084
:101D6000262E09C081159C4009F4C4C03394898192
:101D7000381608F069C0E32DF0E0EA52FB4F70809E
:101D8000872D0E94783E8C30910521F08C32E1E065
:101D90009E0741F7872D0E945A34F0E17F9EB001E3
:101DA00011248B010A501B4FD80111969C928E92E0
:101DB0001396BC92AE92129715961C921E9214978F
:101DC0001796DC92CE921697872D6A837B830E94AA
:101DD000B735F801918780876A817B81AB014E5FBF
:101DE0005A4F60507B4F872D0E94DE32D8011F96DC
:101DF0005C921F971E966C92809111048F5F809366
:101E00001104A70102C0440F551F7A94E2F7662718
:101E100057FD6095762F8091D2049091D304A091C4
:101E2000D404B091D504842B952BA62BB72B80938B
:101E3000D2049093D304A093D404B093D5043394E4
:101E40008981381608F497CF80911104481609F457
:101E500085C044E650E06AE070E084E00E941F0B19
:101E6000109272008FE289BB1092A5001092A4001C
:101E70001092A0008091A0008E7F8093A00080919E
:101E8000A0008D7F8093A0001092A1008091A100FE
:101E900088608093A1008091A1008F7E8093A10033
:101EA0008DE38093A90088E08093A8008091A10031
:101EB000887F8093A1008091A10082608093A1001F
:101EC0000E94B60F809111040F900F900F90DF9138
:101ED000CF911F910F91FF90EF90DF90CF90BF9027
:101EE000AF909F908F907F906F905F904F903F90BA
:101EF0002F900895872D0E945A34E0E17E9EB00114
:101F000011248B010A501B4FE4EBF0E0D80111962D
:101F1000FC93EE931396BC92AE92129715961C9278
:101F20001E9214971796DC92CE921697872D6A838D
:101F30007B830E94B735D80119969C938E9318978E
:101F40006A817B81AB014E5F5A4F60507B4F872D7A
:101F50000E94DE32F801278666864ECF0E94120B61
:101F60007FCF0E94E63FABCE80E070CF1092720C24
:101F70001092B40B8FEF8093B40C8093B3098093CD
:101F8000710C1092B30C0895CF93C82F64EB79E0D5
:101F90000E94AB18811102C0C093B309CF9108957C
:101FA0001092720C1092F40B1092F30B1092B20973
:101FB0001092B1091092B20C1092B10C83E0809390
:101FC000540D1092710C8091C3098093B009109246
:101FD000B40CE5E0F5E080E090E006C07096029673
:101FE00027E0E530F20709F120812130B9F7DF0160
:101FF00017972D913C91DC01AD58B34F2D933C9335
:10200000DC01AA5EB24F1D921C92DC01AD5CB34FA5
:102010001D921C92DC01AA50B94F1D921C92709621
:10202000029627E0E530F207F9F681E08093B30CE1
:1020300080917411806180937411089581E0809380
:10204000B40B08958091B30C08952F923F924F9254
:102050005F926F927F928F929F92AF92BF92CF9238
:10206000DF92EF92FF920F931F93CF93DF93CDB741
:10207000DEB7A3970FB6F894DEBF0FBECDBF809139
:10208000B30C882309F49AC08091F30B9091F40B60
:102090004091B1095091B2098417950708F0A7C083
:1020A0008C010F5F1F4F1A8709871093F40B009361
:1020B000F30B1091540D1D87133009F47FC08091EC
:1020C000B1099091B2098C0120E030E0098B1A8BA4
:1020D0002B8B3C8B8C01015011091E8B0D8B06ED57
:1020E0001CE07EEFA72E74E0B72EE4E3CE2EE7E0EF
:1020F000DE2EF6E1EF2EFDE0FF2EA6EF4A2EA6E043
:102100005A2EB5EB6B2EBBE07B2E812C912C80E000
:1021100090E0212C312C9BA38AA3C20123019401BE
:102120004801A60167017A0189013C0121C0BFEF86
:102130002B1A3B0AEAA1FBA17096FBA3EAA3F2E0EB
:102140008F0E911C0E5F1F4F20E1A20EB11C32E0DA
:10215000E30EF11C42E0C40ED11C52E0650E711C6E
:1021600062E0460E511C8AA19BA18115924031F17B
:102170002AA13BA12A503B4F3A832983D9011F96BC
:102180008C918130A1F6F801ED5CF34F8081918153
:10219000892B09F06FC0F40180819181D5018D9365
:1021A0009C93F101EC54F64F80A1A981BA811E964F
:1021B0008C93BDCF1092B30C1092B40BA3960FB6B4
:1021C000F894DEBF0FBECDBFDF91CF911F910F916D
:1021D000FF90EF90DF90CF90BF90AF909F908F9047
:1021E0007F906F905F904F903F902F900895109246
:1021F000F40B1092F30BE5E0F5E080E090E006C010
:102200007096029607E0E530F007E1F0208121307A
:10221000B9F7DF0117972D913C91DC01AA52B34F1A
:102220002D933C93DC01AA50B94F2D913C91DC01D8
:10223000AA5EB24F2D933C937096029607E0E5306C
:10224000F00721F78091540D882309F4C7C081302D
:1022500009F492C1823009F45BC1833009F42CC2C5
:102260005E874D8780E090E0DA018A179B0708F0CF
:10227000A5CF16CFBD85B1114AC0F6010190F081FE
:10228000E02DF88BEF87F701A081B1812F85388988
:10229000A21BB30B29853A850E94FD4729893A89FB
:1022A0004B895C890E9445488F859889820F931FCE
:1022B000D3018D939C93D901B595A795EF85F889A6
:1022C000AE0FBF1F29853A850E94FD479B01AC01D7
:1022D000A0E9B0E00E9404482FE030E040E050E088
:1022E0000E94454869E055954795379527956A9529
:1022F000D1F7F801EE58F64F31832083D4018D9148
:102300009C91820F931FF501918380834ACFB13056
:1023100009F448C029853A854D895E892417350717
:1023200009F421C1F101EB54F34F808181113AC0CE
:10233000F6010190F081E02DF88BEF87DF01B19578
:10234000A195B10929853A850E94FD4729893A89D5
:102350004B895C890E9445488F859889820F931F1D
:10236000D3018D939C93D901B595A795EF85F889F5
:10237000AE0FBF1F29853A850E94FD479B01AC0126
:10238000A0E9B0E00E9404482FE030E040E050E0D7
:102390000E94454899E055954795379527959A9518
:1023A000D1F7ACCFF201A081B18129853A850E9495
:1023B000FD4729893A894B895C890E944548D401A7
:1023C0008D919C91820F931FF50191838083D7019A
:1023D0008D919C91F30191838083E3CE81E0809382
:1023E000540D2091140D3091150D0091D40C1091C5
:1023F000D50C1A830983C801880F991F8901081B0E
:10240000190B1E870D871093B2090093B10909813A
:102410001A812017310709F4E5C0A801B3E32B2E78
:10242000BCE03B2E12E7612E19E0712E04E3802EF2
:1024300007E0902E85EB482E8BE0582E05EB1CE034
:1024400065E075E0C901841B950B9C0140E050E0FC
:1024500029873A874B875C8795E0C92ED12CE12CE0
:10246000F12C788B6F8719C0EF85F8897096F88BFF
:10247000EF87F2E02F0E311C22E0620E711C32E079
:10248000830E911C42E0440E511C0F5F1F4F6F855D
:1024900078896550774009F44BC0AF85B8898C9135
:1024A000813011F7F8018081813009F446C0F401D0
:1024B000A081B181F101A080B180F301808191817F
:1024C000A81AB90A29813A810E94FD479B01AC01F3
:1024D000660F771F881F991F620F731F841F951F38
:1024E000660F771F881F991F660F771F881F991F18
:1024F000A70196010E944548BB2757FDBA95A52F15
:10250000942F832FA81AB90AD201AD92BC92ACCFF6
:102510008091B10C9091B20C009709F4E1C023E0D6
:102520002093540D9093B2098093B1099E878D87B3
:1025300080E090E0AD85BE8598CEF101A081B181AB
:10254000F30180819181A81BB90B2D853E850E94E6
:10255000FD4729853A854B855C850E944548D20117
:102560002D933C9381CFF801ED58F34F80819181F9
:10257000D5018D939C9315CE82E08093540D70917C
:10258000D40C6091D50C7093B1096093B209A5EB9E
:10259000BBE0E5E0F5E080E090E08D0109C07096D9
:1025A00002960E5F1F4FB7E0E530FB0709F47DC0D0
:1025B00020812130A1F79C012D5C334FD9012D9151
:1025C0003C91D8014D915C91241B350BAC014E58C8
:1025D000564FDA014D915C91241B350BD8012D9398
:1025E0003C93DDCFB5EBCB2EBBE0DB2E15EBE12E24
:1025F0001CE0F12E85E095E000E010E045E0442E7F
:10260000512C612C712C49011C0111C0F0E12F0EDD
:10261000311C22E0C20ED11C0E5F1F4F3FEFE31AA8
:10262000F30A45E0241647E0340609F481CFD101CE
:102630008C91813059F7F70180818130C9F1F8011F
:10264000EC5CF84FA081B181F801ED5CF34FA08004
:10265000B180F801EE58F64F80819181A81AB90A2D
:1026600094010E94FD479B01AC01660F771F881FF4
:10267000991F620F731F841F951F660F771F881F96
:10268000991F660F771F881F991FA30192010E944F
:102690004548BB2757FDBA95A52F942F832FA81A1D
:1026A000B90AF601B182A082B1CF7D876E8740CF93
:1026B000D6011D921C92AACF1092540DA6E1BDE046
:1026C000E5E0F5E006C07096129607E0E530F00709
:1026D00049F080818130B9F711961C921E92F3CF98
:1026E0001092540D8091720C813009F463CD809169
:1026F000710C8F5F8093710CA091C809A81708F026
:10270000C8C080E092E0E2E7F7E0A4EBB9E0019016
:102710000D920197E1F78091B40C9091B30998174D
:1027200021F09091C3099093B00991E09093710CBE
:102730008093B309A091C809B1E0AB1709F484C232
:102740006B2F70E08B01015011090024169507953D
:102750000794169507950794102F002DA8014C5447
:10276000564FFA01E258FF4F80812091CA09289FF5
:10277000C001112496958795929582958F7089272F
:102780009F7089279093B20C8093B10CFA01E158A5
:10279000FF4F3081329F9001112436952795329555
:1027A00022952F7023273F7023272115310511F41F
:1027B00021E030E04091720C413009F45EC2892B77
:1027C00009F4C4C1AB1709F456C3E5EB4E2EECE097
:1027D0005E2EA3E7BCE07B010024F694E794079407
:1027E000F694E7940794FE2CE02CA7014C50564F2A
:1027F0007A0180EC582F56034001579F900C11240A
:10280000E5E0F5E080E090E059013D01A7016801B5
:102810000EC07096BFEF4B1A5B0A029602E0600E84
:10282000711C4E5F5F4F17E0E530F107A1F1208189
:10283000213079F79C012E58364FD9011D921C92F8
:102840009A01280D391D2C0D3D1DD9012D913C916A
:1028500036FF18C0D3012D913C91B901E12CF12C28
:102860008C010A52134FD8016D937C93D3012D93A1
:102870003C939C012D5C334FD901ED92FC92D20127
:102880001C92C7CFD3016D917C917901E61AF70AAA
:10289000E7CFB82F52CF95013093150D2093140D2B
:1028A0008091CC0990E0AC01440F551F42175307AB
:1028B00008F4E0C0C9010197969587959093D50CCF
:1028C0008093D40C009709F0D9C01092150D109286
:1028D000140D1E861D8619821A821B821C821D827F
:1028E0001E821F82188661E06F87412C512C198A45
:1028F0001D8A1F8A188E198E71E07A8F1B8E1C8E8E
:102900001D8E1E8E1F8E18A219A274E3872E77E0EB
:10291000972EE5EB6E2EECE07E2E05E015E0212CE7
:10292000312C1BA30AA315C00AA11BA1005F1F4FD6
:102930001BA30AA312E0810E911C22E0220E311C7F
:102940003FEF631A730A4AA15BA14550574009F44F
:1029500084C0AAA1BBA18C91813031F7F101EA5E5C
:10296000F24F31812081932F990F990BA980BA8062
:10297000CB80DC80ED80FE800F811885492F592F98
:10298000692F792F892F0E949B4859016A017B0189
:102990008C01F101ED5CF34FA081B18120E03AE0C0
:1029A0000E94FD472CE030E040E050E00E944548A6
:1029B000DA01C901550F220B322FA90129873A8765
:1029C0004B875C87F3012081211122C09C01AD015E
:1029D0006985762F862F962F0E94BC49AA8CBB8CC6
:1029E000CC8CDD8CEE8CFF8C08A119A10E945E4876
:1029F000D4012C9311963C93822F932F8115F4E0F0
:102A00009F070CF1EFEFF3E0D401ED93FC938CCF33
:102A10009C01AD016985762F862F962F0E94BC49B7
:102A2000AF84B42CC52CD988ED88FF88088D198D0A
:102A30000E945E48F40120833183822F932F8115F9
:102A4000F4E09F07FCF681309C4F0CF06DCFE1E085
:102A5000FCEFD401ED93FC9367CF8D859E85909319
:102A6000B2098093B1098091F30B9091F40BAD857D
:102A7000BE85FBCB9093D50C8093D40C4901A12C3F
:102A8000B12C880C991CAA1CBB1CC12CD12C760122
:102A90009E878D87A0E0B0E0880F991FAA1FBB1FFB
:102AA0008C019D0140E050E0BA0189831A832B8399
:102AB0003C834D835E836F8378879401A501B601C3
:102AC000C7015801CB80DC80E12CF12C00E010E044
:102AD0000E94BC4901E00E949A49722E832E942ED6
:102AE000B52F662E372EF82FE92F00E00E94B3494C
:102AF0002F87432E542E598B6D8B7F8B888F998F08
:102B00007A8E8B8E9C8EBD8F6E8E3F8EF8A3E9A33E
:102B1000452DA0E00E94C54949F411E01F87412CD2
:102B2000512C198A1D8A1F8A188E198E272D382D2F
:102B3000492D5B2F662D732D8F2F9E2FA0E00E94B5
:102B4000C54909F0E2CE21E02A8FD8CEAB1709F4AF
:102B50002AC1A5EBEA2EACE0FA2EB3E74B2EBCE07F
:102B60005B2EDB010024B695A7950794B695A79533
:102B70000794BA2FA02DAC50B64F80EC482F4603D7
:102B80004001479F900C1124E5E0F5E080E090E0E3
:102B9000772473945901A7011D0168010FC0709635
:102BA0004F5F5F4F0296B2E04B0E511C02E0200EC9
:102BB000311C17E0E530F10709F46DCE208121309A
:102BC00071F79C012E58364FD9011D921C9291012C
:102BD000280D391D2C0D3D1DD9012D913C9136FF3D
:102BE0002CC0D2012D913C91B901E12CF12C8C012A
:102BF0000A52134FD8016D937C93D2012D933C93CD
:102C00008C010D5C134FD801ED92FC92D1010D9116
:102C10001C9116FD0FC06217730730F4201731079F
:102C200018F4DA017C92BBCF2617370718F4021785
:102C30001307B8F3DA011C92B2CFD2016D917C91E7
:102C40007901E61AF70AD3CF8091B40B813009F4E9
:102C5000A0C08091B00981508093B009882309F405
:102C600093C08091B3098093B40C811169C081E055
:102C70008093720CB091710C63CD892B09F046C121
:102C8000AB1709F4F5C145EB442E4CE0542EA3E7F5
:102C9000BCE07B010024F694E7940794F694E79453
:102CA0000794FE2CE02CA7014C50564F7A0180EC83
:102CB000582F56034001579F900C1124E5E0F5E092
:102CC00080E090E059013D01A7010FC07096BFEF71
:102CD0004B1A5B0A029622E0620E711C4E5F5F4F38
:102CE00037E0E530F30709F4D6CD2081213071F7C4
:102CF0009C012E58364FD9011D921C929A01280D25
:102D0000391D200F311FD9012D913C91D30136FF80
:102D100035C02D913C917901C12CD12CBC016A5256
:102D2000734FDB01ED92FC92D3012D933C939C01F8
:102D30002D5C334FD901CD92DC92D2011C92C6CFCB
:102D40009091B30998132AC080E092E0E4EBF9E097
:102D5000A2E7B7E001900D920197E1F7809181071A
:102D6000882321F080918607811103C081E0809340
:102D7000720CB091710CA091C809E2CCED90FC905E
:102D80006901CE18DF08CACF8091CD098093B40CB9
:102D90006CCF8091CE098093B40C67CF62E777E067
:102DA0000E94AB18DBCF45EB5CE0A3E7BCE00C5422
:102DB000164FE5E0F5E080E090E0BB24B3946901B4
:102DC0003A014D010DC07096BFEF6B1A7B0A029657
:102DD00022E0820E911C37E0E530F30709F449C088
:102DE0004081413081F7AC014E58564FDA011D92B7
:102DF0001C92A801480F591F405C5F4FDA014D91AA
:102E00005C9156FF2FC0D4014D915C91BA01E12C29
:102E1000F12C9C012A52334FD9016D937C93D4013C
:102E20004D935C939C012D5C334FD901ED92FC9244
:102E30009C012E54384FD901ED90FC90F6FC0FC048
:102E40006417750730F44E155F0518F4D301BC9272
:102E5000BACF4617570718F4E416F506B8F3D301AE
:102E60001C92B1CFD4016D917C917A01E61AF70AD8
:102E7000D0CF960111CD45EB5CE0A3E7BCE00C544C
:102E8000164FE5E0F5E080E090E04A0169015D0160
:102E90000CC07096BFEF8B1A9B0A029622E0A20E1E
:102EA000B11C37E0E530F30721F34081413089F769
:102EB000AC014E58564FDA011D921C92A801480FE2
:102EC000591F405C5F4FDA014D915C91D50156FF6F
:102ED00017C04D915C91BA01E12CF12C9C012A5252
:102EE000334FD9016D937C93D5014D935C93AC0125
:102EF0004D5C534FDA01ED92FC92D4011C92C9CF84
:102F00006D917C917A01E61AF70AE8CFAB1709F4C4
:102F100065C085EB482E8CE0582EA3E7BCE07B0112
:102F20000024F694E7940794F694E7940794FE2C13
:102F3000E02CC7018C50964F7C0180EC482F460353
:102F40004001479F900C1124E5E0F5E080E090E01F
:102F500059013D01A70178010FC07096BFEF4B1AD0
:102F60005B0A029602E0600E711C4E5F5F4F17E035
:102F7000E530F10709F48FCC2081213071F79C01F5
:102F80002E58364FD9011D921C929A01280D391DD9
:102F90002E0D3F1DD9012D913C9136FF18C0D30154
:102FA0002D913C91B901C12CD12C8C010A52134FA7
:102FB000D8016D937C93D3012D933C939C012D5CA0
:102FC000334FD901CD92DC92D2011C92C6CFD301EE
:102FD0006D917C916901C61AD70AE7CFA3E7BCE0DF
:102FE00045EB5CE00C54164FE5E0F5E080E090E046
:102FF0005D014A010DC070960296B2E0AB0EB11CA5
:103000004FEF841A940A57E0E530F50709F444CCF1
:103010004081413081F7AC014E58564FDA011D9284
:103020001C92A801480F591F405C5F4FDA014D9177
:103030005C91D50156FF16C04D915C91BA01E12C0F
:10304000F12CDC01AA52B34F6D937C93D5014D93C3
:103050005C93AC014D5C534FDA01ED92FC92D401CC
:103060001C92C9CF6D917C917A01E61AF70AE9CFDB
:10307000A3E7BCE045EB5CE00C54164FE5E0F5E05F
:1030800080E090E05D014A010DC070960296B2E0CA
:10309000AB0EB11C4FEF841A940A57E0E530F507E8
:1030A00009F4FACB4081413081F7AC014E58564FBC
:1030B000DA011D921C92A801480F591F405C5F4F16
:1030C000DA014D915C9156FF17C0D5014D915C918D
:1030D000BA01E12CF12CDC01AA52B34F6D937C9321
:1030E000D5014D935C93AC014D5C534FDA01ED92E9
:1030F000FC92D4011C92C9CFD5016D917C917A01CB
:10310000E61AF70AE8CFFC0120E030E090E0819178
:10311000980F2F5F3F4F211582E03807C1F781E0FC
:10312000911180E0089520E032E0FC01A9011192A4
:1031300041505040E1F70895FB0120E030E0DC0110
:10314000A20FB31F4C9141932F5F3F4F211542E0D7
:103150003407A9F70895EF92FF920F931F93CF932F
:10316000DF93F62EE72E082F10E020E030E000512C
:103170001F4F2F4F3F4F89E0000F111F221F331F9A
:103180008A95D1F7C62FD72F80E090E0DC01AC0103
:10319000BD01400F511F621F731F6BBFFA014791A2
:1031A00049930196A11DB11D811542E09407A10527
:1031B000B10569F7EF2DFE2D20E080E090E0319120
:1031C000230F0196811532E09307C9F781E02111A1
:1031D00080E08195DF91CF911F910F91FF90EF904B
:1031E00008954F925F926F927F928F929F92AF92CB
:1031F000BF92CF92DF92EF92FF921F93CF93DF9314
:103200008091970D813081F0DF91CF911F91FF90D8
:10321000EF90DF90CF90BF90AF909F908F907F9076
:103220006F905F904F9008951091550D113061F798
:1032300083E00E94900A20919A0D30919B0D7C01B1
:10324000E21AF30A84E00E94900AC091980DD0918E
:10325000990D662777276E197F09C81BD90B68332C
:103260008FEF78070CF46EC0693C710514F0109371
:10327000560D882777FD8095982F0E94E44A6B01B0
:103280007C0126E234EB47E95DE30E94944B2B017D
:103290003C0129E33EE843E65EE3C701B6010E9434
:1032A000944B4B015C01BE01882777FD8095982FD8
:1032B0000E94E44A6B017C012DEC3CEC4CE45EE3A3
:1032C0000E94944B0E94B64A7093680D6093670DFC
:1032D00070936A0D6093690DC301B2010E94B64AF2
:1032E0007093700D60936F0DC301B20190580E94EE
:1032F000B64A7093720D6093710DC501B4010E94BE
:10330000B64A7093740D6093730DC501B401905863
:103310000E94B64A7093760D6093750D2DEC3CECCF
:103320004CEC5DE3C701B6010E94944B90580E949B
:10333000B64A7093780D6093770D70937A0D609311
:10334000790D62CF82E08093560D93CFE82FF0E0A5
:10335000EE0FFF1FE95AF24F80819181089527E512
:103360003DE0FC0131832083089510929B0D109263
:103370009A0D1092990D1092980D1092550D109271
:10338000970D1092560D80E4E7E5FDE0DF011D92F8
:103390008A95E9F708958091560D1092560D08957B
:1033A0001092560D08952F923F924F925F926F9216
:1033B0007F928F929F92AF92BF92CF92DF92EF92C5
:1033C000FF920F931F93CF93DF93CDB7DEB7E497B0
:1033D0000FB6F894DEBF0FBECDBF10929B0D1092BA
:1033E0009A0D1092990D1092980D82E390E00E9430
:1033F000BE0C7E0185E1E80EF11CFE013196FAA7B4
:10340000E9A71E01F9E22F0E311C812C912C5401E9
:103410002401350104C00E94550C0E943D060E9403
:10342000030D8823C1F383E00E94900A8C01F70109
:10343000819391937F0184E00E94900A6C01E9A539
:10344000FAA581939193FAA7E9A7B80180E090E0EB
:103450000E94E24A9B01AC01C301B2010E94E6490D
:103460002B013C01B60180E090E00E94E24A9B0102
:10347000AC01C501B4010E94E6494B015C01E214B4
:10348000F30469F60E94150D20E030E040E251E4BB
:10349000C301B2010E944E4A6B017C0120E030E082
:1034A00040E251E4C501B4010E944E4A69A77AA7DF
:1034B0008BA79CA76D897E8980E090E00E94E24AFC
:1034C000A70196010E94E5499B01AC010E94944B23
:1034D00020E030E0A9010E94E6492B013C0169810E
:1034E0007A8180E090E00E94E24A29A53AA54BA5A6
:1034F0005CA50E94E5499B01AC010E94944B20E031
:1035000030E0A9010E94E6494B015C016F89788D8A
:1035100080E090E00E94E24AA70196010E94E549FE
:103520009B01AC010E94944BA30192010E94E649C9
:103530002B013C016B817C8180E090E00E94E24A9B
:1035400029A53AA54BA55CA50E94E5499B01AC01C4
:103550000E94944B9B01AC01C501B4010E94E64955
:103560004B015C01698D7A8D80E090E00E94E24A17
:10357000A70196010E94E5499B01AC010E94944B72
:103580009B01AC01C301B2010E94E6492B013C0141
:103590006D817E8180E090E00E94E24A29A53AA5F3
:1035A0004BA55CA50E94E5499B01AC010E94944B90
:1035B0009B01AC01C501B4010E94E6494B015C01CD
:1035C0006B8D7C8D80E090E00E94E24AA70196011D
:1035D0000E94E5499B01AC010E94944B9B01AC0108
:1035E000C301B2010E94E6492B013C016F8178853D
:1035F00080E090E00E94E24A29A53AA54BA55CA58F
:103600000E94E5499B01AC010E94944B9B01AC01D7
:10361000C501B4010E94E6494B015C016D8D7E8DB0
:1036200080E090E00E94E24AA70196010E94E549ED
:103630009B01AC010E94944B9B01AC01C301B20100
:103640000E94E6492B013C0169857A8580E090E083
:103650000E94E24A29A53AA54BA55CA50E94E5492E
:103660009B01AC010E94944B9B01AC01C501B401CC
:103670000E94E6494B015C016F8D78A180E090E0EB
:103680000E94E24AA70196010E94E5499B01AC0114
:103690000E94944B9B01AC01C301B2010E94E64918
:1036A0002B013C016B857C8580E090E00E94E24A22
:1036B00029A53AA54BA55CA50E94E5499B01AC0153
:1036C0000E94944B9B01AC01C501B4010E94E649E4
:1036D0004B015C0169A17AA180E090E00E94E24A7E
:1036E000A70196010E94E5499B01AC010E94944B01
:1036F0009B01AC01C301B2010E94E6492B013C01D0
:103700006D857E8580E090E00E94E24A29A53AA579
:103710004BA55CA50E94E5499B01AC010E94944B1E
:103720009B01AC01C501B4010E94E6494B015C015B
:103730006BA17CA180E090E00E94E24AA701960183
:103740000E94E5499B01AC010E94944B9B01AC0196
:10375000C301B2010E94E6492B013C016F857889C3
:1037600080E090E00E94E24A29A53AA54BA55CA51D
:103770000E94E5499B01AC010E94944B9B01AC0166
:10378000C501B4010E94E6494B015C016DA17EA117
:1037900080E090E00E94E24AA70196010E94E5497C
:1037A0009B01AC010E94944B9B01AC01C301B2018F
:1037B0000E94E6496DA77EA78FA798AB69897A8991
:1037C00080E090E00E94E24A29A53AA54BA55CA5BD
:1037D0000E94E5499B01AC010E94944B9B01AC0106
:1037E000C501B4010E94E64969AB7AAB8BAB9CABD7
:1037F0006FA178A580E090E00E94E24AA7019601BF
:103800000E94E5492B013C016B897C8980E090E0B6
:103810000E94E24A29A53AA54BA55CA50E94E5496C
:103820004B015C01A3019201C301B2010E94944BC0
:103830002DA53EA54FA558A90E94E64920E030E0FD
:1038400040E251E40E944E4A0E94FB4B2B013C0196
:10385000A5019401C501B4010E94944B29A93AA97C
:103860004BA95CA90E94E64920E030E040E251E427
:103870000E944E4A0E94FB4B4B015C0120E030E06D
:1038800040EA51E4C301B2010E944A4A87FF0AC0DC
:1038900020E030E040EA51E4C501B4010E944A4A08
:1038A00087FD26C044E650E06AE070E084E00E94B4
:1038B0001F0B80916E118F7780936E1180E0E496DC
:1038C0000FB6F894DEBF0FBECDBFDF91CF911F9131
:1038D0000F91FF90EF90DF90CF90BF90AF909F90AF
:1038E0008F907F906F905F904F903F902F900895B2
:1038F00081E08093550DC701B6010E94B64A7093CE
:103900009B0D60939A0D69A57AA58BA59CA50E9435
:10391000B64A7093990D6093980D0E94120B81E046
:10392000CECF81E08093970D08951092970D089562
:103930008091970D08950F931F93CF93DF93EC0120
:103940001091DA02113091F108F442C0123081F086
:103950001330C1F50E94221081112CC01092A00DCD
:103960001092DA0281E0DF91CF911F910F910895BB
:103970000E94221081111EC01091A00D80919F0DF8
:10398000113009F454C0882309F44AC08A810E9486
:10399000C40F10929F0D0E94D00F82E08093DA0234
:1039A00080E0DF91CF911F910F9108950E94221026
:1039B000882321F11093DA0280E0DF91CF911F91EB
:1039C0000F91089580E0DF91CF911F910F9108959D
:1039D00080919E0D882301F189810E94C40F0E946D
:1039E000D00F80919E0D80939F0D81E08093DA022D
:1039F00080E0DF91CF911F910F9108950091A00D6C
:103A000080919F0D013009F18111C0CF8B810E94FF
:103A1000C40F10939F0DBFCF88810E94C40FDFCFCA
:103A20008B810E94C40F81E080939F0DB4CF8111E0
:103A300014C08D810E94C40F10939F0D0E94D00F5F
:103A400083E08093DA0280E0B8CF811106C08D81D7
:103A50000E94C40F00939F0DF1CF8C810E94C40F70
:103A600010929F0DEBCF1F93CF93DF93EC0110913A
:103A7000D902113029F1A0F1123079F0133059F543
:103A80000E942210811120C01092A00D1092D90224
:103A900081E0DF91CF911F9108950E942210811142
:103AA00013C080919F0D81115FC08091A00D813066
:103AB00009F447C08B810E94C40F1093D90233C010
:103AC0000E942210882309F11093D90280E0DF912F
:103AD000CF911F91089580E0DF91CF911F910895BC
:103AE00080919E0D882349F189810E94C40F0E9414
:103AF000D00F80919E0D80939F0D81E08093D9021D
:103B000080E0DF91CF911F91089580919F0D8111E9
:103B10001FC08091A00D8130A1F08B810E94C40F45
:103B200082E08093D90281E080939F0D0E94D00FA4
:103B300080E0DF91CF911F91089588810E94C40F8A
:103B4000D6CF8D810E94C40F83E08093D902EBCF42
:103B50008A810E94C40F10929F0D0E94D00F82E0B4
:103B60008093D90280E0B3CF8A810E94C40F109263
:103B70009F0D0E94D00F1093D90280E0A8CF1F9311
:103B8000CF93DF93EC011091D802113031F1A8F1FD
:103B9000123079F0133061F50E942210811121C09A
:103BA0001092A00D1092D80281E0DF91CF911F9169
:103BB00008950E942210811114C080919F0D8130C0
:103BC00009F057C08091A00D813009F45EC08A8150
:103BD0000E94C40F1093D80233C00E942210882381
:103BE00009F11093D80280E0DF91CF911F910895E1
:103BF00080E0DF91CF911F91089580919E0D8823E1
:103C000041F189810E94C40F0E94D00F80919E0DC6
:103C100080939F0D81E08093D80280E0DF91CF9167
:103C20001F91089580919F0D8130B9F48091A00D6E
:103C3000813059F18A810E94C40F82E08093D802BA
:103C400010929F0D0E94D00F80E0DF91CF911F91C5
:103C5000089588810E94C40FD7CF8B810E94C40F22
:103C600010939F0D0E94D00F82E08093D80280E0D5
:103C7000BBCF8B810E94C40F81E080939F0D0E9477
:103C8000D00F1093D80280E0AFCF8C810E94C40F78
:103C900083E08093D802D4CF80919F0D882319F0C0
:103CA00010929F0D089581E080939F0D0895681BE9
:103CB000790B683F88EF780744F0693087E0780730
:103CC00014F060517E40CB010895605F714FCB01CD
:103CD0000895680F791F77FD08C061318EE078077D
:103CE00014F060517E40CB010895605F714FCB01AD
:103CF00008951092A00D10929E0D10929F0D10929B
:103D00009D0D10929C0D089581E08093A00D089563
:103D100080939E0D089510929D0D10929C0D089514
:103D200080919C0D90919D0D0895CF93DF93C0914C
:103D3000DA02C13071F1D8F1C23071F0C33099F5B7
:103D40000E942210811129C01092A00D1092DA0257
:103D500081E0DF91CF9108950E94221081111DC052
:103D6000C091A00D80919F0DC13009F451C08823EE
:103D700009F446C0809108020E94C40F10929F0D62
:103D80000E94D00F82E08093DA0280E0DF91CF9131
:103D900008950E9422108823F9F0C093DA0280E08F
:103DA000DF91CF91089580E0DF91CF9108958091C8
:103DB0009E0D882301F1809107020E94C40F0E948A
:103DC000D00F80919E0D80939F0D81E08093DA0249
:103DD00080E0DF91CF910895D091A00D80919F0D4B
:103DE000D13029F18111C6CF809109020E94C40F00
:103DF000C0939F0DC5CF809106020E94C40FDFCFF4
:103E0000809109020E94C40F81E080939F0DB8CF7A
:103E1000811116C080910B020E94C40FC0939F0DA8
:103E20000E94D00F83E08093DA0280E0B9CF811145
:103E300007C080910B020E94C40FD0939F0DF0CF5A
:103E400080910A020E94C40F10929F0DE9CFCF9378
:103E5000DF93C091DA02C13071F1D8F1C23071F054
:103E6000C33099F50E942210811129C01092A00D33
:103E70001092DA0281E0DF91CF9108950E94221022
:103E800081111DC0C091A00D80919F0DC13009F41A
:103E900051C0882309F446C080910E020E94C40FCD
:103EA00010929F0D0E94D00F82E08093DA0280E092
:103EB000DF91CF9108950E9422108823F9F0C093DA
:103EC000DA0280E0DF91CF91089580E0DF91CF9119
:103ED000089580919E0D882301F180910D020E942A
:103EE000C40F0E94D00F80919E0D80939F0D81E0A2
:103EF0008093DA0280E0DF91CF910895D091A00DF8
:103F000080919F0DD13029F18111C6CF80910F0290
:103F10000E94C40FC0939F0DC5CF80910C020E94D8
:103F2000C40FDFCF80910F020E94C40F81E0809305
:103F30009F0DB8CF811116C0809111020E94C40F4D
:103F4000C0939F0D0E94D00F83E08093DA0280E03F
:103F5000B9CF811107C0809111020E94C40FD09384
:103F60009F0DF0CF809110020E94C40F10929F0D00
:103F7000E9CFCF93C091D902C13021F178F1C2309D
:103F800069F0C33041F50E94221081111FC01092C8
:103F9000A00D1092D90281E0CF9108950E942210C5
:103FA000811114C080919F0D81115DC08091A00D81
:103FB000813009F443C0809115020E94C40FC09360
:103FC000D9022FC00E9422108823E1F0C093D902A9
:103FD00080E0CF91089580E0CF91089580919E0D6B
:103FE000882339F1809113020E94C40F0E94D00FE0
:103FF00080919E0D80939F0D81E08093D90280E097
:10400000CF91089580919F0D811120C08091A00DC6
:104010008130A1F0809115020E94C40F82E080934C
:10402000D90281E080939F0D0E94D00F80E0CF9154
:104030000895809112020E94C40FD8CF8091170278
:104040000E94C40F83E08093D902EBCF80911402C9
:104050000E94C40F10929F0D0E94D00F82E08093A7
:10406000D90280E0B6CF809114020E94C40F109252
:104070009F0D0E94D00FC093D90280E0AACFCF93AA
:10408000C091D802C13029F180F1C23069F0C3304B
:1040900049F50E942210811120C01092A00D1092AB
:1040A000D80281E0CF9108950E942210811115C09D
:1040B00080919F0D813009F054C08091A00D813016
:1040C00009F45CC080911A020E94C40FC093D80208
:1040D0002FC00E9422108823E1F0C093D80280E014
:1040E000CF91089580E0CF91089580919E0D88230F
:1040F00031F1809119020E94C40F0E94D00F80916B
:104100009E0D80939F0D81E08093D80280E0CF9137
:10411000089580919F0D8130B9F48091A00D813078
:1041200069F180911A020E94C40F82E08093D80244
:1041300010929F0D0E94D00F80E0CF910895809142
:1041400018020E94C40FD9CF80911B020E94C40F95
:10415000C0939F0D0E94D00F82E08093D80280E030
:10416000BFCF80911B020E94C40F81E080939F0DFE
:104170000E94D00FC093D80280E0B2CF80911C0281
:104180000E94C40F83E08093D802D2CFCF93C09116
:10419000D902C13021F178F1C23069F0C33041F564
:1041A0000E94221081111FC01092A00D1092D902FE
:1041B00081E0CF9108950E942210811114C0809156
:1041C0009F0D81115DC08091A00D813009F443C025
:1041D000809121020E94C40FC093D9022FC00E9477
:1041E00022108823E1F0C093D90280E0CF91089596
:1041F00080E0CF91089580919E0D882339F18091C0
:104200001F020E94C40F0E94D00F80919E0D8093C8
:104210009F0D81E08093D90280E0CF910895809135
:104220009F0D811120C08091A00D8130A1F080915F
:1042300021020E94C40F82E08093D90281E0809322
:104240009F0D0E94D00F80E0CF91089580911E02B3
:104250000E94C40FD8CF809123020E94C40F83E034
:104260008093D902EBCF809120020E94C40F10925C
:104270009F0D0E94D00F82E08093D90280E0B6CFDC
:10428000809120020E94C40F10929F0D0E94D00FB7
:10429000C093D90280E0AACFCF93C091D802C13099
:1042A00029F180F1C23069F0C33049F50E94221033
:1042B000811120C01092A00D1092D80281E0CF9100
:1042C00008950E942210811115C080919F0D8130A8
:1042D00009F054C08091A00D813009F45CC0809138
:1042E00026020E94C40FC093D8022FC00E94221041
:1042F0008823E1F0C093D80280E0CF91089580E058
:10430000CF91089580919E0D882331F180912502EF
:104310000E94C40F0E94D00F80919E0D80939F0D2C
:1043200081E08093D80280E0CF91089580919F0D25
:104330008130B9F48091A00D813069F1809126021D
:104340000E94C40F82E08093D80210929F0D0E94B9
:10435000D00F80E0CF910895809124020E94C40F75
:10436000D9CF809127020E94C40FC0939F0D0E9455
:10437000D00F82E08093D80280E0BFCF80912702E7
:104380000E94C40F81E080939F0D0E94D00FC093C4
:10439000D80280E0B2CF809128020E94C40F83E04F
:1043A0008093D802D2CFCF93C091D902C13021F1EE
:1043B00078F1C23069F0C33041F50E9422108111BA
:1043C0001FC01092A00D1092D90281E0CF910895E4
:1043D0000E942210811114C080919F0D81115DC037
:1043E0008091A00D813009F443C080912D020E947C
:1043F000C40FC093D9022FC00E9422108823E1F07D
:10440000C093D90280E0CF91089580E0CF910895C4
:1044100080919E0D882339F180912B020E94C40F58
:104420000E94D00F80919E0D80939F0D81E080931C
:10443000D90280E0CF91089580919F0D811120C015
:104440008091A00D8130A1F080912D020E94C40FB7
:1044500082E08093D90281E080939F0D0E94D00F6B
:1044600080E0CF91089580912A020E94C40FD8CF96
:1044700080912F020E94C40F83E08093D902EBCF7A
:1044800080912C020E94C40F10929F0D0E94D00FA9
:1044900082E08093D90280E0B6CF80912C020E9406
:1044A000C40F10929F0D0E94D00FC093D90280E0DC
:1044B000AACFCF93C091D802C13029F180F1C23088
:1044C00069F0C33049F50E942210811120C010927A
:1044D000A00D1092D80281E0CF9108950E94221081
:1044E000811115C080919F0D813009F054C08091D9
:1044F000A00D813009F45CC0809132020E94C40F8B
:10450000C093D8022FC00E9422108823E1F0C093EC
:10451000D80280E0CF91089580E0CF9108958091F6
:104520009E0D882331F1809131020E94C40F0E94B8
:10453000D00F80919E0D80939F0D81E08093D802D3
:1045400080E0CF91089580919F0D8130B9F48091E2
:10455000A00D813069F1809132020E94C40F82E087
:104560008093D80210929F0D0E94D00F80E0CF91CF
:104570000895809130020E94C40FD9CF80913302F8
:104580000E94C40FC0939F0D0E94D00F82E08093C1
:10459000D80280E0BFCF809133020E94C40F81E037
:1045A00080939F0D0E94D00FC093D80280E0B2CFBD
:1045B000809134020E94C40F83E08093D802D2CF4E
:1045C000CF93C091D902C13021F178F1C23069F0A6
:1045D000C33041F50E94221081111FC01092A00D1E
:1045E0001092D90281E0CF9108950E94221081118A
:1045F00014C080919F0D81115DC08091A00D81300C
:1046000009F443C0809139020E94C40FC093D902BB
:104610002FC00E9422108823E1F0C093D90280E0CD
:10462000CF91089580E0CF91089580919E0D8823C9
:1046300039F1809137020E94C40F0E94D00F8091FF
:104640009E0D80939F0D81E08093D90280E0CF91F1
:10465000089580919F0D811120C08091A00D81301F
:10466000A1F0809139020E94C40F82E08093D902A8
:1046700081E080939F0D0E94D00F80E0CF9108953C
:10468000809136020E94C40FD8CF80913B020E94D5
:10469000C40F83E08093D902EBCF809138020E944F
:1046A000C40F10929F0D0E94D00F82E08093D90218
:1046B00080E0B6CF809138020E94C40F10929F0D07
:1046C0000E94D00FC093D90280E0AACFCF93C091AF
:1046D000D802C13029F180F1C23069F0C33049F508
:1046E0000E942210811120C01092A00D1092D802B9
:1046F00081E0CF9108950E942210811115C0809110
:104700009F0D813009F054C08091A00D813009F4D3
:104710005CC080913E020E94C40FC093D8022FC09B
:104720000E9422108823E1F0C093D80280E0CF914C
:10473000089580E0CF91089580919E0D882331F1F6
:1047400080913D020E94C40F0E94D00F80919E0D67
:1047500080939F0D81E08093D80280E0CF910895EF
:1047600080919F0D8130B9F48091A00D813069F165
:1047700080913E020E94C40F82E08093D802109282
:104780009F0D0E94D00F80E0CF91089580913C0250
:104790000E94C40FD9CF80913F020E94C40FC093E2
:1047A0009F0D0E94D00F82E08093D80280E0BFCF9F
:1047B00080913F020E94C40F81E080939F0D0E9470
:1047C000D00FC093D80280E0B2CF809140020E9407
:1047D000C40F83E08093D802D2CFCF93C091D90287
:1047E000C13021F178F1C23069F0C33041F50E9447
:1047F000221081111FC01092A00D1092D90281E0E9
:10480000CF9108950E942210811114C080919F0DB4
:1048100081115DC08091A00D813009F443C0809169
:1048200045020E94C40FC093D9022FC00E942210DB
:104830008823E1F0C093D90280E0CF91089580E011
:10484000CF91089580919E0D882339F18091430284
:104850000E94C40F0E94D00F80919E0D80939F0DE7
:1048600081E08093D90280E0CF91089580919F0DDF
:10487000811120C08091A00D8130A1F0809145026E
:104880000E94C40F82E08093D90281E080939F0D43
:104890000E94D00F80E0CF910895809142020E9443
:1048A000C40FD8CF809147020E94C40F83E0809349
:1048B000D902EBCF809144020E94C40F10929F0D49
:1048C0000E94D00F82E08093D90280E0B6CF809121
:1048D00044020E94C40F10929F0D0E94D00FC093FB
:1048E000D90280E0AACFCF93C091D802C13029F17C
:1048F00080F1C23069F0C33049F50E942210811165
:1049000020C01092A00D1092D80281E0CF9108959E
:104910000E942210811115C080919F0D813009F0F5
:1049200054C08091A00D813009F45CC080914A028E
:104930000E94C40FC093D8022FC00E942210882367
:10494000E1F0C093D80280E0CF91089580E0CF914C
:10495000089580919E0D882331F1809149020E9433
:10496000C40F0E94D00F80919E0D80939F0D81E017
:104970008093D80280E0CF91089580919F0D81307F
:10498000B9F48091A00D813069F180914A020E94B2
:10499000C40F82E08093D80210929F0D0E94D00F26
:1049A00080E0CF910895809148020E94C40FD9CF32
:1049B00080914B020E94C40FC0939F0D0E94D00FA4
:1049C00082E08093D80280E0BFCF80914B020E94AA
:1049D000C40F81E080939F0D0E94D00FC093D80236
:1049E00080E0B2CF80914C020E94C40F83E080939C
:1049F000D802D2CFCF93C091D902C13021F178F142
:104A0000C23069F0C33041F50E94221081111FC0ED
:104A10001092A00D1092D90281E0CF9108950E94CA
:104A20002210811114C080919F0D81115DC0809171
:104A3000A00D813009F443C0809151020E94C40F3F
:104A4000C093D9022FC00E9422108823E1F0C093A6
:104A5000D90280E0CF91089580E0CF9108958091B0
:104A60009E0D882339F180914F020E94C40F0E944D
:104A7000D00F80919E0D80939F0D81E08093D9028D
:104A800080E0CF91089580919F0D811120C0809189
:104A9000A00D8130A1F0809151020E94C40F82E0EC
:104AA0008093D90281E080939F0D0E94D00F80E017
:104AB000CF91089580914E020E94C40FD8CF80916B
:104AC00053020E94C40F83E08093D902EBCF809100
:104AD00050020E94C40F10929F0D0E94D00F82E0DE
:104AE0008093D90280E0B6CF809150020E94C40F1B
:104AF00010929F0D0E94D00FC093D90280E0AACFE0
:104B0000CF93C091D802C13029F180F1C23069F051
:104B1000C33049F50E942210811120C01092A00DCF
:104B20001092D80281E0CF9108950E942210811145
:104B300015C080919F0D813009F054C08091A00D67
:104B4000813009F45CC0809156020E94C40FC0936A
:104B5000D8022FC00E9422108823E1F0C093D8020F
:104B600080E0CF91089580E0CF91089580919E0DCF
:104B7000882331F1809155020E94C40F0E94D00F0A
:104B800080919E0D80939F0D81E08093D80280E0FC
:104B9000CF91089580919F0D8130B9F48091A00D3F
:104BA000813069F1809156020E94C40F82E08093A7
:104BB000D80210929F0D0E94D00F80E0CF910895EF
:104BC000809154020E94C40FD9CF809157020E9455
:104BD000C40FC0939F0D0E94D00F82E08093D80233
:104BE00080E0BFCF809157020E94C40F81E0809384
:104BF0009F0D0E94D00FC093D80280E0B2CF809169
:104C000058020E94C40F83E08093D802D2CFCF9382
:104C1000DF93C091DA02C13071F1D8F1C23071F086
:104C2000C33099F50E942210811129C01092A00D65
:104C30001092DA0281E0DF91CF9108950E94221054
:104C400081111DC0C091A00D80919F0DC13009F44C
:104C500051C0882309F446C080915C020E94C40FB1
:104C600010929F0D0E94D00F82E08093DA0280E0C4
:104C7000DF91CF9108950E9422108823F9F0C0930C
:104C8000DA0280E0DF91CF91089580E0DF91CF914B
:104C9000089580919E0D882301F180915B020E940E
:104CA000C40F0E94D00F80919E0D80939F0D81E0D4
:104CB0008093DA0280E0DF91CF910895D091A00D2A
:104CC00080919F0DD13029F18111C6CF80915D0275
:104CD0000E94C40FC0939F0DC5CF80915A020E94BD
:104CE000C40FDFCF80915D020E94C40F81E08093EA
:104CF0009F0DB8CF811116C080915F020E94C40F32
:104D0000C0939F0D0E94D00F83E08093DA0280E071
:104D1000B9CF811107C080915F020E94C40FD09368
:104D20009F0DF0CF80915E020E94C40F10929F0DE4
:104D3000E9CFCF93DF93C091DA02C13071F1D8F19E
:104D4000C23071F0C33099F50E942210811129C040
:104D50001092A00D1092DA0281E0DF91CF910895B8
:104D60000E94221081111DC0C091A00D80919F0D45
:104D7000C13009F451C0882309F446C08091620211
:104D80000E94C40F10929F0D0E94D00F82E080936A
:104D9000DA0280E0DF91CF9108950E9422108823EB
:104DA000F9F0C093DA0280E0DF91CF91089580E0BE
:104DB000DF91CF91089580919E0D882301F180911C
:104DC00061020E94C40F0E94D00F80919E0D8093BB
:104DD0009F0D81E08093DA0280E0DF91CF9108950A
:104DE000D091A00D80919F0DD13029F18111C6CFB6
:104DF000809163020E94C40FC0939F0DC5CF809124
:104E000060020E94C40FDFCF809163020E94C40F32
:104E100081E080939F0DB8CF811116C0809165020B
:104E20000E94C40FC0939F0D0E94D00F83E0809317
:104E3000DA0280E0B9CF811107C0809165020E943B
:104E4000C40FD0939F0DF0CF809164020E94C40FD5
:104E500010929F0DE9CF089508950895089508953B
:104E60000895089508951F93CF93DF931F921F9283
:104E7000CDB7DEB7681B790B683F88EF78073CF544
:104E8000605F714F1091D702113059F1113008F461
:104E9000A1C0123009F45EC0133009F094C00E9422
:104EA0002210811187C080919C0D90919D0D0196DB
:104EB00090939D0D80939C0D1092A00D1092D7029F
:104EC00081E00F900F90DF91CF911F91089569308D
:104ED000E7E07E07BCF260517E401091D7021130AE
:104EE000A9F669837A830E94221069817A818111EF
:104EF00061C080919C0D90919D0D019690939D0DA8
:104F000080939C0D8091A00D813009F4B2C0CB013B
:104F10008D599F4F873C910508F47BC080919F0D70
:104F20006C39FFEF7F070CF08AC0882309F4C3C0F7
:104F3000813009F4F9C091E09093D70281118BC0C0
:104F400081E080939F0D80E00F900F90DF91CF91D3
:104F50001F91089569837A830E94221069817A8162
:104F6000811128C080919C0D90919D0D0196909388
:104F70009D0D80939C0D8091A00D813009F488C017
:104F8000CB0177FDA0C0853691050CF46DC08091F2
:104F90009F0D161617060CF04CC0811190C08CE6C0
:104FA0000E94C40F0E94D00F82E08093D7028091AC
:104FB0009F0DC4CF1093D70280E00F900F90DF9128
:104FC000CF911F91089580E00F900F90DF91CF91C6
:104FD0001F91089580919E0D8823B9F082E20E946E
:104FE000C40F0E94D00F80919E0D90E001968170B9
:104FF000992780939F0D81E08093D70280E00F90E6
:105000000F90DF91CF911F91089580E20E94C40F0D
:10501000E8CF80919F0D882309F44DC086E20E945D
:10502000C40F0E94D00F81E08093D70280919F0D22
:1050300085CF81115AC088E70E94C40FB3CF65366F
:1050400071050CF468C0813049F3882309F458C015
:1050500081E08093D70210929F0D80E00F900F9017
:10506000DF91CF911F91089581E08093D70280E076
:10507000A4CF80919F0D81112BC088E20E94C40FA4
:105080000E94D00F83E08093D70280919F0D56CF6E
:1050900080919F0D16161706FCF4813051F18CE6B5
:1050A0000E94C40F1093D7020E94D00F80919F0DD1
:1050B0008111D1CF45CF84E20E94C40FB2CF8EE6DA
:1050C0000E94C40F6FCF88279927861B970B5BCF51
:1050D0008AE20E94C40FD4CF811120C08CE70E94C5
:1050E000C40F83E08093D702DFCF8AE70E94C40F0A
:1050F00059CF82E70E94C40F83E08093D702D4CFB8
:1051000082E08093D7028CE60E94C40F0E94D00FE9
:1051100080919F0D13CF77FF98CF0ACF8AE70E9427
:10512000C40F1093D702C0CF8AE70E94C40F82E059
:105130008093D7020E94D00F80919F0DFFCE1F93C6
:10514000CF93DF931F921F92CDB7DEB7681B790B09
:10515000683F88EF78073CF5605F714F1091D60289
:10516000113059F1113008F49EC0123009F45DC0BD
:10517000133009F091C00E942210811184C08091E7
:105180009C0D90919D0D019790939D0D80939C0D8A
:105190001092A00D1092D60281E00F900F90DF9137
:1051A000CF911F9108956930E7E07E07BCF260510E
:1051B0007E401091D6021130A9F669837A830E944D
:1051C000221069817A8181115EC080919C0D90913D
:1051D0009D0D019790939D0D80939C0D8091A00D46
:1051E000813009F4B0C0CB018D599F4F873C9105A8
:1051F00008F478C080919F0D653671050CF488C065
:10520000882309F4C2C0813009F4E7C091E090938B
:10521000D60281118AC081E080939F0D80E00F90BB
:105220000F90DF91CF911F91089569837A830E9437
:10523000221069817A81811126C080919C0D909104
:105240009D0D019790939D0D80939C0D8091A00DD5
:10525000813009F487C0CB0177FD9FC08536910569
:105260000CF46CC080919F0D77FD4CC0811191C0F2
:1052700080E90E94C40F0E94D00F82E08093D60282
:1052800080919F0DC6CF1093D60280E00F900F90B3
:10529000DF91CF911F91089580E00F900F90DF91E3
:1052A000CF911F91089580919E0D8823B9F08EE2D1
:1052B0000E94C40F0E94D00F80919E0D90E0019635
:1052C0008170992780939F0D81E08093D60280E0C2
:1052D0000F900F90DF91CF911F9108958CE20E9463
:1052E000C40FE8CF80919F0D882309F44EC082E35C
:1052F0000E94C40F0E94D00F81E08093D60280915B
:105300009F0D87CF811160C084E80E94C40FB3CF86
:105310006C39FFEF7F070CF05BC0813041F38823CD
:1053200009F46DC081E08093D60210929F0D80E059
:105330000F900F90DF91CF911F91089581E080939E
:10534000D60280E0A3CF80919F0D81112BC084E312
:105350000E94C40F0E94D00F83E08093D6028091F8
:105360009F0D57CF80919F0D77FD26C081111EC0E4
:1053700084E90E94C40F83E08093D6020E94D00F7C
:1053800080919F0D8111D1CF46CF80E30E94C40F41
:10539000B1CF82E90E94C40F6ECF88279927861B60
:1053A000970B5CCF86E30E94C40FD4CF82E90E94A2
:1053B000C40F1093D602E2CF8130D1F084E80E946E
:1053C000C40F1093D602DACF86E80E94C40F53CFE1
:1053D000161617060CF417CFA2CF82E90E94C40F4D
:1053E00082E08093D6020E94D00F80919F0D11CF52
:1053F0008AE80E94C40F83E08093D602BFCF82E088
:105400008093D60284E80E94C40F0E94D00F80913E
:105410009F0DFFCECF93DF93D82FC091D502C1301F
:1054200019F180F0C23021F080E0DF91CF91089532
:105430000E940C0D811129C0C093D50280E0DF913C
:10544000CF9108950E94221081111BC0D13019F113
:105450008CE10E94C40F0E94D00F81E08093D5029E
:1054600080E0DF91CF9108950E9422108111E4CF56
:1054700082E08093D50288EE93E00E94E00C80E009
:10548000D4CF1092D50280E0D0CF0E94D0191092D4
:10549000D50281E0CACF8BE10E94C40FDCCFCF934D
:1054A000C82F4091D40250E04830510530F080E0E0
:1054B000C1111092D402CF910895FA01E359FE4F21
:1054C0000C9494490E942210882309F456C086E067
:1054D0008093D40280E0ECCF0E942210882309F44C
:1054E00048C087E08093D40280E0E2CF0E9422107F
:1054F0008823A9F10E941E1081E08093D40280E0ED
:10550000D7CF0E942210882351F181E08093D402EA
:1055100080E0CECF0E942210882309F456C082E09A
:105520008093D40280E0C4CF0E940C0D811143C04F
:1055300083E08093D40280E0BBCF0E9422108823B6
:1055400081F184E08093D40280E0B2CF0E942210E7
:105550008823E9F085E08093D40280E0A9CF83EE30
:105560000E94C40F0E94D00F82E08093D40280E09A
:105570009FCF1092D40281E09BCF8FE10E94C40F95
:105580000E94D00F87E08093D40280E091CF82EE1A
:105590000E94C40F0E94D00F86E08093D40280E066
:1055A00087CF81EE0E94C40F0E94D00F85E08093C8
:1055B000D40280E07DCF80EE0E94C40F0E94D00F05
:1055C00084E08093D40280E073CF8CED95E00E945C
:1055D000E00C83E08093D40280E06ACFCF93C09147
:1055E000D302C23009F441C068F0C430C1F098F170
:1055F000C53019F50E94221081110CC01092D302FF
:1056000081E00BC0CC23E1F0C130B9F40E9422103C
:105610008823C9F1C093D30280E0CF9108950E94FE
:1056200022108111F7CF8FE10E94C40F0E94D00F8A
:1056300085E08093D30280E0F0CF80E0CF910895A1
:105640000E9422108823F9F00E941E1081E08093AE
:10565000D30280E0E2CF0E9422108823F9F083E099
:105660008093D30280E0CF9108950E94221081118F
:10567000D1CF85EE0E94C40F0E94D00F83E08093AB
:10568000D30280E0CACF84EE0E94C40F0E94D00FE4
:1056900082E08093D30280E0CF91089586EE0E944D
:1056A000C40F0E94D00F84E08093D30280E0B5CF76
:1056B0001F93CF93DF93EB01C81BD90BC83F88EF33
:1056C000D8079CF5C05FD14F1091D2021230B9F1CA
:1056D000133008F04DC0112309F472C0113009F0E5
:1056E00061C00E942210811184C08091A00D813080
:1056F00009F49FC0C953DF4FCF38D14008F488C0A8
:1057000080919F0D813009F4A2C084E50E94C40FEE
:105710000E94D00F1093D20280919F0D811185C0FD
:1057200081E080939F0D80E03EC0C93097E0D907AB
:105730005CF2C051DE401091D202123049F60E9454
:105740002210882309F460C01093D202D7FD21C033
:1057500082E192E00E94331D811129C0C436D10537
:105760000CF591E09093A00DDF91CF911F910895DA
:10577000133061F31430B1F40E942210811139C04A
:105780001092A00D1092D20281E0DF91CF911F9173
:10579000089588E192E00E94BF1D811108C0CD39B3
:1057A000DF4FFCF680E0DF91CF911F9108951092BA
:1057B000D2021092A00D80E0DF91CF911F91089549
:1057C00080919E0D81111CC080E50E94C40F0E9433
:1057D000D00F80919E0D90E0019681709927809363
:1057E0009F0D81E08093D20280E0DF91CF911F91E5
:1057F00008951093D20280E0DF91CF911F91089518
:1058000082E50E94C40FE3CF83E08093D2029ECF53
:1058100080919F0D811117C084E50E94C40F0E94E2
:10582000D00F81E08093D20277CF10929F0D80E05D
:10583000BACF80919F0D813099F084E50E94C40F0A
:105840000E94D00F69CF86E50E94C40FE8CF8AE599
:105850000E94C40F0E94D00F82E08093D2025CCFDE
:105860008AE50E94C40F84E08093D202E9CF1F939F
:10587000CF93DF93EB01C81BD90BC83F88EFD80744
:105880009CF5C05FD14F1091D1021230B9F11330A5
:1058900008F04DC0112309F472C0113009F061C045
:1058A0000E942210811184C08091A00D813009F4E2
:1058B0009FC0C953DF4FCF38D14008F488C08091D2
:1058C0009F0D8111A2C084E60E94C40F0E94D00FD8
:1058D00082E08093D10280919F0D811185C081E08B
:1058E00080939F0D80E03EC0C93097E0D9075CF2FD
:1058F000C051DE401091D102123049F60E942210B0
:10590000882309F460C01093D102D7FD21C082E141
:1059100092E00E94331D811129C0C436D1050CF5D7
:1059200091E09093A00DDF91CF911F9108951330D6
:1059300061F31430B1F40E942210811139C0109229
:10594000A00D1092D10281E0DF91CF911F910895B7
:1059500088E192E00E94BF1D811108C0CD39DF4F60
:10596000FCF680E0DF91CF911F9108951092D10253
:105970001092A00D80E0DF91CF911F91089580914A
:105980009E0D81111CC08CE50E94C40F0E94D00F97
:1059900080919E0D90E001968170992780939F0DD4
:1059A00081E08093D10280E0DF91CF911F91089533
:1059B0001093D10280E0DF91CF911F9108958EE581
:1059C0000E94C40FE3CF83E08093D1029ECF8091E9
:1059D0009F0D811122C080E60E94C40F0E94D00F4B
:1059E00081E08093D10277CF10929F0D80E0BACFF3
:1059F00080919F0D811115C084E60E94C40F84E040
:105A00008093D1020E94D00F66CF82E60E94C40F1D
:105A10000E94D00F1093D1025ECF82E60E94C40F85
:105A2000DDCF82E60E94C40FEDCF1F93CF93DF93AB
:105A3000EC018091D002823009F483C028F58823DC
:105A400009F457C0813061F5C091CC02D091CD02EC
:105A50000E94FD3A9E01281B390BC901883F38EF8F
:105A600093070CF08FC0805F914F97FDBFC08536C4
:105A700091050CF08FC084E08093D00210E0812F5C
:105A8000DF91CF911F910895833081F0843041F4EC
:105A90001092D00211E0812FDF91CF911F910895D4
:105AA00010E0812FDF91CF911F91089588E192E05E
:105AB0000E94BF1D182F8111DECFC091CC02D09162
:105AC000CD020E94FD3A9E01281B390B283F88EF2A
:105AD00038070CF47EC0293087E0380714F02051D5
