:100000000C94C6010C94E7010C94E7010C94E701F1
:100010000C94E7010C94E7010C94E7010C94E701C0
:100020000C94E7010C94E7010C94E7010C94E701B0
:100030000C94E7010C94E7010C94E7010C94E701A0
:100040000C94E7010C94E7010C94E7010C94E70190
:100050000C94E7010C94E7010C94E7010C94E70180
:100060000C94E7010C94A23E0C94E7010C945F3EC3
:100070000C94E7010C94E7010C94E7010C94E70160
:100080000C94E7010C94E7010C94E7010C94E70150
:100090000C940A430C94E7010C9439430C94E70147
:1000A0000C94E7010C94E7010C94E7010C94E70130
:1000B0000C94E7010C94E7010C94E7010C94E70120
:1000C0000C94E7010C94E7010C94E70172037403AC
:1000D0007103760371037103710378037103710374
:1000E000710371037103710371037A037103710367
:1000F0007103710371037103710371037103710360
:10010000710371037103710371037C037103710344
:10011000710371037103710371037103710371033F
:10012000710371037103710371037103710371032F
:10013000710371037103710371037103710371031F
:100140007103710371037103710370038A038C03DC
:1001500089038E0389038903890390038903890333
:100160008903890389038903890392038903890326
:10017000890389038903890389038903890389031F
:100180008903890389038903890394038903890304
:1001900089038903890389038903890389038903FF
:1001A00089038903890389038903890389038903EF
:1001B00089038903890389038903890389038903DF
:1001C000890389038903890389038803A503AA0393
:1001D000A403AF03A403A403A403B403A403A403CC
:1001E000A403A403A403A403A403B903A403A403C2
:1001F000A403A403A403A403A403A403A403A403C7
:10020000A403A403A403A403A403BE03A403A4039C
:10021000A403A403A403A403A403A403A403A403A6
:10022000A403A403A403A403A403A403A403A40396
:10023000A403A403A403A403A403A403A403A40386
:10024000A403A403A403A403A403A003CF03CF0324
:10025000C903CF03C903C903C903D803C903C90329
:10026000C903C903C903C903C903DD03C903C9031A
:10027000C903C903C903C903C903C903C903C9031E
:10028000C903C903C903C903C903D203C903C90305
:10029000C903C903C903C903C903C903C903C903FE
:1002A000C903C903C903C903C903C903C903C903EE
:1002B000C903C903C903C903C903C903C903C903DE
:1002C000C903C903C903C903C903E503D829E3293D
:1002D000EC29F629FF29082AC429CE296364696E0E
:1002E0006F70737578585B000C94C4290C94C142EC
:1002F0000C94B4030C9492030C9474030C94F6299C
:100300000C947C030C9476030C94A4030C94CF03FC
:100310000C94B9030C94A0030C949F420C94CE2926
:100320000C9472030C94AF030C94BE030C94AA03B8
:100330000C94E3290C94FF290C948C030C948E03E9
:100340000C947A030C9470030C94E5030C94C90389
:100350000C9494030C94D8290C9478030C948A037D
:100360000C9490030C94082A0C94D2030C94CC4760
:100370000C94D8030C94A5030C94DD030C9488030F
:100380000C9471030C9489030C94EC2911241FBE66
:10039000CFEFD1E2DEBFCDBF00E00CBF12E0A0E0A6
:1003A000B2E0EEE7F6EA00E00BBF02C007900D9264
:1003B000A83BB107D9F712E1A8EBB2E001C01D924A
:1003C000A532B107E1F70E9421470C943D530C94EC
:1003D000000060E875E280E090E00E947A430E94AD
:1003E00017190E9435190E94F31B84E690E00E94C1
:1003F000200C0E94DB1D0E9497360C94C239CF93CB
:10040000DF931F92CDB7DEB781E6898361E0CE012D
:1004100001960E94E54388E00E94660361E0CE01F8
:1004200001960E94C5432FEF31EE94E021503040F9
:100430009040E1F700C00000882381F388E00E942B
:10044000960361E0CE0101960E94E543E7CF0E944A
:100450002F030E94E8030E94F8060E94C40A0C942D
:10046000EE0B649974C081E08093E6029091E902FA
:10047000992309F4B5C01092EA02659952C081E04F
:100480008093E1029091E402992309F498C01092BC
:10049000E502669932C081E08093D7029091DA023A
:1004A000992309F47BC01092DB026799AAC081E00E
:1004B0008093D2029091D502992309F45EC01092E4
:1004C000D602489912C091E09093DC028091DF023D
:1004D000811110C08091E0028F5F8093E0028091D3
:1004E000E002843109F4B4C008958091DF028130C4
:1004F00009F49DC01092E00208958091DA028130E3
:1005000091F69091DB029F5F9093DB029091DB026A
:10051000943159F68093D9021092DA021092DB02DC
:10052000C4CF8091E402813009F0B1CF9091E5020F
:100530009F5F9093E5029091E502943109F0A9CF75
:100540008093E3021092E4021092E502A2CF809120
:10055000E902813009F08FCF9091EA029F5F90937A
:10056000EA029091EA02943109F087CF8093E80281
:100570001092E9021092EA0280CF9091D6029F5F1A
:100580009093D6029091D602943109F09ACF80933D
:10059000D3028093D5021092D60293CF9091DB02C2
:1005A0009F5F9093DB029091DB02943109F07DCF45
:1005B0008093D8028093DA021092DB0276CF90917A
:1005C000E5029F5F9093E5029091E502943109F076
:1005D00060CF8093E2028093E4021092E50259CF4B
:1005E0009091EA029F5F9093EA029091EA0294311F
:1005F00009F043CF8093E7028093E9021092EA0268
:100600003CCF8091D502813009F059CF9091D6022C
:100610009F5F9093D6029091D602943109F051CF0A
:100620008093D4021092D5021092D6024ACF9091B4
:10063000E0029F5F9093E0029091E002943109F014
:1006400053CF8093DE021092DF021092E0020895F1
:100650009093DD029093DF021092E00208958FE7FD
:1006600087B98EE788B91092E6021092E7021092DD
:10067000E8021092E9021092EA021092E10210924E
:10068000E2021092E3021092E4021092E50210924C
:10069000D7021092D8021092D9021092DA02109268
:1006A000DB021092D2021092D3021092D402109266
:1006B000D5021092D6021092DC021092DD02109246
:1006C000DE021092DF021092E002089590E0FC0139
:1006D0003197E034F10528F4EA59FF4F0C94F648BD
:1006E000469808954098089541980895429808952D
:1006F00043980895449808954598089590E0FC0122
:100700003197E034F10528F4EA55FF4F0C94F64890
:10071000469A0895409A0895419A0895429A0895F4
:10072000439A0895449A0895459A089590E0FC01EB
:100730003197E034F10540F4EA51FF4F0C94F6484C
:1007400088B190E4892788B9089588B191E0892714
:1007500088B9089588B192E0892788B9089588B149
:1007600094E0892788B9089588B198E0892788B9E5
:10077000089588B190E1892788B9089588B190E2F9
:10078000892788B9089590E0FC013197E034F1059C
:1007900010F080E00895EA5DFE4F0C94F64886B1B3
:1007A00080E0089586B1807290E0959587950895D0
:1007B00086B183FB882780F9089586B1807190E027
:1007C0009595879595958795089586B18074089538
:1007D0005098589A8DB18F708DB98EB1806F8EB947
:1007E0000895803259F160F4813001F18031A1F433
:1007F0008091E602882381F01092E60281E008955C
:10080000803461F0803841F48091D202882321F055
:100810001092D20281E0089580E008958091D7027D
:100820008823D1F31092D70281E008958091DC02F1
:10083000882391F31092DC0281E008958091E10217
:10084000882351F31092E10281E00895803259F13A
:1008500060F4813001F18031A1F48091E7028823B6
:1008600081F01092E70281E00895803461F08038D1
:1008700041F48091D302882321F01092D30281E0C9
:10088000089580E008958091D8028823D1F31092D2
:10089000D80281E008958091DD02882391F31092BF
:1008A000DD0281E008958091E202882351F31092E5
:1008B000E20281E00895803259F160F4813001F163
:1008C0008031A1F48091E802882381F01092E8023F
:1008D00081E00895803461F0803841F48091D40241
:1008E000882321F01092D40281E0089580E00895D9
:1008F0008091D9028823D1F31092D90281E0089522
:100900008091DE02882391F31092DE0281E0089547
:100910008091E302882351F31092E30281E008956D
:1009200090917C00987F90937C0020917C00982F80
:100930009770922B90937C00882359F0815020E887
:1009400030E002C0359527958A95E2F7209522B9C7
:10095000089582B18C6F82B90895CF92DF92EF92A1
:10096000FF92CF93DF93CDB7DEB72E970FB6F894F3
:10097000DEBF0FBECDBF8EE0EAEAF2E0DE011196E7
:1009800001900D928A95E1F789819A819C01220F4D
:10099000331F220F331F220F331F281B390B40E058
:1009A00050E0C12CB4ECDB2EB9E0EB2EF12CC701EA
:1009B000B6010E948547215031092F3F310509F0CA
:1009C00008F49BC08B819C819C01220F331F220F56
:1009D000331F220F331F281B390B40E050E0C701A3
:1009E000B6010E948547215031092F3F310509F09A
:1009F00008F48AC08D819E819C01220F331F220F33
:100A0000331F220F331F281B390B40E050E0C70172
:100A1000B6010E948547215031092F3F310509F069
:100A200008F474C08F8198859C01220F331F220F18
:100A3000331F220F331F281B390B40E050E0C70142
:100A4000B6010E948547215031092F3F310509F039
:100A500008F45EC089859A859C01220F331F220FFE
:100A6000331F220F331F281B390B40E050E0C70112
:100A7000B6010E948547215031092F3F310509F009
:100A800008F448C08B859C859C01220F331F220FE0
:100A9000331F220F331F281B390B40E050E0C701E2
:100AA000B6010E948547215031092F3F3105A1F140
:100AB00098F18D859E859C01220F331F220F331FD5
:100AC000220F331F281B390B40E050E0C701B6014D
:100AD0000E948547215031092F3F3105F9F0F0F090
:100AE0002E960FB6F894DEBF0FBECDBFDF91CF912B
:100AF000FF90EF90DF90CF90089580E02093B300B7
:100B00008F5F8093B100ECCF81E0F8CF82E0F6CF29
:100B100083E0F4CF84E0F2CF85E0F0CF86E0EECF43
:100B2000EAE7F0E0808180648083089580917A0014
:100B300082958170089587B3869581700895B99BD9
:100B4000089587B3876087BB1092B2009091DB0352
:100B500080917C00887F80937C0020917C00892F8D
:100B60008770822B80937C00992309F420C12FEF9A
:100B7000290F80E890E002C0959587952A95E2F7C5
:100B8000809582B920E42A95F1F780917A008064FB
:100B900080937A0080917A0084FFFCCF80917A0064
:100BA000806180937A008091780090917900E09143
:100BB000DB03F0E0EE0FFF1FE452FC4F91838083D4
:100BC000E091DB032091EC0230E1E39FF00111247E
:100BD000E20FF11DEE0FFF1FE550FD4F9183808363
:100BE000E091DB0380E2E89FF0011124E550FD4F26
:100BF00080819181E091DB0320E2E29FF0011124EA
:100C0000E550FD4F22813381820F931FE091DB037A
:100C100030E2E39FF0011124E550FD4F248135813E
:100C2000820F931FE091DB0320E2E29FF001112489
:100C3000E550FD4F26813781820F931FE091DB0342
:100C400030E2E39FF0011124E550FD4F208531850E
:100C5000820F931FE091DB0320E2E29FF001112459
:100C6000E550FD4F22853385820F931FE091DB0312
:100C700030E2E39FF0011124E550FD4F24853585D6
:100C8000820F931FE091DB0320E2E29FF001112429
:100C9000E550FD4F26853785820F931FE091DB03DA
:100CA00030E2E39FF0011124E550FD4F20893189A6
:100CB000820F931FE091DB0320E2E29FF0011124F9
:100CC000E550FD4F22893389820F931FE091DB03AA
:100CD00030E2E39FF0011124E550FD4F248935896E
:100CE000820F931FE091DB0320E2E29FF0011124C9
:100CF000E550FD4F26893789820F931FE091DB0372
:100D000030E2E39FF0011124E550FD4F208D318D3D
:100D1000820F931FE091DB0320E2E29FF001112498
:100D2000E550FD4F228D338D820F931FE091DB0341
:100D300030E2E39FF0011124E550FD4F248D358D05
:100D4000820F931FE091DB0320E2E29FF001112468
:100D5000E550FD4F268D378D820F931F929582951A
:100D60008F7089279F708927E091DB03F0E0EE0FF9
:100D7000FF1FE351FD4F918380832091DB032630D9
:100D8000D1F02091DB03211107C02091EB0221302B
:100D9000E1F08E3A914008F18091DB0390E00196FA
:100DA00067E070E00E9471478093DB03089582B191
:100DB0008C6F82B9E7CE2091EC0230E02F5F3F4F7D
:100DC0002F7033272093EC02DCCF863D914020F337
:100DD0000E94740A1092EB02DFCF4EE150E06EE108
:100DE00070E085E00E94810A81E08093EB02D4CF1D
:100DF000CF92DF92EF92FF92CF93DF93CDB7DEB722
:100E00002E970FB6F894DEBF0FBECDBF87E8809354
:100E10007A0010927B0010927C0010927E0010925B
:100E20007D008CEF81B982B986E692E09093DD0374
:100E30008093DC039093EE028093ED029093FC028A
:100E40008093FB029093FE028093FD029093000337
:100E50008093FF0290930203809301039093040315
:100E600080930303909306038093050390930803F4
:100E70008093070390930A038093090390930C03D4
:100E800080930B0390930E0380930D0390931003B4
:100E900080930F0390931203809311039093140394
:100EA0008093130390931603809315039093180374
:100EB0008093170390931A03809319039093DF0391
:100EC0008093DE039093F0028093EF0290931C03D3
:100ED00080931B0390931E0380931D039093200324
:100EE00080931F0390932203809321039093240304
:100EF00080932303909326038093250390932803E4
:100F00008093270390932A038093290390932C03C3
:100F100080932B0390932E0380932D0390933003A3
:100F200080932F0390933203809331039093340383
:100F30008093330390933603809335039093380363
:100F40008093370390933A03809339039093E1039E
:100F50008093E0039093F2028093F10290933C031C
:100F600080933B0390933E0380933D039093400313
:100F700080933F03909342038093410390934403F3
:100F800080934303909346038093450390934803D3
:100F90008093470390934A038093490390934C03B3
:100FA00080934B0390934E0380934D039093500393
:100FB00080934F0390935203809351039093540373
:100FC0008093530390935603809355039093580353
:100FD0008093570390935A03809359039093E303AC
:100FE0008093E2039093F4028093F30290935C0366
:100FF00080935B0390935E0380935D039093600303
:1010000080935F03909362038093610390936403E2
:1010100080936303909366038093650390936803C2
:101020008093670390936A038093690390936C03A2
:1010300080936B0390936E0380936D039093700382
:1010400080936F0390937203809371039093740362
:101050008093730390937603809375039093780342
:101060008093770390937A03809379039093E503B9
:101070008093E4039093F6028093F50290937C03AF
:1010800080937B0390937E0380937D0390938003F2
:1010900080937F03909382038093810390938403D2
:1010A00080938303909386038093850390938803B2
:1010B0008093870390938A038093890390938C0392
:1010C00080938B0390938E0380938D039093900372
:1010D00080938F0390939203809391039093940352
:1010E0008093930390939603809395039093980332
:1010F0008093970390939A03809399039093E703C7
:101100008093E6039093F8028093F70290939C03F8
:1011100080939B0390939E0380939D039093A003E1
:1011200080939F039093A2038093A1039093A403C1
:101130008093A3039093A6038093A5039093A803A1
:101140008093A7039093AA038093A9039093AC0381
:101150008093AB039093AE038093AD039093B00361
:101160008093AF039093B2038093B1039093B40341
:101170008093B3039093B6038093B5039093B80321
:101180008093B7039093BA038093B9039093E903D4
:101190008093E8039093FA028093F9029093BC0342
:1011A0008093BB039093BE038093BD039093C003D1
:1011B0008093BF039093C2038093C1039093C403B1
:1011C0008093C3039093C6038093C5039093C80391
:1011D0008093C7039093CA038093C9039093CC0371
:1011E0008093CB039093CE038093CD039093D00351
:1011F0008093CF039093D2038093D1039093D40331
:101200008093D3039093D6038093D5039093D80310
:101210008093D7039093DA038093D9031092DB0372
:101220001092EC021092EB0282E08093B0001092D8
:10123000B2001092700087E087BB8EE0EAEAF2E02D
:10124000DE01119601900D928A95E1F789819A81CC
:101250009C01220F331F220F331F220F331F281B25
:10126000390B40E050E0C12C64ECD62E69E0E62E4C
:10127000F12CC701B6010E948547215031092F3F4B
:10128000310509F008F49BC08B819C819C01220FE1
:10129000331F220F331F220F331F281B390B40E04F
:1012A00050E0C701B6010E948547215031092F3F08
:1012B000310509F008F48AC08D819E819C01220FBE
:1012C000331F220F331F220F331F281B390B40E01F
:1012D00050E0C701B6010E948547215031092F3FD8
:1012E000310509F008F474C08F8198859C01220FA4
:1012F000331F220F331F220F331F281B390B40E0EF
:1013000050E0C701B6010E948547215031092F3FA7
:10131000310509F008F464C089859A859C01220F83
:10132000331F220F331F220F331F281B390B40E0BE
:1013300050E0C701B6010E948547215031092F3F77
:10134000310509F008F44AC08B859C859C01220F69
:10135000331F220F331F220F331F281B390B40E08E
:1013600050E0C701B6010E948547215031092F3F47
:10137000310591F188F18D859E859C01220F331FE7
:10138000220F331F220F331F281B390B40E050E080
:10139000C701B6010E948547215031092F3F310511
:1013A000C9F0C0F02E960FB6F894DEBF0FBECDBFC9
:1013B000DF91CF91FF90EF90DF90CF90089580E084
:1013C0002093B3008F5F8093B100ECCF81E0F8CF22
:1013D00082E0F6CF86E0F4CF85E0F2CF84E0F0CF74
:1013E00083E0EECFE82FF0E0EE0FFF1FE452FC4F5A
:1013F000808191810895E82FF0E0EE0FFF1FE35107
:10140000FD4F808191810895C19B11C0C19A1092B6
:101410009500109294008091BC02811109C08091C6
:10142000F103813081F08091EA03813061F0089509
:101430008091F103813019F18091EA038130F9F054
:101440001092BC02089581E08093BC028091EB036E
:101450009091EC0301979093BB028093BA02209184
:10146000ED033091EE033093B9022093B802892B3B
:10147000F1F6809180008F738093800008958091B1
:10148000BA029091BB02009741F001979093BB0282
:101490008093BA02892B59F6ECCF8091B8029091D3
:1014A000B902009731F001979093B9028093B80286
:1014B0000895809180008F7B8093800080918000D0
:1014C0008068809380008091EB039091EC0390936F
:1014D000BB028093BA028091ED039091EE0390934A
:1014E000B9028093B80208958091EA03813009F02F
:1014F0000895809180008F73809380001092EA039A
:1015000008959091EA03992359F19130A9F110922D
:10151000870090E0FC01EE50FC4F20812093860074
:101520001092890020812695209388007093EC0307
:101530006093EB035093EE034093ED039093F0031D
:101540008093EF03809180008F7B80938000809157
:10155000800080688093800081E08093EA03089592
:101560009091F103913099F6909180009F73909340
:1015700080001092F103CBCF909180009F739093E5
:1015800080001092EA03C3CF259A2D9810926F0025
:101590009FE296BB1092850010928400E0E8F0E094
:1015A000108280818E7F8083808182608083E1E8E9
:1015B000F0E01082808188608083808180618083F8
:1015C00010928900109288008081887F80838081BA
:1015D000856080831092710098BB109295001092E4
:1015E0009400E0E9F0E0108280818E7F808380812A
:1015F0008D7F8083E1E9F0E01082808188608083C4
:1016000080818F7E808398E1909399008AE6809311
:1016100098008081887F80838081846080838DE1D1
:101620008093F2038AE18093F3039093F40386E1BD
:101630008093F50384E18093F60382E18093F703BE
:1016400080E18093F8031092F1031092EA0381E0A5
:1016500090E09093EC038093EB039093EE038093E0
:10166000ED031092F0031092EF0308959091EA03B6
:1016700091112CC09091F103911128C01092870014
:1016800090E0FC01EE50FC4F2081209386001092E8
:10169000890020812695209388009093F003809301
:1016A000EF037093EC036093EB035093EE034093CE
:1016B000ED03809180008F7B80938000809180007B
:1016C00080688093800081E08093F1030895909179
:1016D000EA03911104C09091F103913009F008954B
:1016E0001092870090E0FC01EE50FC4F2081209387
:1016F000860010928900208126952093880090937F
:10170000F0038093EF0308952091EA03211104C0B0
:101710002091F103213009F008959093EC03809318
:10172000EB0308952091EA03211104C02091F103F5
:10173000213009F008959093EE038093ED0308950E
:101740008091EA03811104C08091F103813009F096
:101750000895809180008F73809380001092F10330
:1017600008958091F10308958091EA030895D19B33
:1017700019C0D19A10922501109224014091FF03C3
:101780008091BD029091BE02413069F02091F90331
:101790003091FA0382179307C9F001969093BE0225
:1017A0008093BD0208952091FC033091FD038217C0
:1017B000930799F71092BE021092BD024093FB036B
:1017C00080912101887F8093210108951092BE02AB
:1017D0001092BD0281E08093FE0308951092730081
:1017E0008FE28ABB1092250110922401E0E2F1E021
:1017F000108280818E7F808380818D7F8083E1E273
:10180000F1E0108280818860808380818F7E808378
:1018100088E1809329018AE6809328018081887F6E
:1018200080831092FF031092FD031092FC0310922C
:10183000FA031092F9031092FB031092FE0308952D
:101840001092FF039C013695279536952795ABE7B7
:10185000B4E10E945047969587959093FA03809340
:10186000F9031092FE0310922501109224018FE2D9
:101870008ABBE1E2F1E08081887F8083808184609F
:101880008083089521E02093FF039C0136952795DE
:1018900036952795ABE7B4E10E945047969587951A
:1018A0009093FD038093FC031092FB03109225019B
:1018B000109224018FE28ABBE1E2F1E08081887F0F
:1018C000808380818460808308958091FE038130CD
:1018D00011F080E008951092FE0308958091FB03BB
:1018E000813011F080E008951092FB030895E1E249
:1018F000F1E08081887F8083D19A10922501109237
:1019000024011092FE031092FB03089510927200BE
:101910008FE289BB1092A5001092A400E0EAF0E0EB
:10192000108280818E7F808380818D7F8083E1EA39
:10193000F0E0108280818860808380818F7E808348
:101940008DE38093A90088E08093A8008081887F40
:1019500080838081826080830895C99B07C0C99A73
:101960001092A5001092A40081E0089580E00895EF
:10197000AF92BF92CF92DF92EF92FF920F931F939D
:10198000CF93DF931F921F92CDB7DEB7CE010196A2
:101990000E941119E4EFF4E049815A81BDE2AB2EB7
:1019A000B1E1BB2ED12C01E010E085E0C82E1FC0B4
:1019B000C9018F5F9B4FDC01CC92C9018E5F9B4FA9
:1019C000DC01CC92CB01880F991F8F579B4F2F5F63
:1019D0003B4FDC012D933C93D39470964E5F5F4F49
:1019E000BFEFAB1ABB0A86E0E43FF807D9F180816C
:1019F000882399F3DA018D919C919F012750310939
:101A0000D9012D913C91820F931FD5012C91820F0A
:101A1000911D27FD9A956D2D70E09B01220F331FBC
:101A2000220F331FD901AD5FBB4F8C93D901AC5F3F
:101A3000BB4F9C93CF010197DC018C91882309F463
:101A4000B7CF8F70D80102C0AA0FBB1F8A95E2F7EB
:101A5000CD01D901AF5FBB4F8C93D901AE5FBB4FB6
:101A60008C93B0CFDD2061F001E814E024E030E099
:101A70004CE150E065EC74E0809100040E94B141BB
:101A80000F900F90DF91CF911F910F91FF90EF90EA
:101A9000DF90CF90BF90AF90089590E1899FF001C3
:101AA0001124EB51FB4F6687089590E1899FF00167
:101AB0001124EB51FB4F8685089590E1899FF00139
:101AC0001124EB51FB4F71876087089590E1899F46
:101AD000F0011124EB51FB4F80859185089590E131
:101AE000899FF0011124EB51FB4F8785089590E108
:101AF000899FF0011124EB51FB4F8285089590E1FD
:101B0000899FF0011124EB51FB4F84850895C99BF7
:101B100015C0C99A1092A5001092A4000E94943694
:101B200081110DC00E94870F0E9453180E94D0306F
:101B30000E949436811106C00C94B80C08950E943E
:101B40000536F0CF0E940F36F7CF2F923F924F927B
:101B50005F926F927F928F929F92AF92BF92CF923D
:101B6000DF92EF92FF920F931F93CF93DF9300D0FA
:101B7000CDB7DEB7482E19820E947E3F882309F434
:101B800052C12FEF89E698E1215080409040E1F763
:101B900000C00000E5EEF4E044EF54E025E01182DF
:101BA0001082138212821582148217821682118685
:101BB0001086DA011C92CA010197DC012C9313866E
:101BC0001286158614867096405F5F4FB6E0E53E3C
:101BD000FB0729F71092C1041092C2041092C304AB
:101BE0001092C40465EC74E0CE0101960E94D33FCC
:101BF000109200048981882309F418C1312C9CE2D9
:101C0000892E99249394AA24AA9423E0B22EC12C5D
:101C100032E0D32E5524539445E0642EEE24E39411
:101C2000F12C62E0262E09C081159C4009F4C4C045
:101C300033948981381608F069C0E32DF0E0EB5346
:101C4000FB4F7080872D0E94DA3D8C30910521F08A
:101C50008C32E1E09E0741F7872D0E94BC33F0E112
:101C60007F9EB00111248B010B511B4FD80111969F
:101C70009C928E921396BC92AE92129715961C92DD
:101C80001E9214971796DC92CE921697872D6A8330
:101C90007B830E941935F801918780876A817B8157
:101CA000AB014F505B4F61517B4F872D0E944032FB
:101CB000D8011F965C921F971E966C92809100042B
:101CC0008F5F80930004A70102C0440F551F7A94D0
:101CD000E2F7662757FD6095762F8091C1049091B9
:101CE000C204A091C304B091C404842B952BA62BED
:101CF000B72B8093C1049093C204A093C304B09304
:101D0000C40433948981381608F497CF8091000475
:101D1000481609F485C044E650E06AE070E084E0CB
:101D20000E94810A109272008FE289BB1092A50076
:101D30001092A4001092A0008091A0008E7F80934A
:101D4000A0008091A0008D7F8093A0001092A10040
:101D50008091A10088608093A1008091A1008F7E76
:101D60008093A1008DE38093A90088E08093A80070
:101D70008091A100887F8093A1008091A100826062
:101D80008093A1000E94180F809100040F900F9083
:101D90000F90DF91CF911F910F91FF90EF90DF9007
:101DA000CF90BF90AF909F908F907F906F905F90FB
:101DB0004F903F902F900895872D0E94BC33E0E113
:101DC0007E9EB00111248B010B511B4FE4EBF0E020
:101DD000D8011196FC93EE931396BC92AE92129793
:101DE00015961C921E9214971796DC92CE92169717
:101DF000872D6A837B830E941935D80119969C939D
:101E00008E9318976A817B81AB014F505B4F615174
:101E10007B4F872D0E944032F801278666864ECF81
:101E20000E94740A7FCF0E94483FABCE80E070CF03
:101E30001092610C1092A30B8FEF8093A30C8093F0
:101E4000A2098093600C1092A20C0895CF93C82F22
:101E500063EA79E00E940D18811102C0C093A209C3
:101E6000CF9108951092610C1092E30B1092E20B47
:101E70001092A1091092A0091092A10C1092A00C2E
:101E800083E08093430D1092600C8091B20980939F
:101E90009F091092A30CE4EFF4E080E090E006C00C
:101EA0007096029626E0E43FF20709F12081213086
:101EB000B9F7DF0117972D913C91DC01AE59B34F73
:101EC0002D933C93DC01AB5FB24F1D921C92DC0161
:101ED000AE5DB34F1D921C92DC01AB51B94F1D9208
:101EE0001C927096029626E0E43FF207F9F681E034
:101EF0008093A20C80916311806180936311089597
:101F000081E08093A30B08958091A20C08952F92F5
:101F10003F924F925F926F927F928F929F92AF9279
:101F2000BF92CF92DF92EF92FF920F931F93CF93C6
:101F3000DF93CDB7DEB7A3970FB6F894DEBF0FBE21
:101F4000CDBF8091A20C882309F49AC08091E20B46
:101F50009091E30B4091A0095091A1098417950736
:101F600008F0A7C08C010F5F1F4F1A8709871093D5
:101F7000E30B0093E20B1091430D1D87133009F41E
:101F80007FC08091A0099091A1098C0120E030E0F0
:101F9000098B1A8B2B8B3C8B8C01015011091E8BEA
:101FA0000D8B05EC1CE07DEEA72E74E0B72EE3E26E
:101FB000CE2EE7E0DE2EF5E0EF2EFDE0FF2EA5EEC3
:101FC0004A2EA6E05A2EB4EA6B2EBBE07B2E812C63
:101FD000912C80E090E0212C312C9BA38AA3C2019C
:101FE000230194014801A60167017A0189013C019E
:101FF00021C0BFEF2B1A3B0AEAA1FBA17096FBA3FD
:10200000EAA3F2E08F0E911C0E5F1F4F20E1A20E9B
:10201000B11C32E0E30EF11C42E0C40ED11C52E0D0
:10202000650E711C62E0460E511C8AA19BA18115B0
:10203000924031F12AA13BA12B513B4F3A83298396
:10204000D9011F968C918130A1F6F801EE5DF34F16
:1020500080819181892B09F06FC0F4018081918189
:10206000D5018D939C93F101ED55F64F80A1A98187
:10207000BA811E968C93BDCF1092A20C1092A30B26
:10208000A3960FB6F894DEBF0FBECDBFDF91CF9100
:102090001F910F91FF90EF90DF90CF90BF90AF9086
:1020A0009F908F907F906F905F904F903F902F9078
:1020B00008951092E30B1092E20BE4EFF4E080E05D
:1020C00090E006C07096029606E0E43FF007E1F06B
:1020D00020812130B9F7DF0117972D913C91DC0168
:1020E000AB53B34F2D933C93DC01AB51B94F2D91C2
:1020F0003C91DC01AB5FB24F2D933C9370960296FE
:1021000006E0E43FF00721F78091430D882309F4AE
:10211000C7C0813009F492C1823009F45BC18330B9
:1021200009F42CC25E874D8780E090E0DA018A17BF
:102130009B0708F0A5CF16CFBD85B1114AC0F601A7
:102140000190F081E02DF88BEF87F701A081B1813C
:102150002F853889A21BB30B29853A850E945F47DA
:1021600029893A894B895C890E94A7478F8598897C
:10217000820F931FD3018D939C93D901B595A79599
:10218000EF85F889AE0FBF1F29853A850E945F470A
:102190009B01AC01A0E9B0E00E9466472FE030E06F
:1021A00040E050E00E94A74769E055954795379574
:1021B00027956A95D1F7F801EF59F64F31832083BF
:1021C000D4018D919C91820F931FF501918380839F
:1021D0004ACFB13009F448C029853A854D895E89D6
:1021E0002417350709F421C1F101EC55F34F808123
:1021F00081113AC0F6010190F081E02DF88BEF8754
:10220000DF01B195A195B10929853A850E945F4703
:1022100029893A894B895C890E94A7478F859889CB
:10222000820F931FD3018D939C93D901B595A795E8
:10223000EF85F889AE0FBF1F29853A850E945F4759
:102240009B01AC01A0E9B0E00E9466472FE030E0BE
:1022500040E050E00E94A74799E055954795379593
:1022600027959A95D1F7ACCFF201A081B18129854C
:102270003A850E945F4729893A894B895C890E9487
:10228000A747D4018D919C91820F931FF5019183F3
:102290008083D7018D919C91F30191838083E3CE5C
:1022A00081E08093430D2091030D3091040D009146
:1022B000C30C1091C40C1A830983C801880F991F9D
:1022C0008901081B190B1E870D871093A109009324
:1022D000A00909811A812017310709F4E5C0A80176
:1022E000B2E22B2EBCE03B2E11E6612E19E0712EDE
:1022F00003E2802E07E0902E84EA482E8BE0582ED1
:1023000004EA1CE064EF74E0C901841B950B9C0196
:1023100040E050E029873A874B875C8795E0C92EDB
:10232000D12CE12CF12C788B6F8719C0EF85F889BF
:102330007096F88BEF87F2E02F0E311C22E0620ED0
:10234000711C32E0830E911C42E0440E511C0F5F61
:102350001F4F6F857889645F764009F44BC0AF8565
:10236000B8898C91813011F7F8018081813009F4AE
:1023700046C0F401A081B181F101A080B180F301D8
:1023800080819181A81AB90A29813A810E945F4708
:102390009B01AC01660F771F881F991F620F731F87
:1023A000841F951F660F771F881F991F660F771F61
:1023B000881F991FA70196010E94A747BB2757FDB9
:1023C000BA95A52F942F832FA81AB90AD201AD92DE
:1023D000BC92ACCF8091A00C9091A10C009709F415
:1023E000E1C023E02093430D9093A1098093A009BD
:1023F0009E878D8780E090E0AD85BE8598CEF10107
:10240000A081B181F30180819181A81BB90B2D8539
:102410003E850E945F4729853A854B855C850E94F1
:10242000A747D2012D933C9381CFF801EE59F34F8A
:1024300080819181D5018D939C9315CE82E080930C
:10244000430D7091C30C6091C40C7093A00960930C
:10245000A109A4EABBE0E4EFF4E080E090E08D01A4
:1024600009C0709602960E5F1F4FB6E0E43FFB076F
:1024700009F47DC020812130A1F79C012E5D334FEE
:10248000D9012D913C91D8014D915C91241B350BC4
:10249000AC014F59564FDA014D915C91241B350B1D
:1024A000D8012D933C93DDCFB4EACB2EBBE0DB2EDD
:1024B00014EAE12E1CE0F12E84EF94E000E010E03D
:1024C00045E0442E512C612C712C49011C0111C096
:1024D000F0E12F0E311C22E0C20ED11C0E5F1F4F07
:1024E0003FEFE31AF30A44EF241646E0340609F4FA
:1024F00081CFD1018C91813059F7F70180818130F2
:10250000C9F1F801ED5DF84FA081B181F801EE5DF0
:10251000F34FA080B180F801EF59F64F808191818F
:10252000A81AB90A94010E945F479B01AC01660F8B
:10253000771F881F991F620F731F841F951F660FD7
:10254000771F881F991F660F771F881F991FA30188
:1025500092010E94A747BB2757FDBA95A52F942F3C
:10256000832FA81AB90AF601B182A082B1CF7D8764
:102570006E8740CFD6011D921C92AACF1092430DB8
:10258000A5E0BDE0E4EFF4E006C07096129606E028
:10259000E43FF00749F080818130B9F711961C9231
:1025A0001E92F3CF1092430D8091610C813009F49B
:1025B00063CD8091600C8F5F8093600CA091B70910
:1025C000A81708F0C8C080E092E0E1E6F7E0A3EACF
:1025D000B9E001900D920197E1F78091A30C9091E1
:1025E000A209981721F09091B20990939F0991E068
:1025F0009093600C8093A209A091B709B1E0AB174A
:1026000009F484C26B2F70E08B0101501109002482
:10261000169507950794169507950794102F002D8A
:10262000A8014D55564FFA01E258FF4F8081209185
:10263000B909289FC0011124969587959295829596
:102640008F7089279F7089279093A10C8093A00C8D
:10265000FA01E158FF4F3081329F900111243695E5
:102660002795329522952F7023273F702327211518
:10267000310511F421E030E04091610C413009F462
:102680005EC2892B09F4C4C1AB1709F456C3E4EA4E
:102690004E2EECE05E2EA2E6BCE07B010024F69418
:1026A000E7940794F694E7940794FE2CE02CA70196
:1026B0004D51564F7A0180EC582F56034001579FD9
:1026C000900C1124E4EFF4E080E090E059013D012A
:1026D000A70168010EC07096BFEF4B1A5B0A029605
:1026E00002E0600E711C4E5F5F4F16E0E43FF107A1
:1026F000A1F12081213079F79C012F59364FD90162
:102700001D921C929A01280D391D2C0D3D1DD901D9
:102710002D913C9136FF18C0D3012D913C91B90108
:10272000E12CF12C8C010B53134FD8016D937C934A
:10273000D3012D933C939C012E5D334FD901ED9233
:10274000FC92D2011C92C7CFD3016D917C9179018B
:10275000E61AF70AE7CFB82F52CF95013093040D50
:102760002093030D8091BB0990E0AC01440F551FED
:102770004217530708F4E0C0C90101979695879561
:102780009093C40C8093C30C009709F0D9C01092A9
:10279000040D1092030D1E861D8619821A821B825B
:1027A0001C821D821E821F82188661E06F87412C69
:1027B000512C198A1D8A1F8A188E198E71E07A8F02
:1027C0001B8E1C8E1D8E1E8E1F8E18A219A273E2E8
:1027D000872E77E0972EE4EA6E2EECE07E2E04EF53
:1027E00014E0212C312C1BA30AA315C00AA11BA1A4
:1027F000005F1F4F1BA30AA312E0810E911C22E071
:10280000220E311C3FEF631A730A4AA15BA1445F99
:10281000564009F484C0AAA1BBA18C91813031F744
:10282000F101EB5FF24F31812081932F990F990BCA
:10283000A980BA80CB80DC80ED80FE800F81188576
:10284000492F592F692F792F892F0E94FD47590150
:102850006A017B018C01F101EE5DF34FA081B18132
:1028600020E03AE00E945F472CE030E040E050E09A
:102870000E94A747DA01C901550F220B322FA90187
:1028800029873A874B875C87F3012081211122C079
:102890009C01AD016985762F862F962F0E941E49D7
:1028A000AA8CBB8CCC8CDD8CEE8CFF8C08A119A182
:1028B0000E94C047D4012C9311963C93822F932FF2
:1028C0008115F4E09F070CF1EFEFF3E0D401ED93F5
:1028D000FC938CCF9C01AD016985762F862F962FB6
:1028E0000E941E49AF84B42CC52CD988ED88FF887E
:1028F000088D198D0E94C047F40120833183822FF7
:10290000932F8115F4E09F07FCF681309C4F0CF06B
:102910006DCFE1E0FCEFD401ED93FC9367CF8D85A3
:102920009E859093A1098093A0098091E20B9091DC
:10293000E30BAD85BE85FBCB9093C40C8093C30C99
:102940004901A12CB12C880C991CAA1CBB1CC12CC0
:10295000D12C76019E878D87A0E0B0E0880F991F6B
:10296000AA1FBB1F8C019D0140E050E0BA01898382
:102970001A832B833C834D835E836F837887940116
:10298000A501B601C7015801CB80DC80E12CF12CF8
:1029900000E010E00E941E4901E00E94FC48722EF7
:1029A000832E942EB52F662E372EF82FE92F00E0B8
:1029B0000E9415492F87432E542E598B6D8B7F8B88
:1029C000888F998F7A8E8B8E9C8EBD8F6E8E3F8E68
:1029D000F8A3E9A3452DA0E00E94274949F411E09E
:1029E0001F87412C512C198A1D8A1F8A188E198E17
:1029F000272D382D492D5B2F662D732D8F2F9E2F60
:102A0000A0E00E94274909F0E2CE21E02A8FD8CE2B
:102A1000AB1709F42AC1A4EAEA2EACE0FA2EB2E61A
:102A20004B2EBCE05B2EDB010024B695A7950794E6
:102A3000B695A7950794BA2FA02DAD51B64F80EC4F
:102A4000482F46034001479F900C1124E4EFF4E027
:102A500080E090E0772473945901A7011D0168017B
:102A60000FC070964F5F5F4F0296B2E04B0E511C45
:102A700002E0200E311C16E0E43FF10709F46DCEB0
:102A80002081213071F79C012F59364FD9011D92B9
:102A90001C929101280D391D2C0D3D1DD9012D9140
:102AA0003C9136FF2CC0D2012D913C91B901E12C13
:102AB000F12C8C010B53134FD8016D937C93D201F1
:102AC0002D933C938C010E5D134FD801ED92FC9237
:102AD000D1010D911C9116FD0FC06217730730F4E0
:102AE0002017310718F4DA017C92BBCF261737077D
:102AF00018F402171307B8F3DA011C92B2CFD2010F
:102B00006D917C917901E61AF70AD3CF8091A30BDE
:102B1000813009F4A0C080919F09815080939F0962
:102B2000882309F493C08091A2098093A30C81119A
:102B300069C081E08093610CB091600C63CD892BFA
:102B400009F046C1AB1709F4F5C144EA442E4CE044
:102B5000542EA2E6BCE07B010024F694E79407948F
:102B6000F694E7940794FE2CE02CA7014D51564FA4
:102B70007A0180EC582F56034001579F900C112486
:102B8000E4EFF4E080E090E059013D01A7010FC0BF
:102B90007096BFEF4B1A5B0A029622E0620E711C20
:102BA0004E5F5F4F36E0E43FF30709F4D6CD208156
:102BB000213071F79C012F59364FD9011D921C927B
:102BC0009A01280D391D200F311FD9012D913C91FB
:102BD000D30136FF35C02D913C917901C12CD12C08
:102BE000BC016B53734FDB01ED92FC92D3012D932B
:102BF0003C939C012E5D334FD901CD92DC92D201E2
:102C00001C92C6CF9091A20998132AC080E092E04E
:102C1000E3EAF9E0A1E6B7E001900D920197E1F750
:102C200080917007882321F080917507811103C07E
:102C300081E08093610CB091600CA091B709E2CC67
:102C4000ED90FC906901CE18DF08CACF8091BC09D5
:102C50008093A30C6CCF8091BD098093A30C67CFA8
:102C600061E677E00E940D18DBCF44EA5CE0A2E663
:102C7000BCE00D55164FE4EFF4E080E090E0BB249B
:102C8000B39469013A014D010DC07096BFEF6B1A04
:102C90007B0A029622E0820E911C36E0E43FF307A5
:102CA00009F449C04081413081F7AC014F59564F7A
:102CB000DA011D921C92A801480F591F405C5F4F1A
:102CC000DA014D915C9156FF2FC0D4014D915C917A
:102CD000BA01E12CF12C9C012B53334FD9016D9398
:102CE0007C93D4014D935C939C012E5D334FD901AD
:102CF000ED92FC929C012F55384FD901ED90FC903C
:102D0000F6FC0FC06417750730F44E155F0518F414
:102D1000D301BC92BACF4617570718F4E416F5064C
:102D2000B8F3D3011C92B1CFD4016D917C917A019B
:102D3000E61AF70AD0CF960111CD44EA5CE0A2E68C
:102D4000BCE00D55164FE4EFF4E080E090E04A015E
:102D500069015D010CC07096BFEF8B1A9B0A029649
:102D600022E0A20EB11C36E0E43FF30721F34081DC
:102D7000413089F7AC014F59564FDA011D921C9230
:102D8000A801480F591F405C5F4FDA014D915C91DB
:102D9000D50156FF17C04D915C91BA01E12CF12C81
:102DA0009C012B53334FD9016D937C93D5014D93E7
:102DB0005C93AC014E5D534FDA01ED92FC92D4016D
:102DC0001C92C9CF6D917C917A01E61AF70AE8CF7F
:102DD000AB1709F465C084EA482E8CE0582EA2E6B1
:102DE000BCE07B010024F694E7940794F694E79402
:102DF0000794FE2CE02CC7018D51964F7C0180EC8E
:102E0000482F46034001479F900C1124E4EFF4E063
:102E100080E090E059013D01A70178010FC0709654
:102E2000BFEF4B1A5B0A029602E0600E711C4E5F08
:102E30005F4F16E0E43FF10709F48FCC2081213089
:102E400071F79C012F59364FD9011D921C929A019E
:102E5000280D391D2E0D3F1DD9012D913C9136FFB6
:102E600018C0D3012D913C91B901C12CD12C8C01FA
:102E70000B53134FD8016D937C93D3012D933C9347
:102E80009C012E5D334FD901CD92DC92D2011C9270
:102E9000C6CFD3016D917C916901C61AD70AE7CFDD
:102EA000A2E6BCE044EA5CE00D55164FE4EFF4E026
:102EB00080E090E05D014A010DC070960296B2E09C
:102EC000AB0EB11C4FEF841A940A56E0E43FF507AD
:102ED00009F444CC4081413081F7AC014F59564F41
:102EE000DA011D921C92A801480F591F405C5F4FE8
:102EF000DA014D915C91D50156FF16C04D915C9160
:102F0000BA01E12CF12CDC01AB53B34F6D937C93F0
:102F1000D5014D935C93AC014E5D534FDA01ED92B8
:102F2000FC92D4011C92C9CF6D917C917A01E61A72
:102F3000F70AE9CFA2E6BCE044EA5CE00D55164F83
:102F4000E4EFF4E080E090E05D014A010DC070968E
:102F50000296B2E0AB0EB11C4FEF841A940A56E011
:102F6000E43FF50709F4FACB4081413081F7AC0129
:102F70004F59564FDA011D921C92A801480F591F54
:102F8000405C5F4FDA014D915C9156FF17C0D5014F
:102F90004D915C91BA01E12CF12CDC01AB53B34FA4
:102FA0006D937C93D5014D935C93AC014E5D534F73
:102FB000DA01ED92FC92D4011C92C9CFD5016D913A
:102FC0007C917A01E61AF70AE8CFFC0120E030E0B4
:102FD00090E08191980F2F5F3F4F211582E03807D5
:102FE000C1F781E0911180E0089520E032E0FC011A
:102FF000A901119241505040E1F70895FB0120E0F2
:1030000030E0DC01A20FB31F4C9141932F5F3F4F83
:10301000211542E03407A9F70895EF92FF920F932C
:103020001F93CF93DF93F62EE72E082F10E020E0BA
:1030300030E000511F4F2F4F3F4F89E0000F111F0D
:10304000221F331F8A95D1F7C62FD72F80E090E03B
:10305000DC01AC01BD01400F511F621F731F6BBF2C
:10306000FA01479149930196A11DB11D811542E0D6
:103070009407A105B10569F7EF2DFE2D20E080E052
:1030800090E03191230F0196811532E09307C9F743
:1030900081E0211180E08195DF91CF911F910F9107
:1030A000FF90EF9008954F925F926F927F928F9270
:1030B0009F92AF92BF92CF92DF92EF92FF921F93B7
:1030C000CF93DF938091860D813081F0DF91CF9196
:1030D0001F91FF90EF90DF90CF90BF90AF909F90A7
:1030E0008F907F906F905F904F9008951091440D56
:1030F000113061F783E00E94F2092091890D30912F
:103100008A0D7C01E21AF30A84E00E94F209C09160
:10311000870DD091880D662777276E197F09C81B08
:10312000D90B68338FEF78070CF46EC0693C7105DA
:1031300014F01093450D882777FD8095982F0E94F5
:10314000464A6B017C0126E234EB47E95DE30E94CD
:10315000F64A2B013C0129E33EE843E65EE3C70162
:10316000B6010E94F64A4B015C01BE01882777FD3B
:103170008095982F0E94464A6B017C012DEC3CEC17
:103180004CE45EE30E94F64A0E94184A7093570D81
:103190006093560D7093590D6093580DC301B201A1
:1031A0000E94184A70935F0D60935E0DC301B201D7
:1031B00090580E94184A7093610D6093600DC5018C
:1031C000B4010E94184A7093630D6093620DC501AB
:1031D000B40190580E94184A7093650D6093640D75
:1031E0002DEC3CEC4CEC5DE3C701B6010E94F64AC5
:1031F00090580E94184A7093670D6093660D709303
:10320000690D6093680D62CF82E08093450D93CF86
:10321000E82FF0E0EE0FFF1FEA5BF24F8081918113
:10322000089526E43DE0FC01318320830895109247
:103230008A0D1092890D1092880D1092870D1092B0
:10324000440D1092860D1092450D80E4E6E4FDE0F9
:10325000DF011D928A95E9F708958091450D10923E
:10326000450D08951092450D08952F923F924F926B
:103270005F926F927F928F929F92AF92BF92CF9206
:10328000DF92EF92FF920F931F93CF93DF93CDB70F
:10329000DEB7E4970FB6F894DEBF0FBECDBF109235
:1032A0008A0D1092890D1092880D1092870D82E37D
:1032B00090E00E94200C7E0185E1E80EF11CFE01E9
:1032C0003196FAA7E9A71E01F9E22F0E311C812CD5
:1032D000912C54012401350104C00E94B70B0E94B7
:1032E0009F050E94650C8823C1F383E00E94F209C8
:1032F0008C01F701819391937F0184E00E94F20990
:103300006C01E9A5FAA581939193FAA7E9A7B80101
:1033100080E090E00E94444A9B01AC01C301B201ED
:103320000E9448492B013C01B60180E090E00E94D8
:10333000444A9B01AC01C501B4010E9448494B01BC
:103340005C01E214F30469F60E94770C20E030E09F
:1033500040E251E4C301B2010E94B0496B017C011B
:1033600020E030E040E251E4C501B4010E94B049E0
:1033700069A77AA78BA79CA76D897E8980E090E0DA
:103380000E94444AA70196010E9447499B01AC0153
:103390000E94F64A20E030E0A9010E9448492B0132
:1033A0003C0169817A8180E090E00E94444A29A52D
:1033B0003AA54BA55CA50E9447499B01AC010E9420
:1033C000F64A20E030E0A9010E9448494B015C0127
:1033D0006F89788D80E090E00E94444AA7019601B1
:1033E0000E9447499B01AC010E94F64AA301920149
:1033F0000E9448492B013C016B817C8180E090E078
:103400000E94444A29A53AA54BA55CA50E944749BC
:103410009B01AC010E94F64A9B01AC01C501B401BD
:103420000E9448494B015C01698D7A8D80E090E0F3
:103430000E94444AA70196010E9447499B01AC01A2
:103440000E94F64A9B01AC01C301B2010E944849A7
:103450002B013C016D817E8180E090E00E94444A16
:1034600029A53AA54BA55CA50E9447499B01AC0143
:103470000E94F64A9B01AC01C501B4010E94484973
:103480004B015C016B8D7C8D80E090E00E94444A92
:10349000A70196010E9447499B01AC010E94F64A90
:1034A0009B01AC01C301B2010E9448492B013C01C0
:1034B0006F81788580E090E00E94444A29A53AA572
:1034C0004BA55CA50E9447499B01AC010E94F64AAE
:1034D0009B01AC01C501B4010E9448494B015C014C
:1034E0006D8D7E8D80E090E00E94444AA701960198
:1034F0000E9447499B01AC010E94F64A9B01AC0126
:10350000C301B2010E9448492B013C0169857A85BB
:1035100080E090E00E94444A29A53AA54BA55CA50D
:103520000E9447499B01AC010E94F64A9B01AC01F5
:10353000C501B4010E9448494B015C016F8D78A11F
:1035400080E090E00E94444AA70196010E9447490A
:103550009B01AC010E94F64A9B01AC01C301B20180
:103560000E9448492B013C016B857C8580E090E0FE
:103570000E94444A29A53AA54BA55CA50E9447494B
:103580009B01AC010E94F64A9B01AC01C501B4014C
:103590000E9448494B015C0169A17AA180E090E05A
:1035A0000E94444AA70196010E9447499B01AC0131
:1035B0000E94F64A9B01AC01C301B2010E94484936
:1035C0002B013C016D857E8580E090E00E94444A9D
:1035D00029A53AA54BA55CA50E9447499B01AC01D2
:1035E0000E94F64A9B01AC01C501B4010E94484902
:1035F0004B015C016BA17CA180E090E00E94444AF9
:10360000A70196010E9447499B01AC010E94F64A1E
:103610009B01AC01C301B2010E9448492B013C014E
:103620006F85788980E090E00E94444A29A53AA5F8
:103630004BA55CA50E9447499B01AC010E94F64A3C
:103640009B01AC01C501B4010E9448494B015C01DA
:103650006DA17EA180E090E00E94444AA7019601FE
:103660000E9447499B01AC010E94F64A9B01AC01B4
:10367000C301B2010E9448496DA77EA78FA798ABEE
:1036800069897A8980E090E00E94444A29A53AA598
:103690004BA55CA50E9447499B01AC010E94F64ADC
:1036A0009B01AC01C501B4010E94484969AB7AABEA
:1036B0008BAB9CAB6FA178A580E090E00E94444A60
:1036C000A70196010E9447492B013C016B897C8927
:1036D00080E090E00E94444A29A53AA54BA55CA54C
:1036E0000E9447494B015C01A3019201C301B20151
:1036F0000E94F64A2DA53EA54FA558A90E9448490B
:1037000020E030E040E251E40E94B0490E945D4B6D
:103710002B013C01A5019401C501B4010E94F64AA8
:1037200029A93AA94BA95CA90E94484920E030E0A8
:1037300040E251E40E94B0490E945D4B4B015C01A4
:1037400020E030E040EA51E4C301B2010E94AC49FC
:1037500087FF0AC020E030E040EA51E4C501B4012F
:103760000E94AC4987FD26C044E650E06AE070E064
:1037700084E00E94810A80915D118F7780935D11B2
:1037800080E0E4960FB6F894DEBF0FBECDBFDF91A8
:10379000CF911F910F91FF90EF90DF90CF90BF904E
:1037A000AF909F908F907F906F905F904F903F90E1
:1037B0002F90089581E08093440DC701B6010E94C7
:1037C000184A70938A0D6093890D69A57AA58BA517
:1037D0009CA50E94184A7093880D6093870D0E94E3
:1037E000740A81E0CECF81E08093860D0895109217
:1037F000860D08958091860D08950F931F93CF93A2
:10380000DF93EC011091CD02113091F108F442C028
:10381000123081F01330C1F50E94840F81112CC049
:1038200010928F0D1092CD0281E0DF91CF911F9108
:103830000F9108950E94840F81111EC010918F0D69
:1038400080918E0D113009F454C0882309F44AC0C8
:103850008A810E94260F10928E0D0E94320F82E004
:103860008093CD0280E0DF91CF911F910F91089559
:103870000E94840F882321F11093CD0280E0DF9114
:10388000CF911F910F91089580E0DF91CF911F910B
:103890000F91089580918D0D882301F189810E94F7
:1038A000260F0E94320F80918D0D80938E0D81E046
:1038B0008093CD0280E0DF91CF911F910F91089509
:1038C00000918F0D80918E0D013009F18111C0CFD3
:1038D0008B810E94260F10938E0DBFCF88810E948E
:1038E000260FDFCF8B810E94260F81E080938E0D03
:1038F000B4CF811114C08D810E94260F10938E0DBC
:103900000E94320F83E08093CD0280E0B8CF811116
:1039100006C08D810E94260F00938E0DF1CF8C8101
:103920000E94260F10928E0DEBCF1F93CF93DF9343
:10393000EC011091CC02113029F1A0F1123079F094
:10394000133059F50E94840F811120C010928F0D01
:103950001092CC0281E0DF91CF911F9108950E94D7
:10396000840F811113C080918E0D81115FC08091F1
:103970008F0D813009F447C08B810E94260F109370
:10398000CC0233C00E94840F882309F11093CC022B
:1039900080E0DF91CF911F91089580E0DF91CF917A
:1039A0001F91089580918D0D882349F189810E948E
:1039B000260F0E94320F80918D0D80938E0D81E035
:1039C0008093CC0280E0DF91CF911F910895809188
:1039D0008E0D81111FC080918F0D8130A1F08B81E0
:1039E0000E94260F82E08093CC0281E080938E0DAE
:1039F0000E94320F80E0DF91CF911F91089588815E
:103A00000E94260FD6CF8D810E94260F83E08093DF
:103A1000CC02EBCF8A810E94260F10928E0D0E945D
:103A2000320F82E08093CC0280E0B3CF8A810E9483
:103A3000260F10928E0D0E94320F1093CC0280E060
:103A4000A8CF1F93CF93DF93EC011091CB021130DD
:103A500031F1A8F1123079F0133061F50E94840F32
:103A6000811121C010928F0D1092CB0281E0DF9165
:103A7000CF911F9108950E94840F811114C08091ED
:103A80008E0D813009F057C080918F0D813009F47F
:103A90005EC08A810E94260F1093CB0233C00E9421
:103AA000840F882309F11093CB0280E0DF91CF913E
:103AB0001F91089580E0DF91CF911F91089580912B
:103AC0008D0D882341F189810E94260F0E94320FBB
:103AD00080918D0D80938E0D81E08093CB0280E0EC
:103AE000DF91CF911F91089580918E0D8130B9F4AF
:103AF00080918F0D813059F18A810E94260F82E0DA
:103B00008093CB0210928E0D0E94320F80E0DF91E5
:103B1000CF911F91089588810E94260FD7CF8B8166
:103B20000E94260F10938E0D0E94320F82E0809328
:103B3000CB0280E0BBCF8B810E94260F81E0809377
:103B40008E0D0E94320F1093CB0280E0AFCF8C819C
:103B50000E94260F83E08093CB02D4CF80918E0DFC
:103B6000882319F010928E0D089581E080938E0DB8
:103B70000895681B790B683F88EF780744F0693037
:103B800087E0780714F060517E40CB010895605FB4
:103B9000714FCB010895680F791F77FD08C061311F
:103BA0008EE0780714F060517E40CB010895605F8D
:103BB000714FCB01089510928F0D10928D0D1092C0
:103BC0008E0D10928C0D10928B0D089581E08093D4
:103BD0008F0D089580938D0D089510928C0D109285
:103BE0008B0D089580918B0D90918C0D0895CF933E
:103BF000DF93C091CD02C13071F1D8F1C23071F0C4
:103C0000C33099F50E94840F811129C010928F0D45
:103C10001092CD0281E0DF91CF9108950E94840F30
:103C200081111DC0C0918F0D80918E0DC13009F49E
:103C300051C0882309F446C0809102020E94260FD9
:103C400010928E0D0E94320F82E08093CD0280E0B0
:103C5000DF91CF9108950E94840F8823F9F0C093DB
:103C6000CD0280E0DF91CF91089580E0DF91CF9188
:103C7000089580918D0D882301F1809101020E94A9
:103C8000260F0E94320F80918D0D80938E0D81E062
:103C90008093CD0280E0DF91CF910895D0918F0D78
:103CA00080918E0DD13029F18111C6CF8091030210
:103CB0000E94260FC0938E0DC5CF809100020E94F6
:103CC000260FDFCF809103020E94260F81E08093B0
:103CD0008E0DB8CF811116C0809105020E94260F6B
:103CE000C0938E0D0E94320F83E08093CD0280E05E
:103CF000B9CF811107C0809105020E94260FD09391
:103D00008E0DF0CF809104020E94260F10928E0D2E
:103D1000E9CFCF93DF93C091CD02C13071F1D8F1DB
:103D2000C23071F0C33099F50E94840F811129C00F
:103D300010928F0D1092CD0281E0DF91CF91089506
:103D40000E94840F81111DC0C0918F0D80918E0D36
:103D5000C13009F451C0882309F446C0809108029B
:103D60000E94260F10928E0D0E94320F82E08093E7
:103D7000CD0280E0DF91CF9108950E94840F8823C7
:103D8000F9F0C093CD0280E0DF91CF91089580E0FB
:103D9000DF91CF91089580918D0D882301F180915D
:103DA00007020E94260F0E94320F80918D0D809392
:103DB0008E0D81E08093CD0280E0DF91CF91089558
:103DC000D0918F0D80918E0DD13029F18111C6CF08
:103DD000809109020E94260FC0938E0DC5CF80915D
:103DE00006020E94260FDFCF809109020E94260F53
:103DF00081E080938E0DB8CF811116C080910B02A7
:103E00000E94260FC0938E0D0E94320F83E0809394
:103E1000CD0280E0B9CF811107C080910B020E94D2
:103E2000260FD0938E0DF0CF80910A020E94260FAC
:103E300010928E0DE9CFCF93C091CC02C13021F109
:103E400078F1C23069F0C33041F50E94840F8111CE
:103E50001FC010928F0D1092CC0281E0CF91089577
:103E60000E94840F811114C080918E0D81115DC05C
:103E700080918F0D813009F443C080910F020E9420
:103E8000260FC093CC022FC00E94840F8823E1F03C
:103E9000C093CC0280E0CF91089580E0CF91089547
:103EA00080918D0D882339F180910D020E94260F9B
:103EB0000E94320F80918D0D80938E0D81E0809352
:103EC000CC0280E0CF91089580918E0D811120C0A9
:103ED00080918F0D8130A1F080910F020E94260FFA
:103EE00082E08093CC0281E080938E0D0E94320F9D
:103EF00080E0CF91089580910C020E94260FD8CFC8
:103F0000809111020E94260F83E08093CC02EBCFB8
:103F100080910E020E94260F10928E0D0E94320F89
:103F200082E08093CC0280E0B6CF80910E020E94A6
:103F3000260F10928E0D0E94320FC093CC0280E0AB
:103F4000AACFCF93C091CB02C13029F180F1C2300A
:103F500069F0C33049F50E94840F811120C010928E
:103F60008F0D1092CB0281E0CF9108950E94840FB3
:103F7000811115C080918E0D813009F054C080915F
:103F80008F0D813009F45CC0809114020E94260FCD
:103F9000C093CB022FC00E94840F8823E1F0C0930E
:103FA000CB0280E0CF91089580E0CF910895809179
:103FB0008D0D882331F1809113020E94260F0E94FB
:103FC000320F80918D0D80938E0D81E08093CB0216
:103FD00080E0CF91089580918E0D8130B9F4809169
:103FE0008F0D813069F1809114020E94260F82E0CA
:103FF0008093CB0210928E0D0E94320F80E0CF9101
:104000000895809112020E94260FD9CF8091150247
:104010000E94260FC0938E0D0E94320F82E0809383
:10402000CB0280E0BFCF809115020E94260F81E075
:1040300080938E0D0E94320FC093CB0280E0B2CFEE
:10404000809116020E94260F83E08093CB02D2CF8C
:10405000CF93C091CC02C13021F178F1C23069F028
:10406000C33041F50E94840F81111FC010928F0D43
:104070001092CC0281E0CF9108950E94840F8111AB
:1040800014C080918E0D81115DC080918F0D8130A3
:1040900009F443C080911B020E94260FC093CC02FA
:1040A0002FC00E94840F8823E1F0C093CC0280E0EF
:1040B000CF91089580E0CF91089580918D0D882350
:1040C00039F1809119020E94260F0E94320F8091CF
:1040D0008D0D80938E0D81E08093CC0280E0CF9196
:1040E000089580918E0D811120C080918F0D8130B7
:1040F000A1F080911B020E94260F82E08093CC02E7
:1041000081E080938E0D0E94320F80E0CF91089560
:10411000809118020E94260FD8CF80911D020E9424
:10412000260F83E08093CC02EBCF80911A020E948D
:10413000260F10928E0D0E94320F82E08093CC02E7
:1041400080E0B6CF80911A020E94260F10928E0D49
:104150000E94320FC093CC0280E0AACFCF93C091CF
:10416000CB02C13029F180F1C23069F0C33049F58A
:104170000E94840F811120C010928F0D1092CB02EB
:1041800081E0CF9108950E94840F811115C0809124
:104190008E0D813009F054C080918F0D813009F46B
:1041A0005CC0809120020E94260FC093CB022FC0DA
:1041B0000E94840F8823E1F0C093CB0280E0CF916E
:1041C000089580E0CF91089580918D0D882331F17D
:1041D00080911F020E94260F0E94320F80918D0D48
:1041E00080938E0D81E08093CB0280E0CF91089583
:1041F00080918E0D8130B9F480918F0D813069F1FD
:10420000809120020E94260F82E08093CB021092C0
:104210008E0D0E94320F80E0CF91089580911E0292
:104220000E94260FD9CF809121020E94260FC093B1
:104230008E0D0E94320F82E08093CB0280E0BFCFD0
:10424000809121020E94260F81E080938E0D0E94B2
:10425000320FC093CB0280E0B2CF809122020E9445
:10426000260F83E08093CB02D2CFCF93C091CC02B4
:10427000C13021F178F1C23069F0C33041F50E94BC
:10428000840F81111FC010928F0D1092CC0281E01B
:10429000CF9108950E94840F811114C080918E0DDA
:1042A00081115DC080918F0D813009F443C08091F0
:1042B00027020E94260FC093CC022FC00E94840FB9
:1042C0008823E1F0C093CC0280E0CF91089580E094
:1042D000CF91089580918D0D882339F18091250229
:1042E0000E94260F0E94320F80918D0D80938E0DBB
:1042F00081E08093CC0280E0CF91089580918E0D73
:10430000811120C080918F0D8130A1F08091270212
:104310000E94260F82E08093CC0281E080938E0D74
:104320000E94320F80E0CF910895809124020E9474
:10433000260FD8CF809129020E94260F83E0809318
:10434000CC02EBCF809126020E94260F10928E0D98
:104350000E94320F82E08093CC0280E0B6CF809141
:1043600026020E94260F10928E0D0E94320FC093DB
:10437000CC0280E0AACFCF93C091CB02C13029F10B
:1043800080F1C23069F0C33049F50E94840F811179
:1043900020C010928F0D1092CB0281E0CF91089532
:1043A0000E94840F811115C080918E0D813009F01B
:1043B00054C080918F0D813009F45CC080912C0233
:1043C0000E94260FC093CB022FC00E94840F882327
:1043D000E1F0C093CB0280E0CF91089580E0CF91CF
:1043E000089580918D0D882331F180912B020E94D8
:1043F000260F0E94320F80918D0D80938E0D81E0EB
:104400008093CB0280E0CF91089580918E0D813012
:10441000B9F480918F0D813069F180912C020E9456
:10442000260F82E08093CB0210928E0D0E94320FF5
:1044300080E0CF91089580912A020E94260FD9CF63
:1044400080912D020E94260FC0938E0D0E94320F84
:1044500082E08093CB0280E0BFCF80912D020E944A
:10446000260F81E080938E0D0E94320FC093CB0205
:1044700080E0B2CF80912E020E94260F83E08093CD
:10448000CB02D2CFCF93C091CC02C13021F178F1D1
:10449000C23069F0C33041F50E94840F81111FC002
:1044A00010928F0D1092CC0281E0CF9108950E945E
:1044B000840F811114C080918E0D81115DC0809197
:1044C0008F0D813009F443C0809133020E94260F82
:1044D000C093CC022FC00E94840F8823E1F0C093C8
:1044E000CC0280E0CF91089580E0CF910895809133
:1044F0008D0D882339F1809131020E94260F0E9490
:10450000320F80918D0D80938E0D81E08093CC02CF
:1045100080E0CF91089580918E0D811120C080910F
:104520008F0D8130A1F0809133020E94260F82E02E
:104530008093CC0281E080938E0D0E94320F80E048
:10454000CF910895809130020E94260FD8CF80919C
:1045500035020E94260F83E08093CC02EBCF80913E
:1045600032020E94260F10928E0D0E94320F82E0BE
:104570008093CC0280E0B6CF809132020E94260F59
:1045800010928E0D0E94320FC093CC0280E0AACF11
:10459000CF93C091CB02C13029F180F1C23069F0D4
:1045A000C33049F50E94840F811120C010928F0DF5
:1045B0001092CB0281E0CF9108950E94840F811167
:1045C00015C080918E0D813009F054C080918F0DFF
:1045D000813009F45CC0809138020E94260FC0939C
:1045E000CB022FC00E94840F8823E1F0C093CB023E
:1045F00080E0CF91089580E0CF91089580918D0D56
:10460000882331F1809137020E94260F0E94320FD9
:1046100080918D0D80938E0D81E08093CB0280E0A0
:10462000CF91089580918E0D8130B9F480918F0DD6
:10463000813069F1809138020E94260F82E08093D8
:10464000CB0210928E0D0E94320F80E0CF91089520
:10465000809136020E94260FD9CF809139020E94A4
:10466000260FC0938E0D0E94320F82E08093CB0202
:1046700080E0BFCF809139020E94260F81E08093B5
:104680008E0D0E94320FC093CB0280E0B2CF80919A
:104690003A020E94260F83E08093CB02D2CFCF93C1
:1046A000C091CC02C13021F178F1C23069F0C33041
:1046B00041F50E94840F81111FC010928F0D10923E
:1046C000CC0281E0CF9108950E94840F811114C023
:1046D00080918E0D81115DC080918F0D813009F424
:1046E00043C080913F020E94260FC093CC022FC08E
:1046F0000E94840F8823E1F0C093CC0280E0CF9128
:10470000089580E0CF91089580918D0D882339F12F
:1047100080913D020E94260F0E94320F80918D0DE4
:1047200080938E0D81E08093CC0280E0CF9108953C
:1047300080918E0D811120C080918F0D8130A1F06C
:1047400080913F020E94260F82E08093CC0281E09C
:1047500080938E0D0E94320F80E0CF91089580915A
:104760003C020E94260FD8CF809141020E94260F62
:1047700083E08093CC02EBCF80913E020E94260F13
:1047800010928E0D0E94320F82E08093CC0280E066
:10479000B6CF80913E020E94260F10928E0D0E948D
:1047A000320FC093CC0280E0AACFCF93C091CB024E
:1047B000C13029F180F1C23069F0C33049F50E945F
:1047C000840F811120C010928F0D1092CB0281E0D6
:1047D000CF9108950E94840F811115C080918E0D94
:1047E000813009F054C080918F0D813009F45CC094
:1047F000809144020E94260FC093CB022FC00E94DA
:10480000840F8823E1F0C093CB0280E0CF9108951C
:1048100080E0CF91089580918D0D882331F18091B2
:1048200043020E94260F0E94320F80918D0D8093CB
:104830008E0D81E08093CB0280E0CF91089580912E
:104840008E0D8130B9F480918F0D813069F18091A6
:1048500044020E94260F82E08093CB0210928E0DBC
:104860000E94320F80E0CF910895809142020E9411
:10487000260FD9CF809145020E94260FC0938E0D3E
:104880000E94320F82E08093CB0280E0BFCF809104
:1048900045020E94260F81E080938E0D0E94320F08
:1048A000C093CB0280E0B2CF809146020E94260FD7
:1048B00083E08093CB02D2CFCF93C091CC02C130A2
:1048C00021F178F1C23069F0C33041F50E94840FC4
:1048D00081111FC010928F0D1092CC0281E0CF91F8
:1048E00008950E94840F811114C080918E0D811152
:1048F0005DC080918F0D813009F443C080914B02DF
:104900000E94260FC093CC022FC00E94840F8823E0
:10491000E1F0C093CC0280E0CF91089580E0CF9188
:10492000089580918D0D882339F1809149020E946C
:10493000260F0E94320F80918D0D80938E0D81E0A5
:104940008093CC0280E0CF91089580918E0D8111EB
:1049500020C080918F0D8130A1F080914B020E9488
:10496000260F82E08093CC0281E080938E0D0E941E
:10497000320F80E0CF910895809148020E94260F67
:10498000D8CF80914D020E94260F83E08093CC0205
:10499000EBCF80914A020E94260F10928E0D0E944A
:1049A000320F82E08093CC0280E0B6CF80914A0241
:1049B0000E94260F10928E0D0E94320FC093CC02DF
:1049C00080E0AACFCF93C091CB02C13029F180F112
:1049D000C23069F0C33049F50E94840F811120C0B4
:1049E00010928F0D1092CB0281E0CF9108950E941A
:1049F000840F811115C080918E0D813009F054C053
:104A000080918F0D813009F45CC0809150020E942A
:104A1000260FC093CB022FC00E94840F8823E1F0A1
:104A2000C093CB0280E0CF91089580E0CF910895AC
:104A300080918D0D882331F180914F020E94260FC5
:104A40000E94320F80918D0D80938E0D81E08093B6
:104A5000CB0280E0CF91089580918E0D8130B9F422
:104A600080918F0D813069F1809150020E94260F54
:104A700082E08093CB0210928E0D0E94320F80E074
:104A8000CF91089580914E020E94260FD9CF809138
:104A900051020E94260FC0938E0D0E94320F82E0B9
:104AA0008093CB0280E0BFCF809151020E94260FFD
:104AB00081E080938E0D0E94320FC093CB0280E084
:104AC000B2CF809152020E94260F83E08093CB02E6
:104AD000D2CFCF93DF93C091CD02C13071F1D8F125
:104AE000C23071F0C33099F50E94840F811129C042
:104AF00010928F0D1092CD0281E0DF91CF91089539
:104B00000E94840F81111DC0C0918F0D80918E0D68
:104B1000C13009F451C0882309F446C0809156027F
:104B20000E94260F10928E0D0E94320F82E0809319
:104B3000CD0280E0DF91CF9108950E94840F8823F9
:104B4000F9F0C093CD0280E0DF91CF91089580E02D
:104B5000DF91CF91089580918D0D882301F180918F
:104B600055020E94260F0E94320F80918D0D809376
:104B70008E0D81E08093CD0280E0DF91CF9108958A
:104B8000D0918F0D80918E0DD13029F18111C6CF3A
:104B9000809157020E94260FC0938E0DC5CF809141
:104BA00054020E94260FDFCF809157020E94260FE9
:104BB00081E080938E0DB8CF811116C0809159028B
:104BC0000E94260FC0938E0D0E94320F83E08093C7
:104BD000CD0280E0B9CF811107C0809159020E94B7
:104BE000260FD0938E0DF0CF809158020E94260F91
:104BF00010928E0DE9CFCF93DF93C091CD02C130DB
:104C000071F1D8F1C23071F0C33099F50E94840F70
:104C1000811129C010928F0D1092CD0281E0DF9199
:104C2000CF9108950E94840F81111DC0C0918F0DF6
:104C300080918E0DC13009F451C0882309F446C01B
:104C400080915C020E94260F10928E0D0E94320FFE
:104C500082E08093CD0280E0DF91CF9108950E94A1
:104C6000840F8823F9F0C093CD0280E0DF91CF91CB
:104C7000089580E0DF91CF91089580918D0D882374
:104C800001F180915B020E94260F0E94320F8091F9
:104C90008D0D80938E0D81E08093CD0280E0DF91B9
:104CA000CF910895D0918F0D80918E0DD13029F143
:104CB0008111C6CF80915D020E94260FC0938E0D98
:104CC000C5CF80915A020E94260FDFCF80915D02EE
:104CD0000E94260F81E080938E0DB8CF811116C0FF
:104CE00080915F020E94260FC0938E0D0E94320FAA
:104CF00083E08093CD0280E0B9CF811107C080911D
:104D00005F020E94260FD0938E0DF0CF80915E023D
:104D10000E94260F10928E0DE9CF089508950895F0
:104D2000089508950895089508951F93CF93DF93EC
:104D30001F921F92CDB7DEB7681B790B683F88EFD3
:104D400078073CF5605F714F1091CA02113059F13C
:104D5000113008F4A1C0123009F45EC0133009F01C
:104D600094C00E94840F811187C080918B0D909117
:104D70008C0D019690938C0D80938B0D10928F0D5E
:104D80001092CA0281E00F900F90DF91CF911F9196
:104D900008956930E7E07E07BCF260517E401091D3
:104DA000CA021130A9F669837A830E94840F69814F
:104DB0007A81811161C080918B0D90918C0D01964B
:104DC00090938C0D80938B0D80918F0D813009F421
:104DD000B2C0CB018D599F4F873C910508F47BC031
:104DE00080918E0D6C39FFEF7F070CF08AC088230D
:104DF00009F4C3C0813009F4F9C091E09093CA026C
:104E000081118BC081E080938E0D80E00F900F9018
:104E1000DF91CF911F91089569837A830E94840F57
:104E200069817A81811128C080918B0D90918C0DC0
:104E3000019690938C0D80938B0D80918F0D813016
:104E400009F488C0CB0177FDA0C0853691050CF42C
:104E50006DC080918E0D161617060CF04CC0811196
:104E600090C08CE60E94260F0E94320F82E0809351
:104E7000CA0280918E0DC4CF1093CA0280E00F90B9
:104E80000F90DF91CF911F91089580E00F900F90C8
:104E9000DF91CF911F91089580918D0D8823B9F0F6
:104EA00082E20E94260F0E94320F80918D0D90E0C9
:104EB00001968170992780938E0D81E08093CA02BC
:104EC00080E00F900F90DF91CF911F91089580E2C5
:104ED0000E94260FE8CF80918E0D882309F44DC0E3
:104EE00086E20E94260F0E94320F81E08093CA0260
:104EF00080918E0D85CF81115AC088E70E94260FC0
:104F0000B3CF653671050CF468C0813049F388234E
:104F100009F458C081E08093CA0210928E0D80E09F
:104F20000F900F90DF91CF911F91089581E08093B2
:104F3000CA0280E0A4CF80918E0D81112BC088E23F
:104F40000E94260F0E94320F83E08093CA02809154
:104F50008E0D56CF80918E0D16161706FCF48130FB
:104F600051F18CE60E94260F1093CA020E94320F64
:104F700080918E0D8111D1CF45CF84E20E94260F02
:104F8000B2CF8EE60E94260F6FCF88279927861B07
:104F9000970B5BCF8AE20E94260FD4CF811120C0ED
:104FA0008CE70E94260F83E08093CA02DFCF8AE756
:104FB0000E94260F59CF82E70E94260F83E080933C
:104FC000CA02D4CF82E08093CA028CE60E94260FE8
:104FD0000E94320F80918E0D13CF77FF98CF0ACFAA
:104FE0008AE70E94260F1093CA02C0CF8AE70E9468
:104FF000260F82E08093CA020E94320F80918E0DAC
:10500000FFCE1F93CF93DF931F921F92CDB7DEB7D2
:10501000681B790B683F88EF78073CF5605F714F3C
:105020001091C902113059F1113008F49EC01230AC
:1050300009F45DC0133009F091C00E94840F811102
:1050400084C080918B0D90918C0D019790938C0D65
:1050500080938B0D10928F0D1092C90281E00F90FA
:105060000F90DF91CF911F9108956930E7E07E079F
:10507000BCF260517E401091C9021130A9F66983DB
:105080007A830E94840F69817A8181115EC0809148
:105090008B0D90918C0D019790938C0D80938B0DBF
:1050A00080918F0D813009F4B0C0CB018D599F4F95
:1050B000873C910508F478C080918E0D65367105A6
:1050C0000CF488C0882309F4C2C0813009F4E7C019
:1050D00091E09093C90281118AC081E080938E0D86
:1050E00080E00F900F90DF91CF911F910895698319
:1050F0007A830E94840F69817A81811126C0809110
:105100008B0D90918C0D019790938C0D80938B0D4E
:1051100080918F0D813009F487C0CB0177FD9FC04E
:10512000853691050CF46CC080918E0D77FD4CC0D6
:10513000811191C080E90E94260F0E94320F82E007
:105140008093C90280918E0DC6CF1093C90280E072
:105150000F900F90DF91CF911F91089580E00F90F5
:105160000F90DF91CF911F91089580918D0D88232D
:10517000B9F08EE20E94260F0E94320F80918D0DB1
:1051800090E001968170992780938E0D81E0809345
:10519000C90280E00F900F90DF91CF911F91089589
:1051A0008CE20E94260FE8CF80918E0D882309F4AF
:1051B0004EC082E30E94260F0E94320F81E080934E
:1051C000C90280918E0D87CF811160C084E80E9452
:1051D000260FB3CF6C39FFEF7F070CF05BC0813037
:1051E00041F3882309F46DC081E08093C9021092D5
:1051F0008E0D80E00F900F90DF91CF911F91089559
:1052000081E08093C90280E0A3CF80918E0D81114F
:105210002BC084E30E94260F0E94320F83E080930C
:10522000C90280918E0D57CF80918E0D77FD26C0DB
:1052300081111EC084E90E94260F83E08093C90279
:105240000E94320F80918E0D8111D1CF46CF80E325
:105250000E94260FB1CF82E90E94260F6ECF8827C9
:105260009927861B970B5CCF86E30E94260FD4CF2D
:1052700082E90E94260F1093C902E2CF8130D1F05B
:1052800084E80E94260F1093C902DACF86E80E94B4
:10529000260F53CF161617060CF417CFA2CF82E9AC
:1052A0000E94260F82E08093C9020E94320F8091F3
:1052B0008E0D11CF8AE80E94260F83E08093C902E9
:1052C000BFCF82E08093C90284E80E94260F0E942B
:1052D000320F80918E0DFFCECF93DF93D82FC091E8
:1052E000C802C13019F180F0C23021F080E0DF91B6
:1052F000CF9108950E946E0C811129C0C093C802FD
:1053000080E0DF91CF9108950E94840F81111BC02E
:10531000D13019F18CE10E94260F0E94320F81E0FA
:105320008093C80280E0DF91CF9108950E94840F9E
:105330008111E4CF82E08093C80288EE93E00E945E
:10534000420C80E0D4CF1092C80280E0D0CF0E94FF
:1053500032191092C80281E0CACF8BE10E94260F59
:10536000DCCFCF93C82F4091C70250E048305105A1
:1053700030F080E0C1111092C702CF910895FA0178
:10538000EA59FE4F0C94F6480E94840F882309F4D2
:1053900056C086E08093C70280E0ECCF0E94840F65
:1053A000882309F448C087E08093C70280E0E2CFF9
:1053B0000E94840F8823A9F10E94800F81E08093CE
:1053C000C70280E0D7CF0E94840F882351F181E08B
:1053D0008093C70280E0CECF0E94840F882309F417
:1053E00056C082E08093C70280E0C4CF0E946E0C5A
:1053F000811143C083E08093C70280E0BBCF0E944D
:10540000840F882381F184E08093C70280E0B2CFCB
:105410000E94840F8823E9F085E08093C70280E032
:10542000A9CF83EE0E94260F0E94320F82E0809364
:10543000C70280E09FCF1092C70281E09BCF8FE12F
:105440000E94260F0E94320F87E08093C70280E0FF
:1054500091CF82EE0E94260F0E94320F86E0809349
:10546000C70280E087CF81EE0E94260F0E94320F94
:1054700085E08093C70280E07DCF80EE0E94260FFA
:105480000E94320F84E08093C70280E073CF8CEDDE
:1054900095E00E94420C83E08093C70280E06ACFCF
:1054A000CF93C091C602C23009F441C068F0C43045
:1054B000C1F098F1C53019F50E94840F81110CC01C
:1054C0001092C60281E00BC0CC23E1F0C130B9F4E8
:1054D0000E94840F8823C9F1C093C60280E0CF9157
:1054E00008950E94840F8111F7CF8FE10E94260F4B
:1054F0000E94320F85E08093C60280E0F0CF80E00A
:10550000CF9108950E94840F8823F9F00E94800FA4
:1055100081E08093C60280E0E2CF0E94840F88235E
:10552000F9F083E08093C60280E0CF9108950E9455
:10553000840F8111D1CF85EE0E94260F0E94320F79
:1055400083E08093C60280E0CACF84EE0E94260FDB
:105550000E94320F82E08093C60280E0CF910895CE
:1055600086EE0E94260F0E94320F84E08093C602CE
:1055700080E0B5CF1F93CF93DF93EB01C81BD90B0E
:10558000C83F88EFD8079CF5C05FD14F1091C50286
:105590001230B9F1133008F04DC0112309F472C074
:1055A000113009F061C00E94840F811184C0809184
:1055B0008F0D813009F49FC0C953DF4FCF38D140E0
:1055C00008F488C080918E0D813009F4A2C084E572
:1055D0000E94260F0E94320F1093C50280918E0DFB
:1055E000811185C081E080938E0D80E03EC0C9307E
:1055F00097E0D9075CF2C051DE401091C50212302D
:1056000049F60E94840F882309F460C01093C502F4
:10561000D7FD21C08CE092E00E94951C811129C029
:10562000C436D1050CF591E090938F0DDF91CF91A9
:105630001F910895133061F31430B1F40E94840F68
:10564000811139C010928F0D1092C50281E0DF9157
:10565000CF911F91089582E192E00E94211D811156
:1056600008C0CD39DF4FFCF680E0DF91CF911F916C
:1056700008951092C50210928F0D80E0DF91CF91B6
:105680001F91089580918D0D81111CC080E50E94AD
:10569000260F0E94320F80918D0D90E0019681704F
:1056A000992780938E0D81E08093C50280E0DF9181
:1056B000CF911F9108951093C50280E0DF91CF91A3
:1056C0001F91089582E50E94260FE3CF83E0809327
:1056D000C5029ECF80918E0D811117C084E50E9476
:1056E000260F0E94320F81E08093C50277CF10927F
:1056F0008E0D80E0BACF80918E0D813099F084E5D7
:105700000E94260F0E94320F69CF86E50E94260F65
:10571000E8CF8AE50E94260F0E94320F82E0809334
:10572000C5025CCF8AE50E94260F84E08093C50203
:10573000E9CF1F93CF93DF93EB01C81BD90BC83F71
:1057400088EFD8079CF5C05FD14F1091C40212308A
:10575000B9F1133008F04DC0112309F472C01130B3
:1057600009F061C00E94840F811184C080918F0D67
:10577000813009F49FC0C953DF4FCF38D14008F4BE
:1057800088C080918E0D8111A2C084E60E94260FF0
:105790000E94320F82E08093C40280918E0D8111AD
:1057A00085C081E080938E0D80E03EC0C93097E0D7
:1057B000D9075CF2C051DE401091C402123049F6A4
:1057C0000E94840F882309F460C01093C402D7FD9F
:1057D00021C08CE092E00E94951C811129C0C43642
:1057E000D1050CF591E090938F0DDF91CF911F9132
:1057F0000895133061F31430B1F40E94840F8111C5
:1058000039C010928F0D1092C40281E0DF91CF91C8
:105810001F91089582E192E00E94211D811108C02C
:10582000CD39DF4FFCF680E0DF91CF911F910895D5
:105830001092C40210928F0D80E0DF91CF911F91E2
:10584000089580918D0D81111CC08CE50E94260F5A
:105850000E94320F80918D0D90E001968170992702
:1058600080938E0D81E08093C40280E0DF91CF9120
:105870001F9108951093C40280E0DF91CF911F9192
:1058800008958EE50E94260FE3CF83E08093C40243
:105890009ECF80918E0D811122C080E60E94260F3E
:1058A0000E94320F81E08093C40277CF10928E0D58
:1058B00080E0BACF80918E0D811115C084E60E94E0
:1058C000260F84E08093C4020E94320F66CF82E6E6
:1058D0000E94260F0E94320F1093C4025ECF82E610
:1058E0000E94260FDDCF82E60E94260FEDCF1F9388
:1058F000CF93DF93EC018091C302823009F483C01F
:1059000028F5882309F457C0813061F5C091BF02A2
:10591000D091C0020E945F3A9E01281B390BC90139
:10592000883F38EF93070CF08FC0805F914F97FD51
:10593000BFC0853691050CF08FC084E08093C30210
:1059400010E0812FDF91CF911F910895833081F076
:10595000843041F41092C30211E0812FDF91CF9186
:105960001F91089510E0812FDF91CF911F9108952D
:1059700082E192E00E94211D182F8111DECFC0919B
:10598000BF02D091C0020E945F3A9E01281B390BD2
:10599000283F88EF38070CF47EC0293087E03807AD
:1059A00014F020513E40243631050CF47AC083E0D7
:1059B0008093C302C6CF0E945F3A9093C202809345
:1059C000C1029E01220F331FCC0FDD1FCC0FDD1F44
:1059D000CC0FDD1F2C0F3D1F280F391F37FD65C071
:1059E00021318EE0380714F020513E403093C00240
:1059F0002093BF0281E08093C30210E0812FDF91EA
:105A0000CF911F9108958CE092E00E94951C182F71
:105A1000811193CFC091BF02D091C0020E945F3A22
:105A20009E01281B390B283F88EF38078CF129305D
:105A300087E0380714F020513E402D393F4F8CF558
:105A400082E08093C3027DCF893027E092070CF477
:105A50006ECF80519E406BCFC091BF02D091C002EB
:105A60000E945F3A9E01281B390BC901883F38EF1D
:105A70009307A4F0893027E0920714F080519E40EC
:105A800085369105CCF083E08093C30210E059CFB6
:105A9000205F314FD2CF205F314F85CF805F914F54
:105AA000EFCF81E080938F0D4CCF205F314F9ECFA1
:105AB0009195819591093DCFC091BF02D091C002CF
:105AC0000E945F3A9E01281B390BC901883F38EFBD
:105AD00093075CF4805F914F8C399F4F0CF042CF5D
