:100000000C94E8010C9409020C9409020C94090266
:100010000C9409020C9409020C9409020C94090234
:100020000C9409020C9409020C9409020C94090224
:100030000C9409020C9409020C9409020C94090214
:100040000C9409020C9409020C9409020C94090204
:100050000C9409020C9409020C9409020C940902F4
:100060000C9409020C94E9400C9409020C94A640EB
:100070000C9409020C9409020C9409020C940902D4
:100080000C9409020C9409020C9409020C940902C4
:100090000C9451450C9409020C9480450C9409026F
:1000A0000C9409020C9409020C9409020C940902A4
:1000B0000C9409020C9409020C9409020C94090294
:1000C0000C9409020C9409020C9409023D03570395
:1000D0005D039B03DF03080424045F044B04530403
:1000E000B905BB05B805BD05B805B805B805BF0518
:1000F000B805B805B805B805B805B805B805C1050F
:10010000B805B805B805B805B805B805B805B80507
:10011000B805B805B805B805B805B805B805C305EC
:10012000B805B805B805B805B805B805B805B805E7
:10013000B805B805B805B805B805B805B805B805D7
:10014000B805B805B805B805B805B805B805B805C7
:10015000B805B805B805B805B805B805B805B705B8
:10016000D105D305D005D505D005D005D005D705D7
:10017000D005D005D005D005D005D005D005D905CE
:10018000D005D005D005D005D005D005D005D005C7
:10019000D005D005D005D005D005D005D005DB05AC
:1001A000D005D005D005D005D005D005D005D005A7
:1001B000D005D005D005D005D005D005D005D00597
:1001C000D005D005D005D005D005D005D005D00587
:1001D000D005D005D005D005D005D005D005CF0578
:1001E000EC05F105EB05F605EB05EB05EB05FB056D
:1001F000EB05EB05EB05EB05EB05EB05EB05000669
:10020000EB05EB05EB05EB05EB05EB05EB05EB056E
:10021000EB05EB05EB05EB05EB05EB05EB05050643
:10022000EB05EB05EB05EB05EB05EB05EB05EB054E
:10023000EB05EB05EB05EB05EB05EB05EB05EB053E
:10024000EB05EB05EB05EB05EB05EB05EB05EB052E
:10025000EB05EB05EB05EB05EB05EB05EB05E70522
:1002600016061606100616061006100610061F06BD
:1002700010061006100610061006100610062406BA
:1002800010061006100610061006100610061006BE
:1002900010061006100610061006100610061906A5
:1002A000100610061006100610061006100610069E
:1002B000100610061006100610061006100610068E
:1002C000100610061006100610061006100610067E
:1002D00010061006100610061006100610062C0652
:1002E0001F2C2A2C332C3D2C462C4F2C0B2C152C40
:1002F0006364696E6F70737578585B000C940506C3
:100300000C94D1050C94BD050C94D0050C941606E4
:100310000C942C060C940B2C0C94332C0C945F0432
:100320000C94E7050C942A2C0C943D2C0C94084555
:100330000C94D9050C945D030C94D3050C94EB0537
:100340000C94B8050C94E6440C944F2C0C94570371
:100350000C94DB050C94FB050C94CF050C94462CF7
:100360000C94134A0C94C3050C941F2C0C94F105A7
:100370000C94B7050C94BF050C94F6050C9410066C
:100380000C94C1050C94DF030C94D7050C94530412
:100390000C941F060C94EC050C94B9050C949B036B
:1003A0000C9424060C94152C0C9462210C940006D9
:1003B0000C943D030C9419060C94D5050C94BB05C4
:1003C0000C944B040C94E8210C9424040C94080421
:1003D00011241FBECFEFD1E2DEBFCDBF00E00CBFC6
:1003E00012E0A0E0B2E0E6E6FBEA00E00BBF02C0EC
:1003F00007900D92A43CB107D9F712E1A4ECB2E04A
:1004000001C01D92A134B107E1F70E9468490C9424
:10041000B1550C940000681B790B683F88EF780792
:100420001CF4605F714F06C0693087E0780714F0F4
:1004300060517E40CB01089581312FEF920714F077
:10044000805F91090895CF93DF93EC010E94633D93
:1004500081312FEF920714F0805F91098C1B9D0B67
:10046000893027E092071CF080519E4006C0883FEB
:1004700028EF920714F4805F914F6AE070E00E94C9
:10048000B849CB01DF91CF910895680F791F77FFAD
:1004900003C0605F714F06C061318EE0780714F0D1
:1004A00060517E40CB010895CF93DF93EC018091A2
:1004B000CB02823009F482C028F4882369F08130AD
:1004C00029F197C0833009F45EC0843009F091C0EF
:1004D0001092CB0281E08EC00E94633D81312FEFEC
:1004E000920714F0805F91099093CA028093C90229
:1004F0002AE02C9FB0012D9F700D11240E9445020F
:100500009093C8028093C70281E071C0C091C70276
:10051000D091C8020E94633D81312FEF920714F001
:10052000805F9109BE010E940B0297FF03C0919565
:1005300081959109853691050CF444C0C091C7029C
:10054000D091C8020E94633D81312FEF920714F0D1
:10055000805F9109BE010E940B028536910564F50A
:10056000C091C702D091C8020E94633D81312FEF34
:10057000920714F0805F9109BE010E940B028C3932
:100580009F4FBCF533C00E94E82181111BC0C09170
:10059000C702D091C8020E94633D81312FEF9207BC
:1005A00014F0805F9109BE010E940B028436910510
:1005B0001CF40E942D201DC083E019C00E946221FE
:1005C000882311F084E013C0C091C702D091C80203
:1005D0000E94633D81312FEF920714F0805F9109F3
:1005E000BE010E940B028D399F4F1CF782E0809361
:1005F000CB0280E0DF91CF91089560E071EE80E062
:1006000090E00E94C1450E945E1B0E947C1B0E94DC
:100610003A1E84E690E00E94670E0E9422200E940B
:10062000DE380E94E93C80E10E94380681110E9478
:100630004F3D0E942F3D813051F02FEF81EE94E02D
:10064000215080409040E1F700C00000F2CF86E0EA
:100650008093ED0284E08093E90287E08093E602D4
:1006600008958091C60290E08A30910508F035C166
:10067000FC01EA59FF4F0C943D4B81E00E946D064E
:10068000882391F00E94633D81312FEF920714F08F
:10069000805F91099093EC028093EB028FE10E94BE
:1006A0006D110E94791114C11092C60208950E9422
:1006B000CB11882309F47FC00BC18091ED020E9409
:1006C000753980359105A8F40E942D200E94633D64
:1006D00081312FEF920714F0805F9109BC01809166
:1006E000EB029091EC020E94012D813009F063C071
:1006F0003CC08091E9020E9475398B3F910518F04A
:100700000E942D2005C080E20E946D068111F8CF65
:100710000E94633D81312FEF920714F0805F9109B1
:10072000BC018091EB029091EC020E94012D81307E
:1007300009F041C042C08091ED020E9475398035B8
:100740009105C8F40E942D200E94633D81312FEF56
:10075000920714F0805F9109BC018091EB029091A7
:10076000EC020E94E02D813041F584E08093C602C6
:1007700084EF91E08CC08091E6020E9475398B3F36
:10078000910518F00E942D2005C080E20E946D06A0
:100790008111F8CF0E94633D81312FEF920714F051
:1007A000805F9109BC018091EB029091EC020E9464
:1007B000E02D813011F482E08EC083E08CC0809106
:1007C000ED020E9475398F35914010F00E942D2066
:1007D0000E943E208130B1F18091EB029091EC02B9
:1007E0000E94230245972CF084E08093EA0288E07F
:1007F00072C08091EB029091EC020E9423028C3E29
:100800009F4F0CF04CC084E08093EA0289E063C003
:1008100084EB90E00E9454028130A1F484EF91E0D7
:100820000E94670E86E08093C60268E077E08091C0
:10083000EB029091EC020E9445029093EC028093AF
:10084000EB02089585E047C00E94AC0E882309F1B1
:100850008091ED020E9475398F35914010F00E9411
:100860002D200E94633D81312FEF920714F0805FAD
:100870009109BC018091EB029091EC020E94DC286E
:10088000813041F186E08093C60281E090E00C94D3
:10089000670E86E020C00E943E20813011F484E083
:1008A0001AC088E008C00E943E20813019F40E94DE
:1008B0003E2011C089E08093C6020C942D208EEB5F
:1008C00092E00E94424E80E10E946D06882311F062
:1008D00081E001C087E08093C60208950E947605FA
:1008E0000E942F060E943F090E940B0D0C94350EAA
:1008F000649974C081E08093020390910503992369
:1009000009F4B5C010920603659952C081E0809346
:10091000FD0290910003992309F498C010920103FD
:10092000669932C081E08093F3029091F602992398
:1009300009F47BC01092F7026799AAC081E0809306
:10094000EE029091F102992309F45EC01092F20236
:10095000489912C091E09093F8028091FB028111B6
:1009600010C08091FC028F5F8093FC028091FC029A
:10097000843109F4B4C008958091FB02813009F4F8
:100980009DC01092FC0208958091F602813091F68C
:100990009091F7029F5F9093F7029091F702943144
:1009A00059F68093F5021092F6021092F702C4CF26
:1009B00080910003813009F0B1CF909101039F5FD6
:1009C0009093010390910103943109F0A9CF809392
:1009D000FF021092000310920103A2CF8091050341
:1009E000813009F08FCF909106039F5F90930603AB
:1009F00090910603943109F087CF809304031092FD
:100A000005031092060380CF9091F2029F5F9093AE
:100A1000F2029091F202943109F09ACF8093EF02A2
:100A20008093F1021092F20293CF9091F7029F5FB0
:100A30009093F7029091F702943109F07DCF809363
:100A4000F4028093F6021092F70276CF90910103A0
:100A50009F5F9093010390910103943109F060CF5F
:100A60008093FE02809300031092010359CF90916E
:100A700006039F5F9093060390910603943109F05B
:100A800043CF8093030380930503109206033CCF6A
:100A90008091F102813009F059CF9091F2029F5F6D
:100AA0009093F2029091F202943109F051CF809329
:100AB000F0021092F1021092F2024ACF9091FC02E1
:100AC0009F5F9093FC029091FC02943109F053CF08
:100AD0008093FA021092FB021092FC020895909308
:100AE000F9029093FB021092FC0208958FE787B9F8
:100AF0008EE788B910920203109203031092040348
:100B000010920503109206031092FD021092FE024D
:100B10001092FF0210920003109201031092F30250
:100B20001092F4021092F5021092F6021092F7025F
:100B30001092EE021092EF021092F0021092F10267
:100B40001092F2021092F8021092F9021092FA0238
:100B50001092FB021092FC02089590E0FC01319784
:100B6000E034F10528F4E059FF4F0C943D4B4698D2
:100B7000089540980895419808954298089543989B
:100B80000895449808954598089590E0FC013197A0
:100B9000E034F10528F4E055FF4F0C943D4B469AA4
:100BA0000895409A0895419A0895429A0895439A63
:100BB0000895449A0895459A089590E0FC0131976C
:100BC000E034F10540F4E051FF4F0C943D4B88B107
:100BD00090E4892788B9089588B191E0892788B978
:100BE000089588B192E0892788B9089588B194E082
:100BF000892788B9089588B198E0892788B9089528
:100C000088B190E1892788B9089588B190E2892751
:100C100088B9089590E0FC013197E034F10510F0B7
:100C200080E00895E05DFE4F0C943D4B86B180E07E
:100C3000089586B1807290E095958795089586B164
:100C400083FB882780F9089586B1807190E095959F
:100C5000879595958795089586B1807408955098E5
:100C6000589A8DB18F708DB98EB1806F8EB90895FD
:100C7000803259F160F4813001F18031A1F480912A
:100C80000203882381F01092020381E008958034EA
:100C900061F0803841F48091EE02882321F01092B7
:100CA000EE0281E0089580E008958091F3028823A8
:100CB000D1F31092F30281E008958091F802882325
:100CC00091F31092F80281E008958091FD0288234B
:100CD00051F31092FD0281E00895803259F160F4E1
:100CE000813001F18031A1F480910303882381F0E8
:100CF0001092030381E00895803461F0803841F45C
:100D00008091EF02882321F01092EF0281E0089594
:100D100080E008958091F4028823D1F31092F402C8
:100D200081E008958091F902882391F31092F902ED
:100D300081E008958091FE02882351F31092FE0213
:100D400081E00895803259F160F4813001F1803101
:100D5000A1F480910403882381F01092040381E0C0
:100D60000895803461F0803841F48091F002882346
:100D700021F01092F00281E0089580E008958091C2
:100D8000F5028823D1F31092F50281E00895809155
:100D9000FA02882391F31092FA0281E0089580917B
:100DA000FF02882351F31092FF0281E00895909191
:100DB0007C00987F90937C0020917C00982F977006
:100DC000922B90937C00882359F0815020E830E0EA
:100DD00002C0359527958A95E2F7209522B90895A6
:100DE00082B18C6F82B90895CF92DF92EF92FF9219
:100DF000CF93DF93CDB7DEB72E970FB6F894DEBF53
:100E00000FBECDBF8EE0E0EBF2E0DE011196019067
:100E10000D928A95E1F789819A819C01220F331FF7
:100E2000220F331F220F331F281B390B40E050E0E5
:100E3000C12CB4ECDB2EB9E0EB2EF12CC701B601CE
:100E40000E94CC49215031092F3F310509F008F4A7
:100E50009BC08B819C819C01220F331F220F331F6B
:100E6000220F331F281B390B40E050E0C701B601A9
:100E70000E94CC49215031092F3F310509F008F477
:100E80008AC08D819E819C01220F331F220F331F48
:100E9000220F331F281B390B40E050E0C701B60179
:100EA0000E94CC49215031092F3F310509F008F447
:100EB00074C08F8198859C01220F331F220F331F2E
:100EC000220F331F281B390B40E050E0C701B60149
:100ED0000E94CC49215031092F3F310509F008F417
:100EE0005EC089859A859C01220F331F220F331F14
:100EF000220F331F281B390B40E050E0C701B60119
:100F00000E94CC49215031092F3F310509F008F4E6
:100F100048C08B859C859C01220F331F220F331FF5
:100F2000220F331F281B390B40E050E0C701B601E8
:100F30000E94CC49215031092F3F3105A1F198F190
:100F40008D859E859C01220F331F220F331F220F98
:100F5000331F281B390B40E050E0C701B6010E9447
:100F6000CC49215031092F3F3105F9F0F0F02E9690
:100F70000FB6F894DEBF0FBECDBFDF91CF91FF90CB
:100F8000EF90DF90CF90089580E02093B3008F5FC3
:100F90008093B100ECCF81E0F8CF82E0F6CF83E020
:100FA000F4CF84E0F2CF85E0F0CF86E0EECFEAE741
:100FB000F0E0808180648083089580917A0082953A
:100FC0008170089587B3869581700895B99B0895BF
:100FD00087B3876087BB1092B2009091F70380912E
:100FE0007C00887F80937C0020917C00892F877013
:100FF000822B80937C00992309F420C12FEF290FC5
:1010000080E890E002C0959587952A95E2F7809553
:1010100082B920E42A95F1F780917A008064809368
:101020007A0080917A0084FFFCCF80917A00806101
:1010300080937A008091780090917900E091F70395
:10104000F0E0EE0FFF1FE850FC4F91838083E091AA
:10105000F7032091080330E1E39FF0011124E20F30
:10106000F11DEE0FFF1FE95EFC4F91838083E0913D
:10107000F70380E2E89FF0011124E95EFC4F8081D4
:101080009181E091F70320E2E29FF0011124E95EF3
:10109000FC4F22813381820F931FE091F70330E2EE
:1010A000E39FF0011124E95EFC4F24813581820F1A
:1010B000931FE091F70320E2E29FF0011124E95E23
:1010C000FC4F26813781820F931FE091F70330E2B6
:1010D000E39FF0011124E95EFC4F20853185820FEA
:1010E000931FE091F70320E2E29FF0011124E95EF3
:1010F000FC4F22853385820F931FE091F70330E286
:10110000E39FF0011124E95EFC4F24853585820FB1
:10111000931FE091F70320E2E29FF0011124E95EC2
:10112000FC4F26853785820F931FE091F70330E24D
:10113000E39FF0011124E95EFC4F20893189820F81
:10114000931FE091F70320E2E29FF0011124E95E92
:10115000FC4F22893389820F931FE091F70330E21D
:10116000E39FF0011124E95EFC4F24893589820F49
:10117000931FE091F70320E2E29FF0011124E95E62
:10118000FC4F26893789820F931FE091F70330E2E5
:10119000E39FF0011124E95EFC4F208D318D820F19
:1011A000931FE091F70320E2E29FF0011124E95E32
:1011B000FC4F228D338D820F931FE091F70330E2B5
:1011C000E39FF0011124E95EFC4F248D358D820FE1
:1011D000931FE091F70320E2E29FF0011124E95E02
:1011E000FC4F268D378D820F931F929582958F70BD
:1011F00089279F708927E091F703F0E0EE0FFF1F2A
:10120000E75FFC4F918380832091F7032630D1F074
:101210002091F703211107C0209107032130E1F04D
:101220008E3A914008F18091F70390E0019667E0D3
:1012300070E00E94B8498093F703089582B18C6FE3
:1012400082B9E7CE2091080330E02F5F3F4F2F7027
:10125000332720930803DCCF863D914020F30E9482
:10126000BB0C10920703DFCF4EE150E06EE170E05F
:1012700085E00E94C80C81E080930703D4CFCF9211
:10128000DF92EF92FF92CF93DF93CDB7DEB72E9729
:101290000FB6F894DEBF0FBECDBF87E880937A000B
:1012A00010927B0010927C0010927E0010927D00C4
:1012B0008CEF81B982B986E692E09093F90380932E
:1012C000F80390930A038093090390931803809383
:1012D000170390931A038093190390931C03809330
:1012E0001B0390931E0380931D0390932003809310
:1012F0001F039093220380932103909324038093F0
:1013000023039093260380932503909328038093CF
:10131000270390932A038093290390932C038093AF
:101320002B0390932E0380932D039093300380938F
:101330002F0390933203809331039093340380936F
:10134000330390933603809335039093FB0380938C
:10135000FA0390930C0380930B03909338038093CC
:10136000370390933A038093390390933C0380931F
:101370003B0390933E0380933D03909340038093FF
:101380003F039093420380934103909344038093DF
:1013900043039093460380934503909348038093BF
:1013A000470390934A038093490390934C0380939F
:1013B0004B0390934E0380934D039093500380937F
:1013C0004F0390935203809351039093540380935F
:1013D000530390935603809355039093FD0380939A
:1013E000FC0390930E0380930D0390935803809316
:1013F000570390935A038093590390935C0380930F
:101400005B0390935E0380935D03909360038093EE
:101410005F039093620380936103909364038093CE
:1014200063039093660380936503909368038093AE
:10143000670390936A038093690390936C0380938E
:101440006B0390936E0380936D039093700380936E
:101450006F0390937203809371039093740380934E
:10146000730390937603809375039093FF038093A7
:10147000FE039093100380930F039093780380935F
:10148000770390937A038093790390937C038093FE
:101490007B0390937E0380937D03909380038093DE
:1014A0007F039093820380938103909384038093BE
:1014B000830390938603809385039093880380939E
:1014C000870390938A038093890390938C0380937E
:1014D0008B0390938E0380938D039093900380935E
:1014E0008F0390939203809391039093940380933E
:1014F00093039093960380939503909301048093B4
:1015000000049093120380931103909398038093A7
:10151000970390939A038093990390939C038093ED
:101520009B0390939E0380939D039093A0038093CD
:101530009F039093A2038093A1039093A4038093AD
:10154000A3039093A6038093A5039093A80380938D
:10155000A7039093AA038093A9039093AC0380936D
:10156000AB039093AE038093AD039093B00380934D
:10157000AF039093B2038093B1039093B40380932D
:10158000B3039093B6038093B503909303048093C1
:10159000020490931403809313039093B8038093F1
:1015A000B7039093BA038093B9039093BC038093DD
:1015B000BB039093BE038093BD039093C0038093BD
:1015C000BF039093C2038093C1039093C40380939D
:1015D000C3039093C6038093C5039093C80380937D
:1015E000C7039093CA038093C9039093CC0380935D
:1015F000CB039093CE038093CD039093D00380933D
:10160000CF039093D2038093D1039093D40380931C
:10161000D3039093D6038093D503909305048093CE
:10162000040490931603809315039093D80380933A
:10163000D7039093DA038093D9039093DC038093CC
:10164000DB039093DE038093DD039093E0038093AC
:10165000DF039093E2038093E1039093E40380938C
:10166000E3039093E6038093E5039093E80380936C
:10167000E7039093EA038093E9039093EC0380934C
:10168000EB039093EE038093ED039093F00380932C
:10169000EF039093F2038093F1039093F40380930C
:1016A000F3039093F6038093F5031092F7031092DF
:1016B00008031092070382E08093B0001092B200FA
:1016C0001092700087E087BB8EE0E0EBF2E0DE0175
:1016D000119601900D928A95E1F789819A819C017A
:1016E000220F331F220F331F220F331F281B390BEA
:1016F00040E050E0C12C64ECD62E69E0E62EF12CDF
:10170000C701B6010E94CC49215031092F3F310554
:1017100009F008F49BC08B819C819C01220F331F30
:10172000220F331F220F331F281B390B40E050E0DC
:10173000C701B6010E94CC49215031092F3F310524
:1017400009F008F48AC08D819E819C01220F331F0D
:10175000220F331F220F331F281B390B40E050E0AC
:10176000C701B6010E94CC49215031092F3F3105F4
:1017700009F008F474C08F8198859C01220F331FF3
:10178000220F331F220F331F281B390B40E050E07C
:10179000C701B6010E94CC49215031092F3F3105C4
:1017A00009F008F464C089859A859C01220F331FD3
:1017B000220F331F220F331F281B390B40E050E04C
:1017C000C701B6010E94CC49215031092F3F310594
:1017D00009F008F44AC08B859C859C01220F331FB9
:1017E000220F331F220F331F281B390B40E050E01C
:1017F000C701B6010E94CC49215031092F3F310564
:1018000091F188F18D859E859C01220F331F220F57
:10181000331F220F331F281B390B40E050E0C70154
:10182000B6010E94CC49215031092F3F3105C9F042
:10183000C0F02E960FB6F894DEBF0FBECDBFDF917D
:10184000CF91FF90EF90DF90CF90089580E02093AC
:10185000B3008F5F8093B100ECCF81E0F8CF82E0DE
:10186000F6CF86E0F4CF85E0F2CF84E0F0CF83E0DE
:10187000EECFE82FF0E0EE0FFF1FE850FC4F808125
:1018800091810895E82FF0E0EE0FFF1FE75FFC4F16
:10189000808191810895C19B11C0C19A10929500D9
:1018A000109294008091D002811109C080910D04A2
:1018B000813081F080910604813061F0089580913B
:1018C0000D04813019F1809106048130F9F01092F5
:1018D000D002089581E08093D00280910704909116
:1018E000080401979093CF028093CE0220910904BF
:1018F00030910A043093CD022093CC02892BF1F66B
:10190000809180008F738093800008958091CE0233
:101910009091CF02009741F001979093CF0280936E
:10192000CE02892B59F6ECCF8091CC029091CD025A
:10193000009731F001979093CD028093CC020895E7
:10194000809180008F7B80938000809180008068F0
:101950008093800080910704909108049093CF02B7
:101960008093CE028091090490910A049093CD0255
:101970008093CC02089580910604813009F0089587
:10198000809180008F7380938000109206040895E8
:1019900090910604992359F19130A9F11092870092
:1019A00090E0FC01E25FFB4F2081209386001092C3
:1019B0008900208126952093880070930804609305
:1019C000070450930A044093090490930C048093F5
:1019D0000B04809180008F7B809380008091800039
:1019E00080688093800081E0809306040895909140
:1019F0000D04913099F6909180009F739093800030
:101A000010920D04CBCF909180009F739093800033
:101A100010920604C3CF259A2D9810926F009FE272
:101A200096BB1092850010928400E0E8F0E01082EE
:101A300080818E7F8083808182608083E1E8F0E016
:101A40001082808188608083808180618083109291
:101A50008900109288008081887F808380818560E2
:101A600080831092710098BB1092950010929400A0
:101A7000E0E9F0E0108280818E7F808380818D7F1D
:101A80008083E1E9F0E0108280818860808380813A
:101A90008F7E808398E1909399008AE680939800E6
:101AA0008081887F80838081846080838DE18093C2
:101AB0000E048AE180930F049093100486E18093D2
:101AC000110484E18093120482E18093130480E185
:101AD0008093140410920D041092060481E090E0AB
:101AE000909308048093070490930A048093090458
:101AF00010920C0410920B04089590910604911119
:101B00002CC090910D04911128C01092870090E094
:101B1000FC01E25FFB4F2081209386001092890038
:101B2000208126952093880090930C0480930B04C9
:101B3000709308046093070450930A0440930904C7
:101B4000809180008F7B80938000809180008068EE
:101B50008093800081E080930D04089590910604A5
:101B6000911104C090910D04913009F008951092E4
:101B7000870090E0FC01E25FFB4F2081209386000C
:101B800010928900208126952093880090930C0460
:101B900080930B04089520910604211104C0209124
:101BA0000D04213009F008959093080480930704F0
:101BB000089520910604211104C020910D042130C4
:101BC00009F0089590930A04809309040895809180
:101BD0000604811104C080910D04813009F008953C
:101BE000809180008F738093800010920D0408957F
:101BF00080910D040895809106040895D19B19C029
:101C0000D19A109225011092240140911B048091D9
:101C1000D1029091D202413069F0209115043091A7
:101C2000160482179307C9F001969093D20280930D
:101C3000D102089520911804309119048217930756
:101C400099F71092D2021092D1024093170480911A
:101C50002101887F8093210108951092D202109271
:101C6000D10281E080931A040895109273008FE2EC
:101C70008ABB1092250110922401E0E2F1E010826B
:101C800080818E7F808380818D7F8083E1E2F1E09F
:101C9000108280818860808380818F7E808388E14C
:101CA000809329018AE6809328018081887F808340
:101CB00010921B041092190410921804109216042A
:101CC000109215041092170410921A04089510929D
:101CD0001B049C013695279536952795ABE7B4E113
:101CE0000E949749969587959093160480931504C2
:101CF00010921A0410922501109224018FE28ABBDF
:101D0000E1E2F1E08081887F80838081846080834C
:101D1000089521E020931B049C0136952795369564
:101D20002795ABE7B4E10E949749969587959093E4
:101D30001904809318041092170410922501109230
:101D400024018FE28ABBE1E2F1E08081887F808319
:101D5000808184608083089580911A04813011F01D
:101D600080E0089510921A0408958091170481303C
:101D700011F080E00895109217040895E1E2F1E077
:101D80008081887F8083D19A10922501109224014E
:101D900010921A04109217040895109272008FE2A4
:101DA00089BB1092A5001092A400E0EAF0E0108236
:101DB00080818E7F808380818D7F8083E1EAF0E067
:101DC000108280818860808380818F7E80838DE314
:101DD0008093A90088E08093A8008081887F808319
:101DE0008081826080830895C99B07C0C99A109240
:101DF000A5001092A40081E0089580E00895AF92BC
:101E0000BF92CF92DF92EF92FF920F931F93CF93E7
:101E1000DF931F921F92CDB7DEB7CE0101960E94CD
:101E2000581BE0E1F5E049815A81B9E4AB2EB1E1FC
:101E3000BB2ED12C01E010E085E0C82E1FC0C901E7
:101E4000835E9B4FDC01CC92C901825E9B4FDC011B
:101E5000CC92CB01880F991F83569B4F235E3B4F3B
:101E6000DC012D933C93D39470964E5F5F4FBFEF90
:101E7000AB1ABB0A87E0E031F807D9F180818823EB
:101E800099F3DA018D919C919F0127503109D90175
:101E90002D913C91820F931FD5012C91820F911DA2
:101EA00027FD9A956D2D70E09B01220F331F220FA5
:101EB000331FD901A15EBB4F8C93D901A05EBB4FEC
:101EC0009C93CF010197DC018C91882309F4B7CF53
:101ED0008F70D80102C0AA0FBB1F8A95E2F7CD010F
:101EE000D901A35EBB4F8C93D901A25EBB4F8C93EB
:101EF000B0CFDD2061F00DE914E024E030E04CE1EA
:101F000050E061EE74E080911C040E94F8430F9051
:101F10000F90DF91CF911F910F91FF90EF90DF9085
:101F2000CF90BF90AF90089590E1899FF001112468
:101F3000EF5FFA4F6687089590E1899FF0011124C1
:101F4000EF5FFA4F8685089590E1899FF001112493
:101F5000EF5FFA4F71876087089590E1899FF001E4
:101F60001124EF5FFA4F80859185089590E1899F54
:101F7000F0011124EF5FFA4F8785089590E1899F62
:101F8000F0011124EF5FFA4F8285089590E1899F57
:101F9000F0011124EF5FFA4F84850895C99B15C0A5
:101FA000C99A1092A5001092A4000E94DB388111FA
:101FB0000DC00E94CE110E949A1A0E9417330E94EF
:101FC000DB38811106C00C94FF0E08950E944C3836
:101FD000F0CF0E945638F7CF2F923F924F925F92E8
:101FE0006F927F928F929F92AF92BF92CF92DF9229
:101FF000EF92FF920F931F93CF93DF9300D0CDB753
:10200000DEB7482E19820E94C541882309F452C1C7
:102010002FEF89E698E1215080409040E1F700C021
:102020000000E1E0F5E040E155E025E0118210829A
:1020300013821282158214821782168211861086EC
:10204000DA011C92CA010197DC012C9313861286D7
:10205000158614867096405F5F4FB7E0E130FB074E
:1020600029F71092DD041092DE041092DF04109222
:10207000E00461EE74E0CE0101960E941A421092D3
:102080001C048981882309F418C1312C9CE2892E13
:1020900099249394AA24AA9423E0B22EC12C32E06E
:1020A000D32E5524539445E0642EEE24E394F12C72
:1020B00062E0262E09C081159C4009F4C4C0339407
:1020C0008981381608F069C0E32DF0E0EF51FB4F2D
:1020D0007080872D0E9421408C30910521F08C3238
:1020E000E1E09E0741F7872D0E940336F0E17F9ED5
:1020F000B00111248B010F5F1A4FD80111969C92E9
:102100008E921396BC92AE92129715961C921E92C6
:1021100014971796DC92CE921697872D6A837B834D
:102120000E946037F801918780876A817B81AB01CB
:10213000435F5A4F655F7A4F872D0E948734D801DD
:102140001F965C921F971E966C9280911C048F5F65
:1021500080931C04A70102C0440F551F7A94E2F734
:10216000662757FD6095762F8091DD049091DE04FF
:10217000A091DF04B091E004842B952BA62BB72B04
:102180008093DD049093DE04A093DF04B093E00419
:1021900033948981381608F497CF80911C0448162F
:1021A00009F485C044E650E06AE070E084E00E94F3
:1021B000C80C109272008FE289BB1092A500109299
:1021C000A4001092A0008091A0008E7F8093A000B8
:1021D0008091A0008D7F8093A0001092A10080913B
:1021E000A10088608093A1008091A1008F7E8093E0
:1021F000A1008DE38093A90088E08093A8008091DE
:10220000A100887F8093A1008091A10082608093CB
:10221000A1000E945F1180911C040F900F900F90FD
:10222000DF91CF911F910F91FF90EF90DF90CF90B2
:10223000BF90AF909F908F907F906F905F904F90E6
:102240003F902F900895872D0E940336E0E17E9EF7
:10225000B00111248B010F5F1A4FE4EBF0E0D801BD
:102260001196FC93EE931396BC92AE92129715962C
:102270001C921E9214971796DC92CE921697872D79
:102280006A837B830E946037D80119969C938E9352
:1022900018976A817B81AB01435F5A4F655F7A4F24
:1022A000872D0E948734F801278666864ECF0E94CC
:1022B000BB0C7FCF0E948F41ABCE80E070CF1092DD
:1022C0007D0C1092BF0B8FEF8093BF0C8093BE09E3
:1022D00080937C0C1092BE0C0895CF93C82F6FEBA7
:1022E00079E00E94541A811102C0C093BE09CF91B7
:1022F000089510927D0C1092FF0B1092FE0B10921D
:10230000BD091092BC091092BD0C1092BC0C83E068
:1023100080935F0D10927C0C8091CE098093BB0955
:102320001092BF0CE0E1F5E080E090E006C070960E
:10233000029627E0E031F20709F120812130B9F758
:10234000DF0117972D913C91DC01A258B34F2D93DB
:102350003C93DC01AF5DB24F1D921C92DC01A25C8C
:10236000B34F1D921C92DC01AF5FB84F1D921C92BF
:102370007096029627E0E031F207F9F681E080934B
:10238000BE0C80917F11806180937F11089581E060
:102390008093BF0B08958091BE0C08952F923F92B9
:1023A0004F925F926F927F928F929F92AF92BF9265
:1023B000CF92DF92EF92FF920F931F93CF93DF9311
:1023C000CDB7DEB7A3970FB6F894DEBF0FBECDBF73
:1023D0008091BE0C882309F49AC08091FE0B9091E5
:1023E000FF0B4091BC095091BD098417950708F077
:1023F000A7C08C010F5F1F4F1A8709871093FF0B2F
:102400000093FE0B10915F0D1D87133009F47FC000
:102410008091BC099091BD098C0120E030E0098BCE
:102420001A8B2B8B3C8B8C01015011091E8B0D8B51
:1024300001EE1CE079E0A72E75E0B72EEFE3CE2E7B
:10244000E7E0DE2EF1E2EF2EFDE0FF2EA1E04A2EC6
:10245000A7E05A2EB0EC6B2EBBE07B2E812C912C8A
:1024600080E090E0212C312C9BA38AA3C2012301A0
:1024700094014801A60167017A0189013C0121C04C
:10248000BFEF2B1A3B0AEAA1FBA17096FBA3EAA3BC
:10249000F2E08F0E911C0E5F1F4F20E1A20EB11CC7
:1024A00032E0E30EF11C42E0C40ED11C52E0650E96
:1024B000711C62E0460E511C8AA19BA181159240BD
:1024C00031F12AA13BA12F5F3A4F3A832983D901E9
:1024D0001F968C918130A1F6F801E25CF34F808168
:1024E0009181892B09F06FC0F40180819181D50120
:1024F0008D939C93F101E154F64F80A1A981BA819B
:102500001E968C93BDCF1092BE0C1092BF0BA3965B
:102510000FB6F894DEBF0FBECDBFDF91CF911F91F4
:102520000F91FF90EF90DF90CF90BF90AF909F9072
:102530008F907F906F905F904F903F902F90089575
:102540001092FF0B1092FE0BE0E1F5E080E090E0CE
:1025500006C07096029607E0E031F007E1F02081B6
:102560002130B9F7DF0117972D913C91DC01AF5174
:10257000B34F2D933C93DC01AF5FB84F2D913C914D
:10258000DC01AF5DB24F2D933C937096029607E04D
:10259000E031F00721F780915F0D882309F4C7C06F
:1025A000813009F492C1823009F45BC1833009F4AF
:1025B0002CC25E874D8780E090E0DA018A179B0786
:1025C00008F0A5CF16CFBD85B1114AC0F601019024
:1025D000F081E02DF88BEF87F701A081B1812F8585
:1025E0003889A21BB30B29853A850E94A6492989FF
:1025F0003A894B895C890E94EE498F859889820FC0
:10260000931FD3018D939C93D901B595A795EF8521
:10261000F889AE0FBF1F29853A850E94A6499B0104
:10262000AC01A0E9B0E00E94AD492FE030E040E00D
:1026300050E00E94EE4969E05595479537952795FA
:102640006A95D1F7F801E358F64F31832083D4011E
:102650008D919C91820F931FF501918380834ACFC6
:10266000B13009F448C029853A854D895E8924171F
:10267000350709F421C1F101E054F34F8081811144
:102680003AC0F6010190F081E02DF88BEF87DF0171
:10269000B195A195B10929853A850E94A649298954
:1026A0003A894B895C890E94EE498F859889820F0F
:1026B000931FD3018D939C93D901B595A795EF8571
:1026C000F889AE0FBF1F29853A850E94A6499B0154
:1026D000AC01A0E9B0E00E94AD492FE030E040E05D
:1026E00050E00E94EE4999E055954795379527951A
:1026F0009A95D1F7ACCFF201A081B18129853A85B5
:102700000E94A64929893A894B895C890E94EE4931
:10271000D4018D919C91820F931FF5019183808349
:10272000D7018D919C91F30191838083E3CE81E069
:1027300080935F0D20911F0D3091200D0091DF0CD3
:102740001091E00C1A830983C801880F991F890131
:10275000081B190B1E870D871093BD090093BC0938
:1027600009811A812017310709F4E5C0A801BEE3E9
:102770002B2EBCE03B2E1DE7612E19E0712E0FE3DE
:10278000802E07E0902E80EC482E8BE0582E00EC37
:102790001CE060E175E0C901841B950B9C0140E0E1
:1027A00050E029873A874B875C8795E0C92ED12C6A
:1027B000E12CF12C788B6F8719C0EF85F889709622
:1027C000F88BEF87F2E02F0E311C22E0620E711CB5
:1027D00032E0830E911C42E0440E511C0F5F1F4FEC
:1027E0006F8578896051774009F44BC0AF85B8890F
:1027F0008C91813011F7F8018081813009F446C055
:10280000F401A081B181F101A080B180F301808148
:102810009181A81AB90A29813A810E94A6499B018F
:10282000AC01660F771F881F991F620F731F841FEB
:10283000951F660F771F881F991F660F771F881FC8
:10284000991FA70196010E94EE49BB2757FDBA9533
:10285000A52F942F832FA81AB90AD201AD92BC924A
:10286000ACCF8091BC0C9091BD0C009709F4E1C0F5
:1028700023E020935F0D9093BD098093BC099E8750
:102880008D8780E090E0AD85BE8598CEF101A08176
:10289000B181F30180819181A81BB90B2D853E8503
:1028A0000E94A64929853A854B855C850E94EE49A0
:1028B000D2012D933C9381CFF801E258F34F8081F0
:1028C0009181D5018D939C9315CE82E080935F0D0D
:1028D0007091DF0C6091E00C7093BC096093BD09AE
:1028E000A0ECBBE0E0E1F5E080E090E08D0109C004
:1028F000709602960E5F1F4FB7E0E031FB0709F4B8
:102900007DC020812130A1F79C01225C334FD90189
:102910002D913C91D8014D915C91241B350BAC015C
:102920004358564FDA014D915C91241B350BD80169
:102930002D933C93DDCFB0ECCB2EBBE0DB2E10EC27
:10294000E12E1CE0F12E80E195E000E010E045E092
:10295000442E512C612C712C49011C0111C0F0E155
:102960002F0E311C22E0C20ED11C0E5F1F4F3FEF15
:10297000E31AF30A40E1241647E0340609F481CF54
:10298000D1018C91813059F7F70180818130C9F1F3
:10299000F801E15CF84FA081B181F801E25CF34FEE
:1029A000A080B180F801E358F64F80819181A81A88
:1029B000B90A94010E94A6499B01AC01660F771FDA
:1029C000881F991F620F731F841F951F660F771F43
:1029D000881F991F660F771F881F991FA3019201F7
:1029E0000E94EE49BB2757FDBA95A52F942F832F40
:1029F000A81AB90AF601B182A082B1CF7D876E878D
:102A000040CFD6011D921C92AACF10925F0DA1E279
:102A1000BDE0E0E1F5E006C07096129607E0E03117
:102A2000F00749F080818130B9F711961C921E920F
:102A3000F3CF10925F0D80917D0C813009F463CD4E
:102A400080917C0C8F5F80937C0CA091D309A81798
:102A500008F0C8C080E092E0EDE7F7E0AFEBB9E046
:102A600001900D920197E1F78091BF0C9091BE0902
:102A7000981721F09091CE099093BB0991E0909323
:102A80007C0C8093BE09A091D309B1E0AB1709F487
:102A900084C26B2F70E08B01015011090024169540
:102AA00007950794169507950794102F002DA801F8
:102AB0004154564FFA01E258FF4F80812091D509C9
:102AC000289FC001112496958795929582958F70C5
:102AD00089279F7089279093BD0C8093BC0CFA01C5
:102AE000E158FF4F3081329F900111243695279590
:102AF000329522952F7023273F702327211531050A
:102B000011F421E030E040917D0C413009F45EC2C7
:102B1000892B09F4C4C1AB1709F456C3E0EC4E2E5F
:102B2000ECE05E2EAEE7BCE07B010024F694E79477
:102B30000794F694E7940794FE2CE02CA7014150EB
:102B4000564F7A0180EC582F56034001579F900C46
:102B50001124E0E1F5E080E090E059013D01A7019A
:102B600068010EC07096BFEF4B1A5B0A029602E036
:102B7000600E711C4E5F5F4F17E0E031F107A1F16D
:102B80002081213079F79C012358364FD9011D92BD
:102B90001C929A01280D391D2C0D3D1DD9012D9136
:102BA0003C9136FF18C0D3012D913C91B901E12C25
:102BB000F12C8C010F51134FD8016D937C93D301ED
:102BC0002D933C939C01225C334FD901ED92FC92F2
:102BD000D2011C92C7CFD3016D917C917901E61A85
:102BE000F70AE7CFB82F52CF95013093200D2093ED
:102BF0001F0D8091D70990E0AC01440F551F42177B
:102C0000530708F4E0C0C901019796958795909302
:102C1000E00C8093DF0C009709F0D9C01092200DD2
:102C200010921F0D1E861D8619821A821B821C821D
:102C30001D821E821F82188661E06F87412C512CF5
:102C4000198A1D8A1F8A188E198E71E07A8F1B8E41
:102C50001C8E1D8E1E8E1F8E18A219A27FE3872E3A
:102C600077E0972EE0EC6E2EECE07E2E00E115E092
:102C7000212C312C1BA30AA315C00AA11BA1005FA4
:102C80001F4F1BA30AA312E0810E911C22E0220E0B
:102C9000311C3FEF631A730A4AA15BA140515740B0
:102CA00009F484C0AAA1BBA18C91813031F7F10154
:102CB000EF5DF24F31812081932F990F990BA980FD
:102CC000BA80CB80DC80ED80FE800F811885492F93
:102CD000592F692F792F892F0E94444A59016A017F
:102CE0007B018C01F101E25CF34FA081B18120E016
:102CF0003AE00E94A6492CE030E040E050E00E941B
:102D0000EE49DA01C901550F220B322FA90129879B
:102D10003A874B875C87F3012081211122C09C01F7
:102D2000AD016985762F862F962F0E94654BAA8C60
:102D3000BB8CCC8CDD8CEE8CFF8C08A119A10E9481
:102D4000074AD4012C9311963C93822F932F81151F
:102D5000F4E09F070CF1EFEFF3E0D401ED93FC9367
:102D60008CCF9C01AD016985762F862F962F0E940E
:102D7000654BAF84B42CC52CD988ED88FF88088DAD
:102D8000198D0E94074AF40120833183822F932FEB
:102D90008115F4E09F07FCF681309C4F0CF06DCF5D
:102DA000E1E0FCEFD401ED93FC9367CF8D859E8528
:102DB0009093BD098093BC098091FE0B9091FF0B0D
:102DC000AD85BE85FBCB9093E00C8093DF0C490171
:102DD000A12CB12C880C991CAA1CBB1CC12CD12C79
:102DE00076019E878D87A0E0B0E0880F991FAA1F0B
:102DF000BB1F8C019D0140E050E0BA0189831A831A
:102E00002B833C834D835E836F8378879401A50178
:102E1000B601C7015801CB80DC80E12CF12C00E029
:102E200010E00E94654B01E00E94434B722E832EFE
:102E3000942EB52F662E372EF82FE92F00E00E9432
:102E40005C4B2F87432E542E598B6D8B7F8B888F35
:102E5000998F7A8E8B8E9C8EBD8F6E8E3F8EF8A34F
:102E6000E9A3452DA0E00E946E4B49F411E01F87B5
:102E7000412C512C198A1D8A1F8A188E198E272DD4
:102E8000382D492D5B2F662D732D8F2F9E2FA0E09F
:102E90000E946E4B09F0E2CE21E02A8FD8CEAB170C
:102EA00009F42AC1A0ECEA2EACE0FA2EBEE74B2EC4
:102EB000BCE05B2EDB010024B695A7950794B69580
:102EC000A7950794BA2FA02DA150B64F80EC482F9C
:102ED00046034001479F900C1124E0E1F5E080E0BB
:102EE00090E0772473945901A7011D0168010FC078
:102EF00070964F5F5F4F0296B2E04B0E511C02E09E
:102F0000200E311C17E0E031F10709F46DCE20816D
:102F1000213071F79C012358364FD9011D921C9224
:102F20009101280D391D2C0D3D1DD9012D913C918C
:102F300036FF2CC0D2012D913C91B901E12CF12C2E
:102F40008C010F51134FD8016D937C93D2012D93B7
:102F50003C938C01025C134FD801ED92FC92D1019D
:102F60000D911C9116FD0FC06217730730F42017E6
:102F7000310718F4DA017C92BBCF2617370718F413
:102F800002171307B8F3DA011C92B2CFD2016D9188
:102F90007C917901E61AF70AD3CF8091BF0B81307B
:102FA00009F4A0C08091BB0981508093BB0988239C
:102FB00009F493C08091BE098093BF0C811169C050
:102FC00081E080937D0CB0917C0C63CD892B09F05E
:102FD00046C1AB1709F4F5C140EC442E4CE0542E29
:102FE000AEE7BCE07B010024F694E7940794F694E6
:102FF000E7940794FE2CE02CA7014150564F7A012C
:1030000080EC582F56034001579F900C1124E0E1AB
:10301000F5E080E090E059013D01A7010FC07096F6
:10302000BFEF4B1A5B0A029622E0620E711C4E5FE4
:103030005F4F37E0E031F30709F4D6CD208121302E
:1030400071F79C012358364FD9011D921C929A01A9
:10305000280D391D200F311FD9012D913C91D3012D
:1030600036FF35C02D913C917901C12CD12CBC018A
:103070006F51734FDB01ED92FC92D3012D933C9382
:103080009C01225C334FD901CD92DC92D2011C927B
:10309000C6CF9091BE0998132AC080E092E0EFEB72
:1030A000F9E0ADE7B7E001900D920197E1F780916B
:1030B0008C07882321F080919107811103C081E062
:1030C00080937D0CB0917C0CA091D309E2CCED9063
:1030D000FC906901CE18DF08CACF8091D80980938F
:1030E000BF0C6CCF8091D9098093BF0C67CF6DE77F
:1030F00077E00E94541ADBCF40EC5CE0AEE7BCE026
:103100000154164FE0E1F5E080E090E0BB24B39479
:1031100069013A014D010DC07096BFEF6B1A7B0A31
:10312000029622E0820E911C37E0E031F30709F4A9
:1031300049C04081413081F7AC014358564FDA0114
:103140001D921C92A801480F591F405C5F4FDA0185
:103150004D915C9156FF2FC0D4014D915C91BA0105
:10316000E12CF12C9C012F51334FD9016D937C93AD
:10317000D4014D935C939C01225C334FD901ED92B5
:10318000FC929C012354384FD901ED90FC90F6FC41
:103190000FC06417750730F44E155F0518F4D3019E
:1031A000BC92BACF4617570718F4E416F506B8F3E1
:1031B000D3011C92B1CFD4016D917C917A01E61AB2
:1031C000F70AD0CF960111CD40EC5CE0AEE7BCE051
:1031D0000154164FE0E1F5E080E090E04A0169011A
:1031E0005D010CC07096BFEF8B1A9B0A029622E01D
:1031F000A20EB11C37E0E031F30721F340814130EA
:1032000089F7AC014358564FDA011D921C92A80170
:10321000480F591F405C5F4FDA014D915C91D50119
:1032200056FF17C04D915C91BA01E12CF12C9C0125
:103230002F51334FD9016D937C93D5014D935C93FE
:10324000AC01425C534FDA01ED92FC92D4011C9226
:10325000C9CF6D917C917A01E61AF70AE8CFAB17D6
:1032600009F465C080EC482E8CE0582EAEE7BCE037
:103270007B010024F694E7940794F694E79407946E
:10328000FE2CE02CC7018150964F7C0180EC482F2A
:1032900046034001479F900C1124E0E1F5E080E0F7
:1032A00090E059013D01A70178010FC07096BFEF72
:1032B0004B1A5B0A029602E0600E711C4E5F5F4F74
:1032C00017E0E031F10709F48FCC2081213071F74C
:1032D0009C012358364FD9011D921C929A01280D4A
:1032E000391D2E0D3F1DD9012D913C9136FF18C07F
:1032F000D3012D913C91B901C12CD12C8C010F51DE
:10330000134FD8016D937C93D3012D933C939C0173
:10331000225C334FD901CD92DC92D2011C92C6CFF0
:10332000D3016D917C916901C61AD70AE7CFAEE748
:10333000BCE040EC5CE00154164FE0E1F5E080E0D9
:1033400090E05D014A010DC070960296B2E0AB0EAE
:10335000B11C4FEF841A940A57E0E031F50709F4E5
:1033600044CC4081413081F7AC014358564FDA01DB
:103370001D921C92A801480F591F405C5F4FDA0153
:103380004D915C91D50156FF16C04D915C91BA01EB
:10339000E12CF12CDC01AF51B34F6D937C93D5013F
:1033A0004D935C93AC01425C534FDA01ED92FC9279
:1033B000D4011C92C9CF6D917C917A01E61AF70A6B
:1033C000E9CFAEE7BCE040EC5CE00154164FE0E131
:1033D000F5E080E090E05D014A010DC07096029634
:1033E000B2E0AB0EB11C4FEF841A940A57E0E03103
:1033F000F50709F4FACB4081413081F7AC0143581D
:10340000564FDA011D921C92A801480F591F405CCB
:103410005F4FDA014D915C9156FF17C0D5014D9178
:103420005C91BA01E12CF12CDC01AF51B34F6D93EB
:103430007C93D5014D935C93AC01425C534FDA0110
:10344000ED92FC92D4011C92C9CFD5016D917C9173
:103450007A01E61AF70AE8CFFC0120E030E090E0BC
:103460008191980F2F5F3F4F211582E03807C1F7F8
:1034700081E0911180E0089520E032E0FC01A90193
:10348000119241505040E1F70895FB0120E030E0F7
:10349000DC01A20FB31F4C9141932F5F3F4F2115C9
:1034A00042E03407A9F70895EF92FF920F931F931C
:1034B000CF93DF93F62EE72E082F10E020E030E0C8
:1034C00000511F4F2F4F3F4F89E0000F111F221F48
:1034D000331F8A95D1F7C62FD72F80E090E0DC010B
:1034E000AC01BD01400F511F621F731F6BBFFA017A
:1034F000479149930196A11DB11D811542E09407A2
:10350000A105B10569F7EF2DFE2D20E080E090E0E8
:103510003191230F0196811532E09307C9F781E0BD
:10352000211180E08195DF91CF911F910F91FF9044
:10353000EF9008954F925F926F927F928F929F9239
:10354000AF92BF92CF92DF92EF92FF921F93CF93F1
:10355000DF938091A20D813081F0DF91CF911F9197
:10356000FF90EF90DF90CF90BF90AF909F908F90A3
:103570007F906F905F904F9008951091600D113083
:1035800061F784E00E94390C2091A50D3091A60DC1
:103590007C01E21AF30A83E00E94390C2091A30D0A
:1035A0003091A40DEC01C21BD30B88E3E8168FEF1A
:1035B000F8060CF470C089ECE816F10414F01093CE
:1035C000610DB701882777FD8095982F0E948D4C5B
:1035D0006B017C0126E234EB47E95DE30E943D4D3F
:1035E0002B013C0129E33EE843E65EE3C701B60157
:1035F0000E943D4D4B015C01BE01882777FD8095FF
:10360000982F0E948D4C6B017C012DEC3CEC4CE41E
:103610005EE30E943D4D0E945F4C7093730D60937A
:10362000720D7093750D6093740DC301B2010E9409
:103630005F4C70937B0D60937A0DC301B20190587B
:103640000E945F4C70937D0D60937C0DC501B401A9
:103650000E945F4C70937F0D60937E0DC501B40195
:1036600090580E945F4C7093810D6093800D2DECFB
:103670003CEC4CEC5DE3C701B6010E943D4D905817
:103680000E945F4C7093830D6093820D7093850D43
:103690006093840D62CF82E08093610D92CFE82F1A
:1036A000F0E0EE0FFF1FEE59F24F808191810895F7
:1036B00022E63DE0FC013183208308951092A60D9F
:1036C0001092A50D1092A40D1092A30D1092600DF2
:1036D0001092A20D1092610D80E4E2E6FDE0DF01A0
:1036E0001D928A95E9F708958091610D1092610D00
:1036F00008951092610D08952F923F924F925F921C
:103700006F927F928F929F92AF92BF92CF92DF92F1
:10371000EF92FF920F931F93CF93DF93CDB7DEB756
:10372000E4970FB6F894DEBF0FBECDBF1092A60D82
:103730001092A50D1092A40D1092A30D82E390E0BB
:103740000E94670E7E0185E1E80EF11CFE013196B4
:10375000FAA7E9A71E01F9E22F0E311C812C912C4A
:1037600054012401350104C00E94FE0D0E94E607A9
:103770000E94AC0E8823C1F384E00E94390C8C01B6
:10378000F701819391937F0183E00E94390C6C01D2
:10379000E9A5FAA581939193FAA7E9A7B80180E07A
:1037A00090E00E948B4C9B01AC01C301B2010E94CE
:1037B0008F4B2B013C01B60180E090E00E948B4CC6
:1037C0009B01AC01C501B4010E948F4B4B015C0110
:1037D000E214F30469F60E94BE0E20E030E040E2FD
:1037E00051E4C301B2010E94F74B6B017C0120E060
:1037F00030E040E251E4C501B4010E94F74B69A7F3
:103800007AA78BA79CA76D897E8980E090E00E94B3
:103810008B4CA70196010E948E4B9B01AC010E942C
:103820003D4D20E030E0A9010E948F4B2B013C016F
:1038300069817A8180E090E00E948B4C29A53AA5AD
:103840004BA55CA50E948E4B9B01AC010E943D4D97
:1038500020E030E0A9010E948F4B4B015C016F8991
:10386000788D80E090E00E948B4CA70196010E9429
:103870008E4B9B01AC010E943D4DA30192010E9421
:103880008F4B2B013C016B817C8180E090E00E949A
:103890008B4C29A53AA54BA55CA50E948E4B9B019C
:1038A000AC010E943D4D9B01AC01C501B4010E94D9
:1038B0008F4B4B015C01698D7A8D80E090E00E9416
:1038C0008B4CA70196010E948E4B9B01AC010E947C
:1038D0003D4D9B01AC01C301B2010E948F4B2B01F6
:1038E0003C016D817E8180E090E00E948B4C29A597
:1038F0003AA54BA55CA50E948E4B9B01AC010E9492
:103900003D4D9B01AC01C501B4010E948F4B4B01A1
:103910005C016B8D7C8D80E090E00E948B4CA70158
:1039200096010E948E4B9B01AC010E943D4D9B0174
:10393000AC01C301B2010E948F4B2B013C016F818E
:10394000788580E090E00E948B4C29A53AA54BA594
:103950005CA50E948E4B9B01AC010E943D4D9B01DA
:10396000AC01C501B4010E948F4B4B015C016D8D10
:103970007E8D80E090E00E948B4CA70196010E9412
:103980008E4B9B01AC010E943D4D9B01AC01C301DC
:10399000B2010E948F4B2B013C0169857A8580E042
:1039A00090E00E948B4C29A53AA54BA55CA50E94EE
:1039B0008E4B9B01AC010E943D4D9B01AC01C501AA
:1039C000B4010E948F4B4B015C016F8D78A180E0A8
:1039D00090E00E948B4CA70196010E948E4B9B01A8
:1039E000AC010E943D4D9B01AC01C301B2010E949C
:1039F0008F4B2B013C016B857C8580E090E00E9421
:103A00008B4C29A53AA54BA55CA50E948E4B9B012A
:103A1000AC010E943D4D9B01AC01C501B4010E9467
:103A20008F4B4B015C0169A17AA180E090E00E947C
:103A30008B4CA70196010E948E4B9B01AC010E940A
:103A40003D4D9B01AC01C301B2010E948F4B2B0184
:103A50003C016D857E8580E090E00E948B4C29A51D
:103A60003AA54BA55CA50E948E4B9B01AC010E9420
:103A70003D4D9B01AC01C501B4010E948F4B4B0130
:103A80005C016BA17CA180E090E00E948B4CA701BF
:103A900096010E948E4B9B01AC010E943D4D9B0103
:103AA000AC01C301B2010E948F4B2B013C016F8519
:103AB000788980E090E00E948B4C29A53AA54BA51F
:103AC0005CA50E948E4B9B01AC010E943D4D9B0169
:103AD000AC01C501B4010E948F4B4B015C016DA18B
:103AE0007EA180E090E00E948B4CA70196010E948D
:103AF0008E4B9B01AC010E943D4D9B01AC01C3016B
:103B0000B2010E948F4B6DA77EA78FA798AB6989E2
:103B10007A8980E090E00E948B4C29A53AA54BA5BC
:103B20005CA50E948E4B9B01AC010E943D4D9B0108
:103B3000AC01C501B4010E948F4B69AB7AAB8BAB72
:103B40009CAB6FA178A580E090E00E948B4CA70110
:103B500096010E948E4B2B013C016B897C8980E091
:103B600090E00E948B4C29A53AA54BA55CA50E942C
:103B70008E4B4B015C01A3019201C301B2010E9473
:103B80003D4D2DA53EA54FA558A90E948F4B20E085
:103B900030E040E251E40E94F74B0E94A44D2B011B
:103BA0003C01A5019401C501B4010E943D4D29A924
:103BB0003AA94BA95CA90E948F4B20E030E040E27B
:103BC00051E40E94F74B0E94A44D4B015C0120E0A0
:103BD00030E040EA51E4C301B2010E94F34B87FF99
:103BE0000AC020E030E040EA51E4C501B4010E947F
:103BF000F34B87FD26C044E650E06AE070E084E0C5
:103C00000E94C80C809179118F778093791180E0A0
:103C1000E4960FB6F894DEBF0FBECDBFDF91CF9113
:103C20001F910F91FF90EF90DF90CF90BF90AF90DA
:103C30009F908F907F906F905F904F903F902F90CC
:103C4000089581E08093600DC701B6010E945F4C2A
:103C50007093A60D6093A50D69A57AA58BA59CA56B
:103C60000E945F4C7093A40D6093A30D0E94BB0C47
:103C700081E0CECF81E08093A20D08951092A20D35
:103C800008958091A20D08950F931F93CF93DF9312
:103C9000EC011091E102113091F108F442C01230B0
:103CA00081F01330C1F50E94CB1181112CC010920C
:103CB000AB0D1092E10281E0DF91CF911F910F9146
:103CC00008950E94CB1181111EC01091AB0D8091FF
:103CD000AA0D113009F454C0882309F44AC08A811E
:103CE0000E946D111092AA0D0E94791182E08093BA
:103CF000E10280E0DF91CF911F910F9108950E9422
:103D0000CB11882321F11093E10280E0DF91CF9164
:103D10001F910F91089580E0DF91CF911F910F9136
:103D200008958091A90D882301F189810E946D1168
:103D30000E9479118091A90D8093AA0D81E0809352
:103D4000E10280E0DF91CF911F910F9108950091E2
:103D5000AB0D8091AA0D013009F18111C0CF8B818B
:103D60000E946D111093AA0DBFCF88810E946D1122
:103D7000DFCF8B810E946D1181E08093AA0DB4CFBB
:103D8000811114C08D810E946D111093AA0D0E94A3
:103D9000791183E08093E10280E0B8CF811106C001
:103DA0008D810E946D110093AA0DF1CF8C810E942C
:103DB0006D111092AA0DEBCF1F93CF93DF93EC01FF
:103DC0001091E002113029F1A0F1123079F0133096
:103DD00059F50E94CB11811120C01092AB0D1092A9
:103DE000E00281E0DF91CF911F9108950E94CB11F5
:103DF000811113C08091AA0D81115FC08091AB0D1C
:103E0000813009F447C08B810E946D111093E0024C
:103E100033C00E94CB11882309F11093E00280E0A7
:103E2000DF91CF911F91089580E0DF91CF911F9195
:103E300008958091A90D882349F189810E946D110F
:103E40000E9479118091A90D8093AA0D81E0809341
:103E5000E00280E0DF91CF911F9108958091AA0D3B
:103E600081111FC08091AB0D8130A1F08B810E9428
:103E70006D1182E08093E00281E08093AA0D0E94A0
:103E8000791180E0DF91CF911F91089588810E9480
:103E90006D11D6CF8D810E946D1183E08093E00279
:103EA000EBCF8A810E946D111092AA0D0E947911A8
:103EB00082E08093E00280E0B3CF8A810E946D119E
:103EC0001092AA0D0E9479111093E00280E0A8CF11
:103ED0001F93CF93DF93EC011091DF02113031F18A
:103EE000A8F1123079F0133061F50E94CB118111E5
:103EF00021C01092AB0D1092DF0281E0DF91CF91D3
:103F00001F9108950E94CB11811114C08091AA0DB8
:103F1000813009F057C08091AB0D813009F45EC04B
:103F20008A810E946D111093DF0233C00E94CB1171
:103F3000882309F11093DF0280E0DF91CF911F9178
:103F4000089580E0DF91CF911F9108958091A90D90
:103F5000882341F189810E946D110E94791180911D
:103F6000A90D8093AA0D81E08093DF0280E0DF91AC
:103F7000CF911F9108958091AA0D8130B9F480915D
:103F8000AB0D813059F18A810E946D1182E08093DE
:103F9000DF021092AA0D0E94791180E0DF91CF918B
:103FA0001F91089588810E946D11D7CF8B810E9447
:103FB0006D111093AA0D0E94791182E08093DF02A7
:103FC00080E0BBCF8B810E946D1181E08093AA0DB0
:103FD0000E9479111093DF0280E0AFCF8C810E94A4
:103FE0006D1183E08093DF02D4CF8091AA0D8823E6
:103FF00019F01092AA0D089581E08093AA0D0895FA
:10400000681B790B683F88EF780744F0693087E0D8
:10401000780714F060517E40CB010895605F714FC6
:10402000CB010895680F791F77FD08C061318EE0DC
:10403000780714F060517E40CB010895605F714FA6
:10404000CB0108951092AB0D1092A90D1092AA0DFC
:104050001092A80D1092A70D089581E08093AB0DEA
:1040600008958093A90D08951092A80D1092A70DA0
:1040700008958091A70D9091A80D0895CF93DF9397
:10408000C091E102C13071F1D8F1C23071F0C3309A
:1040900099F50E94CB11811129C01092AB0D10929D
:1040A000E10281E0DF91CF9108950E94CB1181114F
:1040B0001DC0C091AB0D8091AA0DC13009F451C053
:1040C000882309F446C0809106020E946D11109267
:1040D000AA0D0E94791182E08093E10280E0DF91D5
:1040E000CF9108950E94CB118823F9F0C093E1028B
:1040F00080E0DF91CF91089580E0DF91CF91089526
:104100008091A90D882301F1809105020E946D1113
:104110000E9479118091A90D8093AA0D81E080936E
:10412000E10280E0DF91CF910895D091AB0D8091B5
:10413000AA0DD13029F18111C6CF809107020E94CA
:104140006D11C093AA0DC5CF809104020E946D111C
:10415000DFCF809107020E946D1181E08093AA0D4C
:10416000B8CF811116C0809109020E946D11C093D1
:10417000AA0D0E94791183E08093E10280E0B9CF1B
:10418000811107C0809109020E946D11D093AA0D80
:10419000F0CF809108020E946D111092AA0DE9CF14
:1041A000CF93DF93C091E102C13071F1D8F1C230F9
:1041B00071F0C33099F50E94CB11811129C0109282
:1041C000AB0D1092E10281E0DF91CF9108950E9442
:1041D000CB1181111DC0C091AB0D8091AA0DC130D2
:1041E00009F451C0882309F446C080910C020E9452
:1041F0006D111092AA0D0E94791182E08093E10264
:1042000080E0DF91CF9108950E94CB118823F9F0CF
:10421000C093E10280E0DF91CF91089580E0DF91CB
:10422000CF9108958091A90D882301F180910B020F
:104230000E946D110E9479118091A90D8093AA0DA1
:1042400081E08093E10280E0DF91CF910895D091E9
:10425000AB0D8091AA0DD13029F18111C6CF80918B
:104260000D020E946D11C093AA0DC5CF80910A0264
:104270000E946D11DFCF80910D020E946D1181E0CF
:104280008093AA0DB8CF811116C080910F020E94B1
:104290006D11C093AA0D0E94791183E08093E10211
:1042A00080E0B9CF811107C080910F020E946D118B
:1042B000D093AA0DF0CF80910E020E946D11109242
:1042C000AA0DE9CFCF93C091E002C13021F178F17E
:1042D000C23069F0C33041F50E94CB1181111FC07B
:1042E0001092AB0D1092E00281E0CF9108950E94F0
:1042F000CB11811114C08091AA0D81115DC08091F4
:10430000AB0D813009F443C0809113020E946D11FE
:10431000C093E0022FC00E94CB118823E1F0C0932C
:10432000E00280E0CF91089580E0CF9108958091E0
:10433000A90D882339F1809111020E946D110E940C
:1043400079118091A90D8093AA0D81E08093E002FC
:1043500080E0CF9108958091AA0D811120C08091B5
:10436000AB0D8130A1F0809113020E946D1182E0AB
:104370008093E00281E08093AA0D0E94791180E091
:10438000CF910895809110020E946D11D8CF809135
:1043900015020E946D1183E08093E002EBCF8091C3
:1043A00012020E946D111092AA0D0E94791182E0F2
:1043B0008093E00280E0B6CF809112020E946D11DE
:1043C0001092AA0D0E947911C093E00280E0AACF5A
:1043D000CF93C091DF02C13029F180F1C23069F082
:1043E000C33049F50E94CB11811120C01092AB0D52
:1043F0001092DF0281E0CF9108950E94CB118111CC
:1044000015C08091AA0D813009F054C08091AB0D88
:10441000813009F45CC0809118020E946D11C09334
:10442000DF022FC00E94CB118823E1F0C093DF028E
:1044300080E0CF91089580E0CF9108958091A90DFB
:10444000882331F1809117020E946D110E94791129
:104450008091A90D8093AA0D81E08093DF0280E016
:10446000CF9108958091AA0D8130B9F48091AB0D60
:10447000813069F1809118020E946D1182E0809371
:10448000DF021092AA0D0E94791180E0CF91089569
:10449000809116020E946D11D9CF809119020E945D
:1044A0006D11C093AA0D0E94791182E08093DF0202
:1044B00080E0BFCF809119020E946D1181E080934E
:1044C000AA0D0E947911C093DF0280E0B2CF8091E3
:1044D0001A020E946D1183E08093DF02D2CFCF9346
:1044E000C091E002C13021F178F1C23069F0C330EF
:1044F00041F50E94CB1181111FC01092AB0D10929B
:10450000E00281E0CF9108950E94CB11811114C087
:104510008091AA0D81115DC08091AB0D813009F4AD
:1045200043C080911F020E946D11C093E0022FC012
:104530000E94CB118823E1F0C093E00280E0CF918C
:10454000089580E0CF9108958091A90D882339F1D5
:1045500080911D020E946D110E9479118091A90D18
:104560008093AA0D81E08093E00280E0CF910895CE
:104570008091AA0D811120C08091AB0D8130A1F0F6
:1045800080911F020E946D1182E08093E00281E021
:104590008093AA0D0E94791180E0CF9108958091B7
:1045A0001C020E946D11D8CF809121020E946D11D2
:1045B00083E08093E002EBCF80911E020E946D1198
:1045C0001092AA0D0E94791182E08093E00280E0AF
:1045D000B6CF80911E020E946D111092AA0D0E940A
:1045E0007911C093E00280E0AACFCF93C091DF029F
:1045F000C13029F180F1C23069F0C33049F50E9421
:10460000CB11811120C01092AB0D1092DF0281E01E
:10461000CF9108950E94CB11811115C08091AA0DF0
:10462000813009F054C08091AB0D813009F45CC039
:10463000809124020E946D11C093DF022FC00E945E
:10464000CB118823E1F0C093DF0280E0CF91089581
:1046500080E0CF9108958091A90D882331F1809158
:1046600023020E946D110E9479118091A90D8093FF
:10467000AA0D81E08093DF0280E0CF9108958091C0
:10468000AA0D8130B9F48091AB0D813069F1809130
:1046900024020E946D1182E08093DF021092AA0D25
:1046A0000E94791180E0CF910895809122020E94AA
:1046B0006D11D9CF809125020E946D11C093AA0D72
:1046C0000E94791182E08093DF0280E0BFCF809169
:1046D00025020E946D1181E08093AA0D0E9479113C
:1046E000C093DF0280E0B2CF809126020E946D115C
:1046F00083E08093DF02D2CFCF93C091E002C1303C
:1047000021F178F1C23069F0C33041F50E94CB113C
:1047100081111FC01092AB0D1092E00281E0CF9189
:1047200008950E94CB11811114C08091AA0D8111AE
:104730005DC08091AB0D813009F443C080912B02A4
:104740000E946D11C093E0022FC00E94CB118823FC
:10475000E1F0C093E00280E0CF91089580E0CF9136
:1047600008958091A90D882339F1809129020E9432
:104770006D110E9479118091A90D8093AA0D81E09D
:104780008093E00280E0CF9108958091AA0D81117D
:1047900020C08091AB0D8130A1F080912B020E944E
:1047A0006D1182E08093E00281E08093AA0D0E9467
:1047B000791180E0CF910895809128020E946D11B7
:1047C000D8CF80912D020E946D1183E08093E0028A
:1047D000EBCF80912A020E946D111092AA0D0E94C7
:1047E000791182E08093E00280E0B6CF80912A02C6
:1047F0000E946D111092AA0D0E947911C093E002DF
:1048000080E0AACFCF93C091DF02C13029F180F1BF
:10481000C23069F0C33049F50E94CB11811120C02C
:104820001092AB0D1092DF0281E0CF9108950E94AB
:10483000CB11811115C08091AA0D813009F054C0AF
:104840008091AB0D813009F45CC0809130020E94F0
:104850006D11C093DF022FC00E94CB118823E1F0BD
:10486000C093DF0280E0CF91089580E0CF9108955A
:104870008091A90D882331F180912F020E946D1142
:104880000E9479118091A90D8093AA0D81E08093F7
:10489000DF0280E0CF9108958091AA0D8130B9F4B4
:1048A0008091AB0D813069F1809130020E946D11D1
:1048B00082E08093DF021092AA0D0E94791180E0BD
:1048C000CF91089580912E020E946D11D9CF8091D1
:1048D00031020E946D11C093AA0D0E94791182E0ED
:1048E0008093DF0280E0BFCF809131020E946D1182
:1048F00081E08093AA0D0E947911C093DF0280E0CD
:10490000B2CF809132020E946D1183E08093DF026A
:10491000D2CFCF93C091E002C13021F178F1C23003
:1049200069F0C33041F50E94CB1181111FC0109274
:10493000AB0D1092E00281E0CF9108950E94CB115F
:10494000811114C08091AA0D81115DC08091AB0DC1
:10495000813009F443C0809137020E946D11C093E9
:10496000E0022FC00E94CB118823E1F0C093E00247
:1049700080E0CF91089580E0CF9108958091A90DB6
:10498000882339F1809135020E946D110E947911BE
:104990008091A90D8093AA0D81E08093E00280E0D0
:1049A000CF9108958091AA0D811120C08091AB0D07
:1049B0008130A1F0809137020E946D1182E08093D6
:1049C000E00281E08093AA0D0E94791180E0CF91EE
:1049D0000895809134020E946D11D8CF80913902E0
:1049E0000E946D1183E08093E002EBCF809136024C
:1049F0000E946D111092AA0D0E94791182E080939D
:104A0000E00280E0B6CF809136020E946D111092D4
:104A1000AA0D0E947911C093E00280E0AACFCF9343
:104A2000C091DF02C13029F180F1C23069F0C3309A
:104A300049F50E94CB11811120C01092AB0D10924C
:104A4000DF0281E0CF9108950E94CB11811115C042
:104A50008091AA0D813009F054C08091AB0D813056
:104A600009F45CC080913C020E946D11C093DF028A
:104A70002FC00E94CB118823E1F0C093DF0280E0B9
:104A8000CF91089580E0CF9108958091A90D88235A
:104A900031F180913B020E946D110E947911809149
:104AA000A90D8093AA0D81E08093DF0280E0CF9171
:104AB00008958091AA0D8130B9F48091AB0D8130B9
:104AC00069F180913C020E946D1182E08093DF02C7
:104AD0001092AA0D0E94791180E0CF9108958091E3
:104AE0003A020E946D11D9CF80913D020E946D1152
:104AF000C093AA0D0E94791182E08093DF0280E0CA
:104B0000BFCF80913D020E946D1181E08093AA0D7C
:104B10000E947911C093DF0280E0B2CF80913E0203
:104B20000E946D1183E08093DF02D2CFCF93C091BA
:104B3000E002C13021F178F1C23069F0C33041F5B3
:104B40000E94CB1181111FC01092AB0D1092E00298
:104B500081E0CF9108950E94CB11811114C0809102
:104B6000AA0D81115DC08091AB0D813009F443C065
:104B7000809143020E946D11C093E0022FC00E94F9
:104B8000CB118823E1F0C093E00280E0CF9108953B
:104B900080E0CF9108958091A90D882339F180910B
:104BA00041020E946D110E9479118091A90D80939C
:104BB000AA0D81E08093E00280E0CF91089580917A
:104BC000AA0D811120C08091AB0D8130A1F08091A0
:104BD00043020E946D1182E08093E00281E08093A5
:104BE000AA0D0E94791180E0CF9108958091400232
:104BF0000E946D11D8CF809145020E946D1183E013
:104C00008093E002EBCF809142020E946D111092DE
:104C1000AA0D0E94791182E08093E00280E0B6CF75
:104C2000809142020E946D111092AA0D0E9479118A
:104C3000C093E00280E0AACFCF93C091DF02C130E1
:104C400029F180F1C23069F0C33049F50E94CB11DF
:104C5000811120C01092AB0D1092DF0281E0CF9144
:104C600008950E94CB11811115C08091AA0D813049
:104C700009F054C08091AB0D813009F45CC0809183
:104C800048020E946D11C093DF022FC00E94CB1119
:104C90008823E1F0C093DF0280E0CF91089580E0A7
:104CA000CF9108958091A90D882331F18091470219
:104CB0000E946D110E9479118091A90D8093AA0D17
:104CC00081E08093DF0280E0CF9108958091AA0D6A
:104CD0008130B9F48091AB0D813069F18091480247
:104CE0000E946D1182E08093DF021092AA0D0E9453
:104CF000791180E0CF910895809146020E946D1154
:104D0000D9CF809149020E946D11C093AA0D0E94D3
:104D1000791182E08093DF0280E0BFCF8091490269
:104D20000E946D1181E08093AA0D0E947911C093B9
:104D3000DF0280E0B2CF80914A020E946D1183E0D1
:104D40008093DF02D2CFCF93C091E002C13021F136
:104D500078F1C23069F0C33041F50E94CB11811166
:104D60001FC01092AB0D1092E00281E0CF91089528
:104D70000E94CB11811114C08091AA0D81115DC0D8
:104D80008091AB0D813009F443C080914F020E94A5
:104D90006D11C093E0022FC00E94CB118823E1F077
:104DA000C093E00280E0CF91089580E0CF91089514
:104DB0008091A90D882339F180914D020E946D11D7
:104DC0000E9479118091A90D8093AA0D81E08093B2
:104DD000E00280E0CF9108958091AA0D811120C05A
:104DE0008091AB0D8130A1F080914F020E946D1136
:104DF00082E08093E00281E08093AA0D0E94791105
:104E000080E0CF91089580914C020E946D11D8CF1F
:104E1000809151020E946D1183E08093E002EBCFFC
:104E200080914E020E946D111092AA0D0E9479117C
:104E300082E08093E00280E0B6CF80914E020E9433
:104E40006D111092AA0D0E947911C093E00280E0CA
:104E5000AACFCF93C091DF02C13029F180F1C230D7
:104E600069F0C33049F50E94CB11811120C0109226
:104E7000AB0D1092DF0281E0CF9108950E94CB111B
:104E8000811115C08091AA0D813009F054C0809124
:104E9000AB0D813009F45CC0809154020E946D1109
:104EA000C093DF022FC00E94CB118823E1F0C09392
:104EB000DF0280E0CF91089580E0CF910895809146
:104EC000A90D882331F1809153020E946D110E9437
:104ED00079118091A90D8093AA0D81E08093DF0262
:104EE00080E0CF9108958091AA0D8130B9F480912E
:104EF000AB0D813069F1809154020E946D1182E006
:104F00008093DF021092AA0D0E94791180E0CF9168
:104F10000895809152020E946D11D9CF809155025F
:104F20000E946D11C093AA0D0E94791182E08093B6
:104F3000DF0280E0BFCF809155020E946D1181E0B9
:104F40008093AA0D0E947911C093DF0280E0B2CF56
:104F5000809156020E946D1183E08093DF02D2CFD0
:104F6000CF93DF93C091E102C13071F1D8F1C2302B
:104F700071F0C33099F50E94CB11811129C01092B4
:104F8000AB0D1092E10281E0DF91CF9108950E9474
:104F9000CB1181111DC0C091AB0D8091AA0DC13004
:104FA00009F451C0882309F446C080915A020E9436
:104FB0006D111092AA0D0E94791182E08093E10296
:104FC00080E0DF91CF9108950E94CB118823F9F002
:104FD000C093E10280E0DF91CF91089580E0DF91FE
:104FE000CF9108958091A90D882301F180915902F4
:104FF0000E946D110E9479118091A90D8093AA0DD4
:1050000081E08093E10280E0DF91CF910895D0911B
:10501000AB0D8091AA0DD13029F18111C6CF8091BD
:105020005B020E946D11C093AA0DC5CF80915802FA
:105030000E946D11DFCF80915B020E946D1181E0B3
:105040008093AA0DB8CF811116C080915D020E9495
:105050006D11C093AA0D0E94791183E08093E10243
:1050600080E0B9CF811107C080915D020E946D116F
:10507000D093AA0DF0CF80915C020E946D11109226
:10508000AA0DE9CFCF93DF93C091E102C13071F156
:10509000D8F1C23071F0C33099F50E94CB11811163
:1050A00029C01092AB0D1092E10281E0DF91CF9107
:1050B00008950E94CB1181111DC0C091AB0D80914C
:1050C000AA0DC13009F451C0882309F446C080916B
:1050D00060020E946D111092AA0D0E94791182E067
:1050E0008093E10280E0DF91CF9108950E94CB117F
:1050F0008823F9F0C093E10280E0DF91CF91089519
:1051000080E0DF91CF9108958091A90D882301F16E
:1051100080915F020E946D110E9479118091A90D0A
:105120008093AA0D81E08093E10280E0DF91CF912E
:105130000895D091AB0D8091AA0DD13029F1811144
:10514000C6CF809161020E946D11C093AA0DC5CF98
:1051500080915E020E946D11DFCF809161020E94FA
:105160006D1181E08093AA0DB8CF811116C0809196
:1051700063020E946D11C093AA0D0E94791183E011
:105180008093E10280E0B9CF811107C08091630272
:105190000E946D11D093AA0DF0CF809162020E94FF
:1051A0006D111092AA0DE9CF0895089508950895FC
:1051B00008950895089508951F93CF93DF931F9244
:1051C0001F92CDB7DEB7681B790B683F88EF780771
:1051D0003CF5605F714F1091DE02113059F11130D2
:1051E00008F4A1C0123009F45EC0133009F094C075
:1051F0000E94CB11811187C08091A70D9091A80DBD
:1052000001969093A80D8093A70D1092AB0D10926C
:10521000DE0281E00F900F90DF91CF911F910895F2
:105220006930E7E07E07BCF260517E401091DE02FB
:105230001130A9F669837A830E94CB1169817A8142
:10524000811161C08091A70D9091A80D0196909356
:10525000A80D8093A70D8091AB0D813009F4B2C0E9
:10526000CB018D599F4F873C910508F47BC08091FD
:10527000AA0D6C39FFEF7F070CF08AC0882309F470
:10528000C3C0813009F4F9C091E09093DE0281112E
:105290008BC081E08093AA0D80E00F900F90DF918A
:1052A000CF911F91089569837A830E94CB11698100
:1052B0007A81811128C08091A70D9091A80D019647
:1052C0009093A80D8093A70D8091AB0D813009F4C8
:1052D00088C0CB0177FDA0C0853691050CF46DC068
:1052E0008091AA0D161617060CF04CC0811190C0C3
:1052F0008CE60E946D110E94791182E08093DE029B
:105300008091AA0DC4CF1093DE0280E00F900F9021
:10531000DF91CF911F91089580E00F900F90DF9162
:10532000CF911F9108958091A90D8823B9F082E251
:105330000E946D110E9479118091A90D90E0019653
:10534000817099278093AA0D81E08093DE0280E02E
:105350000F900F90DF91CF911F91089580E20E94EE
:105360006D11E8CF8091AA0D882309F44DC086E223
:105370000E946D110E94791181E08093DE0280917C
:10538000AA0D85CF81115AC088E70E946D11B3CF55
:10539000653671050CF468C0813049F3882309F43F
:1053A00058C081E08093DE021092AA0D80E00F9039
:1053B0000F90DF91CF911F91089581E08093DE02DD
:1053C00080E0A4CF8091AA0D81112BC088E20E94B9
:1053D0006D110E94791183E08093DE028091AA0D05
:1053E00056CF8091AA0D16161706FCF4813051F1A4
:1053F0008CE60E946D111093DE020E94791180915B
:10540000AA0D8111D1CF45CF84E20E946D11B2CF98
:105410008EE60E946D116FCF88279927861B970B08
:105420005BCF8AE20E946D11D4CF811120C08CE73E
:105430000E946D1183E08093DE02DFCF8AE70E9435
:105440006D1159CF82E70E946D1183E08093DE02D7
:10545000D4CF82E08093DE028CE60E946D110E9420
:1054600079118091AA0D13CF77FF98CF0ACF8AE7E1
:105470000E946D111093DE02C0CF8AE70E946D1169
:1054800082E08093DE020E9479118091AA0DFFCE06
:105490001F93CF93DF931F921F92CDB7DEB7681B88
:1054A000790B683F88EF78073CF5605F714F10918A
:1054B000DD02113059F1113008F49EC0123009F4A8
:1054C0005DC0133009F091C00E94CB11811184C0DE
:1054D0008091A70D9091A80D01979093A80D8093AE
:1054E000A70D1092AB0D1092DD0281E00F900F908E
:1054F000DF91CF911F9108956930E7E07E07BCF2FC
:1055000060517E401091DD021130A9F669837A83E3
:105510000E94CB1169817A8181115EC08091A70DB3
:105520009091A80D01979093A80D8093A70D80915D
:10553000AB0D813009F4B0C0CB018D599F4F873C32
:10554000910508F478C08091AA0D653671050CF4B8
:1055500088C0882309F4C2C0813009F4E7C091E013
:105560009093DD0281118AC081E08093AA0D80E0D2
:105570000F900F90DF91CF911F91089569837A83E7
:105580000E94CB1169817A81811126C08091A70D7B
:105590009091A80D01979093A80D8093A70D8091ED
:1055A000AB0D813009F487C0CB0177FD9FC08536F4
:1055B00091050CF46CC08091AA0D77FD4CC081114F
:1055C00091C080E90E946D110E94791182E0809360
:1055D000DD028091AA0DC6CF1093DD0280E00F900E
:1055E0000F90DF91CF911F91089580E00F900F9061
:1055F000DF91CF911F9108958091A90D8823B9F073
:105600008EE20E946D110E9479118091A90D90E0A7
:105610000196817099278093AA0D81E08093DD0225
:1056200080E00F900F90DF91CF911F9108958CE251
:105630000E946D11E8CF8091AA0D882309F44EC015
:1056400082E30E946D110E94791181E08093DD0256
:105650008091AA0D87CF811160C084E80E946D11EE
:10566000B3CF6C39FFEF7F070CF05BC0813041F3A3
:10567000882309F46DC081E08093DD021092AA0DA9
:1056800080E00F900F90DF91CF911F91089581E0FE
:105690008093DD0280E0A3CF8091AA0D81112BC001
:1056A00084E30E946D110E94791183E08093DD02F2
:1056B0008091AA0D57CF8091AA0D77FD26C0811148
:1056C0001EC084E90E946D1183E08093DD020E9478
:1056D00079118091AA0D8111D1CF46CF80E30E942C
:1056E0006D11B1CF82E90E946D116ECF8827992785
:1056F000861B970B5CCF86E30E946D11D4CF82E9A5
:105700000E946D111093DD02E2CF8130D1F084E868
:105710000E946D111093DD02DACF86E80E946D11B0
:1057200053CF161617060CF417CFA2CF82E90E94AA
:105730006D1182E08093DD020E9479118091AA0DA3
:1057400011CF8AE80E946D1183E08093DD02BFCF04
:1057500082E08093DD0284E80E946D110E9479113D
:105760008091AA0DFFCECF93DF93D82FC091DC029A
:10577000C13019F180F0C23021F080E0DF91CF918B
:1057800008950E94B50E811129C0C093DC0280E00B
:10579000DF91CF9108950E94CB1181111BC0D130B0
:1057A00019F18CE10E946D110E94791181E08093C2
:1057B000DC0280E0DF91CF9108950E94CB1181112E
:1057C000E4CF82E08093DC0288EE93E00E94890EB1
:1057D00080E0D4CF1092DC0280E0D0CF0E94791B11
:1057E0001092DC0281E0CACF8BE10E946D11DCCF08
:1057F000CF93C82F4091DB0250E04830510530F084
:1058000080E0C1111092DB02CF910895FA01E059B6
:10581000FE4F0C943D4B0E94CB11882309F456C0D7
:1058200086E08093DB0280E0ECCF0E94CB118823DE
:1058300009F448C087E08093DB0280E0E2CF0E9459
:10584000CB118823A9F10E94C71181E08093DB026C
:1058500080E0D7CF0E94CB11882351F181E0809363
:10586000DB0280E0CECF0E94CB11882309F456C022
:1058700082E08093DB0280E0C4CF0E94B50E8111EC
:1058800043C083E08093DB0280E0BBCF0E94CB115A
:10589000882381F184E08093DB0280E0B2CF0E9414
:1058A000CB118823E9F085E08093DB0280E0A9CF6B
:1058B00083EE0E946D110E94791182E08093DB02D9
:1058C00080E09FCF1092DB0281E09BCF8FE10E94AE
:1058D0006D110E94791187E08093DB0280E091CF07
:1058E00082EE0E946D110E94791186E08093DB02A6
:1058F00080E087CF81EE0E946D110E94791185E0D2
:105900008093DB0280E07DCF80EE0E946D110E94CB
:10591000791184E08093DB0280E073CF8CED95E019
:105920000E94890E83E08093DB0280E06ACFCF93F0
:10593000C091DA02C23009F441C068F0C430C1F04D
:1059400098F1C53019F50E94CB1181110CC010924D
:10595000DA0281E00BC0CC23E1F0C130B9F40E943F
:10596000CB118823C9F1C093DA0280E0CF9108956A
:105970000E94CB118111F7CF8FE10E946D110E941F
:10598000791185E08093DA0280E0F0CF80E0CF915A
:1059900008950E94CB118823F9F00E94C71181E07D
:1059A0008093DA0280E0E2CF0E94CB118823F9F0E5
:1059B00083E08093DA0280E0CF9108950E94CB11BA
:1059C0008111D1CF85EE0E946D110E94791183E083
:1059D0008093DA0280E0CACF84EE0E946D110E94AB
:1059E000791182E08093DA0280E0CF91089586EE0B
:1059F0000E946D110E94791184E08093DA0280E0A8
:105A0000B5CF1F93CF93DF93EB01C81BD90BC83FD2
:105A100088EFD8079CF5C05FD14F1091D9021230A2
:105A2000B9F1133008F04DC0112309F472C01130E0
:105A300009F061C00E94CB11811184C08091AB0D2F
:105A4000813009F49FC0C953DF4FCF38D14008F4EB
:105A500088C08091AA0D813009F4A2C084E50E941B
:105A60006D110E9479111093D9028091AA0D8111B4
:105A700085C081E08093AA0D80E03EC0C93097E0E8
:105A8000D9075CF2C051DE401091D902123049F6BC
:105A90000E94CB11882309F460C01093D902D7FD6E
:105AA00021C080E192E00E94DC1E811129C0C43631
:105AB000D1050CF591E09093AB0DDF91CF911F9143
:105AC0000895133061F31430B1F40E94CB118111A9
:105AD00039C01092AB0D1092D90281E0DF91CF91C5
