:100000000C94C6010C94E7010C94E7010C94E701F1
:100010000C94E7010C94E7010C94E7010C94E701C0
:100020000C94E7010C94E7010C94E7010C94E701B0
:100030000C94E7010C94E7010C94E7010C94E701A0
:100040000C94E7010C94E7010C94E7010C94E70190
:100050000C94E7010C94E7010C94E7010C94E70180
:100060000C94E7010C94193F0C94E7010C94D63ED4
:100070000C94E7010C94E7010C94E7010C94E70160
:100080000C94E7010C94E7010C94E7010C94E70150
:100090000C9481430C94E7010C94B0430C94E70159
:1000A0000C94E7010C94E7010C94E7010C94E70130
:1000B0000C94E7010C94E7010C94E7010C94E70120
:1000C0000C94E7010C94E7010C94E701E903EB03BE
:1000D000E803ED03E803E803E803EF03E803E803BC
:1000E000E803E803E803E803E803F103E803E803AF
:1000F000E803E803E803E803E803E803E803E803A8
:10010000E803E803E803E803E803F303E803E8038C
:10011000E803E803E803E803E803E803E803E80387
:10012000E803E803E803E803E803E803E803E80377
:10013000E803E803E803E803E803E803E803E80367
:10014000E803E803E803E803E803E7030104030422
:100150000004050400040004000407040004000473
:100160000004000400040004000409040004000466
:10017000000400040004000400040004000400045F
:10018000000400040004000400040B040004000444
:10019000000400040004000400040004000400043F
:1001A000000400040004000400040004000400042F
:1001B000000400040004000400040004000400041F
:1001C00000040004000400040004FF031C042104D4
:1001D0001B0426041B041B041B042B041B041B040C
:1001E0001B041B041B041B041B0430041B041B0402
:1001F0001B041B041B041B041B041B041B041B0407
:100200001B041B041B041B041B0435041B041B04DC
:100210001B041B041B041B041B041B041B041B04E6
:100220001B041B041B041B041B041B041B041B04D6
:100230001B041B041B041B041B041B041B041B04C6
:100240001B041B041B041B041B0417044604460464
:10025000400446044004400440044F044004400469
:10026000400440044004400440045404400440045A
:10027000400440044004400440044004400440045E
:100280004004400440044004400449044004400445
:10029000400440044004400440044004400440043E
:1002A000400440044004400440044004400440042E
:1002B000400440044004400440044004400440041E
:1002C000400440044004400440045C044F2A5A2A7D
:1002D000632A6D2A762A7F2A3B2A452A6364696E3F
:1002E0006F70737578585B000C944F040C947F2AE0
:1002F0000C94632A0C9443480C9416430C940B04FE
:100300000C94762A0C94F3030C9446040C94350454
:100310000C9417040C945A2A0C9449040C94070466
:100320000C9400040C9401040C94ED030C9426042A
:100330000C9430040C94F1030C94E8030C945C04CA
:100340000C94EB030C942B040C94EF030C944004DA
:100350000C9438430C9454040C94E9030C94090451
:100360000C941B040C94E7030C944F2A0C94050482
:100370000C94FF030C94452A0C943B2A0C946D2A90
:100380000C941C040C9421040C94030411241FBE2F
:10039000CFEFD1E2DEBFCDBF00E00CBF12E0A0E0A6
:1003A000B2E0ECE6F7EA00E00BBF02C007900D9266
:1003B000A23EB107D9F712E1A2EEB2E001C01D9250
:1003C000A235B107E1F70E9498470C94B4530C94FE
:1003D0000000CF93DF93EC010E94933B8C1B9D0B9D
:1003E000893027E092071CF080519E4006C0883F6C
:1003F00028EF920714F4805F914F6AE070E00E944A
:10040000E847CB01DF91CF910895FC019A01641B6D
:10041000750BCB0160E17EE00E94E8476E9FC00152
:100420006F9F900D7E9F900D1124820F931F089552
:1004300060E071EE80E090E00E94F1430E948E192E
:100440000E94AC190E946A1C84E690E00E94970CFE
:100450000E94521E0E940E370E94193B80E10E94AA
:10046000680481110E947F3B0E945F3B813051F004
:100470002FEF81EE94E0215080409040E1F700C0E2
:100480000000F2CF0895CF93C091E202C130B1F0E5
:1004900018F0C230D1F050C081E00E949D04882342
:1004A00051F081E08093E2020E94933B9093FE0220
:1004B0008093FD0241C01092E2023EC00E94FB0FF9
:1004C0008823B9F1C093E20237C00E94DC0C882374
:1004D00081F18091FD029091FE020E94E9019F93BB
:1004E0008F9388EB92E09F938F930E94184483E050
:1004F0000E94690A9F938F9389EC92E09F938F9358
:100500000E94184484E00E94690A9F938F9386EDAD
:1005100092E09F938F930E94184484EF91E00E9491
:10052000970C8DB79EB70C960FB6F8949EBF0FBE72
:100530008DBF82E08093E202CF9108950E94A603CE
:100540000E945F040E946F070E943B0B0C94650C95
:10055000649974C081E080931303909116039923EA
:1005600009F4B5C010921703659952C081E08093D9
:100570000E0390911103992309F498C0109212036D
:10058000669932C081E08093040390910703992318
:1005900009F47BC0109208036799AAC081E0809398
:1005A000FF0290910203992309F45EC010920303A5
:1005B000489912C091E09093090380910C03811136
:1005C00010C080910D038F5F80930D0380910D0308
:1005D000843109F4B4C0089580910C03813009F48A
:1005E0009DC010920D03089580910703813091F60C
:1005F000909108039F5F90930803909108039431B2
:1006000059F6809306031092070310920803C4CF93
:1006100080911103813009F0B1CF909112039F5F57
:100620009093120390911203943109F0A9CF809313
:1006300010031092110310921203A2CF809116039F
:10064000813009F08FCF909117039F5F909317032C
:1006500090911703943109F087CF8093150310927E
:1006600016031092170380CF909103039F5F90931E
:10067000030390910303943109F09ACF8093000310
:10068000809302031092030393CF909108039F5F1E
:100690009093080390910803943109F07DCF8093E3
:1006A0000503809307031092080376CF90911203FD
:1006B0009F5F9093120390911203943109F060CFE1
:1006C00080930F03809311031092120359CF9091DE
:1006D00017039F5F9093170390911703943109F0CC
:1006E00043CF8093140380931603109217033CCFDB
:1006F00080910203813009F059CF909103039F5FED
:100700009093030390910303943109F051CF8093A8
:10071000010310920203109203034ACF90910D033C
:100720009F5F90930D0390910D03943109F053CF87
:1007300080930B0310920C0310920D030895909375
:100740000A0390930C0310920D0308958FE787B965
:100750008EE788B9109213031092140310921503B8
:10076000109216031092170310920E0310920F03AB
:1007700010921003109211031092120310920403AE
:1007800010920503109206031092070310920803BB
:100790001092FF02109200031092010310920203C4
:1007A000109203031092090310920A0310920B0394
:1007B00010920C0310920D03089590E0FC01319704
:1007C000E034F10528F4EA59FF4F0C946D4946983E
:1007D000089540980895419808954298089543983F
:1007E0000895449808954598089590E0FC01319744
:1007F000E034F10528F4EA55FF4F0C946D49469A10
:100800000895409A0895419A0895429A0895439A06
:100810000895449A0895459A089590E0FC0131970F
:10082000E034F10540F4EA51FF4F0C946D4988B172
:1008300090E4892788B9089588B191E0892788B91B
:10084000089588B192E0892788B9089588B194E025
:10085000892788B9089588B198E0892788B90895CB
:1008600088B190E1892788B9089588B190E28927F5
:1008700088B9089590E0FC013197E034F10510F05B
:1008800080E00895EA5DFE4F0C946D4986B180E0EA
:10089000089586B1807290E095958795089586B108
:1008A00083FB882780F9089586B1807190E0959543
:1008B000879595958795089586B180740895509889
:1008C000589A8DB18F708DB98EB1806F8EB90895A1
:1008D000803259F160F4813001F18031A1F48091CE
:1008E0001303882381F01092130381E0089580346C
:1008F00061F0803841F48091FF02882321F010924A
:10090000FF0281E0089580E0089580910403882328
:10091000D1F31092040381E00895809109038823A4
:1009200091F31092090381E0089580910E038823CA
:1009300051F310920E0381E00895803259F160F472
:10094000813001F18031A1F480911403882381F07A
:100950001092140381E00895803461F0803841F4EE
:1009600080910003882321F01092000381E0089514
:1009700080E00895809105038823D1F31092050348
:1009800081E0089580910A03882391F310920A036D
:1009900081E0089580910F03882351F310920F0393
:1009A00081E00895803259F160F4813001F18031A5
:1009B000A1F480911503882381F01092150381E042
:1009C0000895803461F0803841F4809101038823D8
:1009D00021F01092010381E0089580E00895809154
:1009E00006038823D1F31092060381E008958091D5
:1009F0000B03882391F310920B0381E008958091FB
:100A00001003882351F31092100381E00895909110
:100A10007C00987F90937C0020917C00982F9770A9
:100A2000922B90937C00882359F0815020E830E08D
:100A300002C0359527958A95E2F7209522B9089549
:100A400082B18C6F82B90895CF92DF92EF92FF92BC
:100A5000CF93DF93CDB7DEB72E970FB6F894DEBFF6
:100A60000FBECDBF8EE0EAEAF2E0DE011196019002
:100A70000D928A95E1F789819A819C01220F331F9B
:100A8000220F331F220F331F281B390B40E050E089
:100A9000C12CB4ECDB2EB9E0EB2EF12CC701B60172
:100AA0000E94FC47215031092F3F310509F008F41D
:100AB0009BC08B819C819C01220F331F220F331F0F
:100AC000220F331F281B390B40E050E0C701B6014D
:100AD0000E94FC47215031092F3F310509F008F4ED
:100AE0008AC08D819E819C01220F331F220F331FEC
:100AF000220F331F281B390B40E050E0C701B6011D
:100B00000E94FC47215031092F3F310509F008F4BC
:100B100074C08F8198859C01220F331F220F331FD1
:100B2000220F331F281B390B40E050E0C701B601EC
:100B30000E94FC47215031092F3F310509F008F48C
:100B40005EC089859A859C01220F331F220F331FB7
:100B5000220F331F281B390B40E050E0C701B601BC
:100B60000E94FC47215031092F3F310509F008F45C
:100B700048C08B859C859C01220F331F220F331F99
:100B8000220F331F281B390B40E050E0C701B6018C
:100B90000E94FC47215031092F3F3105A1F198F106
:100BA0008D859E859C01220F331F220F331F220F3C
:100BB000331F281B390B40E050E0C701B6010E94EB
:100BC000FC47215031092F3F3105F9F0F0F02E9606
:100BD0000FB6F894DEBF0FBECDBFDF91CF91FF906F
:100BE000EF90DF90CF90089580E02093B3008F5F67
:100BF0008093B100ECCF81E0F8CF82E0F6CF83E0C4
:100C0000F4CF84E0F2CF85E0F0CF86E0EECFEAE7E4
:100C1000F0E0808180648083089580917A008295DD
:100C20008170089587B3869581700895B99B089562
:100C300087B3876087BB1092B200909108048091BF
:100C40007C00887F80937C0020917C00892F8770B6
:100C5000822B80937C00992309F420C12FEF290F68
:100C600080E890E002C0959587952A95E2F78095F7
:100C700082B920E42A95F1F780917A00806480930C
:100C80007A0080917A0084FFFCCF80917A008061A5
:100C900080937A008091780090917900E091080427
:100CA000F0E0EE0FFF1FE75FFB4F91838083E09141
:100CB00008042091190330E1E39FF0011124E20FB1
:100CC000F11DEE0FFF1FE85DFC4F91838083E091E3
:100CD000080480E2E89FF0011124E85DFC4F808168
:100CE0009181E091080420E2E29FF0011124E85D87
:100CF000FC4F22813381820F931FE091080430E280
:100D0000E39FF0011124E85DFC4F24813581820FBF
:100D1000931FE091080420E2E29FF0011124E85DB6
:100D2000FC4F26813781820F931FE091080430E247
:100D3000E39FF0011124E85DFC4F20853185820F8F
:100D4000931FE091080420E2E29FF0011124E85D86
:100D5000FC4F22853385820F931FE091080430E217
:100D6000E39FF0011124E85DFC4F24853585820F57
:100D7000931FE091080420E2E29FF0011124E85D56
:100D8000FC4F26853785820F931FE091080430E2DF
:100D9000E39FF0011124E85DFC4F20893189820F27
:100DA000931FE091080420E2E29FF0011124E85D26
:100DB000FC4F22893389820F931FE091080430E2AF
:100DC000E39FF0011124E85DFC4F24893589820FEF
:100DD000931FE091080420E2E29FF0011124E85DF6
:100DE000FC4F26893789820F931FE091080430E277
:100DF000E39FF0011124E85DFC4F208D318D820FBF
:100E0000931FE091080420E2E29FF0011124E85DC5
:100E1000FC4F228D338D820F931FE091080430E246
:100E2000E39FF0011124E85DFC4F248D358D820F86
:100E3000931FE091080420E2E29FF0011124E85D95
:100E4000FC4F268D378D820F931F929582958F7060
:100E500089279F708927E0910804F0E0EE0FFF1FBB
:100E6000E65EFC4F91838083209108042630D1F008
:100E700020910804211107C0209118032130E1F0CE
:100E80008E3A914008F18091080490E0019667E065
:100E900070E00E94E84780930804089582B18C6F47
:100EA00082B9E7CE2091190330E02F5F3F4F2F70BA
:100EB000332720931903DCCF863D914020F30E9415
:100EC000EB0A10921803DFCF4EE150E06EE170E0C4
:100ED00085E00E94F80A81E080931803D4CFCF9276
:100EE000DF92EF92FF92CF93DF93CDB7DEB72E97CD
:100EF0000FB6F894DEBF0FBECDBF87E880937A00AF
:100F000010927B0010927C0010927E0010927D0067
:100F10008CEF81B982B986E692E090930A048093BF
:100F2000090490931B0380931A03909329038093E1
:100F3000280390932B0380932A0390932D0380938F
:100F40002C0390932F0380932E039093310380936F
:100F5000300390933303809332039093350380934F
:100F6000340390933703809336039093390380932F
:100F7000380390933B0380933A0390933D0380930F
:100F80003C0390933F0380933E03909341038093EF
:100F900040039093430380934203909345038093CF
:100FA0004403909347038093460390930C048093EB
:100FB0000B0490931D0380931C039093490380932B
:100FC000480390934B0380934A0390934D0380937F
:100FD0004C0390934F0380934E039093510380935F
:100FE000500390935303809352039093550380933F
:100FF000540390935703809356039093590380931F
:10100000580390935B0380935A0390935D038093FE
:101010005C0390935F0380935E03909361038093DE
:1010200060039093630380936203909365038093BE
:101030006403909367038093660390930E048093F8
:101040000D0490931F0380931E0390936903809374
:10105000680390936B0380936A0390936D0380936E
:101060006C0390936F0380936E039093710380934E
:10107000700390937303809372039093750380932E
:10108000740390937703809376039093790380930E
:10109000780390937B0380937A0390937D038093EE
:1010A0007C0390937F0380937E03909381038093CE
:1010B00080039093830380938203909385038093AE
:1010C0008403909387038093860390931004809306
:1010D0000F049093210380932003909389038093BE
:1010E000880390938B0380938A0390938D0380935E
:1010F0008C0390938F0380938E039093910380933E
:10110000900390939303809392039093950380931D
:1011100094039093970380939603909399038093FD
:10112000980390939B0380939A0390939D038093DD
:101130009C0390939F0380939E039093A1038093BD
:10114000A0039093A3038093A2039093A50380939D
:10115000A4039093A7038093A60390931204809313
:10116000110490932303809322039093A903809307
:10117000A8039093AB038093AA039093AD0380934D
:10118000AC039093AF038093AE039093B10380932D
:10119000B0039093B3038093B2039093B50380930D
:1011A000B4039093B7038093B6039093B9038093ED
:1011B000B8039093BB038093BA039093BD038093CD
:1011C000BC039093BF038093BE039093C1038093AD
:1011D000C0039093C3038093C2039093C50380938D
:1011E000C4039093C7038093C60390931404809321
:1011F000130490932503809324039093C903809351
:10120000C8039093CB038093CA039093CD0380933C
:10121000CC039093CF038093CE039093D10380931C
:10122000D0039093D3038093D2039093D5038093FC
:10123000D4039093D7038093D6039093D9038093DC
:10124000D8039093DB038093DA039093DD038093BC
:10125000DC039093DF038093DE039093E10380939C
:10126000E0039093E3038093E2039093E50380937C
:10127000E4039093E7038093E6039093160480932E
:10128000150490932703809326039093E90380939A
:10129000E8039093EB038093EA039093ED0380932C
:1012A000EC039093EF038093EE039093F10380930C
:1012B000F0039093F3038093F2039093F5038093EC
:1012C000F4039093F7038093F6039093F9038093CC
:1012D000F8039093FB038093FA039093FD038093AC
:1012E000FC039093FF038093FE039093010480938B
:1012F0000004909303048093020490930504809368
:10130000040490930704809306041092080410923A
:1013100019031092180382E08093B0001092B2007B
:101320001092700087E087BB8EE0EAEAF2E0DE010F
:10133000119601900D928A95E1F789819A819C011D
:10134000220F331F220F331F220F331F281B390B8D
:1013500040E050E0C12C64ECD62E69E0E62EF12C82
:10136000C701B6010E94FC47215031092F3F3105CA
:1013700009F008F49BC08B819C819C01220F331FD4
:10138000220F331F220F331F281B390B40E050E080
:10139000C701B6010E94FC47215031092F3F31059A
:1013A00009F008F48AC08D819E819C01220F331FB1
:1013B000220F331F220F331F281B390B40E050E050
:1013C000C701B6010E94FC47215031092F3F31056A
:1013D00009F008F474C08F8198859C01220F331F97
:1013E000220F331F220F331F281B390B40E050E020
:1013F000C701B6010E94FC47215031092F3F31053A
:1014000009F008F464C089859A859C01220F331F76
:10141000220F331F220F331F281B390B40E050E0EF
:10142000C701B6010E94FC47215031092F3F310509
:1014300009F008F44AC08B859C859C01220F331F5C
:10144000220F331F220F331F281B390B40E050E0BF
:10145000C701B6010E94FC47215031092F3F3105D9
:1014600091F188F18D859E859C01220F331F220FFB
:10147000331F220F331F281B390B40E050E0C701F8
:10148000B6010E94FC47215031092F3F3105C9F0B8
:10149000C0F02E960FB6F894DEBF0FBECDBFDF9121
:1014A000CF91FF90EF90DF90CF90089580E0209350
:1014B000B3008F5F8093B100ECCF81E0F8CF82E082
:1014C000F6CF86E0F4CF85E0F2CF84E0F0CF83E082
:1014D000EECFE82FF0E0EE0FFF1FE75FFB4F8081BC
:1014E00091810895E82FF0E0EE0FFF1FE65EFC4FBC
:1014F000808191810895C19B11C0C19A109295007D
:10150000109294008091E702811109C080911E041D
:10151000813081F080911704813061F008958091CD
:101520001E04813019F1809117048130F9F0109276
:10153000E702089581E08093E7028091180490917A
:10154000190401979093E6028093E50220911A0412
:1015500030911B043093E4022093E302892BF1F6CF
:10156000809180008F738093800008958091E502C0
:101570009091E602009741F001979093E6028093E4
:10158000E502892B59F6ECCF8091E3029091E402B9
:10159000009731F001979093E4028093E30208955D
:1015A000809180008F7B8093800080918000806894
:1015B0008093800080911804909119049093E60222
:1015C0008093E50280911A0490911B049093E402A9
:1015D0008093E302089580911704813009F0089503
:1015E000809180008F73809380001092170408957B
:1015F00090911704992359F19130A9F11092870025
:1016000090E0FC01E15EFB4F208120938600109268
:101610008900208126952093880070931904609397
:10162000180450931B0440931A0490931D04809354
:101630001C04809180008F7B8093800080918000CB
:1016400080688093800081E08093170408959091D2
:101650001E04913099F6909180009F7390938000C2
:1016600010921E04CBCF909180009F7390938000C6
:1016700010921704C3CF259A2D9810926F009FE205
:1016800096BB1092850010928400E0E8F0E0108292
:1016900080818E7F8083808182608083E1E8F0E0BA
:1016A0001082808188608083808180618083109235
:1016B0008900109288008081887F80838081856086
:1016C00080831092710098BB109295001092940044
:1016D000E0E9F0E0108280818E7F808380818D7FC1
:1016E0008083E1E9F0E010828081886080838081DE
:1016F0008F7E808398E1909399008AE6809398008A
:101700008081887F80838081846080838DE1809365
:101710001F048AE1809320049093210486E1809342
:10172000220484E18093230482E18093240480E1F5
:101730008093250410921E041092170481E090E01B
:10174000909319048093180490931B0480931A04B7
:1017500010921D0410921C04089590911704911189
:101760002CC090911E04911128C01092870090E027
:10177000FC01E15EFB4F20812093860010928900DE
:10178000208126952093880090931D0480931C044B
:10179000709319046093180450931B0440931A0427
:1017A000809180008F7B8093800080918000806892
:1017B0008093800081E080931E0408959091170427
:1017C000911104C090911E04913009F00895109277
:1017D000870090E0FC01E15EFB4F208120938600B2
:1017E00010928900208126952093880090931D04F3
:1017F00080931C04089520911704211104C02091A6
:101800001E04213009F00895909319048093180460
:10181000089520911704211104C020911E04213045
:1018200009F0089590931B0480931A040895809101
:101830001704811104C080911E04813009F00895BD
:10184000809180008F738093800010921E04089511
:1018500080911E040895809117040895D19B19C0AA
:10186000D19A109225011092240140912C0480916C
:10187000E8029091E902413069F02091260430910C
:10188000270482179307C9F001969093E902809389
:10189000E80208952091290430912A0482179307C1
:1018A00099F71092E9021092E8024093280480917F
:1018B0002101887F8093210108951092E9021092FE
:1018C000E80281E080932B040895109273008FE268
:1018D0008ABB1092250110922401E0E2F1E010820F
:1018E00080818E7F808380818D7F8083E1E2F1E043
:1018F000108280818860808380818F7E808388E1F0
:10190000809329018AE6809328018081887F8083E3
:1019100010922C0410922A04109229041092270489
:10192000109226041092280410922B04089510920D
:101930002C049C013695279536952795ABE7B4E1A5
:101940000E94C74796958795909327048093260415
:1019500010922B0410922501109224018FE28ABB71
:10196000E1E2F1E08081887F8083808184608083F0
:10197000089521E020932C049C01369527953695F7
:101980002795ABE7B4E10E94C7479695879590935A
:101990002A048093290410922804109225011092A1
:1019A00024018FE28ABBE1E2F1E08081887F8083BD
:1019B000808184608083089580912B04813011F0B0
:1019C00080E0089510922B040895809128048130BE
:1019D00011F080E00895109228040895E1E2F1E00A
:1019E0008081887F8083D19A1092250110922401F2
:1019F00010922B04109228040895109272008FE226
:101A000089BB1092A5001092A400E0EAF0E01082D9
:101A100080818E7F808380818D7F8083E1EAF0E00A
:101A2000108280818860808380818F7E80838DE3B7
:101A30008093A90088E08093A8008081887F8083BC
:101A40008081826080830895C99B07C0C99A1092E3
:101A5000A5001092A40081E0089580E00895AF925F
:101A6000BF92CF92DF92EF92FF920F931F93CF938B
:101A7000DF931F921F92CDB7DEB7CE0101960E9471
:101A80008819E1E2F5E049815A81BAE5AB2EB1E16E
:101A9000BB2ED12C01E010E085E0C82E1FC0C9018B
:101AA000825D9B4FDC01CC92C901815D9B4FDC01C3
:101AB000CC92CB01880F991F82559B4F225D3B4FE3
:101AC000DC012D933C93D39470964E5F5F4FBFEF34
:101AD000AB1ABB0A87E0E132F807D9F1808188238D
:101AE00099F3DA018D919C919F0127503109D90119
:101AF0002D913C91820F931FD5012C91820F911D46
:101B000027FD9A956D2D70E09B01220F331F220F48
:101B1000331FD901A05DBB4F8C93D901AF5CBB4F84
:101B20009C93CF010197DC018C91882309F4B7CFF6
:101B30008F70D80102C0AA0FBB1F8A95E2F7CD01B2
:101B4000D901A25DBB4F8C93D901A15DBB4F8C9392
:101B5000B0CFDD2061F00EEA14E024E030E04CE18B
:101B600050E062EF74E080912D040E9428420F90B3
:101B70000F90DF91CF911F910F91FF90EF90DF9029
:101B8000CF90BF90AF90089590E1899FF00111240C
:101B9000EE5EFA4F6687089590E1899FF001112467
:101BA000EE5EFA4F8685089590E1899FF001112439
:101BB000EE5EFA4F71876087089590E1899FF0018A
:101BC0001124EE5EFA4F80859185089590E1899FFA
:101BD000F0011124EE5EFA4F8785089590E1899F08
:101BE000F0011124EE5EFA4F8285089590E1899FFD
:101BF000F0011124EE5EFA4F84850895C99B15C04B
:101C0000C99A1092A5001092A4000E940B3781116E
:101C10000DC00E94FE0F0E94CA180E9447310E9408
:101C20000B37811106C00C942F0D08950E947C364D
:101C3000F0CF0E948636F7CF2F923F924F925F925D
:101C40006F927F928F929F92AF92BF92CF92DF92CC
:101C5000EF92FF920F931F93CF93DF9300D0CDB7F6
:101C6000DEB7482E19820E94F53F882309F452C13D
:101C70002FEF89E698E1215080409040E1F700C0C5
:101C80000000E2E1F5E041E255E025E0118210823A
:101C90001382128215821482178216821186108690
:101CA000DA011C92CA010197DC012C93138612867B
:101CB000158614867096405F5F4FB7E0E231FB07F0
:101CC00029F71092EE041092EF041092F004109293
:101CD000F10462EF74E0CE0101960E944A40109236
:101CE0002D048981882309F418C1312C9CE2892EA6
:101CF00099249394AA24AA9423E0B22EC12C32E012
:101D0000D32E5524539445E0642EEE24E394F12C15
:101D100062E0262E09C081159C4009F4C4C03394AA
:101D20008981381608F069C0E32DF0E0EE50FB4FD2
:101D30007080872D0E94513E8C30910521F08C32AD
:101D4000E1E09E0741F7872D0E943334F0E17F9E4A
:101D5000B00111248B010E5E1A4FD80111969C928E
:101D60008E921396BC92AE92129715961C921E926A
:101D700014971796DC92CE921697872D6A837B83F1
:101D80000E949035F801918780876A817B81AB0141
:101D9000425E5A4F645E7A4F872D0E94B732D80157
:101DA0001F965C921F971E966C9280912D048F5FF8
:101DB00080932D04A70102C0440F551F7A94E2F7C7
:101DC000662757FD6095762F8091EE049091EF0481
:101DD000A091F004B091F104842B952BA62BB72B86
:101DE0008093EE049093EF04A093F004B093F10479
:101DF00033948981381608F497CF80912D044816C2
:101E000009F485C044E650E06AE070E084E00E9496
:101E1000F80A109272008FE289BB1092A50010920E
:101E2000A4001092A0008091A0008E7F8093A0005B
:101E30008091A0008D7F8093A0001092A1008091DE
:101E4000A10088608093A1008091A1008F7E809383
:101E5000A1008DE38093A90088E08093A800809181
:101E6000A100887F8093A1008091A100826080936F
:101E7000A1000E948F0F80912D040F900F900F9062
:101E8000DF91CF911F910F91FF90EF90DF90CF9056
:101E9000BF90AF909F908F907F906F905F904F908A
:101EA0003F902F900895872D0E943334E0E17E9E6D
:101EB000B00111248B010E5E1A4FE4EBF0E0D80163
:101EC0001196FC93EE931396BC92AE9212971596D0
:101ED0001C921E9214971796DC92CE921697872D1D
:101EE0006A837B830E949035D80119969C938E93C8
:101EF00018976A817B81AB01425E5A4F645E7A4FCC
:101F0000872D0E94B732F801278666864ECF0E9441
:101F1000EB0A7FCF0E94BF3FABCE80E070CF109224
:101F20008E0C1092D00B8FEF8093D00C8093CF0942
:101F300080938D0C1092CF0C0895CF93C82F60ED35
:101F400079E00E948418811102C0C093CF09CF911B
:101F5000089510928E0C1092100C10920F0C10928B
:101F6000CE091092CD091092CE0C1092CD0C83E0C8
:101F70008093700D10928D0C8091DF098093CC09B5
:101F80001092D00CE1E2F5E080E090E006C070969F
:101F9000029627E0E132F20709F120812130B9F7FA
:101FA000DF0117972D913C91DC01A157B34F2D9381
:101FB0003C93DC01AE5CB24F1D921C92DC01A15B34
:101FC000B34F1D921C92DC01AE5EB84F1D921C9265
:101FD0007096029627E0E132F207F9F681E08093ED
:101FE000CF0C80919011806180939011089581E0D1
:101FF0008093D00B08958091CF0C08952F923F923B
:102000004F925F926F927F928F929F92AF92BF9208
:10201000CF92DF92EF92FF920F931F93CF93DF93B4
:10202000CDB7DEB7A3970FB6F894DEBF0FBECDBF16
:102030008091CF0C882309F49AC080910F0C909165
:10204000100C4091CD095091CE098417950708F0E6
:10205000A7C08C010F5F1F4F1A8709871093100CC0
:1020600000930F0C1091700D1D87133009F47FC081
:102070008091CD099091CE098C0120E030E0098B50
:102080001A8B2B8B3C8B8C01015011091E8B0D8BF5
:1020900002EF1CE07AE1A72E75E0B72EE0E5CE2E28
:1020A000E7E0DE2EF2E3EF2EFDE0FF2EA2E14A2E66
:1020B000A7E05A2EB1ED6B2EBBE07B2E812C912C2C
:1020C00080E090E0212C312C9BA38AA3C201230144
:1020D00094014801A60167017A0189013C0121C0F0
:1020E000BFEF2B1A3B0AEAA1FBA17096FBA3EAA360
:1020F000F2E08F0E911C0E5F1F4F20E1A20EB11C6B
:1021000032E0E30EF11C42E0C40ED11C52E0650E39
:10211000711C62E0460E511C8AA19BA18115924060
:1021200031F12AA13BA12E5E3A4F3A832983D9018E
:102130001F968C918130A1F6F801E15BF34F80810D
:102140009181892B09F06FC0F40180819181D501C3
:102150008D939C93F101E053F64F80A1A981BA8140
:102160001E968C93BDCF1092CF0C1092D00BA396DD
:102170000FB6F894DEBF0FBECDBFDF91CF911F9198
:102180000F91FF90EF90DF90CF90BF90AF909F9016
:102190008F907F906F905F904F903F902F90089519
:1021A0001092100C10920F0CE1E2F5E080E090E04C
:1021B00006C07096029607E0E132F007E1F0208158
:1021C0002130B9F7DF0117972D913C91DC01AE501A
:1021D000B34F2D933C93DC01AE5EB84F2D913C91F3
:1021E000DC01AE5CB24F2D933C937096029607E0F3
:1021F000E132F00721F78091700D882309F4C7C000
:10220000813009F492C1823009F45BC1833009F452
:102210002CC25E874D8780E090E0DA018A179B0729
:1022200008F0A5CF16CFBD85B1114AC0F6010190C7
:10223000F081E02DF88BEF87F701A081B1812F8528
:102240003889A21BB30B29853A850E94D647298974
:102250003A894B895C890E941E488F859889820F34
:10226000931FD3018D939C93D901B595A795EF85C5
:10227000F889AE0FBF1F29853A850E94D6479B017A
:10228000AC01A0E9B0E00E94DD472FE030E040E083
:1022900050E00E941E4869E055954795379527956F
:1022A0006A95D1F7F801E257F64F31832083D401C4
:1022B0008D919C91820F931FF501918380834ACF6A
:1022C000B13009F448C029853A854D895E892417C3
:1022D000350709F421C1F101EF52F34F80818111DB
:1022E0003AC0F6010190F081E02DF88BEF87DF0115
:1022F000B195A195B10929853A850E94D6472989CA
:102300003A894B895C890E941E488F859889820F83
:10231000931FD3018D939C93D901B595A795EF8514
:10232000F889AE0FBF1F29853A850E94D6479B01C9
:10233000AC01A0E9B0E00E94DD472FE030E040E0D2
:1023400050E00E941E4899E055954795379527958E
:102350009A95D1F7ACCFF201A081B18129853A8558
:102360000E94D64729893A894B895C890E941E4878
:10237000D4018D919C91820F931FF50191838083ED
:10238000D7018D919C91F30191838083E3CE81E00D
:102390008093700D2091300D3091310D0091F00C33
:1023A0001091F10C1A830983C801880F991F8901C4
:1023B000081B190B1E870D871093CE090093CD09BA
:1023C00009811A812017310709F4E5C0A801BFE48B
:1023D0002B2EBCE03B2E1EE8612E19E0712E00E58D
:1023E000802E07E0902E81ED482E8BE0582E01EDD7
:1023F0001CE061E275E0C901841B950B9C0140E083
:1024000050E029873A874B875C8795E0C92ED12C0D
:10241000E12CF12C788B6F8719C0EF85F8897096C5
:10242000F88BEF87F2E02F0E311C22E0620E711C58
:1024300032E0830E911C42E0440E511C0F5F1F4F8F
:102440006F8578896152774009F44BC0AF85B889B0
:102450008C91813011F7F8018081813009F446C0F8
:10246000F401A081B181F101A080B180F3018081EC
:102470009181A81AB90A29813A810E94D6479B0105
:10248000AC01660F771F881F991F620F731F841F8F
:10249000951F660F771F881F991F660F771F881F6C
:1024A000991FA70196010E941E48BB2757FDBA95A8
:1024B000A52F942F832FA81AB90AD201AD92BC92EE
:1024C000ACCF8091CD0C9091CE0C009709F4E1C077
:1024D00023E02093700D9093CE098093CD099E87C1
:1024E0008D8780E090E0AD85BE8598CEF101A0811A
:1024F000B181F30180819181A81BB90B2D853E85A7
:102500000E94D64729853A854B855C850E941E48E6
:10251000D2012D933C9381CFF801E157F34F808195
:102520009181D5018D939C9315CE82E08093700D9F
:102530007091F00C6091F10C7093CD096093CE090D
:10254000A1EDBBE0E1E2F5E080E090E08D0109C0A3
:10255000709602960E5F1F4FB7E0E132FB0709F459
:102560007DC020812130A1F79C01215B334FD9012F
:102570002D913C91D8014D915C91241B350BAC0100
:102580004257564FDA014D915C91241B350BD8010F
:102590002D933C93DDCFB1EDCB2EBBE0DB2E11EDC7
:1025A000E12E1CE0F12E81E295E000E010E045E034
:1025B000442E512C612C712C49011C0111C0F0E1F9
:1025C0002F0E311C22E0C20ED11C0E5F1F4F3FEFB9
:1025D000E31AF30A41E2241647E0340609F481CFF6
:1025E000D1018C91813059F7F70180818130C9F197
:1025F000F801E05BF84FA081B181F801E15BF34F96
:10260000A080B180F801E257F64F80819181A81A2D
:10261000B90A94010E94D6479B01AC01660F771F4F
:10262000881F991F620F731F841F951F660F771FE6
:10263000881F991F660F771F881F991FA30192019A
:102640000E941E48BB2757FDBA95A52F942F832FB4
:10265000A81AB90AF601B182A082B1CF7D876E8730
:1026600040CFD6011D921C92AACF1092700DA2E30A
:10267000BDE0E1E2F5E006C07096129607E0E132B7
:10268000F00749F080818130B9F711961C921E92B3
:10269000F3CF1092700D80918E0C813009F463CDD0
:1026A00080918D0C8F5F80938D0CA091E409A81709
:1026B00008F0C8C080E092E0EEE8F7E0A0EDB9E0F5
:1026C00001900D920197E1F78091D00C9091CF0984
:1026D000981721F09091DF099093CC0991E09093A5
:1026E0008D0C8093CF09A091E409B1E0AB1709F4F8
:1026F00084C26B2F70E08B010150110900241695E4
:1027000007950794169507950794102F002DA8019B
:102710004053564FFA01E258FF4F80812091E6095D
:10272000289FC001112496958795929582958F7068
:1027300089279F7089279093CE0C8093CD0CFA0146
:10274000E158FF4F3081329F900111243695279533
:10275000329522952F7023273F70232721153105AD
:1027600011F421E030E040918E0C413009F45EC25A
:10277000892B09F4C4C1AB1709F456C3E1ED4E2E01
:10278000ECE05E2EAFE8BCE07B010024F694E79419
:102790000794F694E7940794FE2CE02CA701405F81
:1027A000554F7A0180EC582F56034001579F900CEB
:1027B0001124E1E2F5E080E090E059013D01A7013C
:1027C00068010EC07096BFEF4B1A5B0A029602E0DA
:1027D000600E711C4E5F5F4F17E0E132F107A1F10F
:1027E0002081213079F79C012257364FD9011D9263
:1027F0001C929A01280D391D2C0D3D1DD9012D91DA
:102800003C9136FF18C0D3012D913C91B901E12CC8
:10281000F12C8C010E50134FD8016D937C93D30192
:102820002D933C939C01215B334FD901ED92FC9297
:10283000D2011C92C7CFD3016D917C917901E61A28
:10284000F70AE7CFB82F52CF95013093310D20937F
:10285000300D8091E80990E0AC01440F551F4217FC
:10286000530708F4E0C0C9010197969587959093A6
:10287000F10C8093F00C009709F0D9C01092310D43
:102880001092300D1E861D8619821A821B821C82B0
:102890001D821E821F82188661E06F87412C512C99
:1028A000198A1D8A1F8A188E198E71E07A8F1B8EE5
:1028B0001C8E1D8E1E8E1F8E18A219A270E5872EEB
:1028C00077E0972EE1ED6E2EECE07E2E01E215E032
:1028D000212C312C1BA30AA315C00AA11BA1005F48
:1028E0001F4F1BA30AA312E0810E911C22E0220EAF
:1028F000311C3FEF631A730A4AA15BA14152574052
:1029000009F484C0AAA1BBA18C91813031F7F101F7
:10291000EE5CF24F31812081932F990F990BA980A2
:10292000BA80CB80DC80ED80FE800F811885492F36
:10293000592F692F792F892F0E94744859016A01F4
:102940007B018C01F101E15BF34FA081B18120E0BB
:102950003AE00E94D6472CE030E040E050E00E9490
:102960001E48DA01C901550F220B322FA901298710
:102970003A874B875C87F3012081211122C09C019B
:10298000AD016985762F862F962F0E949549AA8CD6
:10299000BB8CCC8CDD8CEE8CFF8C08A119A10E9425
:1029A0003748D4012C9311963C93822F932F811595
:1029B000F4E09F070CF1EFEFF3E0D401ED93FC930B
:1029C0008CCF9C01AD016985762F862F962F0E94B2
:1029D0009549AF84B42CC52CD988ED88FF88088D23
:1029E000198D0E943748F40120833183822F932F61
:1029F0008115F4E09F07FCF681309C4F0CF06DCF01
:102A0000E1E0FCEFD401ED93FC9367CF8D859E85CB
:102A10009093CE098093CD0980910F0C9091100C6A
:102A2000AD85BE85FBCB9093F10C8093F00C4901F2
:102A3000A12CB12C880C991CAA1CBB1CC12CD12C1C
:102A400076019E878D87A0E0B0E0880F991FAA1FAE
:102A5000BB1F8C019D0140E050E0BA0189831A83BD
:102A60002B833C834D835E836F8378879401A5011C
:102A7000B601C7015801CB80DC80E12CF12C00E0CD
:102A800010E00E94954901E00E947349722E832E46
:102A9000942EB52F662E372EF82FE92F00E00E94D6
:102AA0008C492F87432E542E598B6D8B7F8B888FAB
:102AB000998F7A8E8B8E9C8EBD8F6E8E3F8EF8A3F3
:102AC000E9A3452DA0E00E949E4949F411E01F872B
:102AD000412C512C198A1D8A1F8A188E198E272D78
:102AE000382D492D5B2F662D732D8F2F9E2FA0E043
:102AF0000E949E4909F0E2CE21E02A8FD8CEAB1782
:102B000009F42AC1A1EDEA2EACE0FA2EBFE84B2E63
:102B1000BCE05B2EDB010024B695A7950794B69523
:102B2000A7950794BA2FA02DA05FB54F80EC482F32
:102B300046034001479F900C1124E1E2F5E080E05C
:102B400090E0772473945901A7011D0168010FC01B
:102B500070964F5F5F4F0296B2E04B0E511C02E041
:102B6000200E311C17E0E132F10709F46DCE20810F
:102B7000213071F79C012257364FD9011D921C92CA
:102B80009101280D391D2C0D3D1DD9012D913C9130
:102B900036FF2CC0D2012D913C91B901E12CF12CD2
:102BA0008C010E50134FD8016D937C93D2012D935D
:102BB0003C938C01015B134FD801ED92FC92D10143
:102BC0000D911C9116FD0FC06217730730F420178A
:102BD000310718F4DA017C92BBCF2617370718F4B7
:102BE00002171307B8F3DA011C92B2CFD2016D912C
:102BF0007C917901E61AF70AD3CF8091D00B81300E
:102C000009F4A0C08091CC0981508093CC0988231D
:102C100009F493C08091CF098093D00C811169C0D1
:102C200081E080938E0CB0918D0C63CD892B09F0DF
:102C300046C1AB1709F4F5C141ED442E4CE0542ECA
:102C4000AFE8BCE07B010024F694E7940794F69487
:102C5000E7940794FE2CE02CA701405F554F7A01C2
:102C600080EC582F56034001579F900C1124E1E24D
:102C7000F5E080E090E059013D01A7010FC070969A
:102C8000BFEF4B1A5B0A029622E0620E711C4E5F88
:102C90005F4F37E0E132F30709F4D6CD20812130D0
:102CA00071F79C012257364FD9011D921C929A014F
:102CB000280D391D200F311FD9012D913C91D301D1
:102CC00036FF35C02D913C917901C12CD12CBC012E
:102CD0006E50734FDB01ED92FC92D3012D933C9328
:102CE0009C01215B334FD901CD92DC92D2011C9221
:102CF000C6CF9091CF0998132AC080E092E0E0ED12
:102D0000F9E0AEE8B7E001900D920197E1F780910C
:102D10009D07882321F08091A207811103C081E0E3
:102D200080938E0CB0918D0CA091E409E2CCED90D3
:102D3000FC906901CE18DF08CACF8091E909809321
:102D4000D00C6CCF8091EA098093D00C67CF6EE8ED
:102D500077E00E948418DBCF41ED5CE0AFE8BCE097
:102D60000053164FE1E2F5E080E090E0BB24B3941D
:102D700069013A014D010DC07096BFEF6B1A7B0AD5
:102D8000029622E0820E911C37E0E132F30709F44B
:102D900049C04081413081F7AC014257564FDA01BA
:102DA0001D921C92A801480F591F405C5F4FDA0129
:102DB0004D915C9156FF2FC0D4014D915C91BA01A9
:102DC000E12CF12C9C012E50334FD9016D937C9353
:102DD000D4014D935C939C01215B334FD901ED925B
:102DE000FC929C012253384FD901ED90FC90F6FCE7
:102DF0000FC06417750730F44E155F0518F4D30142
:102E0000BC92BACF4617570718F4E416F506B8F384
:102E1000D3011C92B1CFD4016D917C917A01E61A55
:102E2000F70AD0CF960111CD41ED5CE0AFE8BCE0F0
:102E30000053164FE1E2F5E080E090E04A016901BD
:102E40005D010CC07096BFEF8B1A9B0A029622E0C0
:102E5000A20EB11C37E0E132F30721F3408141308B
:102E600089F7AC014257564FDA011D921C92A80116
:102E7000480F591F405C5F4FDA014D915C91D501BD
:102E800056FF17C04D915C91BA01E12CF12C9C01C9
:102E90002E50334FD9016D937C93D5014D935C93A4
:102EA000AC01415B534FDA01ED92FC92D4011C92CC
:102EB000C9CF6D917C917A01E61AF70AE8CFAB177A
:102EC00009F465C081ED482E8CE0582EAFE8BCE0D7
:102ED0007B010024F694E7940794F694E794079412
:102EE000FE2CE02CC701805F954F7C0180EC482FC1
:102EF00046034001479F900C1124E1E2F5E080E099
:102F000090E059013D01A70178010FC07096BFEF15
:102F10004B1A5B0A029602E0600E711C4E5F5F4F17
:102F200017E0E132F10709F48FCC2081213071F7ED
:102F30009C012257364FD9011D921C929A01280DEF
:102F4000391D2E0D3F1DD9012D913C9136FF18C022
:102F5000D3012D913C91B901C12CD12C8C010E5083
:102F6000134FD8016D937C93D3012D933C939C0117
:102F7000215B334FD901CD92DC92D2011C92C6CF96
:102F8000D3016D917C916901C61AD70AE7CFAFE8EA
:102F9000BCE041ED5CE00053164FE1E2F5E080E07B
:102FA00090E05D014A010DC070960296B2E0AB0E52
:102FB000B11C4FEF841A940A57E0E132F50709F487
:102FC00044CC4081413081F7AC014257564FDA0181
:102FD0001D921C92A801480F591F405C5F4FDA01F7
:102FE0004D915C91D50156FF16C04D915C91BA018F
:102FF000E12CF12CDC01AE50B34F6D937C93D501E5
:103000004D935C93AC01415B534FDA01ED92FC921E
:10301000D4011C92C9CF6D917C917A01E61AF70A0E
:10302000E9CFAFE8BCE041ED5CE00053164FE1E2D0
:10303000F5E080E090E05D014A010DC070960296D7
:10304000B2E0AB0EB11C4FEF841A940A57E0E132A4
:10305000F50709F4FACB4081413081F7AC014257C2
:10306000564FDA011D921C92A801480F591F405C6F
:103070005F4FDA014D915C9156FF17C0D5014D911C
:103080005C91BA01E12CF12CDC01AE50B34F6D9391
:103090007C93D5014D935C93AC01415B534FDA01B6
:1030A000ED92FC92D4011C92C9CFD5016D917C9117
:1030B0007A01E61AF70AE8CFFC0120E030E090E060
:1030C0008191980F2F5F3F4F211582E03807C1F79C
:1030D00081E0911180E0089520E032E0FC01A90137
:1030E000119241505040E1F70895FB0120E030E09B
:1030F000DC01A20FB31F4C9141932F5F3F4F21156D
:1031000042E03407A9F70895EF92FF920F931F93BF
:10311000CF93DF93F62EE72E082F10E020E030E06B
:1031200000511F4F2F4F3F4F89E0000F111F221FEB
:10313000331F8A95D1F7C62FD72F80E090E0DC01AE
:10314000AC01BD01400F511F621F731F6BBFFA011D
:10315000479149930196A11DB11D811542E0940745
:10316000A105B10569F7EF2DFE2D20E080E090E08C
:103170003191230F0196811532E09307C9F781E061
:10318000211180E08195DF91CF911F910F91FF90E8
:10319000EF9008954F925F926F927F928F929F92DD
:1031A000AF92BF92CF92DF92EF92FF921F93CF9395
:1031B000DF938091B30D813081F0DF91CF911F912A
:1031C000FF90EF90DF90CF90BF90AF909F908F9047
:1031D0007F906F905F904F9008951091710D113016
:1031E00061F783E00E94690A2091B60D3091B70D16
:1031F0007C01E21AF30A84E00E94690A2091B40D6E
:103200003091B50DEC01C21BD30B88E3E8168FEFAC
:10321000F8060CF470C089ECE816F10414F0109371
:10322000720DB701882777FD8095982F0E94BD4ABF
:103230006B017C0126E234EB47E95DE30E946D4BB4
:103240002B013C0129E33EE843E65EE3C701B601FA
:103250000E946D4B4B015C01BE01882777FD809574
:10326000982F0E94BD4A6B017C012DEC3CEC4CE494
:103270005EE30E946D4B0E948F4A7093840D6093B1
:10328000830D7093860D6093850DC301B2010E947A
:103290008F4A70938C0D60938B0DC301B2019058CF
:1032A0000E948F4A70938E0D60938D0DC501B401FD
:1032B0000E948F4A7093900D60938F0DC501B401E9
:1032C00090580E948F4A7093920D6093910D2DEC4F
:1032D0003CEC4CEC5DE3C701B6010E946D4B90588D
:1032E0000E948F4A7093940D6093930D7093960D86
:1032F0006093950D62CF82E08093720D92CFE82F9C
:10330000F0E0EE0FFF1FED58F24F8081918108959C
:1033100023E73DE0FC013183208308951092B70D2F
:103320001092B60D1092B50D1092B40D1092710D51
:103330001092B30D1092720D80E4E3E7FDE0DF011F
:103340001D928A95E9F708958091720D1092720D81
:1033500008951092720D08952F923F924F925F92AE
:103360006F927F928F929F92AF92BF92CF92DF9295
:10337000EF92FF920F931F93CF93DF93CDB7DEB7FA
:10338000E4970FB6F894DEBF0FBECDBF1092B70D15
:103390001092B60D1092B50D1092B40D82E390E02C
:1033A0000E94970C7E0185E1E80EF11CFE0131962A
:1033B000FAA7E9A71E01F9E22F0E311C812C912CEE
:1033C00054012401350104C00E942E0C0E941606EF
:1033D0000E94DC0C8823C1F383E00E94690A8C01FF
:1033E000F701819391937F0184E00E94690A6C0147
:1033F000E9A5FAA581939193FAA7E9A7B80180E01E
:1034000090E00E94BB4A9B01AC01C301B2010E9443
:10341000BF492B013C01B60180E090E00E94BB4A0D
:103420009B01AC01C501B4010E94BF494B015C0185
:10343000E214F30469F60E94EE0C20E030E040E272
:1034400051E4C301B2010E94274A6B017C0120E0D4
:1034500030E040E251E4C501B4010E94274A69A767
:103460007AA78BA79CA76D897E8980E090E00E9457
:10347000BB4AA70196010E94BE499B01AC010E9474
:103480006D4B20E030E0A9010E94BF492B013C01B7
:1034900069817A8180E090E00E94BB4A29A53AA523
:1034A0004BA55CA50E94BE499B01AC010E946D4BDF
:1034B00020E030E0A9010E94BF494B015C016F8907
:1034C000788D80E090E00E94BB4AA70196010E949F
:1034D000BE499B01AC010E946D4BA30192010E9469
:1034E000BF492B013C016B817C8180E090E00E9410
:1034F000BB4A29A53AA54BA55CA50E94BE499B01E4
:10350000AC010E946D4B9B01AC01C501B4010E944E
:10351000BF494B015C01698D7A8D80E090E00E948B
:10352000BB4AA70196010E94BE499B01AC010E94C3
:103530006D4B9B01AC01C301B2010E94BF492B013D
:103540003C016D817E8180E090E00E94BB4A29A50C
:103550003AA54BA55CA50E94BE499B01AC010E9407
:103560006D4B9B01AC01C501B4010E94BF494B01E9
:103570005C016B8D7C8D80E090E00E94BB4AA701CE
:1035800096010E94BE499B01AC010E946D4B9B01BC
:10359000AC01C301B2010E94BF492B013C016F8104
:1035A000788580E090E00E94BB4A29A53AA54BA50A
:1035B0005CA50E94BE499B01AC010E946D4B9B0122
:1035C000AC01C501B4010E94BF494B015C016D8D86
:1035D0007E8D80E090E00E94BB4AA70196010E9488
:1035E000BE499B01AC010E946D4B9B01AC01C30124
:1035F000B2010E94BF492B013C0169857A8580E0B8
:1036000090E00E94BB4A29A53AA54BA55CA50E9463
:10361000BE499B01AC010E946D4B9B01AC01C501F1
:10362000B4010E94BF494B015C016F8D78A180E01D
:1036300090E00E94BB4AA70196010E94BE499B01EF
:10364000AC010E946D4B9B01AC01C301B2010E9411
:10365000BF492B013C016B857C8580E090E00E9496
:10366000BB4A29A53AA54BA55CA50E94BE499B0172
:10367000AC010E946D4B9B01AC01C501B4010E94DD
:10368000BF494B015C0169A17AA180E090E00E94F2
:10369000BB4AA70196010E94BE499B01AC010E9452
:1036A0006D4B9B01AC01C301B2010E94BF492B01CC
:1036B0003C016D857E8580E090E00E94BB4A29A593
:1036C0003AA54BA55CA50E94BE499B01AC010E9496
:1036D0006D4B9B01AC01C501B4010E94BF494B0178
:1036E0005C016BA17CA180E090E00E94BB4AA70135
:1036F00096010E94BE499B01AC010E946D4B9B014B
:10370000AC01C301B2010E94BF492B013C016F858E
:10371000788980E090E00E94BB4A29A53AA54BA594
:103720005CA50E94BE499B01AC010E946D4B9B01B0
:10373000AC01C501B4010E94BF494B015C016DA100
:103740007EA180E090E00E94BB4AA70196010E9402
:10375000BE499B01AC010E946D4B9B01AC01C301B2
:10376000B2010E94BF496DA77EA78FA798AB698958
:103770007A8980E090E00E94BB4A29A53AA54BA532
:103780005CA50E94BE499B01AC010E946D4B9B0150
:10379000AC01C501B4010E94BF4969AB7AAB8BABE8
:1037A0009CAB6FA178A580E090E00E94BB4AA70186
:1037B00096010E94BE492B013C016B897C8980E007
:1037C00090E00E94BB4A29A53AA54BA55CA50E94A2
:1037D000BE494B015C01A3019201C301B2010E94E9
:1037E0006D4B2DA53EA54FA558A90E94BF4920E0CD
:1037F00030E040E251E40E94274A0E94D44B2B0162
:103800003C01A5019401C501B4010E946D4B29A999
:103810003AA94BA95CA90E94BF4920E030E040E2F0
:1038200051E40E94274A0E94D44B4B015C0120E0E6
:1038300030E040EA51E4C301B2010E94234A87FF0D
:103840000AC020E030E040EA51E4C501B4010E9422
:10385000234A87FD26C044E650E06AE070E084E039
:103860000E94F80A80918A118F7780938A1180E0F4
:10387000E4960FB6F894DEBF0FBECDBFDF91CF91B7
:103880001F910F91FF90EF90DF90CF90BF90AF907E
:103890009F908F907F906F905F904F903F902F9070
:1038A000089581E08093710DC701B6010E948F4A8F
:1038B0007093B70D6093B60D69A57AA58BA59CA5ED
:1038C0000E948F4A7093B50D6093B40D0E94EB0A6D
:1038D00081E0CECF81E08093B30D08951092B30DB7
:1038E00008958091B30D08950F931F93CF93DF93A5
:1038F000EC011091F802113091F108F442C012303D
:1039000081F01330C1F50E94FB0F81112CC0109281
:10391000BC0D1092F80281E0DF91CF911F910F91C1
:1039200008950E94FB0F81111EC01091BC0D809163
:10393000BB0D113009F454C0882309F44AC08A81B0
:103940000E949D0F1092BB0D0E94A90F82E08093F0
:10395000F80280E0DF91CF911F910F9108950E94AE
:10396000FB0F882321F11093F80280E0DF91CF91C3
:103970001F910F91089580E0DF91CF911F910F91DA
:1039800008958091BA0D882301F189810E949D0FCD
:103990000E94A90F8091BA0D8093BB0D81E08093A6
:1039A000F80280E0DF91CF911F910F91089500916F
:1039B000BC0D8091BB0D013009F18111C0CF8B810D
:1039C0000E949D0F1093BB0DBFCF88810E949D0F59
:1039D000DFCF8B810E949D0F81E08093BB0DB4CF20
:1039E000811114C08D810E949D0F1093BB0D0E9408
:1039F000A90F83E08093F80280E0B8CF811106C060
:103A00008D810E949D0F0093BB0DF1CF8C810E9490
:103A10009D0F1092BB0DEBCF1F93CF93DF93EC0163
:103A20001091F702113029F1A0F1123079F0133022
:103A300059F50E94FB0F811120C01092BC0D10920D
:103A4000F70281E0DF91CF911F9108950E94FB0F53
:103A5000811113C08091BB0D81115FC08091BC0D9D
:103A6000813009F447C08B810E949D0F1093F702AB
:103A700033C00E94FB0F882309F11093F70280E006
:103A8000DF91CF911F91089580E0DF91CF911F9139
:103A900008958091BA0D882349F189810E949D0F74
:103AA0000E94A90F8091BA0D8093BB0D81E0809395
:103AB000F70280E0DF91CF911F9108958091BB0DB7
:103AC00081111FC08091BC0D8130A1F08B810E94BB
:103AD0009D0F82E08093F70281E08093BB0D0E94EE
:103AE000A90F80E0DF91CF911F91089588810E94F6
:103AF0009D0FD6CF8D810E949D0F83E08093F702AA
:103B0000EBCF8A810E949D0F1092BB0D0E94A90FDE
:103B100082E08093F70280E0B3CF8A810E949D0FFC
:103B20001092BB0D0E94A90F1093F70280E0A8CF5E
:103B30001F93CF93DF93EC011091F602113031F116
:103B4000A8F1123079F0133061F50E94FB0F81115A
:103B500021C01092BC0D1092F60281E0DF91CF914E
:103B60001F9108950E94FB0F811114C08091BB0D1D
:103B7000813009F057C08091BC0D813009F45EC0DE
:103B80008A810E949D0F1093F60233C00E94FB0FA2
:103B9000882309F11093F60280E0DF91CF911F9105
:103BA000089580E0DF91CF911F9108958091BA0D23
:103BB000882341F189810E949D0F0E94A90F809165
:103BC000BA0D8093BB0D81E08093F60280E0DF9117
:103BD000CF911F9108958091BB0D8130B9F48091F0
:103BE000BC0D813059F18A810E949D0F82E0809343
:103BF000F6021092BB0D0E94A90F80E0DF91CF91D9
:103C00001F91089588810E949D0FD7CF8B810E94BC
:103C10009D0F1093BB0D0E94A90F82E08093F602C6
:103C200080E0BBCF8B810E949D0F81E08093BB0D14
:103C30000E94A90F1093F60280E0AFCF8C810E9402
:103C40009D0F83E08093F602D4CF8091BB0D882333
:103C500019F01092BB0D089581E08093BB0D08957B
:103C6000681B790B683F88EF780744F0693087E07C
:103C7000780714F060517E40CB010895605F714F6A
:103C8000CB010895680F791F77FD08C061318EE080
:103C9000780714F060517E40CB010895605F714F4A
:103CA000CB0108951092BC0D1092BA0D1092BB0D6D
:103CB0001092B90D1092B80D089581E08093BC0D5B
:103CC00008958093BA0D08951092B90D1092B80D11
:103CD00008958091B80D9091B90D0895CF93DF9319
:103CE000C091F802C13071F1D8F1C23071F0C33027
:103CF00099F50E94FB0F811129C01092BC0D109202
:103D0000F80281E0DF91CF9108950E94FB0F8111AD
:103D10001DC0C091BC0D8091BB0DC13009F451C0D4
:103D2000882309F446C0809102020E949D0F1092E0
:103D3000BB0D0E94A90F82E08093F80280E0DF9122
:103D4000CF9108950E94FB0F8823F9F0C093F802E9
:103D500080E0DF91CF91089580E0DF91CF910895C9
:103D60008091BA0D882301F1809101020E949D0F7C
:103D70000E94A90F8091BA0D8093BB0D81E08093C2
:103D8000F80280E0DF91CF910895D091BC0D809131
:103D9000BB0DD13029F18111C6CF809103020E9461
:103DA0009D0FC093BB0DC5CF809100020E949D0F57
:103DB000DFCF809103020E949D0F81E08093BB0DB5
:103DC000B8CF811116C0809105020E949D0FC0934B
:103DD000BB0D0E94A90F83E08093F80280E0B9CF69
:103DE000811107C0809105020E949D0FD093BB0DE9
:103DF000F0CF809104020E949D0F1092BB0DE9CF7D
:103E0000CF93DF93C091F802C13071F1D8F1C23085
:103E100071F0C33099F50E94FB0F811129C01092F7
:103E2000BC0D1092F80281E0DF91CF9108950E94BD
:103E3000FB0F81111DC0C091BC0D8091BB0DC13025
:103E400009F451C0882309F446C0809108020E94F9
:103E50009D0F1092BB0D0E94A90F82E08093F80283
:103E600080E0DF91CF9108950E94FB0F8823F9F045
:103E7000C093F80280E0DF91CF91089580E0DF9158
:103E8000CF9108958091BA0D882301F180910702A6
:103E90000E949D0F0E94A90F8091BA0D8093BB0DC7
:103EA00081E08093F80280E0DF91CF910895D09176
:103EB000BC0D8091BB0DD13029F18111C6CF80910D
:103EC00009020E949D0FC093BB0DC5CF80910602D1
:103ED0000E949D0FDFCF809109020E949D0F81E01B
:103EE0008093BB0DB8CF811116C080910B020E9448
:103EF0009D0FC093BB0D0E94A90F83E08093F80231
:103F000080E0B9CF811107C080910B020E949D0F04
:103F1000D093BB0DF0CF80910A020E949D0F1092AA
:103F2000BB0DE9CFCF93C091F702C13021F178F1F9
:103F3000C23069F0C33041F50E94FB0F81111FC0F0
:103F40001092BC0D1092F70281E0CF9108950E946B
:103F5000FB0F811114C08091BB0D81115DC0809158
:103F6000BC0D813009F443C080910F020E949D0F67
:103F7000C093F7022FC00E94FB0F8823E1F0C0938B
:103F8000F70280E0CF91089580E0CF91089580916D
:103F9000BA0D882339F180910D020E949D0F0E9475
:103FA000A90F8091BA0D8093BB0D81E08093F70239
:103FB00080E0CF9108958091BB0D811120C0809148
:103FC000BC0D8130A1F080910F020E949D0F82E014
:103FD0008093F70281E08093BB0D0E94A90F80E0DF
:103FE000CF91089580910C020E949D0FD8CF8091AF
:103FF00011020E949D0F83E08093F702EBCF809126
:104000000E020E949D0F1092BB0D0E94A90F82E02C
:104010008093F70280E0B6CF80910E020E949D0F40
:104020001092BB0D0E94A90FC093F70280E0AACFA7
:10403000CF93C091F602C13029F180F1C23069F00E
:10404000C33049F50E94FB0F811120C01092BC0DB6
:104050001092F60281E0CF9108950E94FB0F81112A
:1040600015C08091BB0D813009F054C08091BC0D0A
:10407000813009F45CC0809114020E949D0FC093AE
:10408000F6022FC00E94FB0F8823E1F0C093F602D6
:1040900080E0CF91089580E0CF9108958091BA0D8E
:1040A000882331F1809113020E949D0F0E94A90F75
:1040B0008091BA0D8093BB0D81E08093F60280E081
:1040C000CF9108958091BB0D8130B9F48091BC0DE2
:1040D000813069F1809114020E949D0F82E08093EB
:1040E000F6021092BB0D0E94A90F80E0CF910895B7
:1040F000809112020E949D0FD9CF809115020E94DB
:104100009D0FC093BB0D0E94A90F82E08093F60221
:1041100080E0BFCF809115020E949D0F81E08093C7
:10412000BB0D0E94A90FC093F60280E0B2CF809130
:1041300016020E949D0F83E08093F602D2CFCF93A8
:10414000C091F702C13021F178F1C23069F0C3307B
:1041500041F50E94FB0F81111FC01092BC0D1092FF
:10416000F70281E0CF9108950E94FB0F811114C0E6
:104170008091BB0D81115DC08091BC0D813009F42F
:1041800043C080911B020E949D0FC093F7022FC075
:104190000E94FB0F8823E1F0C093F70280E0CF91EB
:1041A000089580E0CF9108958091BA0D882339F168
:1041B000809119020E949D0F0E94A90F8091BA0D53
:1041C0008093BB0D81E08093F70280E0CF9108954A
:1041D0008091BB0D811120C08091BC0D8130A1F078
:1041E00080911B020E949D0F82E08093F70281E084
:1041F0008093BB0D0E94A90F80E0CF91089580911C
:1042000018020E949D0FD8CF80911D020E949D0F21
:1042100083E08093F702EBCF80911A020E949D0FFA
:104220001092BB0D0E94A90F82E08093F70280E0FC
:10423000B6CF80911A020E949D0F1092BB0D0E9472
:10424000A90FC093F70280E0AACFCF93C091F602E6
:10425000C13029F180F1C23069F0C33049F50E94C4
:10426000FB0F811120C01092BC0D1092F60281E06C
:10427000CF9108950E94FB0F811115C08091BB0D55
:10428000813009F054C08091BC0D813009F45CC0CC
:10429000809120020E949D0FC093F6022FC00E94C1
:1042A000FB0F8823E1F0C093F60280E0CF910895E0
:1042B00080E0CF9108958091BA0D882331F18091EB
:1042C0001F020E949D0F0E94A90F8091BA0D80933A
:1042D000BB0D81E08093F60280E0CF91089580913C
:1042E000BB0D8130B9F48091BC0D813069F18091B2
:1042F00020020E949D0F82E08093F6021092BB0D77
:104300000E94A90F80E0CF91089580911E020E9423
:104310009D0FD9CF809121020E949D0FC093BB0DAC
:104320000E94A90F82E08093F60280E0BFCF8091C7
:1043300021020E949D0F81E08093BB0D0E94A90F76
:10434000C093F60280E0B2CF809122020E949D0FBE
:1043500083E08093F602D2CFCF93C091F702C130B1
:1043600021F178F1C23069F0C33041F50E94FB0FB2
:1043700081111FC01092BC0D1092F70281E0CF9105
:1043800008950E94FB0F811114C08091BB0D811113
:104390005DC08091BC0D813009F443C0809127023B
:1043A0000E949D0FC093F7022FC00E94FB0F88232D
:1043B000E1F0C093F70280E0CF91089580E0CF91C3
:1043C00008958091BA0D882339F1809125020E94C9
:1043D0009D0F0E94A90F8091BA0D8093BB0D81E0C3
:1043E0008093F70280E0CF9108958091BB0D8111F9
:1043F00020C08091BC0D8130A1F0809127020E94E5
:104400009D0F82E08093F70281E08093BB0D0E94B4
:10441000A90F80E0CF910895809124020E949D0F02
:10442000D8CF809129020E949D0F83E08093F702EC
:10443000EBCF809126020E949D0F1092BB0D0E942F
:10444000A90F82E08093F70280E0B6CF8091260228
:104450000E949D0F1092BB0D0E94A90FC093F702FE
:1044600080E0AACFCF93C091F602C13029F180F14C
:10447000C23069F0C33049F50E94FB0F811120C0A2
:104480001092BC0D1092F60281E0CF9108950E9427
:10449000FB0F811115C08091BB0D813009F054C014
:1044A0008091BC0D813009F45CC080912C020E9487
:1044B0009D0FC093F6022FC00E94FB0F8823E1F0EE
:1044C000C093F60280E0CF91089580E0CF910895E7
:1044D0008091BA0D882331F180912B020E949D0FAB
:1044E0000E94A90F8091BA0D8093BB0D81E080934B
:1044F000F60280E0CF9108958091BB0D8130B9F430
:104500008091BC0D813069F180912C020E949D0F39
:1045100082E08093F6021092BB0D0E94A90F80E00A
:10452000CF91089580912A020E949D0FD9CF80914A
:104530002D020E949D0FC093BB0D0E94A90F82E027
:104540008093F60280E0BFCF80912D020E949D0FE4
:1045500081E08093BB0D0E94A90FC093F60280E01A
:10456000B2CF80912E020E949D0F83E08093F602CD
:10457000D2CFCF93C091F702C13021F178F1C23090
:1045800069F0C33041F50E94FB0F81111FC01092EA
:10459000BC0D1092F70281E0CF9108950E94FB0FAD
:1045A000811114C08091BB0D81115DC08091BC0D43
:1045B000813009F443C0809133020E949D0FC09363
:1045C000F7022FC00E94FB0F8823E1F0C093F7028F
:1045D00080E0CF91089580E0CF9108958091BA0D49
:1045E000882339F1809131020E949D0F0E94A90F0A
:1045F0008091BA0D8093BB0D81E08093F70280E03B
:10460000CF9108958091BB0D811120C08091BC0D88
:104610008130A1F0809133020E949D0F82E080934F
:10462000F70281E08093BB0D0E94A90F80E0CF913B
:104630000895809130020E949D0FD8CF809135025D
:104640000E949D0F83E08093F702EBCF80913202AE
:104650000E949D0F1092BB0D0E94A90F82E08093D3
:10466000F70280E0B6CF809132020E949D0F109237
:10467000BB0D0E94A90FC093F70280E0AACFCF9391
:10468000C091F602C13029F180F1C23069F0C33027
:1046900049F50E94FB0F811120C01092BC0D1092B1
:1046A000F60281E0CF9108950E94FB0F811115C0A1
:1046B0008091BB0D813009F054C08091BC0D8130D8
:1046C00009F45CC0809138020E949D0FC093F602ED
:1046D0002FC00E94FB0F8823E1F0C093F60280E018
:1046E000CF91089580E0CF9108958091BA0D8823ED
:1046F00031F1809137020E949D0F0E94A90F809195
:10470000BA0D8093BB0D81E08093F60280E0CF91DB
:1047100008958091BB0D8130B9F48091BC0D81303A
:1047200069F1809138020E949D0F82E08093F60229
:104730001092BB0D0E94A90F80E0CF910895809147
:1047400036020E949D0FD9CF809139020E949D0FA1
:10475000C093BB0D0E94A90F82E08093F60280E017
:10476000BFCF809139020E949D0F81E08093BB0DE5
:104770000E94A90FC093F60280E0B2CF80913A0266
:104780000E949D0F83E08093F602D2CFCF93C09119
:10479000F702C13021F178F1C23069F0C33041F540
:1047A0000E94FB0F81111FC01092BC0D1092F702E6
:1047B00081E0CF9108950E94FB0F811114C0809178
:1047C000BB0D81115DC08091BC0D813009F443C0E7
:1047D00080913F020E949D0FC093F7022FC00E945C
:1047E000FB0F8823E1F0C093F70280E0CF9108959A
:1047F00080E0CF9108958091BA0D882339F180919E
:104800003D020E949D0F0E94A90F8091BA0D8093D6
:10481000BB0D81E08093F70280E0CF9108958091F5
:10482000BB0D811120C08091BC0D8130A1F0809121
:104830003F020E949D0F82E08093F70281E0809307
:10484000BB0D0E94A90F80E0CF91089580913C029A
:104850000E949D0FD8CF809141020E949D0F83E05E
:104860008093F702EBCF80913E020E949D0F109241
:10487000BB0D0E94A90F82E08093F70280E0B6CFC3
:1048800080913E020E949D0F1092BB0D0E94A90FC5
:10489000C093F70280E0AACFCF93C091F602C13057
:1048A00029F180F1C23069F0C33049F50E94FB0F55
:1048B000811120C01092BC0D1092F60281E0CF91C0
:1048C00008950E94FB0F811115C08091BB0D8130AE
:1048D00009F054C08091BC0D813009F45CC0809116
:1048E00044020E949D0FC093F6022FC00E94FB0F4E
:1048F0008823E1F0C093F60280E0CF91089580E034
:10490000CF9108958091BA0D882331F180914302AF
:104910000E949D0F0E94A90F8091BA0D8093BB0D3C
:1049200081E08093F60280E0CF9108958091BB0DE5
:104930008130B9F48091BC0D813069F180914402DD
:104940000E949D0F82E08093F6021092BB0D0E94A0
:10495000A90F80E0CF910895809142020E949D0F9F
:10496000D9CF809145020E949D0FC093BB0D0E943C
:10497000A90F82E08093F60280E0BFCF80914502CC
:104980000E949D0F81E08093BB0D0E94A90FC093F0
:10499000F60280E0B2CF809146020E949D0F83E034
:1049A0008093F602D2CFCF93C091F702C13021F1AC
:1049B00078F1C23069F0C33041F50E94FB0F8111DC
:1049C0001FC01092BC0D1092F70281E0CF910895A4
:1049D0000E94FB0F811114C08091BB0D81115DC03D
:1049E0008091BC0D813009F443C080914B020E943C
:1049F0009D0FC093F7022FC00E94FB0F8823E1F0A8
:104A0000C093F70280E0CF91089580E0CF910895A0
:104A10008091BA0D882339F1809149020E949D0F3F
:104A20000E94A90F8091BA0D8093BB0D81E0809305
:104A3000F70280E0CF9108958091BB0D811120C0D5
:104A40008091BC0D8130A1F080914B020E949D0F9E
:104A500082E08093F70281E08093BB0D0E94A90F52
:104A600080E0CF910895809148020E949D0FD8CF99
:104A700080914D020E949D0F83E08093F702EBCF5F
:104A800080914A020E949D0F1092BB0D0E94A90FB7
:104A900082E08093F70280E0B6CF80914A020E94C4
:104AA0009D0F1092BB0D0E94A90FC093F70280E0EA
:104AB000AACFCF93C091F602C13029F180F1C23064
:104AC00069F0C33049F50E94FB0F811120C010929C
:104AD000BC0D1092F60281E0CF9108950E94FB0F69
:104AE000811115C08091BB0D813009F054C08091B7
:104AF000BC0D813009F45CC0809150020E949D0F72
:104B0000C093F6022FC00E94FB0F8823E1F0C093F0
:104B1000F60280E0CF91089580E0CF9108958091D2
:104B2000BA0D882331F180914F020E949D0F0E949F
:104B3000A90F8091BA0D8093BB0D81E08093F6029E
:104B400080E0CF9108958091BB0D8130B9F48091C0
:104B5000BC0D813069F1809150020E949D0F82E06E
:104B60008093F6021092BB0D0E94A90F80E0CF91B6
:104B7000089580914E020E949D0FD9CF80915102DD
:104B80000E949D0FC093BB0D0E94A90F82E08093ED
:104B9000F60280E0BFCF809151020E949D0F81E01C
:104BA0008093BB0D0E94A90FC093F60280E0B2CFA4
:104BB000809152020E949D0F83E08093F602D2CF33
:104BC000CF93DF93C091F802C13071F1D8F1C230B8
:104BD00071F0C33099F50E94FB0F811129C010922A
:104BE000BC0D1092F80281E0DF91CF9108950E94F0
:104BF000FB0F81111DC0C091BC0D8091BB0DC13058
:104C000009F451C0882309F446C0809156020E94DD
:104C10009D0F1092BB0D0E94A90F82E08093F802B5
:104C200080E0DF91CF9108950E94FB0F8823F9F077
:104C3000C093F80280E0DF91CF91089580E0DF918A
:104C4000CF9108958091BA0D882301F1809155028A
:104C50000E949D0F0E94A90F8091BA0D8093BB0DF9
:104C600081E08093F80280E0DF91CF910895D091A8
:104C7000BC0D8091BB0DD13029F18111C6CF80913F
:104C800057020E949D0FC093BB0DC5CF8091540267
:104C90000E949D0FDFCF809157020E949D0F81E0FF
:104CA0008093BB0DB8CF811116C0809159020E942C
:104CB0009D0FC093BB0D0E94A90F83E08093F80263
:104CC00080E0B9CF811107C0809159020E949D0FE9
:104CD000D093BB0DF0CF809158020E949D0F10928F
:104CE000BB0DE9CFCF93DF93C091F802C13071F1D2
:104CF000D8F1C23071F0C33099F50E94FB0F8111D9
:104D000029C01092BC0D1092F80281E0DF91CF9182
:104D100008950E94FB0F81111DC0C091BC0D8091B0
:104D2000BB0DC13009F451C0882309F446C08091FD
:104D30005C020E949D0F1092BB0D0E94A90F82E0A1
:104D40008093F80280E0DF91CF9108950E94FB0FDD
:104D50008823F9F0C093F80280E0DF91CF910895A5
:104D600080E0DF91CF9108958091BA0D882301F101
:104D700080915B020E949D0F0E94A90F8091BA0D45
:104D80008093BB0D81E08093F80280E0DF91CF91AA
:104D90000895D091BC0D8091BB0DD13029F18111C6
:104DA000C6CF80915D020E949D0FC093BB0DC5CF01
:104DB00080915A020E949D0FDFCF80915D020E9478
:104DC0009D0F81E08093BB0DB8CF811116C08091FB
:104DD0005F020E949D0FC093BB0D0E94A90F83E04C
:104DE0008093F80280E0B9CF811107C080915F0203
:104DF0000E949D0FD093BB0DF0CF80915E020E9468
:104E00009D0F1092BB0DE9CF089508950895089560
:104E100008950895089508951F93CF93DF931F92E7
:104E20001F92CDB7DEB7681B790B683F88EF780714
:104E30003CF5605F714F1091F502113059F111305E
:104E400008F4A1C0123009F45EC0133009F094C018
:104E50000E94FB0F811187C08091B80D9091B90D10
:104E600001969093B90D8093B80D1092BC0D1092DD
:104E7000F50281E00F900F90DF91CF911F9108957F
:104E80006930E7E07E07BCF260517E401091F50288
:104E90001130A9F669837A830E94FB0F69817A81B8
:104EA000811161C08091B80D9091B90D01969093D8
:104EB000B90D8093B80D8091BC0D813009F4B2C05A
:104EC000CB018D599F4F873C910508F47BC08091A1
:104ED000BB0D6C39FFEF7F070CF08AC0882309F403
:104EE000C3C0813009F4F9C091E09093F5028111BB
:104EF0008BC081E08093BB0D80E00F900F90DF911D
:104F0000CF911F91089569837A830E94FB0F698175
:104F10007A81811128C08091B80D9091B90D0196C8
:104F20009093B90D8093B80D8091BC0D813009F438
:104F300088C0CB0177FDA0C0853691050CF46DC00B
:104F40008091BB0D161617060CF04CC0811190C055
:104F50008CE60E949D0F0E94A90F82E08093F502CB
:104F60008091BB0DC4CF1093F50280E00F900F909D
:104F7000DF91CF911F91089580E00F900F90DF9106
:104F8000CF911F9108958091BA0D8823B9F082E2E4
:104F90000E949D0F0E94A90F8091BA0D90E001968A
:104FA000817099278093BB0D81E08093F50280E0AA
:104FB0000F900F90DF91CF911F91089580E20E9492
:104FC0009D0FE8CF8091BB0D882309F44DC086E288
:104FD0000E949D0F0E94A90F81E08093F5028091AD
:104FE000BB0D85CF81115AC088E70E949D0FB3CFBA
:104FF000653671050CF468C0813049F3882309F4E3
:1050000058C081E08093F5021092BB0D80E00F90B4
:105010000F90DF91CF911F91089581E08093F50269
:1050200080E0A4CF8091BB0D81112BC088E20E944B
:105030009D0F0E94A90F83E08093F5028091BB0D24
:1050400056CF8091BB0D16161706FCF4813051F136
:105050008CE60E949D0F1093F5020E94A90F80918B
:10506000BB0D8111D1CF45CF84E20E949D0FB2CFFD
:105070008EE60E949D0F6FCF88279927861B970B7E
:105080005BCF8AE20E949D0FD4CF811120C08CE7B4
:105090000E949D0F83E08093F502DFCF8AE70E9494
:1050A0009D0F59CF82E70E949D0F83E08093F50208
:1050B000D4CF82E08093F5028CE60E949D0F0E947F
:1050C000A90F8091BB0D13CF77FF98CF0ACF8AE746
:1050D0000E949D0F1093F502C0CF8AE70E949D0F9A
:1050E00082E08093F5020E94A90F8091BB0DFFCE54
:1050F0001F93CF93DF931F921F92CDB7DEB7681B2C
:10510000790B683F88EF78073CF5605F714F10912D
:10511000F402113059F1113008F49EC0123009F434
:105120005DC0133009F091C00E94FB0F811184C053
:105130008091B80D9091B90D01979093B90D80931E
:10514000B80D1092BC0D1092F40281E00F900F90F8
:10515000DF91CF911F9108956930E7E07E07BCF29F
:1051600060517E401091F4021130A9F669837A8370
:105170000E94FB0F69817A8181115EC08091B80D18
:105180009091B90D01979093B90D8093B80D8091CE
:10519000BC0D813009F4B0C0CB018D599F4F873CC5
:1051A000910508F478C08091BB0D653671050CF44B
:1051B00088C0882309F4C2C0813009F4E7C091E0B7
:1051C0009093F40281118AC081E08093BB0D80E04E
:1051D0000F900F90DF91CF911F91089569837A838B
:1051E0000E94FB0F69817A81811126C08091B80DE0
:1051F0009091B90D01979093B90D8093B80D80915E
:10520000BC0D813009F487C0CB0177FD9FC0853686
:1052100091050CF46CC08091BB0D77FD4CC08111E1
:1052200091C080E90E949D0F0E94A90F82E08093A7
:10523000F4028091BB0DC6CF1093F40280E00F9072
:105240000F90DF91CF911F91089580E00F900F9004
:10525000DF91CF911F9108958091BA0D8823B9F005
:105260008EE20E949D0F0E94A90F8091BA0D90E0DE
:105270000196817099278093BB0D81E08093F402A1
:1052800080E00F900F90DF91CF911F9108958CE2F5
:105290000E949D0FE8CF8091BB0D882309F44EC07A
:1052A00082E30E949D0F0E94A90F81E08093F40287
:1052B0008091BB0D87CF811160C084E80E949D0F53
:1052C000B3CF6C39FFEF7F070CF05BC0813041F347
:1052D000882309F46DC081E08093F4021092BB0D25
:1052E00080E00F900F90DF91CF911F91089581E0A2
:1052F0008093F40280E0A3CF8091BB0D81112BC07D
:1053000084E30E949D0F0E94A90F83E08093F40222
:105310008091BB0D57CF8091BB0D77FD26C08111C9
:105320001EC084E90E949D0F83E08093F4020E94D6
:10533000A90F8091BB0D8111D1CF46CF80E30E9490
:105340009D0FB1CF82E90E949D0F6ECF88279927CC
:10535000861B970B5CCF86E30E949D0FD4CF82E91A
:105360000E949D0F1093F402E2CF8130D1F084E8C7
:105370000E949D0F1093F402DACF86E80E949D0FE1
:1053800053CF161617060CF417CFA2CF82E90E944E
:105390009D0F82E08093F4020E94A90F8091BB0DC3
:1053A00011CF8AE80E949D0F83E08093F402BFCF63
:1053B00082E08093F40284E80E949D0F0E94A90F6E
:1053C0008091BB0DFFCECF93DF93D82FC091F30216
:1053D000C13019F180F0C23021F080E0DF91CF912F
:1053E00008950E94E50C811129C0C093F30280E06A
:1053F000DF91CF9108950E94FB0F81111BC0D13026
:1054000019F18CE10E949D0F0E94A90F81E0809309
:10541000F30280E0DF91CF9108950E94FB0F81118C
:10542000E4CF82E08093F30288EE93E00E94B90C0F
:1054300080E0D4CF1092F30280E0D0CF0E94A9196F
:105440001092F30281E0CACF8BE10E949D0FDCCF66
:10545000CF93C82F4091F20250E04830510530F010
:1054600080E0C1111092F202CF910895FA01EA5939
:10547000FE4F0C946D490E94FB0F882309F456C01F
:1054800086E08093F20280E0ECCF0E94FB0F88233D
:1054900009F448C087E08093F20280E0E2CF0E94E6
:1054A000FB0F8823A9F10E94F70F81E08093F2029D
:1054B00080E0D7CF0E94FB0F882351F181E08093D9
:1054C000F20280E0CECF0E94FB0F882309F456C081
:1054D00082E08093F20280E0C4CF0E94E50C81114B
:1054E00043C083E08093F20280E0BBCF0E94FB0FB9
:1054F000882381F184E08093F20280E0B2CF0E94A1
:10550000FB0F8823E9F085E08093F20280E0A9CFC9
:1055100083EE0E949D0F0E94A90F82E08093F20209
:1055200080E09FCF1092F20281E09BCF8FE10E943A
:105530009D0F0E94A90F87E08093F20280E091CF37
:1055400082EE0E949D0F0E94A90F86E08093F202D6
:1055500080E087CF81EE0E949D0F0E94A90F85E019
:105560008093F20280E07DCF80EE0E949D0F0E942A
:10557000A90F84E08093F20280E073CF8CED95E078
:105580000E94B90C83E08093F20280E06ACFCF934F
:10559000C091F102C23009F441C068F0C430C1F0DA
:1055A00098F1C53019F50E94FB0F81110CC01092C3
:1055B000F10281E00BC0CC23E1F0C130B9F40E94CC
:1055C000FB0F8823C9F1C093F10280E0CF910895C9
:1055D0000E94FB0F8111F7CF8FE10E949D0F0E9467
:1055E000A90F85E08093F10280E0F0CF80E0CF91B9
:1055F00008950E94FB0F8823F9F00E94F70F81E0C5
:105600008093F10280E0E2CF0E94FB0F8823F9F043
:1056100083E08093F10280E0CF9108950E94FB0F18
:105620008111D1CF85EE0E949D0F0E94A90F83E0CA
:105630008093F10280E0CACF84EE0E949D0F0E9409
:10564000A90F82E08093F10280E0CF91089586EE69
:105650000E949D0F0E94A90F84E08093F10280E0D8
:10566000B5CF1F93CF93DF93EB01C81BD90BC83F76
:1056700088EFD8079CF5C05FD14F1091F00212302F
:10568000B9F1133008F04DC0112309F472C0113084
:1056900009F061C00E94FB0F811184C08091BC0D94
:1056A000813009F49FC0C953DF4FCF38D14008F48F
:1056B00088C08091BB0D813009F4A2C084E50E94AE
:1056C0009D0F0E94A90F1093F0028091BB0D8111D4
:1056D00085C081E08093BB0D80E03EC0C93097E07B
:1056E000D9075CF2C051DE401091F002123049F649
:1056F0000E94FB0F882309F460C01093F002D7FDCD
:1057000021C08CE092E00E940C1D811129C0C4369A
:10571000D1050CF591E09093BC0DDF91CF911F91D5
:105720000895133061F31430B1F40E94FB0F81111E
:1057300039C01092BC0D1092F00281E0DF91CF9140
:105740001F91089582E192E00E94981D811108C086
:10575000CD39DF4FFCF680E0DF91CF911F910895A6
:105760001092F0021092BC0D80E0DF91CF911F915A
:1057700008958091BA0D81111CC080E50E949D0F93
:105780000E94A90F8091BA0D90E00196817099272F
:105790008093BB0D81E08093F00280E0DF91CF9198
:1057A0001F9108951093F00280E0DF91CF911F9137
:1057B000089582E50E949D0FE3CF83E08093F0027D
:1057C0009ECF8091BB0D811117C084E50E949D0F73
:1057D0000E94A90F81E08093F00277CF1092BB0D59
:1057E00080E0BACF8091BB0D813099F084E50E94B2
:1057F0009D0F0E94A90F69CF86E50E949D0FE8CFFB
:105800008AE50E949D0F0E94A90F82E08093F0021A
:105810005CCF8AE50E949D0F84E08093F002E9CF7F
:105820001F93CF93DF93EB01C81BD90BC83F88EFC1
:10583000D8079CF5C05FD14F1091EF021230B9F13B
:10584000133008F04DC0112309F472C0113009F073
:1058500061C00E94FB0F811184C08091BC0D81301A
:1058600009F49FC0C953DF4FCF38D14008F488C036
:105870008091BB0D8111A2C084E60E949D0F0E9401
:10588000A90F82E08093EF028091BB0D811185C04A
:1058900081E08093BB0D80E03EC0C93097E0D9071E
:1058A0005CF2C051DE401091EF02123049F60E94C6
:1058B000FB0F882309F460C01093EF02D7FD21C0CD
:1058C0008CE092E00E940C1D811129C0C436D105E4
:1058D0000CF591E09093BC0DDF91CF911F9108954D
:1058E000133061F31430B1F40E94FB0F811139C001
:1058F0001092BC0D1092EF0281E0DF91CF911F91C9
:10590000089582E192E00E94981D811108C0CD396E
:10591000DF4FFCF680E0DF91CF911F910895109248
:10592000EF021092BC0D80E0DF91CF911F9108959E
:105930008091BA0D81111CC08CE50E949D0F0E94C0
:10594000A90F8091BA0D90E00196817099278093FC
:10595000BB0D81E08093EF0280E0DF91CF911F913A
:1059600008951093EF0280E0DF91CF911F91089589
:105970008EE50E949D0FE3CF83E08093EF029ECFE0
:105980008091BB0D811122C080E60E949D0F0E9474
:10599000A90F81E08093EF0277CF1092BB0D80E0DA
:1059A000BACF8091BB0D811115C084E60E949D0F76
:1059B00084E08093EF020E94A90F66CF82E60E94E6
:1059C0009D0F0E94A90F1093EF025ECF82E60E9406
:1059D0009D0FDDCF82E60E949D0FEDCF1F93CF93E9
:1059E000DF93EC018091EE02823009F483C028F548
:1059F000882309F457C0813061F5C091EA02D09143
:105A0000EB020E94D63A9E01281B390BC901883F40
:105A100038EF93070CF08FC0805F914F97FDBFC0A8
:105A2000853691050CF08FC084E08093EE0210E083
:105A3000812FDF91CF911F910895833081F08430C1
:105A400041F41092EE0211E0812FDF91CF911F916E
:105A5000089510E0812FDF91CF911F91089582E189
:105A600092E00E94981D182F8111DECFC091EA02AA
:105A7000D091EB020E94D63A9E01281B390B283F99
:105A800088EF38070CF47EC0293087E0380714F01F
:105A900020513E40243631050CF47AC083E08093D7
:105AA000EE02C6CF0E94D63A9093ED028093EC02AC
:105AB0009E01220F331FCC0FDD1FCC0FDD1FCC0F3B
:105AC000DD1F2C0F3D1F280F391F37FD65C0213109
:105AD0008EE0380714F020513E403093EB022093C3
