:100000000C94C6010C94E7010C94E7010C94E701F1
:100010000C94E7010C94E7010C94E7010C94E701C0
:100020000C94E7010C94E7010C94E7010C94E701B0
:100030000C94E7010C94E7010C94E7010C94E701A0
:100040000C94E7010C94E7010C94E7010C94E70190
:100050000C94E7010C94E7010C94E7010C94E70180
:100060000C94E7010C941E3F0C94E7010C94DB3ECA
:100070000C94E7010C94E7010C94E7010C94E70160
:100080000C94E7010C94E7010C94E7010C94E70150
:100090000C9486430C94E7010C94B5430C94E7014F
:1000A0000C94E7010C94E7010C94E7010C94E70130
:1000B0000C94E7010C94E7010C94E7010C94E70120
:1000C0000C94E7010C94E7010C94E701EE03F003B4
:1000D000ED03F203ED03ED03ED03F403ED03ED0394
:1000E000ED03ED03ED03ED03ED03F603ED03ED0387
:1000F000ED03ED03ED03ED03ED03ED03ED03ED0380
:10010000ED03ED03ED03ED03ED03F803ED03ED0364
:10011000ED03ED03ED03ED03ED03ED03ED03ED035F
:10012000ED03ED03ED03ED03ED03ED03ED03ED034F
:10013000ED03ED03ED03ED03ED03ED03ED03ED033F
:10014000ED03ED03ED03ED03ED03EC0306040804FA
:1001500005040A040504050405040C04050405044B
:10016000050405040504050405040E04050405043E
:100170000504050405040504050405040504050437
:10018000050405040504050405041004050405041C
:100190000504050405040504050405040504050417
:1001A0000504050405040504050405040504050407
:1001B00005040504050405040504050405040504F7
:1001C00005040504050405040504040421042604AB
:1001D00020042B04200420042004300420042004E4
:1001E00020042004200420042004350420042004DA
:1001F00020042004200420042004200420042004DF
:10020000200420042004200420043A0420042004B4
:1002100020042004200420042004200420042004BE
:1002200020042004200420042004200420042004AE
:10023000200420042004200420042004200420049E
:10024000200420042004200420041C044B044B043C
:1002500045044B0445044504450454044504450441
:100260004504450445044504450459044504450432
:100270004504450445044504450445044504450436
:10028000450445044504450445044E04450445041D
:100290004504450445044504450445044504450416
:1002A0004504450445044504450445044504450406
:1002B00045044504450445044504450445044504F6
:1002C000450445044504450445046104542A5F2A55
:1002D000682A722A7B2A842A402A4A2A6364696E21
:1002E0006F70737578585B000C9454040C94842AD6
:1002F0000C94682A0C9448480C941B430C941004EA
:100300000C947B2A0C94F8030C944B040C943A0440
:100310000C941C040C945F2A0C944E040C940C0452
:100320000C9405040C9406040C94F2030C942B0416
:100330000C9435040C94F6030C94ED030C946104B6
:100340000C94F0030C9430040C94F4030C944504C6
:100350000C943D430C9459040C94EE030C940E043D
:100360000C9420040C94EC030C94542A0C940A046E
:100370000C9404040C944A2A0C94402A0C94722A7B
:100380000C9421040C9426040C94080411241FBE20
:10039000CFEFD1E2DEBFCDBF00E00CBF12E0A0E0A6
:1003A000B2E0E6E7F7EA00E00BBF02C007900D926B
:1003B000A23DB107D9F712E1A2EDB2E001C01D9252
:1003C000A234B107E1F70E949D470C94B9530C94F5
:1003D0000000FC019A01641B750BCB0160E17EE01B
:1003E0000E94ED476E9FC0016F9F900D7E9F900D04
:1003F0001124820F931F089581312FEF920714F07B
:10040000805F91090895CF93DF93EC010E94983BA0
:1004100081312FEF920714F0805F91098C1B9D0BA7
:10042000893027E092071CF080519E4006C0883F2B
:1004300028EF920714F4805F914F6AE070E00E9409
:10044000ED47CB01DF91CF91089560E071EE80E040
:1004500090E00E94F6430E9493190E94B1190E94F5
:100460006F1C84E690E00E949C0C0E94571E0E9424
:1004700013370E941E3B80E10E946D0481110E948F
:10048000843B0E94643B813051F02FEF81EE94E079
:10049000215080409040E1F700C00000F2CF089565
:1004A000CF93C091D202C130E1F018F0C23001F117
:1004B00048C081E00E94A204882381F081E08093FB
:1004C000D2020E94983B81312FEF920714F0805F97
:1004D00091099093EE028093ED0233C01092D20204
:1004E00030C00E940010882349F1C093D20229C075
:1004F0000E94E10C882311F183E00E946E0A9F9311
:100500008F9388EB92E09F938F930E941D4484E029
:100510000E946E0A9F938F9385EC92E09F938F9336
:100520000E941D4484EF91E00E949C0C8DB79EB701
:1005300008960FB6F8949EBF0FBE8DBF82E08093E1
:10054000D202CF9108950E94AB030E9464040E94DE
:1005500074070E94400B0C946A0C649974C081E08B
:100560008093030390910603992309F4B5C0109278
:100570000703659952C081E08093FE0290910103C8
:10058000992309F498C010920203669932C081E061
:100590008093F4029091F702992309F47BC01092A2
:1005A000F8026799AAC081E08093EF029091F2026D
:1005B000992309F45EC01092F302489912C091E0A9
:1005C0009093F9028091FC02811110C08091FD028C
:1005D0008F5F8093FD028091FD02843109F4B4C0E5
:1005E00008958091FC02813009F49DC01092FD02B3
:1005F00008958091F702813091F69091F8029F5F03
:100600009093F8029091F802943159F68093F60293
:100610001092F7021092F802C4CF8091010381304A
:1006200009F0B1CF909102039F5F909302039091E4
:100630000203943109F0A9CF8093000310920103C3
:1006400010920203A2CF80910603813009F08FCF70
:10065000909107039F5F9093070390910703943154
:1006600009F087CF809305031092060310920703C9
:1006700080CF9091F3029F5F9093F3029091F302E9
:10068000943109F09ACF8093F0028093F202109295
:10069000F30293CF9091F8029F5F9093F8029091AC
:1006A000F802943109F07DCF8093F5028093F70230
:1006B0001092F80276CF909102039F5F909302030D
:1006C00090910203943109F060CF8093FF028093F0
:1006D00001031092020359CF909107039F5F9093FB
:1006E000070390910703943109F043CF80930403EB
:1006F00080930603109207033CCF8091F202813071
:1007000009F059CF9091F3029F5F9093F30290917B
:10071000F302943109F051CF8093F1021092F2026A
:100720001092F3024ACF9091FD029F5F9093FD02D9
:100730009091FD02943109F053CF8093FB02109207
:10074000FC021092FD0208959093FA029093FC022D
:100750001092FD0208958FE787B98EE788B910924D
:1007600003031092040310920503109206031092E3
:1007700007031092FE021092FF02109200031092E3
:100780000103109202031092F4021092F5021092EB
:10079000F6021092F7021092F8021092EF021092F5
:1007A000F0021092F1021092F2021092F3021092F3
:1007B000F9021092FA021092FB021092FC021092BF
:1007C000FD02089590E0FC013197E034F10528F432
:1007D000EA59FF4F0C94724946980895409808953D
:1007E000419808954298089543980895449808952B
:1007F0004598089590E0FC013197E034F10528F424
:10080000EA55FF4F0C947249469A0895409A08950C
:10081000419A0895429A0895439A0895449A0895F2
:10082000459A089590E0FC013197E034F10540F4D9
:10083000EA51FF4F0C94724988B190E4892788B936
:10084000089588B191E0892788B9089588B192E028
:10085000892788B9089588B194E0892788B90895CF
:1008600088B198E0892788B9089588B190E18927EF
:1008700088B9089588B190E2892788B9089590E0F1
:10088000FC013197E034F10510F080E00895EA5D55
:10089000FE4F0C94724986B180E0089586B1807253
:1008A00090E095958795089586B183FB882780F918
:1008B000089586B1807190E0959587959595879577
:1008C000089586B1807408955098589A8DB18F70AC
:1008D0008DB98EB1806F8EB90895803259F160F470
:1008E000813001F18031A1F480910303882381F0EC
:1008F0001092030381E00895803461F0803841F460
:100900008091EF02882321F01092EF0281E0089598
:1009100080E008958091F4028823D1F31092F402CC
:1009200081E008958091F902882391F31092F902F1
:1009300081E008958091FE02882351F31092FE0217
:1009400081E00895803259F160F4813001F1803105
:10095000A1F480910403882381F01092040381E0C4
:100960000895803461F0803841F48091F00288234A
:1009700021F01092F00281E0089580E008958091C6
:10098000F5028823D1F31092F50281E00895809159
:10099000FA02882391F31092FA0281E0089580917F
:1009A000FF02882351F31092FF0281E00895803204
:1009B00059F160F4813001F18031A1F48091050397
:1009C000882381F01092050381E00895803461F05E
:1009D000803841F48091F102882321F01092F102D5
:1009E00081E0089580E008958091F6028823D1F394
:1009F0001092F60281E008958091FB02882391F322
:100A00001092FB0281E0089580910003882351F346
:100A10001092000381E0089590917C00987F90935C
:100A20007C0020917C00982F9770922B90937C00F3
:100A3000882359F0815020E830E002C03595279591
:100A40008A95E2F7209522B9089582B18C6F82B918
:100A50000895CF92DF92EF92FF92CF93DF93CDB7BD
:100A6000DEB72E970FB6F894DEBF0FBECDBF8EE077
:100A7000EAEAF2E0DE01119601900D928A95E1F723
:100A800089819A819C01220F331F220F331F220F6D
:100A9000331F281B390B40E050E0C12CB4ECDB2E97
:100AA000B9E0EB2EF12CC701B6010E94014821509C
:100AB00031092F3F310509F008F49BC08B819C81DF
:100AC0009C01220F331F220F331F220F331F281BBD
:100AD000390B40E050E0C701B6010E9401482150A7
:100AE00031092F3F310509F008F48AC08D819E81BC
:100AF0009C01220F331F220F331F220F331F281B8D
:100B0000390B40E050E0C701B6010E940148215076
:100B100031092F3F310509F008F474C08F819885A1
:100B20009C01220F331F220F331F220F331F281B5C
:100B3000390B40E050E0C701B6010E940148215046
:100B400031092F3F310509F008F45EC089859A8587
:100B50009C01220F331F220F331F220F331F281B2C
:100B6000390B40E050E0C701B6010E940148215016
:100B700031092F3F310509F008F448C08B859C8569
:100B80009C01220F331F220F331F220F331F281BFC
:100B9000390B40E050E0C701B6010E9401482150E6
:100BA00031092F3F3105A1F198F18D859E859C017A
:100BB000220F331F220F331F220F331F281B390B25
:100BC00040E050E0C701B6010E94014821503109C0
:100BD0002F3F3105F9F0F0F02E960FB6F894DEBFF6
:100BE0000FBECDBFDF91CF91FF90EF90DF90CF9000
:100BF000089580E02093B3008F5F8093B100ECCF25
:100C000081E0F8CF82E0F6CF83E0F4CF84E0F2CF4A
:100C100085E0F0CF86E0EECFEAE7F0E08081806407
:100C20008083089580917A0082958170089587B3BA
:100C3000869581700895B99B089587B3876087BBB7
:100C40001092B2009091F80380917C00887F80938D
:100C50007C0020917C00892F8770822B80937C0000
:100C6000992309F420C12FEF290F80E890E002C0FA
:100C7000959587952A95E2F7809582B920E42A9583
:100C8000F1F780917A00806480937A0080917A00F5
:100C900084FFFCCF80917A00806180937A008091FC
:100CA000780090917900E091F803F0E0EE0FFF1FDB
:100CB000E750FC4F91838083E091F8032091090372
:100CC00030E1E39FF0011124E20FF11DEE0FFF1F51
:100CD000E85EFC4F91838083E091F80380E2E89F17
:100CE000F0011124E85EFC4F80819181E091F803CE
:100CF00020E2E29FF0011124E85EFC4F2281338163
:100D0000820F931FE091F80330E2E39FF00111247A
:100D1000E85EFC4F24813581820F931FE091F80338
:100D200020E2E29FF0011124E85EFC4F268137812A
:100D3000820F931FE091F80330E2E39FF00111244A
:100D4000E85EFC4F20853185820F931FE091F80308
:100D500020E2E29FF0011124E85EFC4F22853385FA
:100D6000820F931FE091F80330E2E39FF00111241A
:100D7000E85EFC4F24853585820F931FE091F803D0
:100D800020E2E29FF0011124E85EFC4F26853785C2
:100D9000820F931FE091F80330E2E39FF0011124EA
:100DA000E85EFC4F20893189820F931FE091F803A0
:100DB00020E2E29FF0011124E85EFC4F2289338992
:100DC000820F931FE091F80330E2E39FF0011124BA
:100DD000E85EFC4F24893589820F931FE091F80368
:100DE00020E2E29FF0011124E85EFC4F268937895A
:100DF000820F931FE091F80330E2E39FF00111248A
:100E0000E85EFC4F208D318D820F931FE091F80337
:100E100020E2E29FF0011124E85EFC4F228D338D29
:100E2000820F931FE091F80330E2E39FF001112459
:100E3000E85EFC4F248D358D820F931FE091F803FF
:100E400020E2E29FF0011124E85EFC4F268D378DF1
:100E5000820F931F929582958F7089279F708927A3
:100E6000E091F803F0E0EE0FFF1FE65FFC4F918387
:100E700080832091F8032630D1F02091F8032111CE
:100E800007C0209108032130E1F08E3A914008F12B
:100E90008091F80390E0019667E070E00E94ED47D2
:100EA0008093F803089582B18C6F82B9E7CE2091C8
:100EB000090330E02F5F3F4F2F7033272093090342
:100EC000DCCF863D914020F30E94F00A1092080387
:100ED000DFCF4EE150E06EE170E085E00E94FD0A58
:100EE00081E080930803D4CFCF92DF92EF92FF92FC
:100EF000CF93DF93CDB7DEB72E970FB6F894DEBF52
:100F00000FBECDBF87E880937A0010927B001092CD
:100F10007C0010927E0010927D008CEF81B982B926
:100F200086E692E09093FA038093F90390930B0383
:100F300080930A03909319038093180390931B03E3
:100F400080931A0390931D0380931C0390931F03B7
:100F500080931E0390932103809320039093230397
:100F60008093220390932503809324039093270377
:100F700080932603909329038093280390932B0357
:100F800080932A0390932D0380932C0390932F0337
:100F900080932E0390933103809330039093330317
:100FA00080933203909335038093340390933703F7
:100FB000809336039093FC038093FB0390930D037F
:100FC00080930C03909339038093380390933B03F1
:100FD00080933A0390933D0380933C0390933F03A7
:100FE00080933E0390934103809340039093430387
:100FF0008093420390934503809344039093470367
:1010000080934603909349038093480390934B0346
:1010100080934A0390934D0380934C0390934F0326
:1010200080934E0390935103809350039093530306
:1010300080935203909355038093540390935703E6
:10104000809356039093FE038093FD0390930F03C8
:1010500080930E03909359038093580390935B03FE
:1010600080935A0390935D0380935C0390935F0396
:1010700080935E0390936103809360039093630376
:101080008093620390936503809364039093670356
:1010900080936603909369038093680390936B0336
:1010A00080936A0390936D0380936C0390936F0316
:1010B00080936E03909371038093700390937303F6
:1010C00080937203909375038093740390937703D6
:1010D00080937603909300048093FF039093110311
:1010E00080931003909379038093780390937B030C
:1010F00080937A0390937D0380937C0390937F0386
:1011000080937E0390938103809380039093830365
:101110008093820390938503809384039093870345
:1011200080938603909389038093880390938B0325
:1011300080938A0390938D0380938C0390938F0305
:1011400080938E03909391038093900390939303E5
:1011500080939203909395038093940390939703C5
:101160008093960390930204809301049093130359
:1011700080931203909399038093980390939B0319
:1011800080939A0390939D0380939C0390939F0375
:1011900080939E039093A1038093A0039093A30355
:1011A0008093A2039093A5038093A4039093A70335
:1011B0008093A6039093A9038093A8039093AB0315
:1011C0008093AA039093AD038093AC039093AF03F5
:1011D0008093AE039093B1038093B0039093B303D5
:1011E0008093B2039093B5038093B4039093B703B5
:1011F0008093B603909304048093030490931503A3
:10120000809314039093B9038093B8039093BB0326
:101210008093BA039093BD038093BC039093BF0364
:101220008093BE039093C1038093C0039093C30344
:101230008093C2039093C5038093C4039093C70324
:101240008093C6039093C9038093C8039093CB0304
:101250008093CA039093CD038093CC039093CF03E4
:101260008093CE039093D1038093D0039093D303C4
:101270008093D2039093D5038093D4039093D703A4
:101280008093D603909306048093050490931703EC
:10129000809316039093D9038093D8039093DB0334
:1012A0008093DA039093DD038093DC039093DF0354
:1012B0008093DE039093E1038093E0039093E30334
:1012C0008093E2039093E5038093E4039093E70314
:1012D0008093E6039093E9038093E8039093EB03F4
:1012E0008093EA039093ED038093EC039093EF03D4
:1012F0008093EE039093F1038093F0039093F303B4
:101300008093F2039093F5038093F4039093F70393
:101310008093F6031092F8031092090310920803C9
:1013200082E08093B0001092B2001092700087E0CB
:1013300087BB8EE0EAEAF2E0DE01119601900D92A1
:101340008A95E1F789819A819C01220F331F220F30
:10135000331F220F331F281B390B40E050E0C12CF4
:1013600064ECD62E69E0E62EF12CC701B6010E948E
:101370000148215031092F3F310509F008F49BC085
:101380008B819C819C01220F331F220F331F220F60
:10139000331F281B390B40E050E0C701B6010E9403
:1013A0000148215031092F3F310509F008F48AC066
:1013B0008D819E819C01220F331F220F331F220F2C
:1013C000331F281B390B40E050E0C701B6010E94D3
:1013D0000148215031092F3F310509F008F474C04C
:1013E0008F8198859C01220F331F220F331F220FFC
:1013F000331F281B390B40E050E0C701B6010E94A3
:101400000148215031092F3F310509F008F464C02B
:1014100089859A859C01220F331F220F331F220FCB
:10142000331F281B390B40E050E0C701B6010E9472
:101430000148215031092F3F310509F008F44AC015
:101440008B859C859C01220F331F220F331F220F97
:10145000331F281B390B40E050E0C701B6010E9442
:101460000148215031092F3F310591F188F18D85D7
:101470009E859C01220F331F220F331F220F331F23
:10148000281B390B40E050E0C701B6010E9401481B
:10149000215031092F3F3105C9F0C0F02E960FB60B
:1014A000F894DEBF0FBECDBFDF91CF91FF90EF90DC
:1014B000DF90CF90089580E02093B3008F5F8093FA
:1014C000B100ECCF81E0F8CF82E0F6CF86E0F4CF38
:1014D00085E0F2CF84E0F0CF83E0EECFE82FF0E0BC
:1014E000EE0FFF1FE750FC4F808191810895E82F98
:1014F000F0E0EE0FFF1FE65FFC4F808191810895C1
:10150000C19B11C0C19A10929500109294008091D5
:10151000D702811109C080910E04813081F0809141
:101520000704813061F0089580910E04813019F133
:10153000809107048130F9F01092D702089581E07C
:101540008093D702809108049091090401979093A9
:10155000D6028093D50220910A0430910B04309377
:10156000D4022093D302892BF1F6809180008F73EF
:101570008093800008958091D5029091D6020097C3
:1015800041F001979093D6028093D502892B59F6AA
:10159000ECCF8091D3029091D402009731F0019763
:1015A0009093D4028093D3020895809180008F7B22
:1015B000809380008091800080688093800080917B
:1015C0000804909109049093D6028093D5028091EB
:1015D0000A0490910B049093D4028093D30208954F
:1015E00080910704813009F00895809180008F7305
:1015F0008093800010920704089590910704992326
:1016000059F19130A9F11092870090E0FC01E15F5F
:10161000FB4F20812093860010928900208126951F
:1016200020938800709309046093080450930B047E
:1016300040930A0490930D0480930C0480918000E1
:101640008F7B8093800080918000806880938000F1
:1016500081E080930704089590910E04913099F6EB
:10166000909180009F739093800010920E04CBCFD6
:10167000909180009F739093800010920704C3CFD5
:10168000259A2D9810926F009FE296BB10928500CC
:1016900010928400E0E8F0E0108280818E7F8083E9
:1016A000808182608083E1E8F0E010828081886040
:1016B00080838081806180831092890010928800ED
:1016C0008081887F80838081856080831092710013
:1016D00098BB1092950010929400E0E9F0E010821F
:1016E00080818E7F808380818D7F8083E1E9F0E03F
:1016F000108280818860808380818F7E808398E1E2
:10170000909399008AE6809398008081887F8083F7
:101710008081846080838DE180930F048AE18093CF
:1017200010049093110486E18093120484E1809365
:10173000130482E18093140480E1809315041092D5
:101740000E041092070481E090E0909309048093C6
:10175000080490930B0480930A0410920D041092D5
:101760000C0408959091070491112CC090910E04DF
:10177000911128C01092870090E0FC01E15FFB4FBF
:101780002081209386001092890020812695209345
:10179000880090930D0480930C0470930904609367
:1017A000080450930B0440930A04809180008F7BBF
:1017B000809380008091800080688093800081E029
:1017C00080930E04089590910704911104C09091A4
:1017D0000E04913009F008951092870090E0FC010A
:1017E000E15FFB4F208120938600109289002081C9
:1017F00026952093880090930D0480930C040895FF
:1018000020910704211104C020910E04213009F019
:101810000895909309048093080408952091070483
:10182000211104C020910E04213009F008959093F5
:101830000B0480930A04089580910704811104C069
:1018400080910E04813009F00895809180008F739B
:101850008093800010920E04089580910E040895E4
:10186000809107040895D19B19C0D19A1092250147
:101870001092240140911C048091D8029091D902C9
:10188000413069F0209116043091170482179307B4
:10189000C9F001969093D9028093D80208952091BF
:1018A000190430911A048217930799F71092D902FC
:1018B0001092D8024093180480912101887F809370
:1018C000210108951092D9021092D80281E08093EC
:1018D0001B040895109273008FE28ABB10922501B9
:1018E00010922401E0E2F1E0108280818E7F8083FB
:1018F00080818D7F8083E1E2F1E0108280818860C9
:10190000808380818F7E808388E1809329018AE6AD
:10191000809328018081887F808310921C0410921C
:101920001A041092190410921704109216041092BF
:10193000180410921B04089510921C049C01369503
:10194000279536952795ABE7B4E10E94CC4796954D
:101950008795909317048093160410921B0410929D
:101960002501109224018FE28ABBE1E2F1E080813F
:10197000887F8083808184608083089521E0209324
:101980001C049C013695279536952795ABE7B4E165
:101990000E94CC479695879590931A0480931904DA
:1019A0001092180410922501109224018FE28ABB34
:1019B000E1E2F1E08081887F8083808184608083A0
:1019C000089580911B04813011F080E008951092F9
:1019D0001B04089580911804813011F080E008956F
:1019E000109218040895E1E2F1E08081887F8083FD
:1019F000D19A109225011092240110921B0410928A
:101A000018040895109272008FE289BB1092A5000D
:101A10001092A400E0EAF0E0108280818E7F808343
:101A200080818D7F8083E1EAF0E010828081886090
:101A3000808380818F7E80838DE38093A90088E0FE
:101A40008093A8008081887F8083808182608083EA
:101A50000895C99B07C0C99A1092A5001092A400CE
:101A600081E0089580E00895AF92BF92CF92DF9217
:101A7000EF92FF920F931F93CF93DF931F921F92CA
:101A8000CDB7DEB7CE0101960E948D19E1E1F5E0F8
:101A900049815A81BAE4AB2EB1E1BB2ED12C01E0D1
:101AA00010E085E0C82E1FC0C901825E9B4FDC019B
:101AB000CC92C901815E9B4FDC01CC92CB01880F97
:101AC000991F82569B4F225E3B4FDC012D933C9326
:101AD000D39470964E5F5F4FBFEFAB1ABB0A87E09F
:101AE000E131F807D9F18081882399F3DA018D91EA
:101AF0009C919F0127503109D9012D913C91820F72
:101B0000931FD5012C91820F911D27FD9A956D2D64
:101B100070E09B01220F331F220F331FD901A05EFB
:101B2000BB4F8C93D901AF5DBB4F9C93CF01019705
:101B3000DC018C91882309F4B7CF8F70D80102C0E3
:101B4000AA0FBB1F8A95E2F7CD01D901A25EBB4F58
:101B50008C93D901A15EBB4F8C93B0CFDD2061F097
:101B60000EE914E024E030E04CE150E062EE74E075
:101B700080911D040E942D420F900F90DF91CF9114
:101B80001F910F91FF90EF90DF90CF90BF90AF909B
:101B9000089590E1899FF0011124EE5FFA4F668766
:101BA000089590E1899FF0011124EE5FFA4F868538
:101BB000089590E1899FF0011124EE5FFA4F71873B
:101BC0006087089590E1899FF0011124EE5FFA4F3C
:101BD00080859185089590E1899FF0011124EE5F41
:101BE000FA4F8785089590E1899FF0011124EE5FF7
:101BF000FA4F8285089590E1899FF0011124EE5FEC
:101C0000FA4F84850895C99B15C0C99A1092A50002
:101C10001092A4000E94103781110DC00E94031081
:101C20000E94CF180E944C310E941037811106C0CB
:101C30000C94340D08950E948136F0CF0E948B36AB
:101C4000F7CF2F923F924F925F926F927F928F9237
:101C50009F92AF92BF92CF92DF92EF92FF920F933B
:101C60001F93CF93DF9300D0CDB7DEB7482E1982F4
:101C70000E94FA3F882309F452C12FEF89E698E1C8
:101C8000215080409040E1F700C00000E2E0F5E024
:101C900041E155E025E01182108213821282158203
:101CA00014821782168211861086DA011C92CA01EC
:101CB0000197DC012C931386128615861486709684
:101CC000405F5F4FB7E0E230FB0729F71092DE0478
:101CD0001092DF041092E0041092E10462EE74E0CE
:101CE000CE0101960E944F4010921D0489818823E5
:101CF00009F418C1312C9CE2892E99249394AA24CA
:101D0000AA9423E0B22EC12C32E0D32E5524539452
:101D100045E0642EEE24E394F12C62E0262E09C007
:101D200081159C4009F4C4C033948981381608F0A9
:101D300069C0E32DF0E0EE51FB4F7080872D0E94CB
:101D4000563E8C30910521F08C32E1E09E0741F740
:101D5000872D0E943834F0E17F9EB00111248B0161
:101D60000E5F1A4FD80111969C928E921396BC92D8
:101D7000AE92129715961C921E9214971796DC92AB
:101D8000CE921697872D6A837B830E949535F80142
:101D9000918780876A817B81AB01425F5A4F645F84
:101DA0007A4F872D0E94BC32D8011F965C921F97F4
:101DB0001E966C9280911D048F5F80931D04A70175
:101DC00002C0440F551F7A94E2F7662757FD6095CD
:101DD000762F8091DE049091DF04A091E004B09111
:101DE000E104842B952BA62BB72B8093DE049093D4
:101DF000DF04A093E004B093E104339489813816A2
:101E000008F497CF80911D04481609F485C044E674
:101E100050E06AE070E084E00E94FD0A10927200D7
:101E20008FE289BB1092A5001092A4001092A0002E
:101E30008091A0008E7F8093A0008091A0008D7F74
:101E40008093A0001092A1008091A10088608093EF
:101E5000A1008091A1008F7E8093A1008DE38093EB
:101E6000A90088E08093A8008091A100887F8093DA
:101E7000A1008091A10082608093A1000E94940F34
:101E800080911D040F900F900F90DF91CF911F91C3
:101E90000F91FF90EF90DF90CF90BF90AF909F9009
:101EA0008F907F906F905F904F903F902F9008950C
:101EB000872D0E943834E0E17E9EB00111248B0111
:101EC0000E5F1A4FE4EBF0E0D8011196FC93EE930D
:101ED0001396BC92AE92129715961C921E9214976E
:101EE0001796DC92CE921697872D6A837B830E9489
:101EF0009535D80119969C938E9318976A817B81AA
:101F0000AB01425F5A4F645F7A4F872D0E94BC320B
:101F1000F801278666864ECF0E94F00A7FCF0E9486
:101F2000C43FABCE80E070CF10927E0C1092C00BFD
:101F30008FEF8093C00C8093BF0980937D0C10922B
:101F4000BF0C0895CF93C82F60EC79E00E948918E8
:101F5000811102C0C093BF09CF91089510927E0CE9
:101F60001092000C1092FF0B1092BE091092BD0946
:101F70001092BE0C1092BD0C83E08093600D109205
:101F80007D0C8091CF098093BC091092C00CE1E1D7
:101F9000F5E080E090E006C07096029627E0E1311F
:101FA000F20709F120812130B9F7DF0117972D9150
:101FB0003C91DC01A158B34F2D933C93DC01AE5D05
:101FC000B24F1D921C92DC01A15CB34F1D921C927A
:101FD000DC01AE5FB84F1D921C927096029627E00E
:101FE000E131F207F9F681E08093BF0C8091801116
:101FF000806180938011089581E08093C00B0895E3
:102000008091BF0C08952F923F924F925F926F92F2
:102010007F928F929F92AF92BF92CF92DF92EF9278
:10202000FF920F931F93CF93DF93CDB7DEB7A397A4
:102030000FB6F894DEBF0FBECDBF8091BF0C8823D2
:1020400009F49AC08091FF0B9091000C4091BD095A
:102050005091BE098417950708F0A7C08C010F5F47
:102060001F4F1A8709871093000C0093FF0B1091E4
:10207000600D1D87133009F47FC08091BD099091D8
:10208000BE098C0120E030E0098B1A8B2B8B3C8B36
:102090008C01015011091E8B0D8B02EE1CE07AE0C1
:1020A000A72E75E0B72EE0E4CE2EE7E0DE2EF2E2BA
:1020B000EF2EFDE0FF2EA2E04A2EA7E05A2EB1EC53
:1020C0006B2EBBE07B2E812C912C80E090E0212CAC
:1020D000312C9BA38AA3C201230194014801A601CC
:1020E00067017A0189013C0121C0BFEF2B1A3B0A2D
:1020F000EAA1FBA17096FBA3EAA3F2E08F0E911C6C
:102100000E5F1F4F20E1A20EB11C32E0E30EF11C66
:1021100042E0C40ED11C52E0650E711C62E0460E16
:10212000511C8AA19BA18115924031F12AA13BA1AA
:102130002E5F3A4F3A832983D9011F968C918130C3
:10214000A1F6F801E15CF34F80819181892B09F0C0
:102150006FC0F40180819181D5018D939C93F10131
:10216000E054F64F80A1A981BA811E968C93BDCF11
:102170001092BF0C1092C00BA3960FB6F894DEBF5E
:102180000FBECDBFDF91CF911F910F91FF90EF90C8
:10219000DF90CF90BF90AF909F908F907F906F9087
:1021A0005F904F903F902F9008951092000C1092E6
:1021B000FF0BE1E1F5E080E090E006C0709602964A
:1021C00007E0E131F007E1F020812130B9F7DF01CC
:1021D00017972D913C91DC01AE51B34F2D933C9359
:1021E000DC01AE5FB84F2D913C91DC01AE5DB24F8A
:1021F0002D933C937096029607E0E131F00721F7AA
:102200008091600D882309F4C7C0813009F492C120
:10221000823009F45BC1833009F42CC25E874D879C
:1022200080E090E0DA018A179B0708F0A5CF16CF6F
:10223000BD85B1114AC0F6010190F081E02DF88B07
:10224000EF87F701A081B1812F853889A21BB30BDD
:1022500029853A850E94DB4729893A894B895C891F
:102260000E9423488F859889820F931FD3018D93F5
:102270009C93D901B595A795EF85F889AE0FBF1F3F
:1022800029853A850E94DB479B01AC01A0E9B0E0BB
:102290000E94E2472FE030E040E050E00E942348F7
:1022A00069E055954795379527956A95D1F7F801D7
:1022B000E258F64F31832083D4018D919C91820F97
:1022C000931FF501918380834ACFB13009F448C050
:1022D00029853A854D895E892417350709F421C17E
:1022E000F101EF53F34F808181113AC0F601019063
:1022F000F081E02DF88BEF87DF01B195A195B10951
:1023000029853A850E94DB4729893A894B895C896E
:102310000E9423488F859889820F931FD3018D9344
:102320009C93D901B595A795EF85F889AE0FBF1F8E
:1023300029853A850E94DB479B01AC01A0E9B0E00A
:102340000E94E2472FE030E040E050E00E94234846
:1023500099E055954795379527959A95D1F7ACCF44
:10236000F201A081B18129853A850E94DB47298944
:102370003A894B895C890E942348D4018D919C91B4
:10238000820F931FF50191838083D7018D919C91DA
:10239000F30191838083E3CE81E08093600D2091EF
:1023A000200D3091210D0091E00C1091E10C1A8369
:1023B0000983C801880F991F8901081B190B1E8703
:1023C0000D871093BE090093BD0909811A8120175A
:1023D000310709F4E5C0A801BFE32B2EBCE03B2E7A
:1023E0001EE7612E19E0712E00E4802E07E0902E8A
:1023F00081EC482E8BE0582E01EC1CE061E175E089
:10240000C901841B950B9C0140E050E029873A8765
:102410004B875C8795E0C92ED12CE12CF12C788B71
:102420006F8719C0EF85F8897096F88BEF87F2E017
:102430002F0E311C22E0620E711C32E0830E911CC3
:1024400042E0440E511C0F5F1F4F6F857889615128
:10245000774009F44BC0AF85B8898C91813011F772
:10246000F8018081813009F446C0F401A081B18176
:10247000F101A080B180F30180819181A81AB90A8D
:1024800029813A810E94DB479B01AC01660F771FCF
:10249000881F991F620F731F841F951F660F771F78
:1024A000881F991F660F771F881F991FA701960124
:1024B0000E942348BB2757FDBA95A52F942F832F41
:1024C000A81AB90AD201AD92BC92ACCF8091BD0CD2
:1024D0009091BE0C009709F4E1C023E02093600DB9
:1024E0009093BE098093BD099E878D8780E090E020
:1024F000AD85BE8598CEF101A081B181F3018081C7
:102500009181A81BB90B2D853E850E94DB4729854B
:102510003A854B855C850E942348D2012D933C93DC
:1025200081CFF801E158F34F80819181D5018D93DE
:102530009C9315CE82E08093600D7091E00C6091C9
:10254000E10C7093BD096093BE09A1ECBBE0E1E131
:10255000F5E080E090E08D0109C0709602960E5F74
:102560001F4FB7E0E131FB0709F47DC02081213026
:10257000A1F79C01215C334FD9012D913C91D801E9
:102580004D915C91241B350BAC014258564FDA013A
:102590004D915C91241B350BD8012D933C93DDCFDD
:1025A000B1ECCB2EBBE0DB2E11ECE12E1CE0F12ECA
:1025B00081E195E000E010E045E0442E512C612CD3
:1025C000712C49011C0111C0F0E12F0E311C22E0D9
:1025D000C20ED11C0E5F1F4F3FEFE31AF30A41E119
:1025E000241647E0340609F481CFD1018C91813063
:1025F00059F7F70180818130C9F1F801E05CF84FAB
:10260000A081B181F801E15CF34FA080B180F801B5
:10261000E258F64F80819181A81AB90A94010E946C
:10262000DB479B01AC01660F771F881F991F620F64
:10263000731F841F951F660F771F881F991F660FD2
:10264000771F881F991FA30192010E942348BB276F
:1026500057FDBA95A52F942F832FA81AB90AF60112
:10266000B182A082B1CF7D876E8740CFD6011D9207
:102670001C92AACF1092600DA2E2BDE0E1E1F5E06C
:1026800006C07096129607E0E131F00749F08081AC
:102690008130B9F711961C921E92F3CF1092600D03
:1026A00080917E0C813009F463CD80917D0C8F5F29
:1026B00080937D0CA091D409A81708F0C8C080E0D1
:1026C00092E0EEE7F7E0A0ECB9E001900D920197FF
:1026D000E1F78091C00C9091BF09981721F090917B
:1026E000CF099093BC0991E090937D0C8093BF0932
:1026F000A091D409B1E0AB1709F484C26B2F70E04C
:102700008B01015011090024169507950794169521
:1027100007950794102F002DA8014054564FFA0139
:10272000E258FF4F80812091D609289FC0011124D3
:1027300096958795929582958F7089279F708927A6
:102740009093BE0C8093BD0CFA01E158FF4F30818D
:10275000329F9001112436952795329522952F703E
:1027600023273F7023272115310511F421E030E0A4
:1027700040917E0C413009F45EC2892B09F4C4C13A
:10278000AB1709F456C3E1EC4E2EECE05E2EAFE73A
:10279000BCE07B010024F694E7940794F694E79458
:1027A0000794FE2CE02CA7014050564F7A0180EC94
:1027B000582F56034001579F900C1124E1E1F5E09A
:1027C00080E090E059013D01A70168010EC07096BC
:1027D000BFEF4B1A5B0A029602E0600E711C4E5F5F
:1027E0005F4F17E0E131F107A1F12081213079F746
:1027F0009C012258364FD9011D921C929A01280D36
:10280000391D2C0D3D1DD9012D913C9136FF18C06D
:10281000D3012D913C91B901E12CF12C8C010E5189
:10282000134FD8016D937C93D3012D933C939C015E
:10283000215C334FD901ED92FC92D2011C92C7CF9B
:10284000D3016D917C917901E61AF70AE7CFB82F91
:1028500052CF95013093210D2093200D8091D809FE
:1028600090E0AC01440F551F4217530708F4E0C035
:10287000C9010197969587959093E10C8093E00CA0
:10288000009709F0D9C01092210D1092200D1E86DC
:102890001D8619821A821B821C821D821E821F8243
:1028A000188661E06F87412C512C198A1D8A1F8A76
:1028B000188E198E71E07A8F1B8E1C8E1D8E1E8EC7
:1028C0001F8E18A219A270E4872E77E0972EE1ECF4
:1028D0006E2EECE07E2E01E115E0212C312C1BA3A5
:1028E0000AA315C00AA11BA1005F1F4F1BA30AA3C7
:1028F00012E0810E911C22E0220E311C3FEF631A80
:10290000730A4AA15BA14151574009F484C0AAA1AE
:10291000BBA18C91813031F7F101EE5DF24F318135
:102920002081932F990F990BA980BA80CB80DC80EE
:10293000ED80FE800F811885492F592F692F792F3F
:10294000892F0E94794859016A017B018C01F101AC
:10295000E15CF34FA081B18120E03AE00E94DB47C7
:102960002CE030E040E050E00E942348DA01C90149
:10297000550F220B322FA90129873A874B875C8795
:10298000F3012081211122C09C01AD016985762FC0
:10299000862F962F0E949A49AA8CBB8CCC8CDD8CFA
:1029A000EE8CFF8C08A119A10E943C48D4012C9305
:1029B00011963C93822F932F8115F4E09F070CF121
:1029C000EFEFF3E0D401ED93FC938CCF9C01AD01CC
:1029D0006985762F862F962F0E949A49AF84B42C52
:1029E000C52CD988ED88FF88088D198D0E943C4838
:1029F000F40120833183822F932F8115F4E09F0708
:102A0000FCF681309C4F0CF06DCFE1E0FCEFD4017F
:102A1000ED93FC9367CF8D859E859093BE0980933F
:102A2000BD098091FF0B9091000CAD85BE85FBCB5D
:102A30009093E10C8093E00C4901A12CB12C880CFF
:102A4000991CAA1CBB1CC12CD12C76019E878D879A
:102A5000A0E0B0E0880F991FAA1FBB1F8C019D0149
:102A600040E050E0BA0189831A832B833C834D8375
:102A70005E836F8378879401A501B601C701580171
:102A8000CB80DC80E12CF12C00E010E00E949A4920
:102A900001E00E947849722E832E942EB52F662E67
:102AA000372EF82FE92F00E00E9491492F87432EFF
:102AB000542E598B6D8B7F8B888F998F7A8E8B8E4E
:102AC0009C8EBD8F6E8E3F8EF8A3E9A3452DA0E0AE
:102AD0000E94A34949F411E01F87412C512C198A07
:102AE0001D8A1F8A188E198E272D382D492D5B2F90
:102AF000662D732D8F2F9E2FA0E00E94A34909F011
:102B0000E2CE21E02A8FD8CEAB1709F42AC1A1EC7E
:102B1000EA2EACE0FA2EBFE74B2EBCE05B2EDB01C9
:102B20000024B695A7950794B695A7950794BA2F54
:102B3000A02DA050B64F80EC482F46034001479F80
:102B4000900C1124E1E1F5E080E090E077247394AB
:102B50005901A7011D0168010FC070964F5F5F4FBB
:102B60000296B2E04B0E511C02E0200E311C17E021
:102B7000E131F10709F46DCE2081213071F79C011C
:102B80002258364FD9011D921C929101280D391DF2
:102B90002C0D3D1DD9012D913C9136FF2CC0D20149
:102BA0002D913C91B901E12CF12C8C010E51134F68
:102BB000D8016D937C93D2012D933C938C01015CE1
:102BC000134FD801ED92FC92D1010D911C9116FD8D
:102BD0000FC06217730730F42017310718F4DA01B9
:102BE0007C92BBCF2617370718F402171307B8F3E8
:102BF000DA011C92B2CFD2016D917C917901E61A73
:102C0000F70AD3CF8091C00B813009F4A0C0809126
:102C1000BC0981508093BC09882309F493C080913A
:102C2000BF098093C00C811169C081E080937E0C44
:102C3000B0917D0C63CD892B09F046C1AB1709F427
:102C4000F5C141EC442E4CE0542EAFE7BCE07B01D3
:102C50000024F694E7940794F694E7940794FE2CE6
:102C6000E02CA7014050564F7A0180EC582F5603B4
:102C70004001579F900C1124E1E1F5E080E090E0E5
:102C800059013D01A7010FC07096BFEF4B1A5B0AB7
:102C9000029622E0620E711C4E5F5F4F37E0E13119
:102CA000F30709F4D6CD2081213071F79C01225819
:102CB000364FD9011D921C929A01280D391D200F03
:102CC000311FD9012D913C91D30136FF35C02D9193
:102CD0003C917901C12CD12CBC016E51734FDB01A9
:102CE000ED92FC92D3012D933C939C01215C334FD8
:102CF000D901CD92DC92D2011C92C6CF9091BF092E
:102D000098132AC080E092E0E0ECF9E0AEE7B7E08B
:102D100001900D920197E1F780918D07882321F0B2
:102D200080919207811103C081E080937E0CB09165
:102D30007D0CA091D409E2CCED90FC906901CE18F5
:102D4000DF08CACF8091D9098093C00C6CCF8091E5
:102D5000DA098093C00C67CF6EE777E00E9489188C
:102D6000DBCF41EC5CE0AFE7BCE00054164FE1E1A3
:102D7000F5E080E090E0BB24B39469013A014D0195
:102D80000DC07096BFEF6B1A7B0A029622E0820E8E
:102D9000911C37E0E131F30709F449C0408141302B
:102DA00081F7AC014258564FDA011D921C92A801DE
:102DB000480F591F405C5F4FDA014D915C9156FFFF
:102DC0002FC0D4014D915C91BA01E12CF12C9C01F2
:102DD0002E51334FD9016D937C93D4014D935C9365
:102DE0009C01215C334FD901ED92FC929C0122544D
:102DF000384FD901ED90FC90F6FC0FC064177507B1
:102E000030F44E155F0518F4D301BC92BACF4617C3
:102E1000570718F4E416F506B8F3D3011C92B1CFA6
:102E2000D4016D917C917A01E61AF70AD0CF960110
:102E300011CD41EC5CE0AFE7BCE00054164FE1E19E
:102E4000F5E080E090E04A0169015D010CC07096F8
:102E5000BFEF8B1A9B0A029622E0A20EB11C37E04C
:102E6000E131F30721F34081413089F7AC01425849
:102E7000564FDA011D921C92A801480F591F405C61
:102E80005F4FDA014D915C91D50156FF17C04D910E
:102E90005C91BA01E12CF12C9C012E51334FD901E8
:102EA0006D937C93D5014D935C93AC01415C534F82
:102EB000DA01ED92FC92D4011C92C9CF6D917C9104
:102EC0007A01E61AF70AE8CFAB1709F465C081EC7E
:102ED000482E8CE0582EAFE7BCE07B010024F6942E
:102EE000E7940794F694E7940794FE2CE02CC7012E
:102EF0008050964F7C0180EC482F46034001479F4D
:102F0000900C1124E1E1F5E080E090E059013D01F1
:102F1000A70178010FC07096BFEF4B1A5B0A0296AB
:102F200002E0600E711C4E5F5F4F17E0E131F10768
:102F300009F48FCC2081213071F79C012258364F43
:102F4000D9011D921C929A01280D391D2E0D3F1D8D
:102F5000D9012D913C9136FF18C0D3012D913C91A0
:102F6000B901C12CD12C8C010E51134FD8016D9396
:102F70007C93D3012D933C939C01215C334FD90169
:102F8000CD92DC92D2011C92C6CFD3016D917C917F
:102F90006901C61AD70AE7CFAFE7BCE041EC5CE0B5
:102FA0000054164FE1E1F5E080E090E05D014A0158
:102FB0000DC070960296B2E0AB0EB11C4FEF841AB2
:102FC000940A57E0E131F50709F444CC40814130DF
:102FD00081F7AC014258564FDA011D921C92A801AC
:102FE000480F591F405C5F4FDA014D915C91D5014C
:102FF00056FF16C04D915C91BA01E12CF12CDC0119
:10300000AE51B34F6D937C93D5014D935C93AC015E
:10301000415C534FDA01ED92FC92D4011C92C9CF6E
:103020006D917C917A01E61AF70AE9CFAFE7BCE02F
:1030300041EC5CE00054164FE1E1F5E080E090E007
:103040005D014A010DC070960296B2E0AB0EB11C54
:103050004FEF841A940A57E0E131F50709F4FACBEF
:103060004081413081F7AC014258564FDA011D9240
:103070001C92A801480F591F405C5F4FDA014D9127
:103080005C9156FF17C0D5014D915C91BA01E12CBE
:10309000F12CDC01AE51B34F6D937C93D5014D9370
:1030A0005C93AC01415C534FDA01ED92FC92D40188
:1030B0001C92C9CFD5016D917C917A01E61AF70A6D
:1030C000E8CFFC0120E030E090E08191980F2F5F85
:1030D0003F4F211582E03807C1F781E0911180E070
:1030E000089520E032E0FC01A901119241505040C6
:1030F000E1F70895FB0120E030E0DC01A20FB31FEF
:103100004C9141932F5F3F4F211542E03407A9F7BF
:103110000895EF92FF920F931F93CF93DF93F62EB4
:10312000E72E082F10E020E030E000511F4F2F4F16
:103130003F4F89E0000F111F221F331F8A95D1F7DF
:10314000C62FD72F80E090E0DC01AC01BD01400F1D
:10315000511F621F731F6BBFFA014791499301967C
:10316000A11DB11D811542E09407A105B10569F7C4
:10317000EF2DFE2D20E080E090E03191230F0196AD
:10318000811532E09307C9F781E0211180E0819534
:10319000DF91CF911F910F91FF90EF9008954F9283
:1031A0005F926F927F928F929F92AF92BF92CF92D7
:1031B000DF92EF92FF921F93CF93DF938091A30D45
:1031C000813081F0DF91CF911F91FF90EF90DF90E0
:1031D000CF90BF90AF909F908F907F906F905F90B7
:1031E0004F9008951091610D113061F783E00E94B6
:1031F0006E0A2091A60D3091A70D7C01E21AF30A08
:1032000084E00E946E0A2091A40D3091A50DEC017E
:10321000C21BD30B88E3E8168FEFF8060CF470C0DE
:1032200089ECE816F10414F01093620DB7018827B9
:1032300077FD8095982F0E94C24A6B017C0126E29F
:1032400034EB47E95DE30E94724B2B013C0129E31B
:103250003EE843E65EE3C701B6010E94724B4B01B4
:103260005C01BE01882777FD8095982F0E94C24A95
:103270006B017C012DEC3CEC4CE45EE30E94724B54
:103280000E94944A7093740D6093730D7093760D41
:103290006093750DC301B2010E94944A70937C0D36
:1032A00060937B0DC301B20190580E94944A7093C1
:1032B0007E0D60937D0DC501B4010E94944A709308
:1032C000800D60937F0DC501B40190580E94944A0F
:1032D0007093820D6093810D2DEC3CEC4CEC5DE322
:1032E000C701B6010E94724B90580E94944A709395
:1032F000840D6093830D7093860D6093850D62CF6E
:1033000082E08093620D92CFE82FF0E0EE0FFF1F76
:10331000ED59F24F80819181089523E63DE0FC0153
:103320003183208308951092A70D1092A60D10925C
:10333000A50D1092A40D1092610D1092A30D109284
:10334000620D80E4E3E6FDE0DF011D928A95E9F776
:1033500008958091620D1092620D08951092620D91
:1033600008952F923F924F925F926F927F928F9229
:103370009F92AF92BF92CF92DF92EF92FF920F9304
:103380001F93CF93DF93CDB7DEB7E4970FB6F894D2
:10339000DEBF0FBECDBF1092A70D1092A60D1092EA
:1033A000A50D1092A40D82E390E00E949C0C7E017A
:1033B00085E1E80EF11CFE013196FAA7E9A71E018E
:1033C000F9E22F0E311C812C912C5401240135017E
:1033D00004C00E94330C0E941B060E94E10C88234B
:1033E000C1F383E00E946E0A8C01F70181939193EF
:1033F0007F0184E00E946E0A6C01E9A5FAA5819321
:103400009193FAA7E9A7B80180E090E00E94C04A32
:103410009B01AC01C301B2010E94C4492B013C01D4
:10342000B60180E090E00E94C04A9B01AC01C5015A
:10343000B4010E94C4494B015C01E214F30469F633
:103440000E94F30C20E030E040E251E4C301B201FD
:103450000E942C4A6B017C0120E030E040E251E404
:10346000C501B4010E942C4A69A77AA78BA79CA723
:103470006D897E8980E090E00E94C04AA701960194
:103480000E94C3499B01AC010E94724B20E030E0D6
:10349000A9010E94C4492B013C0169817A8180E025
:1034A00090E00E94C04A29A53AA54BA55CA50E94C0
:1034B000C3499B01AC010E94724B20E030E0A9019E
:1034C0000E94C4494B015C016F89788D80E090E0D7
:1034D0000E94C04AA70196010E94C3499B01AC010A
:1034E0000E94724BA30192010E94C4492B013C012E
:1034F0006B817C8180E090E00E94C04A29A53AA5BA
:103500004BA55CA50E94C3499B01AC010E94724B74
:103510009B01AC01C501B4010E94C4494B015C018F
:10352000698D7A8D80E090E00E94C04AA7019601E3
:103530000E94C3499B01AC010E94724B9B01AC01EC
:10354000C301B2010E94C4492B013C016D817E81FF
:1035500080E090E00E94C04A29A53AA54BA55CA551
:103560000E94C3499B01AC010E94724B9B01AC01BC
:10357000C501B4010E94C4494B015C016B8D7C8D77
:1035800080E090E00E94C04AA70196010E94C349D2
:103590009B01AC010E94724B9B01AC01C301B201C3
:1035A0000E94C4492B013C016F81788580E090E046
:1035B0000E94C04A29A53AA54BA55CA50E94C34913
:1035C0009B01AC010E94724B9B01AC01C501B4018F
:1035D0000E94C4494B015C016D8D7E8D80E090E0BE
:1035E0000E94C04AA70196010E94C3499B01AC01F9
:1035F0000E94724B9B01AC01C301B2010E94C449FD
:103600002B013C0169857A8580E090E00E94C04AE8
:1036100029A53AA54BA55CA50E94C3499B01AC0115
:103620000E94724B9B01AC01C501B4010E94C449C8
:103630004B015C016F8D78A180E090E00E94C04A50
:10364000A70196010E94C3499B01AC010E94724BE5
:103650009B01AC01C301B2010E94C4492B013C0192
:103660006B857C8580E090E00E94C04A29A53AA540
:103670004BA55CA50E94C3499B01AC010E94724B03
:103680009B01AC01C501B4010E94C4494B015C011E
:1036900069A17AA180E090E00E94C04AA70196014A
:1036A0000E94C3499B01AC010E94724B9B01AC017B
:1036B000C301B2010E94C4492B013C016D857E8586
:1036C00080E090E00E94C04A29A53AA54BA55CA5E0
:1036D0000E94C3499B01AC010E94724B9B01AC014B
:1036E000C501B4010E94C4494B015C016BA17CA1DE
:1036F00080E090E00E94C04AA70196010E94C34961
:103700009B01AC010E94724B9B01AC01C301B20151
:103710000E94C4492B013C016F85788980E090E0CC
:103720000E94C04A29A53AA54BA55CA50E94C349A1
:103730009B01AC010E94724B9B01AC01C501B4011D
:103740000E94C4494B015C016DA17EA180E090E024
:103750000E94C04AA70196010E94C3499B01AC0187
:103760000E94724B9B01AC01C301B2010E94C4498B
:103770006DA77EA78FA798AB69897A8980E090E0D2
:103780000E94C04A29A53AA54BA55CA50E94C34941
:103790009B01AC010E94724B9B01AC01C501B401BD
:1037A0000E94C44969AB7AAB8BAB9CAB6FA178A587
:1037B00080E090E00E94C04AA70196010E94C349A0
:1037C0002B013C016B897C8980E090E00E94C04A1B
:1037D00029A53AA54BA55CA50E94C3494B015C01F4
:1037E000A3019201C301B2010E94724B2DA53EA517
:1037F0004FA558A90E94C44920E030E040E251E4BE
:103800000E942C4A0E94D94B2B013C01A501940136
:10381000C501B4010E94724B29A93AA94BA95CA920
:103820000E94C44920E030E040E251E40E942C4A6A
:103830000E94D94B4B015C0120E030E040EA51E4AA
:10384000C301B2010E94284A87FF0AC020E030E08D
:1038500040EA51E4C501B4010E94284A87FD26C010
:1038600044E650E06AE070E084E00E94FD0A809146
:103870007A118F7780937A1180E0E4960FB6F894EE
:10388000DEBF0FBECDBFDF91CF911F910F91FF9093
:10389000EF90DF90CF90BF90AF909F908F907F90F0
:1038A0006F905F904F903F902F90089581E08093AC
:1038B000610DC701B6010E94944A7093A70D6093F1
:1038C000A60D69A57AA58BA59CA50E94944A709324
:1038D000A50D6093A40D0E94F00A81E0CECF81E097
:1038E0008093A30D08951092A30D08958091A30DC8
:1038F00008950F931F93CF93DF93EC011091E8028B
:10390000113091F108F442C0123081F01330C1F54A
:103910000E94001081112CC01092AC0D1092E80290
:1039200081E0DF91CF911F910F9108950E940010C7
:1039300081111EC01091AC0D8091AB0D113009F4B6
:1039400054C0882309F44AC08A810E94A20F1092B1
:10395000AB0D0E94AE0F82E08093E80280E0DF9121
:10396000CF911F910F9108950E940010882321F19B
:103970001093E80280E0DF91CF911F910F9108959D
:1039800080E0DF91CF911F910F9108958091AA0D52
:10399000882301F189810E94A20F0E94AE0F8091BD
:1039A000AA0D8093AB0D81E08093E80280E0DF9167
:1039B000CF911F910F9108950091AC0D8091AB0DA7
:1039C000013009F18111C0CF8B810E94A20F1093A9
:1039D000AB0DBFCF88810E94A20FDFCF8B810E94E9
:1039E000A20F81E08093AB0DB4CF811114C08D8103
:1039F0000E94A20F1093AB0D0E94AE0F83E0809344
:103A0000E80280E0B8CF811106C08D810E94A20F2C
:103A10000093AB0DF1CF8C810E94A20F1092AB0DE1
:103A2000EBCF1F93CF93DF93EC011091E70211309E
:103A300029F1A0F1123079F0133059F50E940010ED
:103A4000811120C01092AC0D1092E70281E0DF914D
:103A5000CF911F9108950E940010811113C0809191
:103A6000AB0D81115FC08091AC0D813009F447C06E
:103A70008B810E94A20F1093E70233C00E940010B6
:103A8000882309F11093E70280E0DF91CF911F9125
:103A9000089580E0DF91CF911F9108958091AA0D44
:103AA000882349F189810E94A20F0E94AE0F809164
:103AB000AA0D8093AB0D81E08093E70280E0DF9157
:103AC000CF911F9108958091AB0D81111FC08091FE
:103AD000AC0D8130A1F08B810E94A20F82E0809317
:103AE000E70281E08093AB0D0E94AE0F80E0DF9192
:103AF000CF911F91089588810E94A20FD6CF8D810A
:103B00000E94A20F83E08093E702EBCF8A810E949C
:103B1000A20F1092AB0D0E94AE0F82E08093E702DD
:103B200080E0B3CF8A810E94A20F1092AB0D0E9459
:103B3000AE0F1093E70280E0A8CF1F93CF93DF93DF
:103B4000EC011091E602113031F1A8F1123079F058
:103B5000133061F50E940010811121C01092AC0D4C
:103B60001092E60281E0DF91CF911F9108950E94AB
:103B70000010811114C08091AB0D813009F057C045
:103B80008091AC0D813009F45EC08A810E94A20F41
:103B90001093E60233C00E940010882309F11093AD
:103BA000E60280E0DF91CF911F91089580E0DF91E0
:103BB000CF911F9108958091AA0D882341F18981A9
:103BC0000E94A20F0E94AE0F8091AA0D8093AB0DB0
:103BD00081E08093E60280E0DF91CF911F9108950C
:103BE0008091AB0D8130B9F48091AC0D813059F1E9
:103BF0008A810E94A20F82E08093E6021092AB0DB0
:103C00000E94AE0F80E0DF91CF911F9108958881CF
:103C10000E94A20FD7CF8B810E94A20F1093AB0DF1
:103C20000E94AE0F82E08093E60280E0BBCF8B81E2
:103C30000E94A20F81E08093AB0D0E94AE0F109303
:103C4000E60280E0AFCF8C810E94A20F83E08093D8
:103C5000E602D4CF8091AB0D882319F01092AB0D02
:103C6000089581E08093AB0D0895681B790B683F40
:103C700088EF780744F0693087E0780714F06051E6
:103C80007E40CB010895605F714FCB010895680FAE
:103C9000791F77FD08C061318EE0780714F060511C
:103CA0007E40CB010895605F714FCB010895109263
:103CB000AC0D1092AA0D1092AB0D1092A90D10929E
:103CC000A80D089581E08093AC0D08958093AA0D0E
:103CD00008951092A90D1092A80D08958091A80D35
:103CE0009091A90D0895CF93DF93C091E802C13060
:103CF00071F1D8F1C23071F0C33099F50E94001013
:103D0000811129C01092AC0D1092E80281E0DF9180
:103D1000CF9108950E94001081111DC0C091AC0D7B
:103D20008091AB0DC13009F451C0882309F446C01D
:103D3000809102020E94A20F1092AB0D0E94AE0F62
:103D400082E08093E80280E0DF91CF9108950E94A5
:103D500000108823F9F0C093E80280E0DF91CF9152
:103D6000089580E0DF91CF9108958091AA0D882376
:103D700001F1809101020E94A20F0E94AE0F80917A
:103D8000AA0D8093AB0D81E08093E80280E0DF9183
:103D9000CF910895D091AC0D8091AB0DD13029F128
:103DA0008111C6CF809103020E94A20FC093AB0D78
:103DB000C5CF809100020E94A20FDFCF8091030245
:103DC0000E94A20F81E08093AB0DB8CF811116C085
:103DD000809105020E94A20FC093AB0D0E94AE0F0E
:103DE00083E08093E80280E0B9CF811107C0809121
:103DF00005020E94A20FD093AB0DF0CF8091040278
:103E00000E94A20F1092AB0DE9CFCF93DF93C09128
:103E1000E802C13071F1D8F1C23071F0C33099F5C8
:103E20000E940010811129C01092AC0D1092E8027E
:103E300081E0DF91CF9108950E94001081111DC093
:103E4000C091AC0D8091AB0DC13009F451C08823F5
:103E500009F446C0809108020E94A20F1092AB0D97
:103E60000E94AE0F82E08093E80280E0DF91CF9164
:103E700008950E9400108823F9F0C093E80280E0C2
:103E8000DF91CF91089580E0DF91CF9108958091E7
:103E9000AA0D882301F1809107020E94A20F0E94BF
:103EA000AE0F8091AA0D8093AB0D81E08093E80264
:103EB00080E0DF91CF910895D091AC0D8091AB0D52
:103EC000D13029F18111C6CF809109020E94A20F41
:103ED000C093AB0DC5CF809106020E94A20FDFCF29
:103EE000809109020E94A20F81E08093AB0DB8CFB0
:103EF000811116C080910B020E94A20FC093AB0DDE
:103F00000E94AE0F83E08093E80280E0B9CF811178
:103F100007C080910B020E94A20FD093AB0DF0CF8F
:103F200080910A020E94A20F1092AB0DE9CFCF93AD
:103F3000C091E702C13021F178F1C23069F0C3309D
:103F400041F50E94001081111FC01092AC0D10921B
:103F5000E70281E0CF9108950E940010811114C002
:103F60008091AB0D81115DC08091AC0D813009F461
:103F700043C080910F020E94A20FC093E7022FC09E
:103F80000E9400108823E1F0C093E70280E0CF9107
:103F9000089580E0CF9108958091AA0D882339F18A
:103FA00080910D020E94A20F0E94AE0F8091AA0D77
:103FB0008093AB0D81E08093E70280E0CF9108957C
:103FC0008091AB0D811120C08091AC0D8130A1F0AA
:103FD00080910F020E94A20F82E08093E70281E0AD
:103FE0008093AB0D0E94AE0F80E0CF910895809139
:103FF0000C020E94A20FD8CF809111020E94A20F42
:1040000083E08093E702EBCF80910E020E94A20F23
:104010001092AB0D0E94AE0F82E08093E70280E029
:10402000B6CF80910E020E94A20F1092AB0D0E949B
:10403000AE0FC093E70280E0AACFCF93C091E60213
:10404000C13029F180F1C23069F0C33049F50E94D6
:104050000010811120C01092AC0D1092E60281E098
:10406000CF9108950E940010811115C08091AB0D71
:10407000813009F054C08091AC0D813009F45CC0EE
:10408000809114020E94A20FC093E6022FC00E94EA
:1040900000108823E1F0C093E60280E0CF910895FC
:1040A00080E0CF9108958091AA0D882331F180910D
:1040B00013020E94A20F0E94AE0F8091AA0D80935E
:1040C000AB0D81E08093E60280E0CF91089580916E
:1040D000AB0D8130B9F48091AC0D813069F18091E4
:1040E00014020E94A20F82E08093E6021092AB0DB0
:1040F0000E94AE0F80E0CF910895809112020E943D
:10410000A20FD9CF809115020E94A20FC093AB0DD0
:104110000E94AE0F82E08093E60280E0BFCF8091E4
:1041200015020E94A20F81E08093AB0D0E94AE0F9A
:10413000C093E60280E0B2CF809116020E94A20FE7
:1041400083E08093E602D2CFCF93C091E702C130E3
:1041500021F178F1C23069F0C33041F50E940010BE
:1041600081111FC01092AC0D1092E70281E0CF9137
:1041700008950E940010811114C08091AB0D81112F
:104180005DC08091AC0D813009F443C080911B0269
:104190000E94A20FC093E7022FC00E940010882344
:1041A000E1F0C093E70280E0CF91089580E0CF91E5
:1041B00008958091AA0D882339F1809119020E94F7
:1041C000A20F0E94AE0F8091AA0D8093AB0D81E0EB
:1041D0008093E70280E0CF9108958091AB0D81112B
:1041E00020C08091AC0D8130A1F080911B020E9413
:1041F000A20F82E08093E70281E08093AB0D0E94E2
:10420000AE0F80E0CF910895809118020E94A20F16
:10421000D8CF80911D020E94A20F83E08093E70215
:10422000EBCF80911A020E94A20F1092AB0D0E9458
:10423000AE0F82E08093E70280E0B6CF80911A0251
:104240000E94A20F1092AB0D0E94AE0FC093E70226
:1042500080E0AACFCF93C091E602C13029F180F16E
:10426000C23069F0C33049F50E940010811120C0AE
:104270001092AC0D1092E60281E0CF9108950E9459
:104280000010811115C08091AB0D813009F054C030
:104290008091AC0D813009F45CC0809120020E94B5
:1042A000A20FC093E6022FC00E9400108823E1F005
:1042B000C093E60280E0CF91089580E0CF91089509
:1042C0008091AA0D882331F180911F020E94A20FD4
:1042D0000E94AE0F8091AA0D8093AB0D81E0809378
:1042E000E60280E0CF9108958091AB0D8130B9F462
:1042F0008091AC0D813069F1809120020E94A20F63
:1043000082E08093E6021092AB0D0E94AE0F80E037
:10431000CF91089580911E020E94A20FD9CF809163
:1043200021020E94A20FC093AB0D0E94AE0F82E04B
:104330008093E60280E0BFCF809121020E94A20F0D
:1043400081E08093AB0D0E94AE0FC093E60280E047
:10435000B2CF809122020E94A20F83E08093E602F6
:10436000D2CFCF93C091E702C13021F178F1C230B2
:1043700069F0C33041F50E94001081111FC01092F6
:10438000AC0D1092E70281E0CF9108950E940010D9
:10439000811114C08091AB0D81115DC08091AC0D75
:1043A000813009F443C0809127020E94A20FC0937C
:1043B000E7022FC00E9400108823E1F0C093E702BB
:1043C00080E0CF91089580E0CF9108958091AA0D6B
:1043D000882339F1809125020E94A20F0E94AE0F1E
:1043E0008091AA0D8093AB0D81E08093E70280E07D
:1043F000CF9108958091AB0D811120C08091AC0DBB
:104400008130A1F0809127020E94A20F82E0809368
:10441000E70281E08093AB0D0E94AE0F80E0CF9168
:104420000895809124020E94A20FD8CF8091290282
:104430000E94A20F83E08093E702EBCF80912602D7
:104440000E94A20F1092AB0D0E94AE0F82E08093EB
:10445000E70280E0B6CF809126020E94A20F109260
:10446000AB0D0E94AE0FC093E70280E0AACFCF93BE
:10447000C091E602C13029F180F1C23069F0C33049
:1044800049F50E940010811120C01092AC0D1092CD
:10449000E60281E0CF9108950E940010811115C0BD
:1044A0008091AB0D813009F054C08091AC0D81300A
:1044B00009F45CC080912C020E94A20FC093E60216
:1044C0002FC00E9400108823E1F0C093E60280E034
:1044D000CF91089580E0CF9108958091AA0D88230F
:1044E00031F180912B020E94A20F0E94AE0F8091A9
:1044F000AA0D8093AB0D81E08093E60280E0CF911E
:1045000008958091AB0D8130B9F48091AC0D81306C
:1045100069F180912C020E94A20F82E08093E60252
:104520001092AB0D0E94AE0F80E0CF910895809164
:104530002A020E94A20FD9CF80912D020E94A20FC1
:10454000C093AB0D0E94AE0F82E08093E60280E044
:10455000BFCF80912D020E94A20F81E08093AB0D0E
:104560000E94AE0FC093E60280E0B2CF80912E028F
:104570000E94A20F83E08093E602D2CFCF93C09136
:10458000E702C13021F178F1C23069F0C33041F562
:104590000E94001081111FC01092AC0D1092E70212
:1045A00081E0CF9108950E940010811114C0809184
:1045B000AB0D81115DC08091AC0D813009F443C019
:1045C000809133020E94A20FC093E7022FC00E9485
:1045D00000108823E1F0C093E70280E0CF910895B6
:1045E00080E0CF9108958091AA0D882339F18091C0
:1045F00031020E94A20F0E94AE0F8091AA0D8093FB
:10460000AB0D81E08093E70280E0CF910895809127
:10461000AB0D811120C08091AC0D8130A1F0809153
:1046200033020E94A20F82E08093E70281E0809330
:10463000AB0D0E94AE0F80E0CF91089580913002C3
:104640000E94A20FD8CF809135020E94A20F83E072
:104650008093E702EBCF809132020E94A20F10926A
:10466000AB0D0E94AE0F82E08093E70280E0B6CFF0
:10467000809132020E94A20F1092AB0D0E94AE0FE9
:10468000C093E70280E0AACFCF93C091E602C13089
:1046900029F180F1C23069F0C33049F50E94001061
:1046A000811120C01092AC0D1092E60281E0CF91F2
:1046B00008950E940010811115C08091AB0D8130CA
:1046C00009F054C08091AC0D813009F45CC0809138
:1046D00038020E94A20FC093E6022FC00E94001071
:1046E0008823E1F0C093E60280E0CF91089580E056
:1046F000CF9108958091AA0D882331F180913702DE
:104700000E94A20F0E94AE0F8091AA0D8093AB0D64
:1047100081E08093E60280E0CF9108958091AB0D17
:104720008130B9F48091AC0D813069F1809138020B
:104730000E94A20F82E08093E6021092AB0D0E94CD
:10474000AE0F80E0CF910895809136020E94A20FB3
:10475000D9CF809139020E94A20FC093AB0D0E9465
:10476000AE0F82E08093E60280E0BFCF80913902F5
:104770000E94A20F81E08093AB0D0E94AE0FC09308
:10478000E60280E0B2CF80913A020E94A20F83E05D
:104790008093E602D2CFCF93C091E702C13021F1DE
:1047A00078F1C23069F0C33041F50E9400108111E8
:1047B0001FC01092AC0D1092E70281E0CF910895D6
:1047C0000E940010811114C08091AB0D81115DC059
:1047D0008091AC0D813009F443C080913F020E946A
:1047E000A20FC093E7022FC00E9400108823E1F0BF
:1047F000C093E70280E0CF91089580E0CF910895C3
:104800008091AA0D882339F180913D020E94A20F68
:104810000E94AE0F8091AA0D8093AB0D81E0809332
:10482000E70280E0CF9108958091AB0D811120C007
:104830008091AC0D8130A1F080913F020E94A20FC7
:1048400082E08093E70281E08093AB0D0E94AE0F7F
:1048500080E0CF91089580913C020E94A20FD8CFB2
:10486000809141020E94A20F83E08093E702EBCF88
:1048700080913E020E94A20F1092AB0D0E94AE0FDB
:1048800082E08093E70280E0B6CF80913E020E94F2
:10489000A20F1092AB0D0E94AE0FC093E70280E012
:1048A000AACFCF93C091E602C13029F180F1C23086
:1048B00069F0C33049F50E940010811120C01092A8
:1048C000AC0D1092E60281E0CF9108950E94001095
:1048D000811115C08091AB0D813009F054C08091D9
:1048E000AC0D813009F45CC0809144020E94A20F9B
:1048F000C093E6022FC00E9400108823E1F0C0930D
:10490000E60280E0CF91089580E0CF9108958091F4
:10491000AA0D882331F1809143020E94A20F0E94C8
:10492000AE0F8091AA0D8093AB0D81E08093E602DB
:1049300080E0CF9108958091AB0D8130B9F48091E2
:10494000AC0D813069F1809144020E94A20F82E097
:104950008093E6021092AB0D0E94AE0F80E0CF91E3
:104960000895809142020E94A20FD9CF8091450202
:104970000E94A20FC093AB0D0E94AE0F82E0809305
:10498000E60280E0BFCF809145020E94A20F81E045
:104990008093AB0D0E94AE0FC093E60280E0B2CFD1
:1049A000809146020E94A20F83E08093E602D2CF5C
:1049B000CF93C091E702C13021F178F1C23069F0A4
:1049C000C33041F50E94001081111FC01092AC0D40
:1049D0001092E70281E0CF9108950E9400108111AA
:1049E00014C08091AB0D81115DC08091AC0D813000
:1049F00009F443C080914B020E94A20FC093E702CA
:104A00002FC00E9400108823E1F0C093E70280E0ED
:104A1000CF91089580E0CF9108958091AA0D8823C9
:104A200039F1809149020E94A20F0E94AE0F80913D
:104A3000AA0D8093AB0D81E08093E70280E0CF91D7
:104A400008958091AB0D811120C08091AC0D813013
:104A5000A1F080914B020E94A20F82E08093E702B6
:104A600081E08093AB0D0E94AE0F80E0CF9108955E
:104A7000809148020E94A20FD8CF80914D020E94DF
:104A8000A20F83E08093E702EBCF80914A020E945D
:104A9000A20F1092AB0D0E94AE0F82E08093E7024E
:104AA00080E0B6CF80914A020E94A20F1092AB0D17
:104AB0000E94AE0FC093E70280E0AACFCF93C091CF
:104AC000E602C13029F180F1C23069F0C33049F506
:104AD0000E940010811120C01092AC0D1092E602CD
:104AE00081E0CF9108950E940010811115C080913E
:104AF000AB0D813009F054C08091AC0D813009F4C8
:104B00005CC0809150020E94A20FC093E6022FC0A9
:104B10000E9400108823E1F0C093E60280E0CF916C
:104B2000089580E0CF9108958091AA0D882331F1F6
:104B300080914F020E94A20F0E94AE0F8091AA0D99
:104B40008093AB0D81E08093E60280E0CF910895E1
:104B50008091AB0D8130B9F48091AC0D813069F159
:104B6000809150020E94A20F82E08093E602109290
:104B7000AB0D0E94AE0F80E0CF91089580914E0260
:104B80000E94A20FD9CF809151020E94A20FC09320
:104B9000AB0D0E94AE0F82E08093E60280E0BFCFB3
:104BA000809151020E94A20F81E08093AB0D0E9480
:104BB000AE0FC093E60280E0B2CF809152020E9415
:104BC000A20F83E08093E602D2CFCF93DF93C09110
:104BD000E802C13071F1D8F1C23071F0C33099F5FB
:104BE0000E940010811129C01092AC0D1092E802B1
:104BF00081E0DF91CF9108950E94001081111DC0C6
:104C0000C091AC0D8091AB0DC13009F451C0882327
:104C100009F446C0809156020E94A20F1092AB0D7B
:104C20000E94AE0F82E08093E80280E0DF91CF9196
:104C300008950E9400108823F9F0C093E80280E0F4
:104C4000DF91CF91089580E0DF91CF910895809119
:104C5000AA0D882301F1809155020E94A20F0E94A3
:104C6000AE0F8091AA0D8093AB0D81E08093E80296
:104C700080E0DF91CF910895D091AC0D8091AB0D84
:104C8000D13029F18111C6CF809157020E94A20F25
:104C9000C093AB0DC5CF809154020E94A20FDFCF0D
:104CA000809157020E94A20F81E08093AB0DB8CF94
:104CB000811116C0809159020E94A20FC093AB0DC2
:104CC0000E94AE0F83E08093E80280E0B9CF8111AB
:104CD00007C0809159020E94A20FD093AB0DF0CF74
:104CE000809158020E94A20F1092AB0DE9CFCF9392
:104CF000DF93C091E802C13071F1D8F1C23071F098
:104D0000C33099F50E940010811129C01092AC0D9A
:104D10001092E80281E0DF91CF9108950E94001087
:104D200081111DC0C091AC0D8091AB0DC13009F453
:104D300051C0882309F446C080915C020E94A20FF2
:104D40001092AB0D0E94AE0F82E08093E80280E0EB
:104D5000DF91CF9108950E9400108823F9F0C0934D
:104D6000E80280E0DF91CF91089580E0DF91CF915C
:104D700008958091AA0D882301F180915B020E9421
:104D8000A20F0E94AE0F8091AA0D8093AB0D81E01F
:104D90008093E80280E0DF91CF910895D091AC0D2F
:104DA0008091AB0DD13029F18111C6CF80915D0288
:104DB0000E94A20FC093AB0DC5CF80915A020E94F2
:104DC000A20FDFCF80915D020E94A20F81E080934D
:104DD000AB0DB8CF811116C080915F020E94A20F67
:104DE000C093AB0D0E94AE0F83E08093E80280E099
:104DF000B9CF811107C080915F020E94A20FD093AA
:104E0000AB0DF0CF80915E020E94A20F1092AB0D0D
:104E1000E9CF08950895089508950895089508958F
:104E200008951F93CF93DF931F921F92CDB7DEB7E4
:104E3000681B790B683F88EF78073CF5605F714F1E
:104E40001091E502113059F1113008F4A1C012306F
:104E500009F45EC0133009F094C00E940010811163
:104E600087C08091A80D9091A90D01969093A90DEE
:104E70008093A80D1092AC0D1092E50281E00F9086
:104E80000F90DF91CF911F9108956930E7E07E0781
:104E9000BCF260517E401091E5021130A9F66983A1
:104EA0007A830E94001069817A81811161C08091AA
:104EB000A80D9091A90D01969093A90D8093A80D2E
:104EC0008091AC0D813009F4B2C0CB018D599F4F58
:104ED000873C910508F47BC08091AB0D6C39FFEFE6
:104EE0007F070CF08AC0882309F4C3C0813009F41D
:104EF000F9C091E09093E50281118BC081E080932D
:104F0000AB0D80E00F900F90DF91CF911F9108952E
:104F100069837A830E94001069817A81811128C097
:104F20008091A80D9091A90D01969093A90D809361
:104F3000A80D8091AC0D813009F488C0CB0177FDBC
:104F4000A0C0853691050CF46DC08091AB0D16168E
:104F500017060CF04CC0811190C08CE60E94A20F85
:104F60000E94AE0F82E08093E5028091AB0DC4CF2A
:104F70001093E50280E00F900F90DF91CF911F9189
:104F8000089580E00F900F90DF91CF911F910895C9
:104F90008091AA0D8823B9F082E20E94A20F0E949C
:104FA000AE0F8091AA0D90E00196817099278093B1
:104FB000AB0D81E08093E50280E00F900F90DF91D0
:104FC000CF911F91089580E20E94A20FE8CF8091B7
:104FD000AB0D882309F44DC086E20E94A20F0E9407
:104FE000AE0F81E08093E5028091AB0D85CF8111FA
:104FF0005AC088E70E94A20FB3CF653671050CF442
:1050000068C0813049F3882309F458C081E0809357
:10501000E5021092AB0D80E00F900F90DF91CF91E1
:105020001F91089581E08093E50280E0A4CF8091F4
:10503000AB0D81112BC088E20E94A20F0E94AE0F1F
:1050400083E08093E5028091AB0D56CF8091AB0D4C
:1050500016161706FCF4813051F18CE60E94A20F5F
:105060001093E5020E94AE0F8091AB0D8111D1CF5C
:1050700045CF84E20E94A20FB2CF8EE60E94A20F1B
:105080006FCF88279927861B970B5BCF8AE20E94F8
:10509000A20FD4CF811120C08CE70E94A20F83E021
:1050A0008093E502DFCF8AE70E94A20F59CF82E703
:1050B0000E94A20F83E08093E502D4CF82E0809328
:1050C000E5028CE60E94A20F0E94AE0F8091AB0D0C
:1050D00013CF77FF98CF0ACF8AE70E94A20F1093D1
:1050E000E502C0CF8AE70E94A20F82E08093E5022A
:1050F0000E94AE0F8091AB0DFFCE1F93CF93DF9335
:105100001F921F92CDB7DEB7681B790B683F88EFFF
:1051100078073CF5605F714F1091E402113059F14E
:10512000113008F49EC0123009F45DC0133009F04C
:1051300091C00E940010811184C08091A80D9091AF
:10514000A90D01979093A90D8093A80D1092AC0D15
:105150001092E40281E00F900F90DF91CF911F91A8
:1051600008956930E7E07E07BCF260517E401091FF
:10517000E4021130A9F669837A830E9400106981E4
:105180007A8181115EC08091A80D9091A90D01973F
:105190009093A90D8093A80D8091AC0D813009F4F6
:1051A000B0C0CB018D599F4F873C910508F478C062
:1051B0008091AB0D653671050CF488C0882309F425
:1051C000C2C0813009F4E7C091E09093E4028111FC
:1051D0008AC081E08093AB0D80E00F900F90DF914B
:1051E000CF911F91089569837A830E94001069818D
:1051F0007A81811126C08091A80D9091A90D019707
:105200009093A90D8093A80D8091AC0D813009F485
:1052100087C0CB0177FD9FC0853691050CF46CC02B
:105220008091AB0D77FD4CC0811191C080E90E9447
:10523000A20F0E94AE0F82E08093E4028091AB0D3A
:10524000C6CF1093E40280E00F900F90DF91CF91D2
:105250001F91089580E00F900F90DF91CF911F91E3
:1052600008958091AA0D8823B9F08EE20E94A20FC2
:105270000E94AE0F8091AA0D90E00196817099274F
:105280008093AB0D81E08093E40280E00F900F905B
:10529000DF91CF911F9108958CE20E94A20FE8CF79
:1052A0008091AB0D882309F44EC082E30E94A20FC7
:1052B0000E94AE0F81E08093E4028091AB0D87CF16
:1052C000811160C084E80E94A20FB3CF6C39FFEF58
:1052D0007F070CF05BC0813041F3882309F46DC077
:1052E00081E08093E4021092AB0D80E00F900F906C
:1052F000DF91CF911F91089581E08093E40280E0D7
:10530000A3CF8091AB0D81112BC084E30E94A20F2B
:105310000E94AE0F83E08093E4028091AB0D57CFE3
:105320008091AB0D77FD26C081111EC084E90E94DB
:10533000A20F83E08093E4020E94AE0F8091AB0D38
:105340008111D1CF46CF80E30E94A20FB1CF82E975
:105350000E94A20F6ECF88279927861B970B5CCFE0
:1053600086E30E94A20FD4CF82E90E94A20F10937D
:10537000E402E2CF8130D1F084E80E94A20F1093C2
:10538000E402DACF86E80E94A20F53CF1616170662
:105390000CF417CFA2CF82E90E94A20F82E0809383
:1053A000E4020E94AE0F8091AB0D11CF8AE80E94FB
:1053B000A20F83E08093E402BFCF82E08093E402F7
:1053C00084E80E94A20F0E94AE0F8091AB0DFFCE29
:1053D000CF93DF93D82FC091E302C13019F180F051
:1053E000C23021F080E0DF91CF9108950E94EA0C55
:1053F000811129C0C093E30280E0DF91CF9108952D
:105400000E94001081111BC0D13019F18CE10E9463
:10541000A20F0E94AE0F81E08093E30280E0DF9153
:10542000CF9108950E9400108111E4CF82E0809313
:10543000E30288EE93E00E94BE0C80E0D4CF10928D
:10544000E30280E0D0CF0E94AE191092E30281E027
:10545000CACF8BE10E94A20FDCCFCF93C82F40911F
:10546000E20250E04830510530F080E0C111109266
:10547000E202CF910895FA01EA59FE4F0C94724965
:105480000E940010882309F456C086E08093E2024F
:1054900080E0ECCF0E940010882309F448C087E028
:1054A0008093E20280E0E2CF0E9400108823A9F1FD
:1054B0000E94FC0F81E08093E20280E0D7CF0E943F
:1054C0000010882351F181E08093E20280E0CECF8A
:1054D0000E940010882309F456C082E08093E20203
:1054E00080E0C4CF0E94EA0C811143C083E0809326
:1054F000E20280E0BBCF0E940010882381F184E0AB
:105500008093E20280E0B2CF0E9400108823E9F08D
:1055100085E08093E20280E0A9CF83EE0E94A20F93
:105520000E94AE0F82E08093E20280E09FCF109253
:10553000E20281E09BCF8FE10E94A20F0E94AE0F9A
:1055400087E08093E20280E091CF82EE0E94A20F7A
:105550000E94AE0F86E08093E20280E087CF81EE6A
:105560000E94A20F0E94AE0F85E08093E20280E0CD
:105570007DCF80EE0E94A20F0E94AE0F84E0809348
:10558000E20280E073CF8CED95E00E94BE0C83E0D8
:105590008093E20280E06ACFCF93C091E102C230F3
:1055A00009F441C068F0C430C1F098F1C53019F574
:1055B0000E94001081110CC01092E10281E00BC02A
:1055C000CC23E1F0C130B9F40E9400108823C9F166
:1055D000C093E10280E0CF9108950E9400108111F4
:1055E000F7CF8FE10E94A20F0E94AE0F85E080935B
:1055F000E10280E0F0CF80E0CF9108950E9400109A
:105600008823F9F00E94FC0F81E08093E10280E0A2
:10561000E2CF0E9400108823F9F083E08093E1023A
:1056200080E0CF9108950E9400108111D1CF85EEC6
:105630000E94A20F0E94AE0F83E08093E10280E0FF
:10564000CACF84EE0E94A20F0E94AE0F82E0809328
:10565000E10280E0CF91089586EE0E94A20F0E94A1
:10566000AE0F84E08093E10280E0B5CF1F93CF932B
:10567000DF93EB01C81BD90BC83F88EFD8079CF517
:10568000C05FD14F1091E0021230B9F1133008F031
:105690004DC0112309F472C0113009F061C00E949D
:1056A0000010811184C08091AC0D813009F49FC03D
:1056B000C953DF4FCF38D14008F488C08091AB0D7B
:1056C000813009F4A2C084E50E94A20F0E94AE0FAF
:1056D0001093E0028091AB0D811185C081E0809331
:1056E000AB0D80E03EC0C93097E0D9075CF2C051F5
:1056F000DE401091E002123049F60E94001088232B
:1057000009F460C01093E002D7FD21C08CE092E064
:105710000E94111D811129C0C436D1050CF591E0FC
:105720009093AC0DDF91CF911F910895133061F3E9
:105730001430B1F40E940010811139C01092AC0DE8
:105740001092E00281E0DF91CF911F91089582E1F4
:1057500092E00E949D1D811108C0CD39DF4FFCF6FB
:1057600080E0DF91CF911F9108951092E002109296
:10577000AC0D80E0DF91CF911F9108958091AA0D2B
:1057800081111CC080E50E94A20F0E94AE0F809183
:10579000AA0D90E00196817099278093AB0D81E06E
:1057A0008093E00280E0DF91CF911F9108951093E4
:1057B000E00280E0DF91CF911F91089582E50E9481
:1057C000A20FE3CF83E08093E0029ECF8091AB0DE8
:1057D000811117C084E50E94A20F0E94AE0F81E0E4
:1057E0008093E00277CF1092AB0D80E0BACF80912A
:1057F000AB0D813099F084E50E94A20F0E94AE0F9C
:1058000069CF86E50E94A20FE8CF8AE50E94A20F29
:105810000E94AE0F82E08093E0025CCF8AE50E9496
:10582000A20F84E08093E002E9CF1F93CF93DF9330
:10583000EB01C81BD90BC83F88EFD8079CF5C05FA8
:10584000D14F1091DF021230B9F1133008F04DC082
:10585000112309F472C0113009F061C00E940010D8
:10586000811184C08091AC0D813009F49FC0C9536F
:10587000DF4FCF38D14008F488C08091AB0D811143
:10588000A2C084E60E94A20F0E94AE0F82E0809325
:10589000DF028091AB0D811185C081E08093AB0D5B
:1058A00080E03EC0C93097E0D9075CF2C051DE40CD
:1058B0001091DF02123049F60E940010882309F48B
:1058C00060C01093DF02D7FD21C08CE092E00E94FF
:1058D000111D811129C0C436D1050CF591E09093BA
:1058E000AC0DDF91CF911F910895133061F3143007
:1058F000B1F40E940010811139C01092AC0D1092C9
:10590000DF0281E0DF91CF911F91089582E192E063
:105910000E949D1D811108C0CD39DF4FFCF680E04B
:10592000DF91CF911F9108951092DF021092AC0D7C
:1059300080E0DF91CF911F9108958091AA0D811190
:105940001CC08CE50E94A20F0E94AE0F8091AA0D90
:1059500090E00196817099278093AB0D81E0809350
:10596000DF0280E0DF91CF911F9108951093DF0255
:1059700080E0DF91CF911F9108958EE50E94A20FE4
:10598000E3CF83E08093DF029ECF8091AB0D811146
:1059900022C080E60E94A20F0E94AE0F81E0809399
:1059A000DF0277CF1092AB0D80E0BACF8091AB0DC4
:1059B000811115C084E60E94A20F84E08093DF026B
:1059C0000E94AE0F66CF82E60E94A20F0E94AE0F29
:1059D0001093DF025ECF82E60E94A20FDDCF82E647
:1059E0000E94A20FEDCF1F93CF93DF93EC01809124
:1059F000DE02823009F483C028F5882309F457C0F9
:105A0000813061F5C091DA02D091DB020E94DB3A6D
:105A10009E01281B390BC901883F38EF93070CF012
:105A20008FC0805F914F97FDBFC0853691050CF008
:105A30008FC084E08093DE0210E0812FDF91CF9150
:105A40001F910895833081F0843041F41092DE027A
:105A500011E0812FDF91CF911F91089510E0812FE8
:105A6000DF91CF911F91089582E192E00E949D1DE8
:105A7000182F8111DECFC091DA02D091DB020E9493
:105A8000DB3A9E01281B390B283F88EF38070CF4BE
:105A90007EC0293087E0380714F020513E4024367C
:105AA00031050CF47AC083E08093DE02C6CF0E94F9
:105AB000DB3A9093DD028093DC029E01220F331FBC
:105AC000CC0FDD1FCC0FDD1FCC0FDD1F2C0F3D1FBA
:105AD000280F391F37FD65C021318EE0380714F0DB
