:100000000C94C6010C94E7010C94E7010C94E701F1
:100010000C94E7010C94E7010C94E7010C94E701C0
:100020000C94E7010C94E7010C94E7010C94E701B0
:100030000C94E7010C94E7010C94E7010C94E701A0
:100040000C94E7010C94E7010C94E7010C94E70190
:100050000C94E7010C94E7010C94E7010C94E70180
:100060000C94E7010C94353F0C94E7010C94F23E9C
:100070000C94E7010C94E7010C94E7010C94E70160
:100080000C94E7010C94E7010C94E7010C94E70150
:100090000C949D430C94E7010C94CC430C94E70121
:1000A0000C94E7010C94E7010C94E7010C94E70130
:1000B0000C94E7010C94E7010C94E7010C94E70120
:1000C0000C94E7010C94E7010C94E7010504070484
:1000D000040409040404040404040B0404040404D4
:1000E000040404040404040404040D0404040404C7
:1000F00004040404040404040404040404040404C0
:10010000040404040404040404040F0404040404A4
:10011000040404040404040404040404040404049F
:10012000040404040404040404040404040404048F
:10013000040404040404040404040404040404047F
:100140000404040404040404040403041D041F043C
:100150001C0421041C041C041C0423041C041C0493
:100160001C041C041C041C041C0425041C041C0486
:100170001C041C041C041C041C041C041C041C047F
:100180001C041C041C041C041C0427041C041C0464
:100190001C041C041C041C041C041C041C041C045F
:1001A0001C041C041C041C041C041C041C041C044F
:1001B0001C041C041C041C041C041C041C041C043F
:1001C0001C041C041C041C041C041B0438043D04F3
:1001D000370442043704370437044704370437042C
:1001E000370437043704370437044C043704370422
:1001F0003704370437043704370437043704370427
:1002000037043704370437043704510437043704FC
:100210003704370437043704370437043704370406
:1002200037043704370437043704370437043704F6
:1002300037043704370437043704370437043704E6
:100240003704370437043704370433046204620484
:100250005C0462045C045C045C046B045C045C0489
:100260005C045C045C045C045C0470045C045C047A
:100270005C045C045C045C045C045C045C045C047E
:100280005C045C045C045C045C0465045C045C0465
:100290005C045C045C045C045C045C045C045C045E
:1002A0005C045C045C045C045C045C045C045C044E
:1002B0005C045C045C045C045C045C045C045C043E
:1002C0005C045C045C045C045C0478046B2A762A9D
:1002D0007F2A892A922A9B2A572A612A6364696E97
:1002E0006F70737578585B000C946B040C949B2AA8
:1002F0000C947F2A0C945F480C9432430C9427048E
:100300000C94922A0C940F040C9462040C945104E3
:100310000C9433040C94762A0C9465040C942304F6
:100320000C941C040C941D040C9409040C944204B9
:100330000C944C040C940D040C9404040C94780458
:100340000C9407040C9447040C940B040C945C0468
:100350000C9454430C9470040C9405040C942504E0
:100360000C9437040C9403040C946B2A0C94210411
:100370000C941B040C94612A0C94572A0C94892A1F
:100380000C9438040C943D040C941F0411241FBEDB
:10039000CFEFD1E2DEBFCDBF00E00CBF12E0A0E0A6
:1003A000B2E0E4EAF7EA00E00BBF02C007900D926A
:1003B000AC3EB107D9F712E1ACEEB2E001C01D923C
:1003C000AC35B107E1F70E94B4470C94D0530C94BC
:1003D0000000FC019A01641B750BCB0160E17EE01B
:1003E0000E9404486E9FC0016F9F900D7E9F900DEC
:1003F0001124820F931F089581312FEF920714F07B
:10040000805F91090895CF93DF93EC010E94AF3B89
:1004100081312FEF920714F0805F91098C1B9D0BA7
:10042000893027E092071CF080519E4006C0883F2B
:1004300028EF920714F4805F914F6AE070E00E9409
:100440000448CB01DF91CF91089560E071EE80E028
:1004500090E00E940D440E94AA190E94C8190E94AF
:10046000861C84E690E00E94B30C0E946E1E0E94DF
:100470002A370E94353B80E10E94840481110E944A
:100480009B3B0E947B3B813051F02FEF81EE94E04B
:10049000215080409040E1F700C00000F2CF089565
:1004A000CF93C091EC02C130E1F018F0C23009F1F5
:1004B0005FC081E00E94B904882381F081E08093CD
:1004C000EC020E94AF3B81312FEF920714F0805F66
:1004D000910990930803809307034AC01092EC029D
:1004E00047C00E941710882309F43FC0C093EC0254
:1004F0003FC00E94F80C8823C1F10E94AF3B9F933C
:100500008F9388EB92E09F938F930E9434440E94D4
:10051000AF3B0F900F900F900F9081312FEF92070C
:1005200014F0805F91099F938F9387EC92E09F93E3
:100530008F930E94344480910703909108030E9496
:1005400003029F938F938BED92E09F938F930E9472
:10055000344484EF91E00E94B30C8DB79EB70896A7
:100560000FB6F8949EBF0FBE8DBF82E08093EC0261
:10057000CF9108950E94C2030E947B040E948B07C2
:100580000E94570B0C94810C649974C081E0809395
:100590001D0390912003992309F4B5C01092210303
:1005A000659952C081E08093180390911B039923B1
:1005B00009F498C010921C03669932C081E08093C0
:1005C0000E0390911103992309F47BC0109212033A
:1005D0006799AAC081E08093090390910C03992345
:1005E00009F45EC010920D03489912C091E09093F7
:1005F000130380911603811110C0809117038F5F40
:100600008093170380911703843109F4B4C00895CF
:1006100080911603813009F49DC01092170308954C
:1006200080911103813091F6909112039F5F909316
:10063000120390911203943159F680931003109293
:10064000110310921203C4CF80911B03813009F073
:10065000B1CF90911C039F5F90931C0390911C035A
:10066000943109F0A9CF80931A0310921B031092C2
:100670001C03A2CF80912003813009F08FCF90918D
:1006800021039F5F9093210390912103943109F0FE
:1006900087CF80931F03109220031092210380CFF5
:1006A00090910D039F5F90930D0390910D039431F2
:1006B00009F09ACF80930A0380930C0310920D03E4
:1006C00093CF909112039F5F909312039091120326
:1006D000943109F07DCF80930F0380931103109222
:1006E000120376CF90911C039F5F90931C0390910F
:1006F0001C03943109F060CF8093190380931B038E
:1007000010921C0359CF909121039F5F9093210376
:1007100090912103943109F043CF80931E0380937D
:100720002003109221033CCF80910C03813009F00B
:1007300059CF90910D039F5F90930D0390910D03FE
:10074000943109F051CF80930B0310920C03109257
:100750000D034ACF909117039F5F909317039091D9
:100760001703943109F053CF8093150310921603A9
:100770001092170308959093140390931603109208
:10078000170308958FE787B98EE788B910921D0384
:1007900010921E0310921F03109220031092210347
:1007A000109218031092190310921A0310921B034F
:1007B00010921C0310920E0310920F03109210035C
:1007C00010921103109212031092090310920A035F
:1007D00010920B0310920C0310920D03109213034E
:1007E000109214031092150310921603109217031F
:1007F000089590E0FC013197E034F10528F4EA59BE
:10080000FF4F0C948949469808954098089541985F
:1008100008954298089543980895449808954598F6
:10082000089590E0FC013197E034F10528F4EA5591
:10083000FF4F0C948949469A0895409A0895419A29
:100840000895429A0895439A0895449A0895459ABE
:10085000089590E0FC013197E034F10540F4EA514D
:10086000FF4F0C94894988B190E4892788B908958D
:1008700088B191E0892788B9089588B192E08927E5
:1008800088B9089588B194E0892788B9089588B116
:1008900098E0892788B9089588B190E1892788B9B7
:1008A000089588B190E2892788B9089590E0FC0105
:1008B0003197E034F10510F080E00895EA5DFE4FD5
:1008C0000C94894986B180E0089586B1807290E0E9
:1008D00095958795089586B183FB882780F90895BB
:1008E00086B1807190E09595879595958795089547
:1008F00086B1807408955098589A8DB18F708DB9D3
:100900008EB1806F8EB90895803259F160F48130D4
:1009100001F18031A1F480911D03882381F01092B0
:100920001D0381E00895803461F0803841F48091A6
:100930000903882321F01092090381E0089580E0E3
:10094000089580910E038823D1F310920E0381E065
:10095000089580911303882391F31092130381E08B
:10096000089580911803882351F31092180381E0B1
:100970000895803259F160F4813001F18031A1F4A1
:1009800080911E03882381F010921E0381E0089558
:10099000803461F0803841F480910A03882321F08B
:1009A00010920A0381E0089580E0089580910F037A
:1009B0008823D1F310920F0381E0089580911403EE
:1009C000882391F31092140381E008958091190314
:1009D000882351F31092190381E00895803259F170
:1009E00060F4813001F18031A1F480911F038823EC
:1009F00081F010921F0381E00895803461F0803807
:100A000041F480910B03882321F010920B0381E0C5
:100A1000089580E00895809110038823D1F3109207
:100A2000100381E0089580911503882391F31092BB
:100A3000150381E0089580911A03882351F31092E1
:100A40001A0381E0089590917C00987F90937C0038
:100A500020917C00982F9770922B90937C00882394
:100A600059F0815020E830E002C0359527958A95ED
:100A7000E2F7209522B9089582B18C6F82B908956A
:100A8000CF92DF92EF92FF92CF93DF93CDB7DEB795
:100A90002E970FB6F894DEBF0FBECDBF8EE0EAEA08
:100AA000F2E0DE01119601900D928A95E1F78981BD
:100AB0009A819C01220F331F220F331F220F331FF5
:100AC000281B390B40E050E0C12CB4ECDB2EB9E020
:100AD000EB2EF12CC701B6010E94184821503109B4
:100AE0002F3F310509F008F49BC08B819C819C014C
:100AF000220F331F220F331F220F331F281B390BE6
:100B000040E050E0C701B6010E9418482150310969
:100B10002F3F310509F008F48AC08D819E819C0128
:100B2000220F331F220F331F220F331F281B390BB5
:100B300040E050E0C701B6010E9418482150310939
:100B40002F3F310509F008F474C08F8198859C010E
:100B5000220F331F220F331F220F331F281B390B85
:100B600040E050E0C701B6010E9418482150310909
:100B70002F3F310509F008F45EC089859A859C01F4
:100B8000220F331F220F331F220F331F281B390B55
:100B900040E050E0C701B6010E94184821503109D9
:100BA0002F3F310509F008F448C08B859C859C01D6
:100BB000220F331F220F331F220F331F281B390B25
:100BC00040E050E0C701B6010E94184821503109A9
:100BD0002F3F3105A1F198F18D859E859C01220F53
:100BE000331F220F331F220F331F281B390B40E006
:100BF00050E0C701B6010E941848215031092F3F2B
:100C00003105F9F0F0F02E960FB6F894DEBF0FBE66
:100C1000CDBFDF91CF91FF90EF90DF90CF900895FF
:100C200080E02093B3008F5F8093B100ECCF81E030
:100C3000F8CF82E0F6CF83E0F4CF84E0F2CF85E016
:100C4000F0CF86E0EECFEAE7F0E080818064808339
:100C5000089580917A0082958170089587B3869572
:100C600081700895B99B089587B3876087BB109200
:100C7000B2009091120480917C00887F80937C0068
:100C800020917C00892F8770822B80937C00992390
:100C900009F420C12FEF290F80E890E002C095955C
:100CA00087952A95E2F7809582B920E42A95F1F795
:100CB00080917A00806480937A0080917A0084FF2A
:100CC000FCCF80917A00806180937A0080917800D7
:100CD00090917900E0911204F0E0EE0FFF1FED5EBD
:100CE000FB4F91838083E09112042091230330E134
:100CF000E39FF0011124E20FF11DEE0FFF1FEE5CE8
:100D0000FC4F91838083E091120480E2E89FF00120
:100D10001124EE5CFC4F80819181E091120420E26D
:100D2000E29FF0011124EE5CFC4F22813381820F9F
:100D3000931FE091120430E2E39FF0011124EE5C76
:100D4000FC4F24813581820F931FE091120420E231
:100D5000E29FF0011124EE5CFC4F26813781820F67
:100D6000931FE091120430E2E39FF0011124EE5C46
:100D7000FC4F20853185820F931FE091120420E201
:100D8000E29FF0011124EE5CFC4F22853385820F37
:100D9000931FE091120430E2E39FF0011124EE5C16
:100DA000FC4F24853585820F931FE091120420E2C9
:100DB000E29FF0011124EE5CFC4F26853785820FFF
:100DC000931FE091120430E2E39FF0011124EE5CE6
:100DD000FC4F20893189820F931FE091120420E299
:100DE000E29FF0011124EE5CFC4F22893389820FCF
:100DF000931FE091120430E2E39FF0011124EE5CB6
:100E0000FC4F24893589820F931FE091120420E260
:100E1000E29FF0011124EE5CFC4F26893789820F96
:100E2000931FE091120430E2E39FF0011124EE5C85
:100E3000FC4F208D318D820F931FE091120420E230
:100E4000E29FF0011124EE5CFC4F228D338D820F66
:100E5000931FE091120430E2E39FF0011124EE5C55
:100E6000FC4F248D358D820F931FE091120420E2F8
:100E7000E29FF0011124EE5CFC4F268D378D820F2E
:100E8000931F929582958F7089279F708927E09193
:100E90001204F0E0EE0FFF1FEC5DFC4F91838083A6
:100EA000209112042630D1F020911204211107C0A4
:100EB000209122032130E1F08E3A914008F1809197
:100EC000120490E0019667E070E00E94044880936D
:100ED0001204089582B18C6F82B9E7CE209123036A
:100EE00030E02F5F3F4F2F70332720932303DCCF59
:100EF000863D914020F30E94070B10922203DFCF22
:100F00004EE150E06EE170E085E00E94140B81E05C
:100F100080932203D4CFCF92DF92EF92FF92CF93B0
:100F2000DF93CDB7DEB72E970FB6F894DEBF0FBEB6
:100F3000CDBF87E880937A0010927B0010927C00EE
:100F400010927E0010927D008CEF81B982B986E606
:100F500092E090931404809313049093250380935C
:100F6000240390933303809332039093350380934B
:100F7000340390933703809336039093390380931F
:100F8000380390933B0380933A0390933D038093FF
:100F90003C0390933F0380933E03909341038093DF
:100FA00040039093430380934203909345038093BF
:100FB000440390934703809346039093490380939F
:100FC000480390934B0380934A0390934D0380937F
:100FD0004C0390934F0380934E039093510380935F
:100FE00050039093160480931504909327038093E5
:100FF0002603909353038093520390935503809359
:10100000540390935703809356039093590380930E
:10101000580390935B0380935A0390935D038093EE
:101020005C0390935F0380935E03909361038093CE
:1010300060039093630380936203909365038093AE
:10104000640390936703809366039093690380938E
:10105000680390936B0380936A0390936D0380936E
:101060006C0390936F0380936E039093710380934E
:10107000700390931804809317049093290380932E
:101080002803909373038093720390937503809366
:1010900074039093770380937603909379038093FE
:1010A000780390937B0380937A0390937D038093DE
:1010B0007C0390937F0380937E03909381038093BE
:1010C000800390938303809382039093850380939E
:1010D000840390938703809386039093890380937E
:1010E000880390938B0380938A0390938D0380935E
:1010F0008C0390938F0380938E039093910380933E
:10110000900390931A048093190490932B03809377
:101110002A03909393038093920390939503809373
:1011200094039093970380939603909399038093ED
:10113000980390939B0380939A0390939D038093CD
:101140009C0390939F0380939E039093A1038093AD
:10115000A0039093A3038093A2039093A50380938D
:10116000A4039093A7038093A6039093A90380936D
:10117000A8039093AB038093AA039093AD0380934D
:10118000AC039093AF038093AE039093B10380932D
:10119000B00390931C0480931B0490932D038093C1
:1011A0002C039093B3038093B2039093B503809381
:1011B000B4039093B7038093B6039093B9038093DD
:1011C000B8039093BB038093BA039093BD038093BD
:1011D000BC039093BF038093BE039093C10380939D
:1011E000C0039093C3038093C2039093C50380937D
:1011F000C4039093C7038093C6039093C90380935D
:10120000C8039093CB038093CA039093CD0380933C
:10121000CC039093CF038093CE039093D10380931C
:10122000D00390931E0480931D0490932F0380930A
:101230002E039093D3038093D2039093D50380938E
:10124000D4039093D7038093D6039093D9038093CC
:10125000D8039093DB038093DA039093DD038093AC
:10126000DC039093DF038093DE039093E10380938C
:10127000E0039093E3038093E2039093E50380936C
:10128000E4039093E7038093E6039093E90380934C
:10129000E8039093EB038093EA039093ED0380932C
:1012A000EC039093EF038093EE039093F10380930C
:1012B000F0039093200480931F0490933103809354
:1012C00030039093F3038093F2039093F50380939C
:1012D000F4039093F7038093F6039093F9038093BC
:1012E000F8039093FB038093FA039093FD0380939C
:1012F000FC039093FF038093FE039093010480937B
:101300000004909303048093020490930504809357
:101310000404909307048093060490930904809337
:10132000080490930B0480930A0490930D04809317
:101330000C0490930F0480930E04909311048093F7
:10134000100410921204109223031092220382E0E0
:101350008093B0001092B2001092700087E087BBBB
:101360008EE0EAEAF2E0DE01119601900D928A9594
:10137000E1F789819A819C01220F331F220F331FCD
:10138000220F331F281B390B40E050E0C12C64ECC6
:10139000D62E69E0E62EF12CC701B6010E9418484E
:1013A000215031092F3F310509F008F49BC08B8192
:1013B0009C819C01220F331F220F331F220F331FEA
:1013C000281B390B40E050E0C701B6010E941848C5
:1013D000215031092F3F310509F008F48AC08D8171
:1013E0009E819C01220F331F220F331F220F331FB8
:1013F000281B390B40E050E0C701B6010E94184895
:10140000215031092F3F310509F008F474C08F8154
:1014100098859C01220F331F220F331F220F331F89
:10142000281B390B40E050E0C701B6010E94184864
:10143000215031092F3F310509F008F464C0898536
:101440009A859C01220F331F220F331F220F331F57
:10145000281B390B40E050E0C701B6010E94184834
:10146000215031092F3F310509F008F44AC08B851E
:101470009C859C01220F331F220F331F220F331F25
:10148000281B390B40E050E0C701B6010E94184804
:10149000215031092F3F310591F188F18D859E85CD
:1014A0009C01220F331F220F331F220F331F281BD3
:1014B000390B40E050E0C701B6010E9418482150A6
:1014C00031092F3F3105C9F0C0F02E960FB6F894C0
:1014D000DEBF0FBECDBFDF91CF91FF90EF90DF90C9
:1014E000CF90089580E02093B3008F5F8093B10088
:1014F000ECCF81E0F8CF82E0F6CF86E0F4CF85E054
:10150000F2CF84E0F0CF83E0EECFE82FF0E0EE0FF3
:10151000FF1FED5EFB4F808191810895E82FF0E081
:10152000EE0FFF1FEC5DFC4F808191810895C19B00
:1015300011C0C19A10929500109294008091F1020E
:10154000811109C080912804813081F080912104AB
:10155000813061F0089580912804813019F18091E3
:1015600021048130F9F01092F102089581E0809316
:10157000F102809122049091230401979093F0024C
:101580008093EF0220912404309125043093EE02E1
:101590002093ED02892BF1F6809180008F73809368
:1015A000800008958091EF029091F002009741F041
:1015B00001979093F0028093EF02892B59F6ECCFBC
:1015C0008091ED029091EE02009731F00197909397
:1015D000EE028093ED020895809180008F7B8093CE
:1015E0008000809180008068809380008091220438
:1015F000909123049093F0028093EF028091240451
:10160000909125049093EE028093ED0208958091CD
:101610002104813009F00895809180008F738093B8
:10162000800010922104089590912104992359F18A
:101630009130A9F11092870090E0FC01E75DFB4F2B
:101640002081209386001092890020812695209386
:1016500088007093230460932204509325044093E0
:1016600024049093270480932604809180008F7B2C
:10167000809380008091800080688093800081E06A
:1016800080932104089590912804913099F69091C7
:1016900080009F739093800010922804CBCF90918C
:1016A00080009F739093800010922104C3CF259AED
:1016B0002D9810926F009FE296BB109285001092B9
:1016C0008400E0E8F0E0108280818E7F808380815A
:1016D00082608083E1E8F0E010828081886080830E
:1016E00080818061808310928900109288008081BF
:1016F000887F80838081856080831092710098BB91
:101700001092950010929400E0E9F0E01082808140
:101710008E7F808380818D7F8083E1E9F0E010827D
:1017200080818860808380818F7E808398E1909320
:1017300099008AE6809398008081887F80838081E9
:10174000846080838DE1809329048AE180932A0458
:1017500090932B0486E180932C0484E180932D04E4
:1017600082E180932E0480E180932F04109228045C
:101770001092210481E090E090932304809322044E
:101780009093250480932404109227041092260439
:1017900008959091210491112CC0909128049111E9
:1017A00028C01092870090E0FC01E75DFB4F20818C
:1017B000209386001092890020812695209388002E
:1017C000909327048093260470932304609322044B
:1017D0005093250440932404809180008F7B809354
:1017E00080008091800080688093800081E08093F9
:1017F0002804089590912104911104C09091280427
:10180000913009F008951092870090E0FC01E75DA7
:10181000FB4F20812093860010928900208126951D
:1018200020938800909327048093260408952091A4
:101830002104211104C020912804213009F00895C9
:101840009093230480932204089520912104211170
:1018500004C020912804213009F0089590932504B4
:1018600080932404089580912104811104C0809103
:101870002804813009F00895809180008F7380934F
:101880008000109228040895809128040895809182
:1018900021040895D19B19C0D19A1092250110926C
:1018A0002401409136048091F2029091F30241307C
:1018B00069F0209130043091310482179307C9F008
:1018C00001969093F3028093F202089520913304DD
:1018D000309134048217930799F71092F302109213
:1018E000F2024093320480912101887F809321018C
:1018F00008951092F3021092F20281E08093350471
:101900000895109273008FE28ABB10922501109205
:101910002401E0E2F1E0108280818E7F808380816B
:101920008D7F8083E1E2F1E0108280818860808396
:1019300080818F7E808388E1809329018AE680936D
:1019400028018081887F80831092360410923404AD
:101950001092330410923104109230041092320429
:10196000109235040895109236049C0136952795FF
:1019700036952795ABE7B4E10E94E34796958795A6
:101980009093310480933004109235041092250115
:10199000109224018FE28ABBE1E2F1E08081887F2E
:1019A0008083808184608083089521E020933604C1
:1019B0009C013695279536952795ABE7B4E10E94B3
:1019C000E34796958795909334048093330410925F
:1019D000320410922501109224018FE28ABBE1E2C9
:1019E000F1E08081887F8083808184608083089596
:1019F00080913504813011F080E008951092350413
:101A0000089580913204813011F080E008951092A1
:101A100032040895E1E2F1E08081887F8083D19AE9
:101A20001092250110922401109235041092320474
:101A30000895109272008FE289BB1092A500109257
:101A4000A400E0EAF0E0108280818E7F80838081B4
:101A50008D7F8083E1EAF0E010828081886080835E
:101A600080818F7E80838DE38093A90088E08093BE
:101A7000A8008081887F8083808182608083089530
:101A8000C99B07C0C99A1092A5001092A40081E0DA
:101A9000089580E00895AF92BF92CF92DF92EF92C7
:101AA000FF920F931F93CF93DF931F921F92CDB797
:101AB000DEB7CE0101960E94A419EBE2F5E0498160
:101AC0005A81B4E6AB2EB1E1BB2ED12C01E010E07F
:101AD00085E0C82E1FC0C901885C9B4FDC01CC92F9
:101AE000C901875C9B4FDC01CC92CB01880F991F09
:101AF00088549B4F285C3B4FDC012D933C93D3943F
:101B000070964E5F5F4FBFEFAB1ABB0A87E0EB32B8
:101B1000F807D9F18081882399F3DA018D919C919E
:101B20009F0127503109D9012D913C91820F931FBC
:101B3000D5012C91820F911D27FD9A956D2D70E096
:101B40009B01220F331F220F331FD901A65CBB4F0D
:101B50008C93D901A55CBB4F9C93CF010197DC010D
:101B60008C91882309F4B7CF8F70D80102C0AA0FD7
:101B7000BB1F8A95E2F7CD01D901A85CBB4F8C93BE
:101B8000D901A75CBB4F8C93B0CFDD2061F008EB8F
:101B900014E024E030E04CE150E06CEF74E0809120
:101BA00037040E9444420F900F90DF91CF911F9114
:101BB0000F91FF90EF90DF90CF90BF90AF9008957E
:101BC00090E1899FF0011124E45EFA4F6687089541
:101BD00090E1899FF0011124E45EFA4F8685089513
:101BE00090E1899FF0011124E45EFA4F71876087CC
:101BF000089590E1899FF0011124E45EFA4F8085F9
:101C00009185089590E1899FF0011124E45EFA4FD7
:101C10008785089590E1899FF0011124E45EFA4FD1
:101C20008285089590E1899FF0011124E45EFA4FC6
:101C300084850895C99B15C0C99A1092A500109279
:101C4000A4000E94273781110DC00E941A100E9423
:101C5000E6180E9463310E942737811106C00C9458
:101C60004B0D08950E949836F0CF0E94A236F7CF10
:101C70002F923F924F925F926F927F928F929F929C
:101C8000AF92BF92CF92DF92EF92FF920F931F938A
:101C9000CF93DF9300D0CDB7DEB7482E19820E94D4
:101CA0001140882309F452C12FEF89E698E12150B1
:101CB00080409040E1F700C00000ECE1F5E04BE22D
:101CC00055E025E01182108213821282158214825F
:101CD0001782168211861086DA011C92CA010197BA
:101CE000DC012C9313861286158614867096405F4D
:101CF0005F4FB7E0EC31FB0729F71092F804109220
:101D0000F9041092FA041092FB046CEF74E0CE0117
:101D100001960E946640109237048981882309F455
:101D200018C1312C9CE2892E99249394AA24AA9458
:101D300023E0B22EC12C32E0D32E5524539445E03B
:101D4000642EEE24E394F12C62E0262E09C0811566
:101D50009C4009F4C4C033948981381608F069C0E6
:101D6000E32DF0E0E450FB4F7080872D0E946D3E24
:101D70008C30910521F08C32E1E09E0741F7872DF0
:101D80000E944F34F0E17F9EB00111248B01045E6C
:101D90001A4FD80111969C928E921396BC92AE92D5
:101DA000129715961C921E9214971796DC92CE925B
:101DB0001697872D6A837B830E94AC35F801918743
:101DC00080876A817B81AB01485D5A4F6A5D7A4F9B
:101DD000872D0E94D332D8011F965C921F971E96C2
:101DE0006C92809137048F5F80933704A70102C003
:101DF000440F551F7A94E2F7662757FD6095762FBA
:101E00008091F8049091F904A091FA04B091FB0438
:101E1000842B952BA62BB72B8093F8049093F90471
:101E2000A093FA04B093FB0433948981381608F424
:101E300097CF80913704481609F485C044E650E0F6
:101E40006AE070E084E00E94140B109272008FE24E
:101E500089BB1092A5001092A4001092A00080915E
:101E6000A0008E7F8093A0008091A0008D7F809342
:101E7000A0001092A1008091A10088608093A10031
:101E80008091A1008F7E8093A1008DE38093A900B3
:101E900088E08093A8008091A100887F8093A100B2
:101EA0008091A10082608093A1000E94AB0F80917D
:101EB00037040F900F900F90DF91CF911F910F91EA
:101EC000FF90EF90DF90CF90BF90AF909F908F905A
:101ED0007F906F905F904F903F902F900895872D47
:101EE0000E944F34E0E17E9EB00111248B01045E1C
:101EF0001A4FE4EBF0E0D8011196FC93EE931396A1
:101F0000BC92AE92129715961C921E921497179639
:101F1000DC92CE921697872D6A837B830E94AC3524
:101F2000D80119969C938E9318976A817B81AB0197
:101F3000485D5A4F6A5D7A4F872D0E94D332F8016F
:101F4000278666864ECF0E94070B7FCF0E94DB3F1D
:101F5000ABCE80E070CF1092980C1092DA0B8FEF1E
:101F60008093DA0C8093D9098093970C1092D90C46
:101F70000895CF93C82F6AED79E00E94A0188111CF
:101F800002C0C093D909CF9108951092980C109275
:101F90001A0C1092190C1092D8091092D7091092AD
:101FA000D80C1092D70C83E080937A0D1092970C86
:101FB0008091E9098093D6091092DA0CEBE2F5E002
:101FC00080E090E006C07096029627E0EB32F207C0
:101FD00009F120812130B9F7DF0117972D913C914C
:101FE000DC01A756B34F2D933C93DC01A45CB24FA8
:101FF0001D921C92DC01A75AB34F1D921C92DC016A
:10200000A45EB84F1D921C927096029627E0EB32A8
:10201000F207F9F681E08093D90C80919A118061E2
:1020200080939A11089581E08093DA0B089580914E
:10203000D90C08952F923F924F925F926F927F92A8
:102040008F929F92AF92BF92CF92DF92EF92FF92C8
:102050000F931F93CF93DF93CDB7DEB7A3970FB640
:10206000F894DEBF0FBECDBF8091D90C882309F450
:102070009AC08091190C90911A0C4091D7095091F7
:10208000D8098417950708F0A7C08C010F5F1F4F70
:102090001A87098710931A0C0093190C10917A0D66
:1020A0001D87133009F47FC08091D7099091D8091A
:1020B0008C0120E030E0098B1A8B2B8B3C8B8C0140
:1020C000015011091E8B0D8B0CEF1CE074E2A72E42
:1020D00075E0B72EEAE5CE2EE7E0DE2EFCE3EF2E2C
:1020E000FDE0FF2EACE14A2EA7E05A2EBBED6B2E91
:1020F000BBE07B2E812C912C80E090E0212C312CB8
:102100009BA38AA3C201230194014801A601670190
:102110007A0189013C0121C0BFEF2B1A3B0AEAA1D9
:10212000FBA17096FBA3EAA3F2E08F0E911C0E5F59
:102130001F4F20E1A20EB11C32E0E30EF11C42E081
:10214000C40ED11C52E0650E711C62E0460E511C9B
:102150008AA19BA18115924031F12AA13BA1245E65
:102160003A4F3A832983D9011F968C918130A1F689
:10217000F801E75AF34F80819181892B09F06FC0F4
:10218000F40180819181D5018D939C93F101E652F8
:10219000F64F80A1A981BA811E968C93BDCF109273
:1021A000D90C1092DA0BA3960FB6F894DEBF0FBECF
:1021B000CDBFDF91CF911F910F91FF90EF90DF90F6
:1021C000CF90BF90AF909F908F907F906F905F90D7
:1021D0004F903F902F90089510921A0C1092190C66
:1021E000EBE2F5E080E090E006C07096029607E032
:1021F000EB32F007E1F020812130B9F7DF011797CA
:102200002D913C91DC01A450B34F2D933C93DC0104
:10221000A45EB84F2D913C91DC01A45CB24F2D938C
:102220003C937096029607E0EB32F00721F780911D
:102230007A0D882309F4C7C0813009F492C1823035
:1022400009F45BC1833009F42CC25E874D8780E0BE
:1022500090E0DA018A179B0708F0A5CF16CFBD855D
:10226000B1114AC0F6010190F081E02DF88BEF87A3
:10227000F701A081B1812F853889A21BB30B298575
:102280003A850E94F24729893A894B895C890E94E4
:102290003A488F859889820F931FD3018D939C9321
:1022A000D901B595A795EF85F889AE0FBF1F298590
:1022B0003A850E94F2479B01AC01A0E9B0E00E9480
:1022C000F9472FE030E040E050E00E943A4869E0F2
:1022D00055954795379527956A95D1F7F801E856B2
:1022E000F64F31832083D4018D919C91820F931FEF
:1022F000F501918380834ACFB13009F448C0298524
:102300003A854D895E892417350709F421C1F10109
:10231000E552F34F808181113AC0F6010190F081BE
:10232000E02DF88BEF87DF01B195A195B1092985E3
:102330003A850E94F24729893A894B895C890E9433
:102340003A488F859889820F931FD3018D939C9370
:10235000D901B595A795EF85F889AE0FBF1F2985DF
:102360003A850E94F2479B01AC01A0E9B0E00E94CF
:10237000F9472FE030E040E050E00E943A4899E011
:1023800055954795379527959A95D1F7ACCFF2019A
:10239000A081B18129853A850E94F24729893A892D
:1023A0004B895C890E943A48D4018D919C91820F9F
:1023B000931FF50191838083D7018D919C91F30147
:1023C00091838083E3CE81E080937A0D20913A0D52
:1023D00030913B0D0091FA0C1091FB0C1A8309838C
:1023E000C801880F991F8901081B190B1E870D87CB
:1023F0001093D8090093D70909811A812017310752
:1024000009F4E5C0A801B9E52B2EBCE03B2E18E984
:10241000612E19E0712E0AE5802E07E0902E8BEDDB
:10242000482E8BE0582E0BED1CE06BE275E0C901E5
:10243000841B950B9C0140E050E029873A874B872D
:102440005C8795E0C92ED12CE12CF12C788B6F871D
:1024500019C0EF85F8897096F88BEF87F2E02F0EA0
:10246000311C22E0620E711C32E0830E911C42E0AE
:10247000440E511C0F5F1F4F6F8578896B52774058
:1024800009F44BC0AF85B8898C91813011F7F80100
:102490008081813009F446C0F401A081B181F1014D
:1024A000A080B180F30180819181A81AB90A2981A5
:1024B0003A810E94F2479B01AC01660F771F881F8B
:1024C000991F620F731F841F951F660F771F881F48
:1024D000991F660F771F881F991FA70196010E94F9
:1024E0003A48BB2757FDBA95A52F942F832FA81ADA
:1024F000B90AD201AD92BC92ACCF8091D70C909129
:10250000D80C009709F4E1C023E020937A0D909352
:10251000D8098093D7099E878D8780E090E0AD85AC
:10252000BE8598CEF101A081B181F30180819181B6
:10253000A81BB90B2D853E850E94F24729853A8557
:102540004B855C850E943A48D2012D933C9381CF04
:10255000F801E756F34F80819181D5018D939C93CB
:1025600015CE82E080937A0D7091FA0C6091FB0C8D
:102570007093D7096093D809ABEDBBE0EBE2F5E0CF
:1025800080E090E08D0109C0709602960E5F1F4FAB
:10259000B7E0EB32FB0709F47DC020812130A1F7C1
:1025A0009C01275A334FD9012D913C91D8014D916F
:1025B0005C91241B350BAC014856564FDA014D9106
:1025C0005C91241B350BD8012D933C93DDCFBBEDE3
:1025D000CB2EBBE0DB2E1BEDE12E1CE0F12E8BE2BF
:1025E00095E000E010E045E0442E512C612C712C68
:1025F00049011C0111C0F0E12F0E311C22E0C20E76
:10260000D11C0E5F1F4F3FEFE31AF30A4BE2241673
:1026100047E0340609F481CFD1018C91813059F71C
:10262000F70180818130C9F1F801E65AF84FA081A5
:10263000B181F801E75AF34FA080B180F801E85664
:10264000F64F80819181A81AB90A94010E94F2473D
:102650009B01AC01660F771F881F991F620F731FC4
:10266000841F951F660F771F881F991F660F771F9E
:10267000881F991FA30192010E943A48BB2757FD6A
:10268000BA95A52F942F832FA81AB90AF601B18203
:10269000A082B1CF7D876E8740CFD6011D921C925C
:1026A000AACF10927A0DACE3BDE0EBE2F5E006C0F4
:1026B0007096129607E0EB32F00749F08081813086
:1026C000B9F711961C921E92F3CF10927A0D809159
:1026D000980C813009F463CD8091970C8F5F8093C3
:1026E000970CA091EE09A81708F0C8C080E092E00E
:1026F000E8E9F7E0AAEDB9E001900D920197E1F762
:102700008091DA0C9091D909981721F09091E909FC
:102710009093D60991E09093970C8093D909A0915A
:10272000EE09B1E0AB1709F484C26B2F70E08B01A6
:1027300001501109002416950795079416950795E1
:102740000794102F002DA8014652564FFA01E25867
:10275000FF4F80812091F009289FC0011124969598
:102760008795929582958F7089279F70892790937E
:10277000D80C8093D70CFA01E158FF4F3081329F7B
:102780009001112436952795329522952F70232795
:102790003F7023272115310511F421E030E04091ED
:1027A000980C413009F45EC2892B09F4C4C1AB17FF
:1027B00009F456C3EBED4E2EECE05E2EA9E9BCE029
:1027C0007B010024F694E7940794F694E794079429
:1027D000FE2CE02CA701465E554F7A0180EC582F65
:1027E00056034001579F900C1124EBE2F5E080E086
:1027F00090E059013D01A70168010EC07096BFEF3E
:102800004B1A5B0A029602E0600E711C4E5F5F4F2E
:1028100017E0EB32F107A1F12081213079F79C011B
:102820002856364FD9011D921C929A01280D391D48
:102830002C0D3D1DD9012D913C9136FF18C0D301BF
:102840002D913C91B901E12CF12C8C010450134FD6
:10285000D8016D937C93D3012D933C939C01275A0F
:10286000334FD901ED92FC92D2011C92C7CFD30114
:102870006D917C917901E61AF70AE7CFB82F52CF14
:10288000950130933B0D20933A0D8091F20990E031
:10289000AC01440F551F4217530708F4E0C0C901AB
:1028A0000197969587959093FB0C8093FA0C00976F
:1028B00009F0D9C010923B0D10923A0D1E861D866C
:1028C00019821A821B821C821D821E821F82188618
:1028D00061E06F87412C512C198A1D8A1F8A188E3E
:1028E000198E71E07A8F1B8E1C8E1D8E1E8E1F8E90
:1028F00018A219A27AE5872E77E0972EEBED6E2EBF
:10290000ECE07E2E0BE215E0212C312C1BA30AA358
:1029100015C00AA11BA1005F1F4F1BA30AA312E051
:10292000810E911C22E0220E311C3FEF631A730AC4
:102930004AA15BA14B52574009F484C0AAA1BBA194
:102940008C91813031F7F101E45CF24F31812081CB
:10295000932F990F990BA980BA80CB80DC80ED80F2
:10296000FE800F811885492F592F692F792F892FC4
:102970000E94904859016A017B018C01F101E75ADC
:10298000F34FA081B18120E03AE00E94F2472CE0B1
:1029900030E040E050E00E943A48DA01C901550FAA
:1029A000220B322FA90129873A874B875C87F301D5
:1029B0002081211122C09C01AD016985762F862FCF
:1029C000962F0E94B149AA8CBB8CCC8CDD8CEE8CEE
:1029D000FF8C08A119A10E945348D4012C93119691
:1029E0003C93822F932F8115F4E09F070CF1EFEFBA
:1029F000F3E0D401ED93FC938CCF9C01AD0169858C
:102A0000762F862F962F0E94B149AF84B42CC52C07
:102A1000D988ED88FF88088D198D0E945348F401EC
:102A200020833183822F932F8115F4E09F07FCF6DA
:102A300081309C4F0CF06DCFE1E0FCEFD401ED93C1
:102A4000FC9367CF8D859E859093D8098093D70995
:102A50008091190C90911A0CAD85BE85FBCB90939B
:102A6000FB0C8093FA0C4901A12CB12C880C991C09
:102A7000AA1CBB1CC12CD12C76019E878D87A0E09F
:102A8000B0E0880F991FAA1FBB1F8C019D0140E079
:102A900050E0BA0189831A832B833C834D835E8384
:102AA0006F8378879401A501B601C7015801CB80D7
:102AB000DC80E12CF12C00E010E00E94B14901E043
:102AC0000E948F49722E832E942EB52F662E372E9C
:102AD000F82FE92F00E00E94A8492F87432E542E9B
:102AE000598B6D8B7F8B888F998F7A8E8B8E9C8E76
:102AF000BD8F6E8E3F8EF8A3E9A3452DA0E00E9406
:102B0000BA4949F411E01F87412C512C198A1D8ABA
:102B10001F8A188E198E272D382D492D5B2F662D73
:102B2000732D8F2F9E2FA0E00E94BA4909F0E2CEAC
:102B300021E02A8FD8CEAB1709F42AC1ABEDEA2EDB
:102B4000ACE0FA2EB9E94B2EBCE05B2EDB01002491
:102B5000B695A7950794B695A7950794BA2FA02D7B
:102B6000A65EB54F80EC482F46034001479F900C6E
:102B70001124EBE2F5E080E090E0772473945901B2
:102B8000A7011D0168010FC070964F5F5F4F02964D
:102B9000B2E04B0E511C02E0200E311C17E0EB326C
:102BA000F10709F46DCE2081213071F79C01285680
:102BB000364FD9011D921C929101280D391D2C0D03
:102BC0003D1DD9012D913C9136FF2CC0D2012D9194
:102BD0003C91B901E12CF12C8C010450134FD80128
:102BE0006D937C93D2012D933C938C01075A134F24
:102BF000D801ED92FC92D1010D911C9116FD0FC0F0
:102C00006217730730F42017310718F4DA017C9249
:102C1000BBCF2617370718F402171307B8F3DA01EA
:102C20001C92B2CFD2016D917C917901E61AF70A1C
:102C3000D3CF8091DA0B813009F4A0C08091D609FE
:102C400081508093D609882309F493C08091D909D3
:102C50008093DA0C811169C081E08093980CB09167
:102C6000970C63CD892B09F046C1AB1709F4F5C168
:102C70004BED442E4CE0542EA9E9BCE07B0100242E
:102C8000F694E7940794F694E7940794FE2CE02CCE
:102C9000A701465E554F7A0180EC582F560340013C
:102CA000579F900C1124EBE2F5E080E090E0590191
:102CB0003D01A7010FC07096BFEF4B1A5B0A029649
:102CC00022E0620E711C4E5F5F4F37E0EB32F3077C
:102CD00009F4D6CD2081213071F79C012856364F5A
:102CE000D9011D921C929A01280D391D200F311F08
:102CF000D9012D913C91D30136FF35C02D913C91E6
:102D00007901C12CD12CBC016450734FDB01ED92D1
:102D1000FC92D3012D933C939C01275A334FD90148
:102D2000CD92DC92D2011C92C6CF9091D909981312
:102D30002AC080E092E0EAEDF9E0A8E9B7E001906E
:102D40000D920197E1F78091A707882321F08091E8
:102D5000AC07811103C081E08093980CB091970C6F
:102D6000A091EE09E2CCED90FC906901CE18DF084D
:102D7000CACF8091F3098093DA0C6CCF8091F4096B
:102D80008093DA0C67CF68E977E00E94A018DBCF68
:102D90004BED5CE0A9E9BCE00652164FEBE2F5E032
:102DA00080E090E0BB24B39469013A014D010DC06D
:102DB0007096BFEF6B1A7B0A029622E0820E911C7E
:102DC00037E0EB32F30709F449C04081413081F725
:102DD000AC014856564FDA011D921C92A801480FCB
:102DE000591F405C5F4FDA014D915C9156FF2FC037
:102DF000D4014D915C91BA01E12CF12C9C0124503D
:102E0000334FD9016D937C93D4014D935C939C0116
:102E1000275A334FD901ED92FC929C012852384F2A
:102E2000D901ED90FC90F6FC0FC06417750730F4E3
:102E30004E155F0518F4D301BC92BACF4617570759
:102E400018F4E416F506B8F3D3011C92B1CFD401FF
:102E50006D917C917A01E61AF70AD0CF960111CDD7
:102E60004BED5CE0A9E9BCE00652164FEBE2F5E061
:102E700080E090E04A0169015D010CC07096BFEFEF
:102E80008B1A9B0A029622E0A20EB11C37E0EB32AD
:102E9000F30721F34081413089F7AC014856564F82
:102EA000DA011D921C92A801480F591F405C5F4F28
:102EB000DA014D915C91D50156FF17C04D915C919F
:102EC000BA01E12CF12C9C012450334FD9016D93B0
:102ED0007C93D5014D935C93AC01475A534FDA0173
:102EE000ED92FC92D4011C92C9CF6D917C917A0134
:102EF000E61AF70AE8CFAB1709F465C08BED482E48
:102F00008CE0582EA9E9BCE07B010024F694E794FC
:102F10000794F694E7940794FE2CE02CC701865E94
:102F2000954F7C0180EC482F46034001479F900C51
:102F30001124EBE2F5E080E090E059013D01A701AA
:102F400078010FC07096BFEF4B1A5B0A029602E041
:102F5000600E711C4E5F5F4F17E0EB32F10709F412
:102F60008FCC2081213071F79C012856364FD90132
:102F70001D921C929A01280D391D2E0D3F1DD9015D
:102F80002D913C9136FF18C0D3012D913C91B90190
:102F9000C12CD12C8C010450134FD8016D937C931C
:102FA000D3012D933C939C01275A334FD901CD92E5
:102FB000DC92D2011C92C6CFD3016D917C91690144
:102FC000C61AD70AE7CFA9E9BCE04BED5CE0065290
:102FD000164FEBE2F5E080E090E05D014A010DC0A4
:102FE00070960296B2E0AB0EB11C4FEF841A940AB1
:102FF00057E0EB32F50709F444CC4081413081F7CA
:10300000AC014856564FDA011D921C92A801480F98
:10301000591F405C5F4FDA014D915C91D50156FF1D
:1030200016C04D915C91BA01E12CF12CDC01A45049
:10303000B34F6D937C93D5014D935C93AC01475A8C
:10304000534FDA01ED92FC92D4011C92C9CF6D91DD
:103050007C917A01E61AF70AE9CFA9E9BCE04BEDC9
:103060005CE00652164FEBE2F5E080E090E05D0197
:103070004A010DC070960296B2E0AB0EB11C4FEF44
:10308000841A940A57E0EB32F50709F4FACB408131
:10309000413081F7AC014856564FDA011D921C921F
:1030A000A801480F591F405C5F4FDA014D915C91B8
:1030B00056FF17C0D5014D915C91BA01E12CF12C5E
:1030C000DC01A450B34F6D937C93D5014D935C9379
:1030D000AC01475A534FDA01ED92FC92D4011C9295
:1030E000C9CFD5016D917C917A01E61AF70AE8CF34
:1030F000FC0120E030E090E08191980F2F5F3F4F7E
:10310000211582E03807C1F781E0911180E0089530
:1031100020E032E0FC01A901119241505040E1F75A
:103120000895FB0120E030E0DC01A20FB31F4C91B9
:1031300041932F5F3F4F211542E03407A9F70895CF
:10314000EF92FF920F931F93CF93DF93F62EE72E0C
:10315000082F10E020E030E000511F4F2F4F3F4F6D
:1031600089E0000F111F221F331F8A95D1F7C62F48
:10317000D72F80E090E0DC01AC01BD01400F511F72
:10318000621F731F6BBFFA01479149930196A11DFE
:10319000B11D811542E09407A105B10569F7EF2D36
:1031A000FE2D20E080E090E03191230F0196811503
:1031B00032E09307C9F781E0211180E08195DF912A
:1031C000CF911F910F91FF90EF9008954F925F92D2
:1031D0006F927F928F929F92AF92BF92CF92DF9227
:1031E000EF92FF921F93CF93DF938091BD0D8130BB
:1031F00081F0DF91CF911F91FF90EF90DF90CF9002
:10320000BF90AF909F908F907F906F905F904F9006
:10321000089510917B0D113061F783E00E94850ABB
:103220002091C00D3091C10D7C01E21AF30A84E0B7
:103230000E94850AC091BE0DD091BF0D66277727E9
:103240006E197F09C81BD90B68338FEF78070CF410
:103250006EC0693C710514F010937C0D882777FDD2
:103260008095982F0E94D94A6B017C0126E234EBAD
:1032700047E95DE30E94894B2B013C0129E33EE8CD
:1032800043E65EE3C701B6010E94894B4B015C0136
:10329000BE01882777FD8095982F0E94D94A6B013F
:1032A0007C012DEC3CEC4CE45EE30E94894B0E94D7
:1032B000AB4A70938E0D60938D0D7093900D60935B
:1032C0008F0DC301B2010E94AB4A7093960D6093BB
:1032D000950DC301B20190580E94AB4A7093980DAE
:1032E0006093970DC501B4010E94AB4A70939A0D8B
:1032F0006093990DC501B40190580E94AB4A709338
:103300009C0D60939B0D2DEC3CEC4CEC5DE3C701F8
:10331000B6010E94894B90580E94AB4A70939E0D53
:1033200060939D0D7093A00D60939F0D62CF82E01E
:1033300080937C0D93CFE82FF0E0EE0FFF1FE35852
:10334000F24F8081918108952DE73DE0FC013183AA
:10335000208308951092C10D1092C00D1092BF0DE0
:103360001092BE0D10927B0D1092BD0D10927C0D2F
:1033700080E4EDE7FDE0DF011D928A95E9F708950D
:1033800080917C0D10927C0D089510927C0D089513
:103390002F923F924F925F926F927F928F929F9265
:1033A000AF92BF92CF92DF92EF92FF920F931F9353
:1033B000CF93DF93CDB7DEB7E4970FB6F894DEBFB7
:1033C0000FBECDBF1092C10D1092C00D1092BF0D57
:1033D0001092BE0D82E390E00E94B30C7E0185E165
:1033E000E80EF11CFE013196FAA7E9A71E01F9E2E9
:1033F0002F0E311C812C912C54012401350104C065
:103400000E944A0C0E9432060E94F80C8823C1F3E5
:1034100083E00E94850A8C01F701819391937F01DB
:1034200084E00E94850A6C01E9A5FAA58193919335
:10343000FAA7E9A7B80180E090E00E94D74A9B0173
:10344000AC01C301B2010E94DB492B013C01B60172
:1034500080E090E00E94D74A9B01AC01C501B40115
:103460000E94DB494B015C01E214F30469F60E94FF
:103470000A0D20E030E040E251E4C301B2010E94B5
:10348000434A6B017C0120E030E040E251E4C50199
:10349000B4010E94434A69A77AA78BA79CA76D89AC
:1034A0007E8980E090E00E94D74AA70196010E94A1
:1034B000DA499B01AC010E94894B20E030E0A90170
:1034C0000E94DB492B013C0169817A8180E090E018
:1034D0000E94D74A29A53AA54BA55CA50E94DA49C6
:1034E0009B01AC010E94894B20E030E0A9010E94C1
:1034F000DB494B015C016F89788D80E090E00E9490
:10350000D74AA70196010E94DA499B01AC010E94AB
:10351000894BA30192010E94DB492B013C016B8185
:103520007C8180E090E00E94D74A29A53AA54BA56E
:103530005CA50E94DA499B01AC010E94894B9B016A
:10354000AC01C501B4010E94DB494B015C01698DEE
:103550007A8D80E090E00E94D74AA70196010E94F0
:10356000DA499B01AC010E94894B9B01AC01C3016C
:10357000B2010E94DB492B013C016D817E8180E01C
:1035800090E00E94D74A29A53AA54BA55CA50E94C8
:10359000DA499B01AC010E94894B9B01AC01C5013A
:1035A000B4010E94DB494B015C016B8D7C8D80E096
:1035B00090E00E94D74AA70196010E94DA499B0138
:1035C000AC010E94894B9B01AC01C301B2010E9476
:1035D000DB492B013C016F81788580E090E00E94FF
:1035E000D74A29A53AA54BA55CA50E94DA499B01BB
:1035F000AC010E94894B9B01AC01C501B4010E9442
:10360000DB494B015C016D8D7E8D80E090E00E9476
:10361000D74AA70196010E94DA499B01AC010E949A
:10362000894B9B01AC01C301B2010E94DB492B0114
:103630003C0169857A8580E090E00E94D74A29A5FF
:103640003AA54BA55CA50E94DA499B01AC010E94FA
:10365000894B9B01AC01C501B4010E94DB494B01C0
:103660005C016F8D78A180E090E00E94D74AA701AD
:1036700096010E94DA499B01AC010E94894B9B0193
:10368000AC01C301B2010E94DB492B013C016B85F7
:103690007C8580E090E00E94D74A29A53AA54BA5F9
:1036A0005CA50E94DA499B01AC010E94894B9B01F9
:1036B000AC01C501B4010E94DB494B015C0169A169
:1036C0007AA180E090E00E94D74AA70196010E946B
:1036D000DA499B01AC010E94894B9B01AC01C301FB
:1036E000B2010E94DB492B013C016D857E8580E0A3
:1036F00090E00E94D74A29A53AA54BA55CA50E9457
:10370000DA499B01AC010E94894B9B01AC01C501C8
:10371000B4010E94DB494B015C016BA17CA180E0FC
:1037200090E00E94D74AA70196010E94DA499B01C6
:10373000AC010E94894B9B01AC01C301B2010E9404
:10374000DB492B013C016F85788980E090E00E9485
:10375000D74A29A53AA54BA55CA50E94DA499B0149
:10376000AC010E94894B9B01AC01C501B4010E94D0
:10377000DB494B015C016DA17EA180E090E00E94DD
:10378000D74AA70196010E94DA499B01AC010E9429
:10379000894B9B01AC01C301B2010E94DB496DA7BB
:1037A0007EA78FA798AB69897A8980E090E00E9414
:1037B000D74A29A53AA54BA55CA50E94DA499B01E9
:1037C000AC010E94894B9B01AC01C501B4010E9470
:1037D000DB4969AB7AAB8BAB9CAB6FA178A580E082
:1037E00090E00E94D74AA70196010E94DA492B0176
:1037F0003C016B897C8980E090E00E94D74A29A532
:103800003AA54BA55CA50E94DA494B015C01A301D6
:103810009201C301B2010E94894B2DA53EA54FA57F
:1038200058A90E94DB4920E030E040E251E40E94C8
:10383000434A0E94F04B2B013C01A5019401C501B4
:10384000B4010E94894B29A93AA94BA95CA90E94FD
:10385000DB4920E030E040E251E40E94434A0E940C
:10386000F04B4B015C0120E030E040EA51E4C30141
:10387000B2010E943F4A87FF0AC020E030E040EAE0
:1038800051E4C501B4010E943F4A87FD26C044E6C9
:1038900050E06AE070E084E00E94140B8091941183
:1038A0008F778093941180E0E4960FB6F894DEBF92
:1038B0000FBECDBFDF91CF911F910F91FF90EF9081
:1038C000DF90CF90BF90AF909F908F907F906F9040
:1038D0005F904F903F902F90089581E080937B0DF3
:1038E000C701B6010E94AB4A7093C10D6093C00D31
:1038F00069A57AA58BA59CA50E94AB4A7093BF0DC4
:103900006093BE0D0E94070B81E0CECF81E08093D3
:10391000BD0D08951092BD0D08958091BD0D0895BF
:103920000F931F93CF93DF93EC011091020311309B
:1039300091F108F442C0123081F01330C1F50E94B9
:10394000171081112CC01092C60D1092020381E055
:10395000DF91CF911F910F9108950E94171081114F
:103960001EC01091C60D8091C50D113009F454C0D0
:10397000882309F44AC08A810E94B90F1092C50DAC
:103980000E94C50F82E08093020380E0DF91CF9117
:103990001F910F9108950E941710882321F1109311
:1039A000020380E0DF91CF911F910F91089580E095
:1039B000DF91CF911F910F9108958091C40D8823BD
:1039C00001F189810E94B90F0E94C50F8091C40D39
:1039D0008093C50D81E08093020380E0DF91CF9159
:1039E0001F910F9108950091C60D8091C50D013072
:1039F00009F18111C0CF8B810E94B90F1093C50DC1
:103A0000BFCF88810E94B90FDFCF8B810E94B90F91
:103A100081E08093C50DB4CF811114C08D810E94C7
:103A2000B90F1093C50D0E94C50F83E08093020368
:103A300080E0B8CF811106C08D810E94B90F00933C
:103A4000C50DF1CF8C810E94B90F1092C50DEBCF3F
:103A50001F93CF93DF93EC0110910103113029F1F3
:103A6000A0F1123079F0133059F50E94171081112E
:103A700020C01092C60D1092010381E0DF91CF911A
:103A80001F9108950E941710811113C08091C50DD8
:103A900081115FC08091C60D813009F447C08B81D0
:103AA0000E94B90F1093010333C00E94171088239E
:103AB00009F11093010380E0DF91CF911F910895E8
:103AC00080E0DF91CF911F9108958091C40D8823EC
:103AD00049F189810E94B90F0E94C50F8091C40DE0
:103AE0008093C50D81E08093010380E0DF91CF9149
:103AF0001F9108958091C50D81111FC08091C60D41
:103B00008130A1F08B810E94B90F82E08093010384
:103B100081E08093C50D0E94C50F80E0DF91CF91B9
:103B20001F91089588810E94B90FD6CF8D810E9480
:103B3000B90F83E080930103EBCF8A810E94B90F14
:103B40001092C50D0E94C50F82E08093010380E0B2
:103B5000B3CF8A810E94B90F1092C50D0E94C50F84
:103B60001093010380E0A8CF1F93CF93DF93EC0164
:103B700010910003113031F1A8F1123079F01330B7
:103B800061F50E941710811121C01092C60D10928C
:103B9000000381E0DF91CF911F9108950E941710DB
:103BA000811114C08091C50D813009F057C08091FA
:103BB000C60D813009F45EC08A810E94B90F10934E
:103BC000000333C00E941710882309F110930003EB
:103BD00080E0DF91CF911F91089580E0DF91CF9138
:103BE0001F9108958091C40D882341F189810E941D
:103BF000B90F0E94C50F8091C40D8093C50D81E05F
:103C00008093000380E0DF91CF911F910895809110
:103C1000C50D8130B9F48091C60D813059F18A818A
:103C20000E94B90F82E0809300031092C50D0E949C
:103C3000C50F80E0DF91CF911F91089588810E9488
:103C4000B90FD7CF8B810E94B90F1093C50D0E9479
:103C5000C50F82E08093000380E0BBCF8B810E9480
:103C6000B90F81E08093C50D0E94C50F109300032A
:103C700080E0AFCF8C810E94B90F83E08093000376
:103C8000D4CF8091C50D882319F01092C50D0895E9
:103C900081E08093C50D0895681B790B683F88EF1C
:103CA000780744F0693087E0780714F060517E406F
:103CB000CB010895605F714FCB010895680F791FA4
:103CC00077FD08C061318EE0780714F060517E40C6
:103CD000CB010895605F714FCB0108951092C60D1E
:103CE0001092C40D1092C50D1092C30D1092C20D0A
:103CF000089581E08093C60D08958093C40D0895C2
:103D00001092C30D1092C20D08958091C20D909132
:103D1000C30D0895CF93DF93C0910203C13071F1B9
:103D2000D8F1C23071F0C33099F50E94171081119B
:103D300029C01092C60D1092020381E0DF91CF914D
:103D400008950E94171081111DC0C091C60D809169
:103D5000C50DC13009F451C0882309F446C08091D3
:103D600002020E94B90F1092C50D0E94C50F82E099
:103D70008093020380E0DF91CF9108950E94171095
:103D80008823F9F0C093020380E0DF91CF9108957A
:103D900080E0DF91CF9108958091C40D882301F1D7
:103DA000809101020E94B90F0E94C50F8091C40D3D
:103DB0008093C50D81E08093020380E0DF91CF9175
:103DC0000895D091C60D8091C50DD13029F1811192
:103DD000C6CF809103020E94B90FC093C50DC5CF15
:103DE000809100020E94B90FDFCF809103020E94F0
:103DF000B90F81E08093C50DB8CF811116C08091B5
:103E000005020E94B90FC093C50D0E94C50F83E043
:103E10008093020380E0B9CF811107C08091050231
:103E20000E94B90FD093C50DF0CF809104020E947B
:103E3000B90F1092C50DE9CFCF93DF93C091020364
:103E4000C13071F1D8F1C23071F0C33099F50E94E0
:103E50001710811129C01092C60D1092020381E043
:103E6000DF91CF9108950E94171081111DC0C0915C
:103E7000C60D8091C50DC13009F451C0882309F4E5
:103E800046C0809108020E94B90F1092C50D0E9491
:103E9000C50F82E08093020380E0DF91CF91089507
:103EA0000E9417108823F9F0C093020380E0DF918D
:103EB000CF91089580E0DF91CF9108958091C40D56
:103EC000882301F1809107020E94B90F0E94C50F5B
:103ED0008091C40D8093C50D81E08093020380E042
:103EE000DF91CF910895D091C60D8091C50DD1304D
:103EF00029F18111C6CF809109020E94B90FC093A8
:103F0000C50DC5CF809106020E94B90FDFCF809109
:103F100009020E94B90F81E08093C50DB8CF8111CD
:103F200016C080910B020E94B90FC093C50D0E946C
:103F3000C50F83E08093020380E0B9CF811107C0F1
:103F400080910B020E94B90FD093C50DF0CF8091E4
:103F50000A020E94B90F1092C50DE9CFCF93C0910C
:103F60000103C13021F178F1C23069F0C33041F56D
:103F70000E94171081111FC01092C60D10920103EC
:103F800081E0CF9108950E941710811114C0809193
:103F9000C50D81115DC08091C60D813009F443C00B
:103FA00080910F020E94B90FC09301032FC00E949D
:103FB00017108823E1F0C093010380E0CF910895AA
:103FC00080E0CF9108958091C40D882339F18091CC
:103FD0000D020E94B90F0E94C50F8091C40D8093FD
:103FE000C50D81E08093010380E0CF910895809119
:103FF000C50D811120C08091C60D8130A1F0809146
:104000000F020E94B90F82E08093010381E0809348
:10401000C50D0E94C50F80E0CF91089580910C02DC
:104020000E94B90FD8CF809111020E94B90F83E08E
:1040300080930103EBCF80910E020E94B90F109282
:10404000C50D0E94C50F82E08093010380E0B6CFCA
:1040500080910E020E94B90F1092C50D0E94C50FEB
:10406000C093010380E0AACFCF93C0910003C13079
:1040700029F180F1C23069F0C33049F50E94171070
:10408000811120C01092C60D1092000381E0CF91E3
:1040900008950E941710811115C08091C50D8130BF
:1040A00009F054C08091C60D813009F45CC0809144
:1040B00014020E94B90FC09300032FC00E94171072
:1040C0008823E1F0C093000380E0CF91089580E061
:1040D000CF9108958091C40D882331F1809113020E
:1040E0000E94B90F0E94C50F8091C40D8093C50D29
:1040F00081E08093000380E0CF9108958091C50D09
:104100008130B9F48091C60D813069F1809114023B
:104110000E94B90F82E0809300031092C50D0E94A7
:10412000C50F80E0CF910895809112020E94B90FCF
:10413000D9CF809115020E94B90FC093C50D0E947E
:10414000C50F82E08093000380E0BFCF809115020D
:104150000E94B90F81E08093C50D0E94C50FC093E6
:10416000000380E0B2CF809116020E94B90F83E075
:1041700080930003D2CFCF93C0910103C13021F1CE
:1041800078F1C23069F0C33041F50E9417108111F7
:104190001FC01092C60D1092010381E0CF910895C7
:1041A0000E941710811114C08091C50D81115DC04E
:1041B0008091C60D813009F443C080911B020E949A
:1041C000B90FC09301032FC00E9417108823E1F09C
:1041D000C093010380E0CF91089580E0CF910895CE
:1041E0008091C40D882339F1809119020E94B90F82
:1041F0000E94C50F8091C40D8093C50D81E080930E
:10420000010380E0CF9108958091C50D811120C0F8
:104210008091C60D8130A1F080911B020E94B90FE0
:1042200082E08093010381E08093C50D0E94C50F59
:1042300080E0CF910895809118020E94B90FD8CFE5
:1042400080911D020E94B90F83E080930103EBCFA0
:1042500080911A020E94B90F1092C50D0E94C50FDD
:1042600082E08093010380E0B6CF80911A020E9421
:10427000B90F1092C50D0E94C50FC093010380E0D5
:10428000AACFCF93C0910003C13029F180F1C23091
:1042900069F0C33049F50E941710811120C01092B7
:1042A000C60D1092000381E0CF9108950E9417106F
:1042B000811115C08091C50D813009F054C08091E5
:1042C000C60D813009F45CC0809120020E94B90FB4
:1042D000C09300032FC00E9417108823E1F0C09301
:1042E000000380E0CF91089580E0CF910895809100
:1042F000C40D882331F180911F020E94B90F0E94E2
:10430000C50F8091C40D8093C50D81E0809300039B
:1043100080E0CF9108958091C50D8130B9F48091EE
:10432000C60D813069F1809120020E94B90F82E0B0
:10433000809300031092C50D0E94C50F80E0CF91BD
:10434000089580911E020E94B90FD9CF8091210259
:104350000E94B90FC093C50D0E94C50F82E08093E3
:10436000000380E0BFCF809121020E94B90F81E05D
:104370008093C50D0E94C50FC093000380E0B2CFAB
:10438000809122020E94B90F83E080930003D2CF74
:10439000CF93C0910103C13021F178F1C23069F0AF
:1043A000C33041F50E94171081111FC01092C60D35
:1043B0001092010381E0CF9108950E94171081119E
:1043C00014C08091C50D81115DC08091C60D8130F2
:1043D00009F443C0809127020E94B90FC0930103E2
:1043E0002FC00E9417108823E1F0C093010380E0E2
:1043F000CF91089580E0CF9108958091C40D8823D6
:1044000039F1809125020E94B90F0E94C50F809159
:10441000C40D8093C50D81E08093010380E0CF91AE
:1044200008958091C50D811120C08091C60D813005
:10443000A1F0809127020E94B90F82E080930103CE
:1044400081E08093C50D0E94C50F80E0CF91089553
:10445000809124020E94B90FD8CF809129020E9436
:10446000B90F83E080930103EBCF809126020E9475
:10447000B90F1092C50D0E94C50F82E08093010311
:1044800080E0B6CF809126020E94B90F1092C50D30
:104490000E94C50FC093010380E0AACFCF93C091C3
:1044A0000003C13029F180F1C23069F0C33049F511
:1044B0000E941710811120C01092C60D10920003A7
:1044C00081E0CF9108950E941710811115C080914D
:1044D000C50D813009F054C08091C60D813009F4BA
:1044E0005CC080912C020E94B90FC09300032FC0C2
:1044F0000E9417108823E1F0C093000380E0CF9161
:10450000089580E0CF9108958091C40D882331F102
:1045100080912B020E94B90F0E94C50F8091C40D9B
:104520008093C50D81E08093000380E0CF910895D2
:104530008091C50D8130B9F48091C60D813069F14B
:1045400080912C020E94B90F82E0809300031092A8
:10455000C50D0E94C50F80E0CF91089580912A0279
:104560000E94B90FD9CF80912D020E94B90FC0933C
:10457000C50D0E94C50F82E08093000380E0BFCF8D
:1045800080912D020E94B90F81E08093C50D0E9499
:10459000C50FC093000380E0B2CF80912E020E942D
:1045A000B90F83E080930003D2CFCF93C091010372
:1045B000C13021F178F1C23069F0C33041F50E9479
:1045C000171081111FC01092C60D1092010381E0D7
:1045D000CF9108950E941710811114C08091C50DCC
:1045E00081115DC08091C60D813009F443C0809176
:1045F00033020E94B90FC09301032FC00E9417100D
:104600008823E1F0C093010380E0CF91089580E01A
:10461000CF9108958091C40D882339F180913102A2
:104620000E94B90F0E94C50F8091C40D8093C50DE3
:1046300081E08093010380E0CF9108958091C50DC2
:10464000811120C08091C60D8130A1F0809133028C
:104650000E94B90F82E08093010381E08093C50D31
:104660000E94C50F80E0CF910895809130020E9492
:10467000B90FD8CF809135020E94B90F83E08093A3
:104680000103EBCF809132020E94B90F1092C50D49
:104690000E94C50F82E08093010380E0B6CF809135
:1046A00032020E94B90F1092C50D0E94C50FC0932F
:1046B000010380E0AACFCF93C0910003C13029F15C
:1046C00080F1C23069F0C33049F50E9417108111A2
:1046D00020C01092C60D1092000381E0CF91089582
:1046E0000E941710811115C08091C50D813009F00D
:1046F00054C08091C60D813009F45CC080913802AD
:104700000E94B90FC09300032FC00E941710882386
:10471000E1F0C093000380E0CF91089580E0CF9155
:1047200008958091C40D882331F1809137020E9451
:10473000B90F0E94C50F8091C40D8093C50D81E013
:104740008093000380E0CF9108958091C50D813062
:10475000B9F48091C60D813069F1809138020E94D0
:10476000B90F82E0809300031092C50D0E94C50F1F
:1047700080E0CF910895809136020E94B90FD9CF81
:10478000809139020E94B90FC093C50D0E94C50FD8
:1047900082E08093000380E0BFCF809139020E94C5
:1047A000B90F81E08093C50D0E94C50FC09300032F
:1047B00080E0B2CF80913A020E94B90F83E08093EB
:1047C0000003D2CFCF93C0910103C13021F178F122
:1047D000C23069F0C33041F50E94171081111FC02B
:1047E0001092C60D1092010381E0CF9108950E94AE
:1047F0001710811114C08091C50D81115DC0809189
:10480000C60D813009F443C080913F020E94B90F68
:10481000C09301032FC00E9417108823E1F0C093BA
:10482000010380E0CF91089580E0CF9108958091B9
:10483000C40D882339F180913D020E94B90F0E9476
:10484000C50F8091C40D8093C50D81E08093010355
:1048500080E0CF9108958091C50D811120C0809195
:10486000C60D8130A1F080913F020E94B90F82E015
:104870008093010381E08093C50D0E94C50F80E005
:10488000CF91089580913C020E94B90FD8CF8091BA
:1048900041020E94B90F83E080930103EBCF809126
:1048A0003E020E94B90F1092C50D0E94C50F82E012
:1048B0008093010380E0B6CF80913E020E94B90F41
:1048C0001092C50D0E94C50FC093010380E0AACFCE
:1048D000CF93C0910003C13029F180F1C23069F05B
:1048E000C33049F50E941710811120C01092C60DE7
:1048F0001092000381E0CF9108950E94171081115A
:1049000015C08091C50D813009F054C08091C60D4D
:10491000813009F45CC0809144020E94B90FC093B9
:1049200000032FC00E9417108823E1F0C0930003FA
:1049300080E0CF91089580E0CF9108958091C40DDB
:10494000882331F1809143020E94B90F0E94C50F64
:104950008091C40D8093C50D81E08093000380E0B9
:10496000CF9108958091C50D8130B9F48091C60D25
:10497000813069F1809144020E94B90F82E08093F6
:1049800000031092C50D0E94C50F80E0CF910895DD
:10499000809142020E94B90FD9CF809145020E94B6
:1049A000B90FC093C50D0E94C50F82E0809300032C
:1049B00080E0BFCF809145020E94B90F81E08093D3
:1049C000C50D0E94C50FC093000380E0B2CF809157
:1049D00046020E94B90F83E080930003D2CFCF93A9
:1049E000C0910103C13021F178F1C23069F0C330C8
:1049F00041F50E94171081111FC01092C60D109230
:104A0000010381E0CF9108950E941710811114C015
:104A10008091C50D81115DC08091C60D813009F472
:104A200043C080914B020E94B90FC09301032FC075
:104A30000E9417108823E1F0C093010380E0CF911A
:104A4000089580E0CF9108958091C40D882339F1B5
:104A5000809149020E94B90F0E94C50F8091C40D38
:104A60008093C50D81E08093010380E0CF9108958C
:104A70008091C50D811120C08091C60D8130A1F0BB
:104A800080914B020E94B90F82E08093010381E084
:104A90008093C50D0E94C50F80E0CF91089580914D
:104AA00048020E94B90FD8CF80914D020E94B90FE1
:104AB00083E080930103EBCF80914A020E94B90FFB
:104AC0001092C50D0E94C50F82E08093010380E023
:104AD000B6CF80914A020E94B90F1092C50D0E9474
:104AE000C50FC093010380E0AACFCF93C09100030C
:104AF000C13029F180F1C23069F0C33049F50E941C
:104B00001710811120C01092C60D1092000381E091
:104B1000CF9108950E941710811115C08091C50D85
:104B2000813009F054C08091C60D813009F45CC019
:104B3000809150020E94B90FC09300032FC00E94C1
:104B400017108823E1F0C093000380E0CF9108950F
:104B500080E0CF9108958091C40D882331F1809138
:104B60004F020E94B90F0E94C50F8091C40D80931F
:104B7000C50D81E08093000380E0CF91089580917E
:104B8000C50D8130B9F48091C60D813069F18091F5
:104B900050020E94B90F82E0809300031092C50D6D
:104BA0000E94C50F80E0CF91089580914E020E942F
:104BB000B90FD9CF809151020E94B90FC093C50D92
:104BC0000E94C50F82E08093000380E0BFCF8091F8
:104BD00051020E94B90F81E08093C50D0E94C50F5C
:104BE000C093000380E0B2CF809152020E94B90FBF
:104BF00083E080930003D2CFCF93DF93C091020371
:104C0000C13071F1D8F1C23071F0C33099F50E9412
:104C10001710811129C01092C60D1092020381E075
:104C2000DF91CF9108950E94171081111DC0C0918E
:104C3000C60D8091C50DC13009F451C0882309F417
:104C400046C0809156020E94B90F1092C50D0E9475
:104C5000C50F82E08093020380E0DF91CF91089539
:104C60000E9417108823F9F0C093020380E0DF91BF
:104C7000CF91089580E0DF91CF9108958091C40D88
:104C8000882301F1809155020E94B90F0E94C50F3F
:104C90008091C40D8093C50D81E08093020380E074
:104CA000DF91CF910895D091C60D8091C50DD1307F
:104CB00029F18111C6CF809157020E94B90FC0938C
:104CC000C50DC5CF809154020E94B90FDFCF8091EE
:104CD00057020E94B90F81E08093C50DB8CF8111B2
:104CE00016C0809159020E94B90FC093C50D0E9451
:104CF000C50F83E08093020380E0B9CF811107C024
:104D0000809159020E94B90FD093C50DF0CF8091C8
:104D100058020E94B90F1092C50DE9CFCF93DF93CF
:104D2000C0910203C13071F1D8F1C23071F0C330CB
:104D300099F50E941710811129C01092C60D10928A
:104D4000020381E0DF91CF9108950E941710811135
:104D50001DC0C091C60D8091C50DC13009F451C070
:104D6000882309F446C080915C020E94B90F10921A
:104D7000C50D0E94C50F82E08093020380E0DF91A1
:104D8000CF9108950E9417108823F9F0C093020371
:104D900080E0DF91CF91089580E0DF91CF91089579
:104DA0008091C40D882301F180915B020E94B90FAC
:104DB0000E94C50F8091C40D8093C50D81E0809342
:104DC000020380E0DF91CF910895D091C60D8091CC
:104DD000C50DD13029F18111C6CF80915D020E94AD
:104DE000B90FC093C50DC5CF80915A020E94B90F6B
:104DF000DFCF80915D020E94B90F81E08093C50DE5
:104E0000B8CF811116C080915F020E94B90FC09384
:104E1000C50D0E94C50F83E08093020380E0B9CFE7
:104E2000811107C080915F020E94B90FD093C50D18
:104E3000F0CF80915E020E94B90F1092C50DE9CFAC
:104E4000089508950895089508950895089508957A
:104E50001F93CF93DF931F921F92CDB7DEB7681BCE
:104E6000790B683F88EF78073CF5605F714F1091D0
:104E7000FF02113059F1113008F4A1C0123009F4C9
:104E80005EC0133009F094C00E941710811187C0D2
:104E90008091C20D9091C30D01969093C30D8093A4
:104EA000C20D1092C60D1092FF0281E00F900F907C
:104EB000DF91CF911F9108956930E7E07E07BCF242
:104EC00060517E401091FF021130A9F669837A8308
:104ED0000E94171069817A81811161C08091C20D91
:104EE0009091C30D01969093C30D8093C20D809154
:104EF000C60D813009F4B2C0CB018D599F4F873C5C
:104F0000910508F47BC08091C50D6C39FFEF7F07D8
:104F10000CF08AC0882309F4C3C0813009F4F9C0B9
:104F200091E09093FF0281118BC081E08093C50DC9
:104F300080E00F900F90DF91CF911F9108956983CA
:104F40007A830E94171069817A81811128C080912B
:104F5000C20D9091C30D01969093C30D8093C20D25
:104F60008091C60D813009F488C0CB0177FDA0C0C7
:104F7000853691050CF46DC08091C50D1616170687
:104F80000CF04CC0811190C08CE60E94B90F0E94B9
:104F9000C50F82E08093FF028091C50DC4CF1093AE
:104FA000FF0280E00F900F90DF91CF911F91089545
:104FB00080E00F900F90DF91CF911F910895809125
:104FC000C40D8823B9F082E20E94B90F0E94C50F78
:104FD0008091C40D90E00196817099278093C50D52
:104FE00081E08093FF0280E00F900F90DF91CF91DE
:104FF0001F91089580E20E94B90FE8CF8091C50DFE
:10500000882309F44DC086E20E94B90F0E94C50FA3
:1050100081E08093FF028091C50D85CF81115AC038
:1050200088E70E94B90FB3CF653671050CF468C0EC
:10503000813049F3882309F458C081E08093FF024E
:105040001092C50D80E00F900F90DF91CF911F91CE
:10505000089581E08093FF0280E0A4CF8091C50D88
:1050600081112BC088E20E94B90F0E94C50F83E016
:105070008093FF028091C50D56CF8091C50D161605
:105080001706FCF4813051F18CE60E94B90F1093A1
:10509000FF020E94C50F8091C50D8111D1CF45CF70
:1050A00084E20E94B90FB2CF8EE60E94B90F6FCF93
:1050B00088279927861B970B5BCF8AE20E94B90F3E
:1050C000D4CF811120C08CE70E94B90F83E0809378
:1050D000FF02DFCF8AE70E94B90F59CF82E70E9413
:1050E000B90F83E08093FF02D4CF82E08093FF0268
:1050F0008CE60E94B90F0E94C50F8091C50D13CF99
:1051000077FF98CF0ACF8AE70E94B90F1093FF026A
:10511000C0CF8AE70E94B90F82E08093FF020E940D
:10512000C50F8091C50DFFCE1F93CF93DF931F92C4
:105130001F92CDB7DEB7681B790B683F88EF780701
:105140003CF5605F714F1091FE02113059F1113042
:1051500008F49EC0123009F45DC0133009F091C00C
:105160000E941710811184C08091C20D9091C30DCF
:1051700001979093C30D8093C20D1092C60D1092AB
:10518000FE0281E00F900F90DF91CF911F91089563
:105190006930E7E07E07BCF260517E401091FE026C
:1051A0001130A9F669837A830E94171069817A8188
:1051B00081115EC08091C20D9091C30D01979093B3
:1051C000C30D8093C20D8091C60D813009F4B0C02B
:1051D000CB018D599F4F873C910508F478C0809191
:1051E000C50D653671050CF488C0882309F4C2C06A
:1051F000813009F4E7C091E09093FE0281118AC0EA
:1052000081E08093C50D80E00F900F90DF91CF91EA
:105210001F91089569837A830E94171069817A81AA
:10522000811126C08091C20D9091C30D019790937A
:10523000C30D8093C20D8091C60D813009F487C0E3
:10524000CB0177FD9FC0853691050CF46CC0809131
:10525000C50D77FD4CC0811191C080E90E94B90F46
:105260000E94C50F82E08093FE028091C50DC6CFDB
:105270001093FE0280E00F900F90DF91CF911F916D
:10528000089580E00F900F90DF91CF911F910895C6
:105290008091C40D8823B9F08EE20E94B90F0E945C
:1052A000C50F8091C40D90E001968170992780937D
:1052B000C50D81E08093FE0280E00F900F90DF919A
:1052C000CF911F9108958CE20E94B90FE8CF809191
:1052D000C50D882309F44EC082E30E94B90F0E94D5
:1052E000C50F81E08093FE028091C50D87CF8111AB
:1052F00060C084E80E94B90FB3CF6C39FFEF7F071D
:105300000CF05BC0813041F3882309F46DC081E06B
:105310008093FE021092C50D80E00F900F90DF91F8
:10532000CF911F91089581E08093FE0280E0A3CF8A
:105330008091C50D81112BC084E30E94B90F0E949A
:10534000C50F83E08093FE028091C50D57CF8091F9
:10535000C50D77FD26C081111EC084E90E94B90FDA
:1053600083E08093FE020E94C50F8091C50D8111DC
:10537000D1CF46CF80E30E94B90FB1CF82E90E941E
:10538000B90F6ECF88279927861B970B5CCF86E3D2
:105390000E94B90FD4CF82E90E94B90F1093FE0288
:1053A000E2CF8130D1F084E80E94B90F1093FE0261
:1053B000DACF86E80E94B90F53CF161617060CF401
:1053C00017CFA2CF82E90E94B90F82E08093FE023C
:1053D0000E94C50F8091C50D11CF8AE80E94B90FB8
:1053E00083E08093FE02BFCF82E08093FE0284E8D8
:1053F0000E94B90F0E94C50F8091C50DFFCECF93BB
:10540000DF93D82FC091FD02C13019F180F0C23076
:1054100021F080E0DF91CF9108950E94010D81116C
:1054200029C0C093FD0280E0DF91CF9108950E94D2
:10543000171081111BC0D13019F18CE10E94B90FF6
:105440000E94C50F81E08093FD0280E0DF91CF9143
:1054500008950E9417108111E4CF82E08093FD022D
:1054600088EE93E00E94D50C80E0D4CF1092FD022C
:1054700080E0D0CF0E94C5191092FD0281E0CACF12
:105480008BE10E94B90FDCCFCF93C82F4091FC0273
:1054900050E04830510530F080E0C1111092FC021C
:1054A000CF910895FA01EA59FE4F0C9489490E9460
:1054B0001710882309F456C086E08093FC0280E030
:1054C000ECCF0E941710882309F448C087E080932E
:1054D000FC0280E0E2CF0E9417108823A9F10E940D
:1054E000131081E08093FC0280E0D7CF0E94171058
:1054F000882351F181E08093FC0280E0CECF0E94AE
:105500001710882309F456C082E08093FC0280E0E3
:10551000C4CF0E94010D811143C083E08093FC023F
:1055200080E0BBCF0E941710882381F184E0809334
:10553000FC0280E0B2CF0E9417108823E9F085E0DA
:105540008093FC0280E0A9CF83EE0E94B90F0E94F5
:10555000C50F82E08093FC0280E09FCF1092FC0296
:1055600081E09BCF8FE10E94B90F0E94C50F87E0B9
:105570008093FC0280E091CF82EE0E94B90F0E94DE
:10558000C50F86E08093FC0280E087CF81EE0E9409
:10559000B90F0E94C50F85E08093FC0280E07DCFAB
:1055A00080EE0E94B90F0E94C50F84E08093FC0238
:1055B00080E073CF8CED95E00E94D50C83E0809362
:1055C000FC0280E06ACFCF93C091FB02C23009F4A5
:1055D00041C068F0C430C1F098F1C53019F50E949F
:1055E000171081110CC01092FB0281E00BC0CC237C
:1055F000E1F0C130B9F40E9417108823C9F1C093BB
:10560000FB0280E0CF9108950E9417108111F7CF1F
:105610008FE10E94B90F0E94C50F85E08093FB02C5
:1056200080E0F0CF80E0CF9108950E94171088238A
:10563000F9F00E94131081E08093FB0280E0E2CF3A
:105640000E9417108823F9F083E08093FB0280E02A
:10565000CF9108950E9417108111D1CF85EE0E943D
:10566000B90F0E94C50F83E08093FB0280E0CACF90
:1056700084EE0E94B90F0E94C50F82E08093FB0266
:1056800080E0CF91089586EE0E94B90F0E94C50F69
:1056900084E08093FB0280E0B5CF1F93CF93DF932C
:1056A000EB01C81BD90BC83F88EFD8079CF5C05F3A
:1056B000D14F1091FA021230B9F1133008F04DC0F9
:1056C000112309F472C0113009F061C00E94171053
:1056D000811184C08091C60D813009F49FC0C953E7
:1056E000DF4FCF38D14008F488C08091C50D81309C
:1056F00009F4A2C084E50E94B90F0E94C50F10935F
:10570000FA028091C50D811185C081E08093C50D9D
:1057100080E03EC0C93097E0D9075CF2C051DE405E
:105720001091FA02123049F60E941710882309F4EA
:1057300060C01093FA02D7FD21C08CE092E00E9475
:10574000281D811129C0C436D1050CF591E0909334
:10575000C60DDF91CF911F910895133061F314307E
:10576000B1F40E941710811139C01092C60D109229
:10577000FA0281E0DF91CF911F91089582E192E0DA
:105780000E94B41D811108C0CD39DF4FFCF680E0C6
:10579000DF91CF911F9108951092FA021092C60DD9
:1057A00080E0DF91CF911F9108958091C40D811108
:1057B0001CC080E50E94B90F0E94C50F8091C40DE6
:1057C00090E00196817099278093C50D81E08093C8
:1057D000FA0280E0DF91CF911F9108951093FA02B1
:1057E00080E0DF91CF911F91089582E50E94B90F6B
:1057F000E3CF83E08093FA029ECF8091C50D8111A3
:1058000017C084E50E94B90F0E94C50F81E0809304
:10581000FA0277CF1092C50D80E0BACF8091C50D06
:10582000813099F084E50E94B90F0E94C50F69CFBD
:1058300086E50E94B90FE8CF8AE50E94B90F0E9461
:10584000C50F82E08093FA025CCF8AE50E94B90F0F
:1058500084E08093FA02E9CF1F93CF93DF93EB01AB
:10586000C81BD90BC83F88EFD8079CF5C05FD14F44
:105870001091F9021230B9F1133008F04DC0112324
:1058800009F472C0113009F061C00E941710811133
:1058900084C08091C60D813009F49FC0C953DF4F89
:1058A000CF38D14008F488C08091C50D8111A2C0C5
:1058B00084E60E94B90F0E94C50F82E08093F9022E
:1058C0008091C50D811185C081E08093C50D80E078
:1058D0003EC0C93097E0D9075CF2C051DE4010915C
:1058E000F902123049F60E941710882309F460C0AB
:1058F0001093F902D7FD21C08CE092E00E94281D90
:10590000811129C0C436D1050CF591E09093C60DE4
:10591000DF91CF911F910895133061F31430B1F4EA
:105920000E941710811139C01092C60D1092F90211
:1059300081E0DF91CF911F91089582E192E00E9472
:10594000B41D811108C0CD39DF4FFCF680E0DF9136
:10595000CF911F9108951092F9021092C60D80E028
:10596000DF91CF911F9108958091C40D81111CC0CA
:105970008CE50E94B90F0E94C50F8091C40D90E084
:105980000196817099278093C50D81E08093F9027B
:1059900080E0DF91CF911F9108951093F90280E08C
:1059A000DF91CF911F9108958EE50E94B90FE3CF4B
:1059B00083E08093F9029ECF8091C50D811122C0B2
:1059C00080E60E94B90F0E94C50F81E08093F90222
:1059D00077CF1092C50D80E0BACF8091C50D8111AF
:1059E00015C084E60E94B90F84E08093F9020E94FA
:1059F000C50F66CF82E60E94B90F0E94C50F1093B3
:105A0000F9025ECF82E60E94B90FDDCF82E60E94E6
:105A1000B90FEDCF1F93CF93DF93EC018091F80284
:105A2000823009F483C028F5882309F457C08130F7
:105A300061F5C091F402D091F5020E94F23A9E0104
:105A4000281B390BC901883F38EF93070CF08FC032
:105A5000805F914F97FDBFC0853691050CF08FC0D8
:105A600084E08093F80210E0812FDF91CF911F91A5
:105A70000895833081F0843041F41092F80211E0EF
:105A8000812FDF91CF911F91089510E0812FDF9139
:105A9000CF911F91089582E192E00E94B41D182FCA
:105AA0008111DECFC091F402D091F5020E94F23A4A
:105AB0009E01281B390B283F88EF38070CF47EC065
:105AC000293087E0380714F020513E402436310554
:105AD0000CF47AC083E08093F802C6CF0E94F23AB9
