:100000000C94C6010C94E7010C94E7010C94E701F1
:100010000C94E7010C94E7010C94E7010C94E701C0
:100020000C94E7010C94E7010C94E7010C94E701B0
:100030000C94E7010C94E7010C94E7010C94E701A0
:100040000C94E7010C94E7010C94E7010C94E70190
:100050000C94E7010C94E7010C94E7010C94E70180
:100060000C94E7010C94053E0C94E7010C94C23DFE
:100070000C94E7010C94E7010C94E7010C94E70160
:100080000C94E7010C94E7010C94E7010C94E70150
:100090000C946D420C94E7010C949C420C94E70183
:1000A0000C94E7010C94E7010C94E7010C94E70130
:1000B0000C94E7010C94E7010C94E7010C94E70120
:1000C0000C94E7010C94E7010C94E701D103D303EE
:1000D000D003D503D003D003D003D703D003D0037C
:1000E000D003D003D003D003D003D903D003D0036F
:1000F000D003D003D003D003D003D003D003D00368
:10010000D003D003D003D003D003DB03D003D0034C
:10011000D003D003D003D003D003D003D003D00347
:10012000D003D003D003D003D003D003D003D00337
:10013000D003D003D003D003D003D003D003D00327
:10014000D003D003D003D003D003CF03E903EB03E4
:10015000E803ED03E803E803E803EF03E803E8033B
:10016000E803E803E803E803E803F103E803E8032E
:10017000E803E803E803E803E803E803E803E80327
:10018000E803E803E803E803E803F303E803E8030C
:10019000E803E803E803E803E803E803E803E80307
:1001A000E803E803E803E803E803E803E803E803F7
:1001B000E803E803E803E803E803E803E803E803E7
:1001C000E803E803E803E803E803E7030404090499
:1001D00003040E04030403040304130403040304CC
:1001E00003040304030403040304180403040304C2
:1001F00003040304030403040304030403040304C7
:10020000030403040304030403041D04030403049C
:1002100003040304030403040304030403040304A6
:100220000304030403040304030403040304030496
:100230000304030403040304030403040304030486
:1002400003040304030403040304FF032E042E0425
:1002500028042E0428042804280437042804280429
:10026000280428042804280428043C04280428041A
:10027000280428042804280428042804280428041E
:100280002804280428042804280431042804280405
:1002900028042804280428042804280428042804FE
:1002A00028042804280428042804280428042804EE
:1002B00028042804280428042804280428042804DE
:1002C000280428042804280428044404372A422A3D
:1002D0004B2A552A5E2A672A232A2D2A6364696ECF
:1002E0006F70737578585B000C9437040C94672A10
:1002F0000C944B2A0C942D470C9402420C94F3035B
:100300000C945E2A0C94DB030C942E040C941D04B4
:100310000C94FF030C94422A0C9431040C94EF03C8
:100320000C94E8030C94E9030C94D5030C940E048C
:100330000C9418040C94D9030C94D0030C9444042A
:100340000C94D3030C9413040C94D7030C9428043A
:100350000C9424420C943C040C94D1030C94F103AF
:100360000C9403040C94CF030C94372A0C94ED03E3
:100370000C94E7030C942D2A0C94232A0C94552AF0
:100380000C9404040C9409040C94EB0311241FBE78
:10039000CFEFD1E2DEBFCDBF00E00CBF13E0A0E0A5
:1003A000B2E0E0E4F5EA00E00BBF02C007900D9276
:1003B000AC30B107D9F712E1ACE0B3E001C01D9257
:1003C000A036B107E1F70E9484460C949E520C942B
:1003D0000000CF93DF93EC010E94913A8C1B9D0BA0
:1003E000893027E092071CF080519E4006C0883F6C
:1003F00028EF920714F4805F914F6AE070E00E944A
:10040000D246CB01DF91CF910895FC019A01641B84
:10041000750BCB0160E17EE00E94D2466E9FC00169
:100420006F9F900D7E9F900D1124820F931F089552
:1004300060E071EE80E090E00E94DD420E9476195B
:100440000E9494190E94521C84E690E00E947F0C46
:100450000E943A1E0E94EA360C94153ACF93C0913E
:100460000C03C130B1F018F0C230D1F04DC081E0C2
:100470000E948504882351F081E080930C030E9440
:10048000913A90932803809327033EC010920C0367
:100490003BC00E94E30F8823A1F1C0930C0334C03A
:1004A0000E94C40C882369F186E00E9481379F93E3
:1004B0008F9388EB92E09F938F930E94044384E094
:1004C0000E9481379F938F9385ED92E09F938F9346
:1004D0000E94044387E00E9481379F938F9380EFAF
:1004E00092E09F938F930E94044384EF91E00E94D7
:1004F0007F0C8DB79EB70C960FB6F8949EBF0FBEBB
:100500008DBF82E080930C03CF9108950E948E03EB
:100510000E9447040E9457070E94230B0C944D0C25
:10052000649974C081E080933D03909140039923C6
:1005300009F4B5C010924103659952C081E08093DF
:10054000380390913B03992309F498C010923C031F
:10055000669932C081E080932E03909131039923F4
:1005600009F47BC0109232036799AAC081E080939E
:10057000290390912C03992309F45EC010922D0356
:10058000489912C091E09093330380913603811112
:1005900010C0809137038F5F8093370380913703BA
:1005A000843109F4B4C0089580913603813009F490
:1005B0009DC010923703089580913103813091F6E8
:1005C000909132039F5F9093320390913203943164
:1005D00059F6809330031092310310923203C4CF46
:1005E00080913B03813009F0B1CF90913C039F5F34
:1005F00090933C0390913C03943109F0A9CF8093F0
:100600003A0310923B0310923C03A2CF8091400327
:10061000813009F08FCF909141039F5F9093410308
:1006200090914103943109F087CF80933F0310925A
:1006300040031092410380CF90912D039F5F9093D0
:100640002D0390912D03943109F09ACF80932A03C2
:1006500080932C0310922D0393CF909132039F5FD0
:100660009093320390913203943109F07DCF8093BF
:100670002F03809331031092320376CF90913C0385
:100680009F5F90933C0390913C03943109F060CFBD
:100690008093390380933B0310923C0359CF909190
:1006A00041039F5F9093410390914103943109F07E
:1006B00043CF80933E0380934003109241033CCF8D
:1006C00080912C03813009F059CF90912D039F5FC9
:1006D00090932D0390912D03943109F051CF809385
:1006E0002B0310922C0310922D034ACF90913703C5
:1006F0009F5F9093370390913703943109F053CF64
:100700008093350310923603109237030895909327
:100710003403909336031092370308958FE787B917
:100720008EE788B910923D0310923E0310923F036A
:100730001092400310924103109238031092390333
:1007400010923A0310923B0310923C0310922E0336
:1007500010922F0310923003109231031092320343
:100760001092290310922A0310922B0310922C034B
:1007700010922D031092330310923403109235031C
:100780001092360310923703089590E0FC013197E0
:10079000E034F10528F4EA59FF4F0C945748469885
:1007A000089540980895419808954298089543986F
:1007B0000895449808954598089590E0FC01319774
:1007C000E034F10528F4EA55FF4F0C945748469A57
:1007D0000895409A0895419A0895429A0895439A37
:1007E0000895449A0895459A089590E0FC01319740
:1007F000E034F10540F4EA51FF4F0C94574888B1BA
:1008000090E4892788B9089588B191E0892788B94B
:10081000089588B192E0892788B9089588B194E055
:10082000892788B9089588B198E0892788B90895FB
:1008300088B190E1892788B9089588B190E2892725
:1008400088B9089590E0FC013197E034F10510F08B
:1008500080E00895EA5DFE4F0C94574886B180E031
:10086000089586B1807290E095958795089586B138
:1008700083FB882780F9089586B1807190E0959573
:10088000879595958795089586B1807408955098B9
:10089000589A8DB18F708DB98EB1806F8EB90895D1
:1008A000803259F160F4813001F18031A1F48091FE
:1008B0003D03882381F010923D0381E00895803448
:1008C00061F0803841F480912903882321F010924F
:1008D000290381E0089580E0089580912E03882304
:1008E000D1F310922E0381E0089580913303882381
:1008F00091F31092330381E00895809138038823A7
:1009000051F31092380381E00895803259F160F478
:10091000813001F18031A1F480913E03882381F080
:1009200010923E0381E00895803461F0803841F4F4
:1009300080912A03882321F010922A0381E00895F0
:1009400080E0089580912F038823D1F310922F0324
:1009500081E0089580913403882391F31092340349
:1009600081E0089580913903882351F3109239036F
:1009700081E00895803259F160F4813001F18031D5
:10098000A1F480913F03882381F010923F0381E01E
:100990000895803461F0803841F480912B038823DE
:1009A00021F010922B0381E0089580E0089580915A
:1009B00030038823D1F31092300381E008958091B1
:1009C0003503882391F31092350381E008958091D7
:1009D0003A03882351F310923A0381E008959091ED
:1009E0007C00987F90937C0020917C00982F9770DA
:1009F000922B90937C00882359F0815020E830E0BE
:100A000002C0359527958A95E2F7209522B9089579
:100A100082B18C6F82B90895CF92DF92EF92FF92EC
:100A2000CF93DF93CDB7DEB72E970FB6F894DEBF26
:100A30000FBECDBF8EE0EAEAF2E0DE011196019032
:100A40000D928A95E1F789819A819C01220F331FCB
:100A5000220F331F220F331F281B390B40E050E0B9
:100A6000C12CB4ECDB2EB9E0EB2EF12CC701B601A2
:100A70000E94E646215031092F3F310509F008F464
:100A80009BC08B819C819C01220F331F220F331F3F
:100A9000220F331F281B390B40E050E0C701B6017D
:100AA0000E94E646215031092F3F310509F008F434
:100AB0008AC08D819E819C01220F331F220F331F1C
:100AC000220F331F281B390B40E050E0C701B6014D
:100AD0000E94E646215031092F3F310509F008F404
:100AE00074C08F8198859C01220F331F220F331F02
:100AF000220F331F281B390B40E050E0C701B6011D
:100B00000E94E646215031092F3F310509F008F4D3
:100B10005EC089859A859C01220F331F220F331FE7
:100B2000220F331F281B390B40E050E0C701B601EC
:100B30000E94E646215031092F3F310509F008F4A3
:100B400048C08B859C859C01220F331F220F331FC9
:100B5000220F331F281B390B40E050E0C701B601BC
:100B60000E94E646215031092F3F3105A1F198F14D
:100B70008D859E859C01220F331F220F331F220F6C
:100B8000331F281B390B40E050E0C701B6010E941B
:100B9000E646215031092F3F3105F9F0F0F02E964D
:100BA0000FB6F894DEBF0FBECDBFDF91CF91FF909F
:100BB000EF90DF90CF90089580E02093B3008F5F97
:100BC0008093B100ECCF81E0F8CF82E0F6CF83E0F4
:100BD000F4CF84E0F2CF85E0F0CF86E0EECFEAE715
:100BE000F0E0808180648083089580917A0082950E
:100BF0008170089587B3869581700895B99B089593
:100C000087B3876087BB1092B200909132048091C5
:100C10007C00887F80937C0020917C00892F8770E6
:100C2000822B80937C00992309F420C12FEF290F98
:100C300080E890E002C0959587952A95E2F7809527
:100C400082B920E42A95F1F780917A00806480933C
:100C50007A0080917A0084FFFCCF80917A008061D5
:100C600080937A008091780090917900E09132042D
:100C7000F0E0EE0FFF1FED5CFB4F91838083E0916E
:100C800032042091430330E1E39FF0011124E20F8D
:100C9000F11DEE0FFF1FEE5AFC4F91838083E09110
:100CA000320480E2E89FF0011124EE5AFC4F80816B
:100CB0009181E091320420E2E29FF0011124EE5A8A
:100CC000FC4F22813381820F931FE091320430E286
:100CD000E39FF0011124EE5AFC4F24813581820FED
:100CE000931FE091320420E2E29FF0011124EE5ABA
:100CF000FC4F26813781820F931FE091320430E24E
:100D0000E39FF0011124EE5AFC4F20853185820FBC
:100D1000931FE091320420E2E29FF0011124EE5A89
:100D2000FC4F22853385820F931FE091320430E21D
:100D3000E39FF0011124EE5AFC4F24853585820F84
:100D4000931FE091320420E2E29FF0011124EE5A59
:100D5000FC4F26853785820F931FE091320430E2E5
:100D6000E39FF0011124EE5AFC4F20893189820F54
:100D7000931FE091320420E2E29FF0011124EE5A29
:100D8000FC4F22893389820F931FE091320430E2B5
:100D9000E39FF0011124EE5AFC4F24893589820F1C
:100DA000931FE091320420E2E29FF0011124EE5AF9
:100DB000FC4F26893789820F931FE091320430E27D
:100DC000E39FF0011124EE5AFC4F208D318D820FEC
:100DD000931FE091320420E2E29FF0011124EE5AC9
:100DE000FC4F228D338D820F931FE091320430E24D
:100DF000E39FF0011124EE5AFC4F248D358D820FB4
:100E0000931FE091320420E2E29FF0011124EE5A98
:100E1000FC4F268D378D820F931F929582958F7090
:100E200089279F708927E0913204F0E0EE0FFF1FC1
:100E3000EC5BFC4F91838083209132042630D1F00B
:100E400020913204211107C0209142032130E1F0AA
:100E50008E3A914008F18091320490E0019667E06B
:100E600070E00E94D24680933204089582B18C6F64
:100E700082B9E7CE2091430330E02F5F3F4F2F70C0
:100E8000332720934303DCCF863D914020F30E941B
:100E9000D30A10924203DFCF4EE150E06EE170E0E2
:100EA00085E00E94E00A81E080934203D4CFCF9294
:100EB000DF92EF92FF92CF93DF93CDB7DEB72E97FD
:100EC0000FB6F894DEBF0FBECDBF87E880937A00DF
:100ED00010927B0010927C0010927E0010927D0098
:100EE0008CEF81B982B986E692E0909334048093C6
:100EF000330490934503809344039093530380936A
:100F00005203909355038093540390935703809317
:100F10005603909359038093580390935B038093F7
:100F20005A0390935D0380935C0390935F038093D7
:100F30005E039093610380936003909363038093B7
:100F40006203909365038093640390936703809397
:100F50006603909369038093680390936B03809377
:100F60006A0390936D0380936C0390936F03809357
:100F70006E03909371038093700390933604809373
:100F800035049093470380934603909373038093B3
:100F90007203909375038093740390937703809307
:100FA0007603909379038093780390937B038093E7
:100FB0007A0390937D0380937C0390937F038093C7
:100FC0007E039093810380938003909383038093A7
:100FD0008203909385038093840390938703809387
:100FE0008603909389038093880390938B03809367
:100FF0008A0390938D0380938C0390938F03809347
:101000008E03909391038093900390933804809380
:1010100037049093490380934803909393038093FC
:1010200092039093950380939403909397038093F6
:101030009603909399038093980390939B038093D6
:101040009A0390939D0380939C0390939F038093B6
:101050009E039093A1038093A0039093A303809396
:10106000A2039093A5038093A4039093A703809376
:10107000A6039093A9038093A8039093AB03809356
:10108000AA039093AD038093AC039093AF03809336
:10109000AE039093B1038093B00390933A0480938E
:1010A000390490934B0380934A039093B303809346
:1010B000B2039093B5038093B4039093B7038093E6
:1010C000B6039093B9038093B8039093BB038093C6
:1010D000BA039093BD038093BC039093BF038093A6
:1010E000BE039093C1038093C0039093C303809386
:1010F000C2039093C5038093C4039093C703809366
:10110000C6039093C9038093C8039093CB03809345
:10111000CA039093CD038093CC039093CF03809325
:10112000CE039093D1038093D00390933C0480939B
:101130003B0490934D0380934C039093D30380938F
:10114000D2039093D5038093D4039093D7038093D5
:10115000D6039093D9038093D8039093DB038093B5
:10116000DA039093DD038093DC039093DF03809395
:10117000DE039093E1038093E0039093E303809375
:10118000E2039093E5038093E4039093E703809355
:10119000E6039093E9038093E8039093EB03809335
:1011A000EA039093ED038093EC039093EF03809315
:1011B000EE039093F1038093F00390933E048093A9
:1011C0003D0490934F0380934E039093F3038093D9
:1011D000F2039093F5038093F4039093F7038093C5
:1011E000F6039093F9038093F8039093FB038093A5
:1011F000FA039093FD038093FC039093FF03809385
:10120000FE03909301048093000490930304809361
:101210000204909305048093040490930704809340
:101220000604909309048093080490930B04809320
:101230000A0490930D0480930C0490930F04809300
:101240000E049093110480931004909340048093B3
:101250003F04909351038093500390931304809321
:1012600012049093150480931404909317048093B0
:101270001604909319048093180490931B04809390
:101280001A0490931D0480931C0490931F04809370
:101290001E04909321048093200490932304809350
:1012A0002204909325048093240490932704809330
:1012B0002604909329048093280490932B04809310
:1012C0002A0490932D0480932C0490932F048093F0
:1012D0002E049093310480933004109232041092C3
:1012E00043031092420382E08093B0001092B20058
:1012F0001092700087E087BB8EE0EAEAF2E0DE0140
:10130000119601900D928A95E1F789819A819C014D
:10131000220F331F220F331F220F331F281B390BBD
:1013200040E050E0C12C64ECD62E69E0E62EF12CB2
:10133000C701B6010E94E646215031092F3F310511
:1013400009F008F49BC08B819C819C01220F331F04
:10135000220F331F220F331F281B390B40E050E0B0
:10136000C701B6010E94E646215031092F3F3105E1
:1013700009F008F48AC08D819E819C01220F331FE1
:10138000220F331F220F331F281B390B40E050E080
:10139000C701B6010E94E646215031092F3F3105B1
:1013A00009F008F474C08F8198859C01220F331FC7
:1013B000220F331F220F331F281B390B40E050E050
:1013C000C701B6010E94E646215031092F3F310581
:1013D00009F008F464C089859A859C01220F331FA7
:1013E000220F331F220F331F281B390B40E050E020
:1013F000C701B6010E94E646215031092F3F310551
:1014000009F008F44AC08B859C859C01220F331F8C
:10141000220F331F220F331F281B390B40E050E0EF
:10142000C701B6010E94E646215031092F3F310520
:1014300091F188F18D859E859C01220F331F220F2B
:10144000331F220F331F281B390B40E050E0C70128
:10145000B6010E94E646215031092F3F3105C9F0FF
:10146000C0F02E960FB6F894DEBF0FBECDBFDF9151
:10147000CF91FF90EF90DF90CF90089580E0209380
:10148000B3008F5F8093B100ECCF81E0F8CF82E0B2
:10149000F6CF86E0F4CF85E0F2CF84E0F0CF83E0B2
:1014A000EECFE82FF0E0EE0FFF1FED5CFB4F8081E9
:1014B00091810895E82FF0E0EE0FFF1FEC5BFC4FE9
:1014C000808191810895C19B11C0C19A10929500AD
:1014D0001092940080911103811109C080914804F9
:1014E000813081F080914104813061F008958091D4
:1014F0004804813019F1809141048130F9F0109253
:101500001103089581E0809311038091420490912A
:10151000430401979093100380930F032091440498
:101520003091450430930E0320930D03892BF1F67F
:10153000809180008F7380938000089580910F03C5
:1015400090911003009741F00197909310038093BE
:101550000F03892B59F6ECCF80910D0390910E0368
:10156000009731F0019790930E0380930D03089537
:10157000809180008F7B80938000809180008068C4
:1015800080938000809142049091430490931003D3
:1015900080930F03809144049091450490930E032F
:1015A00080930D03089580914104813009F00895DE
:1015B000809180008F738093800010924104089581
:1015C00090914104992359F19130A9F1109287002B
:1015D00090E0FC01E75BFB4F208120938600109296
:1015E000890020812695209388007093430460939E
:1015F00042045093450440934404909347048093DD
:101600004604809180008F7B8093800080918000D1
:1016100080688093800081E08093410408959091D8
:101620004804913099F6909180009F7390938000C8
:1016300010924804CBCF909180009F7390938000CC
:1016400010924104C3CF259A2D9810926F009FE20B
:1016500096BB1092850010928400E0E8F0E01082C2
:1016600080818E7F8083808182608083E1E8F0E0EA
:101670001082808188608083808180618083109265
:101680008900109288008081887F808380818560B6
:1016900080831092710098BB109295001092940074
:1016A000E0E9F0E0108280818E7F808380818D7FF1
:1016B0008083E1E9F0E0108280818860808380810E
:1016C0008F7E808398E1909399008AE680939800BA
:1016D0008081887F80838081846080838DE1809396
:1016E00049048AE180934A0490934B0486E18093F5
:1016F0004C0484E180934D0482E180934E0480E1A8
:1017000080934F04109248041092410481E090E0CD
:10171000909343048093420490934504809344043F
:10172000109247041092460408959091410491113B
:101730002CC090914804911128C01092870090E02D
:10174000FC01E75BFB4F208120938600109289000B
:101750002081269520938800909347048093460427
:1017600070934304609342045093450440934404AF
:10177000809180008F7B80938000809180008068C2
:101780008093800081E08093480408959091410403
:10179000911104C090914804913009F0089510927D
:1017A000870090E0FC01E75BFB4F208120938600DF
:1017B00010928900208126952093880090934704F9
:1017C00080934604089520914104211104C0209182
:1017D0004804213009F00895909343048093420413
:1017E000089520914104211104C020914804213022
:1017F00009F00895909345048093440408958091DE
:101800004104811104C080914804813009F0089599
:10181000809180008F738093800010924804089517
:10182000809148040895809141040895D19B19C086
:10183000D19A109225011092240140915604809172
:10184000120390911303413069F0209150043091BC
:10185000510482179307C9F0019690931303809364
:101860001203089520915304309154048217930772
:1018700099F710921303109212034093520480912F
:101880002101887F80932101089510921303109203
:10189000120381E0809355040895109273008FE243
:1018A0008ABB1092250110922401E0E2F1E010823F
:1018B00080818E7F808380818D7F8083E1E2F1E073
:1018C000108280818860808380818F7E808388E120
:1018D000809329018AE6809328018081887F808314
:1018E0001092560410925404109253041092510412
:1018F00010925004109252041092550408951092C0
:1019000056049C013695279536952795ABE7B4E1AB
:101910000E94B14696958795909351048093500408
:101920001092550410922501109224018FE28ABB77
:10193000E1E2F1E08081887F808380818460808320
:10194000089521E0209356049C01369527953695FD
:101950002795ABE7B4E10E94B146969587959093A1
:101960005404809353041092520410922501109253
:1019700024018FE28ABBE1E2F1E08081887F8083ED
:10198000808184608083089580915504813011F0B6
:1019900080E008951092550408958091520481309A
:1019A00011F080E00895109252040895E1E2F1E010
:1019B0008081887F8083D19A109225011092240122
:1019C00010925504109252040895109272008FE202
:1019D00089BB1092A5001092A400E0EAF0E010820A
:1019E00080818E7F808380818D7F8083E1EAF0E03B
:1019F000108280818860808380818F7E80838DE3E8
:101A00008093A90088E08093A8008081887F8083EC
:101A10008081826080830895C99B07C0C99A109213
:101A2000A5001092A40081E0089580E00895AF928F
:101A3000BF92CF92DF92EF92FF920F931F93CF93BB
:101A4000DF931F921F92CDB7DEB7CE0101960E94A1
:101A50007019EBE4F5E049815A81B8E6AB2EB1E1AB
:101A6000BB2ED12C01E010E085E0C82E1FC0C901BB
:101A7000885A9B4FDC01CC92C901875A9B4FDC01ED
:101A8000CC92CB01880F991F88529B4F285A3B4F0D
:101A9000DC012D933C93D39470964E5F5F4FBFEF64
:101AA000AB1ABB0A87E0EB34F807D9F180818823B1
:101AB00099F3DA018D919C919F0127503109D90149
:101AC0002D913C91820F931FD5012C91820F911D76
:101AD00027FD9A956D2D70E09B01220F331F220F79
:101AE000331FD901A65ABB4F8C93D901A55ABB4FBE
:101AF0009C93CF010197DC018C91882309F4B7CF27
:101B00008F70D80102C0AA0FBB1F8A95E2F7CD01E2
:101B1000D901A85ABB4F8C93D901A75ABB4F8C93BC
:101B2000B0CFDD2061F008ED14E024E030E04CE1BE
:101B300050E06CE175E0809157040E9414410F90D1
:101B40000F90DF91CF911F910F91FF90EF90DF9059
:101B5000CF90BF90AF90089590E1899FF00111243C
:101B6000E45CFA4F6687089590E1899FF0011124A3
:101B7000E45CFA4F8685089590E1899FF001112475
:101B8000E45CFA4F71876087089590E1899FF001C6
:101B90001124E45CFA4F80859185089590E1899F36
:101BA000F0011124E45CFA4F8785089590E1899F44
:101BB000F0011124E45CFA4F8285089590E1899F39
:101BC000F0011124E45CFA4F84850895C99B15C087
:101BD000C99A1092A5001092A4000E94E7368111C4
:101BE0000DC00E94E60F0E94B2180E942F310E9481
:101BF000E736811106C00C94170D08950E946436D3
:101C0000F0CF0E946E36F7CF2F923F924F925F92A5
:101C10006F927F928F929F92AF92BF92CF92DF92FC
:101C2000EF92FF920F931F93CF93DF9300D0CDB726
:101C3000DEB7482E19820E94E13E882309F452C182
:101C40002FEF89E698E1215080409040E1F700C0F5
:101C50000000ECE3F5E04BE455E025E01182108252
:101C600013821282158214821782168211861086C0
:101C7000DA011C92CA010197DC012C9313861286AB
:101C8000158614867096405F5F4FB7E0EC33FB0714
:101C900029F7109218051092190510921A05109242
:101CA0001B056CE175E0CE0101960E94363F109253
:101CB00057048981882309F418C1312C9CE2892EAC
:101CC00099249394AA24AA9423E0B22EC12C32E042
:101CD000D32E5524539445E0642EEE24E394F12C46
:101CE00062E0262E09C081159C4009F4C4C03394DB
:101CF0008981381608F069C0E32DF0E0E45EFA4F00
:101D00007080872D0E943D3D8C30910521F08C32F2
:101D1000E1E09E0741F7872D0E941B34F0E17F9E92
:101D2000B00111248B01045C1A4FD80111969C92CA
:101D30008E921396BC92AE92129715961C921E929A
:101D400014971796DC92CE921697872D6A837B8321
:101D50000E947835F801918780876A817B81AB0189
:101D6000485B5A4F6A5B7A4F872D0E949F32D80199
:101D70001F965C921F971E966C92809157048F5FFE
:101D800080935704A70102C0440F551F7A94E2F7CD
:101D9000662757FD6095762F80911805909119055B
:101DA000A0911A05B0911B05842B952BA62BB72B60
:101DB0008093180590931905A0931A05B0931B05FD
:101DC00033948981381608F497CF809157044816C8
:101DD00009F485C044E650E06AE070E084E00E94C7
:101DE000E00A109272008FE289BB1092A500109257
:101DF000A4001092A0008091A0008E7F8093A0008C
:101E00008091A0008D7F8093A0001092A10080910E
:101E1000A10088608093A1008091A1008F7E8093B3
:101E2000A1008DE38093A90088E08093A8008091B1
:101E3000A100887F8093A1008091A100826080939F
:101E4000A1000E94770F809157040F900F900F9080
:101E5000DF91CF911F910F91FF90EF90DF90CF9086
:101E6000BF90AF909F908F907F906F905F904F90BA
:101E70003F902F900895872D0E941B34E0E17E9EB5
:101E8000B00111248B01045C1A4FE4EBF0E0D8019F
:101E90001196FC93EE931396BC92AE921297159600
:101EA0001C921E9214971796DC92CE921697872D4D
:101EB0006A837B830E947835D80119969C938E9310
:101EC00018976A817B81AB01485B5A4F6A5B7A4FF6
:101ED000872D0E949F32F801278666864ECF0E948A
:101EE000D30A7FCF0E94AB3EABCE80E070CF109282
:101EF000B80C1092FA0B8FEF8093FA0C8093F909CB
:101F00008093B70C1092F90C0895CF93C82F6AEF05
:101F100079E00E946C18811102C0C093F909CF9139
:101F200008951092B80C10923A0C1092390C10923D
:101F3000F8091092F7091092F80C1092F70C83E050
:101F400080939A0D1092B70C8091090A8093F6093C
:101F50001092FA0CEBE4F5E080E090E006C0709699
:101F6000029627E0EB34F20709F120812130B9F71E
:101F7000DF0117972D913C91DC01A754B34F2D93AE
:101F80003C93DC01A45AB24F1D921C92DC01A7586D
:101F9000B34F1D921C92DC01A45CB84F1D921C92A1
:101FA0007096029627E0EB34F207F9F681E0809311
:101FB000F90C80919E11806180939E11089581E0BB
:101FC0008093FA0B08958091F90C08952F923F9217
:101FD0004F925F926F927F928F929F92AF92BF9239
:101FE000CF92DF92EF92FF920F931F93CF93DF93E5
:101FF000CDB7DEB7A3970FB6F894DEBF0FBECDBF47
:102000008091F90C882309F49AC08091390C909141
:102010003A0C4091F7095091F8098417950708F098
:10202000A7C08C010F5F1F4F1A87098710933A0CC6
:102030000093390C10919A0D1D87133009F47FC05D
:102040008091F7099091F8098C0120E030E0098B2C
:102050001A8B2B8B3C8B8C01015011091E8B0D8B25
:102060000CE11DE074E4A72E75E0B72EEAE7CE2E52
:10207000E7E0DE2EFCE5EF2EFDE0FF2EACE34A2E7E
:10208000A7E05A2EBBEF6B2EBBE07B2E812C912C50
:1020900080E090E0212C312C9BA38AA3C201230174
:1020A00094014801A60167017A0189013C0121C020
:1020B000BFEF2B1A3B0AEAA1FBA17096FBA3EAA390
:1020C000F2E08F0E911C0E5F1F4F20E1A20EB11C9B
:1020D00032E0E30EF11C42E0C40ED11C52E0650E6A
:1020E000711C62E0460E511C8AA19BA18115924091
:1020F00031F12AA13BA1245C3A4F3A832983D901CB
:102100001F968C918130A1F6F801E758F34F80813A
:102110009181892B09F06FC0F40180819181D501F3
:102120008D939C93F101E650F64F80A1A981BA816D
:102130001E968C93BDCF1092F90C1092FA0BA396B9
:102140000FB6F894DEBF0FBECDBFDF91CF911F91C8
:102150000F91FF90EF90DF90CF90BF90AF909F9046
:102160008F907F906F905F904F903F902F90089549
:1021700010923A0C1092390CEBE4F5E080E090E01C
:1021800006C07096029607E0EB34F007E1F020817C
:102190002130B9F7DF0117972D913C91DC01A45E46
:1021A000B24F2D933C93DC01A45CB84F2D913C9130
:1021B000DC01A45AB24F2D933C937096029607E02F
:1021C000EB34F00721F780919A0D882309F4C7C0FA
:1021D000813009F492C1823009F45BC1833009F483
:1021E0002CC25E874D8780E090E0DA018A179B075A
:1021F00008F0A5CF16CFBD85B1114AC0F6010190F8
:10220000F081E02DF88BEF87F701A081B1812F8558
:102210003889A21BB30B29853A850E94C0462989BB
:102220003A894B895C890E9408478F859889820F7B
:10223000931FD3018D939C93D901B595A795EF85F5
:10224000F889AE0FBF1F29853A850E94C0469B01C1
:10225000AC01A0E9B0E00E94C7462FE030E040E0CA
:1022600050E00E94084769E05595479537952795B6
:102270006A95D1F7F801E854F64F31832083D401F1
:102280008D919C91820F931FF501918380834ACF9A
:10229000B13009F448C029853A854D895E892417F3
:1022A000350709F421C1F101E550F34F8081811117
:1022B0003AC0F6010190F081E02DF88BEF87DF0145
:1022C000B195A195B10929853A850E94C046298911
:1022D0003A894B895C890E9408478F859889820FCB
:1022E000931FD3018D939C93D901B595A795EF8545
:1022F000F889AE0FBF1F29853A850E94C0469B0111
:10230000AC01A0E9B0E00E94C7462FE030E040E019
:1023100050E00E94084799E05595479537952795D5
:102320009A95D1F7ACCFF201A081B18129853A8588
:102330000E94C04629893A894B895C890E940847D6
:10234000D4018D919C91820F931FF501918380831D
:10235000D7018D919C91F30191838083E3CE81E03D
:1023600080939A0D20915A0D30915B0D00911A0DBA
:1023700010911B0D1A830983C801880F991F8901C9
:10238000081B190B1E870D871093F8090093F70996
:1023900009811A812017310709F4E5C0A801B9E7BE
:1023A0002B2EBCE03B2E18EB612E19E0712E0AE7B4
:1023B000802E07E0902E8BEF482E8BE0582E0BEFEF
:1023C0001CE06BE475E0C901841B950B9C0140E0A7
:1023D00050E029873A874B875C8795E0C92ED12C3E
:1023E000E12CF12C788B6F8719C0EF85F8897096F6
:1023F000F88BEF87F2E02F0E311C22E0620E711C89
:1024000032E0830E911C42E0440E511C0F5F1F4FBF
:102410006F8578896B54774009F44BC0AF85B889D4
:102420008C91813011F7F8018081813009F446C028
:10243000F401A081B181F101A080B180F30180811C
:102440009181A81AB90A29813A810E94C0469B014C
:10245000AC01660F771F881F991F620F731F841FBF
:10246000951F660F771F881F991F660F771F881F9C
:10247000991FA70196010E940847BB2757FDBA95EF
:10248000A52F942F832FA81AB90AD201AD92BC921E
:10249000ACCF8091F70C9091F80C009709F4E1C053
:1024A00023E020939A0D9093F8098093F7099E8773
:1024B0008D8780E090E0AD85BE8598CEF101A0814A
:1024C000B181F30180819181A81BB90B2D853E85D7
:1024D0000E94C04629853A854B855C850E94084745
:1024E000D2012D933C9381CFF801E754F34F8081C3
:1024F0009181D5018D939C9315CE82E080939A0DA6
:1025000070911A0D60911B0D7093F7096093F80993
:10251000ABEFBBE0EBE4F5E080E090E08D0109C0BB
:10252000709602960E5F1F4FB7E0EB34FB0709F47D
:102530007DC020812130A1F79C012758334FD9015C
:102540002D913C91D8014D915C91241B350BAC0130
:102550004854564FDA014D915C91241B350BD8013C
:102560002D933C93DDCFBBEFCB2EBBE0DB2E1BEFDF
:10257000E12E1CE0F12E8BE495E000E010E045E058
:10258000442E512C612C712C49011C0111C0F0E129
:102590002F0E311C22E0C20ED11C0E5F1F4F3FEFE9
:1025A000E31AF30A4BE4241647E0340609F481CF1A
:1025B000D1018C91813059F7F70180818130C9F1C7
:1025C000F801E658F84FA081B181F801E758F34FC0
:1025D000A080B180F801E854F64F80819181A81A5B
:1025E000B90A94010E94C0469B01AC01660F771F97
:1025F000881F991F620F731F841F951F660F771F17
:10260000881F991F660F771F881F991FA3019201CA
:102610000E940847BB2757FDBA95A52F942F832FFB
:10262000A81AB90AF601B182A082B1CF7D876E8760
:1026300040CFD6011D921C92AACF10929A0DACE504
:10264000BDE0EBE4F5E006C07096129607E0EB34CF
:10265000F00749F080818130B9F711961C921E92E3
:10266000F3CF10929A0D8091B80C813009F463CDAC
:102670008091B70C8F5F8093B70CA0910E0AA817BA
:1026800008F0C8C080E092E0E8EBF7E0AAEFB9E01C
:1026900001900D920197E1F78091FA0C9091F90960
:1026A000981721F09091090A9093F60991E0909380
:1026B000B70C8093F909A0910E0AB1E0AB1709F4A9
:1026C00084C26B2F70E08B01015011090024169514
:1026D00007950794169507950794102F002DA801CC
:1026E0004650564FFA01E258FF4F80812091100A60
:1026F000289FC001112496958795929582958F7099
:1027000089279F7089279093F80C8093F70CFA0122
:10271000E158FF4F3081329F900111243695279563
:10272000329522952F7023273F70232721153105DD
:1027300011F421E030E04091B80C413009F45EC260
:10274000892B09F4C4C1AB1709F456C3EBEF4E2E25
:10275000ECE05E2EA9EBBCE07B010024F694E7944C
:102760000794F694E7940794FE2CE02CA701465CAE
:10277000554F7A0180EC582F56034001579F900C1B
:102780001124EBE4F5E080E090E059013D01A70160
:1027900068010EC07096BFEF4B1A5B0A029602E00A
:1027A000600E711C4E5F5F4F17E0EB34F107A1F133
:1027B0002081213079F79C012854364FD9011D9290
:1027C0001C929A01280D391D2C0D3D1DD9012D910A
:1027D0003C9136FF18C0D3012D913C91B901E12CF9
:1027E000F12C8C01045E124FD8016D937C93D301C0
:1027F0002D933C939C012758334FD901ED92FC92C5
:10280000D2011C92C7CFD3016D917C917901E61A58
:10281000F70AE7CFB82F52CF950130935B0D209385
:102820005A0D8091120A90E0AC01440F551F4217D7
:10283000530708F4E0C0C9010197969587959093D6
:102840001B0D80931A0D009709F0D9C010925B0DF3
:1028500010925A0D1E861D8619821A821B821C82B6
:102860001D821E821F82188661E06F87412C512CC9
:10287000198A1D8A1F8A188E198E71E07A8F1B8E15
:102880001C8E1D8E1E8E1F8E18A219A27AE7872E0F
:1028900077E0972EEBEF6E2EECE07E2E0BE415E04A
:1028A000212C312C1BA30AA315C00AA11BA1005F78
:1028B0001F4F1BA30AA312E0810E911C22E0220EDF
:1028C000311C3FEF631A730A4AA15BA14B54574076
:1028D00009F484C0AAA1BBA18C91813031F7F10128
:1028E000E45AF24F31812081932F990F990BA980DF
:1028F000BA80CB80DC80ED80FE800F811885492F67
:10290000592F692F792F892F0E945E4759016A013B
:102910007B018C01F101E758F34FA081B18120E0E8
:102920003AE00E94C0462CE030E040E050E00E94D7
:102930000847DA01C901550F220B322FA901298757
:102940003A874B875C87F3012081211122C09C01CB
:10295000AD016985762F862F962F0E947F48AA8C1D
:10296000BB8CCC8CDD8CEE8CFF8C08A119A10E9455
:102970002147D4012C9311963C93822F932F8115DC
:10298000F4E09F070CF1EFEFF3E0D401ED93FC933B
:102990008CCF9C01AD016985762F862F962F0E94E2
:1029A0007F48AF84B42CC52CD988ED88FF88088D6A
:1029B000198D0E942147F40120833183822F932FA8
:1029C0008115F4E09F07FCF681309C4F0CF06DCF31
:1029D000E1E0FCEFD401ED93FC9367CF8D859E85FC
:1029E0009093F8098093F7098091390C90913A0CF3
:1029F000AD85BE85FBCB90931B0D80931A0D4901CD
:102A0000A12CB12C880C991CAA1CBB1CC12CD12C4C
:102A100076019E878D87A0E0B0E0880F991FAA1FDE
:102A2000BB1F8C019D0140E050E0BA0189831A83ED
:102A30002B833C834D835E836F8378879401A5014C
:102A4000B601C7015801CB80DC80E12CF12C00E0FD
:102A500010E00E947F4801E00E945D48722E832EA4
:102A6000942EB52F662E372EF82FE92F00E00E9406
:102A700076482F87432E542E598B6D8B7F8B888FF2
:102A8000998F7A8E8B8E9C8EBD8F6E8E3F8EF8A323
:102A9000E9A3452DA0E00E94884849F411E01F8772
:102AA000412C512C198A1D8A1F8A188E198E272DA8
:102AB000382D492D5B2F662D732D8F2F9E2FA0E073
:102AC0000E94884809F0E2CE21E02A8FD8CEAB17C9
:102AD00009F42AC1ABEFEA2EACE0FA2EB9EB4B2E8B
:102AE000BCE05B2EDB010024B695A7950794B69554
:102AF000A7950794BA2FA02DA65CB54F80EC482F60
:102B000046034001479F900C1124EBE4F5E080E080
:102B100090E0772473945901A7011D0168010FC04B
:102B200070964F5F5F4F0296B2E04B0E511C02E071
:102B3000200E311C17E0EB34F10709F46DCE208133
:102B4000213071F79C012854364FD9011D921C92F7
:102B50009101280D391D2C0D3D1DD9012D913C9160
:102B600036FF2CC0D2012D913C91B901E12CF12C02
:102B70008C01045E124FD8016D937C93D2012D938A
:102B80003C938C010758134FD801ED92FC92D10170
:102B90000D911C9116FD0FC06217730730F42017BA
:102BA000310718F4DA017C92BBCF2617370718F4E7
:102BB00002171307B8F3DA011C92B2CFD2016D915C
:102BC0007C917901E61AF70AD3CF8091FA0B813014
:102BD00009F4A0C08091F60981508093F6098823FA
:102BE00009F493C08091F9098093FA0C811169C0AE
:102BF00081E08093B80CB091B70C63CD892B09F0BC
:102C000046C1AB1709F4F5C14BEF442E4CE0542EEE
:102C1000A9EBBCE07B010024F694E7940794F694BA
:102C2000E7940794FE2CE02CA701465C554F7A01EF
:102C300080EC582F56034001579F900C1124EBE471
:102C4000F5E080E090E059013D01A7010FC07096CA
:102C5000BFEF4B1A5B0A029622E0620E711C4E5FB8
:102C60005F4F37E0EB34F30709F4D6CD20812130F4
:102C700071F79C012854364FD9011D921C929A017C
:102C8000280D391D200F311FD9012D913C91D30101
:102C900036FF35C02D913C917901C12CD12CBC015E
:102CA000645E724FDB01ED92FC92D3012D933C9355
:102CB0009C012758334FD901CD92DC92D2011C924E
:102CC000C6CF9091F90998132AC080E092E0EAEF0C
:102CD000F9E0A8EBB7E001900D920197E1F7809140
:102CE000C707882321F08091CC07811103C081E0C0
:102CF0008093B80CB091B70CA0910E0AE2CCED9085
:102D0000FC906901CE18DF08CACF8091130A809326
:102D1000FA0C6CCF8091140A8093FA0C67CF68EBA1
:102D200077E00E946C18DBCF4BEF5CE0A9EBBCE0D6
:102D30000650164FEBE4F5E080E090E0BB24B3943E
:102D400069013A014D010DC07096BFEF6B1A7B0A05
:102D5000029622E0820E911C37E0EB34F30709F46F
:102D600049C04081413081F7AC014854564FDA01E7
:102D70001D921C92A801480F591F405C5F4FDA0159
:102D80004D915C9156FF2FC0D4014D915C91BA01D9
:102D9000E12CF12C9C01245E324FD9016D937C9380
:102DA000D4014D935C939C012758334FD901ED9288
:102DB000FC929C012850384FD901ED90FC90F6FC14
:102DC0000FC06417750730F44E155F0518F4D30172
:102DD000BC92BACF4617570718F4E416F506B8F3B5
:102DE000D3011C92B1CFD4016D917C917A01E61A86
:102DF000F70AD0CF960111CD4BEF5CE0A9EBBCE018
:102E00000650164FEBE4F5E080E090E04A016901DE
:102E10005D010CC07096BFEF8B1A9B0A029622E0F0
:102E2000A20EB11C37E0EB34F30721F340814130AF
:102E300089F7AC014854564FDA011D921C92A80143
:102E4000480F591F405C5F4FDA014D915C91D501ED
:102E500056FF17C04D915C91BA01E12CF12C9C01F9
:102E6000245E324FD9016D937C93D5014D935C93D1
:102E7000AC014758534FDA01ED92FC92D4011C92F9
:102E8000C9CF6D917C917A01E61AF70AE8CFAB17AA
:102E900009F465C08BEF482E8CE0582EA9EBBCE0FE
:102EA0007B010024F694E7940794F694E794079442
:102EB000FE2CE02CC701865C954F7C0180EC482FEE
:102EC00046034001479F900C1124EBE4F5E080E0BD
:102ED00090E059013D01A70178010FC07096BFEF46
:102EE0004B1A5B0A029602E0600E711C4E5F5F4F48
:102EF00017E0EB34F10709F48FCC2081213071F712
:102F00009C012854364FD9011D921C929A01280D1C
:102F1000391D2E0D3F1DD9012D913C9136FF18C052
:102F2000D3012D913C91B901C12CD12C8C01045EAF
:102F3000124FD8016D937C93D3012D933C939C0148
:102F40002758334FD901CD92DC92D2011C92C6CFC3
:102F5000D3016D917C916901C61AD70AE7CFA9EB1D
:102F6000BCE04BEF5CE00650164FEBE4F5E080E090
:102F700090E05D014A010DC070960296B2E0AB0E82
:102F8000B11C4FEF841A940A57E0EB34F50709F4AB
:102F900044CC4081413081F7AC014854564FDA01AE
:102FA0001D921C92A801480F591F405C5F4FDA0127
:102FB0004D915C91D50156FF16C04D915C91BA01BF
:102FC000E12CF12CDC01A45EB24F6D937C93D50112
:102FD0004D935C93AC014758534FDA01ED92FC924C
:102FE000D4011C92C9CF6D917C917A01E61AF70A3F
:102FF000E9CFA9EBBCE04BEF5CE00650164FEBE4E9
:10300000F5E080E090E05D014A010DC07096029607
:10301000B2E0AB0EB11C4FEF841A940A57E0EB34C8
:10302000F50709F4FACB4081413081F7AC014854EF
:10303000564FDA011D921C92A801480F591F405C9F
:103040005F4FDA014D915C9156FF17C0D5014D914C
:103050005C91BA01E12CF12CDC01A45EB24F6D93BE
:103060007C93D5014D935C93AC014758534FDA01E3
:10307000ED92FC92D4011C92C9CFD5016D917C9147
:103080007A01E61AF70AE8CFFC0120E030E090E090
:103090008191980F2F5F3F4F211582E03807C1F7CC
:1030A00081E0911180E0089520E032E0FC01A90167
:1030B000119241505040E1F70895FB0120E030E0CB
:1030C000DC01A20FB31F4C9141932F5F3F4F21159D
:1030D00042E03407A9F70895EF92FF920F931F93F0
:1030E000CF93DF93F62EE72E082F10E020E030E09C
:1030F00000511F4F2F4F3F4F89E0000F111F221F1C
:10310000331F8A95D1F7C62FD72F80E090E0DC01DE
:10311000AC01BD01400F511F621F731F6BBFFA014D
:10312000479149930196A11DB11D811542E0940775
:10313000A105B10569F7EF2DFE2D20E080E090E0BC
:103140003191230F0196811532E09307C9F781E091
:10315000211180E08195DF91CF911F910F91FF9018
:10316000EF9008954F925F926F927F928F929F920D
:10317000AF92BF92CF92DF92EF92FF921F93CF93C5
:10318000DF938091DD0D813081F0DF91CF911F9130
:10319000FF90EF90DF90CF90BF90AF909F908F9077
:1031A0007F906F905F904F90089510919B0D11301C
:1031B00061F783E00E94510A2091E00D3091E10D0A
:1031C0007C01E21AF30A84E00E94510A2091DE0D8C
:1031D0003091DF0DEC01C21BD30B88E3E8168FEFB3
:1031E000F8060CF470C089ECE816F10414F01093A2
:1031F0009C0DB701882777FD8095982F0E94A749DD
:103200006B017C0126E234EB47E95DE30E94574AFB
:103210002B013C0129E33EE843E65EE3C701B6012A
:103220000E94574A4B015C01BE01882777FD8095BB
:10323000982F0E94A7496B017C012DEC3CEC4CE4DB
:103240005EE30E94574A0E9479497093AE0D6093E5
:10325000AD0D7093B00D6093AF0DC301B2010E942C
:1032600079497093B60D6093B50DC301B2019058C2
:103270000E9479497093B80D6093B70DC501B401F0
:103280000E9479497093BA0D6093B90DC501B401DC
:1032900090580E9479497093BC0D6093BB0D2DEC42
:1032A0003CEC4CEC5DE3C701B6010E94574A9058D4
:1032B0000E9479497093BE0D6093BD0D7093C00D4F
:1032C0006093BF0D62CF82E080939C0D92CFE82F78
:1032D000F0E0EE0FFF1FE356F24F808191810895D9
:1032E0002DE93DE0FC013183208308951092E10D2A
:1032F0001092E00D1092DF0D1092DE0D10929B0DDA
:103300001092DD0D10929C0D80E4EDE9FDE0DF01EF
:103310001D928A95E9F7089580919C0D10929C0D5D
:10332000089510929C0D08952F923F924F925F92B4
:103330006F927F928F929F92AF92BF92CF92DF92C5
:10334000EF92FF920F931F93CF93DF93CDB7DEB72A
:10335000E4970FB6F894DEBF0FBECDBF1092E10D1B
:103360001092E00D1092DF0D1092DE0D82E390E0DE
:103370000E947F0C7E0185E1E80EF11CFE01319672
:10338000FAA7E9A71E01F9E22F0E311C812C912C1E
:1033900054012401350104C00E94160C0E94FE0550
:1033A0000E94C40C8823C1F383E00E94510A8C015F
:1033B000F701819391937F0184E00E94510A6C018F
:1033C000E9A5FAA581939193FAA7E9A7B80180E04E
:1033D00090E00E94A5499B01AC01C301B2010E948B
:1033E000A9482B013C01B60180E090E00E94A5496C
:1033F0009B01AC01C501B4010E94A9484B015C01CD
:10340000E214F30469F60E94D60C20E030E040E2BA
:1034100051E4C301B2010E9411496B017C0120E01B
:1034200030E040E251E4C501B4010E94114969A7AE
:103430007AA78BA79CA76D897E8980E090E00E9487
:10344000A549A70196010E94A8489B01AC010E94D2
:10345000574A20E030E0A9010E94A9482B013C0115
:1034600069817A8180E090E00E94A54929A53AA56A
:103470004BA55CA50E94A8489B01AC010E94574A3D
:1034800020E030E0A9010E94A9484B015C016F894E
:10349000788D80E090E00E94A549A70196010E94E6
:1034A000A8489B01AC010E94574AA30192010E94C7
:1034B000A9482B013C016B817C8180E090E00E9457
:1034C000A54929A53AA54BA55CA50E94A8489B0142
:1034D000AC010E94574A9B01AC01C501B4010E9496
:1034E000A9484B015C01698D7A8D80E090E00E94D3
:1034F000A549A70196010E94A8489B01AC010E9422
:10350000574A9B01AC01C301B2010E94A9482B019B
:103510003C016D817E8180E090E00E94A54929A553
:103520003AA54BA55CA50E94A8489B01AC010E944E
:10353000574A9B01AC01C501B4010E94A9484B0147
:103540005C016B8D7C8D80E090E00E94A549A70115
:1035500096010E94A8489B01AC010E94574A9B011A
:10356000AC01C301B2010E94A9482B013C016F814B
:10357000788580E090E00E94A54929A53AA54BA551
:103580005CA50E94A8489B01AC010E94574A9B0180
:10359000AC01C501B4010E94A9484B015C016D8DCD
:1035A0007E8D80E090E00E94A549A70196010E94CF
:1035B000A8489B01AC010E94574A9B01AC01C30182
:1035C000B2010E94A9482B013C0169857A8580E0FF
:1035D00090E00E94A54929A53AA54BA55CA50E94AB
:1035E000A8489B01AC010E94574A9B01AC01C50150
:1035F000B4010E94A9484B015C016F8D78A180E065
:1036000090E00E94A549A70196010E94A8489B014D
:10361000AC010E94574A9B01AC01C301B2010E9458
:10362000A9482B013C016B857C8580E090E00E94DD
:10363000A54929A53AA54BA55CA50E94A8489B01D0
:10364000AC010E94574A9B01AC01C501B4010E9424
:10365000A9484B015C0169A17AA180E090E00E9439
:10366000A549A70196010E94A8489B01AC010E94B0
:10367000574A9B01AC01C301B2010E94A9482B012A
:103680003C016D857E8580E090E00E94A54929A5DA
:103690003AA54BA55CA50E94A8489B01AC010E94DD
:1036A000574A9B01AC01C501B4010E94A9484B01D6
:1036B0005C016BA17CA180E090E00E94A549A7017C
:1036C00096010E94A8489B01AC010E94574A9B01A9
:1036D000AC01C301B2010E94A9482B013C016F85D6
:1036E000788980E090E00E94A54929A53AA54BA5DC
:1036F0005CA50E94A8489B01AC010E94574A9B010F
:10370000AC01C501B4010E94A9484B015C016DA147
:103710007EA180E090E00E94A549A70196010E9449
:10372000A8489B01AC010E94574A9B01AC01C30110
:10373000B2010E94A9486DA77EA78FA798AB69899F
:103740007A8980E090E00E94A54929A53AA54BA579
:103750005CA50E94A8489B01AC010E94574A9B01AE
:10376000AC01C501B4010E94A94869AB7AAB8BAB2F
:103770009CAB6FA178A580E090E00E94A549A701CD
:1037800096010E94A8482B013C016B897C8980E04E
:1037900090E00E94A54929A53AA54BA55CA50E94E9
:1037A000A8484B015C01A3019201C301B2010E9430
:1037B000574A2DA53EA54FA558A90E94A94820E02B
:1037C00030E040E251E40E9411490E94BE4A2B01C0
:1037D0003C01A5019401C501B4010E94574A29A9E1
:1037E0003AA94BA95CA90E94A94820E030E040E238
:1037F00051E40E9411490E94BE4A4B015C0120E045
:1038000030E040EA51E4C301B2010E940D4987FF54
:103810000AC020E030E040EA51E4C501B4010E9452
:103820000D4987FD26C044E650E06AE070E084E080
:103830000E94E00A809198118F778093981180E020
:10384000E4960FB6F894DEBF0FBECDBFDF91CF91E7
:103850001F910F91FF90EF90DF90CF90BF90AF90AE
:103860009F908F907F906F905F904F903F902F90A0
:10387000089581E080939B0DC701B6010E947949AC
:103880007093E10D6093E00D69A57AA58BA59CA5C9
:103890000E9479497093DF0D6093DE0D0E94D30A78
:1038A00081E0CECF81E08093DD0D08951092DD0D93
:1038B00008958091DD0D08950F931F93CF93DF93AB
:1038C000EC0110912203113091F108F442C0123042
:1038D00081F01330C1F50E94E30F81112CC01092CA
:1038E000E60D1092220381E0DF91CF911F910F919D
:1038F00008950E94E30F81111EC01091E60D809182
:10390000E50D113009F454C0882309F44AC08A81B6
:103910000E94850F1092E50D0E94910F82E0809326
:10392000220380E0DF91CF911F910F9108950E94B3
:10393000E30F882321F11093220380E0DF91CF91E0
:103940001F910F91089580E0DF91CF911F910F910A
:1039500008958091E40D882301F189810E94850FEB
:103960000E94910F8091E40D8093E50D81E080939A
:10397000220380E0DF91CF911F910F910895009174
:10398000E60D8091E50D013009F18111C0CF8B81E9
:103990000E94850F1093E50DBFCF88810E94850F8F
:1039A000DFCF8B810E94850F81E08093E50DB4CF3E
:1039B000811114C08D810E94850F1093E50D0E9426
:1039C000910F83E08093220380E0B8CF811106C07D
:1039D0008D810E94850F0093E50DF1CF8C810E94AF
:1039E000850F1092E50DEBCF1F93CF93DF93EC0182
:1039F00010912103113029F1A0F1123079F0133028
:103A000059F50E94E30F811120C01092E60D10922B
:103A1000210381E0DF91CF911F9108950E94E30F70
:103A2000811113C08091E50D81115FC08091E60D79
:103A3000813009F447C08B810E94850F10932103C8
:103A400033C00E94E30F882309F11093210380E023
:103A5000DF91CF911F91089580E0DF91CF911F9169
:103A600008958091E40D882349F189810E94850F92
:103A70000E94910F8091E40D8093E50D81E0809389
:103A8000210380E0DF91CF911F9108958091E50D92
:103A900081111FC08091E60D8130A1F08B810E94C1
:103AA000850F82E08093210381E08093E50D0E94E1
:103AB000910F80E0DF91CF911F91089588810E943E
:103AC000850FD6CF8D810E94850F83E080932103DF
:103AD000EBCF8A810E94850F1092E50D0E94910F15
:103AE00082E08093210380E0B3CF8A810E94850F1A
:103AF0001092E50D0E94910F1093210380E0A8CF52
:103B00001F93CF93DF93EC0110912003113031F11B
:103B1000A8F1123079F0133061F50E94E30F8111A2
:103B200021C01092E60D1092200381E0DF91CF9129
:103B30001F9108950E94E30F811114C08091E50D3B
:103B4000813009F057C08091E60D813009F45EC0E4
:103B50008A810E94850F1093200333C00E94E30FD7
:103B6000882309F11093200380E0DF91CF911F910A
:103B7000089580E0DF91CF911F9108958091E40D29
:103B8000882341F189810E94850F0E94910F8091C5
:103B9000E40D8093E50D81E08093200380E0DF91C8
:103BA000CF911F9108958091E50D8130B9F48091F6
:103BB000E60D813059F18A810E94850F82E0809361
:103BC00020031092E50D0E94910F80E0DF91CF91CC
:103BD0001F91089588810E94850FD7CF8B810E9405
:103BE000850F1093E50D0E94910F82E080932003D2
:103BF00080E0BBCF8B810E94850F81E08093E50D33
:103C00000E94910F1093200380E0AFCF8C810E941F
:103C1000850F83E080932003D4CF8091E50D882326
:103C200019F01092E50D089581E08093E50D089557
:103C3000681B790B683F88EF780744F0693087E0AC
:103C4000780714F060517E40CB010895605F714F9A
:103C5000CB010895680F791F77FD08C061318EE0B0
:103C6000780714F060517E40CB010895605F714F7A
:103C7000CB0108951092E60D1092E40D1092E50D1F
:103C80001092E30D1092E20D089581E08093E60D0D
:103C900008958093E40D08951092E30D1092E20DC3
:103CA00008958091E20D9091E30D0895CF93DF93F5
:103CB000C0912203C13071F1D8F1C23071F0C3302C
:103CC00099F50E94E30F811129C01092E60D109220
:103CD000220381E0DF91CF9108950E94E30F8111CB
:103CE0001DC0C091E60D8091E50DC13009F451C0B1
:103CF000882309F446C0809102020E94850F109229
:103D0000E50D0E94910F82E08093220380E0DF9115
:103D1000CF9108950E94E30F8823F9F0C093220306
:103D200080E0DF91CF91089580E0DF91CF910895F9
:103D30008091E40D882301F1809101020E94850F9A
:103D40000E94910F8091E40D8093E50D81E08093B6
:103D5000220380E0DF91CF910895D091E60D80910C
:103D6000E50DD13029F18111C6CF809103020E9467
:103D7000850FC093E50DC5CF809100020E94850F8D
:103D8000DFCF809103020E94850F81E08093E50DD3
:103D9000B8CF811116C0809105020E94850FC09393
:103DA000E50D0E94910F83E08093220380E0B9CF5C
:103DB000811107C0809105020E94850FD093E50D07
:103DC000F0CF809104020E94850F1092E50DE9CF9B
:103DD000CF93DF93C0912203C13071F1D8F1C2308B
:103DE00071F0C33099F50E94E30F811129C0109240
:103DF000E60D1092220381E0DF91CF9108950E9499
:103E0000E30F81111DC0C091E60D8091E50DC13019
:103E100009F451C0882309F446C0809108020E9429
:103E2000850F1092E50D0E94910F82E0809322038E
:103E300080E0DF91CF9108950E94E30F8823F9F08D
:103E4000C093220380E0DF91CF91089580E0DF915D
:103E5000CF9108958091E40D882301F180910702AC
:103E60000E94850F0E94910F8091E40D8093E50DD3
:103E700081E08093220380E0DF91CF910895D0917B
:103E8000E60D8091E50DD13029F18111C6CF8091E9
:103E900009020E94850FC093E50DC5CF80910602EF
:103EA0000E94850FDFCF809109020E94850F81E07B
:103EB0008093E50DB8CF811116C080910B020E944E
:103EC000850FC093E50D0E94910F83E0809322033C
:103ED00080E0B9CF811107C080910B020E94850F4D
:103EE000D093E50DF0CF80910A020E94850F1092C9
:103EF000E50DE9CFCF93C0912103C13021F178F1D5
:103F0000C23069F0C33041F50E94E30F81111FC038
:103F10001092E60D1092210381E0CF9108950E9446
:103F2000E30F811114C08091E50D81115DC0809176
:103F3000E60D813009F443C080910F020E94850F85
:103F4000C09321032FC00E94E30F8823E1F0C093A8
:103F5000210380E0CF91089580E0CF910895809172
:103F6000E40D882339F180910D020E94850F0E9493
:103F7000910F8091E40D8093E50D81E08093210302
:103F800080E0CF9108958091E50D811120C080914E
:103F9000E60D8130A1F080910F020E94850F82E032
:103FA0008093210381E08093E50D0E94910F80E0D2
:103FB000CF91089580910C020E94850FD8CF8091F7
:103FC00011020E94850F83E080932103EBCF809143
:103FD0000E020E94850F1092E50D0E94910F82E063
:103FE0008093210380E0B6CF80910E020E94850F5E
:103FF0001092E50D0E94910FC093210380E0AACF9B
:10400000CF93C0912003C13029F180F1C23069F013
:10401000C33049F50E94E30F811120C01092E60DD4
:104020001092200381E0CF9108950E94E30F811147
:1040300015C08091E50D813009F054C08091E60DE6
:10404000813009F45CC0809114020E94850FC093F6
:1040500020032FC00E94E30F8823E1F0C0932003C8
:1040600080E0CF91089580E0CF9108958091E40D94
:10407000882331F1809113020E94850F0E94910FD5
:104080008091E40D8093E50D81E08093200380E032
:10409000CF9108958091E50D8130B9F48091E60DBE
:1040A000813069F1809114020E94850F82E0809333
:1040B00020031092E50D0E94910F80E0CF910895AA
:1040C000809112020E94850FD9CF809115020E9423
:1040D000850FC093E50D0E94910F82E0809320032D
:1040E00080E0BFCF809115020E94850F81E0809310
:1040F000E50D0E94910FC093200380E0B2CF809124
:1041000016020E94850F83E080932003D2CFCF93C5
:10411000C0912103C13021F178F1C23069F0C33080
:1041200041F50E94E30F81111FC01092E60D10921D
:10413000210381E0CF9108950E94E30F811114C003
:104140008091E50D81115DC08091E60D813009F40B
:1041500043C080911B020E94850FC09321032FC092
:104160000E94E30F8823E1F0C093210380E0CF9108
:10417000089580E0CF9108958091E40D882339F16E
:10418000809119020E94850F0E94910F8091E40D89
:104190008093E50D81E08093210380E0CF91089525
:1041A0008091E50D811120C08091E60D8130A1F054
:1041B00080911B020E94850F82E08093210381E0A1
:1041C0008093E50D0E94910F80E0CF91089580913A
:1041D00018020E94850FD8CF80911D020E94850F82
:1041E00083E080932103EBCF80911A020E94850F18
:1041F0001092E50D0E94910F82E08093210380E0F0
:10420000B6CF80911A020E94850F1092E50D0E9490
:10421000910FC093210380E0AACFCF93C0912003D8
:10422000C13029F180F1C23069F0C33049F50E94F4
:10423000E30F811120C01092E60D1092200381E05F
:10424000CF9108950E94E30F811115C08091E50D73
:10425000813009F054C08091E60D813009F45CC0D2
:10426000809120020E94850FC09320032FC00E94DE
:10427000E30F8823E1F0C093200380E0CF910895FD
:1042800080E0CF9108958091E40D882331F18091F1
:104290001F020E94850F0E94910F8091E40D809370
:1042A000E50D81E08093200380E0CF910895809117
:1042B000E50D8130B9F48091E60D813069F180918E
:1042C00020020E94850F82E0809320031092E50D6A
:1042D0000E94910F80E0CF91089580911E020E946C
:1042E000850FD9CF809121020E94850FC093E50DE3
:1042F0000E94910F82E08093200380E0BFCF8091E5
:1043000021020E94850F81E08093E50D0E94910FAC
:10431000C093200380E0B2CF809122020E94850FDB
:1043200083E080932003D2CFCF93C0912103C1308B
:1043300021F178F1C23069F0C33041F50E94E30FFA
:1043400081111FC01092E60D1092210381E0CF91E0
:1043500008950E94E30F811114C08091E50D811131
:104360005DC08091E60D813009F443C08091270241
:104370000E94850FC09321032FC00E94E30F882362
:10438000E1F0C093210380E0CF91089580E0CF91C8
:1043900008958091E40D882339F1809125020E94CF
:1043A000850F0E94910F8091E40D8093E50D81E0CF
:1043B0008093210380E0CF9108958091E50D8111D4
:1043C00020C08091E60D8130A1F0809127020E94EB
:1043D000850F82E08093210381E08093E50D0E94A8
:1043E000910F80E0CF910895809124020E94850F63
:1043F000D8CF809129020E94850F83E0809321030A
:10440000EBCF809126020E94850F1092E50D0E944D
:10441000910F82E08093210380E0B6CF8091260245
:104420000E94850F1092E50D0E94910FC093210309
:1044300080E0AACFCF93C0912003C13029F180F151
:10444000C23069F0C33049F50E94E30F811120C0EA
:104450001092E60D1092200381E0CF9108950E9402
:10446000E30F811115C08091E50D813009F054C032
:104470008091E60D813009F45CC080912C020E948D
:10448000850FC09320032FC00E94E30F8823E1F023
:10449000C093200380E0CF91089580E0CF910895EC
:1044A0008091E40D882331F180912B020E94850FC9
:1044B0000E94910F8091E40D8093E50D81E080933F
:1044C000200380E0CF9108958091E50D8130B9F40B
:1044D0008091E60D813069F180912C020E94850F58
:1044E00082E0809320031092E50D0E94910F80E0FE
:1044F000CF91089580912A020E94850FD9CF809193
:104500002D020E94850FC093E50D0E94910F82E05D
:104510008093200380E0BFCF80912D020E94850F01
:1045200081E08093E50D0E94910FC093200380E00D
:10453000B2CF80912E020E94850F83E080932003EA
:10454000D2CFCF93C0912103C13021F178F1C23095
:1045500069F0C33041F50E94E30F81111FC0109232
:10456000E60D1092210381E0CF9108950E94E30FA0
:10457000811114C08091E50D81115DC08091E60D1F
:10458000813009F443C0809133020E94850FC093AB
:1045900021032FC00E94E30F8823E1F0C093210381
:1045A00080E0CF91089580E0CF9108958091E40D4F
:1045B000882339F1809131020E94850F0E94910F6A
:1045C0008091E40D8093E50D81E08093210380E0EC
:1045D000CF9108958091E50D811120C08091E60D65
:1045E0008130A1F0809133020E94850F82E0809398
:1045F000210381E08093E50D0E94910F80E0CF912F
:104600000895809130020E94850FD8CF80913502A5
:104610000E94850F83E080932103EBCF80913202CB
:104620000E94850F1092E50D0E94910F82E0809309
:10463000210380E0B6CF809132020E94850F109254
:10464000E50D0E94910FC093210380E0AACFCF9384
:10465000C0912003C13029F180F1C23069F0C3302C
:1046600049F50E94E30F811120C01092E60D1092CF
:10467000200381E0CF9108950E94E30F811115C0BE
:104680008091E50D813009F054C08091E60D8130B4
:1046900009F45CC0809138020E94850FC09320030A
:1046A0002FC00E94E30F8823E1F0C093200380E035
:1046B000CF91089580E0CF9108958091E40D8823F3
:1046C00031F1809137020E94850F0E94910F8091F5
:1046D000E40D8093E50D81E08093200380E0CF918D
:1046E00008958091E50D8130B9F48091E60D813017
:1046F00069F1809138020E94850F82E08093200347
:104700001092E50D0E94910F80E0CF910895809165
:1047100036020E94850FD9CF809139020E94850F01
:10472000C093E50D0E94910F82E08093200380E00A
:10473000BFCF809139020E94850F81E08093E50D03
:104740000E94910FC093200380E0B2CF80913A0283
:104750000E94850F83E080932003D2CFCF93C09136
:104760002103C13021F178F1C23069F0C33041F545
:104770000E94E30F81111FC01092E60D10922103D9
:1047800081E0CF9108950E94E30F811114C08091C0
:10479000E50D81115DC08091E60D813009F443C0C3
:1047A00080913F020E94850FC09321032FC00E9479
:1047B000E30F8823E1F0C093210380E0CF910895B7
:1047C00080E0CF9108958091E40D882339F18091A4
:1047D0003D020E94850F0E94910F8091E40D80930D
:1047E000E50D81E08093210380E0CF9108958091D1
:1047F000E50D811120C08091E60D8130A1F08091FE
:104800003F020E94850F82E08093210381E0809324
:10481000E50D0E94910F80E0CF91089580913C02B8
:104820000E94850FD8CF809141020E94850F83E0BE
:1048300080932103EBCF80913E020E94850F10925E
:10484000E50D0E94910F82E08093210380E0B6CFB6
:1048500080913E020E94850F1092E50D0E94910FFB
:10486000C093210380E0AACFCF93C0912003C13031
:1048700029F180F1C23069F0C33049F50E94E30F9D
:10488000811120C01092E60D1092200381E0CF919B
:1048900008950E94E30F811115C08091E50D8130CC
:1048A00009F054C08091E60D813009F45CC080911C
:1048B00044020E94850FC09320032FC00E94E30F83
:1048C0008823E1F0C093200380E0CF91089580E039
:1048D000CF9108958091E40D882331F180914302B6
:1048E0000E94850F0E94910F8091E40D8093E50D49
:1048F00081E08093200380E0CF9108958091E50DC1
:104900008130B9F48091E60D813069F180914402E3
:104910000E94850F82E0809320031092E50D0E9493
:10492000910F80E0CF910895809142020E94850FFF
:10493000D9CF809145020E94850FC093E50D0E945A
:10494000910F82E08093200380E0BFCF80914502E9
:104950000E94850F81E08093E50D0E94910FC09326
:10496000200380E0B2CF809146020E94850F83E051
:1049700080932003D2CFCF93C0912103C13021F186
:1049800078F1C23069F0C33041F50E94E30F811124
:104990001FC01092E60D1092210381E0CF9108957F
:1049A0000E94E30F811114C08091E50D81115DC05B
:1049B0008091E60D813009F443C080914B020E9442
:1049C000850FC09321032FC00E94E30F8823E1F0DD
:1049D000C093210380E0CF91089580E0CF910895A6
:1049E0008091E40D882339F1809149020E94850F5E
:1049F0000E94910F8091E40D8093E50D81E08093FA
:104A0000210380E0CF9108958091E50D811120C0B0
:104A10008091E60D8130A1F080914B020E94850FBC
:104A200082E08093210381E08093E50D0E94910F45
:104A300080E0CF910895809148020E94850FD8CFE1
:104A400080914D020E94850F83E080932103EBCF7C
:104A500080914A020E94850F1092E50D0E94910FED
:104A600082E08093210380E0B6CF80914A020E94C9
:104A7000850F1092E50D0E94910FC093210380E0F5
:104A8000AACFCF93C0912003C13029F180F1C23069
:104A900069F0C33049F50E94E30F811120C01092E4
:104AA000E60D1092200381E0CF9108950E94E30F5C
:104AB000811115C08091E50D813009F054C08091BD
:104AC000E60D813009F45CC0809150020E94850F90
:104AD000C09320032FC00E94E30F8823E1F0C0930E
:104AE000200380E0CF91089580E0CF9108958091D8
:104AF000E40D882331F180914F020E94850F0E94BE
:104B0000910F8091E40D8093E50D81E08093200367
:104B100080E0CF9108958091E50D8130B9F48091C6
:104B2000E60D813069F1809150020E94850F82E08C
:104B3000809320031092E50D0E94910F80E0CF91A9
:104B4000089580914E020E94850FD9CF8091510225
:104B50000E94850FC093E50D0E94910F82E0809323
:104B6000200380E0BFCF809151020E94850F81E039
:104B70008093E50D0E94910FC093200380E0B2CF97
:104B8000809152020E94850F83E080932003D2CF50
:104B9000CF93DF93C0912203C13071F1D8F1C230BD
:104BA00071F0C33099F50E94E30F811129C0109272
:104BB000E60D1092220381E0DF91CF9108950E94CB
:104BC000E30F81111DC0C091E60D8091E50DC1304C
:104BD00009F451C0882309F446C0809156020E940E
:104BE000850F1092E50D0E94910F82E080932203C1
:104BF00080E0DF91CF9108950E94E30F8823F9F0C0
:104C0000C093220380E0DF91CF91089580E0DF918F
:104C1000CF9108958091E40D882301F18091550290
:104C20000E94850F0E94910F8091E40D8093E50D05
:104C300081E08093220380E0DF91CF910895D091AD
:104C4000E60D8091E50DD13029F18111C6CF80911B
:104C500057020E94850FC093E50DC5CF8091540285
:104C60000E94850FDFCF809157020E94850F81E05F
:104C70008093E50DB8CF811116C0809159020E9432
:104C8000850FC093E50D0E94910F83E0809322036E
:104C900080E0B9CF811107C0809159020E94850F31
:104CA000D093E50DF0CF809158020E94850F1092AD
:104CB000E50DE9CFCF93DF93C0912203C13071F1AD
:104CC000D8F1C23071F0C33099F50E94E30F811121
:104CD00029C01092E60D1092220381E0DF91CF915E
:104CE00008950E94E30F81111DC0C091E60D8091CF
:104CF000E50DC13009F451C0882309F446C0809104
:104D00005C020E94850F1092E50D0E94910F82E0D7
:104D10008093220380E0DF91CF9108950E94E30FFA
:104D20008823F9F0C093220380E0DF91CF910895AA
:104D300080E0DF91CF9108958091E40D882301F107
:104D400080915B020E94850F0E94910F8091E40D7B
:104D50008093E50D81E08093220380E0DF91CF9185
:104D60000895D091E60D8091E50DD13029F18111A2
:104D7000C6CF80915D020E94850FC093E50DC5CF1F
:104D800080915A020E94850FDFCF80915D020E94C0
:104D9000850F81E08093E50DB8CF811116C0809119
:104DA0005F020E94850FC093E50D0E94910F83E082
:104DB0008093220380E0B9CF811107C080915F0208
:104DC0000E94850FD093E50DF0CF80915E020E9486
:104DD000850F1092E50DE9CF08950895089508957F
:104DE00008950895089508951F93CF93DF931F9218
:104DF0001F92CDB7DEB7681B790B683F88EF780745
:104E00003CF5605F714F10911F03113059F1113063
:104E100008F4A1C0123009F45EC0133009F094C048
:104E20000E94E30F811187C08091E20D9091E30D04
:104E300001969093E30D8093E20D1092E60D10928F
:104E40001F0381E00F900F90DF91CF911F91089584
:104E50006930E7E07E07BCF260517E4010911F038D
:104E60001130A9F669837A830E94E30F69817A8100
:104E7000811161C08091E20D9091E30D01969093B4
:104E8000E30D8093E20D8091E60D813009F4B2C00C
:104E9000CB018D599F4F873C910508F47BC08091D1
:104EA000E50D6C39FFEF7F070CF08AC0882309F409
:104EB000C3C0813009F4F9C091E090931F038111C0
:104EC0008BC081E08093E50D80E00F900F90DF9123
:104ED000CF911F91089569837A830E94E30F6981BE
:104EE0007A81811128C08091E20D9091E30D0196A5
:104EF0009093E30D8093E20D8091E60D813009F4EB
:104F000088C0CB0177FDA0C0853691050CF46DC03B
:104F10008091E50D161617060CF04CC0811190C05B
:104F20008CE60E94850F0E94910F82E080931F0300
:104F30008091E50DC4CF10931F0380E00F900F9078
:104F4000DF91CF911F91089580E00F900F90DF9136
:104F5000CF911F9108958091E40D8823B9F082E2EA
:104F60000E94850F0E94910F8091E40D90E00196C0
:104F7000817099278093E50D81E080931F0380E085
:104F80000F900F90DF91CF911F91089580E20E94C2
:104F9000850FE8CF8091E50D882309F44DC086E2A6
:104FA0000E94850F0E94910F81E080931F038091E2
:104FB000E50D85CF81115AC088E70E94850FB3CFD8
:104FC000653671050CF468C0813049F3882309F413
:104FD00058C081E080931F031092E50D80E00F9090
:104FE0000F90DF91CF911F91089581E080931F036F
:104FF00080E0A4CF8091E50D81112BC088E20E9452
:10500000850F0E94910F83E080931F038091E50D2F
:1050100056CF8091E50D16161706FCF4813051F13C
:105020008CE60E94850F10931F030E94910F8091C0
:10503000E50D8111D1CF45CF84E20E94850FB2CF1B
:105040008EE60E94850F6FCF88279927861B970BC6
:105050005BCF8AE20E94850FD4CF811120C08CE7FC
:105060000E94850F83E080931F03DFCF8AE70E94B1
:10507000850F59CF82E70E94850F83E080931F033D
:10508000D4CF82E080931F038CE60E94850F0E949C
:10509000910F8091E50D13CF77FF98CF0ACF8AE764
:1050A0000E94850F10931F03C0CF8AE70E94850FCF
:1050B00082E080931F030E94910F8091E50DFFCE47
:1050C0001F93CF93DF931F921F92CDB7DEB7681B5C
:1050D000790B683F88EF78073CF5605F714F10915E
:1050E0001E03113059F1113008F49EC0123009F43A
:1050F0005DC0133009F091C00E94E30F811184C09C
:105100008091E20D9091E30D01979093E30D8093D0
:10511000E20D1092E60D10921E0381E00F900F90A9
:10512000DF91CF911F9108956930E7E07E07BCF2CF
:1051300060517E4010911E031130A9F669837A8375
:105140000E94E30F69817A8181115EC08091E20D36
:105150009091E30D01979093E30D8093E20D809180
:10516000E60D813009F4B0C0CB018D599F4F873CCB
:10517000910508F478C08091E50D653671050CF451
:1051800088C0882309F4C2C0813009F4E7C091E0E7
:1051900090931E0381118AC081E08093E50D80E029
:1051A0000F900F90DF91CF911F91089569837A83BB
:1051B0000E94E30F69817A81811126C08091E20DFE
:1051C0009091E30D01979093E30D8093E20D809110
:1051D000E60D813009F487C0CB0177FD9FC085368D
:1051E00091050CF46CC08091E50D77FD4CC08111E8
:1051F00091C080E90E94850F0E94910F82E0809308
:105200001E038091E50DC6CF10931E0380E00F9022
:105210000F90DF91CF911F91089580E00F900F9034
:10522000DF91CF911F9108958091E40D8823B9F00B
:105230008EE20E94850F0E94910F8091E40D90E014
:105240000196817099278093E50D81E080931E037C
:1052500080E00F900F90DF91CF911F9108958CE225
:105260000E94850FE8CF8091E50D882309F44EC098
:1052700082E30E94850F0E94910F81E080931E03BC
:105280008091E50D87CF811160C084E80E94850F71
:10529000B3CF6C39FFEF7F070CF05BC0813041F377
:1052A000882309F46DC081E080931E031092E50D00
:1052B00080E00F900F90DF91CF911F91089581E0D2
:1052C00080931E0380E0A3CF8091E50D81112BC058
:1052D00084E30E94850F0E94910F83E080931E0358
:1052E0008091E50D57CF8091E50D77FD26C08111A6
:1052F0001EC084E90E94850F83E080931E030E94F4
:10530000910F8091E50D8111D1CF46CF80E30E94AE
:10531000850FB1CF82E90E94850F6ECF882799272C
:10532000861B970B5CCF86E30E94850FD4CF82E962
:105330000E94850F10931E03E2CF8130D1F084E8E4
:105340000E94850F10931E03DACF86E80E94850F16
:1053500053CF161617060CF417CFA2CF82E90E947E
:10536000850F82E080931E030E94910F8091E50DCE
:1053700011CF8AE80E94850F83E080931E03BFCF80
:1053800082E080931E0384E80E94850F0E94910FA3
:105390008091E50DFFCECF93DF93D82FC0911D03F1
:1053A000C13019F180F0C23021F080E0DF91CF915F
:1053B00008950E94CD0C811129C0C0931D0380E087
:1053C000DF91CF9108950E94E30F81111BC0D1306E
:1053D00019F18CE10E94850F0E94910F81E080936A
:1053E0001D0380E0DF91CF9108950E94E30F8111AA
:1053F000E4CF82E080931D0388EE93E00E94A10C2D
:1054000080E0D4CF10921D0380E0D0CF0E9491198C
:1054100010921D0381E0CACF8BE10E94850FDCCF83
:10542000CF93C82F40911C0350E04830510530F015
:1054300080E0C11110921C03CF910895FA01EA593E
:10544000FE4F0C9457480E94E30F882309F456C07E
:1054500086E080931C0380E0ECCF0E94E30F88235A
:1054600009F448C087E080931C0380E0E2CF0E94EB
:10547000E30F8823A9F10E94DF0F81E080931C03D2
:1054800080E0D7CF0E94E30F882351F181E0809321
:105490001C0380E0CECF0E94E30F882309F456C09E
:1054A00082E080931C0380E0C4CF0E94CD0C811168
:1054B00043C083E080931C0380E0BBCF0E94E30FD6
:1054C000882381F184E080931C0380E0B2CF0E94A6
:1054D000E30F8823E9F085E080931C0380E0A9CFE7
:1054E00083EE0E94850F0E94910F82E080931C033F
:1054F00080E09FCF10921C0381E09BCF8FE10E9440
:10550000850F0E94910F87E080931C0380E091CF6C
:1055100082EE0E94850F0E94910F86E080931C030B
:1055200080E087CF81EE0E94850F0E94910F85E079
:1055300080931C0380E07DCF80EE0E94850F0E9447
:10554000910F84E080931C0380E073CF8CED95E095
:105550000E94A10C83E080931C0380E06ACFCF936C
:10556000C0911B03C23009F441C068F0C430C1F0DF
:1055700098F1C53019F50E94E30F81110CC010920B
:105580001B0381E00BC0CC23E1F0C130B9F40E94D1
:10559000E30F8823C9F1C0931B0380E0CF910895E6
:1055A0000E94E30F8111F7CF8FE10E94850F0E94C7
:1055B000910F85E080931B0380E0F0CF80E0CF91D6
:1055C00008950E94E30F8823F9F00E94DF0F81E025
:1055D00080931B0380E0E2CF0E94E30F8823F9F061
:1055E00083E080931B0380E0CF9108950E94E30F36
:1055F0008111D1CF85EE0E94850F0E94910F83E02B
:1056000080931B0380E0CACF84EE0E94850F0E9426
:10561000910F82E080931B0380E0CF91089586EE86
:105620000E94850F0E94910F84E080931B0380E00D
:10563000B5CF1F93CF93DF93EB01C81BD90BC83FA6
:1056400088EFD8079CF5C05FD14F10911A03123034
:10565000B9F1133008F04DC0112309F472C01130B4
:1056600009F061C00E94E30F811184C08091E60DB2
:10567000813009F49FC0C953DF4FCF38D14008F4BF
:1056800088C08091E50D813009F4A2C084E50E94B4
:10569000850F0E94910F10931A038091E50D8111DF
:1056A00085C081E08093E50D80E03EC0C93097E081
:1056B000D9075CF2C051DE4010911A03123049F64E
:1056C0000E94E30F882309F460C010931A03D7FDEA
:1056D00021C08CE092E00E94F41C811129C0C436E4
:1056E000D1050CF591E09093E60DDF91CF911F91DC
:1056F0000895133061F31430B1F40E94E30F811167
:1057000039C01092E60D10921A0381E0DF91CF911B
:105710001F91089582E192E00E94801D811108C0CE
:10572000CD39DF4FFCF680E0DF91CF911F910895D6
:1057300010921A031092E60D80E0DF91CF911F9135
:1057400008958091E40D81111CC080E50E94850FB1
:105750000E94910F8091E40D90E00196817099274D
:105760008093E50D81E080931A0380E0DF91CF9173
:105770001F91089510931A0380E0DF91CF911F913C
:10578000089582E50E94850FE3CF83E080931A039A
:105790009ECF8091E50D811117C084E50E94850F91
:1057A0000E94910F81E080931A0377CF1092E50D4C
:1057B00080E0BACF8091E50D813099F084E50E94B8
:1057C000850F0E94910F69CF86E50E94850FE8CF73
:1057D0008AE50E94850F0E94910F82E080931A0350
:1057E0005CCF8AE50E94850F84E080931A03E9CF9D
:1057F0001F93CF93DF93EB01C81BD90BC83F88EFF2
:10580000D8079CF5C05FD14F109119031230B9F140
:10581000133008F04DC0112309F472C0113009F0A3
:1058200061C00E94E30F811184C08091E60D813038
:1058300009F49FC0C953DF4FCF38D14008F488C066
:105840008091E50D8111A2C084E60E94850F0E941F
:10585000910F82E0809319038091E50D811185C03D
:1058600081E08093E50D80E03EC0C93097E0D90724
:105870005CF2C051DE4010911903123049F60E94CB
:10588000E30F882309F460C010931903D7FD21C0EA
:105890008CE092E00E94F41C811129C0C436D1052D
:1058A0000CF591E09093E60DDF91CF911F91089553
:1058B000133061F31430B1F40E94E30F811139C049
:1058C0001092E60D1092190381E0DF91CF911F91A4
:1058D000089582E192E00E94801D811108C0CD39B7
:1058E000DF4FFCF680E0DF91CF911F910895109279
:1058F00019031092E60D80E0DF91CF911F9108957A
:105900008091E40D81111CC08CE50E94850F0E94DE
:10591000910F8091E40D90E001968170992780931A
:10592000E50D81E08093190380E0DF91CF911F9115
:1059300008951093190380E0DF91CF911F9108958E
:105940008EE50E94850FE3CF83E0809319039ECFFD
:105950008091E50D811122C080E60E94850F0E9492
:10596000910F81E08093190377CF1092E50D80E0CD
:10597000BACF8091E50D811115C084E60E94850F94
:1059800084E0809319030E94910F66CF82E60E9403
:10599000850F0E94910F109319035ECF82E60E943B
:1059A000850FDDCF82E60E94850FEDCF1F93CF9349
:1059B000DF93EC0180911803823009F483C028F54D
:1059C000882309F457C0813061F5C0911403D09148
:1059D00015030E94913A9E01281B390BC901883F8B
:1059E00038EF93070CF08FC0805F914F97FDBFC0D9
:1059F000853691050CF08FC084E08093180310E089
:105A0000812FDF91CF911F910895833081F08430F1
:105A100041F41092180311E0812FDF91CF911F9173
:105A2000089510E0812FDF91CF911F91089582E1B9
:105A300092E00E94801D182F8111DECFC0911403C7
:105A4000D09115030E94913A9E01281B390B283FE3
:105A500088EF38070CF47EC0293087E0380714F04F
:105A600020513E40243631050CF47AC083E0809307
:105A70001803C6CF0E94913A9093170380931603A0
:105A80009E01220F331FCC0FDD1FCC0FDD1FCC0F6B
:105A9000DD1F2C0F3D1F280F391F37FD65C0213139
:105AA0008EE0380714F020513E40309315032093C8
:105AB000140381E08093180310E0812FDF91CF91D0
:105AC0001F9108958CE092E00E94F41C182F811120
:105AD00093CFC0911403D09115030E94913A9E0177
